:100000000C9467030C94AE030C94AE030C94AE03F3
:100010000C94AE030C94AE030C94AE030C94AE039C
:100020000C94AE030C94AE030C94182C0C94EA2C94
:100030000C9459270C94AE030C94AE030C94AE03AD
:100040000C94AE030C94AE030C94AE030C94AE036C
:100050000C94AE030C94B2270C94AE030C94AE0334
:100060000C94AE030C94AE030C94AE030C94AE034C
:100070000C94AE030C94AE030C94AE030C94AE033C
:100080000C94AE030C94AE030C94AE030C94AE032C
:100090000C94AE030C94AE030C94AE030C94AE031C
:1000A0000C94AE030C94AE030C94AE0326063606F5
:1000B0003F067E06AD06DF06110743077507A70753
:1000C000DC070E0840087208A108D6080E09CE1CED
:1000D000CE1C001D001D4D1D6B1D8C1E8C1E761D23
:1000E0000B1E1C1E1C1E7C1E8C1E8C1E851E2C1F97
:1000F0002C1F3E1F3E1F351F3E1F3E1F3E1F2C1F45
:100100002C1F3A1F3E1F3E1F3A1F572D7E2D762E65
:100110007E2D762ECA2DED2D762E442E532E07637E
:100120004236B79BD8A71A39685618AEBAAB558C69
:100130001D3CB7CC5763BD6DEDFD753EF6177231B2
:10014000BF000000803F05A84CCDB2D44EB9383670
:10015000A9020C50B9918688083CA6AAAA2ABE001A
:100160000000803F29002B0000008B62E4001F008C
:10017000360012001400E3002100130018000E00E6
:100180008B4349004C002D002F0029004B004E00EE
:100190002E003000035324000A000B0010008A4296
:1001A0002600150011001900E7002A003100380070
:1001B0002872E4001E0034000400330035042000DF
:1001C000370008000D00E20022001C000C001B009C
:1001D0002C614A004D0035020000287223000900FE
:1001E000070005002C722500060017001A00E60023
:1001F00027000F0016001D006544000000000000ED
:100200000000000001000100010001000100615D2B
:1002100001000100010001000100010001000100D6
:100220008B4301000100675D695D01000100010071
:10023000685D6A5D0100635D0100010001008A42A2
:10024000655D010001000100010001006B5D01001E
:100250000100010001006D5D01006C5D0100010005
:100260000100010001000100010001000100010086
:100270000100010001006E5D01000100625D0100EE
:10028000010001000100645D0100010001000100A6
:10029000665D010001000100010000000000000097
:1002A0000000000035022B000000E10001004500C5
:1002B0003B004E001B01010000003D004D001901F4
:1002C0000100010001000100010001000100010026
:1002D0000100010001000000400050005800010032
:1002E0000000420052000000010001000100010076
:1002F0000100010044003A004A001D0139000000DD
:100300003C004B000601010000003E0029000000F7
:1003100001000100010001000100010000003F0098
:100320002A0000000100000041005100000001000F
:10033000000043004F0000003D14000000000000DA
:100340000000000035002B000000280001001F0203
:10035000000051001B010100210200004F001901A3
:100360000100010001000100010001000100010085
:1003700001000100010024025F005C0059006200DE
:10038000260261005E005B00630001000100540072
:10039000580001001E02000050001D01390020021B
:1003A00000005200060101002202000029000000A6
:1003B00001000100010001000100010023022E00E4
:1003C0002A0000000100250260005D005A00605D07
:1003D00027025600570055003D14000000000000A1
:1003E000000000005F5D0000000000000100000050
:1003F000C65CC75C000001000000CA5CCB5C00006A
:10040000010046000000000000520000480000000B
:1004100000000152000000000000A80000000100E0
:1004200000000000A9000000010000000000000022
:1004300000000100000000000000000001000000BA
:10044000C85CC95C000001000000C45CC55CC35C02
:100450000000470000000000000000000000530002
:1004600000000000000000000000AA0000000100E1
:10047000000000000000000001000000000000007B
:10048000000000001E0F057F3F1F643214783C1EE1
:100490001E140A05FFAA7F55400001010101010158
:1004A000010101020202020202020202030303032B
:1004B00003030303040404040404040505050505FB
:1004C00006060606060707070707080808080909B9
:1004D00009090A0A0A0B0B0B0C0C0C0D0D0D0E0E64
:1004E0000E0F0F0F101011111112121313141415F7
:1004F0001516161717181819191A1A1B1B1C1D1D6B
:100500001E1E1F20202122222324242526262728C0
:1005100029292A2B2C2D2D2E2F30313232333435F0
:10052000363738393A3B3C3D3E3F404142434445F3
:10053000464748494A4C4D4E4F50515354555658D2
:10054000595A5B5D5E5F616264656668696B6C6D7C
:100550006F7072737577787A7B7D7E8082838587F2
:10056000888A8C8E8F91939596989A9C9EA0A2A330
:10057000A5A7A9ABADAFB1B3B5B7BABCBEC0C2C435
:10058000C6C9CBCDCFD1D4D6D8DBDDDFE2E4E7E9F5
:10059000EBEEF0F3F5F8FAFDFF14034100530054BD
:1005A00000520041002000350031003500000010ED
:1005B000034C0065006B00690070006F006E000066
:1005C000000403090409023B00020100A0FA090427
:1005D0000000010301010009211101000122400076
:1005E0000705810308000A09040100010300000057
:1005F000092111010001227B000705820320000A66
:100600001201100100000008EDFE15A50100010215
:10061000000105010902A10185020901A1000509E6
:1006200019012908150025019508750181020501A8
:10063000093009311581257F950275088106093831
:100640001581257F950175088106050C0A3802156C
:1006500081257F950175088106C0C005010980A12B
:1006600001850319012AB700150126B70095017508
:10067000108100C0050C0901A101850419012AA0FF
:1006800002150126A002950175108100C00501091F
:1006900006A101050719E029E71500250195087550
:1006A0000181029501750881010507190029FF15CF
:1006B0000026FF0095067508810005081901290527
:1006C000950575019102950175039101C0001124F2
:1006D0001FBECFEFDAE0DEBFCDBF04B603FE27C0FA
:1006E00080916D0390916E03A0916F03B0917003A0
:1006F0008730904BA740B04BD1F410926D0310920D
:100700006E0310926F031092700314BE84B7877F3C
:1007100084BF0FB6F894A89580916000886180939B
:100720006000109260000FBEE0E0F8E3099511E070
:10073000A0E0B1E0E4EAF6E602C005900D92AA3D21
:10074000B107D9F723E0AAEDB1E001C01D92AD36A3
:10075000B207E1F70E9452290C9450330C94000028
:100760000C9422090C942309E82FF0E0E452FE4F88
:10077000808108950895CF92DF92EF92FF920F93B8
:100780001F93CF93DF93A1E3B1E021E431E0ED01CA
:1007900061E070E08991E82FE295EF70F0E041A10F
:1007A0008F706B0102C0CC0CDD1C8A95E2F7C6018C
:1007B0009C2D9095942391A392A1892B82A32C1711
:1007C0003D0741F7CCE2D1E041E351E0BE0101E059
:1007D00010E0FB018191BF01E82FE295EF70F0E09E
:1007E000F1A08F70680102C0CC0CDD1C8A95E2F785
:1007F000C6019C2D90959F2191A392A1892B82A344
:100800004617570731F701E010E08991E82FE2958C
:10081000EF70F0E061A18F70780102C0EE0CFF1C58
:100820008A95E2F7C7019E2D9095962391A392A1F8
:10083000892B82A34C175D0741F761E070E08D9131
:10084000E82FE295EF70F0E041A18F708B0102C0BC
:10085000000F111F8A95E2F7C801902F90959423FD
:1008600091A392A1892B82A32A173B0741F7ECEEB3
:10087000F1E0ACEDB1E08CEF91E011921D928E179A
:100880009F07D9F780E10E94730CDF91CF911F91F0
:100890000F91FF90EF90DF90CF900C9474093F92EE
:1008A0004F925F926F927F928F929F92AF92BF9280
:1008B000CF92DF92EF92FF920F931F93CF93DF932C
:1008C000ACEEB1E034EF832E31E0932E01E311E082
:1008D000412CEE24E394F12C5D017C901C92E80104
:1008E00089918E01E82FE295EF70F0E021A18F70E1
:1008F000A70102C0440F551F8A95E2F7CA01242BB5
:1009000021A322A1342E3094232122A350EA5A9508
:10091000F1F76CE271E06B0140E050E0E6015990C4
:100920006E01252D22952F7030E0E90128A16C90F1
:1009300030E0D52DDF7002C035952795DA95E2F7C6
:1009400020FD08C03E2D042E01C0330F0A94EAF7A3
:10095000232F01C020E026292C934F5F5F4F4530A5
:100960005105E1F691A1D32DD923D1A392A1892BD1
:1009700082A3119681E0F5019081971101C080E07A
:10098000482A8A169B0609F0A7CF40E050E001E014
:1009900010E02CEFA22E21E0B22EDB018D91BD01E3
:1009A000E82FE295EF70F0E021A18F70E80102C01E
:1009B000CC0FDD1F8A95E2F7CE012C2B21A322A1BB
:1009C0003C2E3094232122A3D0EADA95F1F7980146
:1009D000042E01C0220F0A94EAF7622E922E909400
:1009E000A4EFB1E091E3E92E91E0F92E812C6D01A5
:1009F0007C90E70159907E01252D22952F7030E0E3
:100A0000E90128A130E0D52DDF7002C0359527958A
:100A1000DA95E2F720FD03C0272D262902C0272DF5
:100A200029212C931196E6012881721611F0882451
:100A30008394AA16BB06D9F691A1D32DD923D1A3AD
:100A400092A1892B82A348284F5F5F4F4530510503
:100A500009F0A3CF242D40E16CED71E08CEE91E024
:100A60000E94740C0E947809842DDF91CF911F9110
:100A70000F91FF90EF90DF90CF90BF90AF909F903D
:100A80008F907F906F905F904F903F900895CF939D
:100A9000C62F81112AC060910203709103038091D7
:100AA0000403909105030E94E309833051F08430E0
:100AB00071F08230A1F4CC2311F08DE441C08AE4BE
:100AC0003FC0CC2311F08CEF3BC08BEF39C0CC235F
:100AD00019F00E94A41136C00E94B41133C0CC2377
:100AE00011F08FE42DC080E52BC0813059F5609165
:100AF00002037091030380910403909105030E9407
:100B0000E309833051F0843071F08230A1F4CC23BA
:100B100011F08BE415C08EE413C0CC2311F089EFE3
:100B20000FC08AEF0DC0CC2319F00E94F6110AC045
:100B30000E94E41107C0CC2311F082E501C081E5D9
:100B40000E94841C81E0CF910895CF93C82F2CE29E
:100B500033E081FF02C040E601C040E16FEF80E07A
:100B60000E941A102FE233E0C0FF02C040E601C02D
:100B700040E26FEF80E20E941A10CF910C948D102A
:100B80006DE083E00E94F80F83E00E94A5052FEF3F
:100B900083EC99E0215080409040E1F700C00000D4
:100BA00080E00C94A505CF92DF92EF92FF926B014B
:100BB0007C01609106037091070380910803909176
:100BC00009030E94E309882341F0813031F422E3D4
:100BD00033E040E36FEF89EA05C022E333E040E110
:100BE0006FEF84E50E941A10C701B6010E94E30965
:100BF000833051F0843071F0823099F422E333E095
:100C000040E66FEF80E10BC022E333E040E66FEF98
:100C100085E505C022E333E040E660EC84E90E940C
:100C20001A10C701B601FF90EF90DF90CF900895A2
:100C3000CF938F559D458131910508F0FFC2FB018F
:100C40008A5A9F4FC281FC010C944932CC2361F037
:100C50000E9445100E94B91480912703869590E068
:100C60009093240380932303C0E0E9C2C111FCCF19
:100C700082E60E94841C82E60E94841CE0C2CC238F
:100C800099F3E0911F01F0912001808191E0382FCC
:100C9000327081FF90E09093FD0191E0282F207247
:100CA00085FF90E09093FC01311103C0211104C035
:100CB00020C081EE0E94051C8091FC01882319F060
:100CC00085EE0E94051C8FE20E945B1B8FE20E9452
:100CD000051C8091FD01882319F081EE0E945B1BA9
:100CE0008091FC01882309F4BFCF85EE0E945B1B35
:100CF000BBCF8FE10E945B1B8FE19DC2CC2309F427
:100D0000B3CFE0911F01F0912001808191E0382F55
:100D1000327081FF90E09093FD0191E0282F2072C6
:100D200085FF90E09093FC01311103C0211104C0B4
:100D30000FC081EE0E94051C8091FC01882319F0F0
:100D400085EE0E94051C8EE20E945B1B8EE2BFCFE7
:100D500083E20E945B1B83E26EC2CC2309F484CF42
:100D6000E0911F01F0912001808191E0382F3270D5
:100D700081FF90E09093FD0191E0282F207285FF84
:100D800090E09093FC01311103C0211104C012C006
:100D900081EE0E94051C8091FC01882319F085EEEC
:100DA0000E94051C81EE0E945B1B83E20E945B1B7C
:100DB00083E228C284E20E945B1B84E23CC2CC2313
:100DC00009F452CFE0911F01F0912001808191E060
:100DD000382F327081FF90E09093FD0191E0282F31
:100DE000207285FF90E09093FC01311103C0211126
:100DF00004C012C081EE0E94051C8091FC01882372
:100E000019F085EE0E94051C81EE0E945B1B84E3B5
:100E10000E945B1B84E3F6C185E20E945B1B85E2B6
:100E20000AC2CC2309F420CFE0911F01F0912001E8
:100E3000808191E0382F327081FF90E09093FD0126
:100E400091E0282F207285FF90E09093FC013111F2
:100E500003C0211104C012C081EE0E94051C8091C4
:100E6000FC01882319F085EE0E94051C81EE0E948A
:100E70005B1B85E20E945B1B85E2C4C186E20E9487
:100E80005B1B86E2D8C1CC2309F4EECEE0911F01B2
:100E9000F0912001808191E0382F327081FF90E045
:100EA0009093FD0191E0282F207285FF90E09093B0
:100EB000FC01311103C0211104C012C081EE0E9457
:100EC000051C8091FC01882319F085EE0E94051C09
:100ED00081EE0E945B1B86E20E945B1B86E292C150
:100EE00087E20E945B1B87E2A6C1CC2309F4BCCE3B
:100EF000E0911F01F0912001808191E0382F327044
:100F000081FF90E09093FD0191E0282F207285FFF2
:100F100090E09093FC01311103C0211104C012C074
:100F200081EE0E94051C8091FC01882319F085EE5A
:100F30000E94051C81EE0E945B1B87E80E945B1BE0
:100F400087E860C18DE20E945B1B8DE274C1CC23F7
:100F500009F48ACEE0911F01F0912001808191E097
:100F6000382F327081FF90E09093FD0191E0282F9F
:100F7000207285FF90E09093FC01311103C0211194
:100F800004C012C081EE0E94051C8091FC018823E0
:100F900019F085EE0E94051C81EE0E945B1B83E325
:100FA0000E945B1B83E32EC181EE0E945B1B8DE2DE
:100FB0000E945B1B8DE23CC1CC2309F455CEE0912D
:100FC0001F01F0912001808191E0382F327081FF64
:100FD00090E09093FD0191E0282F207285FF90E032
:100FE0009093FC01311103C0211104C012C081EEA5
:100FF0000E94051C8091FC01882319F085EE0E9457
:10100000051C81EE0E945B1B80E30E945B1B80E35A
:10101000F9C080E30E945B1B80E30DC1CC2309F47F
:1010200023CEE0911F01F0912001808191E0382FC3
:10103000327081FF90E09093FD0191E0282F2072A3
:1010400085FF90E09093FC01311103C0211104C091
:1010500012C081EE0E94051C8091FC01882319F0CA
:1010600085EE0E94051C81EE0E945B1B82E30E94BC
:101070005B1B82E3C7C082E30E945B1B82E3DBC091
:10108000CC2309F4F1CDE0911F01F0912001808182
:1010900091E0382F327081FF90E09093FD0191E054
:1010A000282F207285FF90E09093FC01311103C03E
:1010B000211104C012C081EE0E94051C8091FC0128
:1010C000882319F085EE0E94051C81EE0E945B1BAF
:1010D00089E80E945B1B89E895C087E80E945B1B3A
:1010E00087E8A9C0CC2309F4BFCDE0911F01F0919E
:1010F0002001808191E0382F327081FF90E0909341
:10110000FD0191E0282F207285FF90E09093FC0173
:10111000311103C0211104C00FC081EE0E94051CD3
:101120008091FC01882319F085EE0E94051C84E360
:101130000E945B1B84E3CBCD83E30E945B1B83E3B4
:101140007AC0CC2309F490CDE0911F01F0912001E9
:10115000808191E0382F327081FF90E09093FD0103
:1011600091E0282F207285FF90E09093FC013111CF
:1011700003C0211104C012C081EE0E94051C8091A1
:10118000FC01882319F085EE0E94051C81EE0E9467
:101190005B1B8FE10E945B1B8FE134C081EE0E94DC
:1011A0005B1B84E20E945B1B84E242C0CC2309F4F7
:1011B0005BCDE0911F01F0912001808191E0382FFB
:1011C000327081FF90E09093FD0191E0282F207212
:1011D00085FF90E09093FC01311103C0211104C000
:1011E00015C081EE0E94051C8091FC01882319F036
:1011F00085EE0E94051C81EE0E945B1B8FE20E941F
:101200005B1B8FE20E94051C81EE61CD81EE0E9486
:101210005B1B8EE20E945B1B8EE20AC0CC2309F4AA
:1012200023CD81EE0E945B1B89E30E945B1B89E357
:101230000E94051C81EE0E94051C16CDC1E08C2F7A
:10124000CF9108950895089581E0089581E008956B
:101250000C94180608950C942A091F93CF93DF93DA
:1012600000D000D01F92CDB7DEB749835A836B837D
:101270003091970289819A81311114C0662359F007
:10128000222349F00E94A124182F682F89819A8176
:101290000E94482403C00E947424182F69817A8117
:1012A000812F04C00E94A12469817A810F900F9040
:1012B0000F900F900F90DF91CF911F910C94440AE3
:1012C000FC01262F408151816281738184810C94BD
:1012D0002D09CF93DF93EC0160E00E946009BE010D
:1012E000DF91CF910C942B090E944F0C0C94B0030A
:1012F0000C94B20308950E941A1F0E947A092FEFDE
:1013000084E39CE0215080409040E1F700C0000061
:101310000C94D8270F931F93CF93DF938C0161E038
:101320000E946009EC01B8010E942809882309F491
:1013300044C0B801CE010E9424188823F1F1B801FD
:10134000CE010E9476188823C1F1B801CE010E9417
:10135000A119882391F1B801CE010E94B11588230B
:1013600061F1F8018281882309F1CB358DE5D80739
:10137000C1F050F4C115FCE5DF0781F0CF3DDC453D
:10138000A9F40E94AC2619C0CC35EDE5DE0761F06A
:10139000CD35DD4559F40E94342508C00E947B09F3
:1013A0000CC00E943D2502C00E944025C801DF916B
:1013B000CF911F910F910C94260980E0DF91CF917E
:1013C0001F910F910895CF92DF92EF92FF926C01DF
:1013D000EE24FF24C114D104E104F10421F0C7017B
:1013E000B60120E101C020E0C72ED82EE92EFF244F
:1013F000C114D104E104F10419F0285FC701B6015A
:101400006B017C0154E0F694E794D794C7945A9505
:10141000D1F7C114D104E104F10419F02C5FC70124
:10142000B6016B017C0142E0F694E794D794C7942F
:101430004A95D1F7C114D104E104F10419F02E5FEB
:10144000C701B601DC01CB01B695A79597958795A5
:10145000892B8A2B8B2B09F02F5F822FFF90EF9027
:10146000DF90CF9008950C94A5050C942409CF9398
:10147000C82F0E94330A8C2F0E94350ACF910895FD
:1014800080E090E00895089520E5829FC001112436
:10149000FC0125E0729FE00DF11D1124E60FF11D06
:1014A000EE0FFF1FEC59FE4F859194910895880F20
:1014B000991FFC01EC57FB4F859194910895CF93B0
:1014C000DF930E94440A0E94770BEC01811590453E
:1014D00008F041C0C11580E4D80708F0D1C0C83E6B
:1014E000D10510F5C03ED10508F0FDC0C83AD105C0
:1014F00078F4C53AD10508F0A2C0C130D10509F48D
:10150000F2C008F4EEC0C430D10508F0ECC0E9C068
:10151000CF3BD10508F49BC0C03CD10508F4E1C025
:10152000CE01805C91099EC0C11590E2D90758F4A4
:10153000C11521E0D20708F0D6C0CD3ED10508F490
:10154000D0C0D065D0C0C11580E3D80708F08EC0E8
:10155000CE019F7087C0C11595E5D90708F043C03B
:10156000C11524E5D20708F0A2C0C11582E5D8074D
:1015700008F5C11591E5D90708F085C0CE0174E0E2
:10158000969587957A95E1F783709C2F937021E06B
:1015900030E002C0220F331F9A95E2F73C68382BE7
:1015A000CF70C695C69580E2C89FE0011124C22B7A
:1015B000D32B99C09E01237033278C2F8695869557
:1015C000C115D34508F064C0C1E0D0E002C0CC0F23
:1015D000DD1F2A95E2F720E2829FC0011124C82B6B
:1015E000D92BDC6880C0C11529E5D207A0F4C1154C
:1015F00088E5D80708F060C0C11596E5D90708F05E
:1016000070C08C2F0E940B0C8F71C82FD0E0DC2F84
:10161000CC27D06268C0C1152AE5D20708F451C0B2
:10162000CE0190568115904208F05BC08D2F8F71CE
:101630000E940B0CDD27D0628F71D82B54C0C55A85
:10164000D0E0C159DE4FC881D0E0D0644CC0C85A48
:10165000D0E0CC0FDD1FCF5BDE4F0990D881C02DCD
:10166000D46441C00E94570AEC013DC0CE019927C5
:10167000D3FF03C0EC01D86C36C0EC01D06C33C092
:10168000DF70D06A30C0DC2FCC27C16FD06A2BC08E
:10169000C1E0D0E002C0CC0FDD1F2A95E2F720E2C6
:1016A000829FC0011124C82BD92BDA681CC0DC2F03
:1016B000CC27C46FD06A17C0DC2FCC27C06FD06A8C
:1016C00012C08C2F8F700E940B0C94E0D695C7959A
:1016D0009A95E1F7CF70D0E0DC2FCC27D069C82BEA
:1016E00002C0C0E0D0E0CE01DF91CF9108958238F2
:1016F000910569F1B0F48133910509F46DC048F4A6
:101700008932910509F463C08A32910509F469C0F0
:1017100008958533910509F455C089339105B9F0D1
:101720000895833E910569F138F4803E9105B1F04A
:10173000823E910509F10895863E9105A9F1873E03
:101740009105B9F1843E910509F064C023C0209150
:10175000250320FD4FC021FD4DC008958091250334
:1017600080FD44C08091260380FF44C08091250302
:1017700084FD42C083EE4DC08091250382FF38C0B6
:10178000F5CF8091250382FD33C08091260380FD33
:1017900031C0ECCF8091260381FF32C080912503B8
:1017A00084FD2AC087EE35C08091250383FF26C0C3
:1017B000F5CF8091250383FD21C08091260381FD13
:1017C0001FC0ECCF8091250385FD1CC01DC08091FA
:1017D000250385FD19C016C08091250386FD16C01E
:1017E00017C08091250386FD13C010C089E311C086
:1017F00082EE0FC080EE0DC080E00BC086EE09C007
:1018000084EE07C089E205C085E303C08AE201C017
:1018100081E390E008959091250392FF0DC0282F59
:101820002871283019F4877F846006C0282F24711E
:10183000243011F48B7F886093FF0DC0282F28710E
:10184000283119F4877E846106C0282F2471243141
:1018500011F48B7E88612091260320FF0DC0382F64
:101860003871383019F4877F816006C0382F3171A4
:10187000313011F48E7F886021FF0DC0282F287130
:10188000283119F4877E816106C0282F217121310A
:1018900011F48E7E886194FD877E089508950E94DC
:1018A0000426811102C00E94AC260E940F2680935C
:1018B00017030E94172690932603809325030E9406
:1018C0004E0C0E941326682F70E080E090E00E948A
:1018D0004A23609102037091030380910403909165
:1018E00005030C9482230895FF920F931F93CF93C7
:1018F000DF938C01F62ED72FC42F222349F081E0ED
:10190000809300020E948B279093FF018093FE0139
:10191000809100028823C1F08091FE019091FF0127
:101920000E94A327069780F0EF2DFD2FD8014C2FA2
:1019300050E0CD01801B910B841795071CF48D910D
:101940008193F7CF10920002DF91CF911F910F91F9
:10195000FF9008958091070280FF0BC060910901FC
:1019600085E0689FB0011124759567957595679519
:101970002BC081FF09C06091090185E0689FB0011B
:1019800011247595679520C082FF07C060910901F9
:1019900085E0689FB001112417C090910602992339
:1019A000D1F060910801961788F72091090185E030
:1019B000289F90011124929FA001939F500D112404
:1019C00070E0CA010E9413326038710540F461155D
:1019D000710519F406C065E070E0862F08958FE761
:1019E000089581E008958091070280FF08C060910A
:1019F000050170E0759567957595679521C081FF24
:101A000006C06091050170E07595679519C082FF69
:101A100004C06091050170E010C090910502992307
:101A200099F0609104019617A0F780910501899FB4
:101A3000C001112470E00E9413326038710540F437
:101A40006115710519F406C061E070E0862F0895F4
:101A50008FE7089581E008958D3E21F40E94AA0C3D
:101A6000819504C08E3E29F40E94AA0C80930B023B
:101A700008958F3E21F40E94AA0C819504C0803FF6
:101A800029F40E94AA0C80930A020895893F19F450
:101A90000E94F30C05C08A3F31F40E94F30C81953B
:101AA00080930C0208958B3F21F40E94F30C8195E2
:101AB00004C08C3F29F40E94F30C80930D0208951A
:101AC0009FE0980F983078F421E030E0A90102C03F
:101AD000440F551F9A95E2F7CA0190910902892B8C
:101AE0008093090208958D3F21F48091070281605F
:101AF0000BC08E3F21F480910702826005C08F3FAA
:101B000029F48091070284608093070208958D3E36
:101B100039F490910B0297FF35C010920B0259C017
:101B20008E3E29F490910B021916BCF32BC09091B4
:101B30000A028F3E29F497FF25C010920A0249C07D
:101B4000803F19F41916CCF31DC090910C02893F07
:101B500029F41916BCF410920C023BC08A3F19F408
:101B600097FF10C0F8CF8B3F39F490910D0297FF8B
:101B700009C010920D022DC08C3F21F490910D02EE
:101B80001916BCF39FE0980F983080F421E030E004
:101B9000A90102C0440F551F9A95E2F7CA0180952A
:101BA0009091090289238093090213C08D3F21F48B
:101BB000809107028E7F0BC08E3F21F48091070237
:101BC0008D7F05C08F3F29F4809107028B7F809322
:101BD000070280910A02811106C080910B028111D7
:101BE00002C01092060280910C02811106C0809101
:101BF0000D02811102C01092050208950E948B27E8
:101C000020910A02211104C020910B02222321F00D
:101C1000909304028093030220910C02211104C0CE
:101C200020910D02222321F0909302028093010261
:101C300088E092E00C94EE19EF92FF920F931F93BD
:101C4000CF93DF9300D000D000D0CDB7DEB786E0D1
:101C5000E8E0F2E0DE01119601900D928A95E1F73D
:101C6000E0900A02F0900B0200910C0210910D021C
:101C700010920A0210920B0210920C0210920D02A6
:101C8000E11003C0FF2009F45DC080910302909130
:101C900004020E94A327AC0190910602992339F017
:101CA00020910A0130E02417350758F04BC02091ED
:101CB0000B018AE0289F900111242417350718F0A2
:101CC00041C09F3F19F09F5F90930602EE2061F0A4
:101CD0000E94AA0C1E1414F09FEF01C091E0989F7F
:101CE000902D112490930A02FF2061F00E94AA0C0B
:101CF0001F1414F09FEF01C091E0989F902D1124C4
:101D000090930B0230910A023323E1F020910B02F1
:101D10002223C1F045EB3403C0011124992319F0AB
:101D200090930A0203C081E080930A0235EB2303FB
:101D3000C0011124992319F090930B0203C081E094
:101D400080930B02011103C0112309F45DC080913F
:101D50000102909102020E94A327AC01909105021A
:101D6000992339F02091060130E02417350758F007
:101D70004BC0209107018AE0289F9001112424176D
:101D8000350718F041C09F3F19F09F5F90930502FF
:101D9000002361F00E94F30C101614F09FEF01C0B5
:101DA00091E0989F902D112490930C02112361F0E3
:101DB0000E94F30C111614F09FEF01C091E0989F60
:101DC000902D112490930D0230910C023323E1F0F9
:101DD00020910D022223C1F045EB3403C0011124F0
:101DE000992319F090930C0203C081E080930C02B8
:101DF00035EB2303C0011124992319F090930D02B0
:101E000003C081E080930D0280910A0281110BC012
:101E100080910B02811107C080910C02811103C0D7
:101E200080910D0281110E94FE0DEB82FC820D83D8
:101E30001E8386E0FE013196A8E0B2E001900D928B
:101E40008A95E1F726960FB6F894DEBF0FBECDBF98
:101E5000DF91CF911F910F91FF90EF900895E8E0EF
:101E6000F2E086E0DF011D928A95E9F71092060202
:101E700010920502109207020895EF92FF920F93BD
:101E80001F93CF93DF938B01682F11110AC0442356
:101E900029F0E82FF0E0E756FB4F6491762F862F6C
:101EA00075C0212F30E0E82FF0E0442321F0E75601
:101EB000FB4FE491F0E046E0049FC0011124CFEF16
:101EC000D0E0BE010E94FF314BEA4603C001479FAC
:101ED000900D1124800F911D800F911D982F990F47
:101EE000890FAE01421B530B4E9FD0014F9FB00D87
:101EF0005E9FB00D11249B2F189FA0011124452F28
:101F000055278E01041B150B0E9FA0010F9F500D2E
:101F10001E9F500D11247E01E81AF108E29E8001F7
:101F2000E39E100DF29E100D1124212F3327C21BAA
:101F3000D30BCE9F9001CF9F300DDE9F300D11242B
:101F400062307105A9F048F46115710569F06130DE
:101F50007105C9F48B2F752F0DC06430710581F0A8
:101F600058F06630710579F47E2F8B2F932F0DC0BA
:101F7000832F7B2F9E2F09C08E2F7B2F952F05C07F
:101F80008E2F732F02C07E2F852F692FDF91CF9167
:101F90001F910F91FF90EF90089541E00E943D0F37
:101FA00008950895682F70E080E090E00E94F42F7B
:101FB00020E030E04FE753E40E94172F2BED3FE085
:101FC00049E450E40E941D310E948A310E94912F01
:101FD00020E736E042EE5EE30E94AA2E24E530E6DA
:101FE00043EA52E40E941D310E94C32F862F0895B8
:101FF000803170F4262F30E0280F311D213131055A
:102000003CF480931101860F8093120160931301B9
:1020100008950E94CD0F0895CF93DF93762FE901A5
:10202000682F842F0E940910798368838A83DF9147
:10203000CF9108950C940C1080912703282F26959A
:1020400030E02115310519F48170826005C023321A
:10205000310524F08170846480932703089588E01B
:1020600090E00C94F132CF92DF92EF92FF926B01ED
:102070007C010E941C10B701A60188E090E0FF904F
:10208000EF90DF90CF900C940F33E7E2F3E083E022
:10209000808311828FEF82838383148260817181B8
:1020A000828193810C9433108091270380FF02C0BA
:1020B0008695089580E0089590912B03933018F44D
:1020C0009F5F90932B03882351F0609127037091B9
:1020D00028038091290390912A030C9433100895CA
:1020E00081E00C945C1090912B03992319F091508E
:1020F00090932B03882351F060912703709128035C
:102100008091290390912A030C943310089581E063
:102110000C94731070E00C947B1660911001809108
:10212000270380FF0AC080910F0123E0829FC00136
:102130001124845D9C4F0C948A1080911101909120
:102140001201891780F7E82FF0E09F01220F331F5B
:10215000E20FF31FE45DFC4F1182108212828F5F49
:10216000F0CF9091270390FF16C09091110120911C
:102170001201921770F4E92FF0E0DF01AA0FBB1FE4
:10218000EA0FFB1FE45DFC4F8183608342839F5F06
:10219000F0CF0C948D100895CF93DF9300D01F9251
:1021A000CDB7DEB79091270390FF0AC09E012F5F45
:1021B0003F4F0E940C104B8169818A810E94B110AF
:1021C0000F900F900F90DF91CF910895CF93DF93F1
:1021D000EC018C810E94D20FE7E2F3E0482F62818C
:1021E00081810E94CC108C818F5F8C83DF91CF9195
:1021F0000895CF93DF93EC01E7E2F3E0438162813E
:102200008C810E94CC108C818F5F8C83DF91CF9169
:102210000895AF92BF92CF92DF92EF92FF920F9309
:102220001F93CF93DF9300D01F92CDB7DEB7182F47
:10223000F62E042FE22E9091270390FF6DC0E92F18
:10224000E695AE2FB0E0AE58BE4F8C9180936802F9
:102250009E7F923061F49E012F5F3F4F812F0E943D
:102260000C104B8169818A810E94B11043C0823079
:1022700019F400912A033EC0863019F41091280306
:1022800039C08930D9F38331A9F5E3518E2F81709C
:10229000D82EE695F0E0EC56FB4FA590B490C12CFB
:1022A000BB2460911301C61618F52C2D30E0A29EB8
:1022B000C001A39E900DB29E900D112470E00E946B
:1022C000FF31812FD11002C0860F01C0861B909173
:1022D0001101290F311DA901440F551F240F351F6E
:1022E000245D3C4F402F6F2D0E940C10C394D9CF1A
:1022F0000E948D1010932803F092290300932A0363
:10230000EE2051F0609127037091280380912903FA
:1023100090912A030E9433100F900F900F90DF913D
:10232000CF911F910F91FF90EF90DF90CF90BF90D2
:10233000AF900895E7E2F3E09181282F4381628115
:1023400084E0890F0C94091180E00C949A1181E0CB
:102350000C949A11E7E2F3E09181282F4381628186
:102360008CEF890F0C94091180E00C94AA1181E084
:102370000C94AA11E7E2F3E0628120E1620F08F415
:102380006FEF282F438181810C94091181E00C9417
:10239000BA11E7E2F3E0628120E1621B08F460E039
:1023A000282F438181810C94091181E00C94C9117B
:1023B000E7E2F3E0438120E1420F08F44FEF282FDA
:1023C000628181810C94091180E00C94D81181E024
:1023D0000C94D811E7E2F3E0438120E1421B08F4BA
:1023E00040E0282F628181810C94091180E00C94D7
:1023F000EA1181E00C94EA1120E00C940911FF929B
:102400000F931F93CF93DF93EC01F12C0FE710E0B4
:1024100060911301F616F0F4809111012F2D30E038
:10242000280F311DC901880F991F280F391F245DFE
:102430003C4F70E0C8010E941332962F8C8140916E
:102440002A0360912903F99E800D11240E940C102B
:10245000F394DECF0E948D109A818C8190FF02C090
:102460008F5F01C081508C83DF91CF911F910F91BD
:10247000FF900895CF9380911101909112018917D7
:1024800070F4E82FF0E09F01220F331FE20FF31FDB
:10249000E45DFC4F1182108212828F5FF0CFC0E0AA
:1024A00060911301C617C0F5EC2FF0E070E0CF018A
:1024B0000E94133220911101820F20910E02022EF0
:1024C000000C330B90E0E217F307CCF020910E01E3
:1024D000022E000C330B2E173F078CF09C01220FAD
:1024E000331F820F931F9C01245D3C4F40912A03B0
:1024F00060912903809128030E940C100BC0FC01FD
:10250000EE0FFF1F8E0F9F1FFC01E45DFC4F118239
:1025100010821282CF5FC4CF0E948D1020910D01D6
:1025200080910E02820F80930E0290910E01920F05
:1025300090930E0119165CF4082E000C990B409133
:10254000130150E041505109841795071CF0219563
:1025500020930D01CF9108958F929F92AF92BF92D9
:10256000CF92DF92EF92FF920F931F93CF93DF935F
:102570008C01FC014481C42FD0E09E01DE010E9449
:1025800057329B01AC010E946D326B017C01E0E28D
:10259000F0E0EC1BFD0BA5E5B0E09B01AC010E9457
:1025A0006D324B015C019F01DF010E944F329B01A4
:1025B000AC010E9478329B01AC012C0D3D1D4E1DDB
:1025C0005F1DC501B4010E942732C22FD22F2A32CB
:1025D00028F4F3E02F9F900111240DC025E530E091
:1025E0002C1B3109C901880F991F280F391F37FF8C
:1025F00002C02F5F3F4F35952795C22FC095F12C14
:1026000085E5E82EED1A80911301F816C8F4F0FC68
:1026100002C08E2D01C08D2F909111012F2D30E021
:10262000290F311DA901440F551F240F351F245DAB
:102630003C4F4C2F609129030E940C10F394E3CF80
:102640000E948D10F8018481811102C091E003C0C5
:10265000803219F49FEF90930C0190910C01890F37
:10266000F8018483DF91CF911F910F91FF90EF903C
:10267000DF90CF90BF90AF909F908F9008957F9202
:102680008F929F92AF92BF92CF92DF92EF92FF9282
:102690000F931F93CF93DF93FC019280748081E0AE
:1026A000848380E00E94D20F882E8FE70E94D20F91
:1026B000A12CF5E0BF2ECC24CA94D12C8819E82E89
:1026C000F12C80911301A81608F09BC00A2D10E090
:1026D00022E0291568F0B09EF001B19EF00D1124A2
:1026E000E15FFD4F809128038083809129038183DE
:1026F00071100AC0B09EF001B19EF00D1124E15F8F
:10270000FD4F1382128263C0B09EE001B19ED00DD6
:102710001124C15FDD4F8B818823E1F081508B83D1
:102720002FEF829FC00111246C8170E00E94FF3165
:10273000862F0E94D20F88192FEF829FC00111248B
:10274000B7010E94FF3180912A03689FB0011124D4
:102750007A833DC00E94CC3220912A0326952158CD
:1027600030E0A901440F551F322F2227240F351FB7
:10277000232F33278217930754F582E0891588F4B5
:102780000E94CC32B6010E94133288830E94CC3260
:10279000209129032695622F70E00E941332280FA2
:1027A0002983B09EF001B19EF00D1124E15FFD4F31
:1027B000128280912A03843108F484E1B09EF001F2
:1027C000B19EF00D1124E15FFD4F848383838091DE
:1027D00011019801280F311DC901880F991F280F79
:1027E000391F245D3C4FB09EF001B19EF00D1124C5
:1027F000E15FFD4F4281618180810E940C10A394B2
:1028000060CFDF91CF911F910F91FF90EF90DF90FC
:10281000CF90BF90AF909F908F907F900C948D1031
:10282000E7E2F3E080818E7F808360817181828125
:1028300093810E943310109269022FEF80E792E09B
:10284000215080409040E1F700C000000C948D10B2
:10285000E7E2F3E080818E7F8083109269022FEFA0
:1028600080E792E0215080409040E1F700C00000F6
:102870000C948D10109269028091660281110AC039
:1028800081E08093660280912703817080936502C6
:102890000C942814089560912703669570E04BE02E
:1028A00050E084E191E00E94DC32892B19F481E050
:1028B000809369020E948B279093600280935F024D
:1028C00008959091270390FF35C09170811102C047
:1028D000926006C0833210F0946402C0880F982B77
:1028E00090932703662351F060912703709128038A
:1028F0008091290390912A030E943310609127034D
:10290000669570E04BE050E084E191E00E94DC329B
:10291000892B19F01092690202C00E944B1481E0C9
:102920008093620240912A036091290380912803D9
:102930000C94FC110895682F90912703969581E0DF
:10294000890F833208F081E00C94611481E00C94CB
:102950009B14682F9091270396958FEF890F09F4A8
:1029600082E20C94611481E00C94A91461E00C944F
:102970006114E7E2F3E080818160808386950C94A6
:10298000B6148091270380FD0C9410140C94B91494
:1029900060E00C9461148091670281112EC00E9446
:1029A0000426811104C00E94AC260E9445100E949A
:1029B0002F1060932703709328038093290390932B
:1029C0002A036E7F61F40E9445100E942F106093CD
:1029D0002703709328038093290390932A030E946E
:1029E0001C10109269028091270380FF03C0869516
:1029F0000E94C81481E0809367020895E7E2F3E043
:102A000080818160808386950C94C8141092660240
:102A10008091650281110E94FE140C944B140F9357
:102A20001F93CF93DF9380916902882309F479C0C3
:102A300080916802E0912703E695E81BE09361022C
:102A4000823049F4F0E0E057FB4FE491CE2FD0E024
:102A500006EE10E13DC0863049F4F0E0E357FB4F4D
:102A6000E491CE2FD0E009EF10E132C0893051F46B
:102A7000E695F0E0E657FB4FE491CE2FD0E00FEF64
:102A800011E126C08F3049F4F0E0E957FB4FE491A3
:102A9000CE2FD0E00AE312E11BC0823181F08D31EC
:102AA00099F48E2F63E00E94F331E92FF0E0EC57A8
:102AB000FB4FE491CE2FD0E00FE313E109C0C8E251
:102AC000D0E00CEA12E104C0C0EDD7E001ED1FE058
:102AD00080916202882361F0109262020E948B272B
:102AE0009093600280935F021092640210926302DE
:102AF0000E948B27E0915F02F09160028E1B9F0B7A
:102B00008F3F9F4770F4EC0FFD1FF0936002E0933E
:102B10005F028FE592E0F801DF91CF911F910F9155
:102B20000994DF91CF911F910F910895882311F09F
:102B3000FA0101C0FB010994CF93DF93C82FD62F70
:102B40000E9454108C1740F00E9454108D1720F4EE
:102B5000DF91CF910C94A6148C2FDF91CF910C9420
:102B6000B6141F93CF93DF93FB011281112309F455
:102B7000BAC0EC010E9443258272CD3CFCE5DF0720
:102B800009F499C008F043C0C73CECE5DE0709F43E
:102B90007EC0D8F4C43C9CE5D90709F46CC038F475
:102BA000C33CDC4509F0A2C00E94C1149EC0C53CD4
:102BB0009CE5D90709F464C0C63CDC4509F096C021
:102BC00047EB51E167EA71E15FC0CA3CFCE5DF0712
:102BD00009F467C070F4C83CECE5DE0709F45CC09A
:102BE000C93CDC4509F082C046EC51E165ED71E17C
:102BF0004BC0CB3C9CE5D90709F458C0CC3CDC4524
:102C000009F074C047E850E160E770E13DC0C23DA3
:102C1000FCE5DF0709F469C098F4CF3C9CE5D907CF
:102C200009F450C008F44CC0C03DFCE5DF0709F4CE
:102C30004CC0C13DDC4509F059C06EE089E050C090
:102C4000C53D9CE5D90709F449C050F4C33DFCE5F6
:102C5000DF07F1F1C43DDC4509F048C082E13BC02B
:102C6000C63D9CE5D90709F440C0CE35DD45F1F5F8
:102C700062E28DE135C043EB54E166EA74E104C0E1
:102C800046EA54E163EB74E10E9496152EC047EAD0
:102C900051E167EB71E1F8CF45ED51E166EC71E18F
:102CA000F3CF49EF51E167EE71E1EECF47EE51E12D
:102CB00069EF71E1E9CF40E750E167E870E1E4CF07
:102CC00081E009C065E082E00BC068E086E008C0F2
:102CD00061E18FE005C00E94B61407C06CE183E19A
:102CE0000E949C1502C011E001C010E0812FDF910D
:102CF000CF911F910895539A2BB1277F3BB1386034
:102D00004FB7F894FC01CB01880F991F680F791F0A
:102D10006E0F7F1FE617F70789F0819198E03BB9A6
:102D2000000000C087FF2BB9880F000000C000C062
:102D300000C02BB900C09A9591F7ECCF4FBF8FE53B
:102D400094E00197F1F700C0000008950C94470546
:102D5000FF920F931F93CF93DF93CEE6D2E047EA23
:102D600051E025EA31E061E070E0F2E0C037DF07D2
:102D700009F44CC0FA010191AF01A02FA295AF70E8
:102D8000B0E09196EC9191970F70CB01002E01C0AD
:102D9000880F0A94EAF7982F90959E2391969C931A
:102DA000919792969C919297892B92968C93929759
:102DB000F90111919F01E12FE295EF70F0E0F1A090
:102DC0001F70CB01012E01C0880F0A94EAF7982FDB
:102DD00090959F2191A392A1892B82A390968C918B
:102DE00090E002C0959587950A95E2F78170E0A181
:102DF000F0E002C0F595E7951A95E2F7E0FD02C014
:102E000090E001C092E0892B8993AFCFDF91CF9101
:102E10001F910F91FF9008952F923F924F925F92D2
:102E20006F927F928F929F92AF92BF92CF92DF92DA
:102E3000EF92FF920F931F93CF93DF938EE6682E4E
:102E400082E0782E97EAE92E91E0F92E05EA11E06A
:102E50002CE6822E22E0922ECAE6D2E063015301D4
:102E6000312C212C32E0432E512CD501ED915D0106
:102E70004E2F440F440FF60141936F01D7012D915E
:102E80007D01E22FE295EF70F0E080A190E02F70DD
:102E900002C0959587952A95E2F781709927F801E8
:102EA00051918F01E52FE295EF70F0E020A130E025
:102EB0005F7002C0359527955A95E2F7F901E170E8
:102EC000FF2720FF02C0E2E0F0E0E82BF92BE42B23
:102ED000D301ED933D01EF70F0E0EB56FE4F908192
:102EE000F4018081890F808382304CF088818F5F6C
:102EF000888360E0832D0E94A61621E001C020E0B7
:102F0000D4018C918F3F44F488818150888361E0A3
:102F1000832D0E94A61621E0F4018081082E000C6A
:102F2000990BB2010E941332D4018D934D01222AD4
:102F300033942196B2E03B1298CF822DDF91CF914E
:102F40001F910F91FF90EF90DF90CF90BF90AF90C7
:102F50009F908F907F906F905F904F903F902F90B9
:102F600008950F931F93CF93DF93C42FD22FFC01AB
:102F700082818823C9F0409372020E948B2790932C
:102F800071028093700280E28C0F883008F057C085
:102F9000C77081E001C0880FCA95EAF7DF91CF9131
:102FA0001F910F910C948D1C80917202481330C0B8
:102FB00080917002909171020E94A3278639910539
:102FC00038F510E21D0FCD17B9F080E28C0F883074
:102FD00040F4C77081E001C0880FCA95EAF70E94EB
:102FE000941C183028F581E09D2F977001C0880F40
:102FF0009A95EAF70E948D1C802F0E94841C18303D
:10300000F0F4D77081E001C0880FDA95EAF70AC0C2
:1030100080E28C0F883098F4C77081E001C0880F7F
:10302000CA95EAF7DF91CF911F910F910C94941CF0
:10303000802FDF91CF911F910F910C94841CDF9111
:10304000CF911F910F9108950F939C01CB01243FC5
:103050004CE5340731F188F4293DFCE53F07D9F010
:103060002A3D4CE5340779F1283D3C45A9F506E2B7
:1030700021EE41EE68ED7CE52BC0263FFCE53F07E5
:10308000E1F0A8F0273F3C4539F507E225EE46EE92
:1030900067EF7CE51DC007E225EE45EE69ED7CE5B6
:1030A00017C006E221EE40EE64EF7CE511C007E2B6
:1030B00025EE44EE65EF7CE50BC006E221EE42EE24
:1030C00066EF7CE505C008E221E045EE6AED7CE5AF
:1030D0000E94B11780E008C0FC018281882319F0AA
:1030E0001092720201C081E00F910895CF93DF9397
:1030F000EC01FB018281882309F41FC1C230FCE589
:10310000DF0708F41BC1C6319CE5D90738F09E01E2
:103110002B5F3C452930310508F010C10E9417266D
:103120009093260380932503C031ECE5DE0709F474
:10313000C3C008F041C0C8308CE5D80709F49AC074
:10314000F0F4C430ECE5DE0709F487C068F4C2305F
:103150008CE5D80709F477C0C330DC4509F0E3C03B
:1031600080912503826076C0C630ECE5DE0709F465
:103170006EC008F07BC08091250388606BC0CC30A6
:103180008CE5D80709F485C068F4CA30ECE5DE07A1
:1031900009F474C008F079C00E941A1F80912503B9
:1031A000806858C0CE308CE5D80709F476C008F0A6
:1031B0007FC0809125038BC0CC3FECE5DE0709F48E
:1031C0004FC018F5C3318CE5D80709F47DC078F4F9
:1031D000C131ECE5DE0709F473C0C231DC4509F00A
:1031E000A2C00E941A1F809125038F7733C0C5317A
:1031F0008CE5D80709F472C008F486C0CB3FDC45E3
:1032000009F091C0809126033EC0C115FDE5DF079E
:1032100009F45FC058F4CE3F9CE5D90709F444C0D7
:1032200008F43FC08091260382602DC0C230FDE5C6
:10323000DF0709F475C008F45DC0C330DD4509F04F
:1032400072C080E06EC080912503816003C08091D0
:10325000250380618093250366C08091250311C0FA
:10326000809126038260809326035DC080912503B0
:103270008062F0CF809125038064ECCF809125039C
:1032800088608460E7CF8160EECF809125038E7FD8
:10329000E1CF809125038D7FDDCF80912503877F4E
:1032A000D9CF8091260318C0809126038D7FDBCF74
:1032B000809125038F7ECECF809125038F7DCACF4D
:1032C000809125038F7BC6CF80912503877F8B7FDD
:1032D000C1CF809126038D7F8E7FC5CF809125033E
:1032E00082FB222720F991E0922790FB82F990FB44
:1032F00083F9B0CF80912603982F909591708E7F9F
:10330000892B90FB81F9AFCF0E941A1F8091250372
:1033100087FB222720F991E0922790FB87F99ACF2B
:1033200081E00E94AE2680912503909126030E94A1
:1033300028260E941A1F80E001C081E0DF91CF9112
:103340000895CF93DF9386319C4541F5EB010E94B0
:103350004325982F8A8120911F01309120018823D5
:1033600079F09A7A81E009F480E0809373029111F8
:1033700002C069E201C065E3C9010E94F5260AC0E6
:1033800080917302811102C069E201C065E3C90145
:103390000E94F7260E94952580E001C081E0DF9120
:1033A000CF91089590937902809378020895E091E7
:1033B0007802F0917902309721F00190F081E02DB0
:1033C000099480E00895E0917802F09179023097B5
:1033D00021F00280F381E02D09940895E0917802B4
:1033E000F0917902309739F022E0DC012C930480CF
:1033F000F581E02D099408952091760230917702AD
:103400002817390771F09093770280937602E09144
:103410007802F0917902309721F00680F781E02D53
:103420000994089520917402309175022817390784
:1034300071F09093750280937402E0917802F0919C
:103440007902309721F00084F185E02D09940895E8
:103450000E94972760939302709394028093950241
:103460009093960260938F027093900280939102E2
:103470009093920208950E9497276093930270930D
:103480009402809395029093960260938B027093BE
:103490008C0280938D0290938E02089585B7806888
:1034A00085BF85B7806885BF089581E008950C9435
:1034B000551A08950C94591A0C94C0050C94591A75
:1034C0000C945E1A0C94591A0E944E1A82E096E2ED
:1034D0000E94E9270E94621A0C94601A0E945A1AEC
:1034E0000C94591A0E9482270E94BB030E94CB149D
:1034F0000E94A8160C945C1A9F92AF92BF92CF9232
:10350000DF92EF92FF920F931F93CF93DF93CDB78C
:10351000DEB72A970FB6F894DEBF0FBECDBF0E946C
:103520004F0481110E94281A8BE7A82E82E0B82E42
:1035300000E010E0902E802F0E94B403D82EF501F9
:10354000C1905F01C826B1F40F5F1F4F0031110514
:1035500089F78FEF89838A831B820E948B27816082
:10356000782F9D838C8349815A816B818D810E9444
:10357000211B2FC08091170381FD0E94BA03E12C0B
:10358000FF24F3948C2D8F21F1F00E94571A882389
:1035900099F0EE829F82DF2081E009F480E0888745
:1035A0000E948B278160782F9A8789874E815F815F
:1035B00068858A850E94211BF801E558FD4F8081AE
:1035C000F826F08206C0E394FF0CF5E0EF12DACFA4
:1035D000BBCF0E940F150E940C1781110E943B1A4D
:1035E0000E941C0E0E94D71990917A028917B9F097
:1035F0000E94D71980937A022A960FB6F894DEBFFC
:103600000FBECDBFDF91CF911F910F91FF90EF9033
:10361000DF90CF90BF90AF909F900C94370A2A967E
:103620000FB6F894DEBF0FBECDBFDF91CF911F91D3
:103630000F91FF90EF90DF90CF90BF90AF909F9051
:103640000895DF92EF92FF920F931F93CF93DF9332
:10365000CDB7DEB72B970FB6F894DEBF0FBECDBF48
:10366000F42E052F162FE72ED82E61110E94632508
:10367000FE01319686E0DF011D928A95E9F77E2DE5
:103680004F2D502F612F8D2D9E810E940D222B9644
:103690000FB6F894DEBF0FBECDBFDF91CF911F9163
:1036A0000F91FF90EF90DF900895FC018081918150
:1036B0000E94E3240895CF93882309F4A4C0C82F5F
:1036C0008238C1F40E94D71981FD9DC069E38091C1
:1036D0001F01909120010E94F5260E9495252FEF51
:1036E00081EE94E0215080409040E1F700C000005E
:1036F00069E319C0833801F50E94D71980FD83C0A2
:1037000063E580911F01909120010E94F5260E949F
:1037100095252FEF81EE94E0215080409040E1F715
:1037200000C0000063E580911F01909120010E947C
:10373000F726CF910C9495258438C1F40E94D719AF
:1037400082FD61C067E480911F01909120010E9479
:10375000F5260E9495252FEF81EE94E021508040C0
:103760009040E1F700C0000067E4DDCF8CEF8C0FE4
:10377000813AD0F46C2F80911F01909120010E941A
:10378000BF26882349F06C2F80911F019091200162
:103790000E94F7260E9495256C2F80911F01909121
:1037A00020010E94F526C5CF80E28C0F883048F4B6
:1037B000C77081E001C0880FCA95EAF70E944625CC
:1037C000B8CFEBE5EC0FE33040F4F0E0E952FE4F08
:1037D000808190E0CF910C94FC19E8E5EC0FE73183
:1037E00050F4F0E0EE0FFF1FE755FE4F808191810E
:1037F000CF910C94121ACD3E30F08C2F0E942C0DDC
:10380000CF910C94FE0DCF910895882309F464C0E4
:10381000823879F40E94D71981FF5EC069E38091F4
:103820001F01909120010E94F5260E94952569E3D1
:1038300010C08338B1F40E94D71980FF4DC063E5F2
:1038400080911F01909120010E94F5260E949525EC
:1038500063E580911F01909120010E94F7260C944E
:103860009525843879F40E94D71982FF35C067E422
:1038700080911F01909120010E94F5260E949525BC
:1038800067E4E7CF9CEF980F913A10F4682FE1CFEF
:1038900090E2980F983050F4877091E001C0990F32
:1038A0008A95EAF7892F0E944C25D9CF9BE5980F7E
:1038B000933020F480E090E00C94FC1998E5980F88
:1038C000973120F480E090E00C94121A8D3E20F0A5
:1038D0000E94870D0C94FE0D08951F93CF93DF93E4
:1038E000182FEB010E945B1B209741F08FE99FE0AE
:1038F0000197F1F700C000002197F6CF812FDF91EB
:10390000CF911F910C94051C893319F060E070E091
:1039100002C060E570E00C946D1C882321F00E94C9
:1039200046250C9495250895882321F00E944C2566
:103930000C9495250895CF92DF92EF92FF920F930A
:103940001F93CF93DF937C01062FC72FFC01D281F9
:10395000158112951F700E941B25882399F0DD2385
:1039600089F08C2F807F803421F080E2800F8830B6
:1039700048F082E00E94E5250E941B2591E0D82EA8
:10398000D92601C0D12CCC2EC2948FE0C8228C2D18
:1039900090E0FC01E959FF4F0C9449328C2F807F55
:1039A000CF70882311F0C295C07FDD2399F0CC231E
:1039B00009F48DC180E2800F883010F0011104C03D
:1039C0008C2F0E94462503C08C2F0E9456250E94F2
:1039D00095257DC1802F0E94051CCC2309F49CC134
:1039E00080E2800F883010F0011104C08C2F0E94FB
:1039F0004C2503C08C2F0E945C250E9495258CC10C
:103A00008C2F807FCF70803211F0C295C07F002351
:103A100019F00130C9F022C0DD2371F0112341F00B
:103A2000113031F40E9476258C2B0E947E2574C1C2
:103A30000E9476258C2B1DC0112319F0113009F43A
:103A40006BC10E948B2525C0DD2321F0163008F0C4
:103A500063C10EC0153008F05FC11BC0DD2361F0EB
:103A6000112331F0F701858180FF31C18F7085838B
:103A70008C2F0E948D1C50C1112359F0093309F07D
:103A800037C1FFEF27EE83E0F15020408040E1F79F
:103A90002DC18C2F0E94941C3FC18C2F869586953A
:103AA000837019F0813061F037C1DD2321F0802F60
:103AB0009C2F937002C080E090E00E94FC1934C1FA
:103AC000DD2321F0802F9C2F937002C080E090E0D6
:103AD0000E94121A29C1802FDD2319F00E942C0D9B
:103AE00002C00E94870D0E94FE0D1EC18C2F8370A4
:103AF00009F045C0D11114C1402F42954695477039
:103B0000440F440F602F6F70862F90E0A0E0B0E06C
:103B1000042E04C0880F991FAA1FBB1F0A94D2F756
:103B200004FF10C00FE010E020E030E004C0000F00
:103B3000111F221F331F4A95D2F70095109520952B
:103B4000309503C000E010E09801C695C695C3709B
:103B5000BC01CD01602B712B822B932BC23049F01D
:103B600058F4C13019F00E945E23DAC00E944C2341
:103B7000D7C00E947023D4C00E944A23D1C0DD2345
:103B800019F08C2F817001C08695882309F4C8C074
:103B9000402F429546954770440F440F602F6F7039
:103BA000862F90E0A0E0B0E0042E04C0880F991F9B
:103BB000AA1FBB1F0A94D2F704FF10C00FE010E049
:103BC00020E030E004C0000F111F221F331F4A9570
:103BD000D2F7009510952095309503C000E010E0D5
:103BE0009801C695C695C370BC01CD01602B712BA1
:103BF000822B932BC23049F058F4C13019F00E9447
:103C000023248EC00E9411248BC00E94352488C0BA
:103C10000E94842385C0CF70DD2339F08C2F0E9451
:103C2000AA23802F0E948D1C7BC0802F0E94941C91
:103C30008C2F0E94CB2374C0023F01F128F4003F77
:103C400041F0013FA1F03FC0033FF9F0043F39F1DB
:103C50003AC0DD2341F0153008F05EC08C2F8F7123
:103C60000E94F02359C0163008F056C0F7CFDD236C
:103C700039F08C2F8F710E94AA234EC0DD23C9F327
:103C80008C2F8F710E94CB2347C0DD2329F08C2F0E
:103C90008F710E94952340C00E9490233DC0DD2378
:103CA00049F0CF718C2F0E94AA2363E08C2F0E94D1
:103CB000CA2532C081E00E94E525123068F182E019
:103CC0000E94E52529C0DD2331F0112391F2802FD8
:103CD0000E945B1B21C0112399F2093349F49FEF25
:103CE000E7EEF3E09150E040F040E1F700C0000063
:103CF000802F0E94051C10C04C2F4F70602FC701F1
:103D00000E94400A0E94BB220FC04C2F4F70602FB0
:103D1000C7010E94430A08C088EF8C0D843020F44C
:103D20000E94D7190E94370ADD20C9F00E9417258A
:103D300080FD15C0F70112820E9411250E94AA235E
:103D4000C7010E94D01E0E941125DF91CF911F91C3
:103D50000F91FF90EF90DF90CF900C94CB23DF91E9
:103D6000CF911F910F91FF90EF90DF90CF9008952A
:103D70000F931F93CF93DF93EC01688179818A8140
:103D80000E94EE248C010E9447240E943823B8012F
:103D9000CE010E949B1CDF91CF911F910F9108953E
:103DA000CF93DF93EC01988189812B813C81232B78
:103DB00031F08F3F31F481E09F3F19F403C081E07F
:103DC00001C080E080FD19C0CE010E948A098111E6
:103DD0000CC00E941B25882381F08A81882369F00A
:103DE00082E0DF91CF910C94E525CE010E94B81EB0
:103DF000CE01DF91CF910C946909DF91CF910895A5
:103E000080E090E00E94FC1980E090E00E94121A8D
:103E10000E9463250E9473250E9495250E942F0F02
:103E20000C94FE0D80911F01909120010E94F926B3
:103E30000C94001F0E9453250C94121FE92FE29549
:103E4000EF704E2F50E0FA013297EE30F105B0F4EA
:103E5000E958FF4F0C944932803F91F018F4883EA6
:103E600068F40EC0843F51F40BC0883E48F0813F97
:103E700029F406C093FB882780F9089580E008950F
:103E800081E008950E94E3240E941E1F0895CF93AD
:103E9000DF9300D000D01F92CDB7DEB70F900F9008
:103EA0000F900F900F90DF91CF910895CF93DF93F4
:103EB00000D000D000D0CDB7DEB726960FB6F8946C
:103EC000DEBF0FBECDBFDF91CF9108951F93CF937B
:103ED000DF93C091980216E080919902C81799F07B
:103EE000D0E01C9FF0011D9FF00D1124E656FD4F00
:103EF0004081518162817381848195810E94561F26
:103F00002196C770E9CFDF91CF911F91089540911D
:103F1000CA025091CB026091CC027091CD02809187
:103F2000CE029091CF020C94561F2091980290914E
:103F3000990256E02917A9F030E0529FF001539FF3
:103F4000F00D1124E656FD4F7181761306C0708185
:103F5000781303C07281741306C02F5F3F4F277020
:103F6000E9CF80E0089581E008950F931F93CF93E8
:103F7000DF938091CF0282958F7009F05DC08091B0
:103F8000CC02882309F458C08091980210919902BC
:103F90006091CA027091CB02C091CD02D091CE0245
:103FA00091E06F3F09F090E0292F06E0811709F4B6
:103FB00043C0209721F07F3F21F030E003C031E083
:103FC00001C0322F90E030FD34C0089FF001099FFE
:103FD000F00D1124DF01A656BD4F11963C911197AB
:103FE000371327C03C91361324C012963C91129788
:103FF00031111FC013964D915C9114974C1B5D0BB2
:1040000046395105B0F48091CF028F708061809362
:10401000CF02E156FD4F80818F70806180838AECF2
:1040200092E00E94D01EDF91CF911F910F910C94CE
:10403000661F01968770BACFDF91CF911F910F91C4
:1040400008958F929F92AF92BF92CF92DF92EF929C
:10405000FF920F931F93CF93DF93CDB7DEB7619796
:104060000FB6F894DEBF0FBECDBF8C0185E0F8011E
:10407000DE011D9601900D928A95E1F7D801DC9042
:104080001196EC9011971296CC909091CA022091C3
:10409000CB024091CD025091CE024115510531F035
:1040A0002F3F31F481E09F3F19F403C081E001C04C
:1040B00080E080FD81C1F801838094808AECA82E85
:1040C00082E0B82EF090CC02B401641B750BFF2087
:1040D00009F418C18091CF02382F307F66397105FD
:1040E00008F0D1C031118AC0E21214C0D91212C036
:1040F000FC2CC1100FC08F7080618093CF020E9492
:10410000871FC5010E94D01E8091CF02D80115964D
:104110008C936FC18114910439F0BFEFEB1206C08C
:1041200081E0DB1203C003C081E001C080E080FDBC
:1041300003C081E08C2502C080E090E080FF10C0C9
:104140004C2D6E2D8D2D0E94951F882349F08AECF1
:1041500092E00E94D01EEAECF2E086E0DF01A4C00B
:10416000892839F0BFEFEB1206C081E0DB1203C0F3
:1041700003C081E001C080E080FD03C081E08C25A8
:1041800002C080E090E0E82FE170BE2E80FF2CC0DE
:104190004C2D6E2D8D2D0E94951FF82E811124C05F
:1041A000DD86EE868D859E850E94E324292F22954B
:1041B0002F70223018F0243090F405C09F7059F011
:1041C000811109C016C19F7031F0D80115969C91DC
:1041D000907F09F40EC1805E883008F40AC1C801DE
:1041E0000E94D01EFB2C05C1FC2CCC2009F401C17F
:1041F0008091CF0281608093CF025BC0E21206C043
:10420000D91204C0C11002C0F801A0C0DD86EE863C
:104210008D859E850E94421F882379F1CC2069F10B
:104220002091CF02822F82958F7090E0029774F0D8
:104230008091CA029091CB0298878F8319869B86C2
:104240008A862C87CE0107960E94D01E86E0F80150
:10425000AAECB2E001900D928A95E1F70E94B51F99
:104260000E94871F0DC0E21631F1DD86EE868D8536
:104270009E850E94421F81112DC0C8010E94D01E40
:10428000FF24F394B6C03111EECF782D998A888A35
:104290004D2D5E2D6C2D89890E94471F8AEC92E07E
:1042A0000E94D01E86E0D5011D928A95E9F70E94F2
:1042B000871FF12C9EC0D912D8CFC110D6CFF801DC
:1042C0008583C8010E94D01E86E0D5011D928A9583
:1042D000E9F78FC0CC2089F22091CF02822F8295FE
:1042E0008F7090E002970CF4B1CF8091CA02909148
:1042F000CB029A8389831B829D828C822E83CE017E
:104300000196A2CF6639710508F047C0FC2CCC207D
:1043100009F4B3CFE21230C0D9122EC02091CF02DF
:1043200020FD21C0822F82958F70482F50E04115CB
:104330005105C9F0F80125834F30510541F08F5FD9
:10434000982F9295907F822F8F70892B8583C8013B
:104350000E94D01E86E0F801AAECB2E001900D9216
:104360008A95E1F744C086E0F801AAECB2E001903A
:104370000D928A95E1F73DC0DD86EE868D859E859E
:104380000E94421F811162CF8091CF028160809391
:10439000CF02C8010E94D01E2CC0782D998A888A2D
:1043A0004D2D5E2D6C2D89890E94471F86E0D50119
:1043B0001D928A95E9F71BC0CC2009F45ECFDD86FB
:1043C000EE868D859E850E94421FF82E882309F473
:1043D00054CF86E0F801AAECB2E001900D928A95E4
:1043E000E1F78AEC92E00E94551B0E94B51F0E94E3
:1043F000871F8F2D61960FB6F894DEBF0FBECDBF1D
:10440000DF91CF911F910F91FF90EF90DF90CF90B0
:10441000BF90AF909F908F9008951F93CF93DF939D
:10442000CDB7DEB72C970FB6F894DEBF0FBECDBF69
:104430004F83588769877A878B879C87CE01079639
:104440000E9421208823D1F09F8188852A853B8581
:10445000232B31F08F3F31F481E09F3F19F403C0EB
:1044600081E001C080E080FD47C04F8158856985AB
:104470007A858B859C850E94561F3EC086E0FE0192
:104480003796DE01119601900D928A95E1F7FF8132
:10449000E8856A857B856115710531F0EF3F31F460
:1044A00081E0FF3F19F403C081E001C080E080FD9E
:1044B00023C02091990230E0C901019687709927A5
:1044C0004091980250E084179507F1F1F983EA834F
:1044D0007D836C8396E0929FD001939FB00D112451
:1044E000A656BD4FFE01319601900D929A95E1F7C7
:1044F000809399020E94661F16E080919802909125
:104500009902891771F1189FC001112486569D4F99
:104510000E942120882329F1E09198021E9FF0013A
:104520001124E656FD4F408151816281738184815F
:1045300095810E94561F8091980290E001968770A5
:10454000992780939802D9CF0E941A1F109299023E
:1045500010929802EAECF2E086E0DF011D928A9563
:10456000E9F72C960FB6F894DEBF0FBECDBFDF91F2
:10457000CF911F910895EF92FF920F931F93CF93C6
:10458000DF938C01892B09F46CC0F12CEE24E394A9
:10459000E8012196F8018491843740F4843008F0D2
:1045A00051C0813081F0823019F15BC0853709F448
:1045B00044C0A8F19CE7980F903708F052C08F775D
:1045C0000E94051C41C00E5F1F4FFE01849190E2C6
:1045D000980F983050F48770FE2D01C0FF0F8A9518
:1045E000EAF78F2F0E94662514C00E945B1B2DC026
:1045F0000E5F1F4FFE01849190E2980F983060F497
:104600008770FE2D01C0FF0F8A95EAF78F2F0E9459
:104610006C250E94952519C00E94051C16C00E5FCE
:104620001F4FFE01C491CC2381F08FE99FE00197D9
:10463000F1F700C00000C150F6CF0E5F1F4FFE0122
:10464000F49003C00E945B1B8E018F2D882309F418
:104650009FCFEFE9FFE03197F1F700C000008150F4
:10466000F5CFDF91CF911F910F91FF90EF900895BB
:10467000089508950C9439230C943A230E943C2306
:1046800060930603709307038093080390930903D4
:104690000C94001F0C943E230F931F93009106036C
:1046A000109107032091080330910903602B712BAF
:1046B000822B932B1F910F910C943E230F931F93EA
:1046C000009106031091070320910803309109031C
:1046D00060237123822393231F910F910C943E2317
:1046E0000F931F9300910603109107032091080375
:1046F0003091090360277127822793271F910F911B
:104700000C943E230C94D3050E94822360930203F1
:104710007093030380930403909305030C94001F8C
:1047200060E070E0CB010C9484230F931F9341E071
:1047300050E060E070E08A019B0104C0000F111F8F
:10474000221F331F8A95D2F7C901B8011F910F911B
:104750000C9484230F931F9341E050E060E070E0DD
:1047600004C0440F551F661F771F8A95D2F78091AA
:10477000020390910303A0910403B09105038A0101
:104780009B01082B192B2A2B3B2BC901B8011F9128
:104790000F910C9484230F931F9341E050E060E04D
:1047A00070E004C0440F551F661F771F8A95D2F72B
:1047B0004095509560957095809102039091030308
:1047C000A0910403B09105038A019B0108231923DA
:1047D0002A233B23C901B8011F910F910C94842314
:1047E0000F931F9341E050E060E070E004C0440F7D
:1047F000551F661F771F8A95D2F78091020390910B
:104800000303A0910403B09105038A019B010827CB
:1048100019272A273B27C901B8011F910F910C9432
:1048200084230F931F93009102031091030320919F
:10483000040330910503602B712B822B932B1F9166
:104840000F910C9484230F931F93009102031091F6
:104850000303209104033091050360237123822315
:1048600093231F910F910C9484230F931F93009116
:104870000203109103032091040330910503602784
:104880007127822793271F910F910C9484230895F9
:1048900024E0929F900D1124890FE82FE695E6956C
:1048A000E695877051E001C0550F8A95EAF785E0DB
:1048B000E89FF0011124E053FD4F20E030E070E06C
:1048C0004081CB01022E02C0969587950A94E2F7AB
:1048D0008170819584278523842781932F5F3F4FA3
:1048E0002530310569F7089524E0929F900D112439
:1048F000890F682F669566956695982F977085E065
:10490000689FB001112440E050E080E0FB01E40F1B
:10491000F51FE053FD4F208130E0092E02C036958F
:1049200027950A94E2F721703327042E01C0220F45
:104930000A94EAF7822B4F5F5F4F4530510531F7FC
:104940000895BF92CF92DF92EF92FF920F931F9341
:10495000CF93DF938C01C0900203D0900303E090CB
:104960000403F09005038091060390910703A09142
:104970000803B0910903C82AD92AEA2AFB2ACFE101
:10498000D0E0D701C6010C2E04C0B695A795979527
:1049900087950A94D2F780FD04C0219790F7B12C37
:1049A00007C0BC2EB8018C2F0E945F0A0197A9F3A3
:1049B0008B2DDF91CF911F910F91FF90EF90DF90A2
:1049C000CF90BF900895CF93DF93EC010E94A12474
:1049D000BE010E945F0ADF91CF9108951F93CF938C
:1049E000DF93EB0190919702992321F0CB010E9474
:1049F000E32413C0882349F0CB010E94A124182F7F
:104A0000682FCE010E94482404C0CB010E94742468
:104A1000182FBE01812F0E945F0ADF91CF911F9155
:104A2000089580910A0385958595859508958091CF
:104A30000A038770089590910A03977081E009F442
:104A400080E008959091260392FB222720F92817F1
:104A500051F080FB92F99093260380912503909169
:104A600026030C94282608958091260382FB88272C
:104A700080F991E089270C94222581E00C9422256D
:104A800080E00C94222580911603089590911603DE
:104A9000892B80931603089580959091160389239E
:104AA00080931603089510921603089590911503AC
:104AB000892B809315030895809590911503892380
:104AC000809315030895109215030895909114038F
:104AD000892B809314030895809590911403892362
:104AE00080931403089510921403089580910B038A
:104AF000089508950C9479250C947A2590912603B5
:104B000092FD08C090910B03981721F080930B033E
:104B10000C947C25089580910B03882329F0109232
:104B20000B0380E00C947C250895E0911F01F09127
:104B30002001809116038083E0911F01F0912001F4
:104B4000908180911503892B8083E0911F01F09162
:104B50002001908180911403892B808380910B0325
:104B6000882381F0E0911F01F09120019081892B31
:104B7000808380911F01909120010E94B3268111B2
:104B80000E948B2580911F01909120010C94E319C4
:104B90000C9479259091260392FD10C098E0899F8E
:104BA00090011124262B20930A030E94AA238091AE
:104BB0000A038595859585950C94C8250C94AA23A0
:104BC00010920A0380E00C94C82520910A03809576
:104BD000822380930A03982F977041F430E0482F86
:104BE000082E000C550B2417350721F4909126034D
:104BF00092FF07C08595859585950E94CB230C94DF
:104C0000E025089580E0089580E090E00E94F7326A
:104C100021E08A3E9E4F09F020E0822F089582E035
:104C200090E00C94E93283E090E00C94E932CF9369
:104C300084E090E00E94E932C82F82E290E00E9476
:104C4000E9322C2F30E0A901582BCA01CF910895E9
:104C5000CF93C92F682F84E090E00E94FD326C2F23
:104C600082E290E0CF910C94FD32AB01BC018FE069
:104C700090E00C940F33AB01BC0183E190E00C9405
:104C80000F3360E070E0CB010C943B2660E070E0F5
:104C9000CB010E9435260C9441266AEE7EEF80E01F
:104CA00090E00E941B3360E082E090E00E94FD32C1
:104CB00060E083E090E00E94FD32109206031092C3
:104CC0000703109208031092090360E084E090E06B
:104CD0000E94FD3260E082E290E00E94FD3260E0DE
:104CE00085E090E00E94FD3260E086E090E00E9466
:104CF000FD326FEF87E090E00E94FD3240E050E02F
:104D0000BA0188E090E00E940F3360E08DE090E00F
:104D10000E94FD3240E050E0BA0188E190E00E943C
:104D20000F3360E087E190E00E94FD3240E050E008
:104D3000BA018CE190E00E940F3360E070E080E205
:104D400090E00E941B3340E050E0BA0188E190E01F
:104D50000E940F330C9446260C944D26682F8EE04B
:104D600090E00C94FD32FC01329697E080E0915087
:104D700029F021912223D9F38F5FF9CF089566237B
:104D800049F0FC01329608962191621729F0E81744
:104D9000F907D1F780E0089581E008959C01FC01B6
:104DA00032969FEF80E04191461789F09F3F19F4BA
:104DB000411101C0982F8F5F8630A9F79F3F39F0CE
:104DC000F901E90FF11D97FDFA95628308950895A1
:104DD0009C012A5F3F4FFC014281461301C01282B1
:104DE000019682179307B9F708950C94CE260C9478
:104DF000E826029626E0FC0111922A95E9F708952B
:104E000008950C9400270C940027CF930E94032749
:104E10000E944F040E940127C0E08C2F0E94B4031F
:104E2000811104C0CF5FC031C1F701C081E0CF91D3
:104E300008950C9400270C94192780916403843002
:104E400059F10E941B2780E00E94370A0E943A1401
:104E50001092180320E488E190E00FB6F894A8952A
:104E6000809360000FBE2093600083B7817F8460D1
:104E700083BF83B7816083BF7894889583B78E7F23
:104E800083BF0FB6F894A8958091600088618093E5
:104E90006000109260000FBE08950C9400270E94DD
:104EA0001A1F0E94D7190E94370A0E9406150C94F7
:104EB0004D271F920F920FB60F9211248F939F933D
:104EC000AF93BF9380911803811113C080915C034D
:104ED00090915D03A0915E03B0915F034196A11D87
:104EE000B11D80935C0390935D03A0935E03B09328
:104EF0005F03BF91AF919F918F910F900FBE0F9065
:104F00001F90189582E084BD93E095BD9AEF97BD00
:104F100080936E0008952FB7F89480915C03909170
:104F20005D03A0915E03B0915F032FBF08952FB77B
:104F3000F89460915C0370915D0380915E039091A1
:104F40005F032FBF08959C014FB7F89480915C03D5
:104F500090915D03A0915E03B0915F034FBF821BF0
:104F6000930B089578941F920F920FB60F9211240D
:104F70008F939F93AF93BF9380915C0390915D0358
:104F8000A0915E03B0915F030196A11DB11D8093B6
:104F90005C0390935D03A0935E03B0935F03BF91A6
:104FA000AF919F918F910F900FBE0F901F9018950A
:104FB00087E797E790930108809300089AE088E1DB
:104FC0000FB6F894A895809360000FBE9093600090
:104FD000FFCF9093DB018093DA0108958091210344
:104FE0000895CF93DF9300D01F92CDB7DEB7909195
:104FF0006403943019F589837B836A8382E080930C
:10500000E9008FEF9091E800815095FD06C095ED85
:105010009A95F1F700008111F5CF8091E80085FFA6
:105020000DC040E050E063E070E0CE0101960E94C8
:105030000C2A8091E8008E778093E8000F900F9003
:105040000F90DF91CF910895BC0184E00C94F1277B
:10505000BC0183E00C94F12722E02093E9002FEFBC
:105060003091E800215035FD06C035ED3A95F1F755
:1050700000002111F5CF2091E80025FF0BC040E092
:1050800050E066E070E00E940C2A8091E8008E7784
:105090008093E8000895CF93DF9321E02093E90007
:1050A0002FEF3091E800215035FD06C035ED3A95DF
:1050B000F1F700002111F5CF2091E80025FF14C081
:1050C000EC0140E050E068E070E00E940C2A809122
:1050D000E8008E778093E80088E0FE01A9E1B3E064
:1050E00001900D928A95E1F7DF91CF91089580911B
:1050F0006303811109C00E949D2B0E94FA2B8091AD
:10510000E20084608093E2000895109263030895A2
:1051100008950895089542E061EC81E00E94162B05
:1051200042E261EC82E00C94162B8091660383309E
:1051300009F460C030F4813071F0823009F499C014
:1051400008958A3009F485C08B3009F46BC089302A
:1051500009F0A7C020C080916503813A09F0A1C081
:105160008091E800877F8093E800809169039091A7
:105170006A03892B21F468E089E193E003C060E0D1
:1051800080E090E070E00E94572A8091E8008B77E1
:105190008093E800089580916503813209F081C011
:1051A0008091690390916A03029708F07AC0809118
:1051B000E800877F8093E8008091E80082FD05C0C9
:1051C000809164038111F8CF6CC02091F30080912D
:1051D000F20090E0922B029729F48091F1008B7FEE
:1051E000813021F48091F100809321038091E800C7
:1051F0008B7753C080916503813A09F052C080914A
:10520000690390916A03892B09F04BC08091E800F3
:10521000877F8093E8008091E80080FFFCCF809139
:105220002B0136C0809165038132D9F580916903E5
:1052300090916A03892BA9F58091E800877F80937C
:10524000E8000E944B2B8091670380932B010C9404
:105250001A1F80916503813221F58091E800877FD4
:105260008093E8000E944B2B809168038093220377
:10527000089580916503813AA1F48091E800877FC9
:105280008093E8008091E80080FFFCCF80912203AA
:105290008093F1008091E8008E778093E8000C9471
:1052A0004B2B089584B7877F84BF0FB6F894A895D9
:1052B00080916000886180936000109260000FBE52
:1052C00090E080E80FB6F8948093610090936100BD
:1052D0000FBE0E94641A0E949D2B0E94FA2B80919F
:1052E000E20084608093E20078940E948F2E0E94F6
:1052F000721A81E291E00E94D21980916403853094
:10530000A9F480916403853079F40E941D2780916F
:1053100062038823B1F30E940527882391F30E943A
:10532000F6290E941A1FEDCF0E944F270E947C1A77
:105330000E946E1AE2CF0C949D29292F3327233027
:105340003105C9F060F42130310581F0223031059A
:1053500009F044C08BE390E025EC35E043C02132F6
:105360003105E1F02232310549F138C082E190E0A7
:1053700020E036E037C099278130910549F028F0C8
:10538000029761F5E9E9F5E005C0E1ECF5E002C05E
:10539000EFEAF5E0849190E09F0124C0611571056A
:1053A00041F061307105D1F489E090E020EF35E003
:1053B00019C089E090E027ED35E014C06115710552
:1053C00041F06130710551F48BE790E022E136E065
:1053D00009C080E490E02DE836E004C080E090E071
:1053E00020E030E0FA0131832083089580E189BD17
:1053F00082E189BD09B400FEFDCF8091D8008F7D88
:105400008093D8008091E00082608093E0008091DA
:10541000E00081FDFCCF0895CF92DF92EF92FF92E2
:105420000F931F93CF93DF93EC018B017A010E94BE
:105430006A2B811133C0E114F10439F0F701808146
:105440009181081B190BC80FD91FC12CD12C011534
:10545000110519F18091E80085FD16C08091E800E2
:105460008E778093E800E114F10449F0F701808120
:105470009181C80ED91ED182C08285E00FC00E94E2
:105480006A2B882321F30AC089918093F10001508F
:105490001109FFEFCF1ADF0ADACF80E0DF91CF9159
:1054A0001F910F91FF90EF90DF90CF900895209182
:1054B0006B0330916C032617370748F061157105AF
:1054C00039F42091E8002E772093E80001C0B9015B
:1054D000FC0120E06115710579F180916403882356
:1054E000F1F18530F1F18091E80083FD3CC08091BD
:1054F000E80082FD2EC08091E80080FFEBCF209174
:10550000F3008091F20090E0922B6115710551F04B
:105510008830910538F421912093F1006150710990
:105520000196F3CF21E0089709F020E08091E80090
:105530008E778093E800CECF2111CFCF0AC0809123
:105540006403882361F0853061F08091E80083FD79
:105550000AC08091E80082FFF2CF80E0089582E0E7
:10556000089583E0089581E0089520916B033091C0
:105570006C032617370748F06115710539F420913F
:10558000E8002E772093E80001C0B901FC0120E07B
:105590006115710591F180916403882309F440C07D
:1055A000853009F43FC08091E80083FD3DC08091C3
:1055B000E80082FD2FC08091E80080FFE9CF2091B4
:1055C000F3008091F20090E0922B6115710559F083
:1055D0008830910540F424912093F1003196615078
:1055E00071090196F2CF21E0089709F020E080913F
:1055F000E8008E778093E800CBCF2111CCCF0AC092
:1056000080916403882361F0853061F08091E80027
:1056100083FD0AC08091E80082FFF2CF80E0089508
:1056200082E0089583E0089581E00895982F9730EF
:1056300068F59093E900981739F07091EC0020918B
:10564000ED005091F00003C0242F762F50E021FD93
:1056500002C09F5FECCF3091EB003E7F3093EB00B8
:105660003091ED003D7F3093ED003091EB003160E3
:105670003093EB007093EC002093ED005093F0001A
:105680002091EE0027FDE5CF80E008958F70809394
:10569000E90081E008958091650387FF11C0809142
:1056A000E80082FD05C0809164038111F8CF11C02C
:1056B0008091E8008B770BC080916403882349F0C8
:1056C0008091E80080FFF8CF8091E8008E7780938A
:1056D000E80008952091E4003091E50095E64091BE
:1056E000EC00842F817040FF23C08091E80080FD92
:1056F0001DC080916403882399F0853099F08091D2
:10570000EB0085FD11C04091E4005091E5002417A5
:10571000350729F3915011F09A01E1CF84E0089503
:1057200082E0089583E0089581E0089580E008957F
:105730004091E80042FFDDCF08950E940B2C0E94AB
:10574000132CE0EEF0E0808181608083E8EDF0E0F2
:1057500080818F77808319BCA7EDB0E08C918E7F1C
:105760008C9380818F7E80831092630308950F93C2
:105770001F93CF93DF930E940B2C0E94132CC8ED34
:10578000D0E088818F77888388818068888388814A
:105790008F7D888319BC109264031092600310926D
:1057A00062031092610300EE10E0F80180818B7FAC
:1057B000808388818160888342E060E080E00E948D
:1057C000162BE1EEF0E080818E7F8083E2EEF0E048
:1057D000808181608083808188608083F8018081FE
:1057E0008E7F8083888180618883DF91CF911F9134
:1057F0000F910895E8EDF0E080818F7E8083E7EDE2
:10580000F0E080818160808384E082BF81E08093CA
:1058100063030C94B72BE8EDF0E080818E7F8083EA
:105820001092E20008951092DA001092E1000895BB
:105830001F920F920FB60F9211242F933F934F9305
:105840005F936F937F938F939F93AF93BF93EF93E8
:10585000FF938091E10082FF0BC08091E20082FF04
:1058600007C08091E1008B7F8093E1000E948E2E23
:105870008091DA0080FF1FC08091D80080FF1BC09C
:105880008091DA008E7F8093DA008091D90080FFCA
:105890000DC080E189BD82E189BD09B400FEFDCF64
:1058A00081E0809364030E94772805C019BC1092A0
:1058B00064030E9485288091E10080FF19C08091D7
:1058C000E20080FF15C08091E2008E7F8093E200AD
:1058D0008091E20080618093E2008091D800806234
:1058E0008093D80019BC85E0809364030E948928C6
:1058F0008091E10084FF30C08091E20084FF2CC0E1
:1059000080E189BD82E189BD09B400FEFDCF8091AF
:10591000D8008F7D8093D8008091E1008F7E8093A6
:10592000E1008091E2008F7E8093E2008091E200AE
:1059300081608093E20080916003882311F084E00D
:1059400007C08091E30087FD02C081E001C083E0D1
:10595000809364030E948A288091E10083FF29C01C
:105960008091E20083FF25C08091E100877F8093D2
:10597000E10082E080936403109260038091E10073
:105980008E7F8093E1008091E2008E7F8093E20021
:105990008091E20080618093E20042E060E080E07C
:1059A0000E94162B8091F00088608093F0000E9486
:1059B0008828FF91EF91BF91AF919F918F917F9137
:1059C0006F915F914F913F912F910F900FBE0F906C
:1059D0001F9018951F920F920FB60F9211242F93BC
:1059E0003F934F935F936F937F938F939F93AF9367
:1059F000BF93CF93DF93EF93FF93C091E900CF70F4
:105A00008091EC00D82FD17080FDD0E81092E90091
:105A10008091F000877F8093F00078940E942E2D73
:105A20001092E9008091F00088608093F000CD2B07
:105A3000CF70C093E900FF91EF91DF91CF91BF91BB
:105A4000AF919F918F917F916F915F914F913F9116
:105A50002F910F900FBE0F901F9018951F93CF930B
:105A6000DF93CDB7DEB7AA970FB6F894DEBF0FBEAF
:105A7000CDBFE5E6F3E08091F100819323E0ED36C0
:105A8000F207C9F70E9495288091E80083FF2EC194
:105A90008091650390916603492F50E04A3051058B
:105AA00008F024C1FA01EB57FF4F0C9449328038BB
:105AB00021F0823809F01AC108C0809161039091E9
:105AC0006203992389F082600FC0809169038F700F
:105AD000873008F00BC18093E9008091EB0085FBD3
