:100000000C941D070C9464070C9464070C9464070B
:100010000C9464070C9464070C9464070C946407B4
:100020000C9464070C9464070C9480320C94523343
:100030000C94C12D0C9464070C9464070C94640711
:100040000C9464070C9464070C9464070C94640784
:100050000C9464070C941A2E0C9464070C94640797
:100060000C9464070C9464070C9464070C94640764
:100070000C9464070C9464070C9464070C94640754
:100080000C9464070C9464070C9464070C94640744
:100090000C9464070C9464070C9464070C94640734
:1000A0000C9464070C9464070C946407360A460A9F
:1000B0004F0A8E0ABD0AEF0A210B530B850BB70BB3
:1000C000EC0B1E0C500C820CB10CE60C1E0D212307
:1000D000212353235323A023BE23DF24DF24C9235A
:1000E0005E246F246F24CF24DF24DF24D8247F25CF
:1000F0007F259125912588259125912591257F257D
:100100007F258D25912591258D25BF33E633DE345E
:10011000E633DE3432345534DE34AC34BB342020A4
:1001200020202020003C5343523E2000202020204D
:100130002020003C4E554D3E20000A20202020204B
:100140002020000A3C434150533E200044564F5269
:10015000414B0041444A5553540A00466E322852DE
:1001600041495345290A00466E31284C4F574552A4
:10017000290A004C617965723A004A4953283130A6
:1001800039290A00414E534928313034290A004D9B
:100190006F6465203A0068021302AA01A001000002
:1001A00052018466FFFF000000000C01AAFFFF114E
:1001B00001AAFFFF1801AAFFFF1D01AAFFFF3101DD
:1001C000AAFFFF3701AAFFFF3C01AAFFFF4301AAD4
:1001D000FFFF0D011CFFFF10011CFFFF19011CFF99
:1001E000FF1C011CFFFF23011CFFFF2D011CFFFF53
:1001F00030011CFFFF38011CFFFF3B011CFFFF44C7
:10020000011CFFFF47011CFFFF50011CFFFFFF0007
:100210000000000E021CFFFF1A021CFFFF24011C3D
:10022000FFFF2E021CFFFF39021CFFFF45021CFFCF
:10023000FF51011CFFFF0C01AAFFFF1101AAFFFFE4
:100240001801AAFFFF1D01AAFFFF2B01AAFFFF3122
:1002500002AAFFFF3601AAFFFF3B0A8466FF470A96
:100260008466FFFF00000000250100FFFFFF000083
:10027000000029002B00E0008B6249001F003600BF
:100280001200140065002100130018000E002C71EC
:1002900039002A0028000253350424000A000B000C
:1002A00010002C7226001500110019004A002F00C2
:1002B0002D00380031004D0004512A004C00490047
:1002C0008A431E00340004003300E300200037009E
:1002D00008000D00E20022001C000C001B00E000E2
:1002E00023000900070005008B42250006001700C7
:1002F0001A00E60027000F0016001D005200300013
:100300002E008A7228714B7100004E744F0051000C
:10031000500001000100010001000100615D0100C9
:1003200001000100010001000100010001000100C5
:100330006F5D0100010001000100635D010001002B
:1003400001000100655D0100010001000100695D1F
:10035000675D01006B5D01000451010001000100B7
:10036000010001006D5D01006C5D010001000100F4
:100370000100010001000100010001000100010075
:10038000625D0100010001000100645D01000100E7
:1003900001000100665D01000100010001006A5DCD
:1003A000685D010001000100000001000100010082
:1003B0000100350201000100010001003B000000C6
:1003C00051001B013D143D0000004F0019010100C8
:1003D00049004C00010001000100400000005200F3
:1003E0005100010042002E005F005C0059004400F3
:1003F000550061005E005B00530001000100010038
:100400004E003A00000050001D0101003C000000B9
:100410005200060101003E0000002900000001001A
:100420003F0000004A0050000100410000004D0064
:100430004F004B004300540060005D005A0045002F
:100440005600570058000100000001006300605D85
:10045000620035000100E0000100010045003B00A2
:100460004E001B013D1400003D004D00190101002C
:1004700049004C0001000100010000004000500054
:1004800028000100000042005200000000000000AF
:1004900044000000000000005300010001000100C2
:1004A000010044003A004A001D01010000003C0028
:1004B0004B000601010000003E0029000000010081
:1004C00000003F002A000000000000004100510031
:1004D00000000100000043004F0000000000000089
:1004E00045008A723D140100000001000000000078
:1004F00000005F5D00000000000000000000C65C1E
:10050000C75C000000000000CA5CCB5C0000005229
:10051000005C00000000C35C000000000000A800B8
:100520000000015200000000A90000000000470088
:1005300000000000000000000100000000000000BA
:100540000000000000000000000000000000C85C87
:10055000C95C000000000000C45CC55CC35C000016
:100560000000000000000000000000000000AA00E1
:1005700000000000460000000000000000004800ED
:10058000000000000000000000000000000000006B
:1005900000001E0F05783C1E1E140A052223252686
:1005A00028292A2C2D2F3032333536383A3B3D3E20
:1005B0004042434547494A4C4E5051535557595A6A
:1005C0005C5E6062646668696B6D6F717375777984
:1005D0007B7D7F81838587898A8C8E909294969883
:1005E0009A9C9E9FA1A3A5A7A8AAACAEAFB1B3B495
:1005F000B6B8B9BBBCBEBFC1C2C3C5C6C7C9CACBEA
:10060000CCCDCED0D1D2D2D3D4D5D6D7D7D8D9D9B4
:10061000DADADBDBDBDCDCDCDCDCDDDDDDDDDCDC1D
:10062000DCDCDCDBDBDBDADAD9D9D8D7D7D6D5D43A
:10063000D3D2D2D1D0CECDCCCBCAC9C7C6C5C3C206
:10064000C1BFBEBCBBB9B8B6B4B3B1AFAEACAAA85B
:10065000A7A5A3A19F9E9C9A98969492908E8C8A0F
:1006600089878583817F7D7B79777573716F6D6BEA
:100670006968666462605E5C5A5957555351504EC2
:100680004C4A4947454342403E3D3B3A3836353374
:1006900032302F2D2C2A292826252322FFAA7F55E8
:1006A00040000101010101010101010202020202F7
:1006B000020202020303030303030303040404040A
:1006C00004040405050505050606060606070707D2
:1006D000070708080808090909090A0A0A0B0B0B89
:1006E0000C0C0C0D0D0D0E0E0E0F0F0F1010111126
:1006F00011121213131414151516161717181819AA
:10070000191A1A1B1B1C1D1D1E1E1F202021222210
:10071000232424252626272829292A2B2C2D2D2E53
:100720002F30313232333435363738393A3B3C3D6D
:100730003E3F404142434445464748494A4C4D4E5E
:100740004F50515354555658595A5B5D5E5F616224
:1007500064656668696B6C6D6F7072737577787AB3
:100760007B7D7E8082838587888A8C8E8F9193950E
:1007700096989A9C9EA0A2A3A5A7A9ABADAFB1B332
:10078000B5B7BABCBEC0C2C4C6C9CBCDCFD1D4D612
:10079000D8DBDDDFE2E4E7E9EBEEF0F3F5F8FAFDB4
:1007A000FF00AE00AF00DA0281FFD9F1DB20A4A682
:1007B0002EAF00A0C000A1C800AED580A81FD300F6
:1007C000408D1420000000000000003E5B4F5B3EA7
:1007D000003E6B4F6B3E001C3E7C3E1C00183C7E76
:1007E0003C18001C577D571C001C5E7F5E1C0000DF
:1007F000183C180000FFE7C3E7FF000018241800AA
:1008000000FFE7DBE7FF0030483A060E00262979B3
:10081000292600407F05050700407F05253F005A37
:100820003CE73C5A007F3E1C1C0800081C1C3E7F15
:100830000014227F2214005F5F005F5F0006097FC3
:10084000017F00006689956A0060606060600094C6
:10085000A2FFA2940008047E04080010207E20104D
:100860000008082A1C0800081C2A0808001E10108E
:100870001010000C1E0C1E0C0030383E38300006E4
:100880000E3E0E060000000000000000005F0000A9
:1008900000000700070000147F147F1400242A7F43
:1008A0002A120023130864620036495620500000C3
:1008B0000807030000001C224100000041221C0028
:1008C000002A1C7F1C2A0008083E080800008070CF
:1008D00030000008080808080000006060000020E0
:1008E00010080402003E5149453E0000427F40008E
:1008F000007249494946002141494D3300181412FC
:100900007F10002745454539003C4A49493100419F
:100910002111090700364949493600464949291E2F
:100920000000001400000000403400000000081423
:10093000224100141414141400004122140800026F
:1009400001590906003E415D594E007C1211127C8E
:10095000007F49494936003E41414122007F4141E3
:10096000413E007F49494941007F09090901003E94
:1009700041415173007F0808087F0000417F41001A
:10098000002040413F01007F08142241007F404089
:100990004040007F021C027F007F0408107F003E61
:1009A0004141413E007F09090906003E4151215E57
:1009B000007F091929460026494949320003017F71
:1009C0000103003F4040403F001F2040201F003FE8
:1009D0004038403F006314081463000304780403A4
:1009E000006159494D4300007F4141410002040824
:1009F000102000004141417F000402010204004038
:100A00004040404000000307080000205454784054
:100A1000007F284444380038444444280038444483
:100A2000287F0038545454180000087E090200182A
:100A3000A4A49C78007F080404780000447D400052
:100A4000002040403D00007F102844000000417F0E
:100A50004000007C04780478007C080404780038A6
:100A60004444443800FC182424180018242418FC9A
:100A7000007C080404080048545454240004043F33
:100A80004424003C4040207C001C2040201C003CB2
:100A90004030403C004428102844004C9090907C0A
:100AA000004464544C4400000836410000000077C4
:100AB0000000000041360800000201020402003C70
:100AC0002623263C00000000000000404040F0F8D3
:100AD000F8FF38FFF8F83FF8F8FF38FFF8F8F04073
:100AE000404000000000000080C0C0C0800000C086
:100AF000C08000000080C0C000C0C0000080C0C036
:100B00000000000000C0C0C0C0C000C0C0000000A5
:100B100000000000000000000000000000000000D5
:100B200000000000000000000000000000000000C5
:100B300000000000000000000000000000000000B5
:100B400000000000C0F0F8FC3E1E06010000007F1F
:100B50004141417F007F4141417F000080C0E07EF4
:100B60005B4F5BFEC00000C000DCD7DEDEDED7DC02
:100B700000C00000000000000000000000000000B5
:100B80000000000000000000000000494949FFFF8C
:100B9000FFFFE0DFBFBF00BFBFDFE0FFFFFFFF4998
:100BA000494900000000001F3F6060E0BF1F007F58
:100BB0007F071E381E077F7F007F7F0E1F3B7160FF
:100BC00000000000007F7F0C0C0C007E7E007F7E0A
:100BD0000303007F7E03037E7E03037F7E000F3EC0
:100BE000703C063C703E0F00327B49493F7E007FDF
:100BF0007E0303001E3F69696F26000000000000AD
:100C000000000000030F1F3F3C7870600000007F71
:100C10004141417F007F4141417F00307B7F7830FF
:100C2000202030787F3B0003000F7F0F0F0F7F0FD6
:100C300000030000000000000000000000000000B1
:100C40000000000000000000000000010101070F8B
:100C50000F7F0F7F0F0F7E0F0F7F0F7F0F0F07018B
:100C60000101000000000000000000000101000080
:100C70000000000000000000000000000000000074
:100C80000000000000000000000000000000000064
:100C90000000000000000000000000000000000054
:100CA0000000000000000000000000000000000044
:100CB0000000000000000000000000000000000034
:100CC0000000000000000000000000000000000024
:100CD0000000000000000000000000000000000014
:100CE0000000000000000000000000000000000004
:100CF00000000000000000000000000000000000F4
:100D0000000000000014034F005000540049004D43
:100D1000004100360031003500000010034C006532
:100D2000006B00690070006F006E00000004030992
:100D30000409023B00020100A0FA090400000103BB
:100D40000101000921110100012240000705810372
:100D500008000A0904010001030000000921110133
:100D60000001227B000705820320000A1201100106
:100D700000000008EDFE150601000102000105015A
:100D80000902A10185020901A1000509190129082B
:100D90001500250195087501810205010930093109
:100DA0001581257F95027508810609381581257FF3
:100DB000950175088106050C0A38021581257F9575
:100DC0000175088106C0C005010980A101850319CC
:100DD000012AB700150126B700950175108100C0E2
:100DE000050C0901A101850419012AA0021501269B
:100DF000A002950175108100C005010906A1010539
:100E00000719E029E715002501950875018102956C
:100E100001750881010507190029FF150026FF004B
:100E200095067508810005081901290595057501C4
:100E30009102950175039101C00011241FBECFEFEF
:100E4000DAE0DEBFCDBF04B603FE27C08091DD0728
:100E50009091DE07A091DF07B091E0078730904BBB
:100E6000A740B04BD1F41092DD071092DE0710922C
:100E7000DF071092E00714BE84B7877F84BF0FB6E8
:100E8000F894A8958091600088618093600010922A
:100E900060000FBEE0E0F8E3099511E0A0E0B1E0EA
:100EA000E0EFFCE602C005900D92A83DB107D9F72E
:100EB00027E0A8EDB1E001C01D92AD3DB207E1F71A
:100EC0000E94BA2F0C9476360C9400000C94320DCC
:100ED0000C94330DE82FF0E0E652FE4F8081089528
:100EE0000895CF92DF92EF92FF920F931F93CF93CB
:100EF000DF93A5E3B1E025E431E0ED0161E070E0CE
:100F00008991E82FE295EF70F0E041A18F706B01BD
:100F100002C0CC0CDD1C8A95E2F7C6019C2D909591
:100F2000942391A392A1892B82A32C173D0741F70B
:100F3000C0E3D1E045E351E0BE0101E010E0FB0178
:100F40008191BF01E82FE295EF70F0E0F1A08F7082
:100F5000680102C0CC0CDD1C8A95E2F7C6019C2D0D
:100F600090959F2191A392A1892B82A346175707A1
:100F700031F701E010E08991E82FE295EF70F0E0A1
:100F800061A18F70780102C0EE0CFF1C8A95E2F718
:100F9000C7019E2D9095962391A392A1892B82A3A0
:100FA0004C175D0741F761E070E08D91E82FE29505
:100FB000EF70F0E041A18F708B0102C0000F111F94
:100FC0008A95E2F7C801902F9095942391A392A15E
:100FD000892B82A32A173B0741F7EAEEF1E0AAED3D
:100FE000B1E08AEF91E011921D928E179F07D9F719
:100FF00080E10E948110DF91CF911F910F91FF90AE
:10100000EF90DF90CF900C94820D3F924F925F92C1
:101010006F927F928F929F92AF92BF92CF92DF9208
:10102000EF92FF920F931F93CF93DF93AAEEB1E05D
:1010300032EF832E31E0932E05E311E0412CEE24B4
:10104000E394F12C5D017C901C92E80189918E0162
:10105000E82FE295EF70F0E021A18F70A70102C0A8
:10106000440F551F8A95E2F7CA01242B21A322A120
:10107000342E3094232122A350EA5A95F1F760E3ED
:1010800071E06B0140E050E0E60159906E01252DC2
:1010900022952F7030E0E90128A16C9030E0D52D29
:1010A000DF7002C035952795DA95E2F720FD08C07C
:1010B0003E2D042E01C0330F0A94EAF7232F01C0FE
:1010C00020E026292C934F5F5F4F45305105E1F614
:1010D00091A1D32DD923D1A392A1892B82A31196BB
:1010E00081E0F5019081971101C080E0482A8A16BD
:1010F0009B0609F0A7CF40E050E001E010E02AEFA6
:10110000A22E21E0B22EDB018D91BD01E82FE295E8
:10111000EF70F0E021A18F70E80102C0CC0FDD1F5D
:101120008A95E2F7CE012C2B21A322A13C2E3094EC
:10113000232122A3D0EADA95F1F79801042E01C009
:10114000220F0A94EAF7622E922E9094A2EFB1E059
:1011500095E3E92E91E0F92E812C6D017C90E70159
:1011600059907E01252D22952F7030E0E90128A1AC
:1011700030E0D52DDF7002C035952795DA95E2F77E
:1011800020FD03C0272D262902C0272D29212C93BD
:101190001196E6012881721611F088248394AA160C
:1011A000BB06D9F691A1D32DD923D1A392A1892B26
:1011B00082A348284F5F5F4F4530510509F0A3CF08
:1011C000242D40E16AED71E08AEE91E00E948210E8
:1011D0000E94860D842DDF91CF911F910F91FF907A
:1011E000EF90DF90CF90BF90AF909F908F907F90C7
:1011F0006F905F904F903F90089560E08FE891E08E
:101200000E948D1B609198047091990480919A04BA
:1012100090919B040E94F10D882331F0813049F4B4
:1012200060E08AE791E003C060E084E891E00E941A
:101230008D1B60E083E791E00E948D1B6091940418
:101240007091950480919604909197040E94F10DFD
:1012500060E0833039F0843051F0823059F487E611
:1012600091E002C08BE591E00E948D1B07C083E5F1
:1012700091E0FACF8CE491E00E949F1B0E941B201A
:1012800081FD03C08AE391E002C083E491E060E065
:101290000E948D1B0E941B2080FD03C08CE291E008
:1012A00002C083E391E060E00E948D1B0E941B203E
:1012B00082FD03C08EE191E002C085E291E060E032
:1012C0000C948D1BCF93811126C0C62F609194047E
:1012D0007091950480919604909197040E94F10D6D
:1012E000833021F0843041F0823071F4CC2311F04E
:1012F0008CEF0FC08BEF0DC0CC2319F00E942C1681
:101300000AC00E941C1607C0CC2311F089EF01C04F
:101310008AEF0E94D72281E0CF910895CF93C82F02
:101320002EEB34E081FF02C040E801C040E16FEFE6
:1013300080E00E94021421EC34E0C0FF02C040E8CB
:1013400001C040E16FEF80E20E940214CF910C9443
:101350008D1486E991E09093C5038093C40365E5FD
:1013600083E00E94E01383E00E948E092FEF83EC5C
:1013700099E0215080409040E1F700C0000080E0FB
:101380000C948E09CF92DF92EF92FF926B017C0159
:1013900042E00E94E829682F81E00E943A1843E069
:1013A000C701B6010E94E829682F82E00E943A181E
:1013B00044E0C701B6010E94E829682F83E00E943B
:1013C0003A18609198047091990480919A049091D0
:1013D0009B040E94F10D882341F0813031F424EC0C
:1013E00034E040E26FEF89EA05C024EC34E040E1EC
:1013F0006FEF85E50E940214C701B6010E94F10D4E
:10140000833051F0843071F0823099F424EC34E070
:1014100040E66FEF85E50BC024EC34E040E66FEF6B
:1014200080E105C024EC34E040E660E884E90E94F5
:101430000214C701B601FF90EF90DF90CF9008959E
:1014400081FB662760F980E00E943A1881E00895E8
:10145000CF938F559D458131910508F0FFC2FB0167
:101460008A5A9F4FC281FC010C944635CC2361F00F
:101470000E9437140E94ED178091B904869590E080
:101480009093B6048093B504C0E0E9C2C111FCCFCB
:1014900082E60E94D72282E60E94D722E0C2CC23B5
:1014A00099F3E0912301F0912401808191E0382F9C
:1014B000327081FF90E09093FB0191E0282F207221
:1014C00085FF90E09093FA01311103C0211104C00F
:1014D00020C081EE0E9458228091FA01882319F0E1
:1014E00085EE0E9458228FE20E94AE218FE20E9478
:1014F00058228091FB01882319F081EE0E94AE21D1
:101500008091FA01882309F4BFCF85EE0E94AE21B5
:10151000BBCF8FE10E94AE218FE19DC2CC2309F4A5
:10152000B3CFE0912301F0912401808191E0382F25
:10153000327081FF90E09093FB0191E0282F2072A0
:1015400085FF90E09093FA01311103C0211104C08E
:101550000FC081EE0E9458228091FA01882319F071
:1015600085EE0E9458228EE20E94AE218EE2BFCF0D
:1015700083E20E94AE2183E26EC2CC2309F484CFC1
:10158000E0912301F0912401808191E0382F3270A5
:1015900081FF90E09093FB0191E0282F207285FF5E
:1015A00090E09093FA01311103C0211104C012C0E0
:1015B00081EE0E9458228091FA01882319F085EE6D
:1015C0000E94582281EE0E94AE2183E20E94AE2149
:1015D00083E228C284E20E94AE2184E23CC2CC2392
:1015E00009F452CFE0912301F0912401808191E030
:1015F000382F327081FF90E09093FB0191E0282F0B
:10160000207285FF90E09093FA01311103C02111FF
:1016100004C012C081EE0E9458228091FA018823F2
:1016200019F085EE0E94582281EE0E94AE2184E3DB
:101630000E94AE2184E3F6C185E20E94AE2185E2DC
:101640000AC2CC2309F420CFE0912301F0912401B8
:10165000808191E0382F327081FF90E09093FB0100
:1016600091E0282F207285FF90E09093FA013111CC
:1016700003C0211104C012C081EE0E945822809143
:10168000FA01882319F085EE0E94582281EE0E940B
:10169000AE2185E20E94AE2185E2C4C186E20E94AD
:1016A000AE2186E2D8C1CC2309F4EECEE09123012D
:1016B000F0912401808191E0382F327081FF90E019
:1016C0009093FB0191E0282F207285FF90E090938A
:1016D000FA01311103C0211104C012C081EE0E9431
:1016E00058228091FA01882319F085EE0E94582231
:1016F00081EE0E94AE2186E20E94AE2186E292C176
:1017000087E20E94AE2187E2A6C1CC2309F4BCCEB9
:10171000E0912301F0912401808191E0382F327013
:1017200081FF90E09093FB0191E0282F207285FFCC
:1017300090E09093FA01311103C0211104C012C04E
:1017400081EE0E9458228091FA01882319F085EEDB
:101750000E94582281EE0E94AE2187E80E94AE21AD
:1017600087E860C18DE20E94AE218DE274C1CC2376
:1017700009F48ACEE0912301F0912401808191E067
:10178000382F327081FF90E09093FB0191E0282F79
:10179000207285FF90E09093FA01311103C021116E
:1017A00004C012C081EE0E9458228091FA01882361
:1017B00019F085EE0E94582281EE0E94AE2183E34B
:1017C0000E94AE2183E32EC181EE0E94AE218DE204
:1017D0000E94AE218DE23CC1CC2309F455CEE091AC
:1017E0002301F0912401808191E0382F327081FF34
:1017F00090E09093FB0191E0282F207285FF90E00C
:101800009093FA01311103C0211104C012C081EE7E
:101810000E9458228091FA01882319F085EE0E94D7
:10182000582281EE0E94AE2180E30E94AE2180E327
:10183000F9C080E30E94AE2180E30DC1CC2309F4FE
:1018400023CEE0912301F0912401808191E0382F93
:10185000327081FF90E09093FB0191E0282F20727D
:1018600085FF90E09093FA01311103C0211104C06B
:1018700012C081EE0E9458228091FA01882319F04B
:1018800085EE0E94582281EE0E94AE2182E30E94E2
:10189000AE2182E3C7C082E30E94AE2182E3DBC0B7
:1018A000CC2309F4F1CDE0912301F0912401808152
:1018B00091E0382F327081FF90E09093FB0191E02E
:1018C000282F207285FF90E09093FA01311103C018
:1018D000211104C012C081EE0E9458228091FA01A9
:1018E000882319F085EE0E94582281EE0E94AE21D5
:1018F00089E80E94AE2189E895C087E80E94AE2160
:1019000087E8A9C0CC2309F4BFCDE0912301F09171
:101910002401808191E0382F327081FF90E0909314
:10192000FB0191E0282F207285FF90E09093FA014F
:10193000311103C0211104C00FC081EE0E94582252
:101940008091FA01882319F085EE0E94582284E3E1
:101950000E94AE2184E3CBCD83E30E94AE2183E3DA
:101960007AC0CC2309F490CDE0912301F0912401B9
:10197000808191E0382F327081FF90E09093FB01DD
:1019800091E0282F207285FF90E09093FA013111A9
:1019900003C0211104C012C081EE0E945822809120
:1019A000FA01882319F085EE0E94582281EE0E94E8
:1019B000AE218FE10E94AE218FE134C081EE0E9402
:1019C000AE2184E20E94AE2184E242C0CC2309F41D
:1019D0005BCDE0912301F0912401808191E0382FCB
:1019E000327081FF90E09093FB0191E0282F2072EC
:1019F00085FF90E09093FA01311103C0211104C0DA
:101A000015C081EE0E9458228091FA01882319F0B6
:101A100085EE0E94582281EE0E94AE218FE20E9444
:101A2000AE218FE20E94582281EE61CD81EE0E94AC
:101A3000AE218EE20E94AE218EE20AC0CC2309F4D0
:101A400023CD81EE0E94AE2189E30E94AE2189E37D
:101A50000E94582281EE0E94582216CDC1E08C2FA0
:101A6000CF9108950895089581E008950C94280A6F
:101A700008950C94380D1F93CF93DF9300D000D0BE
:101A80001F92CDB7DEB749835A836B833091290407
:101A900089819A81311114C0662359F0222349F0BB
:101AA0000E94092B182F682F89819A810E94B02AE1
:101AB00003C00E94DC2A182F69817A81812F04C01B
:101AC0000E94092B69817A810F900F900F900F90DF
:101AD0000F90DF91CF911F910C94520EFC01262F95
:101AE000408151816281738184810C943B0DCF933D
:101AF000DF93EC0160E00E946E0DBE01DF91CF919B
:101B00000C94390D0E945D100C9466070C946807C4
:101B100008950E946D250E94880D2FEF84E39CE0BC
:101B2000215080409040E1F700C000000C94402E0E
:101B30000F931F93CF93DF938C0161E00E946E0D92
:101B4000EC01B8010E94360D882309F444C0B801A5
:101B5000CE010E94831D8823F1F1B801CE010E94BD
:101B6000D51D8823C1F1B801CE010E94001F882332
:101B700091F1B801CE010E94F218882361F1F801B9
:101B80008281882309F1CB358DE5D807C1F050F467
:101B9000C115FCE5DF0781F0CF3DDC45A9F40E94CB
:101BA000142D19C0CC35EDE5DE0761F0CD35DD45EE
:101BB00059F40E949C2B08C00E94890D0CC00E9401
:101BC000A52B02C00E94A82BC801DF91CF911F91C5
:101BD0000F910C94340D80E0DF91CF911F910F9104
:101BE0000895CF92DF92EF92FF926C01EE24FF24D2
:101BF000C114D104E104F10421F0C701B60120E1D0
:101C000001C020E0C72ED82EE92EFF24C114D10434
:101C1000E104F10419F0285FC701B6016B017C01F2
:101C200054E0F694E794D794C7945A95D1F7C11429
:101C3000D104E104F10419F02C5FC701B6016B0176
:101C40007C0142E0F694E794D794C7944A95D1F783
:101C5000C114D104E104F10419F02E5FC701B601EB
:101C6000DC01CB01B695A79597958795892B8A2B93
:101C70008B2B09F02F5F822FFF90EF90DF90CF909A
:101C800008950C948E090C94200ACF93C82F0E94BB
:101C9000410E8C2F0E94430ECF91089580E090E07A
:101CA0000895089520E5829FC0011124FC0125E0DC
:101CB000729FE00DF11D1124E60FF11DEE0FFF1FC5
:101CC000EE58FD4F859194910895880F991FFC015E
:101CD000EE56FA4F859194910895CF93DF930E9429
:101CE000520E0E94850FEC018115904508F041C00D
:101CF000C11580E4D80708F0D1C0C83ED10510F561
:101D0000C03ED10508F0FDC0C83AD10578F4C53A07
:101D1000D10508F0A2C0C130D10509F4F2C008F421
:101D2000EEC0C430D10508F0ECC0E9C0CF3BD1050E
:101D300008F49BC0C03CD10508F4E1C0CE01805C32
:101D400091099EC0C11590E2D90758F4C11521E050
:101D5000D20708F0D6C0CD3ED10508F4D0C0D0657A
:101D6000D0C0C11580E3D80708F08EC0CE019F70A7
:101D700087C0C11595E5D90708F043C0C11524E512
:101D8000D20708F0A2C0C11582E5D80708F5C11531
:101D900091E5D90708F085C0CE0174E09695879546
:101DA0007A95E1F783709C2F937021E030E002C0B8
:101DB000220F331F9A95E2F73C68382BCF70C695F7
:101DC000C69580E2C89FE0011124C22BD32B99C095
:101DD0009E01237033278C2F86958695C115D34598
:101DE00008F064C0C1E0D0E002C0CC0FDD1F2A952E
:101DF000E2F720E2829FC0011124C82BD92BDC68B6
:101E000080C0C11529E5D207A0F4C11588E5D8071F
:101E100008F060C0C11596E5D90708F070C08C2F96
:101E20000E9419108F71C82FD0E0DC2FCC27D06210
:101E300068C0C1152AE5D20708F451C0CE019056FA
:101E40008115904208F05BC08D2F8F710E94191090
:101E5000DD27D0628F71D82B54C0C55AD0E0CD5841
:101E6000DE4FC881D0E0D0644CC0C85AD0E0CC0F5F
:101E7000DD1FCB5BDE4F0990D881C02DD46441C0FB
:101E80000E94650EEC013DC0CE019927D3FF03C02F
:101E9000EC01D86C36C0EC01D06C33C0DF70D06A76
:101EA00030C0DC2FCC27C16FD06A2BC0C1E0D0E09E
:101EB00002C0CC0FDD1F2A95E2F720E2829FC0010D
:101EC0001124C82BD92BDA681CC0DC2FCC27C46F97
:101ED000D06A17C0DC2FCC27C06FD06A12C08C2FFD
:101EE0008F700E94191094E0D695C7959A95E1F7E6
:101EF000CF70D0E0DC2FCC27D069C82B02C0C0E067
:101F0000D0E0CE01DF91CF9108958238910569F13B
:101F1000B0F48133910509F46DC048F4893291051C
:101F200009F463C08A32910509F469C008958533C4
:101F3000910509F455C089339105B9F00895833EA0
:101F4000910569F138F4803E9105B1F0823E91052A
:101F500009F10895863E9105A9F1873E9105B9F1F1
:101F6000843E910509F064C023C02091B70420FD90
:101F70004FC021FD4DC008958091B70480FD44C03D
:101F80008091B80480FF44C08091B70484FD42C0B2
:101F900083EE4DC08091B70482FF38C0F5CF8091A9
:101FA000B70482FD33C08091B80480FD31C0ECCF0E
:101FB0008091B80481FF32C08091B70484FD2AC0AB
:101FC00087EE35C08091B70483FF26C0F5CF80919E
:101FD000B70483FD21C08091B80481FD1FC0ECCF00
:101FE0008091B70485FD1CC01DC08091B70485FD9C
:101FF00019C016C08091B70486FD16C017C0809125
:10200000B70486FD13C010C089E311C082EE0FC073
:1020100080EE0DC080E00BC086EE09C084EE07C0E4
:1020200089E205C085E303C08AE201C081E390E054
:1020300008959091B70492FF0DC0282F2871283081
:1020400019F4877F846006C0282F2471243011F48E
:102050008B7F886093FF0DC0282F2871283119F4D9
:10206000877E846106C0282F2471243111F48B7E71
:1020700088612091B80420FF0DC0382F38713830A6
:1020800019F4877F816006C0382F3171313011F427
:102090008E7F886021FF0DC0282F2871283119F408
:1020A000877E816106C0282F2171213111F48E7E37
:1020B000886194FD877E089508950E946C2C81119B
:1020C00002C00E94142D0E94772C8093A9040E94C4
:1020D0007F2C9093B8048093B7040E945C100E94F8
:1020E0007B2C682F70E080E090E00E949D29609139
:1020F00094047091950480919604909197040C94A7
:10210000D5290895FF920F931F93CF93DF938C01EE
:10211000F62ED72FC42F222349F081E08093FE01B1
:102120000E94F32D9093FD018093FC018091FE01AC
:102130008823C1F08091FC019091FD010E940B2E3B
:10214000069780F0EF2DFD2FD8014C2F50E0CD01E8
:10215000801B910B841795071CF48D918193F7CF09
:102160001092FE01DF91CF911F910F91FF90089582
:102170008091050280FF0BC06091090185E0689F96
:10218000B001112475956795759567952BC081FFF2
:1021900009C06091090185E0689FB001112475951F
:1021A000679520C082FF07C06091090185E0689FA4
:1021B000B001112417C0909104029923D1F06091CD
:1021C0000801961788F72091090185E0289F900162
:1021D0001124929FA001939F500D112470E0CA0119
:1021E0000E9432356038710540F46115710519F4AB
:1021F00006C065E070E0862F08958FE7089581E0BE
:1022000008958091050280FF08C06091050170E08B
:10221000759567957595679521C081FF06C060919A
:10222000050170E07595679519C082FF04C0609143
:10223000050170E010C090910302992399F060911C
:1022400004019617A0F780910501899FC001112410
:1022500070E00E9432356038710540F461157105F7
:1022600019F406C061E070E0862F08958FE70895A5
:1022700081E008958D3E21F40E94B810819504C03C
:102280008E3E29F40E94B8108093090208958F3E73
:1022900021F40E94B810819504C0803F29F40E9467
:1022A000B810809308020895893F19F40E94011123
:1022B00005C08A3F31F40E940111819580930A0282
:1022C00008958B3F21F40E940111819504C08C3F39
:1022D00029F40E94011180930B0208959FE0980F4A
:1022E000983078F421E030E0A90102C0440F551F76
:1022F0009A95E2F7CA0190910702892B8093070211
:1023000008958D3F21F48091050281600BC08E3FBE
:1023100021F480910502826005C08F3F29F48091ED
:10232000050284608093050208958D3E39F49091F2
:10233000090297FF35C01092090259C08E3E29F458
:10234000909109021916BCF32BC0909108028F3EA0
:1023500029F497FF25C01092080249C0803F19F464
:102360001916CCF31DC090910A02893F29F4191661
:10237000BCF410920A023BC08A3F19F497FF10C0C8
:10238000F8CF8B3F39F490910B0297FF09C0109260
:102390000B022DC08C3F21F490910B021916BCF357
:1023A0009FE0980F983080F421E030E0A90102C04E
:1023B000440F551F9A95E2F7CA0180959091070244
:1023C00089238093070213C08D3F21F48091050279
:1023D0008E7F0BC08E3F21F4809105028D7F05C05A
:1023E0008F3F29F4809105028B7F809305028091B5
:1023F0000802811106C080910902811102C0109269
:10240000040280910A02811106C080910B028111A1
:1024100002C01092030208950E94F32D2091080239
:10242000211104C020910902222321F0909302027D
:102430008093010220910A02211104C020910B0215
:10244000222321F0909300028093FF0186E092E026
:102450000C943220EF92FF920F931F93CF93DF9350
:1024600000D000D000D0CDB7DEB786E0E6E0F2E0E5
:10247000DE01119601900D928A95E1F7E090080235
:10248000F090090200910A0210910B0210920802CA
:102490001092090210920A0210920B02E11003C07E
:1024A000FF2009F45DC080910102909102020E9418
:1024B0000B2EAC0190910402992339F020910A016E
:1024C00030E02417350758F04BC020910B018AE00B
:1024D000289F900111242417350718F041C09F3F11
:1024E00019F09F5F90930402EE2061F00E94B810F3
:1024F0001E1414F09FEF01C091E0989F902D1124BD
:1025000090930802FF2061F00E94B8101F1414F08D
:102510009FEF01C091E0989F902D112490930902A4
:10252000309108023323E1F0209109022223C1F007
:1025300045EB3403C0011124992319F0909308024C
:1025400003C081E08093080235EB2303C00111240E
:10255000992319F09093090203C081E08093090246
:10256000011103C0112309F45DC08091FF01909116
:1025700000020E940B2EAC0190910302992339F0C6
:102580002091060130E02417350758F04BC0209108
:1025900007018AE0289F900111242417350718F0BD
:1025A00041C09F3F19F09F5F90930302002361F0A9
:1025B0000E940111101614F09FEF01C091E0989F46
:1025C000902D112490930A02112361F00E940111B1
:1025D000111614F09FEF01C091E0989F902D1124E7
:1025E00090930B0230910A023323E1F020910B0209
:1025F0002223C1F045EB3403C0011124992319F0C3
:1026000090930A0203C081E080930A0235EB230312
:10261000C0011124992319F090930B0203C081E0AB
:1026200080930B028091080281110BC080910902F6
:10263000811107C080910A02811103C080910B02B1
:1026400081110E940C12EB82FC820D831E8386E0B6
:10265000FE013196A6E0B2E001900D928A95E1F775
:1026600026960FB6F894DEBF0FBECDBFDF91CF9197
:102670001F910F91FF90EF900895E6E0F2E086E061
:10268000DF011D928A95E9F710920402109203026D
:10269000109205020895EF92FF920F931F93CF932C
:1026A000DF938B01682F11110AC0442329F0E82F12
:1026B000F0E0EF55F94F6491762F862F75C0212FEA
:1026C00030E0E82FF0E0442321F0EF55F94FE4919A
:1026D000F0E046E0049FC0011124CFEFD0E0BE013E
:1026E0000E941E354BEA4603C001479F900D1124FE
:1026F000800F911D800F911D982F990F890FAE01AA
:10270000421B530B4E9FD0014F9FB00D5E9FB00DEB
:1027100011249B2F189FA0011124452F55278E01AE
:10272000041B150B0E9FA0010F9F500D1E9F500DF7
:1027300011247E01E81AF108E29E8001E39E100D4B
:10274000F29E100D1124212F3327C21BD30BCE9FD5
:102750009001CF9F300DDE9F300D11246230710546
:10276000A9F048F46115710569F061307105C9F48B
:102770008B2F752F0DC06430710581F058F06630D5
:10278000710579F47E2F8B2F932F0DC0832F7B2F14
:102790009E2F09C08E2F7B2F952F05C08E2F732F54
:1027A00002C07E2F852F692FDF91CF911F910F914E
:1027B000FF90EF90089541E00E944B130895089513
:1027C000883570F4262F30E0280F311D293531056A
:1027D0003CF480930E01860F80930F0160931001EB
:1027E00008950E94DB130895CF93DF93762FE901BC
:1027F000682F842F0E94F113798368838A83DF9185
:10280000CF910895413808F040E80C94F41380917A
:10281000B904282F269530E02115310519F481706F
:10282000826005C02931310524F081708063809376
:10283000B9048091BC04813818F080E88093BC040E
:10284000089588E090E00C94D335CF92DF92EF9218
:10285000FF926B017C010E940714B701A60188E07A
:1028600090E0FF90EF90DF90CF900C94F135E9EB82
:10287000F4E083E0808311828FEF828380E883839A
:10288000148260817181828193810C9425148091DE
:10289000B90480FF02C08695089580E00895909164
:1028A000BD04933018F49F5F9093BD04882351F0CA
:1028B0006091B9047091BA048091BB049091BC04FA
:1028C0000C942514089581E00C944F149091BD044C
:1028D000992319F091509093BD04882351F0609191
:1028E000B9047091BA048091BB049091BC040C941B
:1028F0002514089581E00C94661421E030E001C0B5
:10290000220F8A95EAF78091D103282381E009F408
:1029100080E0089570E00C949F198F929F92AF927F
:10292000BF92CF92DF92EF92FF920F931F93CF93BC
:10293000DF9300D000D01F92CDB7DEB790900D018D
:102940008091B90480FF08C0A090C403B090C50373
:10295000A114B104A9F425C080910E0190910F013A
:10296000891790F7E82FF0E09F01220F331FE20F45
:10297000F31FE254FB4F1182108212828F5FF0CF5F
:102980008091CD0381110DC0812C882D0E947D1472
:10299000882309F457C0F501C590D490C114D1041F
:1029A00001F580910C0123E0829FC0011124692D63
:1029B00082549B4F0E948A140F900F900F900F909B
:1029C0000F90DF91CF911F910F91FF90EF90DF90CB
:1029D000CF90BF90AF909F908F90089535E0C30E39
:1029E000D11C45E050E0B601CE0101960E94A83509
:1029F00009810F3F39F110E08A819801280F311DBC
:102A0000C9012935310514F088E590E07C01EE0C10
:102A1000FF1C8E0D9F1D9C0122543B4F7901C80164
:102A2000880F991F080F191F02541B4F0E151F0501
:102A3000A8F698014D816C818B810E9402140D5F74
:102A40001F4FF4CF82E0A80EB11C839428E08212BD
:102A50009CCFA7CF9091B90490FF16C090910E0122
:102A600020910F01921770F4E92FF0E0DF01AA0F17
:102A7000BB1FEA0FFB1FE254FB4F8183608342833D
:102A80009F5FF0CF0C948D140895CF93DF9300D007
:102A90001F92CDB7DEB79091B90490FF0AC09E0196
:102AA0002F5F3F4F0E9402144B8169818A810E94EF
:102AB0002A150F900F900F90DF91CF910895CF932B
:102AC000DF93EC01EC81F0E0E456FA4F4491E9EB3E
:102AD000F4E0628181810E9445158C818F5F8C8337
:102AE000DF91CF910895CF93DF93EC01E9EBF4E010
:102AF000438162818C810E9445158C818F5F8C831C
:102B0000DF91CF910895AF92BF92CF92DF92EF9273
:102B1000FF920F931F93CF93DF9300D01F92CDB7F7
:102B2000DEB7182FF62E042FE22E8091B90480FF15
:102B30006BC0E82FE695AE2FB0E0AA58BE4F9C912F
:102B40009093CF038E7F823061F49E012F5F3F4FC1
:102B5000812F0E9402144B8169818A810E942A156B
:102B600041C0923019F40091BC043CC0963019F475
:102B70001091BA0437C09930A9F5E9508E2F8170B1
:102B8000D82EE695F0E0E456F94FA590B490C12C0C
:102B9000BB2460911001C61618F52C2D30E0A29EC2
:102BA000C001A39E900DB29E900D112470E00E9472
:102BB0001E35812FD11002C0860F01C0861B909157
:102BC0000E01290F311DA901440F551F240F351F78
:102BD00022543B4F402F6F2D0E940214C394D9CF33
:102BE0000E948D141093BA04F092BB040093BC04AD
:102BF000EE2051F06091B9047091BA048091BB0449
:102C00009091BC040E9425140F900F900F90DF91BB
:102C1000CF911F910F91FF90EF90DF90CF90BF90D9
:102C2000AF900895E9EBF4E09181282F4381628110
:102C300084E0890F0C94831580E00C94121681E0D7
:102C40000C941216E9EBF4E09181282F4381628104
:102C50008CEF890F0C94831580E00C94221681E090
:102C60000C942216E9EBF4E0628120E2620F08F492
:102C70006FEF282F438181810C94831581E00C94A0
:102C80003216E9EBF4E0628120E2621B08F460E0B6
:102C9000282F438181810C94831581E00C94411687
:102CA000E9EBF4E0438128E0420F08F44FEF282FCE
:102CB000628181810C94831581E00C945016E9EBBC
:102CC000F4E0438128E0421B08F440E0282F6281B1
:102CD00081810C94831581E00C945F1620E00C94A4
:102CE00083157F928F929F92AF92BF92CF92DF9285
:102CF000EF92FF920F931F93CF93DF93FC0182809B
:102D0000748081E08483ECE9F5E09490EBE1F6E0F7
:102D1000E491A12CF5E0BF2ECC24CA94D12CE91962
:102D20000E2F10E080911001A81608F09EC0EA2C2A
:102D3000F12C22E0281568F0BE9CF001BF9CF00D3C
:102D40001124E45FFD4F8091BA0480838091BB041D
:102D5000818371100AC0BE9CF001BF9CF00D11244C
:102D6000E45FFD4F1382128266C0BE9CE001BF9CEF
:102D7000D00D1124C45FDD4F8B818823F9F0815081
:102D80008B832FEF829FC00111246C8170E00E9421
:102D90001E35FB01FF27E456FA4F8491E82FE9190D
:102DA0002FEFE29FC0011124B8010E941E358091CF
:102DB000BC04689FB00111247A833DC00E949835FD
:102DC0002091BC042695215830E0A901440F551FDD
:102DD000322F2227240F351F232F332782179307E3
:102DE00054F582E0881588F40E949835B6010E9457
:102DF000323588830E9498352091BB042695622F36
:102E000070E00E943235280F2983BE9CF001BF9CE0
:102E1000F00D1124E45FFD4F12828091BC048431D7
:102E200008F484E1BE9CF001BF9CF00D1124E45F26
:102E3000FD4F8483838380910E019701280F311DFC
:102E4000C901880F991F280F391F22543B4FBE9C80
:102E5000F001BF9CF00D1124E45FFD4F42816181C0
:102E600080810E940214A3945DCFDF91CF911F91C6
:102E70000F91FF90EF90DF90CF90BF90AF909F9019
:102E80008F907F900C948D14E9EBF4E080818E7F1D
:102E9000808360817181828193810E9425141092C8
:102EA000D0032FEF80E792E0215080409040E1F77F
:102EB00000C000000C948D14E9EBF4E080818E7F5B
:102EC00080831092D0032FEF80E792E02150804062
:102ED0009040E1F700C000000C948D141092D003D4
:102EE0008091CD0381110AC081E08093CD03809150
:102EF000B90481708093CC030C945C1708956091A1
:102F0000B904669570E04BE050E081E191E00E94E9
:102F1000B135892B19F481E08093D0030E94F32D01
:102F20009093C7038093C60308959091B90490FFCE
:102F300035C09170811102C0926006C0893110F0D5
:102F4000906302C0880F982B9093B904662351F0C8
:102F50006091B9047091BA048091BB049091BC0453
:102F60000E9425146091B904669570E04BE050E032
:102F700081E191E00E94B135892B19F01092D003C4
:102F800002C00E947F1781E08093C9034091BC0476
:102F90006091BB048091BA040C946E160895682F5A
:102FA0009091B904969581E0890F893108F081E00C
:102FB0000C94951781E00C94CF17682F9091B90469
:102FC00096958FEF890F09F488E10C94951781E0AD
:102FD0000C94DD1761E00C949517E9EBF4E0808127
:102FE0008160808386950C94EA178091B90480FDF6
:102FF0000C9444170C94ED1760E00C949517809195
:10300000CE0381112EC00E946C2C811104C00E943D
:10301000142D0E9437140E9421146093B9047093F8
:10302000BA048093BB049093BC046E7F61F40E9449
:1030300037140E9421146093B9047093BA048093EA
:10304000BB049093BC040E9407141092D00380919B
:10305000B90480FF03C086950E94FC1781E080932D
:10306000CE030895E9EBF4E080818160808386954A
:103070000C94FC1721E030E0A90102C0440F551F59
:103080008A95E2F7CA012091D103662311F0822BC1
:1030900002C0809582238093D1038091D003811157
:1030A00005C08091B90486950E94FC178091B904EF
:1030B00080FF0C948D1408951092CD038091CC0361
:1030C000882319F00E94321805C08091D103811124
:1030D0000E948D140C947F170F931F93CF93DF934F
:1030E0008091D003882309F45DC09091CF03E091D3
:1030F000B904E6958E2F891B8093C803923051F452
:10310000E82FF0E0E856FA4FE491CE2FD0E00FE53B
:1031100015E11FC0963051F4E82FF0E0EB56FA4F5E
:10312000E491CE2FD0E003E715E113C0933169F4A9
:1031300063E00E941235E92FF0E0EE56FA4FE49179
:10314000CE2FD0E001E716E104C0C0EDD7E00FEDCF
:1031500013E18091C903882361F01092C9030E9492
:10316000F32D9093C7038093C6031092CB03109264
:10317000CA030E94F32DE091C603F091C7038E1B92
:103180009F0B8F3F9F4770F4CE0FDF1FD093C70375
:10319000C093C60386EC93E0F801DF91CF911F91B5
:1031A0000F910994DF91CF911F910F91089588237A
:1031B00011F0FA0101C0FB010994CF93DF93C82FEE
:1031C000D62F0E9447148C1740F00E9447148D1789
:1031D00020F4DF91CF910C94DA178C2FDF91CF91EF
:1031E0000C94EA171F93CF93DF93FB0112811123F5
:1031F00009F49DC0EC010E94AB2B8272CC3CFCE533
:10320000DF0709F47EC0B0F5C73CECE5DE0709F442
:1032100064C0D8F4C43C9CE5D90709F452C038F422
:10322000C33CDC4509F086C00E94F51782C0C53C4E
:103230009CE5D90709F44AC0C63CDC4509F07AC0D0
:103240004FE256E16FE176E145C0C93CFCE5DF079E
:1032500009F44DC008F446C0CA3CECE5DE0709F4A9
:103260004BC0CB3CDC4509F065C04CE556E16BE654
:1032700076E130C0C53D9CE5D907B8F4C13DECE529
:10328000DE0708F056C0CE3CFCE5DF0709F443C07A
:10329000E8F1CF3CECE5DE0709F441C0C03DDC4578
:1032A00009F048C068E086E03FC0C63D8CE5D8071D
:1032B00009F43FC0B8F1CE35DD45E1F568E183E1C1
:1032C00033C047EE57E16AED77E104C04AED57E1BC
:1032D00067EE77E10E94D7182CC04FE156E16FE20C
:1032E00076E1F8CF4DE456E16EE376E1F3CF4EE3BD
:1032F00056E16DE476E1EECF4BE656E16CE576E122
:10330000E9CF4AE754E163E674E1E4CF43E654E1F0
:103310006AE774E1DFCF81E00E94EA170AC065E046
:1033200082E002C062E189E00E94DD1802C011E083
:1033300001C010E0812FDF91CF911F910895539A22
:103340002BB1277F3BB138604FB7F894FC01CB011C
:10335000880F991F680F791F6E0F7F1FE617F707F9
:1033600089F0819198E03BB9000000C087FF2BB93C
:10337000880F000000C000C000C02BB900C09A95A3
:1033800091F7ECCF4FBF8FE594E00197F1F700C0C4
:10339000000008950C94620984988C9A85988D9AFF
:1033A0008FB1829581707D9902C090E001C092E05A
:1033B000892B8093D4030895E091D403EE0FEE0F90
:1033C000E093D4034FB144FB882780F990E04FB1DC
:1033D00045FB222720F930E045FF02C022E030E023
:1033E000822B932B8E2B8093D4038F70E82FF0E0E9
:1033F000E157FE4F90818091D303890F8093D303CF
:1034000082305CF08091D2038F5F8093D20360E0C2
:1034100080E00E94CA1921E001C020E08091D3031E
:103420008F3F54F48091D20381508093D20361E0A6
:1034300080E00E94CA1921E08091D303082E000C7D
:10344000990B62E070E00E9432358093D303822FA3
:103450000895EF92FF920F931F93CF93DF93EC01A8
:103460007B0164E670E088E70E94371F8C01EC0E58
:10347000FD1ECE15DF0561F017FD0AC0FE01849127
:1034800064E670E00E948E1F8C012196892B89F3DF
:103490000E941220C801DF91CF911F910F91FF90E0
:1034A000EF9008950895E6ECF5E080E092E0DF010A
:1034B0009C011D9221503040E1F7F093CB07E0933F
:1034C000CA078FEF9FEF9093010480930004089543
:1034D0000E94521A8093FC0380FD02C080E801C064
:1034E00080E28093FB030E94311F6DE070E088EB67
:1034F00097E00E94291A892B11F080E008958091AD
:10350000FC0363E070E081FD03C085EB97E002C03F
:1035100082EB97E00E94291A892B79F76DE070E021
:1035200085EA97E00E94291A892B39F70E94FF2D1E
:10353000DC01CB01805A9541AF4FBF4F8093C60746
:103540009093C707A093C807B093C9070E94531A66
:1035500081E08093FF038093FE031092FD030895A2
:103560002091FB0336E0839FC0011124629F800DF0
:10357000911D1124811522E0920714F080E090E063
:103580008A539A4F9093CB078093CA07089520914E
:10359000CA073091CB07205C35404091FB03642F74
:1035A00070E0C9010E941E35481B463010F4240FFC
:1035B000311D211582E0380710F020E030E02A5359
:1035C0003A4F3093CB072093CA070895CF93DF93E8
:1035D0008A3011F481E003C08D3029F480E0DF915E
:1035E000CF910C945C1BC62F682F8091CA079091D5
:1035F000CB0726E0FC01A5EDB3E001900D922A95E2
:10360000E1F7603E30F026E0FC0111922A95E9F7DF
:103610000AC0F6E06F9FB00111246B53784F46E06B
:1036200050E00E94A835C11135C0C091CA07D091A1
:10363000CB0746E050E0BE0185ED93E00E94BE3529
:10364000892BB1F1C65CD5409E0185E03695279562
:103650008A95E1F781E090E0AC0102C0440F551F6C
:103660002A95E2F72091000430910104242B352B98
:10367000259645E0D695C7954A95E1F702C0880F93
:10368000991FCA95E2F7822B932B909301048093A4
:1036900000040EC0E091CA07F091CB079F012A5F9A
:1036A0003F4F2E173F0709F2808180958193F9CF14
:1036B000DF91CF910C94C71ACF93E82F2091CA07BE
:1036C0003091CB07265C35404091FB03642F70E0BE
:1036D000C9010E941E35481B842FEE2359F066E075
:1036E0000E941235C82FC150B0F060E080E20E9405
:1036F000E61AF9CFA901480F511D4115524018F0A3
:1037000080E020E030E0280F311D2A533A4F3093FB
:10371000CB072093CA07CF9108951F93CF93DF93D0
:10372000EC01162FFE018491882329F0612F0E945D
:10373000E61A2196F7CFDF91CF911F9108950E944D
:103740008D1B81E00C945C1B8091FF038823F9F0B2
:103750000E94FF2DDC01CB01805A9541AF4FBF4F36
:103760008093C6079093C707A093C807B093C90773
:103770008091FE0381110BC062E070E083EA97E064
:103780000E94291A892B19F481E08093FE0380910D
:10379000FE0308956F927F928F929F92AF92BF9295
:1037A000CF92DF92EF92FF920F931F93CF93DF930D
:1037B0008091FF03882309F4DCC02091000430913C
:1037C00001042115310509F4D4C08091FD03811154
:1037D000D0C061E070E0082F10E03B01082E02C06D
:1037E000660C771C0A94E2F7A90146215721452B64
:1037F00011F48F5FF0CF9091FC03980165E0220FE8
:10380000331F6A95E1F790FD12C08295880F80768C
:1038100080931E01220F232F221F330B31952093FB
:103820002101815E80931F011092220112C045E0A8
:10383000369527954A95E1F7220F220F220F209304
:103840001E0110922101295F20931F0183E08093C4
:10385000220124E630E047E050E06CE171E088E7C7
:103860000E94BE1F892B09F084C08091FC0380FD5B
:1038700023C0A80195E0440F551F9A95E1F74A53DC
:103880005A4F04E610E020E230E060E488E70E944E
:10389000E51F892B09F06DC00E94A41BE301C095B0
:1038A000D0958091000490910104C823D923D0932E
:1038B0000104C09300045DC080E2EBEDF3E0DF01A2
:1038C0001D928A95E9F785E0000F111F8A95E1F7AF
:1038D000A3EAB1E04FE951E0992493942D91EA01D4
:1038E0008991AE01B801680F711D6A537A4F30E0BB
:1038F00025523C4FF90197E07F01E21AF30AA92C07
:1039000001C0AA0CEA94EAF77B01B12CE701899186
:103910007E018A21892E8B18D82DD770CD2E0D2EA1
:10392000000CDD08C82F01C0CC0FDA95EAF7D1945E
:10393000C194D108D7E0CD22DD2401C08695CA9478
:10394000EAF78C2BD0808D298083B39488E0B8125D
:10395000DDCF915031969F3F79F6C1E0A73ABC0781
:1039600009F0BCCF04E610E020E230E04BED53E07C
:103970008CCFDF91CF911F910F91FF90EF90DF904F
:10398000CF90BF90AF909F908F907F906F90089551
:103990008091FF039091FE03882389F0992369F0B9
:1039A00062E070E081EA97E00E94291A892B19F001
:1039B0008091FE0308951092FE039091FE0381E032
:1039C000892708950F931F938091FF03882329F17E
:1039D00060E080E00E94B01A0E94FD080E94CA1BAD
:1039E0008091FE038823C9F00E94FF2D0091C60735
:1039F0001091C7072091C8073091C907DC01CB019E
:103A0000801B910BA20BB30B8F3F9F4FAF4FBF4754
:103A100020F41F910F910C94C81C1F910F910895D1
:103A20000F931F93CF93DF93C42FD22FFC0182817A
:103A30008823C9F0409304040E94F32D909303045B
:103A40008093020480E28C0F883008F057C0C77062
:103A500081E001C0880FCA95EAF7DF91CF911F91ED
:103A60000F910C94E02280910404481330C080919F
:103A70000204909103040E940B2E8639910538F5BB
:103A800010E21D0FCD17B9F080E28C0F883040F4A2
:103A9000C77081E001C0880FCA95EAF70E94E7224B
:103AA000183028F581E09D2F977001C0880F9A95F6
:103AB000EAF70E94E022802F0E94D7221830F0F40B
:103AC000D77081E001C0880FDA95EAF70AC080E27A
:103AD0008C0F883098F4C77081E001C0880FCA95B8
:103AE000EAF7DF91CF911F910F910C94E722802F7D
:103AF000DF91CF911F910F910C94D722DF91CF913D
:103B00001F910F9108950F939C01CB01243F4CE529
:103B1000340731F188F4293DFCE53F07D9F02A3D0F
:103B20004CE5340779F1283D3C45A9F506E221EE44
:103B300041EE68ED7CE52BC0263FFCE53F07E1F058
:103B4000A8F0273F3C4539F507E225EE46EE67EF42
:103B50007CE51DC007E225EE45EE69ED7CE517C06A
:103B600006E221EE40EE64EF7CE511C007E225EEAF
:103B700044EE65EF7CE50BC006E221EE42EE66EF17
:103B80007CE505C008E221E045EE6AED7CE50E9497
:103B9000101D80E008C0FC018281882319F010927A
:103BA000040401C081E00F910895CF93DF93EC01ED
:103BB000FB018281882309F41FC1C230FCE5DF07C5
:103BC00008F41BC1C6319CE5D90738F09E012B5F74
:103BD0003C452930310508F010C10E947F2C90939C
:103BE000B8048093B704C031ECE5DE0709F4C3C024
:103BF00008F041C0C8308CE5D80709F49AC0F0F449
:103C0000C430ECE5DE0709F487C068F4C2308CE507
:103C1000D80709F477C0C330DC4509F0E3C08091D0
:103C2000B704826076C0C630ECE5DE0709F46EC0EA
:103C300008F07BC08091B70488606BC0CC308CE505
:103C4000D80709F485C068F4CA30ECE5DE0709F44A
:103C500074C008F079C00E946D258091B704806817
:103C600058C0CE308CE5D80709F476C008F07FC084
:103C70008091B7048BC0CC3FECE5DE0709F44FC060
:103C800018F5C3318CE5D80709F47DC078F4C1314B
:103C9000ECE5DE0709F473C0C231DC4509F0A2C0CF
:103CA0000E946D258091B7048F7733C0C5318CE5B4
:103CB000D80709F472C008F486C0CB3FDC4509F090
:103CC00091C08091B8043EC0C115FDE5DF0709F43D
:103CD0005FC058F4CE3F9CE5D90709F444C008F40E
:103CE0003FC08091B80482602DC0C230FDE5DF077F
:103CF00009F475C008F45DC0C330DD4509F072C039
:103D000080E06EC08091B704816003C08091B704E9
:103D100080618093B70466C08091B70411C0809120
:103D2000B80482608093B8045DC08091B70480625B
:103D3000F0CF8091B7048064ECCF8091B7048860A5
:103D40008460E7CF8160EECF8091B7048E7FE1CFB2
:103D50008091B7048D7FDDCF8091B704877FD9CF65
:103D60008091B80418C08091B8048D7FDBCF80911A
:103D7000B7048F7ECECF8091B7048F7DCACF80915C
:103D8000B7048F7BC6CF8091B704877F8B7FC1CF6D
:103D90008091B8048D7F8E7FC5CF8091B70482FB60
:103DA000222720F991E0922790FB82F990FB83F97A
:103DB000B0CF8091B804982F909591708E7F892B09
:103DC00090FB81F9AFCF0E946D258091B70487FBEE
:103DD000222720F991E0922790FB87F99ACF81E082
:103DE0000E94162D8091B7049091B8040E94902CE7
:103DF0000E946D2580E001C081E0DF91CF910895A0
:103E0000CF93DF9386319C4541F5EB010E94AB2BAC
:103E1000982F8A812091230130912401882379F001
:103E20009A7A81E009F480E080930504911102C040
:103E300069E201C065E3C9010E945D2D0AC080915D
:103E40000504811102C069E201C065E3C9010E9455
:103E50005F2D0E94FD2B80E001C081E0DF91CF91BA
:103E600008951092B9008CE08093B8000895EF9205
:103E7000FF920F931F93CF93DF93182FEB011092B4
:103E8000BC0084EA8093BC000E94F32D7C018091E9
:103E9000BC0087FD0EC0CF3F8FEFD807C1F30E9453
:103EA000F32D8E199F098C179D0788F38EEF9FEFD6
:103EB0002EC08091B900887F883041F08091B90090
:103EC000887F803119F08FEF9FEF21C01093BB00E6
:103ED00084E88093BC000E94F32D8C018091BC008B
:103EE00087FD0CC0CF3F8FEFD807C1F30E94F32DA1
:103EF000801B910B8C179D0788F3D8CF8091B90058
:103F0000887F883111F08034F1F680E090E0DF9115
:103F1000CF911F910F91FF90EF9008950F931F93F2
:103F2000CF93DF93EB018093BB0084E88093BC00C8
:103F30000E94F32D8C018091BC0087FD0EC0CF3F05
:103F40008FEFD807C1F30E94F32D801B910B8C17C4
:103F50009D0788F38EEF9FEF0CC02091B900287F5A
:103F600081E090E0283211F480E090E09195819515
:103F70009109DF91CF911F910F910895CF92DF9218
:103F8000EF92FF920F931F93CF93DF936B018A0100
:103F90007901B9010E94371FE6010C0D1D1DC017E4
:103FA000D10761F424E92093BC00DF91CF911F91E8
:103FB0000F91FF90EF90DF90CF90089597FDF2CF93
:103FC000B70189910E948E1FEACFCF92DF92EF92C4
:103FD000FF920F931F93CF93DF93C62F6A0179014E
:103FE000B8010E94371F97FD11C0B8018C2F0E94A5
:103FF0008E1FE601EC0CFD1CCE15DF0539F097FD98
:1040000005C0B80189910E948E1FF6CF24E9209344
:10401000BC00DF91CF911F910F91FF90EF90DF9047
:10402000CF90089584E98093BC00089590930B0489
:1040300080930A040895E0910A04F0910B043097EC
:1040400021F00190F081E02D099480E00895E09145
:104050000A04F0910B04309721F00280F381E02DE7
:1040600009940895E0910A04F0910B04309739F017
:1040700022E0DC012C930480F581E02D0994089561
:1040800020910804309109042817390771F09093A2
:10409000090480930804E0910A04F0910B0430971E
:1040A00021F00680F781E02D0994089520910604FF
:1040B000309107042817390771F090930704809313
:1040C0000604E0910A04F0910B04309721F000847B
:1040D000F185E02D099408950E94FF2D6093250439
:1040E00070932604809327049093280460932104FE
:1040F00070932204809323049093240408950E94D3
:10410000FF2D6093250470932604809327049093D9
:10411000280460931D0470931E0480931F049093E1
:104120002004089585B7806885BF85B7806885BFFE
:10413000089581E008950C94992008950C949D2091
:104140000C94A9090C949D200C94A2200C949D2001
:104150000E9492208AE69CE20E94512E0E94A62094
:104160000C94A4200E949E200C949D200E94EA2D75
:104170000E94710780E00E94681A0E94FF170E9447
:10418000CC190C94A0208F929F92AF92BF92CF92A5
:10419000DF92EF92FF920F931F93CF93DF93CDB7F0
:1041A000DEB72A970FB6F894DEBF0FBECDBF0E94D0
:1041B0000508982E81110E946C208DE0A82E84E0C5
:1041C000B82E00E010E0802E802F0E946A07D82EC3
:1041D000F501C1905F01C826B1F40F5F1F4F003198
:1041E000110589F78FEF89838A831B820E94F32D43
:1041F0008160782F9D838C8349815A816B818D8169
:104200000E9474212FC08091A90481FD0E94700733
:10421000E12CFF24F3948C2D8F21F1F00E949B2040
:10422000882399F0EE828F82DF2081E009F480E01C
:1042300088870E94F32D8160782F9A8789874E8125
:104240005F8168858A850E947421F801E35FFB4FD6
:104250008081F826F08206C0E394FF0CF5E0EF12AF
:10426000DACFBBCF0E946C180E94DC19182F811185
:104270000E947F200E94E21C911001C011110E9437
:10428000A41B0E942A120E941B2090910C048917E3
:10429000C1F00E941B2080930C042A960FB6F8945C
:1042A000DEBF0FBECDBFDF91CF911F910F91FF9069
:1042B000EF90DF90CF90BF90AF909F908F900C9435
:1042C000450E2A960FB6F894DEBF0FBECDBFDF9124
:1042D000CF911F910F91FF90EF90DF90CF90BF9003
:1042E000AF909F908F900895DF92EF92FF920F937F
:1042F0001F93CF93DF93CDB7DEB72B970FB6F8940C
:10430000DEBF0FBECDBFF42E052F162FE72ED82E01
:1043100061110E94CB2BFE01319686E0DF011D92D8
:104320008A95E9F77E2D4F2D502F612F8D2D9E817F
:104330000E9460282B960FB6F894DEBF0FBECDBF4B
:10434000DF91CF911F910F91FF90EF90DF90089533
:10435000FC01808191810E944B2B0895CF9388238B
:1043600009F4A4C0C82F8238C1F40E941B2081FD2B
:104370009DC069E380912301909124010E945D2DED
:104380000E94FD2B2FEF81EE94E021508040904061
:10439000E1F700C0000069E319C0833801F50E940D
:1043A0001B2080FD83C063E580912301909124014F
:1043B0000E945D2D0E94FD2B2FEF81EE94E0215095
:1043C00080409040E1F700C0000063E58091230148
:1043D000909124010E945F2DCF910C94FD2B843885
:1043E000C1F40E941B2082FD61C067E4809123011B
:1043F000909124010E945D2D0E94FD2B2FEF81EEF4
:1044000094E0215080409040E1F700C0000067E454
:10441000DDCF8CEF8C0F813AD0F46C2F809123018B
:10442000909124010E94272D882349F06C2F8091C0
:104430002301909124010E945F2D0E94FD2B6C2F7F
:1044400080912301909124010E945D2DC5CF80E2CF
:104450008C0F883048F4C77081E001C0880FCA957E
:10446000EAF70E94AE2BB8CFEBE5EC0FE33040F457
:10447000F0E0EB52FE4F808190E0CF910C94402011
:10448000E8E5EC0FE73150F4F0E0EE0FFF1FE955DF
:10449000FE4F80819181CF910C945620CD3E30F01B
:1044A0008C2F0E943A11CF910C940C12CF91089549
:1044B000882309F464C0823879F40E941B2081FFAC
:1044C0005EC069E380912301909124010E945D2DDB
:1044D0000E94FD2B69E310C08338B1F40E941B20B9
:1044E00080FF4DC063E580912301909124010E94DB
:1044F0005D2D0E94FD2B63E58091230190912401A5
:104500000E945F2D0C94FD2B843879F40E941B20AF
:1045100082FF35C067E480912301909124010E94BD
:104520005D2D0E94FD2B67E4E7CF9CEF980F913A39
:1045300010F4682FE1CF90E2980F983050F4877014
:1045400091E001C0990F8A95EAF7892F0E94B42B58
:10455000D9CF9BE5980F933020F480E090E00C9445
:10456000402098E5980F973120F480E090E00C947B
:1045700056208D3E20F00E9495110C940C12089547
:104580001F93CF93DF93182FEB010E94AE2120974A
:1045900041F08FE99FE00197F1F700C000002197FB
:1045A000F6CF812FDF91CF911F910C945822893340
:1045B00019F060E070E002C060E570E00C94C02289
:1045C000882321F00E94AE2B0C94FD2B08958823A4
:1045D00021F00E94B42B0C94FD2B0895CF92DF9212
:1045E000EF92FF920F931F93CF93DF937C01062FDF
:1045F000C72FFC01D281158112951F700E94832B59
:10460000882399F0DD2389F08C2F807F803421F07E
:1046100080E2800F883048F082E00E944D2C0E949A
:10462000832B91E0D82ED92601C0D12CCC2EC29458
:104630008FE0C8228C2D90E0FC01E959FF4F0C94CB
:1046400046358C2F807FCF70882311F0C295C07FB4
:10465000DD2399F0CC2309F48DC180E2800F8830EE
:1046600010F0011104C08C2F0E94AE2B03C08C2FC0
:104670000E94BE2B0E94FD2B7DC1802F0E945822DC
:10468000CC2309F49CC180E2800F883010F0011126
:1046900004C08C2F0E94B42B03C08C2F0E94C42B0B
:1046A0000E94FD2B8CC18C2F807FCF70803211F047
:1046B000C295C07F002319F00130C9F022C0DD236C
:1046C00071F0112341F0113031F40E94DE2B8C2B5C
:1046D0000E94E62B74C10E94DE2B8C2B1DC011237F
:1046E00019F0113009F46BC10E94F32B25C0DD23B2
:1046F00021F0163008F063C10EC0153008F05FC11C
:104700001BC0DD2361F0112331F0F701858180FFAB
:1047100031C18F7085838C2F0E94E02250C11123FC
:1047200059F0093309F037C1FFEF27EE83E0F1506C
:1047300020408040E1F72DC18C2F0E94E7223FC12D
:104740008C2F86958695837019F0813061F037C182
:10475000DD2321F0802F9C2F937002C080E090E039
:104760000E94402034C1DD2321F0802F9C2F9370C4
:1047700002C080E090E00E94562029C1802FDD23F6
:1047800019F00E943A1102C00E9495110E940C1269
:104790001EC18C2F837009F045C0D11114C1402F68
:1047A000429546954770440F440F602F6F70862FD7
:1047B00090E0A0E0B0E0042E04C0880F991FAA1F6B
:1047C000BB1F0A94D2F704FF10C00FE010E020E0F6
:1047D00030E004C0000F111F221F331F4A95D2F78B
:1047E000009510952095309503C000E010E09801E9
:1047F000C695C695C370BC01CD01602B712B822B71
:10480000932BC23049F058F4C13019F00E94B129FD
:10481000DAC00E949F29D7C00E94C329D4C00E9439
:104820009D29D1C0DD2319F08C2F817001C08695A0
:10483000882309F4C8C0402F429546954770440F1D
:10484000440F602F6F70862F90E0A0E0B0E0042E40
:1048500004C0880F991FAA1FBB1F0A94D2F704FF38
:1048600010C00FE010E020E030E004C0000F111F86
:10487000221F331F4A95D2F7009510952095309549
:1048800003C000E010E09801C695C695C370BC0156
:10489000CD01602B712B822B932BC23049F058F441
:1048A000C13019F00E948B2A8EC00E94792A8BC0D9
:1048B0000E949D2A88C00E94D72985C0CF70DD2321
:1048C00039F08C2F0E94122A802F0E94E0227BC098
:1048D000802F0E94E7228C2F0E94332A74C0023F4F
:1048E00001F128F4003F41F0013FA1F03FC0033F38
:1048F000F9F0043F39F13AC0DD2341F0153008F0FA
:104900005EC08C2F8F710E94582A59C0163008F053
:1049100056C0F7CFDD2339F08C2F8F710E94122AF9
:104920004EC0DD23C9F38C2F8F710E94332A47C0FC
:10493000DD2329F08C2F8F710E94FD2940C00E9439
:10494000E3293DC0DD2349F0CF718C2F0E94122A4C
:1049500063E08C2F0E94322C32C081E00E944D2CEB
:10496000123068F182E00E944D2C29C0DD2331F025
:10497000112391F2802F0E94AE2121C0112399F2C0
:10498000093349F49FEFE7EEF3E09150E040F04047
:10499000E1F700C00000802F0E94582210C04C2F69
:1049A0004F70602FC7010E944E0E0E940E290FC04B
:1049B0004C2F4F70602FC7010E94510E08C088EF26
:1049C0008C0D843020F40E941B200E94450EDD20B7
:1049D000C9F00E947F2B80FD15C0F70112820E9452
:1049E000792B0E94122AC7010E9423250E94792B4D
:1049F000DF91CF911F910F91FF90EF90DF90CF90BB
:104A00000C94332ADF91CF911F910F91FF90EF907B
:104A1000DF90CF9008950F931F93CF93DF93EC0116
:104A2000688179818A810E94562B8C010E94AF2A6D
:104A30000E948B29B801CE010E94EE22DF91CF9116
:104A40001F910F910895CF93DF93EC019881898195
:104A50002B813C81232B31F08F3F31F481E09F3F4C
:104A600019F403C081E001C080E080FD19C0CE01CF
:104A70000E94980D81110CC00E94832B882381F025
:104A80008A81882369F082E0DF91CF910C944D2CCC
:104A9000CE010E940B25CE01DF91CF910C94770DB2
:104AA000DF91CF91089580E090E00E94402080E067
:104AB00090E00E9456200E94CB2B0E94DB2B0E948C
:104AC000FD2B0E943D130C940C12809123019091B8
:104AD00024010E94612D0C9453250E94BB2B0C9441
:104AE0006525E92FE295EF704E2F50E0FA013297DD
:104AF000EE30F105B0F4E958FF4F0C944635803F95
:104B000091F018F4883E68F40EC0843F51F40BC055
:104B1000883E48F0813F29F406C093FB882780F93E
:104B2000089580E0089581E008950E944B2B0E9433
:104B300071250895CF93DF9300D000D01F92CDB799
:104B4000DEB70F900F900F900F900F90DF91CF91E5
:104B50000895CF93DF9300D000D000D0CDB7DEB75B
:104B600026960FB6F894DEBF0FBECDBFDF91CF9172
:104B700008951F93CF93DF93C0912A0416E080918C
:104B80002B04C81799F0D0E01C9FF0011D9FF00D79
:104B90001124E45DFB4F40815181628173818481E6
:104BA00095810E94A9252196C770E9CFDF91CF9109
:104BB0001F91089540915C0450915D0460915E04E2
:104BC00070915F0480916004909161040C94A92518
:104BD00020912A0490912B0456E02917A9F030E087
:104BE000529FF001539FF00D1124E45DFB4F718142
:104BF000761306C07081781303C07281741306C0E7
:104C00002F5F3F4F2770E9CF80E0089581E008953E
:104C10000F931F93CF93DF938091610482958F70E0
:104C200009F05DC080915E04882309F458C080912A
:104C30002A0410912B0460915C0470915D04C09172
:104C40005F04D091600491E06F3F09F090E0292F5C
:104C500006E0811709F443C0209721F07F3F21F03F
:104C600030E003C031E001C0322F90E030FD34C0AD
:104C7000089FF001099FF00D1124DF01A45DBB4FD7
:104C800011963C911197371327C03C91361324C0DD
:104C900012963C91129731111FC013964D915C9161
:104CA00014974C1B5D0B46395105B0F4809161049B
:104CB0008F70806180936104EF5CFB4F80818F7007
:104CC000806180838CE594E00E942325DF91CF9161
:104CD0001F910F910C94B92501968770BACFDF917F
:104CE000CF911F910F9108958F929F92AF92BF9293
:104CF000CF92DF92EF92FF920F931F93CF93DF93A8
:104D0000CDB7DEB761970FB6F894DEBF0FBECDBF4B
:104D10008C0185E0F801DE011D9601900D928A95C7
:104D2000E1F7D801DC901196EC9011971296CC9097
:104D300090915C0420915D0440915F045091600467
:104D40004115510531F02F3F31F481E09F3F19F4B7
:104D500003C081E001C080E080FD81C1F801838053
:104D600094808CE5A82E84E0B82EF0905E04B40107
:104D7000641B750BFF2009F418C180916104382F62
:104D8000307F6639710508F0D1C031118AC0E21256
:104D900014C0D91212C0FC2CC1100FC08F708061DA
:104DA000809361040E94DA25C5010E942325809129
:104DB0006104D80115968C936FC18114910439F068
:104DC000BFEFEB1206C081E0DB1203C003C081E03D
:104DD00001C080E080FD03C081E08C2502C080E03E
:104DE00090E080FF10C04C2D6E2D8D2D0E94E82587
:104DF000882349F08CE594E00E942325ECE5F4E05B
:104E000086E0DF01A4C0892839F0BFEFEB1206C0AD
:104E100081E0DB1203C003C081E001C080E080FDBF
:104E200003C081E08C2502C080E090E0E82FE170B3
:104E3000BE2E80FF2CC04C2D6E2D8D2D0E94E8259E
:104E4000F82E811124C0DD86EE868D859E850E9418
:104E50004B2B292F22952F70223018F0243090F4FC
:104E600005C09F7059F0811109C016C19F7031F0C3
:104E7000D80115969C91907F09F40EC1805E883010
:104E800008F40AC1C8010E942325FB2C05C1FC2C93
:104E9000CC2009F401C18091610481608093610498
:104EA0005BC0E21206C0D91204C0C11002C0F801F2
:104EB000A0C0DD86EE868D859E850E94952588237F
:104EC00079F1CC2069F120916104822F82958F7055
:104ED00090E0029774F080915C0490915D04988753
:104EE0008F8319869B868A862C87CE0107960E941F
:104EF000232586E0F801ACE5B4E001900D928A9597
:104F0000E1F70E9408260E94DA250DC0E21631F171
:104F1000DD86EE868D859E850E94952581112DC0AA
:104F2000C8010E942325FF24F394B6C03111EECFAF
:104F3000782D998A888A4D2D5E2D6C2D89890E9445
:104F40009A258CE594E00E94232586E0D5011D92E8
:104F50008A95E9F70E94DA25F12C9EC0D912D8CFA4
:104F6000C110D6CFF8018583C8010E94232586E0B1
:104F7000D5011D928A95E9F78FC0CC2089F2209146
:104F80006104822F82958F7090E002970CF4B1CF6C
:104F900080915C0490915D049A8389831B829D8239
:104FA0008C822E83CE010196A2CF6639710508F05E
:104FB00047C0FC2CCC2009F4B3CFE21230C0D91288
:104FC0002EC02091610420FD21C0822F82958F7018
:104FD000482F50E041155105C9F0F80125834F30A5
:104FE000510541F08F5F982F9295907F822F8F709F
:104FF000892B8583C8010E94232586E0F801ACE552
:10500000B4E001900D928A95E1F744C086E0F80182
:10501000ACE5B4E001900D928A95E1F73DC0DD86E4
:10502000EE868D859E850E949525811162CF8091A7
:105030006104816080936104C8010E9423252CC013
:10504000782D998A888A4D2D5E2D6C2D89890E9434
:105050009A2586E0D5011D928A95E9F71BC0CC20E0
:1050600009F45ECFDD86EE868D859E850E949525AE
:10507000F82E882309F454CF86E0F801ACE5B4E0BB
:1050800001900D928A95E1F78CE594E00E94A821A9
:105090000E9408260E94DA258F2D61960FB6F8949B
:1050A000DEBF0FBECDBFDF91CF911F910F91FF905B
:1050B000EF90DF90CF90BF90AF909F908F9008952A
:1050C0001F93CF93DF93CDB7DEB72C970FB6F8942D
:1050D000DEBF0FBECDBF4F83588769877A878B8726
:1050E0009C87CE0107960E9474268823D1F09F8169
:1050F00088852A853B85232B31F08F3F31F481E071
:105100009F3F19F403C081E001C080E080FD47C0EB
:105110004F81588569857A858B859C850E94A92554
:105120003EC086E0FE013796DE01119601900D9299
:105130008A95E1F7FF81E8856A857B8561157105B0
:1051400031F0EF3F31F481E0FF3F19F403C081E01B
:1051500001C080E080FD23C020912B0430E0C90114
:1051600001968770992740912A0450E0841795078B
:10517000F1F1F983EA837D836C8396E0929FD001FD
:10518000939FB00D1124A45DBB4FFE013196019099
:105190000D929A95E1F780932B040E94B92516E0B1
:1051A00080912A0490912B04891771F1189FC001F6
:1051B0001124845D9B4F0E947426882329F1E0917D
:1051C0002A041E9FF0011124E45DFB4F40815181B0
:1051D00062817381848195810E94A92580912A042E
:1051E00090E001968770992780932A04D9CF0E9476
:1051F0006D2510922B0410922A04ECE5F4E086E071
:10520000DF011D928A95E9F72C960FB6F894DEBF60
:105210000FBECDBFDF91CF911F910895EF92FF9206
:105220000F931F93CF93DF938C01892B09F46CC0EC
:10523000F12CEE24E394E8012196F801849184375F
:1052400040F4843008F051C0813081F0823019F18F
:105250005BC0853709F444C0A8F19CE7980F9037EC
:1052600008F052C08F770E94582241C00E5F1F4F36
:10527000FE01849190E2980F983050F48770FE2DD3
:1052800001C0FF0F8A95EAF78F2F0E94CE2B14C022
:105290000E94AE212DC00E5F1F4FFE01849190E24F
:1052A000980F983060F48770FE2D01C0FF0F8A952B
:1052B000EAF78F2F0E94D42B0E94FD2B19C00E9469
:1052C000582216C00E5F1F4FFE01C491CC2381F0FF
:1052D0008FE99FE00197F1F700C00000C150F6CFC1
:1052E0000E5F1F4FFE01F49003C00E94AE218E019D
:1052F0008F2D882309F49FCFEFE9FFE03197F1F775
:1053000000C000008150F5CFDF91CF911F910F9128
:10531000FF90EF900895089508950C948C290C94B3
:105320008D290E948F29609398047093990480932B
:105330009A0490939B040C9453250C9491290F93F9
:105340001F93009198041091990420919A04309130
:105350009B04602B712B822B932B1F910F910C942C
:1053600091290F931F930091980410919904209113
:105370009A0430919B0460237123822393231F910D
:105380000F910C9491290F931F9300919804109101
:10539000990420919A0430919B04602771278227F9
:1053A00093271F910F910C9491290C94C2090E948C
:1053B000D5296093940470939504809396049093F8
:1053C00097040C94532560E070E0CB010C94D7292E
:1053D000611571058105910529F481E0442361F08F
:1053E00080E00895DC01CB0104C0B695A7959795A0
:1053F00087954A95D2F7817008950F931F9341E0E6
:1054000050E060E070E08A019B0104C0000F111FB2
:10541000221F331F8A95D2F7C901B8011F910F913E
:105420000C94D7290F931F9341E050E060E070E0A7
:1054300004C0440F551F661F771F8A95D2F78091CD
:10544000940490919504A0919604B09197048A01D8
:105450009B01082B192B2A2B3B2BC901B8011F914B
:105460000F910C94D7290F931F9341E050E060E017
:1054700070E004C0440F551F661F771F8A95D2F74E
:105480004095509560957095809194049091950405
:10549000A0919604B09197048A019B0108231923D7
:1054A0002A233B23C901B8011F910F910C94D729DE
:1054B0000F931F9341E050E060E070E004C0440FA0
:1054C000551F661F771F8A95D2F78091940490919B
:1054D0009504A0919604B09197048A019B01082736
:1054E00019272A273B27C901B8011F910F910C9456
:1054F000D7290F931F930091940410919504209144
:10550000960430919704602B712B822B932B1F9163
:105510000F910C94D7290F931F930091940410912D
:10552000950420919604309197046023712382237F
:1055300093231F910F910C94D7290F931F930091E0
:10554000940410919504209196043091970460275B
:105550007127822793271F910F910C94D7290895C3
:1055600024E0929F900D1124890FE82FE695E6958F
:10557000E695877051E001C0550F8A95EAF785E0FE
:10558000E89FF0011124EE59FB4F20E030E070E07D
:105590004081CB01022E02C0969587950A94E2F7CE
:1055A0008170819584278523842781932F5F3F4FC6
:1055B0002530310569F7089524E0929F900D11245C
:1055C000890F682F669566956695982F977085E088
:1055D000689FB001112440E050E080E0FB01E40F3F
:1055E000F51FEE59FB4F208130E0092E02C03695A1
:1055F00027950A94E2F721703327042E01C0220F69
:105600000A94EAF7822B4F5F5F4F4530510531F71F
:105610000895BF92CF92DF92EF92FF920F931F9364
:10562000CF93DF938C01C0909404D0909504E090C8
:105630009604F09097048091980490919904A09119
:105640009A04B0919B04C82AD92AEA2AFB2ACFE1FE
:10565000D0E0D701C6010C2E04C0B695A79597954A
:1056600087950A94D2F780FD04C0219790F7B12C5A
:1056700007C0BC2EB8018C2F0E946D0E0197A9F3B4
:105680008B2DDF91CF911F910F91FF90EF90DF90C5
:10569000CF90BF900895CF93DF93EC010E94092B28
:1056A000BE010E946D0EDF91CF9108951F93CF939D
:1056B000DF93EB0190912904992321F0CB010E9403
:1056C0004B2B13C0882349F0CB010E94092B182FC4
:1056D000682FCE010E94B02A04C0CB010E94DC2AB0
:1056E000182FBE01812F0E946D0EDF91CF911F9167
:1056F000089580919C048595859585950895809160
:105700009C048770089590919C04977081E009F43F
:1057100080E008959091B80492FB222720F9281781
:1057200051F080FB92F99093B8048091B704909166
:10573000B8040C94902C08958091B80482FB8827BB
:1057400080F991E089270C948A2B81E00C948A2BB4
:1057500080E00C948A2B8091A80408959091A8046D
:10576000892B8093A804089580959091A80489239B
:105770008093A80408951092A80408959091A70416
:10578000892B8093A704089580959091A70489237D
:105790008093A70408951092A70408959091A604F9
:1057A000892B8093A604089580959091A60489235F
:1057B0008093A60408951092A604089580919D04F4
:1057C000089508950C94E12B0C94E22B9091B80469
:1057D00092FD08C090919D04981721F080939D043C
:1057E0000C94E42B089580919D04882329F0109255
:1057F0009D0480E00C94E42B0895E0912301F09146
:1058000024018091A8048083E0912301F091240178
:1058100090818091A704892B8083E0912301F091EE
:10582000240190818091A604892B808380919D041E
:10583000882381F0E0912301F09124019081892B4C
:10584000808380912301909124010E941B2D81115E
:105850000E94F32B80912301909124010C94272026
:105860000C94E12B9091B80492FD10C098E0899FB0
:1058700090011124262B20939C040E94122A8091CF
:105880009C048595859585950C94302C0C94122A52
:1058900010929C0480E00C94302C20919C04809504
:1058A000822380939C04982F977041F430E0482F16
:1058B000082E000C550B2417350721F49091B804DD
:1058C00092FF07C08595859585950E94332A0C9493
:1058D000482C089580E0089580E090E00E94D9353A
:1058E00021E08A3E9E4F09F020E0822F089582E059
:1058F00090E00C94CB3583E090E00C94CB35CF93C3
:1059000084E090E00E94CB35C82F82E290E00E94B4
:10591000CB352C2F30E0A901582BCA01CF91089527
:10592000CF93C92F682F84E090E00E94DF356C2F61
:1059300082E290E0CF910C94DF35AB01BC018FE0A7
:1059400090E00C94F135AB01BC0183E190E00C9444
:10595000F13560E070E0CB010C94A32C60E070E0C6
:10596000CB010E949D2C0C94A92C6AEE7EEF80E066
:1059700090E00E94FD3560E082E090E00E94DF351B
:1059800060E083E090E00E94DF351092980410926E
:10599000990410929A0410929B0460E084E090E0D5
:1059A0000E94DF3560E082E290E00E94DF3560E037
:1059B00085E090E00E94DF3560E086E090E00E94A4
:1059C000DF356FEF87E090E00E94DF3540E050E088
:1059D000BA0188E090E00E94F13560E08DE090E04F
:1059E0000E94DF3540E050E0BA0188E190E00E947B
:1059F000F13560E087E190E00E94DF3540E050E063
:105A0000BA018CE190E00E94F13560E070E080E244
:105A100090E00E94FD3540E050E0BA0188E190E05E
:105A20000E94F1350C94AE2C0C94B52C682F8EE0AE
:105A300090E00C94DF35FC01329697E080E09150C5
:105A400029F021912223D9F38F5FF9CF089566239E
:105A500049F0FC01329608962191621729F0E81767
:105A6000F907D1F780E0089581E008959C01FC01D9
:105A700032969FEF80E04191461789F09F3F19F4DD
:105A8000411101C0982F8F5F8630A9F79F3F39F0F1
:105A9000F901E90FF11D97FDFA95628308950895C4
:105AA0009C012A5F3F4FFC014281461301C01282D4
:105AB000019682179307B9F708950C94362D0C942C
:105AC000502D029626E0FC0111922A95E9F70895DF
:105AD00008950C94682D0C94682DCF930E946B2D23
