:100000000C9480030C94C7030C94C7030C94C7038F
:100010000C94C7030C94C7030C94C7030C94C70338
:100020000C94C7030C94C7030C941A2D0C94EC2D5C
:100030000C945B280C94C7030C94C7030C94C7035F
:100040000C94C7030C94C7030C94C7030C94C70308
:100050000C94C7030C94B4280C94C7030C94C703E6
:100060000C94C7030C94C7030C94C7030C94C703E8
:100070000C94C7030C94C7030C94C7030C94C703D8
:100080000C94C7030C94C7030C94C7030C94C703C8
:100090000C94C7030C94C7030C94C7030C94C703B8
:1000A0000C94C7030C94C7030C94C703660676062A
:1000B0007F06BE06ED061F0751078307B507E70752
:1000C0001C084E088008B208E10816094E09BB1D3D
:1000D000BB1DED1DED1D3A1E581E791F791F631EB5
:1000E000F81E091F091F691F791F791F721F192028
:1000F00019202B202B2022202B202B202B201920D5
:10010000192027202B202B202720592E802E782FB6
:10011000802E782FCC2EEF2E782F462F552F076369
:100120004236B79BD8A71A39685618AEBAAB558C69
:100130001D3CB7CC5763BD6DEDFD753EF6177231B2
:10014000BF000000803F05A84CCDB2D44EB9383670
:10015000A9020C50B9918688083CA6AAAA2ABE001A
:100160000000803F8C01820178016E0100000300D5
:100170008466FFFF00000000030D1CFFFFFF00006E
:100180000000030D55FFFFFF00000000030200FF09
:10019000FFFF0000000029002B0000008B62E4003C
:1001A0001F00360012001400E300210013001800A5
:1001B0000E008B4349004C002D002F0029004B00FE
:1001C0004E002E003000035324000A000B001000E4
:1001D0008A422600150011001900E7002A003100AC
:1001E00038002872E4001E00340004003300350497
:1001F0002000370008000D00E20022001C000C0067
:100200001B002C614A004D003502000028722300BB
:100210000900070005002C722500060017001A00CF
:10022000E60027000F0016001D00654400000000D6
:1002300000000000000001000100010001000100B9
:10024000615D0100010001000100010001000100E9
:1002500001008B4301000100675D695D0100010041
:100260000100685D6A5D0100635D0100010001003D
:100270008A42655D010001000100010001006B5D23
:1002800001000100010001006D5D01006C5D0100D5
:100290000100010001000100010001000100010056
:1002A00001000100010001006E5D01000100625DBE
:1002B0000100010001000100645D01000100010076
:1002C0000100665D01000100010001000000000066
:1002D00000000000000035022B000000E1000100DA
:1002E00045003B004E001B01010000003D004D0099
:1002F00019010100010001000100010001000100DD
:100300000100010001000100000040005000580001
:100310000100000042005200000001000100010045
:1003200001000100010044003A004A001D013900AB
:1003300000003C004B000601010000003E002900C7
:1003400000000100010001000100010001000000A7
:100350003F002A00000001000000410051000000A1
:100360000100000043004F0000003D1400000000A9
:1003700000000000000035002B00000028000100F4
:100380001F02000051001B010100210200004F006C
:10039000190101000100010001000100010001003C
:1003A000010001000100010024025F005C0059000F
:1003B0006200260261005E005B0063000100010034
:1003C0005400580001001E02000050001D013900B9
:1003D0002002000052000601010022020000290054
:1003E00000000100010001000100010001002302E2
:1003F0002E002A0000000100250260005D005A0066
:10040000605D27025600570055003D1400000000B3
:100410000000000000005F5D00000000000001001F
:100420000000C65CC75C000001000000CA5CCB5C39
:1004300000000100460000000000005200004800DB
:10044000000000000152000000000000A8000000B1
:10045000010000000000A9000000010000000000F1
:10046000000000000100000000000000000001008A
:100470000000C85CC95C000001000000C45CC55CF1
:10048000C35C000047000000000000000000000006
:10049000530000000000000000000000AA0000005F
:1004A000010000000000000000000100000000004A
:1004B0000000000000001E0F057F3F1F643214780B
:1004C0003C1E1E140A05FFAA7F55400001010101D0
:1004D00001010101010202020202020202020303FF
:1004E00003030303030304040404040404050505CF
:1004F0000505060606060607070707070808080891
:10050000090909090A0A0A0B0B0B0C0C0C0D0D0D3D
:100510000E0E0E0F0F0F10101111111212131314D3
:1005200014151516161717181819191A1A1B1B1C4B
:100530001D1D1E1E1F2020212222232424252626A5
:10054000272829292A2B2C2D2D2E2F3031323233DA
:100550003435363738393A3B3C3D3E3F40414243E3
:100560004445464748494A4C4D4E4F5051535455C7
:100570005658595A5B5D5E5F616264656668696B77
:100580006C6D6F7072737577787A7B7D7E808283F5
:100590008587888A8C8E8F91939596989A9C9EA039
:1005A000A2A3A5A7A9ABADAFB1B3B5B7BABCBEC046
:1005B000C2C4C6C9CBCDCFD1D4D6D8DBDDDFE2E40F
:1005C000E7E9EBEEF0F3F5F8FAFDFF140341005311
:1005D0000054005200410020003500310035000079
:1005E0000010034C0065006B00690070006F006E26
:1005F0000000000403090409023B00020100A0FA04
:100600000904000001030101000921110100012278
:1006100040000705810308000A09040100010300E6
:100620000000092111010001227B0007058203203F
:10063000000A1201100100000008EDFE15A50100DE
:100640000102000105010902A10185020901A100C1
:100650000509190129081500250195087501810270
:100660000501093009311581257F9502750881063C
:1006700009381581257F950175088106050C0A3812
:10068000021581257F950175088106C0C005010905
:1006900080A101850319012AB700150126B700952D
:1006A0000175108100C0050C0901A1018504190123
:1006B0002AA002150126A002950175108100C0052F
:1006C000010906A101050719E029E7150025019593
:1006D0000875018102950175088101050719002936
:1006E000FF150026FF009506750881000508190111
:1006F0002905950575019102950175039101C000C9
:1007000011241FBECFEFDAE0DEBFCDBF04B603FE7B
:1007100027C08091700390917103A0917203B091F2
:1007200073038730904BA740B04BD1F41092700305
:1007300010927103109272031092730314BE84B767
:10074000877F84BF0FB6F894A89580916000886178
:1007500080936000109260000FBEE0E0F8E309951E
:1007600011E0A0E0B1E0EAEBF8E602C005900D92DE
:10077000AA3DB107D9F723E0AAEDB1E001C01D926F
:10078000A037B207E1F70E94542A0C945B340C9412
:1007900000000C9462090C946309E82FF0E0E45225
:1007A000FE4F808108950895CF92DF92EF92FF92DD
:1007B0000F931F93CF93DF93A1E3B1E021E431E0E6
:1007C000ED0161E070E08991E82FE295EF70F0E0D3
:1007D00041A18F706B0102C0CC0CDD1C8A95E2F741
:1007E000C6019C2D9095942391A392A1892B82A35D
:1007F0002C173D0741F7CCE2D1E041E351E0BE01C7
:1008000001E010E0FB018191BF01E82FE295EF705C
:10081000F0E0F1A08F70680102C0CC0CDD1C8A955D
:10082000E2F7C6019C2D90959F2191A392A1892B5F
:1008300082A34617570731F701E010E08991E82FAE
:10084000E295EF70F0E061A18F70780102C0EE0CCC
:10085000FF1C8A95E2F7C7019E2D9095962391A3E0
:1008600092A1892B82A34C175D0741F761E070E0EC
:100870008D91E82FE295EF70F0E041A18F708B0130
:1008800002C0000F111F8A95E2F7C801902F9095C2
:10089000942391A392A1892B82A32A173B0741F7A6
:1008A000ECEEF1E0ACEDB1E08CEF91E011921D9235
:1008B0008E179F07D9F780E10E94B10CDF91CF918D
:1008C0001F910F91FF90EF90DF90CF900C94B209A1
:1008D0003F924F925F926F927F928F929F92AF92D0
:1008E000BF92CF92DF92EF92FF920F931F93CF931D
:1008F000DF93ACEEB1E034EF832E31E0932E01E3D1
:1009000011E0412CEE24E394F12C5D017C901C92CB
:10091000E80189918E01E82FE295EF70F0E021A1C6
:100920008F70A70102C0440F551F8A95E2F7CA01D4
:10093000242B21A322A1342E3094232122A350EA78
:100940005A95F1F76CE271E06B0140E050E0E6018E
:1009500059906E01252D22952F7030E0E90128A1D4
:100960006C9030E0D52DDF7002C035952795DA9573
:10097000E2F720FD08C03E2D042E01C0330F0A947B
:10098000EAF7232F01C020E026292C934F5F5F4F09
:1009900045305105E1F691A1D32DD923D1A392A1E0
:1009A000892B82A3119681E0F5019081971101C0F6
:1009B00080E0482A8A169B0609F0A7CF40E050E065
:1009C00001E010E02CEFA22E21E0B22EDB018D9190
:1009D000BD01E82FE295EF70F0E021A18F70E801F2
:1009E00002C0CC0FDD1F8A95E2F7CE012C2B21A38C
:1009F00022A13C2E3094232122A3D0EADA95F1F7EC
:100A00009801042E01C0220F0A94EAF7622E922E5A
:100A10009094A4EFB1E091E3E92E91E0F92E812CBE
:100A20006D017C90E70159907E01252D22952F7054
:100A300030E0E90128A130E0D52DDF7002C0359506
:100A40002795DA95E2F720FD03C0272D262902C05D
:100A5000272D29212C931196E6012881721611F079
:100A600088248394AA16BB06D9F691A1D32DD92345
:100A7000D1A392A1892B82A348284F5F5F4F4530B5
:100A8000510509F0A3CF242D40E16CED71E08CEE0F
:100A900091E00E94B20C0E94B609842DDF91CF91A3
:100AA0001F910F91FF90EF90DF90CF90BF90AF908C
:100AB0009F908F907F906F905F904F903F900895A0
:100AC000CF93C62F81112AC0609105037091060350
:100AD00080910703909108030E94210A833051F00E
:100AE000843071F08230A1F4CC2311F08DE441C048
:100AF0008AE43FC0CC2311F08CEF3BC08BEF39C0B0
:100B0000CC2319F00E94681236C00E94781233C0BC
:100B1000CC2311F08FE42DC080E52BC0813059F536
:100B2000609105037091060380910703909108037B
:100B30000E94210A833051F0843071F08230A1F498
:100B4000CC2311F08BE415C08EE413C0CC2311F03C
:100B500089EF0FC08AEF0DC0CC2319F00E94BA12A2
:100B60000AC00E94A81207C0CC2311F082E501C080
:100B700081E50E94711D81E0CF910895CF93C82F28
:100B80002FE233E081FF02C040E801C040E16FEF97
:100B900080E00E94581022E333E0C0FF02C040E62C
:100BA00001C040E16FEF80E20E945810CF910C9499
:100BB000D81084E691E09093600280935F026DE02C
:100BC00083E00E94361083E00E94BE052FEF83EC85
:100BD00099E0215080409040E1F700C0000080E0A3
:100BE0000C94BE05CF92DF92EF92FF926B017C01D5
:100BF00043E00E948224682F81E00E94CA1542E0EF
:100C0000C701B6010E948224682F82E00E94CA15A3
:100C100044E0C701B6010E948224682F83E00E944D
:100C2000CA156091090370910A0380910B0390919A
:100C30000C030E94210A882341F0813031F425E31E
:100C400033E040E46FEF89EA05C025E333E040E19B
:100C50006FEF85E50E945810C701B6010E94210A76
:100C6000833051F0843071F0823099F425E333E021
:100C700040E66FEF80E10BC025E333E040E66FEF25
:100C800085E505C025E333E040E660E884E90E949D
:100C90005810C701B601FF90EF90DF90CF900895F4
:100CA00081FB662760F980E00E94CA1581E0089503
:100CB000CF938F559D458131910508F0FFC2FB010F
:100CC0008A5A9F4FC281FC010C944B33CC2361F0B4
:100CD0000E9483100E947D1580912A03869590E0E2
:100CE0009093270380932603C0E0E9C2C111FCCF93
:100CF00082E60E94711D82E60E94711DE0C2CC2333
:100D000099F3E0911F01F0912001808191E0382F4B
:100D1000327081FF90E09093FD0191E0282F2072C6
:100D200085FF90E09093FC01311103C0211104C0B4
:100D300020C081EE0E94F21C8091FC01882319F0F2
:100D400085EE0E94F21C8FE20E94481C8FE20E94F6
:100D5000F21C8091FD01882319F081EE0E94481C4D
:100D60008091FC01882309F4BFCF85EE0E94481CC6
:100D7000BBCF8FE10E94481C8FE19DC2CC2309F4B8
:100D8000B3CFE0911F01F0912001808191E0382FD5
:100D9000327081FF90E09093FD0191E0282F207246
:100DA00085FF90E09093FC01311103C0211104C034
:100DB0000FC081EE0E94F21C8091FC01882319F083
:100DC00085EE0E94F21C8EE20E94481C8EE2BFCF8C
:100DD00083E20E94481C83E26EC2CC2309F484CFD4
:100DE000E0911F01F0912001808191E0382F327055
:100DF00081FF90E09093FD0191E0282F207285FF04
:100E000090E09093FC01311103C0211104C012C085
:100E100081EE0E94F21C8091FC01882319F085EE7E
:100E20000E94F21C81EE0E94481C83E20E94481C32
:100E300083E228C284E20E94481C84E23CC2CC23A4
:100E400009F452CFE0911F01F0912001808191E0DF
:100E5000382F327081FF90E09093FD0191E0282FB0
:100E6000207285FF90E09093FC01311103C02111A5
:100E700004C012C081EE0E94F21C8091FC01882304
:100E800019F085EE0E94F21C81EE0E94481C84E35A
:100E90000E94481C84E3F6C185E20E94481C85E25A
:100EA0000AC2CC2309F420CFE0911F01F091200168
:100EB000808191E0382F327081FF90E09093FD01A6
:100EC00091E0282F207285FF90E09093FC01311172
:100ED00003C0211104C012C081EE0E94F21C809157
:100EE000FC01882319F085EE0E94F21C81EE0E941D
:100EF000481C85E20E94481C85E2C4C186E20E942B
:100F0000481C86E2D8C1CC2309F4EECEE0911F0143
:100F1000F0912001808191E0382F327081FF90E0C4
:100F20009093FD0191E0282F207285FF90E090932F
:100F3000FC01311103C0211104C012C081EE0E94D6
:100F4000F21C8091FC01882319F085EE0E94F21CAE
:100F500081EE0E94481C86E20E94481C86E292C1F3
:100F600087E20E94481C87E2A6C1CC2309F4BCCECC
:100F7000E0911F01F0912001808191E0382F3270C3
:100F800081FF90E09093FD0191E0282F207285FF72
:100F900090E09093FC01311103C0211104C012C0F4
:100FA00081EE0E94F21C8091FC01882319F085EEED
:100FB0000E94F21C81EE0E94481C87E80E94481C97
:100FC00087E860C18DE20E94481C8DE274C1CC2389
:100FD00009F48ACEE0911F01F0912001808191E017
:100FE000382F327081FF90E09093FD0191E0282F1F
:100FF000207285FF90E09093FC01311103C0211114
:1010000004C012C081EE0E94F21C8091FC01882372
:1010100019F085EE0E94F21C81EE0E94481C83E3C9
:101020000E94481C83E32EC181EE0E94481C8DE281
:101030000E94481C8DE23CC1CC2309F455CEE091BE
:101040001F01F0912001808191E0382F327081FFE3
:1010500090E09093FD0191E0282F207285FF90E0B1
:101060009093FC01311103C0211104C012C081EE24
:101070000E94F21C8091FC01882319F085EE0E94E9
:10108000F21C81EE0E94481C80E30E94481C80E311
:10109000F9C080E30E94481C80E30DC1CC2309F411
:1010A00023CEE0911F01F0912001808191E0382F43
:1010B000327081FF90E09093FD0191E0282F207223
:1010C00085FF90E09093FC01311103C0211104C011
:1010D00012C081EE0E94F21C8091FC01882319F05D
:1010E00085EE0E94F21C81EE0E94481C82E30E9461
:1010F000481C82E3C7C082E30E94481C82E3DBC035
:10110000CC2309F4F1CDE0911F01F0912001808101
:1011100091E0382F327081FF90E09093FD0191E0D3
:10112000282F207285FF90E09093FC01311103C0BD
:10113000211104C012C081EE0E94F21C8091FC01BA
:10114000882319F085EE0E94F21C81EE0E94481C53
:1011500089E80E94481C89E895C087E80E94481CDD
:1011600087E8A9C0CC2309F4BFCDE0911F01F0911D
:101170002001808191E0382F327081FF90E09093C0
:10118000FD0191E0282F207285FF90E09093FC01F3
:10119000311103C0211104C00FC081EE0E94F21C66
:1011A0008091FC01882319F085EE0E94F21C84E3F3
:1011B0000E94481C84E3CBCD83E30E94481C83E358
:1011C0007AC0CC2309F490CDE0911F01F091200169
:1011D000808191E0382F327081FF90E09093FD0183
:1011E00091E0282F207285FF90E09093FC0131114F
:1011F00003C0211104C012C081EE0E94F21C809134
:10120000FC01882319F085EE0E94F21C81EE0E94F9
:10121000481C8FE10E94481C8FE134C081EE0E947F
:10122000481C84E20E94481C84E242C0CC2309F49A
:101230005BCDE0911F01F0912001808191E0382F7A
:10124000327081FF90E09093FD0191E0282F207291
:1012500085FF90E09093FC01311103C0211104C07F
:1012600015C081EE0E94F21C8091FC01882319F0C8
:1012700085EE0E94F21C81EE0E94481C8FE20E94C3
:10128000481C8FE20E94F21C81EE61CD81EE0E942B
:10129000481C8EE20E94481C8EE20AC0CC2309F44E
:1012A00023CD81EE0E94481C89E30E94481C89E3FB
:1012B0000E94F21C81EE0E94F21C16CDC1E08C2F20
:1012C000CF9108950895089581E008950C945806EB
:1012D00008950C9468091F93CF93DF9300D000D03A
:1012E0001F92CDB7DEB749835A836B8330919A0240
:1012F00089819A81311114C0662359F0222349F063
:101300000E94A325182F682F89819A810E944A255F
:1013100003C00E947625182F69817A81812F04C02D
:101320000E94A32569817A810F900F900F900F90F2
:101330000F90DF91CF911F910C94820AFC01262F10
:10134000408151816281738184810C946B09CF93B8
:10135000DF93EC0160E00E949E09BE01DF91CF9116
:101360000C9469090E948D0C0C94C9030C94CB0356
:1013700008950E9407200E94B8092FEF84E39CE0A3
:10138000215080409040E1F700C000000C94DA2822
:101390000F931F93CF93DF938C0161E00E949E090E
:1013A000EC01B8010E946609882309F444C0B80121
:1013B000CE010E9411198823F1F1B801CE010E94DB
:1013C00063198823C1F1B801CE010E948E1A8823C7
:1013D00091F1B801CE010E949E16882361F1F801B7
:1013E0008281882309F1CB358DE5D807C1F050F40F
:1013F000C115FCE5DF0781F0CF3DDC45A9F40E9473
:10140000AE2719C0CC35EDE5DE0761F0CD35DD4501
:1014100059F40E94362608C00E94B9090CC00E94E7
:101420003F2602C00E944226C801DF91CF911F9142
:101430000F910C94640980E0DF91CF911F910F917F
:101440000895CF92DF92EF92FF926C01EE24FF2479
:10145000C114D104E104F10421F0C701B60120E177
:1014600001C020E0C72ED82EE92EFF24C114D104DC
:10147000E104F10419F0285FC701B6016B017C019A
:1014800054E0F694E794D794C7945A95D1F7C114D1
:10149000D104E104F10419F02C5FC701B6016B011E
:1014A0007C0142E0F694E794D794C7944A95D1F72B
:1014B000C114D104E104F10419F02E5FC701B60193
:1014C000DC01CB01B695A79597958795892B8A2B3B
:1014D0008B2B09F02F5F822FFF90EF90DF90CF9042
:1014E00008950C94BE050C945006CF93C82F0E940B
:1014F000710A8C2F0E94730ACF91089580E090E0CA
:101500000895089520E5829FC0011124FC0125E083
:10151000729FE00DF11D1124E60FF11DEE0FFF1F6C
:10152000EA56FE4F859194910895880F991FFC010A
:10153000EA54FB4F859194910895CF93DF930E94D5
:10154000820A0E94B50BEC018115904508F041C05C
:10155000C11580E4D80708F0D1C0C83ED10510F508
:10156000C03ED10508F0FDC0C83AD10578F4C53AAF
:10157000D10508F0A2C0C130D10509F4F2C008F4C9
:10158000EEC0C430D10508F0ECC0E9C0CF3BD105B6
:1015900008F49BC0C03CD10508F4E1C0CE01805CDA
:1015A00091099EC0C11590E2D90758F4C11521E0F8
:1015B000D20708F0D6C0CD3ED10508F4D0C0D06522
:1015C000D0C0C11580E3D80708F08EC0CE019F704F
:1015D00087C0C11595E5D90708F043C0C11524E5BA
:1015E000D20708F0A2C0C11582E5D80708F5C115D9
:1015F00091E5D90708F085C0CE0174E096958795EE
:101600007A95E1F783709C2F937021E030E002C05F
:10161000220F331F9A95E2F73C68382BCF70C6959E
:10162000C69580E2C89FE0011124C22BD32B99C03C
:101630009E01237033278C2F86958695C115D3453F
:1016400008F064C0C1E0D0E002C0CC0FDD1F2A95D5
:10165000E2F720E2829FC0011124C82BD92BDC685D
:1016600080C0C11529E5D207A0F4C11588E5D807C7
:1016700008F060C0C11596E5D90708F070C08C2F3E
:101680000E94490C8F71C82FD0E0DC2FCC27D0628C
:1016900068C0C1152AE5D20708F451C0CE019056A2
:1016A0008115904208F05BC08D2F8F710E94490C0C
:1016B000DD27D0628F71D82B54C0C55AD0E0C159F4
:1016C000DE4FC881D0E0D0644CC0C85AD0E0CC0F07
:1016D000DD1FCF5BDE4F0990D881C02DD46441C09F
:1016E0000E94950AEC013DC0CE019927D3FF03C0AB
:1016F000EC01D86C36C0EC01D06C33C0DF70D06A1E
:1017000030C0DC2FCC27C16FD06A2BC0C1E0D0E045
:1017100002C0CC0FDD1F2A95E2F720E2829FC001B4
:101720001124C82BD92BDA681CC0DC2FCC27C46F3E
:10173000D06A17C0DC2FCC27C06FD06A12C08C2FA4
:101740008F700E94490C94E0D695C7959A95E1F761
:10175000CF70D0E0DC2FCC27D069C82B02C0C0E00E
:10176000D0E0CE01DF91CF9108958238910569F1E3
:10177000B0F48133910509F46DC048F489329105C4
:1017800009F463C08A32910509F469C0089585336C
:10179000910509F455C089339105B9F00895833E48
:1017A000910569F138F4803E9105B1F0823E9105D2
:1017B00009F10895863E9105A9F1873E9105B9F199
:1017C000843E910509F064C023C02091280320FDC8
:1017D0004FC021FD4DC008958091280380FD44C075
:1017E0008091290380FF44C08091280384FD42C07A
:1017F00083EE4DC08091280382FF38C0F5CF8091E1
:10180000280382FD33C08091290380FD31C0ECCFD5
:101810008091290381FF32C08091280384FD2AC072
:1018200087EE35C08091280383FF26C0F5CF8091D5
:10183000280383FD21C08091290381FD1FC0ECCFC7
:101840008091280385FD1CC01DC08091280385FD63
:1018500019C016C08091280386FD16C017C080915C
:10186000280386FD13C010C089E311C082EE0FC0AB
:1018700080EE0DC080E00BC086EE09C084EE07C08C
:1018800089E205C085E303C08AE201C081E390E0FC
:1018900008959091280392FF0DC0282F28712830B9
:1018A00019F4877F846006C0282F2471243011F436
:1018B0008B7F886093FF0DC0282F2871283119F481
:1018C000877E846106C0282F2471243111F48B7E19
:1018D00088612091290320FF0DC0382F38713830DE
:1018E00019F4877F816006C0382F3171313011F4CF
:1018F0008E7F886021FF0DC0282F2871283119F4B0
:10190000877E816106C0282F2171213111F48E7EDE
:10191000886194FD877E089508950E9406278111AD
:1019200002C00E94AE270E94112780931A030E94D2
:10193000192790932903809328030E948C0C0E94FE
:101940001527682F70E080E090E00E9437246091B6
:1019500005037091060380910703909108030C948E
:101960006F240895FF920F931F93CF93DF938C0101
:10197000F62ED72FC42F222349F081E08093000256
:101980000E948D289093FF018093FE0180910002B8
:101990008823C1F08091FE019091FF010E94A5284B
:1019A000069780F0EF2DFD2FD8014C2F50E0CD0190
:1019B000801B910B841795071CF48D918193F7CFB1
:1019C00010920002DF91CF911F910F91FF90089527
:1019D0008091070280FF0BC06091090185E0689F3C
:1019E000B001112475956795759567952BC081FF9A
:1019F00009C06091090185E0689FB00111247595C7
:101A0000679520C082FF07C06091090185E0689F4B
:101A1000B001112417C0909106029923D1F0609172
:101A20000801961788F72091090185E0289F900109
:101A30001124929FA001939F500D112470E0CA01C0
:101A40000E9415336038710540F46115710519F471
:101A500006C065E070E0862F08958FE7089581E065
:101A600008958091070280FF08C06091050170E031
:101A7000759567957595679521C081FF06C0609142
:101A8000050170E07595679519C082FF04C06091EB
:101A9000050170E010C090910502992399F06091C2
:101AA00004019617A0F780910501899FC0011124B8
:101AB00070E00E9415336038710540F461157105BE
:101AC00019F406C061E070E0862F08958FE708954D
:101AD00081E008958D3E21F40E94E80C819504C0B8
:101AE0008E3E29F40E94E80C80930B0208958F3EED
:101AF00021F40E94E80C819504C0803F29F40E94E3
:101B0000E80C80930A020895893F19F40E94310D70
:101B100005C08A3F31F40E94310D819580930C02FB
:101B200008958B3F21F40E94310D819504C08C3FB4
:101B300029F40E94310D80930D0208959FE0980FC3
:101B4000983078F421E030E0A90102C0440F551F1D
:101B50009A95E2F7CA0190910902892B80930902B4
:101B600008958D3F21F48091070281600BC08E3F64
:101B700021F480910702826005C08F3F29F4809193
:101B8000070284608093070208958D3E39F4909196
:101B90000B0297FF35C010920B0259C08E3E29F4FC
:101BA00090910B021916BCF32BC090910A028F3E44
:101BB00029F497FF25C010920A0249C0803F19F40A
:101BC0001916CCF31DC090910C02893F29F4191607
:101BD000BCF410920C023BC08A3F19F497FF10C06E
:101BE000F8CF8B3F39F490910D0297FF09C0109206
:101BF0000D022DC08C3F21F490910D021916BCF3FB
:101C00009FE0980F983080F421E030E0A90102C0F5
:101C1000440F551F9A95E2F7CA01809590910902E9
:101C200089238093090213C08D3F21F4809107021C
:101C30008E7F0BC08E3F21F4809107028D7F05C0FF
:101C40008F3F29F4809107028B7F80930702809158
:101C50000A02811106C080910B02811102C010920C
:101C6000060280910C02811106C080910D02811143
:101C700002C01092050208950E948D2820910A0248
:101C8000211104C020910B02222321F09093040221
:101C90008093030220910C02211104C020910D02B7
:101CA000222321F0909302028093010288E092E0C7
:101CB0000C94DB1AEF92FF920F931F93CF93DF9355
:101CC00000D000D000D0CDB7DEB786E0E8E0F2E08B
:101CD000DE01119601900D928A95E1F7E0900A02DB
:101CE000F0900B0200910C0210910D0210920A026A
:101CF00010920B0210920C0210920D02E11003C020
:101D0000FF2009F45DC080910302909104020E94BB
:101D1000A528AC0190910602992339F020910A017F
:101D200030E02417350758F04BC020910B018AE0B2
:101D3000289F900111242417350718F041C09F3FB8
:101D400019F09F5F90930602EE2061F00E94E80C6C
:101D50001E1414F09FEF01C091E0989F902D112464
:101D600090930A02FF2061F00E94E80C1F1414F007
:101D70009FEF01C091E0989F902D112490930B024A
:101D800030910A023323E1F020910B022223C1F0AB
:101D900045EB3403C0011124992319F090930A02F2
:101DA00003C081E080930A0235EB2303C0011124B4
:101DB000992319F090930B0203C081E080930B02EA
:101DC000011103C0112309F45DC0809101029091BB
:101DD00002020E94A528AC0190910502992339F0D6
:101DE0002091060130E02417350758F04BC02091B0
:101DF00007018AE0289F900111242417350718F065
:101E000041C09F3F19F09F5F90930502002361F04E
:101E10000E94310D101614F09FEF01C091E0989FC1
:101E2000902D112490930C02112361F00E94310D2A
:101E3000111614F09FEF01C091E0989F902D11248E
:101E400090930D0230910C023323E1F020910D02AA
:101E50002223C1F045EB3403C0011124992319F06A
:101E600090930C0203C081E080930C0235EB2303B6
:101E7000C0011124992319F090930D0203C081E051
:101E800080930D0280910A0281110BC080910B0298
:101E9000811107C080910C02811103C080910D0255
:101EA00081110E943C0EEB82FC820D831E8386E032
:101EB000FE013196A8E0B2E001900D928A95E1F71B
:101EC00026960FB6F894DEBF0FBECDBFDF91CF913F
:101ED0001F910F91FF90EF900895E8E0F2E086E007
:101EE000DF011D928A95E9F7109206021092050211
:101EF000109207020895EF92FF920F931F93CF93D2
:101F0000DF938B01682F11110AC0442329F0E82FB9
:101F1000F0E0E553FB4F6491762F862F75C0212F9B
:101F200030E0E82FF0E0442321F0E553FB4FE4914B
:101F3000F0E046E0049FC0011124CFEFD0E0BE01E5
:101F40000E9401334BEA4603C001479F900D1124C4
:101F5000800F911D800F911D982F990F890FAE0151
:101F6000421B530B4E9FD0014F9FB00D5E9FB00D93
:101F700011249B2F189FA0011124452F55278E0156
:101F8000041B150B0E9FA0010F9F500D1E9F500D9F
:101F900011247E01E81AF108E29E8001E39E100DF3
:101FA000F29E100D1124212F3327C21BD30BCE9F7D
:101FB0009001CF9F300DDE9F300D112462307105EE
:101FC000A9F048F46115710569F061307105C9F433
:101FD0008B2F752F0DC06430710581F058F066307D
:101FE000710579F47E2F8B2F932F0DC0832F7B2FBC
:101FF0009E2F09C08E2F7B2F952F05C08E2F732FFC
:1020000002C07E2F852F692FDF91CF911F910F91F5
:10201000FF90EF90089541E00E947B0F089508958E
:10202000682F70E080E090E00E94F63020E030E021
:102030004FE753E40E9419302BED3FE049E450E4B0
:102040000E941F320E948C320E94933022EB3AE5AC
:102050004CEB5EE30E94AC2F24E530E643EA52E409
:102060000E941F320E94C530862F0895803170F47F
:10207000262F30E0280F311D213131053CF48093AB
:102080001101860F809312016093130108950E943D
:102090000B100895CF93DF93762FE901682F842FDB
:1020A0000E944710798368838A83DF91CF910895D6
:1020B0000C944A1080912A03282F269530E0211590
:1020C000310519F48170826005C02332310524F096
:1020D0008170846480932A03089588E090E00C94D2
:1020E000FC33CF92DF92EF92FF926B017C010E9452
:1020F0005A10B701A60188E090E0FF90EF90DF90C2
:10210000CF900C941A34EAE2F3E083E080831182EA
:102110008FEF8283838314826081718182819381B6
:102120000C94711080912A0380FF02C08695089557
:1021300080E0089590912E03933018F49F5F909360
:102140002E03882351F060912A0370912B03809114
:102150002C0390912D030C947110089581E00C9440
:102160009A1090912E03992319F0915090932E0379
:10217000882351F060912A0370912B0380912C03E6
:1021800090912D030C947110089581E00C94B1107E
:1021900021E030E001C0220F8A95EAF780916C02BD
:1021A000282381E009F480E0089570E00C9468171A
:1021B0008F929F92AF92BF92CF92DF92EF92FF9257
:1021C0000F931F93CF93DF9300D000D01F92CDB712
:1021D000DEB79090100180912A0380FF08C0A09084
:1021E0005F02B0906002A114B104A9F425C08091EF
:1021F000110190911201891790F7E82FF0E09F01EB
:10220000220F331FE20FF31FE15DFC4F118210829A
:1022100012828F5FF0CF8091680281110DC0812CF6
:10222000882D0E94C810882309F457C0F501C59075
:10223000D490C114D10401F580910F0123E0829F55
:10224000C0011124692D815D9C4F0E94D5100F9013
:102250000F900F900F900F90DF91CF911F910F91E2
:10226000FF90EF90DF90CF90BF90AF909F908F90B6
:10227000089535E0C30ED11C45E050E0B601CE0113
:1022800001960E94DE3309810F3F39F110E08A8107
:102290009801280F311DC9012131310514F080E169
:1022A00090E07C01EE0CFF1C8E0D9F1D9C01215DBA
:1022B0003C4F7901C801880F991F080F191F015D54
:1022C0001C4F0E151F05A8F698014D816C818B815E
:1022D0000E944A100D5F1F4FF4CF82E0A80EB11C80
:1022E000839428E082129CCFA7CF90912A0390FF7D
:1022F00016C09091110120911201921770F4E92FEC
:10230000F0E0DF01AA0FBB1FEA0FFB1FE15DFC4FEE
:102310008183608342839F5FF0CF0C94D81008952F
:10232000CF93DF9300D01F92CDB7DEB790912A03F1
:1023300090FF0AC09E012F5F3F4F0E944A104B81C1
:1023400069818A810E9475110F900F900F90DF9123
:10235000CF910895CF93DF93EC018C810E941010F0
:10236000EAE2F3E0482F628181810E9490118C8122
:102370008F5F8C83DF91CF910895CF93DF93EC0132
:10238000EAE2F3E0438162818C810E9490118C81AA
:102390008F5F8C83DF91CF910895AF92BF92CF92E0
:1023A000DF92EF92FF920F931F93CF93DF9300D0B2
:1023B0001F92CDB7DEB7182FF62E042FE22E909184
:1023C0002A0390FF6DC0E92FE695AE2FB0E0AE581E
:1023D000BE4F8C9180936A029E7F923061F49E0181
:1023E0002F5F3F4F812F0E944A104B8169818A8164
:1023F0000E94751143C0823019F400912D033EC034
:10240000863019F410912B0339C08930D9F3833108
:10241000A9F5E3518E2F8170D82EE695F0E0EA53AE
:10242000FB4FA590B490C12CBB2460911301C6163C
:1024300018F52C2D30E0A29EC001A39E900DB29EF7
:10244000900D112470E00E940133812FD11002C041
:10245000860F01C0861B90911101290F311DA90122
:10246000440F551F240F351F215D3C4F402F6F2D0A
:102470000E944A10C394D9CF0E94D81010932B0306
:10248000F0922C0300932D03EE2051F060912A036B
:1024900070912B0380912C0390912D030E94711059
:1024A0000F900F900F90DF91CF911F910F91FF90A0
:1024B000EF90DF90CF90BF90AF900895EAE2F3E005
:1024C0009181282F4381628184E0890F0C94CD1182
:1024D00080E00C945E1281E00C945E12EAE2F3E07C
:1024E0009181282F438162818CEF890F0C94CD114B
:1024F00080E00C946E1281E00C946E12EAE2F3E03C
:10250000628120E1620F08F46FEF282F43818181FF
:102510000C94CD1181E00C947E12EAE2F3E062812A
:1025200020E1621B08F460E0282F438181810C9434
:10253000CD1181E00C948D12EAE2F3E0438120E1B9
:10254000420F08F44FEF282F628181810C94CD1146
:1025500080E00C949C1281E00C949C12EAE2F3E07F
:10256000438120E1421B08F440E0282F62818181F1
:102570000C94CD1180E00C94AE1281E00C94AE125C
:1025800020E00C94CD11FF920F931F93CF93DF9314
:10259000EC01F12C0FE710E060911301F616F0F456
:1025A000809111012F2D30E0280F311DC901880FB6
:1025B000991F280F391F215D3C4F70E0C8010E9410
:1025C0001533962F8C8140912D0360912C03F99E39
:1025D000800D11240E944A10F394DECF0E94D8107F
:1025E0009A818C8190FF02C08F5F01C081508C83E3
:1025F000DF91CF911F910F91FF900895CF9380911C
:10260000110190911201891770F4E82FF0E09F01F9
:10261000220F331FE20FF31FE15DFC4F1182108286
:1026200012828F5FF0CFC0E060911301C617C0F532
:10263000EC2FF0E070E0CF010E94153320911101E2
:10264000820F20910E02022E000C330B90E0E21755
:10265000F307CCF020910E01022E000C330B2E1745
:102660003F078CF09C01220F331F820F931F9C01A8
:10267000215D3C4F40912D0360912C0380912B03F1
:102680000E944A100BC0FC01EE0FFF1F8E0F9F1F10
:10269000FC01E15DFC4F118210821282CF5FC4CF3A
:1026A0000E94D81020910D0180910E02820F80931C
:1026B0000E0290910E01920F90930E0119165CF488
:1026C000082E000C990B4091130150E04150510924
:1026D000841795071CF0219520930D01CF91089543
:1026E0008F929F92AF92BF92CF92DF92EF92FF9222
:1026F0000F931F93CF93DF938C01FC014481C42F70
:10270000D0E09E01DE010E9459339B01AC010E9482
:102710006F336B017C01E0E2F0E0EC1BFD0BA5E503
:10272000B0E09B01AC010E946F334B015C019F0143
:10273000DF010E9451339B01AC010E947A339B015F
:10274000AC012C0D3D1D4E1D5F1DC501B4010E9445
:102750002933C22FD22F2A3228F4F3E02F9F900181
:1027600011240DC025E530E02C1B3109C901880F6B
:10277000991F280F391F37FF02C02F5F3F4F359534
:102780002795C22FC095F12C85E5E82EED1A809192
:102790001301F816C8F4F0FC02C08E2D01C08D2F75
:1027A000909111012F2D30E0290F311DA901440F07
:1027B000551F240F351F215D3C4F4C2F60912C037A
:1027C0000E944A10F394E3CF0E94D810F80184814C
:1027D000811102C091E003C0803219F49FEF909301
:1027E0000C0190910C01890FF8018483DF91CF9146
:1027F0001F910F91FF90EF90DF90CF90BF90AF901F
:102800009F908F9008957F928F929F92AF92BF92E8
:10281000CF92DF92EF92FF920F931F93CF93DF93AC
:10282000FC019280748081E0848380E00E9410101B
:10283000882E8FE70E941010A12CF5E0BF2ECC242B
:10284000CA94D12C8819E82EF12C80911301A81676
:1028500008F09BC00A2D10E022E0291568F0B09E18
:10286000F001B19EF00D1124E15FFD4F80912B032B
:10287000808380912C03818371100AC0B09EF00187
:10288000B19EF00D1124E15FFD4F1382128263C0EF
:10289000B09EE001B19ED00D1124C15FDD4F8B8150
:1028A0008823E1F081508B832FEF829FC001112498
:1028B0006C8170E00E940133862F0E9410108819ED
:1028C0002FEF829FC0011124B7010E940133809134
:1028D0002D03689FB00111247A833DC00E94CE333E
:1028E00020912D032695215830E0A901440F551F52
:1028F000322F2227240F351F232F332782179307C8
:1029000054F582E0891588F40E94CE33B6010E9406
:10291000153388830E94CE3320912C032695622F95
:1029200070E00E941533280F2983B09EF001B19EFC
:10293000F00D1124E15FFD4F128280912D0384314F
:1029400008F484E1B09EF001B19EF00D1124E15F26
:10295000FD4F84838383809111019801280F311DDD
:10296000C901880F991F280F391F215D3C4FB09E68
:10297000F001B19EF00D1124E15FFD4F42816181B4
:1029800080810E944A10A39460CFDF91CF911F9164
:102990000F91FF90EF90DF90CF90BF90AF909F90FE
:1029A0008F907F900C94D810EAE2F3E080818E7FC4
:1029B000808360817181828193810E947110109265
:1029C0006B022FEF80E792E0215080409040E1F7CA
:1029D00000C000000C94D810EAE2F3E080818E7F02
:1029E000808310926B022FEF80E792E021508040AD
:1029F0009040E1F700C000000C94D81010926B02D8
:102A00008091680281110AC081E080936802809100
:102A10002A038170809367020C94EC1408956091EE
:102A20002A03669570E04BE050E084E191E00E945B
:102A3000E733892B19F481E080936B020E948D2883
:102A40009093620280936102089590912A0390FF0F
:102A500035C09170811102C0926006C0833210F0BF
:102A6000946402C0880F982B90932A03662351F038
:102A700060912A0370912B0380912C0390912D0378
:102A80000E94711060912A03669570E04BE050E05F
:102A900084E191E00E94E733892B19F010926B02D8
:102AA00002C00E940F1581E08093640240912D03C3
:102AB00060912C0380912B030C94C0120895682F11
:102AC00090912A03969581E0890F833208F081E086
:102AD0000C94251581E00C945F15682F90912A03C2
:102AE00096958FEF890F09F482E20C94251581E009
:102AF0000C946D1561E00C942515EAE2F3E08081F9
:102B00008160808386950C947A1580912A0380FDDC
:102B10000C94D4140C947D1560E00C9425158091D0
:102B2000690281112EC00E940627811104C00E94F3
:102B3000AE270E9483100E946D1060932A03709349
:102B40002B0380932C0390932D036E7F61F40E94DE
:102B500083100E946D1060932A0370932B0380935F
:102B60002C0390932D030E945A1010926B028091B7
:102B70002A0380FF03C086950E948C1581E0809314
:102B800069020895EAE2F3E080818160808386959E
:102B90000C948C1521E030E0A90102C0440F551FB0
:102BA0008A95E2F7CA0120916C02662311F0822B0C
:102BB00002C08095822380936C0280916B02811108
:102BC00005C080912A0386950E948C1580912A0366
:102BD00080FF0C94D81008951092680280916702CB
:102BE000882319F00E94C21505C080916C028111E2
:102BF0000E94D8100C940F150F931F93CF93DF935F
:102C000080916B02882309F479C080916A02E09177
:102C10002A03E695E81BE0936302823049F4F0E072
:102C2000EE53FB4FE491CE2FD0E00AEA11E13DC014
:102C3000863049F4F0E0E154FB4FE491CE2FD0E030
:102C40000DEB11E132C0893051F4E695F0E0E45427
:102C5000FB4FE491CE2FD0E003EC12E126C08F3081
:102C600049F4F0E0E754FB4FE491CE2FD0E00EEFB3
:102C700012E11BC0823181F08D3199F48E2F63E017
:102C80000E94F532E92FF0E0EA54FB4FE491CE2F99
:102C9000D0E003E014E109C0C8E2D0E000E713E1AE
:102CA00004C0C0EDD7E00FE010E1809164028823FA
:102CB00061F0109264020E948D28909362028093CA
:102CC000610210926602109265020E948D28E091C6
:102CD0006102F09162028E1B9F0B8F3F9F4770F441
:102CE000EC0FFD1FF0936202E093610281E692E037
:102CF000F801DF91CF911F910F910994DF91CF914E
:102D00001F910F910895882311F0FA0101C0FB0172
:102D10000994CF93DF93C82FD62F0E9492108C175F
:102D200040F00E9492108D1720F4DF91CF910C9407
:102D30006A158C2FDF91CF910C947A151F93CF9346
:102D4000DF93FB011281112309F4BAC0EC010E9448
:102D500045268272CD3CFCE5DF0709F499C008F0F6
:102D600043C0C73CECE5DE0709F47EC0D8F4C43CA0
:102D70009CE5D90709F46CC038F4C33CDC4509F084
:102D8000A2C00E9485159EC0C53C9CE5D90709F4E8
:102D900064C0C63CDC4509F096C04BE752E16BE6E7
:102DA00072E15FC0CA3CFCE5DF0709F467C070F45C
:102DB000C83CECE5DE0709F45CC0C93CDC4509F021
:102DC00082C04AE852E169E972E14BC0CB3C9CE524
:102DD000D90709F458C0CC3CDC4509F074C045EC77
:102DE00050E16EEA70E13DC0C23DFCE5DF0709F449
:102DF00069C098F4CF3C9CE5D90709F450C008F4A9
:102E00004CC0C03DFCE5DF0709F44CC0C13DDC45CA
:102E100009F059C06EE089E050C0C53D9CE5D90776
:102E200009F449C050F4C33DFCE5DF07F1F1C43DAE
:102E3000DC4509F048C082E13BC0C63D9CE5D907AE
:102E400009F440C0CE35DD45F1F562E28DE135C0D3
:102E500047E755E16AE675E104C04AE655E167E7F0
:102E600075E10E9483162EC04BE652E16BE772E1DA
:102E7000F8CF49E952E16AE872E1F3CF4DEB52E154
:102E80006BEA72E1EECF4BEA52E16DEB72E1E9CF12
:102E90004EEA50E165EC70E1E4CF81E009C065E005
:102EA00082E00BC068E086E008C061E18FE005C009
:102EB0000E947A1507C06CE183E10E94891602C066
:102EC00011E001C010E0812FDF91CF911F91089593
:102ED000539A2BB1277F3BB138604FB7F894FC0170
:102EE000CB01880F991F680F791F6E0F7F1FE617A0
:102EF000F70789F0819198E03BB9000000C087FF97
:102F00002BB9880F000000C000C000C02BB900C062
:102F10009A9591F7ECCF4FBF8FE594E00197F1F7C9
:102F200000C0000008950C946005FF920F931F935A
:102F3000CF93DF93C1E7D2E047EA51E025EA31E0E1
:102F400061E070E0F2E0C337DF0709F44CC0FA013A
:102F50000191AF01A02FA295AF70B0E09196EC91D6
:102F600091970F70CB01002E01C0880F0A94EAF7E9
:102F7000982F90959E2391969C93919792969C91D1
:102F80009297892B92968C939297F90111919F01B8
:102F9000E12FE295EF70F0E0F1A01F70CB01012E60
:102FA00001C0880F0A94EAF7982F90959F2191A36A
:102FB00092A1892B82A390968C9190E002C0959566
:102FC00087950A95E2F78170E0A1F0E002C0F595DF
:102FD000E7951A95E2F7E0FD02C090E001C092E0AB
:102FE000892B8993AFCFDF91CF911F910F91FF90E4
:102FF00008952F923F924F925F926F927F928F929D
:103000009F92AF92BF92CF92DF92EF92FF920F9377
:103010001F93CF93DF9381E7682E82E0782E97EAA3
:10302000E92E91E0F92E05EA11E02FE6822E22E04A
:10303000922ECDE6D2E063015301312C212C32E0F7
:10304000432E512CD501ED915D014E2F440F440FBD
:10305000F60141936F01D7012D917D01E22FE29599
:10306000EF70F0E080A190E02F7002C095958795F9
:103070002A95E2F781709927F80151918F01E52F88
:10308000E295EF70F0E020A130E05F7002C035956E
:1030900027955A95E2F7F901E170FF2720FF02C05A
:1030A000E2E0F0E0E82BF92BE42BD301ED933D01B6
:1030B000EF70F0E0EB56FE4F9081F4018081890FB4
:1030C000808382304CF088818F5F888360E0832D1D
:1030D0000E94931721E001C020E0D4018C918F3F22
:1030E00044F488818150888361E0832D0E94931786
:1030F00021E0F4018081082E000C990BB2010E949E
:103100001533D4018D934D01222A33942196B2E0D8
:103110003B1298CF822DDF91CF911F910F91FF909D
:10312000EF90DF90CF90BF90AF909F908F907F9067
:103130006F905F904F903F902F9008950F931F9343
:10314000CF93DF93C42FD22FFC0182818823C9F053
:10315000409375020E948D289093740280937302AD
:1031600080E28C0F883008F057C0C77081E001C042
:10317000880FCA95EAF7DF91CF911F910F910C94B8
:103180007A1D80917502481330C08091730290912E
:1031900074020E94A5288639910538F510E21D0FAA
:1031A000CD17B9F080E28C0F883040F4C77081E011
:1031B00001C0880FCA95EAF70E94811D183028F5D2
:1031C00081E09D2F977001C0880F9A95EAF70E94C1
:1031D0007A1D802F0E94711D1830F0F4D77081E0A5
:1031E00001C0880FDA95EAF70AC080E28C0F8830B8
:1031F00098F4C77081E001C0880FCA95EAF7DF91A3
:10320000CF911F910F910C94811D802FDF91CF9151
:103210001F910F910C94711DDF91CF911F910F9110
:1032200008950F939C01CB01243F4CE5340731F105
:1032300088F4293DFCE53F07D9F02A3D4CE53407E9
:1032400079F1283D3C45A9F506E221EE41EE68ED15
:103250007CE52BC0263FFCE53F07E1F0A8F0273FC7
:103260003C4539F507E225EE46EE67EF7CE51DC0EB
:1032700007E225EE45EE69ED7CE517C006E221EE9A
:1032800040EE64EF7CE511C007E225EE44EE65EF09
:103290007CE50BC006E221EE42EE66EF7CE505C060
:1032A00008E221E045EE6AED7CE50E949E1880E090
:1032B00008C0FC018281882319F01092750201C0B8
:1032C00081E00F910895CF93DF93EC01FB018281A0
:1032D000882309F41FC1C230FCE5DF0708F41BC1D5
:1032E000C6319CE5D90738F09E012B5F3C4529305B
:1032F000310508F010C10E9419279093290380938B
:103300002803C031ECE5DE0709F4C3C008F041C072
:10331000C8308CE5D80709F49AC0F0F4C430ECE565
:10332000DE0709F487C068F4C2308CE5D80709F4D9
:1033300077C0C330DC4509F0E3C080912803826088
:1033400076C0C630ECE5DE0709F46EC008F07BC03D
:103350008091280388606BC0CC308CE5D80709F4D5
:1033600085C068F4CA30ECE5DE0709F474C008F0E3
:1033700079C00E94072080912803806858C0CE3011
:103380008CE5D80709F476C008F07FC08091280347
:103390008BC0CC3FECE5DE0709F44FC018F5C33114
:1033A0008CE5D80709F47DC078F4C131ECE5DE077F
:1033B00009F473C0C231DC4509F0A2C00E940720A5
:1033C000809128038F7733C0C5318CE5D80709F485
:1033D00072C008F486C0CB3FDC4509F091C08091F3
:1033E00029033EC0C115FDE5DF0709F45FC058F4AD
:1033F000CE3F9CE5D90709F444C008F43FC0809152
:10340000290382602DC0C230FDE5DF0709F475C0D5
:1034100008F45DC0C330DD4509F072C080E06EC0C5
:1034200080912803816003C080912803806180938C
:10343000280366C08091280311C08091290382600F
:10344000809329035DC0809128038062F0CF809132
:1034500028038064ECCF8091280388608460E7CFE4
:103460008160EECF809128038E7FE1CF8091280389
:103470008D7FDDCF80912803877FD9CF809129036D
:1034800018C0809129038D7FDBCF809128038F7E28
:10349000CECF809128038F7DCACF809128038F7B68
:1034A000C6CF80912803877F8B7FC1CF809129036E
:1034B0008D7F8E7FC5CF8091280382FB222720F944
:1034C00091E0922790FB82F990FB83F9B0CF809135
:1034D0002903982F909591708E7F892B90FB81F90D
:1034E000AFCF0E9407208091280387FB222720F975
:1034F00091E0922790FB87F99ACF81E00E94B02754
:1035000080912803909129030E942A270E94072076
:1035100080E001C081E0DF91CF910895CF93DF93E8
:1035200086319C4541F5EB010E944526982F8A8102
:1035300020911F0130912001882379F09A7A81E04F
:1035400009F480E080937602911102C069E201C023
:1035500065E3C9010E94F7270AC0809176028111B4
:1035600002C069E201C065E3C9010E94F9270E9417
:10357000972680E001C081E0DF91CF91089590937C
:103580007C0280937B020895E0917B02F0917C02A3
:10359000309721F00190F081E02D099480E00895AA
:1035A000E0917B02F0917C02309721F00280F38160
:1035B000E02D09940895E0917B02F0917C02309710
:1035C00039F022E0DC012C930480F581E02D099490
:1035D00008952091790230917A022817390771F005
:1035E00090937A0280937902E0917B02F0917C02C1
:1035F000309721F00680F781E02D099408952091FD
:103600007702309178022817390771F09093780289
:1036100080937702E0917B02F0917C02309721F059
:103620000084F185E02D099408950E949928609303
:1036300096027093970280939802909399026093F8
:10364000920270939302809394029093950208954E
:103650000E94992860939602709397028093980233
:103660009093990260938E0270938F0280939002E0
:1036700090939102089585B7806885BF85B780686B
:1036800085BF089581E008950C94421B08950C9421
:10369000461B0C94D9050C94461B0C944B1B0C94A4
:1036A000461B0E943B1B84E097E20E94EB280E948D
:1036B0004F1B0C944D1B0E94471B0C94461B0E94F1
:1036C00084280E94D4030E948F150E9495170C94A1
:1036D000491B9F92AF92BF92CF92DF92EF92FF92DF
:1036E0000F931F93CF93DF93CDB7DEB72A970FB613
:1036F000F894DEBF0FBECDBF0E94680481110E9406
:10370000151B8EE7A82E82E0B82E00E010E0902E68
:10371000802F0E94CD03D82EF501C1905F01C826ED
:10372000B1F40F5F1F4F0031110589F78FEF8983C7
:103730008A831B820E948D288160782F9D838C83D1
:1037400049815A816B818D810E940E1C2FC080910E
:103750001A0381FD0E94D303E12CFF24F3948C2DE6
:103760008F21F1F00E94441B882399F0EE829F8202
:10377000DF2081E009F480E088870E948D28816045
:10378000782F9A8789874E815F8168858A850E9414
:103790000E1CF801E258FD4F8081F826F08206C029
:1037A000E394FF0CF5E0EF12DACFBBCF0E94FC15DB
:1037B0000E94F91781110E94281B0E945A0E0E9434
:1037C000C41A90917D028917B9F00E94C41A80939F
:1037D0007D022A960FB6F894DEBF0FBECDBFDF91F3
:1037E000CF911F910F91FF90EF90DF90CF90BF90FE
:1037F000AF909F900C94750A2A960FB6F894DEBF8E
:103800000FBECDBFDF91CF911F910F91FF90EF9031
:10381000DF90CF90BF90AF909F900895DF92EF928E
:10382000FF920F931F93CF93DF93CDB7DEB72B9704
:103830000FB6F894DEBF0FBECDBFF42E052F162FA6
:10384000E72ED82E61110E946526FE01319686E092
:10385000DF011D928A95E9F77E2D4F2D502F612FA4
:103860008D2D9E810E94FA222B960FB6F894DEBF12
:103870000FBECDBFDF91CF911F910F91FF90EF90C1
:10388000DF900895FC01808191810E94E5250895D3
:10389000CF93882309F4A4C0C82F8238C1F40E94B2
:1038A000C41A81FD9DC069E380911F0190912001A0
:1038B0000E94F7270E9497262FEF81EE94E0215077
:1038C00080409040E1F700C0000069E319C08338F0
:1038D00001F50E94C41A80FD83C063E580911F0139
:1038E000909120010E94F7270E9497262FEF81EEEA
:1038F00094E0215080409040E1F700C0000063E573
:1039000080911F01909120010E94F927CF910C9482
:1039100097268438C1F40E94C41A82FD61C067E40E
:1039200080911F01909120010E94F7270E94972605
:103930002FEF81EE94E0215080409040E1F700C0ED
:10394000000067E4DDCF8CEF8C0F813AD0F46C2F50
:1039500080911F01909120010E94C127882349F086
:103960006C2F80911F01909120010E94F9270E94E5
:1039700097266C2F80911F01909120010E94F727BC
:10398000C5CF80E28C0F883048F4C77081E001C059
:10399000880FCA95EAF70E944826B8CFEBE5EC0FEE
:1039A000E33040F4F0E0E952FE4F808190E0CF91A7
:1039B0000C94E91AE8E5EC0FE73150F4F0E0EE0F73
:1039C000FF1FE755FE4F80819181CF910C94FF1A24
:1039D000CD3E30F08C2F0E946A0DCF910C943C0E9E
:1039E000CF910895882309F464C0823879F40E9445
:1039F000C41A81FF5EC069E380911F01909120018C
:103A00000E94F7270E94972669E310C08338B1F41B
:103A10000E94C41A80FF4DC063E580911F01909100
:103A200020010E94F7270E94972663E580911F01DD
:103A3000909120010E94F9270C949726843879F4FC
:103A40000E94C41A82FF35C067E480911F019091E3
:103A500020010E94F7270E94972667E4E7CF9CEF9A
:103A6000980F913A10F4682FE1CF90E2980F9830B8
:103A700050F4877091E001C0990F8A95EAF7892F79
:103A80000E944E26D9CF9BE5980F933020F480E01A
:103A900090E00C94E91A98E5980F973120F480E0B3
:103AA00090E00C94FF1A8D3E20F00E94C50D0C94FE
:103AB0003C0E08951F93CF93DF93182FEB010E94C4
:103AC000481C209741F08FE99FE00197F1F700C073
:103AD00000002197F6CF812FDF91CF911F910C9499
:103AE000F21C893319F060E070E002C060E570E01C
:103AF0000C945A1D882321F00E9448260C94972686
:103B00000895882321F00E944E260C94972608954C
:103B1000CF92DF92EF92FF920F931F93CF93DF9399
:103B20007C01062FC72FFC01D281158112951F70D1
:103B30000E941D26882399F0DD2389F08C2F807F39
:103B4000803421F080E2800F883048F082E00E94CB
:103B5000E7260E941D2691E0D82ED92601C0D12C3F
:103B6000CC2EC2948FE0C8228C2D90E0FC01E95944
:103B7000FF4F0C944B338C2F807FCF70882311F034
:103B8000C295C07FDD2399F0CC2309F48DC180E27A
:103B9000800F883010F0011104C08C2F0E9448263D
:103BA00003C08C2F0E9458260E9497267DC1802F2B
:103BB0000E94F21CCC2309F49CC180E2800F883063
:103BC00010F0011104C08C2F0E944E2603C08C2FD0
:103BD0000E945E260E9497268CC18C2F807FCF701A
:103BE000803211F0C295C07F002319F00130C9F076
:103BF00022C0DD2371F0112341F0113031F40E9415
:103C000078268C2B0E94802674C10E9478268C2BEB
:103C10001DC0112319F0113009F46BC10E948D26CB
:103C200025C0DD2321F0163008F063C10EC0153029
:103C300008F05FC11BC0DD2361F0112331F0F701F3
:103C4000858180FF31C18F7085838C2F0E947A1D02
:103C500050C1112359F0093309F037C1FFEF27EEA6
:103C600083E0F15020408040E1F72DC18C2F0E946D
:103C7000811D3FC18C2F86958695837019F0813008
:103C800061F037C1DD2321F0802F9C2F937002C09B
:103C900080E090E00E94E91A34C1DD2321F0802FFA
:103CA0009C2F937002C080E090E00E94FF1A29C10F
:103CB000802FDD2319F00E946A0D02C00E94C50DFD
:103CC0000E943C0E1EC18C2F837009F045C0D1119B
:103CD00014C1402F429546954770440F440F602F02
:103CE0006F70862F90E0A0E0B0E0042E04C0880F33
:103CF000991FAA1FBB1F0A94D2F704FF10C00FE040
:103D000010E020E030E004C0000F111F221F331F1D
:103D10004A95D2F7009510952095309503C000E0A4
:103D200010E09801C695C695C370BC01CD01602B0B
:103D3000712B822B932BC23049F058F4C13019F00B
:103D40000E944B24DAC00E943924D7C00E945D240F
:103D5000D4C00E943724D1C0DD2319F08C2F81708C
:103D600001C08695882309F4C8C0402F4295469526
:103D70004770440F440F602F6F70862F90E0A0E0D3
:103D8000B0E0042E04C0880F991FAA1FBB1F0A941D
:103D9000D2F704FF10C00FE010E020E030E004C0D4
:103DA000000F111F221F331F4A95D2F7009510955F
:103DB0002095309503C000E010E09801C695C695A7
:103DC000C370BC01CD01602B712B822B932BC230B1
:103DD00049F058F4C13019F00E9425258EC00E9488
:103DE00013258BC00E94372588C00E94712485C08E
:103DF000CF70DD2339F08C2F0E94AC24802F0E94DD
:103E00007A1D7BC0802F0E94811D8C2F0E94CD24A3
:103E100074C0023F01F128F4003F41F0013FA1F0DE
:103E20003FC0033FF9F0043F39F13AC0DD2341F0D0
:103E3000153008F05EC08C2F8F710E94F22459C09B
:103E4000163008F056C0F7CFDD2339F08C2F8F7174
:103E50000E94AC244EC0DD23C9F38C2F8F710E94C9
:103E6000CD2447C0DD2329F08C2F8F710E94972429
:103E700040C00E947D243DC0DD2349F0CF718C2FCE
:103E80000E94AC2463E08C2F0E94CC2632C081E0DB
:103E90000E94E726123068F182E00E94E72629C0DE
:103EA000DD2331F0112391F2802F0E94481C21C0A4
:103EB000112399F2093349F49FEFE7EEF3E09150B3
:103EC000E040F040E1F700C00000802F0E94F21CAB
:103ED00010C04C2F4F70602FC7010E947E0A0E94B5
:103EE000A8230FC04C2F4F70602FC7010E94810A7A
:103EF00008C088EF8C0D843020F40E94C41A0E9400
:103F0000750ADD20C9F00E94192680FD15C0F70151
:103F100012820E9413260E94AC24C7010E94BD1F7A
:103F20000E941326DF91CF911F910F91FF90EF9088
:103F3000DF90CF900C94CD24DF91CF911F910F9102
:103F4000FF90EF90DF90CF9008950F931F93CF9342
:103F5000DF93EC01688179818A810E94F0258C01D0
:103F60000E9449250E942524B801CE010E94881D87
:103F7000DF91CF911F910F910895CF93DF93EC01C3
:103F8000988189812B813C81232B31F08F3F31F443
:103F900081E09F3F19F403C081E001C080E080FD13
:103FA00019C0CE010E94C80981110CC00E941D26B3
:103FB000882381F08A81882369F082E0DF91CF91A4
:103FC0000C94E726CE010E94A51FCE01DF91CF9170
:103FD0000C94A709DF91CF91089580E090E00E94B2
:103FE000E91A80E090E00E94FF1A0E9465260E9474
:103FF00075260E9497260E946D0F0C943C0E8091AE
:104000001F01909120010E94FB270C94ED1F0E943C
:1040100055260C94FF1FE92FE295EF704E2F50E0CC
:10402000FA013297EE30F105B0F4E958FF4F0C94E5
:104030004B33803F91F018F4883E68F40EC0843F03
:1040400051F40BC0883E48F0813F29F406C093FB31
:10405000882780F9089580E0089581E008950E94FE
:10406000E5250E940B200895CF93DF9300D000D068
:104070001F92CDB7DEB70F900F900F900F900F905B
:10408000DF91CF910895CF93DF9300D000D000D07F
:10409000CDB7DEB726960FB6F894DEBF0FBECDBF04
:1040A000DF91CF9108951F93CF93DF93C0919B022F
:1040B00016E080919C02C81799F0D0E01C9FF00197
:1040C0001D9FF00D1124E356FD4F40815181628107
:1040D0007381848195810E9443202196C770E9CF26
:1040E000DF91CF911F9108954091CD025091CE0262
:1040F0006091CF027091D0028091D1029091D20252
:104100000C94432020919B0290919C0256E0291729
:10411000A9F030E0529FF001539FF00D1124E356B7
:10412000FD4F7181761306C07081781303C07281D0
:10413000741306C02F5F3F4F2770E9CF80E00895CA
:1041400081E008950F931F93CF93DF938091D20264
:1041500082958F7009F05DC08091CF02882309F4A9
:1041600058C080919B0210919C026091CD02709189
:10417000CE02C091D002D091D10291E06F3F09F000
:1041800090E0292F06E0811709F443C0209721F021
:104190007F3F21F030E003C031E001C0322F90E0DA
:1041A00030FD34C0089FF001099FF00D1124DF019C
:1041B000A356BD4F11963C911197371327C03C91E0
:1041C000361324C012963C91129731111FC01396DA
:1041D0004D915C9114974C1B5D0B46395105B0F421
:1041E0008091D2028F7080618093D202EE55FD4F94
:1041F00080818F70806180838DEC92E00E94BD1F72
:10420000DF91CF911F910F910C94532001968770ED
:10421000BACFDF91CF911F910F9108958F929F9206
:10422000AF92BF92CF92DF92EF92FF920F931F93C4
:10423000CF93DF93CDB7DEB761970FB6F894DEBFAB
:104240000FBECDBF8C0185E0F801DE011D96019007
:104250000D928A95E1F7D801DC901196EC901197B8
:104260001296CC909091CD022091CE024091D00236
:104270005091D1024115510531F02F3F31F481E0C9
:104280009F3F19F403C081E001C080E080FD81C13F
:10429000F801838094808DECA82E82E0B82EF090F7
:1042A000CF02B401641B750BFF2009F418C1809183
:1042B000D202382F307F6639710508F0D1C0311134
:1042C0008AC0E21214C0D91212C0FC2CC1100FC057
:1042D0008F7080618093D2020E947420C5010E9479
:1042E000BD1F8091D202D80115968C936FC18114A5
:1042F000910439F0BFEFEB1206C081E0DB1203C07E
:1043000003C081E001C080E080FD03C081E08C2516
:1043100002C080E090E080FF10C04C2D6E2D8D2DEE
:104320000E948220882349F08DEC92E00E94BD1FFC
:10433000EDECF2E086E0DF01A4C0892839F0BFEFA0
:10434000EB1206C081E0DB1203C003C081E001C0B4
:1043500080E080FD03C081E08C2502C080E090E019
:10436000E82FE170BE2E80FF2CC04C2D6E2D8D2DC0
:104370000E948220F82E811124C0DD86EE868D8574
:104380009E850E94E525292F22952F70223018F056
:10439000243090F405C09F7059F0811109C016C1F6
:1043A0009F7031F0D80115969C91907F09F40EC151
:1043B000805E883008F40AC1C8010E94BD1FFB2C32
:1043C00005C1FC2CCC2009F401C18091D20281608E
:1043D0008093D2025BC0E21206C0D91204C0C110A1
:1043E00002C0F801A0C0DD86EE868D859E850E9404
:1043F0002F20882379F1CC2069F12091D202822FDD
:1044000082958F7090E0029774F08091CD02909128
:10441000CE0298878F8319869B868A862C87CE0149
:1044200007960E94BD1F86E0F801ADECB2E0019056
:104430000D928A95E1F70E94A2200E9474200DC07F
:10444000E21631F1DD86EE868D859E850E942F2055
:1044500081112DC0C8010E94BD1FFF24F394B6C076
:104460003111EECF782D998A888A4D2D5E2D6C2DD5
:1044700089890E9434208DEC92E00E94BD1F86E065
:10448000D5011D928A95E9F70E947420F12C9EC0F7
:10449000D912D8CFC110D6CFF8018583C8010E94A8
:1044A000BD1F86E0D5011D928A95E9F78FC0CC200B
:1044B00089F22091D202822F82958F7090E002972C
:1044C0000CF4B1CF8091CD029091CE029A83898372
:1044D0001B829D828C822E83CE010196A2CF6639EB
:1044E000710508F047C0FC2CCC2009F4B3CFE212D0
:1044F00030C0D9122EC02091D20220FD21C0822FBF
:1045000082958F70482F50E041155105C9F0F80190
:1045100025834F30510541F08F5F982F9295907F02
:10452000822F8F70892B8583C8010E94BD1F86E072
:10453000F801ADECB2E001900D928A95E1F744C02C
:1045400086E0F801ADECB2E001900D928A95E1F7BA
:104550003DC0DD86EE868D859E850E942F208111CF
:1045600062CF8091D20281608093D202C8010E9402
:10457000BD1F2CC0782D998A888A4D2D5E2D6C2DFB
:1045800089890E94342086E0D5011D928A95E9F739
:104590001BC0CC2009F45ECFDD86EE868D859E851E
:1045A0000E942F20F82E882309F454CF86E0F801CA
:1045B000ADECB2E001900D928A95E1F78DEC92E0BE
:1045C0000E94421C0E94A2200E9474208F2D61969E
:1045D0000FB6F894DEBF0FBECDBFDF91CF911F9114
:1045E0000F91FF90EF90DF90CF90BF90AF909F9092
:1045F0008F9008951F93CF93DF93CDB7DEB72C979D
:104600000FB6F894DEBF0FBECDBF4F8358876987C2
:104610007A878B879C87CE0107960E940E2188237C
:10462000D1F09F8188852A853B85232B31F08F3FF0
:1046300031F481E09F3F19F403C081E001C080E0C4
:1046400080FD47C04F81588569857A858B859C851B
:104650000E9443203EC086E0FE013796DE0111969F
:1046600001900D928A95E1F7FF81E8856A857B8547
:104670006115710531F0EF3F31F481E0FF3F19F42E
:1046800003C081E001C080E080FD23C020919C0236
:1046900030E0C90101968770992740919B0250E054
:1046A00084179507F1F1F983EA837D836C8396E0A3
:1046B000929FD001939FB00D1124A356BD4FFE01D0
:1046C000319601900D929A95E1F780939C020E9499
:1046D000532016E080919B0290919C02891771F102
:1046E000189FC001112483569D4F0E940E218823DC
:1046F00029F1E0919B021E9FF0011124E356FD4F2A
:104700004081518162817381848195810E9443201F
:1047100080919B0290E001968770992780939B027D
:10472000D9CF0E94072010929C0210929B02EDECC0
:10473000F2E086E0DF011D928A95E9F72C960FB62C
:10474000F894DEBF0FBECDBFDF91CF911F910895CA
:10475000EF92FF920F931F93CF93DF938C01892BDE
:1047600009F46CC0F12CEE24E394E8012196F801E1
:104770008491843740F4843008F051C0813081F056
:10478000823019F15BC0853709F444C0A8F19CE779
:10479000980F903708F052C08F770E94F21C41C0EA
:1047A0000E5F1F4FFE01849190E2980F983050F4F5
:1047B0008770FE2D01C0FF0F8A95EAF78F2F0E94A8
:1047C000682614C00E94481C2DC00E5F1F4FFE01BA
:1047D000849190E2980F983060F48770FE2D01C0AC
:1047E000FF0F8A95EAF78F2F0E946E260E94972668
:1047F00019C00E94F21C16C00E5F1F4FFE01C4912B
:10480000CC2381F08FE99FE00197F1F700C0000011
:10481000C150F6CF0E5F1F4FFE01F49003C00E94FF
:10482000481C8E018F2D882309F49FCFEFE9FFE00C
:104830003197F1F700C000008150F5CFDF91CF91A3
:104840001F910F91FF90EF900895089508950C9493
:1048500026240C9427240E94292460930903709332
:104860000A0380930B0390930C030C94ED1F0C949C
:104870002B240F931F930091090310910A03209199
:104880000B0330910C03602B712B822B932B1F9108
:104890000F910C942B240F931F93009109031091F7
:1048A0000A0320910B0330910C03602371238223B0
:1048B00093231F910F910C942B240F931F9300911E
:1048C000090310910A0320910B0330910C03602718
:1048D0007127822793271F910F910C942B240C94FE
:1048E000F2050E946F246093050370930603809382
:1048F0000703909308030C94ED1F60E070E0CB0178
:104900000C947124611571058105910529F481E0EC
:10491000442361F080E00895DC01CB0104C0B6952A
:10492000A795979587954A95D2F7817008950F932B
:104930001F9341E050E060E070E08A019B0104C0F9
:10494000000F111F221F331F8A95D2F7C901B8012A
:104950001F910F910C9471240F931F9341E050E02D
:1049600060E070E004C0440F551F661F771F8A95F2
:10497000D2F78091050390910603A0910703B091AF
:1049800008038A019B01082B192B2A2B3B2BC901F9
:10499000B8011F910F910C9471240F931F9341E064
:1049A00050E060E070E004C0440F551F661F771FA1
:1049B0008A95D2F740955095609570958091050342
:1049C00090910603A0910703B09108038A019B010F
:1049D000082319232A233B23C901B8011F910F91F2
:1049E0000C9471240F931F9341E050E060E070E05D
:1049F00004C0440F551F661F771F8A95D2F7809118
:104A0000050390910603A0910703B09108038A0162
:104A10009B01082719272A273B27C901B8011F91A5
:104A20000F910C9471240F931F9300910503109123
:104A300006032091070330910803602B712B822B12
:104A4000932B1F910F910C9471240F931F9300913E
:104A5000050310910603209107033091080360239A
:104A60007123822393231F910F910C9471240F9330
:104A70001F930091050310910603209107033091C5
:104A8000080360277127822793271F910F910C94A9
:104A90007124089524E0929F900D1124890FE82F2E
:104AA000E695E695E695877051E001C0550F8A9529
:104AB000EAF785E0E89FF0011124ED52FD4F20E078
:104AC00030E070E04081CB01022E02C096958795C0
:104AD0000A94E2F781708195842785238427819346
:104AE0002F5F3F4F2530310569F7089524E0929FED
:104AF000900D1124890F682F669566956695982FFD
:104B0000977085E0689FB001112440E050E080E09C
:104B1000FB01E40FF51FED52FD4F208130E0092E1F
:104B200002C0369527950A94E2F721703327042EA8
:104B300001C0220F0A94EAF7822B4F5F5F4F453086
:104B4000510531F70895BF92CF92DF92EF92FF9215
:104B50000F931F93CF93DF938C01C0900503D090E8
:104B60000603E0900703F0900803809109039091F9
:104B70000A03A0910B03B0910C03C82AD92AEA2A90
:104B8000FB2ACFE1D0E0D701C6010C2E04C0B695B8
:104B9000A795979587950A94D2F780FD04C0219731
:104BA00090F7B12C07C0BC2EB8018C2F0E949D0A33
:104BB0000197A9F38B2DDF91CF911F910F91FF905A
:104BC000EF90DF90CF90BF900895CF93DF93EC01EB
:104BD0000E94A325BE010E949D0ADF91CF910895F6
:104BE0001F93CF93DF93EB0190919A02992321F0C9
:104BF000CB010E94E52513C0882349F0CB010E9418
:104C0000A325182F682FCE010E944A2504C0CB018E
:104C10000E947625182FBE01812F0E949D0ADF91E8
:104C2000CF911F91089580910D0385958595859568
:104C3000089580910D038770089590910D039770EA
:104C400081E009F480E008959091290392FB2227E6
:104C500020F9281751F080FB92F990932903809155
:104C60002803909129030C942A2708958091290301
:104C700082FB882780F991E089270C94242681E023
:104C80000C94242680E00C94242680911903089526
:104C900090911903892B8093190308958095909121
:104CA0001903892380931903089510921903089515
:104CB00090911803892B8093180308958095909103
:104CC00018038923809318030895109218030895F8
:104CD00090911703892B80931703089580959091E5
:104CE00017038923809317030895109217030895DB
:104CF00080910E03089508950C947B260C947C26D5
:104D00009091290392FD08C090910E03981721F00D
:104D100080930E030C947E26089580910E038823C1
:104D200029F010920E0380E00C947E260895E09105
:104D30001F01F0912001809119038083E0911F01F0
:104D4000F0912001908180911803892B8083E0915C
:104D50001F01F0912001908180911703892B80839E
:104D600080910E03882381F0E0911F01F0912001D2
:104D70009081892B808380911F01909120010E9456
:104D8000B52781110E948D2680911F0190912001ED
:104D90000C94D01A0C947B269091290392FD10C09C
:104DA00098E0899F90011124262B20930D030E94E7
:104DB000AC2480910D038595859585950C94CA2624
:104DC0000C94AC2410920D0380E00C94CA26209120
:104DD0000D038095822380930D03982F977041F4E3
:104DE00030E0482F082E000C550B2417350721F40E
:104DF0009091290392FF07C08595859585950E941E
:104E0000CD240C94E226089580E0089580E090E09F
:104E10000E94023421E08A3E9E4F09F020E0822F5A
:104E2000089582E090E00C94F43383E090E00C94D9
:104E3000F433CF9384E090E00E94F433C82F82E2F1
:104E400090E00E94F4332C2F30E0A901582BCA01C6
:104E5000CF910895CF93C92F682F84E090E00E94EE
:104E600008346C2F82E290E0CF910C940834AB01AF
:104E7000BC018FE090E00C941A34AB01BC0183E1DB
:104E800090E00C941A3460E070E0CB010C943D2764
:104E900060E070E0CB010E9437270C9443276AEE54
:104EA0007EEF80E090E00E94263460E082E090E0B7
:104EB0000E94083460E083E090E00E940834109281
:104EC000090310920A0310920B0310920C0360E086
:104ED00084E090E00E94083460E082E290E00E946A
:104EE000083460E085E090E00E94083460E086E0ED
:104EF00090E00E9408346FEF87E090E00E94083451
:104F000040E050E0BA0188E090E00E941A3460E08E
:104F10008DE090E00E94083440E050E0BA0188E162
:104F200090E00E941A3460E087E190E00E9408342B
:104F300040E050E0BA018CE190E00E941A3460E059
:104F400070E080E290E00E94263440E050E0BA0138
:104F500088E190E00E941A340C9448270C944F2763
:104F6000682F8EE090E00C940834FC01329697E0B4
:104F700080E0915029F021912223D9F38F5FF9CF5E
:104F80000895662349F0FC01329608962191621734
:104F900029F0E817F907D1F780E0089581E0089536
:104FA0009C01FC0132969FEF80E04191461789F009
:104FB0009F3F19F4411101C0982F8F5F8630A9F7E8
:104FC0009F3F39F0F901E90FF11D97FDFA956283D2
:104FD000089508959C012A5F3F4FFC0142814613CA
:104FE00001C01282019682179307B9F708950C94B5
:104FF000D0270C94EA27029626E0FC0111922A950C
:10500000E9F7089508950C9402280C940228CF9390
:105010000E9405280E9468040E940328C0E08C2F8B
:105020000E94CD03811104C0CF5FC031C1F701C020
:1050300081E0CF9108950C9402280C941B28809154
:105040006703843059F10E941D2880E00E94750A90
:105050000E94FE1410921B0320E488E190E00FB63A
:10506000F894A895809360000FBE2093600083B7EA
:10507000817F846083BF83B7816083BF7894889584
:1050800083B78E7F83BF0FB6F894A8958091600098
:10509000886180936000109260000FBE08950C94A8
:1050A00002280E9407200E94C41A0E94750A0E94CA
:1050B000EC150C944F281F920F920FB60F921124EB
:1050C0008F939F93AF93BF9380911B03811113C064
:1050D00080915F0390916003A0916103B09162039E
:1050E0004196A11DB11D80935F0390936003A0932F
:1050F0006103B0936203BF91AF919F918F910F9025
:105100000FBE0F901F90189582E084BD93E095BD6F
:105110009AEF97BD80936E0008952FB7F894809111
:105120005F0390916003A0916103B09162032FBF70
:1051300008952FB7F89460915F0370916003809198
:105140006103909162032FBF08959C014FB7F894BB
:1051500080915F0390916003A0916103B09162031D
:105160004FBF821B930B089578941F920F920FB636
:105170000F9211248F939F93AF93BF9380915F03FE
:1051800090916003A0916103B09162030196A11D0B
:10519000B11D80935F0390936003A0936103B0936C
:1051A0006203BF91AF919F918F910F900FBE0F90AF
:1051B0001F90189587E797E7909301088093000860
:1051C0009AE088E10FB6F894A895809360000FBE2E
:1051D00090936000FFCF9093DB018093DA010895F4
:1051E000809124030895CF93DF9300D01F92CDB711
:1051F000DEB790916703943019F589837B836A83C6
:1052000082E08093E9008FEF9091E800815095FD56
:1052100006C095ED9A95F1F700008111F5CF8091C8
:10522000E80085FF0DC040E050E063E070E0CE0193
:1052300001960E940E2B8091E8008E778093E80003
:105240000F900F900F90DF91CF910895BC0184E0F3
:105250000C94F328BC0183E00C94F32822E0209303
:10526000E9002FEF3091E800215035FD06C035ED03
:105270003A95F1F700002111F5CF2091E80025FFC4
:105280000BC040E050E066E070E00E940E2B809181
:10529000E8008E778093E8000895CF93DF9321E0B4
:1052A0002093E9002FEF3091E800215035FD06C032
:1052B00035ED3A95F1F700002111F5CF2091E80086
:1052C00025FF14C0EC0140E050E068E070E00E946F
:1052D0000E2B8091E8008E778093E80088E0FE0135
:1052E000ACE1B3E001900D928A95E1F7DF91CF91A7
:1052F000089580916603811109C00E949F2C0E942D
:10530000FC2C8091E20084608093E200089510926A
:105310006603089508950895089542E061EC81E0E0
:105320000E94182C42E261EC82E00C94182C8091CF
:105330006903833009F460C030F4813071F0823049
:1053400009F499C008958A3009F485C08B3009F4B6
:105350006BC0893009F0A7C020C080916803813AF2
:1053600009F0A1C08091E800877F8093E8008091D8
:105370006C0390916D03892B21F468E08CE193E03C
:1053800003C060E080E090E070E00E94592B8091C3
:10539000E8008B778093E80008958091680381325C
:1053A00009F081C080916C0390916D03029708F021
:1053B0007AC08091E800877F8093E8008091E800C0
:1053C00082FD05C0809167038111F8CF6CC02091E8
:1053D000F3008091F20090E0922B029729F48091E3
:1053E000F1008B7F813021F48091F10080932403C0
:1053F0008091E8008B7753C080916803813A09F06F
:1054000052C080916C0390916D03892B09F04BC0C1
:105410008091E800877F8093E8008091E80080FF1A
:10542000FCCF80912B0136C0809168038132D9F581
:1054300080916C0390916D03892BA9F58091E80010
:10544000877F8093E8000E944D2C80916A038093AF
:105450002B010C94072080916803813221F5809103
:10546000E800877F8093E8000E944D2C80916B03B9
:1054700080932503089580916803813AA1F4809177
:10548000E800877F8093E8008091E80080FFFCCFF0
:10549000809125038093F1008091E8008E778093BE
:1054A000E8000C944D2C089584B7877F84BF0FB615
:1054B000F894A895809160008861809360001092B4
:1054C00060000FBE90E080E80FB6F8948093610012
:1054D000909361000FBE0E94511B0E949F2C0E945E
:1054E000FC2C8091E20084608093E20078940E941A
:1054F000912F0E945F1B81E291E00E94BF1A809170
:1055000067038530A9F480916703853079F40E94A0
:105510001F28809165038823B1F30E940728882300
:1055200091F30E94F82A0E940720EDCF0E94512893
:105530000E94691B0E945B1BE2CF0C949F2A292FBB
:10554000332723303105C9F060F42130310581F073
:105550002230310509F044C08BE390E027EF35E0BD
:1055600043C021323105E1F02232310549F138C022
:1055700082E190E022E336E037C09927813091053F
:1055800049F028F0029761F5EBECF5E005C0E3EF98
:10559000F5E002C0E1EEF5E0849190E09F0124C0C7
:1055A0006115710541F061307105D1F489E090E039
:1055B00022E236E019C089E090E029E036E014C02C
:1055C0006115710541F06130710551F48BE790E090
:1055D00024E436E009C080E490E02FEB36E004C01C
:1055E00080E090E020E030E0FA01318320830895EC
:1055F00080E189BD82E189BD09B400FEFDCF8091C3
:10560000D8008F7D8093D8008091E00082608093E5
:10561000E0008091E00081FDFCCF0895CF92DF9201
:10562000EF92FF920F931F93CF93DF93EC018B01C7
:105630007A010E946C2C811133C0E114F10439F01D
:10564000F70180819181081B190BC80FD91FC12C4C
:10565000D12C0115110519F18091E80085FD16C0C6
:105660008091E8008E778093E800E114F10449F01E
:10567000F70180819181C80ED91ED182C08285E058
:105680000FC00E946C2C882321F30AC0899180935B
:10569000F10001501109FFEFCF1ADF0ADACF80E0E5
:1056A000DF91CF911F910F91FF90EF90DF90CF90FE
:1056B000089520916E0330916F032617370748F045
:1056C0006115710539F42091E8002E772093E800E8
:1056D00001C0B901FC0120E06115710579F18091EB
:1056E00067038823F1F18530F1F18091E80083FDB3
:1056F0003CC08091E80082FD2EC08091E80080FFD0
:10570000EBCF2091F3008091F20090E0922B611595
:10571000710551F08830910538F421912093F10002
:10572000615071090196F3CF21E0089709F020E05C
:105730008091E8008E778093E800CECF2111CFCF03
:105740000AC080916703882361F0853061F0809101
:10575000E80083FD0AC08091E80082FFF2CF80E07C
:10576000089582E0089583E0089581E008952091EE
:105770006E0330916F032617370748F061157105E6
:1057800039F42091E8002E772093E80001C0B90198
:10579000FC0120E06115710591F180916703882378
:1057A00009F440C0853009F43FC08091E80083FDD2
:1057B0003DC08091E80082FD2FC08091E80080FF0D
:1057C000E9CF2091F3008091F20090E0922B6115D7
:1057D000710559F08830910540F424912093F1002F
:1057E0003196615071090196F2CF21E0089709F0D6
:1057F00020E08091E8008E778093E800CBCF2111E4
:10580000CCCF0AC080916703882361F0853061F0B6
:105810008091E80083FD0AC08091E80082FFF2CF0A
:1058200080E0089582E0089583E0089581E008957E
:10583000982F973068F59093E900981739F0709198
:10584000EC002091ED005091F00003C0242F762F42
:1058500050E021FD02C09F5FECCF3091EB003E7F16
:105860003093EB003091ED003D7F3093ED003091AF
:10587000EB0031603093EB007093EC002093ED006F
:105880005093F0002091EE0027FDE5CF80E00895D1
:105890008F708093E90081E008958091680387FF0D
:1058A00011C08091E80082FD05C0809167038111DD
:1058B000F8CF11C08091E8008B770BC0809167030F
:1058C000882349F08091E80080FFF8CF8091E800BC
:1058D0008E778093E80008952091E4003091E500F0
:1058E00095E64091EC00842F817040FF23C08091A9
:1058F000E80080FD1DC080916703882399F0853002
:1059000099F08091EB0085FD11C04091E400509129
:10591000E5002417350729F3915011F09A01E1CFE2
:1059200084E0089582E0089583E0089581E0089579
:1059300080E008954091E80042FFDDCF08950E9485
:105940000D2D0E94152DE0EEF0E0808181608083B6
:10595000E8EDF0E080818F77808319BCA7EDB0E09F
:105960008C918E7F8C9380818F7E808310926603D2
:1059700008950F931F93CF93DF930E940D2D0E94E4
:10598000152DC8EDD0E088818F7788838881806865
:10599000888388818F7D888319BC10926703109259
:1059A0006303109265031092640300EE10E0F801A7
:1059B00080818B7F808388818160888342E060E082
:1059C00080E00E94182CE1EEF0E080818E7F8083E1
:1059D000E2EEF0E080818160808380818860808356
:1059E000F80180818E7F8083888180618883DF9148
:1059F000CF911F910F910895E8EDF0E080818F7EA7
:105A00008083E7EDF0E080818160808384E082BF65
:105A100081E0809366030C94B92CE8EDF0E080817E
:105A20008E7F80831092E20008951092DA00109227
:105A3000E10008951F920F920FB60F9211242F9339
:105A40003F934F935F936F937F938F939F93AF9306
:105A5000BF93EF93FF938091E10082FF0BC0809191
:105A6000E20082FF07C08091E1008B7F8093E1001C
:105A70000E94902F8091DA0080FF1FC08091D80093
:105A800080FF1BC08091DA008E7F8093DA008091C6
:105A9000D90080FF0DC080E189BD82E189BD09B4D4
:105AA00000FEFDCF81E0809367030E94792905C045
:105AB00019BC109267030E9487298091E10080FF42
:105AC00019C08091E20080FF15C08091E2008E7FB6
:105AD0008093E2008091E20080618093E2008091F7
