:100000000C947C030C94C3030C94C3030C94C3039F
:100010000C94C3030C94C3030C94C3030C94C30348
:100020000C94C3030C94C3030C9412220C944E2121
:100030000C948E280C94C3030C94C3030C94C30338
:100040000C94C3030C94C3030C94C3030C94C30318
:100050000C94C3030C944D280C94C3030C94C30359
:100060000C94C3030C94C3030C94C3030C94C303F8
:100070000C94C3030C94C3030C94C3030C94C303E8
:100080000C94C3030C94C3030C94C3030C94C303D8
:100090000C94C3030C94C3030C94C3030C94C303C8
:1000A0000C94C3030C94C3030C94C30328043104BD
:1000B00040048004B004E0040F053E056D059C0576
:1000C000CE05FD052C065B068706B906EE060C0A72
:1000D0000C0A460A460AA00ABC0A520C520CC70A6D
:1000E000A50BB60BB60B0B1B0B1B1E1B1E1B141BF1
:1000F0001E1B1E1B1E1B0B1B0B1B191B1E1B1E1B63
:10010000191B691F901F2621901F2621D81FFB1F36
:100110002621EA20FD2007634236B79BD8A71A396B
:10012000685618AEBAAB558C1D3CB7CC5763BD6D45
:10013000EDFD753EF6177231BF000000803F05A847
:100140004CCDB2D44EB93836A9020C50B99186883C
:10015000083CA6AAAA2ABE000000803F29002B0066
:100160000000E100E0001F00360012001400E30070
:100170002100130018000E008B4349004C002D0095
:100180002F001A114B004E002E0030001A112400CF
:100190000A000B0010008A42260015001100190009
:1001A00046442A00310038002872E4001E00340062
:1001B0000400330065002000370008000D00E20055
:1001C00022001C000C001B002C004A004D003502D0
:1001D0000000287223000900070005002C7225008A
:1001E000060017001A00E60027000F0016001D0089
:1001F0003504FA00F900FA00F900000001000100DE
:10020000010001000100615D010001000100010029
:100210000100010001000100010001000100675D13
:10022000695D010001000100685D6A5D0100635DB8
:100230000100010001000100655D010001000100F5
:10024000010001006B5D01000100010001006D5D16
:1002500001006C5D010001000100010001000100CE
:1002600001000100010001000100010001006E5DBC
:1002700001000100625D0100010001000100645DF8
:100280000100010001000100665D010001000100A4
:1002900001000100010001000100000035002B00F9
:1002A00000000100010045003B004E001B01010061
:1002B00000003D004D001901035101000100010043
:1002C00001003D1401000100010001003D14000087
:1002D00040005000280001000000420052000000D1
:1002E000010001004C0038000100010044003A0008
:1002F0004A001D01010000003C004B000601010006
:1003000000003E0029000000010001000100010082
:100310000100010000003F002A0000000100000071
:100320004100510000000100000043004F000000A8
:100330003900FB00FC00FB00FC00000035002B0036
:100340000000010001003B00000051001B01010002
:100350003D0000004F0019010100010001000100F3
:1003600001003D1401000100010001003D144000A6
:100370005F005C0059006200420061005E005B00AB
:100380006300010049005400580001003A000000D9
:1003900050001D0101003C00000052000601010058
:1003A0003E0000000000000001000100010001000B
:1003B000010001003F002E002A0000000100410062
:1003C00060005D005A00605D430056005700550014
:1003D0003900FB00FC00FB00FC0000005F5D00003A
:1003E0000000000001000000C65CC75C00000100C6
:1003F0000000CA5CCB5C0000010046000000000069
:1004000000520000480000000000015200000000FF
:100410000000A8000000010000000000A90000008A
:10042000010000000F1800000000010000000000A3
:100430000000000000000000C85CC95C0000010072
:100440000000C45CC55CC35C000047000000000005
:100450000000000000005300000000000000000049
:100460000000AA00000001000000000000000000E1
:10047000005C010001000100010000000001010119
:100480000101010101010202020202020202020351
:100490000303030303030304040404040404050521
:1004A00005050506060606060707070707080808E4
:1004B00008090909090A0A0A0B0B0B0C0C0C0D0D93
:1004C0000D0E0E0E0F0F0F1010111111121213132B
:1004D0001414151516161717181819191A1A1B1BA4
:1004E0001C1D1D1E1E1F2020212222232424252600
:1004F00026272829292A2B2C2D2D2E2F3031323238
:10050000333435363738393A3B3C3D3E3F40414243
:10051000434445464748494A4C4D4E4F5051535429
:10052000555658595A5B5D5E5F61626465666869DD
:100530006B6C6D6F7072737577787A7B7D7E80825D
:10054000838587888A8C8E8F91939596989A9C9EA6
:10055000A0A2A3A5A7A9ABADAFB1B3B5B7BABCBEB6
:10056000C0C2C4C6C9CBCDCFD1D4D6D8DBDDDFE283
:10057000E4E7E9EBEEF0F3F5F8FAFDFFFFAA7F55AB
:10058000400300948060FF00000000030D1CFFFF8B
:10059000FF00000000030D55FFFFFF0000000003F7
:1005A0000100FFFFFF000000009F0595058B0581FE
:1005B0000500001E0F057F3F1F643214783C1E1E8D
:1005C000140A0505010902A10185020901A100051E
:1005D00009190129081500250195087501810205F1
:1005E00001093009311581257F95027508810609B9
:1005F000381581257F950175088106050C0A38029A
:100600001581257F950175088106C0C00501098007
:10061000A101850319012AB700150126B70095012C
:1006200075108100C0050C0901A101850419012A7A
:10063000A002150126A002950175108100C00501D8
:100640000906A101050719E029E71500250195080C
:10065000750181029501750881010507190029FFBF
:10066000150026FF00950675088100050819012967
:1006700005950575019102950175039101C0090267
:100680003B00020100A0FA0904000001030101007F
:100690000921110100012240000705810308000A19
:1006A00009040100010300000009211101000122D9
:1006B0007B000705820320000A12011001000000E0
:1006C00008EDFE15A50100010200011403410053CD
:1006D0000054005200410020003500310035000078
:1006E0000010034C0065006B00690070006F006E25
:1006F000000000040309040011241FBECFEFDAE05C
:10070000DEBFCDBF04B603FE27C0809127039091C2
:100710002803A0912903B0912A038730904BA7406A
:10072000B04BD1F4109227031092280310922903A2
:1007300010922A0314BE84B7877F84BF0FB6F89443
:10074000A89580916000886180936000109260009D
:100750000FBEE0E0F8E3099511E0A0E0B1E0EAE1C6
:10076000F0E602C005900D92A03AB107D9F723E058
:10077000A0EAB1E001C01D92A732B207E1F70E94E2
:1007800033160C940B300C9400008F929F92AF9212
:10079000BF92CF92DF92EF92FF920F931F93CF936E
:1007A000DF93CDB7DEB72A970FB6F894DEBF0FBE42
:1007B000CDBFFC010081D18083819481892B39F0E8
:1007C0001FEFD11206C091E00F3F19F403C091E072
:1007D00001C090E090FF02C00C94B10C7F0185E055
:1007E000DE01169601900D928A95E1F7D7011296D7
:1007F0002C918E819F81222349F00E94A729182FD6
:10080000682F8E819F810E94212A03C00E94F429B3
:10081000182FB0E51B9FF001112415E0D19EE00DCB
:10082000F11D1124E00FF11DEE0FFF1FE45AFE4FE2
:1008300005911491F801EF55FD45E131F10508F0FE
:100840000FC3EA5AFF4FD70112968C910C94E92FEF
:10085000882311F40C94910C0E94ED0D8091DD0120
:10086000CBC281110C94910C60E070E082E60E9492
:10087000421E60E070E082E60E94421E0C94910CE1
:10088000882311F40C94910C8091AC0291E0382FE4
:10089000327081FF90E09093A30191E0282F2072A5
:1008A00085FF90E09093A201311103C0211104C093
:1008B00022C081EE0E94371D8091A201882319F089
:1008C00085EE0E94371D8FE20E949E1D8FE20E94DE
:1008D000371D8091A301882319F081EE0E949E1D8F
:1008E0008091A201882311F40C94910C85EE0E9452
:1008F0009E1D0C94910C8FE10E949E1D8FE12CC0D7
:10090000882311F40C94910C8091AC0291E0382F63
:10091000327081FF90E09093A30191E0282F207224
:1009200085FF90E09093A201311103C0211104C012
:100930000FC081EE0E94371D8091A201882319F01B
:1009400085EE0E94371D8EE20E949E1D8EE2BFCF73
:1009500083E20E949E1D83E20E94371D0C94910C3D
:10096000882311F40C94910C8091AC0291E0382F03
:10097000327081FF90E09093A30191E0282F2072C4
:1009800085FF90E09093A201311103C0211104C0B2
:1009900012C081EE0E94371D8091A201882319F0B8
:1009A00085EE0E94371D81EE0E949E1D83E20E940B
:1009B0009E1D83E207C284E20E949E1D84E2CCCF8A
:1009C000882309F4AEC78091AC0291E0382F3270D1
:1009D00081FF90E09093A30191E0282F207285FF82
:1009E00090E09093A201311103C0211104C012C004
:1009F00081EE0E94371D8091A201882319F085EEB7
:100A00000E94371D81EE0E949E1D84E30E949E1D60
:100A100084E3D8C185E20E949E1D85E29DCF882394
:100A200009F47FC78091AC0291E0382F327081FFCA
:100A300090E09093A30191E0282F207285FF90E031
:100A40009093A201311103C0211104C012C081EEA4
:100A50000E94371D8091A201882319F085EE0E9423
:100A6000371D81EE0E949E1D85E20E949E1D85E23B
:100A7000A9C186E20E949E1D86E26ECF882309F4FA
:100A800050C78091AC0291E0382F327081FF90E026
:100A90009093A30191E0282F207285FF90E090931E
:100AA000A201311103C0211104C012C081EE0E94C5
:100AB000371D8091A201882319F085EE0E94371D11
:100AC00081EE0E949E1D86E20E949E1D86E27AC1F2
:100AD00087E20E949E1D87E23FCF882309F421C749
:100AE0008091AC0291E0382F327081FF90E09093BA
:100AF000A30191E0282F207285FF90E09093A2013E
:100B0000311103C0211104C012C081EE0E94371DB3
:100B10008091A201882319F085EE0E94371D81EE95
:100B20000E949E1D87E80E949E1D87E84BC18DE2B2
:100B30000E949E1D8DE210CF882309F4F2C6809199
:100B4000AC0291E0382F327081FF90E09093A301C6
:100B500091E0282F207285FF90E09093A20131113F
:100B600003C0211104C012C081EE0E94371D809184
:100B7000A201882319F085EE0E94371D81EE0E94A4
:100B80009E1D83E30E949E1D83E31CC181EE0E9493
:100B90009E1D8DE20E949E1D8DE22AC1882309F4CC
:100BA000C0C68091AC0291E0382F327081FF90E096
:100BB0009093A30191E0282F207285FF90E09093FD
:100BC000A201311103C0211104C012C081EE0E94A4
:100BD000371D8091A201882319F085EE0E94371DF0
:100BE00081EE0E949E1D80E30E949E1D80E3EAC06C
:100BF00080E30E949E1D80E3AFCE882309F491C656
:100C00008091AC0291E0382F327081FF90E0909398
:100C1000A30191E0282F207285FF90E09093A2011C
:100C2000311103C0211104C012C081EE0E94371D92
:100C30008091A201882319F085EE0E94371D81EE74
:100C40000E949E1D82E30E949E1D82E3BBC082E340
:100C50000E949E1D82E380CE882309F462C68091A3
:100C6000AC0291E0382F327081FF90E09093A301A5
:100C700091E0282F207285FF90E09093A20131111E
:100C800003C0211104C012C081EE0E94371D809163
:100C9000A201882319F085EE0E94371D81EE0E9483
:100CA0009E1D89E80E949E1D89E88CC087E80E94ED
:100CB0009E1D87E851CE882309F433C68091AC028B
:100CC00091E0382F327081FF90E09093A30191E082
:100CD000282F207285FF90E09093A201311103C06C
:100CE000211104C00FC081EE0E94371D8091A20126
:100CF000882319F085EE0E94371D84E30E949E1D13
:100D000084E3E5CD83E30E949E1D83E325CE882303
:100D100009F407C68091AC0291E0382F327081FF50
:100D200090E09093A30191E0282F207285FF90E03E
:100D30009093A201311103C0211104C012C081EEB1
:100D40000E94371D8091A201882319F085EE0E9430
:100D5000371D81EE0E949E1D8FE10E949E1D8FE136
:100D600031C081EE0E949E1D84E20E949E1D84E29D
:100D70003FC0882309F4D5C58091AC0291E0382F9B
:100D8000327081FF90E09093A30191E0282F2072B0
:100D900085FF90E09093A201311103C0211104C09E
:100DA00015C081EE0E94371D8091A201882319F0A1
:100DB00085EE0E94371D81EE0E949E1D8FE20E94EB
:100DC0009E1D8FE20E94371D81EE81CD81EE0E9433
:100DD0009E1D8EE20E949E1D8EE20AC0882309F4A9
:100DE000A0C581EE0E949E1D89E30E949E1D89E39D
:100DF0000E94371D81EEB0CD81608093DD0161E0FE
:100E000086952BC0F7018281882309F4A9C110922D
:100E1000A4010230FCE51F0708F052C080912103B5
:100E200006312CE5120709F48BC182720D3C3CE5BA
:100E3000130709F455C208F4A4C1023D8CE5180754
:100E400009F46FC508F0EFC10F3CACE51A0709F4CF
:100E50004EC208F0DBC161E081E00E947B0F61C5FA
:100E6000043F2CE5120799F406E221EE40EE64EF10
:100E70007CE509C0083DACE51A0721F606E221EE43
:100E800041EE68ED7CE5C7010E9407244AC5053F95
:100E90003CE5130708F035C1093D8CE5180731F42E
:100EA00007E225EE45EE69ED7CE5EDCF0A3D9CE5D8
:100EB000190701F708E221E045EE6AED7CE5E3CF92
:100EC00006312CE5120730F0C8018B5F9C4509976D
:100ED00008F0A4CF0E94DE289093AE018093AD016C
:100EE00000313CE5130709F4C3C008F041C00830E5
:100EF0009CE5190709F49AC0F0F40430BCE51B071F
:100F000009F487C068F40230FCE51F0709F477C0D4
:100F100003301C4509F0E5C08091AD01826076C0C8
:100F200006303CE5130709F46EC008F07BC08091E1
:100F3000AD0188606BC00C309CE5190709F485C0D1
:100F400068F40A30BCE51B0709F474C008F079C0E6
:100F50000E942C1D8091AD01806858C00E30FCE5C8
:100F60001F0709F476C008F07FC08091AD018BC0E7
:100F70000C3F3CE5130709F44FC018F503319CE51D
:100F8000190709F47DC078F40131BCE51B0709F4A9
:100F900073C002311C4509F0A4C00E942C1D809131
:100FA000AD018F7733C00531FCE51F0709F472C02E
:100FB00008F486C00B3F1C4509F093C08091AE0138
:100FC0003EC001158DE5180709F45FC058F40E3FC7
:100FD000ACE51A0709F444C008F43FC08091AE01A3
:100FE00082602DC00230EDE51E0709F475C008F4DB
:100FF0005DC003301D4509F074C060E06EC0809193
:10100000AD01816003C08091AD0180618093AD012D
:1010100068C08091AD0111C08091AE018260809363
:10102000AE015FC08091AD018062F0CF8091AD01D3
:101030008064ECCF8091AD0188608460E7CF8160EF
:10104000EECF8091AD018E7FE1CF8091AD018D7F9C
:10105000DDCF8091AD01877FD9CF8091AE0118C0DF
:101060008091AE018D7FDBCF8091AD018F7ECECFA1
:101070008091AD018F7DCACF8091AD018F7BC6CFAE
:101080008091AD01877F8B7FC1CF8091AE018D7F35
:101090008E7FC5CF8091AD0182FB222720F991E0A0
:1010A000922790FB82F990FB83F9B0CF8091AE013B
:1010B000982F909591708E7F892B90FB81F9AFCFFF
:1010C0000E942C1D8091AD0187FB222720F991E021
:1010D000922790FB87F99ACF61E08EE090E00E9422
:1010E000D52B6091AD011091AE0184E090E00E949B
:1010F000D52B612F82E290E00E94D52B0E942C1DFF
:1011000010C4063FBCE51B0731F406E221EE42EEB7
:1011100066EF7CE5B8CE063FECE51E0730F407E24B
:1011200025EE44EE65EF7CE5AECE073FFCE51F07FC
:1011300009F068CE07E225EE46EE67EF7CE5A3CE28
:101140008A7A91E009F490E09093A501882311F048
:1011500065E301C069E28CEA92E00E94C4280EC0F7
:1011600006311C4509F010C18091A501882309F4BE
:10117000F6C365E38CEA92E00E94B7280E946029DA
:10118000D0C3073CACE51A0709F496C0D8F4043C78
:10119000ECE51E0709F486C030F4033C2CE5120789
:1011A00009F461C0B2C0053C3CE5130709F47FC0F7
:1011B000063C9CE5190709F0A8C04BE65FE068E72C
:1011C0007FE092C00A3CACE51A0709F47FC078F4CE
:1011D000083CECE51E0709F474C0093CFCE51F0758
:1011E00009F093C045E55FE069E47FE07DC00B3C1A
:1011F0002CE5120709F46FC00C3C3CE5130709F01D
:1012000084C04BEC5DE06CED7DE06EC0003DECE534
:101210001E0709F46FC0013DFCE51F0709F075C00A
:101220006EE089E06FC0053D2CE5120709F468C047
:1012300068F4033D8CE5180709F45FC0043D9CE5A4
:10124000190709F062C061E082E107CE063DACE516
:101250001A0709F466C30E35BDE51B0709F055C032
:1012600062E28DE14FC08091DD0180FFC5CD8E7FB0
:101270008093DD016091DD017091DE018091DF01DD
:101280009091E0010E94B90D1092E301EFEFF0E7B9
:1012900002E0E150F0400040E1F700C000000E9491
:1012A000C3243FC349ED5FE062EE7FE01DC042EE24
:1012B0005FE069ED7FE018C048E75FE06BE67FE044
:1012C00013C049E45FE065E57FE00EC047E35FE0FF
:1012D00066E47FE009C046E45FE067E37FE004C0C6
:1012E0004CED5DE06BEC7DE00E94A7241AC365E045
:1012F00082E008C068E086E005C061E18FE002C0DE
:101300006CE183E10E9495240CC30B352DE5120797
:10131000B1F150F401158CE51807A9F00F3D1C45FB
:1013200099F50E94EF28FDC20C35ADE51A0749F189
:101330000D351D4549F58091AE0182FB882780F966
:1013400091E089271FC00E942C1DEFEFF4E30CE011
:10135000E150F0400040E1F700C0000087E797E768
:1013600090930108809300089AE088E10FB6F89402
:10137000A895809360000FBE90936000FFCF81E03E
:1013800001C080E00E948D29D70112968C9112979E
:101390000D911C91882349F0C8010E94A729D82EDD
:1013A000682FC8010E94212A04C0C8010E94F429A4
:1013B000D82EB8018D2D0E9447118C01982EF7016F
:1013C000D280A580A2942FE0A22280911E03877074
:1013D00099F0DD2089F0812F807F803421F080E238
:1013E000800F883048F082E00E947E2A80911E03A0
:1013F0008770CC24C3948111C12CB12EB2949FE08C
:10140000B9228B2D90E08C30910508F04BC2FC0185
:10141000E959FF4F0C94E92F812F807F1F7088239B
:1014200011F01295107FDD20B9F0112309F425C2C7
:1014300080E2800F883010F0911006C08091210367
:10144000182B1093210305C080912003182B1093B3
:1014500020030E94602911C2802F0E94371D112392
:1014600009F420C2005E1095083010F0911006C0FB
:101470008091210318231093210305C0809120033C
:101480001823109320030E9460290CC2812F807FB3
:101490001F70803211F01295107F992021F0F1E039
:1014A0009F1601F12EC0DD20A1F080912203AA2019
:1014B00071F001E0A0120BC0182B9091AE0192FDCB
:1014C000F1C1181709F4EEC110932203EBC1812B6F
:1014D00010C0AA2021F021E0A21609F4E3C10E9465
:1014E0005A292AC0DD2041F035E03A1508F4DAC166
:1014F000812F0E94421BD6C184E08A1508F4D2C114
:101500001BC0DD2061F0AA2099F3D70115968C91BC
:10151000159780FFB2C18F7015968C93E9CFAA20E2
:1015200059F0093309F0BBC1BFEFE7EEF3E0B1506A
:10153000E040F040E1F7B1C1812F0E94371BB2C1FA
:10154000812F86958695837019F0813059F0AAC154
:10155000DD2019F0C801937002C080E090E00E9485
:10156000E523A8C1DD2019F0C801937002C080E016
:1015700090E00E94CF239EC1802FDD2019F00E94B1
:10158000EC1002C00E9433100E94091093C1812FF9
:10159000837009F069C0D11089C1902F92959695FA
:1015A0009770990F990F802F8F70882E912CA12CF6
:1015B000B12C092E04C0880C991CAA1CBB1C0A94CF
:1015C000D2F704FF12C04FE050E060E070E004C0CA
:1015D000440F551F661F771F9A95D2F7DB01CA018A
:1015E00080959095A095B09503C080E090E0DC01D7
:1015F00016951695412F4370423019F1C8F40091A9
:1016000023031091240320912503309126034130B8
:1016100059F088299929AA29BB29BC01CD01602349
:101620007123822393230AC0802A912AA22AB32AF3
:10163000BC01CD01682979298A299B290E94BC2AED
:1016400035C188299929AA29BB2900912303109122
:1016500024032091250330912603BC01CD0160278E
:10166000712782279327EACFDD2019F0812F81701F
:1016700001C08695882309F419C1902F92959695FB
:101680009770990F990F802F8F70882E912CA12C15
:10169000B12C092E04C0880C991CAA1CBB1C0A94EE
:1016A000D2F704FF12C04FE050E060E070E004C0E9
:1016B000440F551F661F771F9A95D2F7DB01CA01A9
:1016C00080959095A095B09503C080E090E0DC01F6
:1016D00016951695412F43704230D9F068F5009168
:1016E000A9011091AA012091AB013091AC014130C8
:1016F00059F088299929AA29BB29BC01CD01602369
:101700007123822393231EC0802A912AA22AB32AFE
:1017100013C088299929AA29BB290091A9011091F0
:10172000AA012091AB013091AC01BC01CD01602731
:1017300071278227932706C0BC01CD01682979292A
:101740008A299B290E944D2AB1C01F70DD2039F0E3
:10175000812F0E949B2A802F0E94421BA7C0802FAE
:101760000E94371B812F0E94592AA0C0802F22EF90
:10177000921609F440C0291538F030EF931661F045
:1017800091EF991699F174C0A3EF9A16D9F1B4EFBD
:101790009B1609F44EC06CC0DD2019F1E4E0EA1597
:1017A00008F480C01F7181E090E0A0E0B0E0AC01DF
:1017B000BD0104C0440F551F661F771F1A95D2F74D
:1017C0008091A9019091AA01A091AB01B091AC01C7
:1017D0008A019B01082719272A273B27C901B8013D
:1017E00025C025E02A1508F45DC0DCCFDD2029F0F6
:1017F000812F8F7130C0DD20D9F3812F8F710E942E
:10180000592A50C0DD2079F01F7181E090E0A0E0FE
:10181000B0E0BC01CD0104C0660F771F881F991F7F
:101820001A95D2F703C060E070E0CB010E944D2A08
:1018300039C0DD2099F01F71812F0E949B2A809171
:10184000AE0182FD07C038E0139FC0011124836000
:1018500080931E03812F0E949B2A24C081E00E9456
:101860007E2A81E08A15F0F482E00E947E2A1AC066
:10187000DD2039F0AA2009F4BBCF802F0E949E1DE5
:1018800011C0AA2009F4B9CF893349F49FEFA7EE1C
:10189000B3E09150A040B040E1F700C00000802FBD
:1018A0000E94371D88EF8B0D843020F40E94FB23AB
:1018B0000E948E13CC20A9F080911E0380FD11C0E0
:1018C000F70112828595859585950E949B2AC7010F
:1018D0000E94C50380911E038595859585950E947C
:1018E000592A85E0F701DE01119601900D928A9543
:1018F000E1F789819A810E94F4299A8100E5809F0D
:10190000F001112415E0919FE00DF11D1124898152
:10191000E80FF11DEE0FFF1FE45AFE4F85919491E1
:1019200020C080911E038770E1F0D70112968C9140
:101930008823B9F082E02A960FB6F894DEBF0FBE76
:10194000CDBFDF91CF911F910F91FF90EF90DF906E
:10195000CF90BF90AF909F908F900C947E2A69E2B9
:1019600009CC2A960FB6F894DEBF0FBECDBFDF912B
:10197000CF911F910F91FF90EF90DF90CF90BF908C
:10198000AF909F908F9008959091AD0192FF0DC000
:10199000282F2871283019F4877F846006C0282FEB
:1019A0002471243011F48B7F886093FF0DC0282FA1
:1019B0002871283119F4877E846106C0282F24718C
:1019C000243111F48B7E88612091AE0120FF0DC07F
:1019D000382F3871383019F4877F816006C0382F6E
:1019E0003171313011F48E7F886021FF0DC0282FB6
:1019F0002871283119F4877E816106C0282F217152
:101A0000213111F48E7E886194FD877E0895CF92F6
:101A1000DF92EF92FF926C01EE24FF24C114D104F7
:101A2000E104F10421F0C701B60120E101C020E08A
:101A3000C72ED82EE92EFF24C114D104E104F104ED
:101A400019F0285FC701B6016B017C0154E0F694E0
:101A5000E794D794C7945A95D1F7C114D104E104FF
:101A6000F10419F02C5FC701B6016B017C0142E063
:101A7000F694E794D794C7944A95D1F7C114D1044A
:101A8000E104F10419F02E5FC701B601DC01CB01BE
:101A9000B695A79597958795892B8A2B8B2B09F05F
:101AA0002F5F822FFF90EF90DF90CF9008959C01E1
:101AB0003A9521153F4138F5DC01AA27B270AC01F7
:101AC000442754709C012227387094FF0FC090FF68
:101AD00002C080E101C080E0AB2B09F08062452BA1
:101AE00009F08064232B69F080680BC0892F817016
:101AF000AB2B09F08260452B09F08460232B09F0A1
:101B00008860FB01099408959091DD0190FF16C053
:101B10009091060120910701921770F4E92FF0E0EF
:101B2000DF01AA0FBB1FEA0FFB1FEA5DFD4F818398
:101B3000608342839F5FF0CF0C94C324089580910B
:101B4000DD01282F269530E02115310519F481702B
:101B5000826005C02332310524F081708464809353
:101B6000DD018091E001813A18F080EA8093E00184
:101B70000895CF92DF92EF92FF926B017C010E9459
:101B80009F0DB701A60188E090E0FF90EF90DF90F5
:101B9000CF900C94E72B8091E101882319F08150BC
:101BA0008093E1016091DD017091DE018091DF01A0
:101BB0009091E0010C94B90D8091E101833018F40B
:101BC0008F5F8093E1016091DD017091DE01809172
:101BD000DF019091E0010C94B90DEDEDF1E083E0AF
:101BE000808311828FEF828380EA838314826081F5
:101BF0007181828193810C94B90DAF92BF92CF9283
:101C0000DF92EF92FF920F931F93CF93DF93E82E13
:101C1000F62EE901E42FF0E0611106C0E458FB4F15
:101C2000E4914E2F2E2F71C0062F10E0E458FB4F89
:101C30004491F42FC42ED12C26E0829FC0011124A0
:101C40002FEF30E0B9010E94C12F5BEA5603C001BB
:101C5000579F900D11248E0D911D8E0D911D582FA3
:101C6000550F580FD901A01BB10BAC9DC001AD9D04
:101C7000900DBC9D900D1124E92FF59ED0011124EB
:101C8000AB2FBB277901EA1AFB0AEC9CD001ED9C33
:101C9000B00DFC9CB00D11245901A51AB108A09EED
:101CA0007001A19EF00CB09EF00C1124EF2CFF24CB
:101CB0002E193F092C9D80012D9D100D3C9D100D6E
:101CC0001124212F6230710591F048F461157105DE
:101CD000E1F061307105B9F4242F4B2F16C0643048
:101CE000710569F040F06630710579F00CC0242F61
:101CF000492FE12F0AC0492FEF2F2B2F06C0292F84
:101D0000E42F412F02C0292FEB2F49832883EA8338
:101D1000DF91CF911F910F91FF90EF90DF90CF90C7
:101D2000BF90AF900895AF92BF92CF92DF92EF92A3
:101D3000FF920F931F93CF93DF9300D01F92CDB7E5
:101D4000DEB7082FF62E142FE22E9091DD0190FFC2
:101D500074C0E92FE695AE2FB0E0AE5DBE4F8C911A
:101D60008093E2019E7F923081F4413A08F040EA8C
:101D70009E012F5F3F4F6F2D802F0E94FD0D4B81E5
:101D800069818A810E94840D46C0823019F41091C5
:101D9000E00141C0863019F40091DE013CC0893079
:101DA000D9F38331C1F5E3518E2F8170D82EE6959A
:101DB000F0E0E458FA4FA590B490C12CBB24609198
:101DC0000801C61630F52C2D30E0A29EC001A39E5E
:101DD000900DB29E900D112470E00E94C12F802FB3
:101DE000D11002C0860F01C0861B90910601290FF9
:101DF000311DA901440F551F240F351F2A5D3D4F8A
:101E0000412F113A08F040EA6F2D0E94FD0DC39456
:101E1000D6CF0E94C3240093DE01F092DF0110931D
:101E2000E001EE2051F06091DD017091DE018091C2
:101E3000DF019091E0010E94B90D0F900F900F907B
:101E4000DF91CF911F910F91FF90EF90DF90CF9096
:101E5000BF90AF900895EDEDF1E0438120E1421B8A
:101E600008F440E0282F628181810C94930E81E078
:101E70000C942B0FEDEDF1E0438120E1420F08F4CB
:101E80004FEF282F628181810C94930E81E00C9496
:101E90003A0FEDEDF1E0628120E1621B08F460E0B1
:101EA00021E0438181810C94930EEDEDF1E062819C
:101EB00020E1620F08F46FEF21E0438181810C94EF
:101EC000930EEDEDF1E09181282F438162818CEF3B
:101ED000890F0C94930E81E00C94610FEDEDF1E00D
:101EE0009181282F4381628184E0890F0C94930EA5
:101EF00081E00C946E0F9091DD0190FF36C09170DF
:101F0000811102C0926006C0833210F0946402C056
:101F1000880F982B9093DD01662351F06091DD01CD
:101F20007091DE018091DF019091E0010E94B90D76
:101F30006091DD01669570E04BE050E084E191E056
:101F40000E94FE2F892B19F01092E30102C00E941B
:101F5000AD2481E08093DA0120E04091E0016091BE
:101F6000DF018091DE010C94930E089521E030E0B2
:101F7000A90102C0440F551F8A95E2F7CA012091BA
:101F8000E401662311F0822B02C0809582238093A6
:101F9000E4018091E301811106C08091DD0160E0E0
:101FA00086950E947B0F8091DD0180FF0C94C324F5
:101FB00008958091DD018695815009F482E261E007
:101FC0000C947B0F8091DD0186958F5F833208F042
:101FD00081E061E00C947B0FCF93DF9300D01F92E0
:101FE000CDB7DEB79091DD0190FF0DC0413A08F00A
:101FF00040EA9E012F5F3F4F0E94FD0D4B8169819A
:102000008A810E94840D0F900F900F90DF91CF91E5
:1020100008950E9482282091F701211104C0209187
:10202000F801222321F09093F4018093F301209191
:10203000F901211104C02091FA01222321F090938B
:10204000F1018093F001E091C201F091C30130975A
:1020500049F082E08093F5010480F581E02D85EF61
:1020600091E0099408958D3E39F49091F80197FF1D
:1020700035C01092F80159C08E3E29F49091F801B4
:102080001916BCF32BC09091F7018F3E29F497FFEE
:1020900025C01092F70149C0803F19F41916CCF3FE
:1020A0001DC09091F901893F29F41916BCF41092D2
:1020B000F9013BC08A3F19F497FF10C0F8CF8B3F5E
:1020C00039F49091FA0197FF09C01092FA012DC0DE
:1020D0008C3F21F49091FA011916BCF39FE0980F00
:1020E000983080F421E030E0A90102C0440F551F70
:1020F0009A95E2F7CA0180959091F6018923809321
:10210000F60113C08D3F21F480910D028E7F0BC02C
:102110008E3F21F480910D028D7F05C08F3F29F401
:1021200080910D028B7F80930D028091F7018111C8
:1021300006C08091F801811102C01092F2018091D5
:10214000F901811106C08091FA01811102C010923B
:10215000EF01089580910D0280FD16C081FD16C02B
:1021600082FD18C08091EF01882391F0883290F4AD
:1021700028E0829FC001112468E270E00E94D52F00
:10218000862F672B29F007C082E0089584E0089528
:1021900081E0089588E0089580910D0280FD14C0CB
:1021A00081FD14C082FD16C08091F201882381F068
:1021B000843180F422E3829FC001112464E170E045
:1021C0000E94D52F862F08958CE0089589E1089507
:1021D00085E0089582E308958D3E21F40E94CC109D
:1021E000819504C08E3E29F40E94CC108093F801A2
:1021F00008958F3E21F40E94CC10819504C0803F49
:1022000029F40E94CC108093F7010895893F19F4B6
:102210000E94AA1005C08A3F31F40E94AA1081953D
:102220008093F90108958B3F21F40E94AA108195B3
:1022300004C08C3F29F40E94AA108093FA010895EB
:102240009FE0980F983078F421E030E0A90102C0B7
:10225000440F551F9A95E2F7CA019091F601892B18
:102260008093F60108958D3F21F480910D028160E5
:102270000BC08E3F21F480910D02826005C08F3F1C
:1022800029F480910D02846080930D020895CF930C
:10229000DF9320E5829FC0011124FC0145E0749F7B
:1022A000E00DF11D1124E60FF11DEE0FFF1FE45AA2
:1022B000FE4FC591D491CE01C238D10569F1B0F479
:1022C000C133D10509F475C048F4C932D10509F408
:1022D00069C0CA32D10509F473C085C0C533D105C0
:1022E00009F459C0C933D105B9F07DC0C33ED10549
:1022F00071F138F4C03ED105B1F0C23ED10511F103
:1023000072C0C63ED105B9F1C73ED105C9F1C43E80
:10231000D10509F068C024C02091AD0120FD5DC049
:1023200021FD5BC060C02091AD0120FD50C0209117
:10233000AE0120FF51C18091AD0184FD4BC183EE00
:1023400090E04AC12091AD0122FF46C1F4CF8091B7
:10235000AD0182FD3FC08091AE0180FD3EC0EBCF5C
:102360002091AE0121FF38C18091AD0184FD32C1C1
:1023700087EE90E031C12091AD0123FF2DC1F4CF54
:102380008091AD0183FD2CC08091AE0181FFECCF27
:1023900084EE90E021C12091AD0125FF1DC189E2AD
:1023A00090E01AC12091AD0125FF16C185E390E0B0
:1023B00013C12091AD0126FF0FC18AE290E00CC14C
:1023C0002091AD0126FF08C181E390E005C189E3BA
:1023D00090E002C182EE90E0FFC080EE90E0FCC091
:1023E00086EE90E0F9C0C11551E5D50708F06CC044
:1023F000C11520E5D207F0F0CE01F4E0969587955F
:10240000FA95E1F7282F23703C2F337081E090E09C
:1024100002C0880F991F3A95E2F79C68922B2C2FE7
:102420002F702695269550E2259F90011124822B2E
:10243000932BD2C0C83ED10570F5C03ED10508F03F
:10244000CBC0C83AD105B8F4C53AD10550F02C2F0D
:10245000255AC22FD0E0C259DE4F888190E09064A7
:10246000BBC0C130D10509F4B7C008F4B3C024978C
:1024700008F4B0C0B1C0CF3BD10508F0ABC02C2FE1
:10248000285AC22FD0E0CC0FDD1FCF58DE4F8881F5
:1024900099819464A1C0C11540E2D40760F4C115CC
:1024A00051E0D50708F098C0CD3ED10508F492C0A0
:1024B000CE01906591C0C11580E4D80708F48AC0A8
:1024C000CE019F70906A88C0C11525E5D20708F03B
:1024D00040C0C11544E5D40728F09C2F8827846F9D
:1024E000906A7AC0C11553E5D507A8F09E01237004
:1024F000332781E090E002C0880F991F2A95E2F708
:102500002C2F2695269550E2259F90011124822B91
:10251000932B9A6861C0C11582E5D80728F49C2FD7
:102520008827816F906A58C09E012370332781E00D
:1025300090E002C0880F991F2A95E2F72C2F26956C
:10254000269540E2249F90011124822B932B9C68B6
:1025500043C0C11529E5D207B0F4C11548E5D40739
:1025600028F09C2F8827806F906A36C0C11556E5E9
:10257000D50780F58C2F0E94C40C8F7190E0982FA6
:102580008827906229C0C1158AE5D80790F48C2F5E
:102590008F700E94C40C9E0194E0369527959A9501
:1025A000E1F72F7030E0322F22273069A901482B44
:1025B0000FC0CE0190568115904260F48D2F8F711F
:1025C0000E94C40C9E01332730628F71A901582BE1
:1025D000CA0102C080E090E0DF91CF910895CF92D0
:1025E000DF92EF92FF926B017C016115710581050D
:1025F000910561F0DC01CB0143E0B695A795979575
:1026000087954A95D1F7682F617001C060E081E03D
:102610000E94B60FC114D104E104F10461F0D701A6
:10262000C60132E0B695A795979587953A95D1F76B
:10263000682F617001C060E082E00E94B60FC11493
:10264000D104E104F10461F0D701C60124E0B6959C
:10265000A795979587952A95D1F7682F617001C046
:1026600060E083E00E94B60F609123037091240321
:1026700080912503909126030E94070D882341F045
:10268000813031F42CE232E040E36FEF89EA05C09B
:102690002CE232E040E16FEF85E50E94FD0DC701BD
:1026A000B6010E94070D833051F0843071F0823002
:1026B00099F42CE232E040E56FEF80E10BC02CE2B0
:1026C00032E040E56FEF85E505C02CE232E040E600
:1026D00060E884E90E94FD0DC701B601FF90EF900C
:1026E000DF90CF900895CF93C82F26E232E081FF8C
:1026F00002C040E601C040E16FEF80E00E94FD0DA6
:1027000029E232E0C0FF02C040E501C040E16FEFC6
:1027100080E20E94FD0DCF910C94C324CF93C82F6B
:102720000E947313C1FB662760F980E0CF910C947F
:10273000B60F0F931F93CF93DF93D62F811117C03E
:102740006091A9017091AA018091AB019091AC01B7
:102750000E94070D843049F480E0DD2319F00E94C7
:102760003A0F21C00E942B0F1EC0CD2F1CC08130FC
:10277000D1F46091A9017091AA018091AB0190916F
:10278000AC010E94070D843049F480E0DD2319F08C
:102790000E946E0F08C00E94610F05C0D11102C0D7
:1027A000C2E001C0C3E08C2F9FE00E94A729EC2F5C
:1027B000F0E090E5899FE00DF11D1124EE0FFF1F61
:1027C000EE50FE4FC591D4918E01005E1109083084
:1027D000110510F0209719F462E47BE102C06DE26C
:1027E0007BE1CE010E94570D8C2F0E949E1D8C2FE5
:1027F0000E94371D0830110510F0209719F467E387
:102800007BE102C062E27BE1CE010E94570D81E0D4
:10281000DF91CF911F910F9108952F923F924F9288
:102820005F926F927F928F929F92AF92BF92CF9260
:10283000DF92EF92FF920F931F93CF93DF9300D01D
:1028400000D000D0CDB7DEB72FEA822E21E0922E45
:1028500037EBE32E31E0F32ED40125E431E03A8367
:102860002983B12C61E070E06D016C901C92E981CC
:10287000FA818191FA83E983E82FE295EF702E2F98
:1028800030E03C832B83F90121A18F70AB0102C0A2
:10289000440F551F8A95E2F7CA01242B21A322A1D8
:1028A000A42EA0942A2122A350EA5A95F1F795E587
:1028B000292E91E0392E810140E050E0F80171901D
:1028C0008F01272D22952F7030E0F90120A15C9017
:1028D00030E0F72DFF7002C035952795FA95E2F7A5
:1028E00020FD07C0262F042E01C0220F0A94EAF70C
:1028F00001C020E0522A5C924F5F5F4F4530510586
:10290000E9F6EB81FC8191A1A922A1A292A1892BD8
:1029100082A3119681E0F6019081961101C080E0BA
:10292000B82AEA16FB0609F09FCF40E050E061E0CC
:1029300070E08FEB482E81E0582ED1018D911D0162
:10294000E82FE295EF70F0E021A18F70DB0102C06B
:10295000AA0FBB1F8A95E2F7CD012A2B21A322A142
:10296000FA2EF0942F2122A3B0EABA95F1F79B0139
:10297000042E01C0220F0A94EAF7A22EE22EE09460
:102980000FEB11E027EB31E03E832D83A5E4B1E0AE
:10299000BC83AB83C12C2D813E813A832983D9012D
:1029A000DC90AB81BC817D90BC83AB83272D2295CD
:1029B0002F7030E0D90190962C9130E0B72DBF7088
:1029C00002C035952795BA95E2F720FD03C02D2D5D
:1029D0002A2902C02D2D2E21AD81BE812C932D815F
:1029E0003E812F5F3F4F3E832D83A981BA812C9179
:1029F000D21611F0CC24C3942D813E814216530689
:102A000051F691A1F922F1A292A1892B82A3BC28AF
:102A10004F5F5F4F4530510509F08FCFBB2049F024
:102A200081E08093A8010E9482289093A70180935F
:102A3000A6018091A801882399F08091A601909128
:102A4000A7010E947328069758F0E7ECF1E0D40143
:102A50008D914D0181930A171B07C9F71092A801A8
:102A60008B2D26960FB6F894DEBF0FBECDBFDF913B
:102A7000CF911F910F91FF90EF90DF90CF90BF907B
:102A8000AF909F908F907F906F905F904F903F900E
:102A90002F900895BC0184E00C9416282091E40046
:102AA0003091E50095E64091EC00842F817040FF65
:102AB00023C08091E80080FD1DC080911B02882307
:102AC00099F0853099F08091EB0085FD11C040911F
:102AD000E4005091E5002417350729F3915011F0D7
:102AE0009A01E1CF84E0089582E0089583E008959B
:102AF00081E0089580E008954091E80042FFDDCF35
:102B0000089580911D0287FF11C08091E80082FD29
:102B100005C080911B028111F8CF11C08091E8009F
:102B20008B770BC080911B02882349F08091E800CD
:102B300080FFF8CF8091E8008E778093E8000895B9
:102B4000982F973068F59093E900981739F07091B5
:102B5000EC002091ED005091F00003C0242F762F5F
:102B600050E021FD02C09F5FECCF3091EB003E7F33
:102B70003093EB003091ED003D7F3093ED003091CC
:102B8000EB0031603093EB007093EC002093ED008C
:102B90005093F0002091EE0027FDE5CF80E00895EE
:102BA0008F708093E90081E0089520912302309195
:102BB00024022617370748F06115710539F4209172
:102BC000E8002E772093E80001C0B901FC0120E065
:102BD0006115710579F180911B028823F1F185302F
:102BE000F1F18091E80083FD3CC08091E80082FD16
:102BF0002EC08091E80080FFEBCF2091F300809100
:102C0000F20090E0922B6115710551F0883091052A
:102C100038F421912093F100615071090196F3CFAE
:102C200021E0089709F020E08091E8008E778093FA
:102C3000E800CECF2111CFCF0AC080911B0288239C
:102C400061F0853061F08091E80083FD0AC08091D9
:102C5000E80082FFF2CF80E0089582E0089583E0EB
:102C6000089581E00895CF93DF93CDB7DEB76097E5
:102C70000FB6F894DEBF0FBECDBF84B7877F84BF89
:102C80000FB6F894A89580916000886180936000E9
:102C9000109260000FBE90E080E80FB6F894809329
:102CA0006100909361000FBE85B7806885BF85B7CE
:102CB000806885BF89EC97E29093A1018093A00181
:102CC0000E9492210E94B1218091E2008460809351
:102CD000E200789480911B028823A1F01091E90012
:102CE0001F709091EC00892F817090FD80E8182B67
:102CF0001092E9008091E80083FD0E94851E1F70FC
:102D00001093E90082E084BD93E095BD9AEF97BDF2
:102D100080936E00A5E4B1E025E531E0AD0101E06E
:102D200010E0FA018191AF01E82FE295EF70F0E039
:102D300061A18F70580102C0AA0CBB1C8A95E2F7F2
:102D4000C5019A2D9095962391A392A1892B82A3D8
:102D50002417350731F745E551E06AE571E08A014E
:102D6000EE24E394F12CF80181918F01E82FE29594
:102D7000EF70F0E0D1A08F70570102C0AA0CBB1C0D
:102D80008A95E2F7C5019A2D90959D2191A392A174
:102D9000892B82A36017710731F701E010E0FA0177
:102DA0008191AF01E82FE295EF70F0E0F1A08F7014
:102DB000580102C0AA0CBB1C8A95E2F7C5019A2DE6
:102DC00090959F2191A392A1892B82A364177507E7
:102DD00031F761E070E08D91E82FE295EF70F0E05F
:102DE00041A18F706B0102C0CC0CDD1C8A95E2F70B
:102DF000C6019C2D9095942391A392A1892B82A327
:102E00002A173B0741F7EFEAF1E08FEB91E0A7ECDF
:102E1000B1E011921D928E179F07D9F780E090E0E4
:102E20000E94CF2B8A3E9E4F11F00E94EF2882E035
:102E300090E00E94C12B8093FC010E94DE289093B9
:102E4000AE018093AD0183E090E00E94C12B682F1A
:102E500070E080E090E00E94BC2A6091A90170912E
:102E6000AA018091AB019091AC010E94EF12809178
:102E7000BF01811136C080E090E00E94CF2B8A3ED6
:102E80009E4F21F00E94EF280E94ED0D88E090E017
:102E90000E94C92B6093DD017093DE018093DF01F6
:102EA0009093E0016E7F71F40E94ED0D88E090E058
:102EB0000E94C92B6093DD017093DE018093DF01D6
:102EC0009093E0010E949F0D1092E3018091DD013B
:102ED00080FF04C060E086950E947B0F81E08093B4
:102EE000BF010BEE802E01E0902E4AE651E02CE669
:102EF00031E089EE682E81E0782E61E070E0861482
:102F0000970409F44EC0F901A1919F018A2F82957F
:102F10008F7090E0FC01F1A0AF70EA2E8B0101C030
:102F2000000FAA95EAF7F02FF095FF22DC019196A9
:102F3000FC9291979296AC91A02BFC01A2A3DA018E
:102F4000FD90AD01EF2DE295EF70F0E0B1A0BF2D47
:102F5000BF70FB2E6B0101C0CC0CBA95EAF7DC2CDC
:102F6000D094DB20D1A2D2A0CD28C2A2DC019096C1
:102F70008C9190E002C095958795EA94E2F7817074
:102F8000E0A1F0E002C0F595E795FA94E2F7E0FDE4
:102F900002C090E001C092E0892BF30181933F01D0
:102FA000AECF89EA95E09093C1018093C00183E0A0
:102FB0008093060180E1809307018DE080930801F2
:102FC00083E00E947313FFEF03EC19E0F15000401F
:102FD0001040E1F700C0000080E00E94731389E018
:102FE00091E09093C3018093C20112E0412E512CD5
:102FF00080911B02853009F082C0FF24F39400E128
:1030000012E180911B02853009F05CC080911B02A7
:10301000843009F443C080E00E948E131092E301D3
:103020008091C601811116C0F092C6018091DD0128
:10303000982F91709093C5018E7F8093DD012FEFC3
:1030400030E742E0215030404040E1F700C000004E
:103050000E94C3241092C40188E190E0A0E40FB65E
:10306000F894A895809360000FBEA093600083B78A
:10307000817F846083BF83B7816083BF78948895A4
:1030800083B78E7F83BF0FB6F894A89580916000B8
:10309000886180936000109260000FBE80911A02D8
:1030A000882309F4AECF0E940D14E7ECF1E0819182
:1030B00081117FC2B7EDAB2EB1E0BB2EAE16BF06BD
:1030C000B1F79FCF0E942C1D0E94FB230E948E13FC
:1030D0001092C6018091C501882351F08091DD01D5
:1030E00081608093DD0160E086950E947B0F05C0C2
:1030F0008091E40181110E94C3240E94AD240E94AA
:103100000D14882359F08FB7F8944091EB0150913A
:10311000EC016091ED017091EE018FBFEDEFF1E0F8
:10312000A7ECB1E000E010E0302F2D9191919227B3
:1031300021F180E0FF24F394492F4F21D1F08F83B8
:1031400038872F2181E009F480E089870E94822856
:103150008160782F9B878A874F81588569858B8509
:103160000E943123F801E350FE4F8081F826F0825F
:1031700019C08F5FFF0C8530F9F60F5F1F4F0031CC
:10318000110591F68FEF8C878D871E860E9482280D
:103190008160782F988B8F874C855D856E858889B7
:1031A0000E9431238091E301882309F483C0809138
:1031B000E201E091DD01E695E81BE093D901823060
:1031C00059F4F0E0E154FA4FE4910E2F10E0AEE133
:1031D000EA2EA3E2FA2E49C0863059F4F0E0E45416
:1031E000FA4FE4910E2F10E0F8EEEF2EF2E2FF2EF0
:1031F0003CC0893061F4E695F0E0E754FA4FE49181
:103200000E2F10E0E8E8EE2EE7E2FE2E2EC08F3003
:1032100059F4F0E0EA54FA4FE4910E2F10E073E114
:10322000E72E77E2F72E21C0823191F08D31B9F48B
:103230008E2F63E00E94B52FE92FF0E0ED54FA4F96
:10324000E4910E2F10E06DE9E62E65E2F62E0DC03A
:1032500008E210E05DE7E52E56E2F52E06C000ED2F
:1032600017E047EEE42E42E2F42E8091DA01882343
:1032700061F01092DA010E9482289093D801809325
:10328000D7011092DC011092DB010E948228E091AC
:10329000D701F091D8018E1B9F0B8F3F9F4750F4B1
:1032A0000E0F1F1F1093D8010093D70187ED91E0F7
:1032B000F701099587EEE82E81E0F82E05EE11E082
:1032C00099EE692E91E0792E2AE6C22E21E0D22EC7
:1032D0003CE6A32E31E0B32E4301212C312CD40146
:1032E0008D914D01E82FEE0FEE0FD5012D915D016F
:1032F000A22FA295AF70B0E090968C9190E02F70C5
:1033000002C0959587952A95E2F79C012170332795
:10331000D6018D916D01A82FA295AF70B0E0909667
:103320004C9150E08F7002C0559547958A95E2F711
:10333000CA018170992740FF02C082E090E0822B91
:10334000932B8E2BF30181933F018F70E82FF0E0D8
:10335000E65AFE4F9081D7018C91890F8C93823071
:1033600054F0F80180818F5F808360E0832D0E949C
:10337000991321E001C020E0D7018C918F3F4CF4DC
:10338000F80180818150808361E0832D0E94991330
:1033900021E0D7018C91082E000C990BB2010E94FC
:1033A000D52FF70181937F01222A33940F5F1F4F9E
:1033B000F2E03F1294CF222059F08FB7F894409159
:1033C000EB015091EC016091ED017091EE018FBF26
:1033D00086E0E5EFF1E0DE01119601900D928A950D
:1033E000E1F7E090F701F090F8010091F9011091F8
:1033F000FA011092F7011092F8011092F90110925F
:10340000FA01E11003C0FF2009F451C08091F301DB
:103410009091F4010E9473289C019091F2019923EC
:1034200009F4DDC02333310508F441C09F3F19F092
:103430009F5F9093F201EE2061F00E94CC101E1469
:1034400014F09FEF01C091E0899F802D112480939B
:10345000F701FF2061F00E94CC101F1414F09FEFC1
:1034600001C091E0899F802D11248093F801309153
:10347000F7013323E1F02091F8012223C1F045EB5D
:103480003403C0011124992319F09093F70103C06C
:1034900081E08093F70135EB2303C00111249923C8
:1034A00019F09093F80103C081E08093F8010111B5
:1034B00003C0112309F451C08091F0019091F101F2
:1034C0000E9473289C019091EF01992309F48CC00C
:1034D0002536310508F441C09F3F19F09F5F909356
:1034E000EF01002361F00E94AA10101614F09FEF64
:1034F00001C091E0899F802D11248093F90111234F
:1035000061F00E94AA10111614F09FEF01C091E023
:10351000899F802D11248093FA013091F901332382
:10352000E1F02091FA012223C1F045EB3403C00100
:103530001124992319F09093F90103C081E080933D
:10354000F90135EB2303C0011124992319F090935D
:10355000FA0103C081E08093FA018091F7018111A3
:103560000BC08091F801811107C08091F901811190
:1035700003C08091FA0181110E940910EB82FC8244
:103580000D831E8386E0FE013196A5EFB1E0019028
:103590000D928A95E1F70E94FB239091FB01891718
:1035A00009F426CD0E94FB238093FB010E948E1319
:1035B0001FCD09BD19BD09B400FEFDCF8091D80013
:1035C0008F7D8093D8008091E00082608093E0003E
:1035D0008091E00081FDFCCF0E942C1D12CD2D3288
:1035E000314008F025CF63CF2D32314008F076CF3F
:1035F000B4CF0E94E929292F2F70E92FE295EF70AF
:103600004E2F50E0FA013297EE30F105B8F4ED5844
:10361000FF4F0C94E92F803F99F018F4883E70F426
:103620000FC0843F59F40CC0883E50F0813F31F404
:1036300007C0822F869586958695089580E0089527
:1036400081E00895882341F080959091200389239B
:10365000809320030C9460290895882339F0909179
:103660002003892B809320030C94602908958823DC
:1036700041F08095909121038923809321030C943C
:1036800060290895882339F090912103892B809334
:1036900021030C94602908958F929F92AF92BF925C
:1036A000CF92DF92EF92FF920F931F93CF93DF930E
:1036B000CDB7DEB761970FB6F894DEBF0FBECDBFB2
:1036C0008C0185E0F801DE011D9601900D928A952E
:1036D000E1F7D801DC901196EC9011971296CC90FE
:1036E0009091B4022091B5024091B7025091B80276
:1036F0004115510531F02F3F31F481E09F3F19F41E
:1037000003C081E001C080E080FD58C1F801A380C2
:10371000B48084EB882E82E0982EF090B602B5013A
:10372000641B750BFF2009F403C18091B902382F87
:10373000307F6837710508F0CDC0311188C02E1177
:1037400012C09D1110C0FC2CC1100DC08F70806183
:103750008093B902C4010E94C5038091B902D801C7
:1037600015968C9348C1A114B10439F0BFEFEB1248
:1037700006C081E0DB1203C003C081E001C080E02D
:1037800080FD03C081E08C2502C080E090E080FFD6
:1037900010C04C2D6E2D8D2D0E94C62A882349F015
:1037A00084EB92E00E94C503E4EBF2E086E0DF01E7
:1037B00099C0AB2839F0BFEFEB1206C081E0DB12F5
:1037C00003C003C081E001C080E080FD03C081E050
:1037D0008C2502C080E090E0E82FE170BE2E80FFD3
:1037E0002CC04C2D6E2D8D2D0E94C62AF82E8111D5
:1037F00024C0DD86EE868D859E850E94E929292FCD
:1038000022952F70223018F0243090F405C09F705C
:1038100059F0811109C0EFC09F7031F0D8011596A1
:103820009C91907F09F4E7C0805E883008F4E3C083
:10383000C8010E94C503FB2CDEC0FC2CCC2009F47F
:10384000DAC08091B90281608093B9024EC02E1116
:1038500006C09D1104C0C11002C0F8018BC0DD86F6
:10386000EE868D859E850E94F91A882369F1CC2009
:1038700059F12091B902822F82958F7090E00297C2
:1038800074F08091B4029091B50298878F83198665
:10389000BB86AA862C87CE0107960E94C50386E0C8
:1038A000F801A4EBB2E001900D928A95E1F70E9435
:1038B000F02A0DC02E15D9F0DD86EE868D859E8509
:1038C0000E94F91A81111DC0C8010E94C503FF247E
:1038D000F39491C03111EECF84EB92E00E94C503C6
:1038E00086E0D4011D928A95E9F7F12C84C09D11E0
:1038F000E3CFC110E1CFF8018583C8010E94C50361
:1039000057C0CC2009F32091B902822F82958F7085
:1039100090E0029724F28091B4029091B5029A83CC
:1039200089831B82BD82AC822E83CE010196B5CFE6
:1039300068377105E8F5FC2CCC2031F22E1127C038
:103940009D1125C02091B90220FD18C0822F8295BB
:103950008F70482F50E04115510581F0F801258303
:103960004F30510541F08F5F982F9295907F822FB5
:103970008F70892B8583C8010E94C50386E0F801FA
:10398000A4EBB2E001900D928A95E1F734C0DD8698
:10399000EE868D859E850E94F91A811180CF8091D7
:1039A000B90281608093B902C8010E94C50323C097
:1039B00086E0D4011D928A95E9F71DC0CC2009F458
:1039C00083CFDD86EE868D859E850E94F91AF82EBE
:1039D000882309F479CF86E0F801A4EBB2E00190E6
:1039E0000D928A95E1F78091B4029091B5020E9400
:1039F000E9290E94F02A8F2D61960FB6F894DEBF58
:103A00000FBECDBFDF91CF911F910F91FF90EF902F
:103A1000DF90CF90BF90AF909F908F90089580E0FF
:103A200090E00E94E52380E090E00E94CF23109276
:103A3000200310921F030E946029E5EFF1E086E069
:103A4000DF011D928A95E9F71092F2011092EF01C1
:103A500010920D020C9409101092210386E0EEEAF8
:103A6000F2E0DF011D928A95E9F70C940F1D88237F
:103A700009F463C0823869F40E94FB2381FF5DC0B2
:103A800069E38CEA92E00E94C4280E94602969E3FD
:103A90000EC0833891F40E94FB2380FF4EC063E583
:103AA0008CEA92E00E94C4280E94602963E58CEAB7
:103AB00092E00E94B7280C946029843869F40E942F
:103AC000FB2382FF3AC067E48CEA92E00E94C4289C
:103AD0000E94602967E4EBCF9CEF980F913A10F4B5
:103AE000682FE5CF90E2980F983088F4877021E036
:103AF00030E0A90102C0440F551F8A95E2F7CA01C0
:103B0000809590912103892380932103D4CF9BE555
:103B1000980F933020F480E090E00C94E52398E532
:103B2000980F973120F480E090E00C94CF238D3EE5
:103B300020F00E9433100C9409100895CF9388232D
:103B400009F49EC0C82F8238B1F40E94FB2381FD86
:103B500097C069E38CEA92E00E94C4280E94602921
:103B60002FEF81EE94E0215080409040E1F700C0BB
:103B7000000069E317C08338E1F40E94FB2380FD55
:103B80007FC063E58CEA92E00E94C4280E9460290D
:103B90002FEF81EE94E0215080409040E1F700C08B
:103BA000000063E58CEA92E00E94B728CF910C9464
:103BB00060298438B1F40E94FB2382FD61C067E470
:103BC0008CEA92E00E94C4280E9460292FEF81EEC7
:103BD00094E0215080409040E1F700C0000067E48D
:103BE000E1CF8CEF8C0F813A80F4EEEAF2E084EBC7
:103BF00092E02191C217E1F18E179F07D1F76C2F48
:103C00008CEA92E00E94C428D1CF80E28C0F8830E9
:103C100068F4C77081E090E001C0880FCA95EAF7A8
:103C200090912103892B80932103C0CFEBE5EC0F0A
:103C3000E33040F4F0E0E259FE4F808190E0CF9114
:103C40000C94E523E8E5EC0FE73150F4F0E0EE0FDB
:103C5000FF1FEF58FE4F80819181CF910C94CF23AD
:103C6000CD3E70F08C2F0E94EC10CF910C94091077
:103C70006C2F8CEA92E00E94B7280E946029BFCF87
:103C8000CF9108951F93CF93DF93182FEB010E94DC
:103C90009E1D209741F08FE99FE00197F1F700C04A
:103CA00000002197F6CF812FDF91CF911F910C94C7
:103CB000371DEF92FF920F931F93CF93DF937C01F9
:103CC0008B010E944E15811119C0E70101151105E4
:103CD000A1F08091E80085FD0AC08091E8008E7710
:103CE0008093E8000E944E15882381F307C08991D4
:103CF0008093F10001501109E9CF80E0DF91CF916D
:103D00001F910F91FF90EF9008951F93CF93DF9332
:103D1000CDB7DEB7AA970FB6F894DEBF0FBECDBF02
:103D2000EDE1F2E08091F100819322E0E532F207CB
:103D3000C9F780911E02833009F460C030F48130ED
:103D400071F0823009F49AC0B1C08A3009F486C09B
:103D50008B3009F46BC0893009F0A8C020C0809175
:103D60001D02813A09F0A2C08091E800877F80930C
:103D7000E8008091210290912202892B21F468E0D1
:103D800081E192E003C060E080E090E070E00E949A
:103D9000D5158091E8008B778093E80087C08091EB
:103DA0001D02813209F082C080912102909122028D
:103DB000029708F07BC08091E800877F8093E8003D
:103DC0008091E80082FD05C080911B028111F8CF2F
:103DD0006DC02091F3008091F20090E0922B029749
:103DE00029F48091F1008B7F813021F48091F100E2
:103DF000809310028091E8008B7754C080911D025F
:103E0000813A09F053C08091210290912202892BBE
:103E100009F04CC08091E800877F8093E800809192
:103E2000E80080FFFCCF8091130137C080911D0214
:103E30008132E1F58091210290912202892BB1F526
:103E40008091E800877F8093E8000E94811580912F
:103E50001F02809313010E942C1D28C080911D0217
:103E6000813221F58091E800877F8093E8000E94ED
:103E700081158091200280930F0218C080911D024D
:103E8000813AA1F48091E800877F8093E8008091D7
:103E9000E80080FFFCCF80910F028093F1008091B9
:103EA000E8008E778093E8000E9481158091E800F9
:103EB00083FFCCC180911D0290911E02492F50E0DA
:103EC0004A30510508F0C2C1FA01EF57FF4F0C9478
:103ED000E92F803821F0823809F0B8C108C08091FC
:103EE000190290911A02992389F082600FC0809183
:103EF00021028F70873008F0A9C18093E90080917A
:103F0000EB0085FB882780F91092E9009091E8008A
:103F1000977F9093E8008093F1001092F10065C1C3
:103F2000282F2D7F09F092C1882319F0823061F08B
:103F30008DC180911F02813009F088C1933009F052
:103F400080E080931A022EC080911F0281112AC046
:103F5000809121028F702FEF280F263008F076C154
:103F60008093E9002091EB0020FF1CC0933021F4E6
:103F70008091EB00806214C09091EB00906190936F
:103F8000EB0021E030E0A90102C0440F551F8A95E3
:103F9000E2F74093EA001092EA008091EB0088601B
:103FA0008093EB001092E9008091E800877F20C1A8
:103FB00081114CC110911F021F778091E30080781E
:103FC000812B8093E3008091E800877F8093E80055
:103FD0000E9481158091E80080FFFCCF8091E30072
:103FE00080688093E300111102C082E001C083E089
:103FF00080931B022BC18058823008F027C180912A
:104000001F02909120028C3D53E0950779F583E0E3
:104010008A838AE289834FB7F894DE01139620E001
:104020003EE051E2E32FF0E050935700E49120FF8F
:1040300003C0E295EF703F5FEF708E2F90E0EA30A3
:1040400010F0C79601C0C0968D939D932F5F2431C9
:1040500049F74FBF8091E800877F8093E8006AE2CC
:1040600070E0CE0101960E94D515AEC040912102AC
:1040700050912202292F332723303105A9F068F40B
:104080002130310509F4F1C02230310509F0DEC0DC
:104090008BE390E0EEE7F6E044C02132310521F1F8
:1040A0002232310571F1D2C0992781309105A1F0FA
:1040B00058F0029709F0CAC0EBECF6E0E4918E2FBD
:1040C00090E0EBECF6E02AC0E3EFF6E0E4918E2F0F
:1040D00090E0E3EFF6E022C0E1EEF6E0E4918E2F0F
:1040E00090E0E1EEF6E01AC04115510509F4C2C0B6
:1040F0004130510509F0AAC089E090E0E9EAF6E014
:1041000010C04115510509F4BAC04130510509F0FC
:104110009DC08BE790E0E3ECF5E003C0009709F465
:1041200095C02091E800277F2093E800209123028A
:10413000309124028217930708F49C0140E0211576
:10414000310589F180911B02882309F43DC0853037
:10415000D9F18091E80083FD37C08091E80082FDAD
:104160002FC08091E80080FFEACF4091F30080915A
:10417000F20090E0942B2115310559F0883091051B
:1041800040F444914093F100319621503109019659
:10419000F2CF41E0089709F040E08091E8008E7787
:1041A0008093E800CCCF4111CDCF0AC080911B0293
:1041B000882351F0853041F08091E80083FD04C0F0
:1041C0008091E80082FFF2CF8091E8008B778093A6
:1041D000E8003CC08038D1F58091E800877F80936B
:1041E000E80080911C028093F1008091E8008E77B6
:1041F0008093E8000E94811529C0811127C0809119
:104200001F02909120029927029704F58091E800FF
:10421000877F8093E80010911F0210931C020E9478
:104220008115111106C08091E30087FD02C081E075
:1042300001C084E080931B0242E061EC81E00E94B7
:10424000A01542E261EC82E00E94A0158091E80096
:1042500083FF1AC08091E800877F8093E8008091F7
:10426000EB0080628093EB000FC082E190E0E9EB0D
:10427000F6E057CF89E090E0E0E9F6E052CF80E445
:1042800090E0EEE3F6E04DCFAA960FB6F894DEBFCD
:104290000FBECDBFDF91CF911F9108951F920F9256
:1042A0000FB60F9211242F933F934F935F936F9309
:1042B0007F938F939F93AF93BF93CF93DF93EF93AE
:1042C000FF93C091E900CF708091EC00D82FD1709E
:1042D00080FDD0E81092E9008091F000877F809304
:1042E000F00078940E94851E1092E9008091F00001
:1042F00088608093F000CD2BCF70C093E900FF91D0
:10430000EF91DF91CF91BF91AF919F918F917F916D
:104310006F915F914F913F912F910F900FBE0F9032
:104320001F901895E8EDF0E080818E7F80831092D9
:10433000E2001092DA001092E100A0EEB0E08C9161
:1043400081608C9380818F77808319BCA7EDB0E06A
:104350008C918E7F8C9380818F7E808310920E0251
:104360000895CF92DF92EF92FF920F931F93CF9316
:10437000DF93C8EDD0E088818F7E8883E7EDF0E0A1
:1043800080818160808384E082BF81E080930E021F
:1043900088818E7F888302EE10E0F80110821092EF
:1043A000DA0081EEC82ED12CF601108288818F7739
:1043B000888388818068888388818F7D888319BC01
:1043C00010921B0210921C0210921A0210921902F3
:1043D00090EEE92EF12CF70180818B7F808388811C
:1043E0008160888342E060E080E00E94A015F601D1
:1043F00080818E7F8083F8018081816080838081CD
:1044000088608083F70180818E7F808388818061CE
:104410008883DF91CF911F910F91FF90EF90DF90F4
:10442000CF9008951F920F920FB60F9211242F93E1
:104430003F934F935F936F937F938F939F93AF932C
:10444000BF93EF93FF938091E10082FF09C08091B9
:10445000E20082FF05C08091E1008B7F8093E10044
:104460008091DA0080FF2AC08091D80080FF26C0AA
:104470008091DA008E7F8093DA008091D90080FFEE
:1044800018C080E189BD82E189BD09B400FEFDCF7D
:1044900081E080931B0280910E0281110FC00E9467
:1044A00092210E94B1218091E20084608093E20019
:1044B00005C019BC10921B0210920E028091E100FF
:1044C00080FF17C08091E20080FF13C08091E2005E
:1044D0008E7F8093E2008091E20080618093E20011
:1044E0008091D80080628093D80019BC85E08093C9
:1044F0001B028091E10084FF2EC08091E20084FFC6
:104500002AC080E189BD82E189BD09B400FEFDCFEA
:104510008091D8008F7D8093D8008091E1008F7EBC
:104520008093E1008091E2008F7E8093E200809191
:10453000E20081608093E20080911C02882311F0E8
:1045400084E007C08091E30087FD02C081E001C0E4
:1045500083E080931B028091E10083FF27C080915C
:10456000E20083FF23C08091E100877F8093E10018
:1045700082E080931B0210921C028091E1008E7FEA
:104580008093E1008091E2008E7F8093E200809131
:10459000E20080618093E20042E060E080E00E94FF
:1045A000A0158091F00088608093F000FF91EF915A
:1045B000BF91AF919F918F917F916F915F914F913B
:1045C0003F912F910F900FBE0F901F901895089557
:1045D000CF93DF93EC01EDEDF1E0438162818C81BB
:1045E0000E94EC0F8C818F5F8C83DF91CF910895B7
:1045F000682F70E080E090E00E94B62D20E030E06F
:104600004FE753E40E94D92C2BED3FE049E450E4FE
:104610000E94DF2E0E944C2F0E94532D23ED34E880
:1046200049E25FE30E946C2C24E530E643EA52E461
:104630000E94DF2E0E94852D862F0895CF93DF9351
:10464000EC018C810E94F822EDEDF1E0482F6281AF
:1046500081810E94EC0F8C818F5F8C83DF91CF91E1
:1046600008951F93CF93DF93CDB7DEB767970FB64B
:10467000F894DEBF0FBECDBF342F4B8B252F5C8B44
:104680006D8B7E8B8F8B4E895F8961111092200319
:1046900086E0FE013D96DF01982F1D929A95E9F77D
:1046A0003D872E876F87598B488BDE0117960190C7
:1046B0000D928A95E1F7CE0107960E944C1B81115D
:1046C0003EC086E0FE013796DE01119601900D9204
:1046D0008A95E1F7FF81E8856A857B85611571051B
:1046E00031F0EF3F31F481E0FF3F19F403C081E086
:1046F00001C080E080FD23C02091BA0230E0C901F2
:104700000196877099274091EB0250E08417950736
:1047100079F1F983EA837D836C8396E0929FD001DF
:10472000939FB00D1124A554BD4FFE013196019009
:104730000D929A95E1F78093BA020E94E62A16E05C
:104740008091EB029091BA028917F9F0189FC0018D
:10475000112485549D4F0E944C1B8823B1F08091F9
:10476000EB0290E00196877099278093EB02E8CFE7
:104770000E942C1D1092BA021092EB02E4EBF2E0C0
:1047800086E0DF011D928A95E9F767960FB6F894E7
:10479000DEBF0FBECDBFDF91CF911F910895209155
:1047A000AA023091AB022817390771F09093AB023F
:1047B0008093AA02E091C201F091C301309721F0E9
:1047C0000084F185E02D099408952091A80230918C
:1047D000A9022817390771F09093A9028093A802C3
:1047E000E091C201F091C301309721F00680F7817A
:1047F000E02D09940895E091C201F091C301309732
:1048000021F00190F081E02D099480E008950F934C
:104810001F93CF93DF93C42FD22FFC018281882373
:10482000C9F04093A4010E9482289093A70280932C
:10483000A60280E28C0F883008F072C0C77081E059
:1048400001C0880FCA95EAF7DF91CF911F910F91B0
:104850000C94421B8091A40148133DC08091A60294
:104860009091A7020E94732888379105A0F510E265
:104870001D0FCD17E9F080E28C0F883040F4C7702F
:1048800081E001C0880FCA95EAF70E94371B1830F3
:1048900090F581E09D2F977001C0880F9A95EAF7F7
:1048A0000E94421B093369F560E570E089E32CC082
:1048B000093319F460E570E002C060E070E0802F19
:1048C0000E94421E183060F5D77081E001C0880F49
:1048D000DA95EAF70AC080E28C0F883008F5C770D5
:1048E00081E001C0880FCA95EAF7DF91CF911F914F
:1048F0000F910C94371B093351F460E570E089E3A4
:1049000009C060E070E0802F0E94421EDDCF60E0B1
:1049100070E0802FDF91CF911F910F910C94421E78
:10492000DF91CF911F910F9108959091DD0190FF3C
:1049300004C09695981740F003C0811105C090E01F
:10494000961710F40C94E20F61E00C947B0F88230F
:1049500011F0FA0101C0FB0109946091DD01669537
:1049600070E04BE050E084E191E00E94FE2F892B43
:1049700019F481E08093E3010E9482289093D8018A
:104980008093D70108955F926F927F928F929F924A
:10499000AF92BF92CF92DF92EF92FF920F931F934D
:1049A000CF93DF9300D000D01F92CDB7DEB75090E9
:1049B00005018091DD0180FF08C08090C0019090CA
:1049C000C10181149104A9F42EC080910601909137
:1049D0000701891790F7E82FF0E09F01220F331F9E
:1049E000E20FF31FEA5DFD4F1182108212828F5F8A
:1049F000F0CF8091C601811116C0A12CB12C662484
:104A00006394712C2091E401C3010A2C01C0880F2A
:104A10000A94EAF7822309F454C0F401C590D490B3
:104A2000C114D104B9F5E091040123E0E29FF00143
:104A30001124EA5DFD4F539A8BB1877F9BB198603B
:104A40002FB7F894AF0133E0539E400D511D112450
:104A500044C010E08A819801280F311DC90121311D
:104A6000310514F080E190E07C01EE0CFF1C8E0D0E
:104A70009F1D9C012A5D3D4F7901C801880F991F38
:104A8000080F191F0A5D1D4F0E151F0570F035E048
:104A9000C30ED11C45E050E0B601CE0101960E9444
:104AA000B82B09810F3FA9F60CC04D81413A08F09F
:104AB00040EA98016C818B810E94FD0D0D5F1F4FB4
:104AC000E3CF82E0880E911C9FEFA91AB90A28E073
:104AD000A216B10409F096CFA6CF4E175F0789F052
:104AE000319168E09BB9000000C037FF8BB9330FEC
:104AF000000000C000C000C08BB900C06A9591F7EB
:104B0000ECCF2FBF8FE594E00197F1F700C00000D4
:104B10000F900F900F900F900F90DF91CF911F91FA
:104B20000F91FF90EF90DF90CF90BF90AF909F904C
:104B30008F907F906F905F9008957F928F929F9259
:104B4000AF92BF92CF92DF92EF92FF920F931F939B
:104B5000CF93DF93FC019280748081E0848380E0B6
:104B60000E94F822882E8FE70E94F822A12CF5E0FF
:104B7000BF2ECC24CA94D12C8819E82EF12C809118
:104B80000801A81608F0AAC0CA2DD0E022E0291515
:104B900068F0BC9EF001BD9EF00D1124EA5AFD4F55
:104BA0008091DE0180838091DF01818371100AC0D2
:104BB000BC9EF001BD9EF00D1124EA5AFD4F1382F8
:104BC000128268C0BC9E8001BD9E100D11240A5A3D
:104BD0001D4FF80183818823F1F081508383FFEF1B
:104BE0008F9FC0011124F801648170E00E94C12FE1
:104BF000862F0E94F8228819FFEF8F9FC001112491
:104C0000B7010E94C12F8091E001689FB00111247B
:104C1000F80172833FC00E94A82B2091E0012695E5
:104C2000215830E0A901440F551F322F2227240FAD
:104C3000351F232F33278217930764F5F2E0F91508
:104C400098F40E94A82BB6010E94D52FF80180830A
:104C50000E94A82B2091DF012695622F70E00E9410
:104C6000D52F280FF8012183BC9EF001BD9EF00DC9
:104C70001124EA5AFD4F12828091E001843108F438
:104C800084E1BC9EF001BD9EF00D1124EA5AFD4F57
:104C900084838383809106019E01280F311DC90101
:104CA000880F991F280F391F2A5D3D4FBC9EF001C8
:104CB000BD9EF00D1124EA5AFD4F4281413A08F0A1
:104CC00040EABC9EF001BD9EF00D1124EA5AFD4F52
:104CD000618180810E94FD0DA39451CFDF91CF911E
:104CE0001F910F91FF90EF90DF90CF90BF90AF900A
:104CF0009F908F907F900C94C3248F929F92AF923D
:104D0000BF92CF92DF92EF92FF920F931F93CF93B8
:104D1000DF938C01FC014481C42FD0E09E01DE01B1
:104D20000E945D2C9B01AC010E94282C6B017C0130
:104D3000E0E2F0E0EC1BFD0BA5E5B0E09B01AC016F
:104D40000E94282C4B015C019F01DF010E94EF2F84
:104D50009B01AC010E94332C9B01AC012C0D3D1D2D
:104D60004E1D5F1DC501B4010E943B2CC22FD22FE6
:104D70002A3228F4F3E02F9F900111240DC025E57D
:104D800030E02C1B3109C901880F991F280F391FEA
:104D900037FF02C02F5F3F4F35952795C22FC09533
:104DA000F12C85E5E82EED1A80910801F816E0F463
:104DB000F0FC02C08E2D01C08D2F909106012F2D89
:104DC00030E0290F311DA901440F551F240F351F55
:104DD0002A5D3D4F4C2FC13A08F040EA6091DF0157
:104DE0000E94FD0DF394E0CF0E94C324F80184815A
:104DF000811102C091E003C0803219F49FEF9093BB
:104E0000210190912101890FF8018483DF91CF91D5
:104E10001F910F91FF90EF90DF90CF90BF90AF90D8
:104E20009F908F900895CF938091060190910701F4
:104E3000891770F4E82FF0E09F01220F331FE20F73
:104E4000F31FEA5DFD4F1182108212828F5FF0CF57
:104E5000C0E060910801C617D8F5EC2FF0E070E0D3
:104E6000CF010E94D52F20910601820F20912502AB
:104E7000022E000C330B90E0E217F307E4F02091D0
:104E80002001022E000C330B2E173F07A4F09C01CB
:104E9000220F331F820F931F9C012A5D3D4F4091CB
:104EA000E001413A08F040EA6091DF018091DE01C3
:104EB0000E94FD0D0BC0FC01EE0FFF1F8E0F9F1F08
:104EC000FC01EA5DFD4F118210821282CF5FC1CFDB
:104ED0000E94C32420911F0180912502820F80939C
:104EE000250290912001920F9093200119165CF4F5
:104EF000082E000C990B4091080150E041505109D7
:104F0000841795071CF0219520931F01CF910895D8
:104F1000FF920F931F93CF93DF93EC01F12C0FE7D8
:104F200010E060910801F61608F5809106012F2D1A
:104F300030E0280F311DC901880F991F280F391F34
:104F40002A5D3D4F4091E001413A08F040EA70E0AF
:104F5000C8010E94D52F962F8C816091DF01F99EA8
:104F6000800D11240E94FD0DF394DBCF0E94C32419
:104F70009A818C8190FF02C08F5F01C081508C8329
:104F8000DF91CF911F910F91FF90089580911002B2
:104F9000089580E0089522E02093E9002FEF3091FA
:104FA000E800215035FD06C035ED3A95F1F70000D7
:104FB0002111F5CF2091E80025FF0BC040E050E023
:104FC00066E070E00E94591E8091E8008E77809321
:104FD000E8000895CF93DF9321E02093E9002FEFBD
:104FE0003091E800215035FD06C035ED3A95F1F7D6
:104FF00000002111F5CF2091E80025FF14C0EC013D
:1050000040E050E068E070E00E94591E8091E800A6
:105010008E778093E80088E0FE01A1E1B2E0019084
:105020000D928A95E1F7DF91CF910895CF93DF93A9
:1050300000D01F92CDB7DEB790911B02943019F5C6
:1050400089837B836A8382E08093E9008FEF90916C
:10505000E800815095FD06C095ED9A95F1F70000A6
:105060008111F5CF8091E80085FF0DC040E050E050
:1050700063E070E0CE0101960E94591E8091E80025
:105080008E778093E8000F900F900F90DF91CF9173
:105090000895BC0183E00C94162878941F920F9217
:1050A0000FB60F9211248F939F93AF93BF9380916C
:1050B000EB019091EC01A091ED01B091EE01019610
:1050C000A11DB11D8093EB019093EC01A093ED0124
:1050D000B093EE01BF91AF919F918F910F900FBE52
:1050E0000F901F9018959C014FB7F8948091EB0199
:1050F0009091EC01A091ED01B091EE014FBF821BA8
:10510000930B08952FB7F8948091EB019091EC01E7
:10511000A091ED01B091EE012FBF08951F920F9263
:105120000FB60F9211248F939F93AF93BF938091EB
:10513000C401811113C08091EB019091EC01A09109
:10514000ED01B091EE014196A11DB11D8093EB01DF
:105150009093EC01A093ED01B093EE01BF91AF915C
:105160009F918F910F900FBE0F901F9018959C01EB
:105170002A5F3F4FFC014281461301C01282019613
:1051800082179307B9F708959C01FC0132969FEFAF
:1051900080E04191461789F09F3F19F4411101C009
:1051A000982F8F5F8630A9F79F3F39F0F901E90FFB
:1051B000F11D97FDFA95628308950895CF9384E0D9
:1051C00090E00E94C12BC82F82E290E00E94C12B88
:1051D0002C2F30E0A901582BCA01CF9108956AEE17
:1051E0007EEF80E090E00E94F32B60E082E090E0B0
:1051F0000E94D52B60E083E090E00E94D52B1092B6
:10520000230310922403109225031092260360E0DA
:1052100084E090E00E94D52B60E082E290E00E9462
:10522000D52B60E085E090E00E94D52B60E086E021
:1052300090E00E94D52B6FEF87E090E00E94D52B85
:1052400040E050E0BA0188E090E00E94E72B60E087
:105250008DE090E00E94D52B40E050E0BA0188E15B
:1052600090E00E94E72B60E087E190E00E94D52B60
:1052700040E050E0BA018CE190E00E94E72B60E052
:1052800070E080E290E00E94F32B40E050E0BA0131
:1052900088E190E00E94E72B40E050E0BA018FE007
:1052A00090E00E94E72B40E050E0BA0183E190E0FB
:1052B0000C94E72B80912203811110922203089510
:1052C0009091210380912003892B20911F03982F17
:1052D000922B9093AC0280912203882389F0892B32
:1052E0008093AC02EEEAF2E097E080E0915029F082
:1052F00021912223D9F38F5FF9CF81110E945A297E
:10530000E091C201F091C301309731F00280F38146
:10531000E02D8CEA92E009940895CF93C091AE01FC
:10532000C2FB992790F9981781F080FBC2F9C093CE
:10533000AE016091AD0184E090E00E94D52B6C2F0E
:1053400082E290E0CF910C94D52BCF910895BF923B
:10535000CF92DF92EF92FF920F931F93CF93DF9341
:105360008C01C090A901D090AA01E090AB01F0900F
:10537000AC018091230390912403A0912503B09167
:105380002603C82AD92AEA2AFB2ACFE1D0E0D7018E
:10539000C6010C2E04C0B695A795979587950A94DB
:1053A000D2F780FD04C0219790F7B12C07C0BC2E26
:1053B000B8018C2F0E9447110197A9F38B2DDF9123
:1053C000CF911F910F91FF90EF90DF90CF90BF9002
:1053D0000895CF93DF93EC010E94A729BE010E949C
:1053E0004711DF91CF91089524E0929F900D1124F1
:1053F000890F682F669566956695982F977085E05A
:10540000689FB001112440E050E080E0FB01E40F10
:10541000F51FE451FD4F208130E0092E02C0369582
:1054200027950A94E2F721703327042E01C0220F3A
:105430000A94EAF7822B4F5F5F4F4530510531F7F1
:10544000089524E0929F900D1124890FE82FE6958E
:10545000E695E695877051E001C0550F8A95EAF709
:1054600085E0E89FF0011124E451FD4F20E030E099
:1054700070E04081CB01022E02C0969587950A9478
:10548000E2F78170819584278523842781932F5F9C
:105490003F4F2530310569F708950E94EF12609360
:1054A000A9017093AA018093AB019093AC010C9475
:1054B0000F1D0F931F9341E050E060E070E004C0C7
:1054C000440F551F661F771F8A95D2F74095509558
:1054D000609570958091A9019091AA01A091AB016E
:1054E000B091AC018A019B01082319232A233B2395
:1054F000C901B8011F910F910C944D2A20911E03F0
:105500008095822380931E03982F977041F430E09A
:10551000482F082E000C550B2417350721F49091C5
:10552000AE0192FF07C08595859585950E94592A01
:1055300010921E0308950F931F9341E050E060E026
:1055400070E004C0440F551F661F771F8A95D2F77D
:105550008091A9019091AA01A091AB01B091AC01F9
:105560008A019B01082B192B2A2B3B2BC901B8015F
:105570001F910F910C944D2A609323037093240381
:1055800080932503909326030C940F1D2091EB022A
:105590009091BA0256E02917A9F030E0529FF0012D
:1055A000539FF00D1124E554FD4F7181761306C011
:1055B0007081781303C07281741306C02F5F3F4F50
:1055C0002770E9CF80E0089581E008958091EB0293
:1055D0009091BA02891719F08F5F8770FBCF0895F9
:1055E0000F931F93CF93DF938091B90282958F70B1
:1055F00009F05DC08091B602882309F458C08091FB
:10560000EB021091BA026091B4027091B502C091A0
:10561000B702D091B80291E06F3F09F090E0292FD6
:1056200006E0811709F443C0209721F07F3F21F065
:1056300030E003C031E001C0322F90E030FD34C0D3
:10564000089FF001099FF00D1124DF01A554BD4F03
:1056500011963C911197371327C03C91361324C003
:1056600012963C91129731111FC013964D915C9187
:1056700014974C1B5D0B48375105B0F48091B9026B
:105680008F7080618093B902E054FD4F80818F70EC
:105690008061808384EB92E00E94C503DF91CF910B
:1056A0001F910F910C94E62A01968770BACFDF9173
:1056B000CF911F910F9108958F929F92AF92BF92B9
:1056C000CF92DF92EF92FF92CF93DF93EC0168814C
:1056D00079818A819B81611571058105910521F48C
:1056E00064E279ED8BE597E02DE133EF41E050E0A6
:1056F0000E94092C49015A019B01AC01A7EAB1E4BF
:105700000E94282C6B017C01ACEEB4EFA501940142
:105710000E94362CDC01CB018C0D9D1DAE1DBF1DE2
:10572000B7FF03C00197A109B04888839983AA8372
:10573000BB839F77DF91CF91FF90EF90DF90CF9069
:10574000BF90AF909F908F9008950E945C2B08951A
:1057500080E091E00E945C2B0895A0E0B0E080938F
:10576000000190930101A0930201B09303010895F9
:10577000FB01DC0102C005900D9241505040D8F76A
:105780000895F999FECF92BD81BDF89A992780B509
:105790000895A6E1B0E044E050E00C94FB2BA8E1B2
:1057A000B0E042E050E00C94FB2B262FF999FECF9D
:1057B00092BD81BDF89A019700B4021639F01FBA64
:1057C00020BD0FB6F894FA9AF99A0FBE0895039681
:1057D000272F0E94D62B0E94D52B252F0E94D62B37
:1057E000242F0C94D62B0196272F0E94D62B0C9495
:1057F000D52BDC01CB01FC01F999FECF06C0F2BD2F
:10580000E1BDF89A319600B40D9241505040B8F77E
:105810000895052E97FB1EF400940E94202C57FD3E
:1058200007D00E943B2C07FC03D04EF40C94202C94
:1058300050954095309521953F4F4F4F5F4F0895BC
:1058400090958095709561957F4F8F4F9F4F0895EC
:105850000E945D2CA59F900DB49F900DA49F800D7C
:10586000911D11240895B7FF0C94282C0E94282C18
:10587000821B930B0895A1E21A2EAA1BBB1BFD01EC
:105880000DC0AA1FBB1FEE1FFF1FA217B307E4071F
:10589000F50720F0A21BB30BE40BF50B661F771F77
:1058A000881F991F1A9469F7609570958095909557
:1058B0009B01AC01BD01CF010895A29FB001B39F30
:1058C000C001A39F700D811D1124911DB29F700D09
:1058D000811D1124911D08955058BB27AA270E94AD
:1058E000842C0C942F2E0E94212E38F00E94282EFA
:1058F00020F039F49F3F19F426F40C94F72D0EF4A0
:10590000E095E7FB0C94F12DE92F0E94402E58F30F
:10591000BA17620773078407950720F079F4A6F594
:105920000C94622E0EF4E0950B2EBA2FA02D0B01D5
:10593000B90190010C01CA01A0011124FF27591BD4
:1059400099F0593F50F4503E68F11A16F040A22FDA
:10595000232F342F4427585FF3CF4695379527954B
:10596000A795F0405395C9F77EF41F16BA0B620B4A
:10597000730B840BBAF09150A1F0FF0FBB1F661F91
:10598000771F881FC2F70EC0BA0F621F731F841FD4
:1059900048F4879577956795B795F7959E3F08F0FA
:1059A000B0CF9395880F08F09927EE0F97958795BC
:1059B00008950E94ED2C0C942F2E0E94282E58F052
:1059C0000E94212E40F029F45F3F29F00C94F12D24
:1059D00051110C94632E0C94F72D0E94402E68F305
:1059E0009923B1F3552391F3951B550BBB27AA2798
:1059F00062177307840738F09F5F5F4F220F331FD2
:105A0000441FAA1FA9F335D00E2E3AF0E0E832D099
:105A100091505040E695001CCAF72BD0FE2F29D09C
:105A2000660F771F881FBB1F261737074807AB076E
:105A3000B0E809F0BB0B802DBF01FF2793585F4FE3
:105A40003AF09E3F510578F00C94F12D0C94632EA2
:105A50005F3FE4F3983ED4F3869577956795B795C5
:105A6000F7959F5FC9F7880F911D9695879597F9D0
:105A70000895E1E0660F771F881FBB1F6217730749
:105A80008407BA0720F0621B730B840BBA0BEE1F5E
:105A900088F7E095089529F416F00C94F12D0C94F4
:105AA000622E0C94F72D0E94482EA8F39638A0F78A
:105AB00007F80F92E8942BE33AEA48EB5FE70E947D
:105AC000F52E0F920F920F924DB75EB70F920E9474
:105AD000AB2EE6E1F1E00E94FA2D4F915F91EF913C
