:100000000C9410070C9457070C9457070C9457073F
:100010000C9457070C9457070C9457070C945707E8
:100020000C9457070C9457070C94D5270C94112760
:100030000C94791E0C9457070C9457070C9457078F
:100040000C9457070C9457070C9457070C945707B8
:100050000C9457070C942C1E0C9457070C945707BC
:100060000C9457070C9457070C9457070C94570798
:100070000C9457070C9457070C9457070C94570788
:100080000C9457070C9457070C9457070C94570778
:100090000C9457070C9457070C9457070C94570768
:1000A0000C9457070C9457070C945707EC0DF50D5B
:1000B000000E400E6F0E9E0ECD0EFC0E2B0F5A0F33
:1000C0008C0FBB0FEA0F191045107710AC10C1133D
:1000D000C113FB13FB1355147114071607167C1478
:1000E0005A156B156B150E200E202120212017208C
:1000F0002120212021200E200E201C202120212023
:100100001C202C255325E9265325E9269B25BE25B1
:10011000E926AD26C02652018466FFFF00000000DC
:100120000C01AAFFFF1101AAFFFF1801AAFFFF1D82
:1001300001AAFFFF3101AAFFFF3701AAFFFF3C011F
:10014000AAFFFF4301AAFFFF0D011CFFFF10011CC6
:10015000FFFF19011CFFFF1C011CFFFF23011CFFF7
:10016000FF2D011CFFFF30011CFFFF38011CFFFFAA
:100170003B011CFFFF44011CFFFF47011CFFFF5018
:10018000011CFFFFFF000000000E021CFFFF1A020F
:100190001CFFFF24011CFFFF2E021CFFFF39021C65
:1001A000FFFF45021CFFFF51011CFFFF2B0155FF04
:1001B000FF310255FFFF360155FFFF3B0A8466FF02
:1001C000470A8466FFFF00000000250100FFFFFFD3
:1001D0000000000000DA0281FFD9F1DB20A4A62E86
:1001E000AF00A0C000A1C800AED580A81FD30040BA
:1001F0008D142000CA0189012001160100001E0F84
:1002000005643214783C1E1E140A0520202020208C
:1002100020003C5343523E2000202020202020007C
:100220003C4E554D3E20000A20202020202020005A
:100230000A3C434150533E200044564F52414B002C
:1002400041444A5553540A00466E3228524149539C
:1002500045290A00466E31284C4F574552290A005D
:100260004C617965723A004A495328313039290A7C
:1002700000414E534928313034290A004D6F6465DE
:10028000203A0029002B00E0008B6249001F003655
:10029000001200140035042100130018000E002C79
:1002A0000039002A002800F300650024000A000B32
:1002B0000010002C7226001500110019004A002FB2
:1002C000002D00380031004D0004512A004C004937
:1002D000008A711E00340004003300E30020003760
:1002E0000008000D00E20022001C000C001B00E0D2
:1002F0000023000900070005008B422500060017B7
:10030000001A00E60027000F0016001D0052003002
:10031000002E008A7228714B0000004E004F0051E1
:1003200000500001000100010001000100615D01B9
:1003300000010001000100010001000100010001B5
:10034000006F5D0100010001000100635D0100011B
:100350000001000100655D0100010001000100696C
:100360005D675D01006B5D0100045101000100014A
:1003700000010001006D5D01006C5D0100010001E4
:100380000001000100010001000100010001000165
:1003900000625D0100010001000100645D010001D7
:1003A0000001000100665D01000100010001006A1A
:1003B0005D685D0100010001000000010001000115
:1003C000000100350001000100010001003B004A6E
:1003D0000050001B0101003D004D004F00190101BC
:1003E0000049004C000100010001004000000052E3
:1003F000005100010042002E005F005C00590044E3
:1004000000550061005E005B005300010001000127
:10041000004E003A003D1400001D0101003C005256
:10042000005100060101003E00000029000000010B
:10043000003F0012504A0050000100410000004DF2
:10044000004F004B004300540060005D005A00451F
:1004500000560057005800010000000100630060D2
:100460005D62003500010001000100010045003B14
:10047000004E001B01010000003D004D001901016C
:100480000049004C00010001003D140000400050F4
:10049000002800010000004200520000000000009F
:1004A00000440000000000000053000100010001B2
:1004B00000010044003A004A001D01010000003C18
:1004C000004B000601010000003E00290000000171
:1004D0000000003F002A00000012500000410051BF
:1004E0000000000100000043004F00000000000079
:1004F0000045008A723D1401000000010000000068
:100500000000005F5D00000000010001000000C667
:100510005CC75C000001000000CA5CCB5C0000000E
:1005200052005C00000000C35C010000000000A855
:10053000000000015200000000A900000000004778
:1005400000000000000000000001000000000000AA
:10055000000000000000000000000001000000C8D2
:100560005CC95C000001000000C45CC55CC35C01A8
:10057000000000000000000000010000000000AAD0
:1005800000000001004600000000000000000048DC
:100590000000000100010000000000000000000059
:1005A000000000000101010101010101010202023C
:1005B000020202020202030303030303030304040F
:1005C00004040404040505050505060606060607D9
:1005D0000707070708080808090909090A0A0A0B92
:1005E0000B0B0C0C0C0D0D0D0E0E0E0F0F0F101033
:1005F00011111112121313141415151616171718BA
:100600001819191A1A1B1B1C1D1D1E1E1F20202124
:100610002222232424252626272829292A2B2C2D6B
:100620002D2E2F30313232333435363738393A3B8C
:100630003C3D3E3F404142434445464748494A4C81
:100640004D4E4F50515354555658595A5B5D5E5F4D
:10065000616264656668696B6C6D6F7072737577E3
:10066000787A7B7D7E8082838587888A8C8E8F9145
:10067000939596989A9C9EA0A2A3A5A7A9ABADAF6F
:10068000B1B3B5B7BABCBEC0C2C4C6C9CBCDCFD159
:10069000D4D6D8DBDDDFE2E4E7E9EBEEF0F3F5F802
:1006A000FAFDFF05010902A10185020901A100056A
:1006B0000919012908150025019508750181020510
:1006C00001093009311581257F95027508810609D8
:1006D000381581257F950175088106050C0A3802B9
:1006E0001581257F950175088106C0C00501098027
:1006F000A101850319012AB700150126B70095014C
:1007000075108100C0050C0901A101850419012A99
:10071000A002150126A002950175108100C00501F7
:100720000906A101050719E029E71500250195082B
:10073000750181029501750881010507190029FFDE
:10074000150026FF00950675088100050819012986
:1007500005950575019102950175039101C0090286
:100760003B00020100A0FA0904000001030101009E
:100770000921110100012240000705810308000A38
:1007800009040100010300000009211101000122F8
:100790007B000705820320000A12011001000000FF
:1007A00008EDFE150601000102000114034F005080
:1007B00000540049004D0041003600310035000072
:1007C0000010034C0065006B00690070006F006E44
:1007D000000000040309040000000000003E5B4F1D
:1007E0005B3E003E6B4F6B3E001C3E7C3E1C001887
:1007F0003C7E3C18001C577D571C001C5E7F5E1C15
:100800000000183C180000FFE7C3E7FF00001824B1
:10081000180000FFE7DBE7FF0030483A060E00262D
:100820002979292600407F05050700407F05253FDF
:10083000005A3CE73C5A007F3E1C1C0800081C1C68
:100840003E7F0014227F2214005F5F005F5F00067E
:10085000097F017F00006689956A006060606060C2
:100860000094A2FFA2940008047E04080010207ED9
:1008700020100008082A1C0800081C2A0808001E6E
:1008800010101010000C1E0C1E0C0030383E3830BA
:1008900000060E3E0E060000000000000000005F93
:1008A000000000000700070000147F147F140024DC
:1008B0002A7F2A120023130864620036495620500A
:1008C00000000807030000001C2241000000412234
:1008D0001C00002A1C7F1C2A0008083E0808000093
:1008E0008070300000080808080800000060600000
:1008F000002010080402003E5149453E0000427F9E
:100900004000007249494946002141494D330018D1
:1009100014127F10002745454539003C4A494931AA
:100920000041211109070036494949360046494925
:10093000291E0000001400000000403400000000E8
:100940000814224100141414141400004122140845
:10095000000201590906003E415D594E007C12110A
:10096000127C007F49494936003E41414122007FC7
:100970004141413E007F49494941007F0909090140
:10098000003E41415173007F0808087F0000417F0D
:100990004100002040413F01007F08142241007FB8
:1009A00040404040007F021C027F007F0408107F0F
:1009B000003E4141413E007F09090906003E415188
:1009C000215E007F09192946002649494932000362
:1009D000017F0103003F4040403F001F2040201F97
:1009E000003F4038403F006314081463000304785C
:1009F0000403006159494D4300007F414141000219
:100A00000408102000004141417F0004020102045B
:100A100000404040404000000307080000205454BC
:100A20007840007F28444438003844444428003843
:100A30004444287F0038545454180000087E0902AA
:100A40000018A4A49C78007F080404780000447D6A
:100A50004000002040403D00007F1028440000007E
:100A6000417F4000007C04780478007C080404780E
:100A700000384444443800FC182424180018242466
:100A800018FC007C08040408004854545424000452
:100A9000043F4424003C4040207C001C2040201C9B
:100AA000003C4030403C004428102844004C9090CA
:100AB000907C004464544C4400000836410000001F
:100AC0000077000000004136080000020102040225
:100AD000003C2623263C000000000000004040406F
:100AE000F0F8F8FF38FFF8F83FF8F8FF38FFF8F8AB
:100AF000F040404000000000000080C0C0C0800006
:100B000000C0C08000000080C0C000C0C0000080E5
:100B1000C0C00000000000C0C0C0C0C000C0C00015
:100B200000000000000000000000000000000000C5
:100B300000000000000000000000000000000000B5
:100B400000000000000000000000000000000000A5
:100B5000000000000000C0F0F8FC3E1E060100008E
:100B6000007F4141417F007F4141417F000080C0C3
:100B7000E07E5B4F5BFEC00000C000DCD7DEDEDE47
:100B8000D7DC00C0000000000000000000000000F2
:100B9000000000000000000000000000004949497A
:100BA000FFFFFFFFE0DFBFBF00BFBFDFE0FFFFFFD2
:100BB000FF49494900000000001F3F6060E0BF1F7F
:100BC000007F7F071E381E077F7F007F7F0E1F3B41
:100BD000716000000000007F7F0C0C0C007E7E0026
:100BE0007F7E0303007F7E03037E7E03037F7E0000
:100BF0000F3E703C063C703E0F00327B49493F7E01
:100C0000007F7E0303001E3F69696F26000000001D
:100C1000000000000000030F1F3F3C7870600000E0
:100C2000007F4141417F007F4141417F00307B7F18
:100C30007830202030787F3B0003000F7F0F0F0FAC
:100C40007F0F000300000000000000000000000013
:100C50000000000000000000000000000001010191
:100C6000070F0F7F0F7F0F0F7E0F0F7F0F7F0F0F6D
:100C70000701010100000000000000000000010168
:100C80000000000000000000000000000000000064
:100C90000000000000000000000000000000000054
:100CA0000000000000000000000000000000000044
:100CB0000000000000000000000000000000000034
:100CC0000000000000000000000000000000000024
:100CD0000000000000000000000000000000000014
:100CE0000000000000000000000000000000000004
:100CF00000000000000000000000000000000000F4
:100D000000000000000000000000000000000000E3
:100D100000000000000000FFAA7F55402223252686
:100D200028292A2C2D2F3032333536383A3B3D3E98
:100D30004042434547494A4C4E5051535557595AE2
:100D40005C5E6062646668696B6D6F7173757779FC
:100D50007B7D7F81838587898A8C8E9092949698FB
:100D60009A9C9E9FA1A3A5A7A8AAACAEAFB1B3B40D
:100D7000B6B8B9BBBCBEBFC1C2C3C5C6C7C9CACB62
:100D8000CCCDCED0D1D2D2D3D4D5D6D7D7D8D9D92D
:100D9000DADADBDBDBDCDCDCDCDCDDDDDDDDDCDC96
:100DA000DCDCDCDBDBDBDADAD9D9D8D7D7D6D5D4B3
:100DB000D3D2D2D1D0CECDCCCBCAC9C7C6C5C3C27F
:100DC000C1BFBEBCBBB9B8B6B4B3B1AFAEACAAA8D4
:100DD000A7A5A3A19F9E9C9A98969492908E8C8A88
:100DE00089878583817F7D7B79777573716F6D6B63
:100DF0006968666462605E5C5A5957555351504E3B
:100E00004C4A4947454342403E3D3B3A38363533EC
:100E100032302F2D2C2A29282625232200AF00AE80
:100E200011241FBECFEFDAE0DEBFCDBF04B603FE54
:100E300027C080919C0790919D07A0919E07B0913B
:100E40009F078730904BA740B04BD1F410929C077E
:100E500010929D0710929E0710929F0714BE84B7B0
:100E6000877F84BF0FB6F894A89580916000886151
:100E700080936000109260000FBEE0E0F8E30995F7
:100E800011E0A0E0B1E0E8ECF4E602C005900D92BC
:100E9000A63AB107D9F727E0A6EAB1E001C01D9252
:100EA000AC39B207E1F70E9459070C9462320C94F6
:100EB0000000CF93DF93CDB7DEB762970FB6F894FB
:100EC000DEBF0FBECDBF84B7877F84BF0FB6F89457
:100ED000A895809160008861809360001092600006
:100EE0000FBE90E080E80FB6F89480936100909375
:100EF00061000FBE85B7806885BF85B7806885BFF4
:100F000084E89DE19093A7018093A6010E94552754
:100F10000E9474278091E20084608093E2007894BC
:100F20008091C1028823A1F01091E9001F70909177
:100F3000EC00892F817090FD80E8182B1092E90059
:100F40008091E80083FD0E9448241F701093E900FF
:100F500082E084BD93E095BD9AEF97BD80936E00CB
:100F6000A7E2B1E027E331E0AD0161E070E0FA0112
:100F70008191AF01E82FE295EF70F0E011A18F7041
:100F80005B0102C0AA0CBB1C8A95E2F7C5019A2D31
:100F90009095912391A392A1892B82A324173507C1
:100FA00031F747E351E06CE371E08A01EE24E3940A
:100FB000F12CF80181918F01E82FE295EF70F0E0BC
:100FC000D1A08F70570102C0AA0CBB1C8A95E2F712
:100FD000C5019A2D90959D2191A392A1892B82A361
:100FE0006017710731F701E010E0FA018191AF015C
:100FF000E82FE295EF70F0E0F1A08F70580102C089
:10100000AA0CBB1C8A95E2F7C5019A2D90959F21E9
:1010100091A392A1892B82A36417750731F761E030
:1010200070E08D91E82FE295EF70F0E041A18F70B4
:101030006B0102C0CC0CDD1C8A95E2F7C6019C2D29
:101040009095942391A392A1892B82A32A173B0701
:1010500041F7EAEAF1E08AEB91E0A2ECB1E011920B
:101060001D928E179F07D9F780E090E00E946231B1
:101070008A3E9E4F11F00E94DA1E82E090E00E94AC
:101080005431809320020E94C91E9093A90180933D
:10109000A80183E090E00E945431682F70E080E066
:1010A00090E00E94ED206091E3017091E401809155
:1010B000E5019091E6010E94701B10920B0280E8FE
:1010C0008093CB020E940A306DE070E087EE91E0E1
:1010D0000E94F323892B09F043C080910B0263E047
:1010E00070E081FD3AC084EE91E00E94F323892BE9
:1010F000B9F56DE070E084ED91E00E94F323892B57
:1011000079F50E94611EDC01CB01805A9541AF4FF9
:10111000BF4F80930D0290930E02A0930F02B093E5
:101120001002EEECF2E080E092E0DF018C011D9213
:1011300001501040E1F7F093D504E093D4048FEF11
:101140009FEF9093CD028093CC0281E080931202B6
:101150008093110210920C0203C081EE91E0C5CF82
:101160008091BA01811136C080E090E00E94623126
:101170008A3E9E4F21F00E94DA1E0E94A21788E04C
:1011800090E00E945C316093D8017093D901809304
:10119000DA019093DB016E7F71F40E94A21788E060
:1011A00090E00E945C316093D8017093D9018093E4
:1011B000DA019093DB010E9406171092DE01809104
:1011C000D80180FF04C060E086950E94541781E03A
:1011D0008093BA0184988C9A85988D9A8FB1829564
:1011E00081707D9902C090E001C092E0892B8093CC
:1011F000E20184EF91E09093BC018093BB0183E016
:101200008093060188E58093070185E580930801B6
:1012100083E00E94F41B2FEF33EC49E02150304073
:101220004040E1F700C0000080E00E94F41B80E134
:1012300091E09093BE018093BD0150E4652E8091B2
:10124000C102853009F083C0FF24F39400E112E16C
:101250008091C102853009F05DC08091C102843067
:1012600009F444C00E94A52980E00E940F1C10923E
:10127000DE018091C101811116C0F092C1018091FF
:10128000D801982F91709093C0018E7F8093D801E0
:101290008FEF90E7A2E081509040A040E1F700C0BE
:1012A00000000E942D2A1092BF01E8E1F0E00FB685
:1012B000F894A895E09360000FBE6092600083B739
:1012C000817F846083BF83B7816083BF7894889572
:1012D00083B78E7F83BF0FB6F894A8958091600086
:1012E000886180936000109260000FBE8091C00200
:1012F000882309F4ADCF0E94441CE2ECF1E0819117
:101300008111E7C342EDA42E41E0B42EAE16BF0614
:10131000B1F79ECF0E9430230E9499290E940F1C92
:101320001092C1018091C001882351F08091D801B1
:1013300081608093D80160E086950E94541705C0B3
:101340008091DF0181110E942D2A0E94E62D0E94CA
:10135000441CE82E81110E94611EA1E2B2E0E2EC81
:10136000F1E000E010E0302F21919D91922721F1D2
:1013700080E0FF24F394492F4F21D1F08F833887E9
:101380002F2181E009F480E089870E946D1E816031
:10139000782F9B878A874F81588569858B850E9426
:1013A000CF28F801EF5DFD4F8081F826F08219C04B
:1013B0008F5FFF0C8530F9F60F5F1F4F003111056D
:1013C00091F68FEF8C878D871E860E946D1E81603F
:1013D000782F988B8F874C855D856E8588890E94D4
:1013E000CF288091DE01882309F479C09091DD0136
:1013F000E091D801E6958E2F891B8093D40192301D
:1014000061F4E82FF0E0E95FFD4FE4910E2F10E06A
:101410003BEBC32E38E2D32E3DC0963061F4E82F6B
:10142000F0E0EC5FFD4FE4910E2F10E02BEAC22EAE
:1014300028E2D22E2FC0993069F4E82FE695F0E02B
:10144000EF5FFD4FE4910E2F10E099E6C92E9CE26C
:10145000D92E20C09F3089F09A31B1F463E00E9408
:10146000FF31E92FF0E0E250FE4FE4910E2F10E043
:1014700083E0C82E8BE2D82E0DC008E210E0B6ED56
:10148000CB2EBBE2DB2E06C000ED17E0AAEACA2E87
:10149000A8E2DA2E8091D501882361F01092D5015F
:1014A0000E946D1E9093D3018093D2011092D701B8
:1014B0001092D6010E946D1EE091D201F091D301ED
:1014C0008E1B9F0B8F3F9F4750F40E0F1F1F1093D3
:1014D000D3010093D20182ED91E0F601099580914C
:1014E000E201E82FEE0FEE0FE093E2018FB184FBF3
:1014F000222420F8312C7D9903C080E090E002C0C6
:1015000082E090E0822993298E2B8093E2018F70F4
:10151000E82FF0E0E45CFE4F90818091E101890FBB
:101520008093E101823074F18091E0018F5F8093BC
:10153000E0016091E3017091E4018091E5019091F7
:10154000E6010E94201B833089F0843089F08230CC
:10155000A9F481E00E9446238BE40E94632E8BE471
:101560000E94FC2D81E00E943B2305C08BEF07C049
:1015700080E00E94F916FF24F39405C08AEF0E94D0
:10158000072FF9CFF12C8091E1018F3F6CF580910D
:10159000E00181508093E0016091E3017091E401EA
:1015A0008091E5019091E6010E94201B833089F033
:1015B000843089F0823099F481E00E9446238EE4E1
:1015C0000E94632E8EE40E94FC2D81E00E943B234A
:1015D00009C08CEF05C080E00E94EC1603C089EFC3
:1015E0000E94072FFF24F3948091E101082E000C44
:1015F000990B62E070E00E941F328093E101F110CC
:101600000E94611E80911202882309F46CC18EEC45
:1016100092E09093D5048093D4048CE792E00E94EA
:10162000E5236091E7017091E8018091E9019091D3
:10163000EA010E94201B882329F0813039F487E6D3
:1016400092E002C081E792E00E94E52380E692E00A
:101650000E94E5236091E3017091E4018091E5012E
:101660009091E6010E94201B833039F0843051F0C4
:10167000823059F484E592E002C088E492E00E944E
:10168000E5230AC080E492E0FACF89E392E00E9469
:10169000E52381E00E94E5290E94992981FD03C08C
:1016A00087E292E002C080E392E00E94E5230E947C
:1016B000992980FD03C089E192E002C080E292E0B6
:1016C0000E94E5230E94992982FD03C08BE092E0ED
:1016D00002C082E192E00E94E523809112028823F9
:1016E00009F4E6C02091CC023091CD0221153105DC
:1016F00009F4DEC080910C028111DAC0482E512C11
:10170000CC24C394D12C082E02C0CC0CDD1C0A942E
:10171000E2F7A9014C215D21452B11F48F5FEECF3B
:1017200090910B029201E5E0220F331FEA95E1F759
:1017300090FD12C08295880F807680930B01220F56
:10174000232F221F330B319520930E01815E80934E
:101750000C0110920F0112C065E0369527956A952D
:10176000E1F7220F220F220F20930B0110920E019E
:10177000295F20930C0183E080930F0124E630E081
:1017800047E050E069E071E088E70E949730892BDC
:1017900009F08EC080910B0280FD23C0C20155E08C
:1017A000880F991F5A95E1F7AC0142535D4F04E64B
:1017B00010E020E230E060E488E70E94BE30892B30
:1017C00009F076C00E94BF29C094D0948091CC02C9
:1017D0009091CD02C822D922D092CD02C092CC02E3
:1017E00067C080E2EBEEF1E0DF011D928A95E9F738
:1017F00045E0440C551C4A95E1F7E0E5F1E0FA8B31
:10180000E98B6CE471E0A989BA898D91BA8BA98BB7
:10181000FB019191BF01A201490F511D42535D4F40
:1018200090E085519E4FFC0137E0A32E9F01281BBD
:10183000390B8824839401C0880C2A95EAF78A0121
:10184000912CD801BD908D01B8202A2D291927701F
:10185000722E022E000C330BBB2D01C0BB0F7A94ED
:10186000EAF77B2E3195219531092770332701C086
:10187000B6942A95EAF77B28B0807B2870829394EF
:1018800028E0B22E9B10DDCFAA9431960FEFA01264
:10189000CDCF24E531E089899A892817390709F0E5
:1018A000B2CF04E610E020E230E04BEE51E083CF0F
:1018B000809111028823B9F00E94611E00910D02EF
:1018C00010910E0220910F0230911002DC01CB0129
:1018D000801B910BA20BB30B8F3F9F4FAF4FBF47A6
:1018E00010F40E94A529E11001C0F1100E94BF2947
:1018F00086E0E9E1F2E0DE01119601900D928A9511
:10190000E1F7E0901B02F0901C0200911D02109183
:101910001E0210921B0210921C0210921D021092C5
:101920001E02E11003C0FF2009F451C0809117028C
:10193000909118020E94521E9C01909116029923C8
:1019400009F4DDC02333310508F441C09F3F19F08D
:101950009F5F90931602EE2061F00E94FD181E1406
:1019600014F09FEF01C091E0899F802D1124809396
:101970001B02FF2061F00E94FD181F1414F09FEF5E
:1019800001C091E0899F802D112480931C02309129
:101990001B023323E1F020911C022223C1F045EB0E
:1019A0003403C0011124992319F090931B0203C042
:1019B00081E080931B0235EB2303C001112499239E
:1019C00019F090931C0203C081E080931C02011166
:1019D00003C0112309F451C08091140290911502A3
:1019E0000E94521E9C0190911302992309F48CC00D
:1019F0002536310508F441C09F3F19F09F5F909351
:101A00001302002361F00E94DB18101614F09FEF00
:101A100001C091E0899F802D112480931D02112324
:101A200061F00E94DB18111614F09FEF01C091E0E5
:101A3000899F802D112480931E0230911D02332333
:101A4000E1F020911E022223C1F045EB3403C001D6
:101A50001124992319F090931D0203C081E0809313
:101A60001D0235EB2303C0011124992319F0909333
:101A70001E0203C081E080931E0280911B0281112F
:101A80000BC080911C02811107C080911D02811141
:101A900003C080911E0281110E941A1CEB82FC82FD
:101AA0000D831E8386E0FE013196A9E1B2E001902C
:101AB0000D928A95E1F70E94992990911F0289174A
:101AC00009F4BDCB0E94992980931F020E940F1C2C
:101AD000B6CB09BD19BD09B400FEFDCF8091D80079
:101AE0008F7D8093D8008091E00082608093E00039
:101AF0008091E00081FDFCCF0E943023A9CB2D32E4
:101B0000314008F025CF63CF2D32314008F076CF39
:101B1000B4CF8F929F92AF92BF92CF92DF92EF920B
:101B2000FF920F931F93CF93DF93CDB7DEB72A9722
:101B30000FB6F894DEBF0FBECDBFFC010081D1808F
:101B400083819481892B39F01FEFD11206C091E077
:101B50000F3F19F403C091E001C090E090FF02C074
:101B60000C9466167F0185E0DE01169601900D92B9
:101B70008A95E1F7D70112962C918E819F812223BD
:101B800049F00E94AF1F182F682F8E819F810E94FD
:101B9000522003C00E942520182FB0E51B9FF001A2
:101BA000112415E0D19EE00DF11D1124E00FF11D6F
:101BB000EE0FFF1FED57FD4F05911491F801EF5502
:101BC000FD45E131F10508F00CC3EA5AFF4FD7019A
:101BD00012968C910C943332882311F40C9446168F
:101BE0000E94A2178091D801C5C281110C9446169B
:101BF00082E60E94072F82E60E94072F0C94461669
:101C0000882311F40C9446168091380291E0382F05
:101C1000327081FF90E09093320291E0282F207281
:101C200085FF90E090933102311103C0211104C06F
:101C300022C081EE0E94FC2D80913102882319F090
:101C400085EE0E94FC2D8FE20E94632E8FE20E949F
:101C5000FC2D80913202882319F081EE0E94632EC0
:101C600080913102882311F40C94461685EE0E946F
:101C7000632E0C9446168FE10E94632E8FE12CC0D8
:101C8000882311F40C9446168091380291E0382F85
:101C9000327081FF90E09093320291E0282F207201
:101CA00085FF90E090933102311103C0211104C0EF
:101CB0000FC081EE0E94FC2D80913102882319F023
:101CC00085EE0E94FC2D8EE20E94632E8EE2BFCF35
:101CD00083E20E94632E83E20E94FC2DD7C78823F3
:101CE00009F4D4C78091380291E0382F327081FF17
:101CF00090E09093320291E0282F207285FF90E0CF
:101D000090933102311103C0211104C012C081EE41
:101D10000E94FC2D80913102882319F085EE0E94EB
:101D2000FC2D81EE0E94632E83E20E94632E83E2EB
:101D300007C284E20E94632E84E2CECF882309F496
:101D4000A5C78091380291E0382F327081FF90E072
:101D50009093320291E0282F207285FF90E09093BB
:101D60003102311103C0211104C012C081EE0E9462
:101D7000FC2D80913102882319F085EE0E94FC2D04
:101D800081EE0E94632E84E30E94632E84E3D8C117
:101D900085E20E94632E85E29FCF882309F476C7EF
:101DA0008091380291E0382F327081FF90E090935B
:101DB000320291E0282F207285FF90E0909331024B
:101DC000311103C0211104C012C081EE0E94FC2D0C
:101DD00080913102882319F085EE0E94FC2D81EE5E
:101DE0000E94632E85E20E94632E85E2A9C186E2ED
:101DF0000E94632E86E270CF882309F447C7809142
:101E0000380291E0382F327081FF90E090933202D7
:101E100091E0282F207285FF90E0909331023111DC
:101E200003C0211104C012C081EE0E94FC2D8091DC
:101E30003102882319F085EE0E94FC2D81EE0E946C
:101E4000632E86E20E94632E86E27AC187E20E94B8
:101E5000632E87E241CF882309F418C780913802A6
:101E600091E0382F327081FF90E09093320291E040
:101E7000282F207285FF90E090933102311103C02A
:101E8000211104C012C081EE0E94FC2D809131020C
:101E9000882319F085EE0E94FC2D81EE0E94632EAE
:101EA00087E80E94632E87E84BC18DE20E94632E73
:101EB0008DE212CF882309F4E9C68091380291E0BF
:101EC000382F327081FF90E09093320291E0282FFA
:101ED000207285FF90E090933102311103C02111EF
:101EE00004C012C081EE0E94FC2D80913102882333
:101EF00019F085EE0E94FC2D81EE0E94632E83E393
:101F00000E94632E83E31CC181EE0E94632E8DE24A
:101F10000E94632E8DE22AC1882309F4B7C68091FE
:101F2000380291E0382F327081FF90E090933202B6
:101F300091E0282F207285FF90E0909331023111BB
:101F400003C0211104C012C081EE0E94FC2D8091BB
:101F50003102882319F085EE0E94FC2D81EE0E944B
:101F6000632E80E30E94632E80E3EAC080E30E9438
:101F7000632E80E3B1CE882309F488C680913802AD
:101F800091E0382F327081FF90E09093320291E01F
:101F9000282F207285FF90E090933102311103C009
:101FA000211104C012C081EE0E94FC2D80913102EB
:101FB000882319F085EE0E94FC2D81EE0E94632E8D
:101FC00082E30E94632E82E3BBC082E30E94632E01
:101FD00082E382CE882309F459C68091380291E0C9
:101FE000382F327081FF90E09093320291E0282FD9
:101FF000207285FF90E090933102311103C02111CE
:1020000004C012C081EE0E94FC2D80913102882311
:1020100019F085EE0E94FC2D81EE0E94632E89E866
:102020000E94632E89E88CC087E80E94632E87E8AF
:1020300053CE882309F42AC68091380291E0382FC4
:10204000327081FF90E09093320291E0282F20724D
:1020500085FF90E090933102311103C0211104C03B
:102060000FC081EE0E94FC2D80913102882319F06F
:1020700085EE0E94FC2D84E30E94632E84E3E7CD6D
:1020800083E30E94632E83E327CE882309F4FEC5F1
:102090008091380291E0382F327081FF90E0909368
:1020A000320291E0282F207285FF90E09093310258
:1020B000311103C0211104C012C081EE0E94FC2D19
:1020C00080913102882319F085EE0E94FC2D81EE6B
:1020D0000E94632E8FE10E94632E8FE131C081EE5A
:1020E0000E94632E84E20E94632E84E23FC0882314
:1020F00009F4CCC58091380291E0382F327081FF0D
:1021000090E09093320291E0282F207285FF90E0BA
:1021100090933102311103C0211104C015C081EE2A
:102120000E94FC2D80913102882319F085EE0E94D7
:10213000FC2D81EE0E94632E8FE20E94632E8FE2BF
:102140000E94FC2D81EE83CD81EE0E94632E8EE2F3
:102150000E94632E8EE20AC0882309F497C581EE9F
:102160000E94632E89E30E94632E89E30E94FC2D66
:1021700081EEB2CD81608093D80161E086952EC05A
:10218000F7018281882309F4ACC110923302023036
:10219000FCE51F0708F055C08091AE0206312CE522
:1021A000120709F48EC182720D3C3CE5130709F455
:1021B0004CC208F4A7C1043D8CE5180708F0F4C12F
:1021C000023D9CE5190708F061C50F3CACE51A0714
:1021D00009F442C208F0DBC161E081E00E945417BB
:1021E00055C5043F2CE5120799F406E221EE40EEB6
:1021F00064EF7CE509C0083DACE51A0709F606E284
:1022000021EE41EE68ED7CE5C7010E94732D3EC5CD
:10221000053F3CE5130708F035C1093D8CE518077B
:1022200031F407E225EE45EE69ED7CE5EDCF0A3DA0
:102230009CE5190701F708E221E045EE6AED7CE52F
:10224000E3CF06312CE5120730F0C8018B5F9C45C7
:10225000099708F0A1CF0E94C91E9093A90180930D
:10226000A80100313CE5130709F4C3C008F041C0E0
:1022700008309CE5190709F49AC0F0F40430BCE575
:102280001B0709F487C068F40230FCE51F0709F456
:1022900077C003301C4509F0E5C08091A801826039
:1022A00076C006303CE5130709F46EC008F07BC029
:1022B0008091A80188606BC00C309CE5190709F477
:1022C00085C068F40A30BCE51B0709F474C008F047
:1022D00079C00E9430238091A801806858C00E30D8
:1022E000FCE51F0709F476C008F07FC08091A801C3
:1022F0008BC00C3F3CE5130709F44FC018F50331C0
:102300009CE5190709F47DC078F40131BCE51B0791
:1023100009F473C002311C4509F0A4C00E943023A7
:102320008091A8018F7733C00531FCE51F0709F4C0
:1023300072C008F486C00B3F1C4509F093C0809121
:10234000A9013EC001158DE5180709F45FC058F4D6
:102350000E3FACE51A0709F444C008F43FC0809171
:10236000A90182602DC00230EDE51E0709F475C099
:1023700008F45DC003301D4509F074C060E06EC014
:102380008091A801816003C08091A8018061809341
:10239000A80168C08091A80111C08091A901826044
:1023A0008093A9015FC08091A8018062F0CF8091E5
:1023B000A8018064ECCF8091A80188608460E7CF99
:1023C0008160EECF8091A8018E7FE1CF8091A8013E
:1023D0008D7FDDCF8091A801877FD9CF8091A90122
:1023E00018C08091A9018D7FDBCF8091A8018F7EDD
:1023F000CECF8091A8018F7DCACF8091A8018F7B1D
:10240000C6CF8091A801877F8B7FC1CF8091A90122
:102410008D7F8E7FC5CF8091A80182FB222720F976
:1024200091E0922790FB82F990FB83F9B0CF8091E5
:10243000A901982F909591708E7F892B90FB81F93F
:10244000AFCF0E9430238091A80187FB222720F97B
:1024500091E0922790FB87F99ACF61E08EE090E0BF
:102460000E9468316091A8011091A90184E090E078
:102470000E946831612F82E290E00E9468310E94E0
:10248000302304C4063FBCE51B0731F406E221EE0D
:1024900042EE66EF7CE5B8CE063FECE51E0730F471
:1024A00007E225EE44EE65EF7CE5AECE073FFCE5A6
:1024B0001F0709F065CE07E225EE46EE67EF7CE5E3
:1024C000A3CE8A7A91E009F490E0909334028823B5
:1024D00011F065E301C069E288E392E00E94AF1E5B
:1024E0000EC006311C4509F004C1809134028823D6
:1024F00009F4EAC365E388E392E00E94A21E0E9409
:102500004B1FC4C3073CACE51A0709F48AC0D8F4D2
:10251000043CECE51E0709F47AC030F4033C2CE5DA
:10252000120709F455C0A6C0053C3CE5130709F4A1
:1025300073C0063C9CE5190709F09CC046EF56E1C4
:1025400063E077E186C00A3CACE51A0709F473C082
:1025500078F4083CECE51E0709F468C0093CFCE58A
:102560001F0709F087C040EE56E164ED76E171C0C7
:102570000B3C2CE5120709F463C00C3C3CE5130747
:1025800009F078C042E357E163E477E162C0003DBF
:10259000ECE51E0709F463C0013DFCE51F0709F0E7
:1025A00069C06EE089E063C0053D2CE5120709F4BF
:1025B0005CC008F457C0063D8CE5180709F466C3F3
:1025C0000E359DE5190709F055C06FE18AE14FC04E
:1025D0008091D80180FFCECD8E7F8093D80160910D
:1025E000D8017091D9018091DA019091DB010E94AC
:1025F00020171092DE01AFEFB0E7E2E0A150B0404B
:10260000E040E1F700C000000E942D2A3FC34FE8E0
:1026100057E168E977E11DC048E957E16FE877E1E4
:1026200018C043E057E166EF76E113C044ED56E190
:1026300060EE76E10EC04CEB56E168EC76E109C045
:1026400048EC56E16CEB76E104C043E457E162E309
:1026500077E10E94272A1AC365E082E008C068E09B
:1026600086E005C061E08FE0B9CD69E180E10E94BC
:10267000152A0CC30B35FDE51F07B1F150F4011508
:102680003CE51307A9F00F3D1C4599F50E94DA1EA1
:10269000FDC20C359DE5190749F10D351D4549F57C
:1026A0008091A90182FB882780F991E089271FC0CA
:1026B0000E943023BFEFE4E3FCE0B150E040F04083
:1026C000E1F700C0000087E797E790930108809347
:1026D00000089AE088E10FB6F894A895809360000E
:1026E0000FBE90936000FFCF81E001C080E00E94A8
:1026F000951FD70112968C9112970D911C918823EA
:1027000049F0C8010E94AF1FD82E682FC8010E944F
:10271000522004C0C8010E942520D82EB8018D2D5A
:102720000E9478198C01982EF701D280A580A2947E
:102730002FE0A2228091AB02877099F0DD2089F012
:10274000812F807F803421F080E2800F883048F034
:1027500082E00E94AF208091AB028770CC24C394AA
:102760008111C12CB12EB2949FE0B9228B2D90E043
:102770008C30910508F04BC2FC01E959FF4F0C94D5
:102780003332812F807F1F70882311F01295107FC4
:10279000DD20B9F0112309F425C280E2800F8830D2
:1027A00010F0911006C08091AE02182B1093AE026B
:1027B00005C08091AD02182B1093AD020E944B1FF3
:1027C00011C2802F0E94FC2D112309F420C2005E4B
:1027D0001095083010F0911006C08091AE021823B9
:1027E0001093AE0205C08091AD0218231093AD0284
:1027F0000E944B1F0CC2812F807F1F70803211F00E
:102800001295107F992021F0F1E09F1601F12EC062
:10281000DD20A1F08091AF02AA2071F001E0A012AA
:102820000BC0182B9091A90192FDF1C1181709F462
:10283000EEC11093AF02EBC1812B10C0AA2021F092
:1028400021E0A21609F4E3C10E94451F2AC0DD2041
:1028500041F035E03A1508F4DAC1812F0E945B237C
:10286000D6C184E08A1508F4D2C11BC0DD2061F016
:10287000AA2099F3D70115968C91159780FFB2C1C4
:102880008F7015968C93E9CFAA2059F0093309F07F
:10289000BBC1BFEFE7EEF3E0B150E040F040E1F73D
:1028A000B1C1812F0E945023B2C1812F8695869598
:1028B000837019F0813059F0AAC1DD2019F0C801E8
:1028C000937002C080E090E00E948329A8C1DD20BF
:1028D00019F0C801937002C080E090E00E946D2959
:1028E0009EC1802FDD2019F00E941D1902C00E9498
:1028F00064180E941A1C93C1812F837009F069C06B
:10290000D11089C1902F929596959770990F990F34
:10291000802F8F70882E912CA12CB12C092E04C0F1
:10292000880C991CAA1CBB1C0A94D2F704FF12C085
:102930004FE050E060E070E004C0440F551F661F98
:10294000771F9A95D2F7DB01CA0180959095A095E3
:10295000B09503C080E090E0DC0116951695412FFC
:102960004370423019F1C8F40091E7011091E80179
:102970002091E9013091EA01413059F088299929E3
:10298000AA29BB29BC01CD01602371238223932393
:102990000AC0802A912AA22AB32ABC01CD01682943
:1029A00079298A299B290E94ED2035C188299929F6
:1029B000AA29BB290091E7011091E8012091E901C2
:1029C0003091EA01BC01CD0160277127822793274E
:1029D000EACFDD2019F0812F817001C08695882310
:1029E00009F419C1902F929596959770990F990FA8
:1029F000802F8F70882E912CA12CB12C092E04C011
:102A0000880C991CAA1CBB1C0A94D2F704FF12C0A4
:102A10004FE050E060E070E004C0440F551F661FB7
:102A2000771F9A95D2F7DB01CA0180959095A09502
:102A3000B09503C080E090E0DC0116951695412F1B
:102A400043704230D9F068F50091E3011091E40140
:102A50002091E5013091E601413059F0882999290A
:102A6000AA29BB29BC01CD016023712382239323B2
:102A70001EC0802A912AA22AB32A13C08829992924
:102A8000AA29BB290091E3011091E4012091E501FD
:102A90003091E601BC01CD01602771278227932781
:102AA00006C0BC01CD01682979298A299B290E9489
:102AB0007E20B1C01F70DD2039F0812F0E94CC2014
:102AC000802F0E945B23A7C0802F0E945023812F5C
:102AD0000E948A20A0C0802F22EF921609F440C0E5
:102AE000291538F030EF931661F091EF991699F1AE
:102AF00074C0A3EF9A16D9F1B4EF9B1609F44EC037
:102B00006CC0DD2019F1E4E0EA1508F480C01F7103
:102B100081E090E0A0E0B0E0AC01BD0104C0440F52
:102B2000551F661F771F1A95D2F78091E301909188
:102B3000E401A091E501B091E6018A019B0108271B
:102B400019272A273B27C901B80125C025E02A15E6
:102B500008F45DC0DCCFDD2029F0812F8F7130C0FB
:102B6000DD20D9F3812F8F710E948A2050C0DD2093
:102B700079F01F7181E090E0A0E0B0E0BC01CD01F0
:102B800004C0660F771F881F991F1A95D2F703C0DC
:102B900060E070E0CB010E947E2039C0DD2099F01A
:102BA0001F71812F0E94CC208091A90182FD07C056
:102BB00038E0139FC001112483608093AB02812F02
:102BC0000E94CC2024C081E00E94AF2081E08A15C1
:102BD000F0F482E00E94AF201AC0DD2039F0AA2074
:102BE00009F4BBCF802F0E94632E11C0AA2009F4E4
:102BF000B9CF893349F49FEFA7EEB3E09150A040DD
:102C0000B040E1F700C00000802F0E94FC2D88EF4B
:102C10008B0D843020F40E9499290E940F1CCC2037
:102C2000A9F08091AB0280FD11C0F7011282859559
:102C3000859585950E94CC20C7010E94890D8091C1
:102C4000AB028595859585950E948A2085E0F701E0
:102C5000DE01119601900D928A95E1F789819A81A2
:102C60000E9425209A8100E5809FF001112415E043
:102C7000919FE00DF11D11248981E80FF11DEE0FE8
:102C8000FF1FED57FD4F8591949120C08091AB02BD
:102C90008770E1F0D70112968C918823B9F082E019
:102CA0002A960FB6F894DEBF0FBECDBFDF91CF914D
:102CB0001F910F91FF90EF90DF90CF90BF90AF905A
:102CC0009F908F900C94AF2069E215CC2A960FB696
:102CD000F894DEBF0FBECDBFDF91CF911F910F9152
:102CE000FF90EF90DF90CF90BF90AF909F908F902C
:102CF00008959091A80192FF0DC0282F28712830C7
:102D000019F4877F846006C0282F2471243011F4C1
:102D10008B7F886093FF0DC0282F2871283119F40C
:102D2000877E846106C0282F2471243111F48B7EA4
:102D300088612091A90120FF0DC0382F38713830EB
:102D400019F4877F816006C0382F3171313011F45A
:102D50008E7F886021FF0DC0282F2871283119F43B
:102D6000877E816106C0282F2171213111F48E7E6A
:102D7000886194FD877E0895E8EDF1E0438128E0C5
:102D8000421B08F440E021E0628181810C94E22C36
:102D9000E8EDF1E0438128E0420F08F44FEF21E035
:102DA000628181810C94E22CE8EDF1E0628120E205
:102DB000621B08F460E021E0438181810C94E22CE5
:102DC000E8EDF1E0628120E2620F08F46FEF21E0AC
:102DD000438181810C94E22CE8EDF1E09181282F70
:102DE000438162818CEF890F0C94E22C81E00C947A
:102DF000EC16E8EDF1E09181282F4381628184E0B7
:102E0000890F0C94E22C81E00C94F9168091D80182
:102E1000282F269530E02115310519F48170826044
:102E200005C02032310524F081708E638093D80173
:102E30008091DB0187FF03C08FE78093DB0108955A
:102E4000CF92DF92EF92FF926B017C010E940617F6
:102E5000B701A60188E090E0FF90EF90DF90CF905F
:102E60000C947A318091DC01882319F08150809391
:102E7000DC016091D8017091D9018091DA019091C3
:102E8000DB010C9420178091DC01833018F48F5FF4
:102E90008093DC016091D8017091D9018091DA01B1
:102EA0009091DB010C9420179091D80190FF36C0CF
:102EB0009170811102C0926006C0803210F09E6352
:102EC00002C0880F982B9093D801662351F060912F
:102ED000D8017091D9018091DA019091DB010E94B3
:102EE00020176091D801669570E04BE050E08BE1CF
:102EF00091E00E944832892B19F01092DE0102C045
:102F00000E94E62D81E08093D50120E04091DB0115
:102F10006091DA018091D9010C94E22C089580919E
:102F2000D8018695815009F48FE161E00C94541723
:102F30008091D80186958F5F803208F081E061E052
:102F40000C945417E8EDF1E083E0808311828FEF59
:102F500082838FE783831482608171818281938170
:102F60000C942017AF92BF92CF92DF92EF92FF9214
:102F70000F931F93CF93DF93E82EF62EE90147FDC1
:102F80004FE7E42FF0E0F11006C0ED55FA4FE49161
:102F90004E2F2E2F71C00F2D10E0ED55FA4F44919A
:102FA000F42FC42ED12C26E0E29EC00111242FEF75
:102FB00030E0B9010E940B325BEA5603C001579F13
:102FC000900D11248E0D911D8E0D911D582F550FB2
:102FD000580FD901A01BB10BAC9DC001AD9D900D48
:102FE000BC9D900D1124E92FF59ED0011124AB2F2B
:102FF000BB277901EA1AFB0AEC9CD001ED9CB00DCD
:10300000FC9CB00D11245901A51AB108A09E7001B5
:10301000A19EF00CB09EF00C1124EF2CFF242E1971
:103020003F092C9D80012D9D100D3C9D100D1124FC
:10303000212F6230710591F048F461157105E1F0BE
:1030400061307105B9F4242F4B2F16C0643071051F
:1030500069F040F06630710579F00CC0242F492FDB
:10306000E12F0AC0492FEF2F2B2F06C0292FE42F65
:10307000412F02C0292FEB2F49832883EA83DF9158
:10308000CF911F910F91FF90EF90DF90CF90BF9065
:10309000AF900895CF93DF9300D01F92CDB7DEB7E6
:1030A0009091D80190FF0AC09E012F5F3F4F0E9470
:1030B000B2174B8169818A810E94C72C0F900F90B3
:1030C0000F90DF91CF9108958D3E39F490911C02BD
:1030D00097FF35C010921C0259C08E3E29F4909182
:1030E0001C021916BCF32BC090911B028F3E29F4D1
:1030F00097FF25C010921B0249C0803F19F4191692
:10310000CCF31DC090911D02893F29F41916BCF41F
:1031100010921D023BC08A3F19F497FF10C0F8CFF0
:103120008B3F39F490911E0297FF09C010921E0246
:103130002DC08C3F21F490911E021916BCF39FE024
:10314000980F983080F421E030E0A90102C0440FCC
:10315000551F9A95E2F7CA01809590911A0289232A
:1031600080931A0213C08D3F21F4809140028E7F1C
:103170000BC08E3F21F4809140028D7F05C08F3FB0
:1031800029F4809140028B7F8093400280911B0242
:10319000811106C080911C02811102C0109216029A
:1031A00080911D02811106C080911E02811102C012
:1031B0001092130208958091400280FD16C081FD97
:1031C00016C082FD18C080911302882391F08832C6
:1031D00090F428E0829FC001112468E270E00E9410
:1031E0001F32862F672B29F007C082E0089584E004
:1031F000089581E0089588E008958091400280FD5F
:1032000014C081FD14C082FD16C08091160288236F
:1032100081F0843180F422E3829FC001112464E1B3
:1032200070E00E941F32862F08958CE0089589E196
:10323000089585E0089582E308958D3E21F40E946B
:10324000FD18819504C08E3E29F40E94FD188093DC
:103250001C0208958F3E21F40E94FD18819504C040
:10326000803F29F40E94FD1880931B020895893F36
:1032700019F40E94DB1805C08A3F31F40E94DB1864
:10328000819580931D0208958B3F21F40E94DB18E5
:10329000819504C08C3F29F40E94DB1880931E02A4
:1032A00008959FE0980F983078F421E030E0A9016C
:1032B00002C0440F551F9A95E2F7CA0190911A0275
:1032C000892B80931A0208958D3F21F4809140024A
:1032D00081600BC08E3F21F480914002826005C066
:1032E0008F3F29F4809140028460809340020895CA
:1032F000CF93DF9320E5829FC0011124FC0145E0BC
:10330000749FE00DF11D1124E60FF11DEE0FFF1F5C
:10331000ED57FD4FC591D491CE01C238D10569F169
:10332000B0F4C133D10509F475C048F4C932D105F0
:1033300009F469C0CA32D10509F473C085C0C53328
:10334000D10509F459C0C933D105B9F07DC0C33ED8
:10335000D10571F138F4C03ED105B1F0C23ED105BE
:1033600011F172C0C63ED105B9F1C73ED105C9F110
:10337000C43ED10509F068C024C02091A80120FDF9
:103380005DC021FD5BC060C02091A80120FD50C040
:103390002091A90120FF51C18091A80184FD4BC15A
:1033A00083EE90E04AC12091A80122FF46C1F4CFEC
:1033B0008091A80182FD3FC08091A90180FD3EC09F
:1033C000EBCF2091A90121FF38C18091A80184FD94
:1033D00032C187EE90E031C12091A80123FF2DC1B9
:1033E000F4CF8091A80183FD2CC08091A90181FFB9
:1033F000ECCF84EE90E021C12091A80125FF1DC1F2
:1034000089E290E01AC12091A80125FF16C185E349
:1034100090E013C12091A80126FF0FC18AE290E03D
:103420000CC12091A80126FF08C181E390E005C1ED
:1034300089E390E002C182EE90E0FFC080EE90E070
:10344000FCC086EE90E0F9C0C11551E5D50708F043
:103450006CC0C11520E5D207F0F0CE01F4E09695DE
:103460008795FA95E1F7282F23703C2F337081E080
:1034700090E002C0880F991F3A95E2F79C68922B62
:103480002C2F2F702695269550E2259F9001112410
:10349000822B932BD2C0C83ED10570F5C03ED1051A
:1034A00008F0CBC0C83AD105B8F4C53AD10550F000
:1034B0002C2F255AC22FD0E0CC58DE4F888190E0C7
:1034C0009064BBC0C130D10509F4B7C008F4B3C0E3
:1034D000249708F4B0C0B1C0CF3BD10508F0ABC011
:1034E0002C2F285AC22FD0E0CC0FDD1FC958DE4F39
:1034F000888199819464A1C0C11540E2D40760F429
:10350000C11551E0D50708F098C0CD3ED10508F4AB
:1035100092C0CE01906591C0C11580E4D80708F42F
:103520008AC0CE019F70906A88C0C11525E5D20778
:1035300008F040C0C11544E5D40728F09C2F882727
:10354000846F906A7AC0C11553E5D507A8F09E0133
:103550002370332781E090E002C0880F991F2A95DD
:10356000E2F72C2F2695269550E2259F90011124F5
:10357000822B932B9A6861C0C11582E5D80728F485
:103580009C2F8827816F906A58C09E012370332733
:1035900081E090E002C0880F991F2A95E2F72C2F56
:1035A0002695269540E2249F90011124822B932B8F
:1035B0009C6843C0C11529E5D207B0F4C11548E5A0
:1035C000D40728F09C2F8827806F906A36C0C115D9
:1035D00056E5D50780F58C2F0E9479168F7190E003
:1035E000982F8827906229C0C1158AE5D80790F4E2
:1035F0008C2F8F700E9479169E0194E03695279546
:103600009A95E1F72F7030E0322F22273069A90117
:10361000482B0FC0CE0190568115904260F48D2F3B
:103620008F710E9479169E01332730628F71A90134
:10363000582BCA0102C080E090E0DF91CF9108953D
:10364000CF92DF92EF92FF926C01EE24FF24C1141F
:10365000D104E104F10421F0C701B60120E101C069
:1036600020E0C72ED82EE92EFF24C114D104E10496
:10367000F10419F0285FC701B6016B017C0154E029
:10368000F694E794D794C7945A95D1F7C114D1040E
:10369000E104F10419F02C5FC701B6016B017C0154
:1036A00042E0F694E794D794C7944A95D1F7C114B1
:1036B000D104E104F10419F02E5FC701B601DC0169
:1036C000CB01B695A79597958795892B8A2B8B2B40
:1036D00009F02F5F822FFF90EF90DF90CF90089539
:1036E000CF92DF92EF92FF926B017C016115710521
:1036F0008105910561F0DC01CB0142E0B695A7950B
:10370000979587954A95D1F7682F617001C060E061
:1037100081E00E94A42CC114D104E104F10461F001
:10372000D701C60133E0B695A795979587953A9549
:10373000D1F7682F617001C060E082E00E94A42C84
:10374000C114D104E104F10461F0D701C60124E001
:10375000B695A795979587952A95D1F7682F6170AB
:1037600001C060E083E00E94A42C6091E7017091A9
:10377000E8018091E9019091EA010E94201B8823D1
:1037800041F0813031F42CED34E040E36FEF89EA11
:1037900005C02CED34E040E16FEF85E50E94B217E3
:1037A000C701B6010E94201B833051F0843071F0B4
:1037B000823099F42CED34E040E66FEF85E50BC0E4
:1037C0002CED34E040E66FEF80E105C02CED34E0F5
:1037D00040E660E884E90E94B217C701B601FF9095
:1037E000EF90DF90CF900895CF93C82F26ED34E06F
:1037F00081FF02C040E801C040E16FEF80E00E941D
:10380000B21729ED34E0C0FF02C040E601C040E13C
:103810006FEF80E20E94B217CF910C942D2ACF93C4
:10382000C82F0E94F41BC1FB662760F980E0CF918E
:103830000C94A42C0E946D1E20911B02211104C027
:1038400020911C02222321F09093180280931702EA
:1038500020911D02211104C020911E02222321F07B
:103860009093150280931402E091BD01F091BE0186
:10387000309749F082E0809319020480F581E02DB1
:1038800089E192E0099408952F923F924F925F92BE
:103890006F927F928F929F92AF92BF92CF92DF9260
:1038A000EF92FF920F931F93CF93DF9300D000D03E
:1038B00000D0CDB7DEB72AEA822E21E0922E32EB7D
:1038C000E32E31E0F32ED40127E231E03A8329835D
:1038D000B12C61E070E06D016C901C92E981FA817D
:1038E0008191FA83E983E82FE295EF702E2F30E083
:1038F0003C832B83F90121A18F70AB0102C0440FDF
:10390000551F8A95E2F7CA01242B21A322A1A42ED8
:10391000A0942A2122A350EA5A95F1F797E3292E81
:1039200091E0392E810140E050E0F80171908F0163
:10393000272D22952F7030E0F90120A15C9030E016
:10394000F72DFF7002C035952795FA95E2F720FD17
:1039500007C0262F042E01C0220F0A94EAF701C0E7
:1039600020E0522A5C924F5F5F4F45305105E9F6E7
:10397000EB81FC8191A1A922A1A292A1892B82A312
:10398000119681E0F6019081961101C080E0B82A7D
:10399000EA16FB0609F09FCF40E050E061E070E0DE
:1039A0008AEB482E81E0582ED1018D911D01E82F20
:1039B000E295EF70F0E021A18F70DB0102C0AA0F49
:1039C000BB1F8A95E2F7CD012A2B21A322A1FA2E53
:1039D000F0942F2122A3B0EABA95F1F79B01042EAF
:1039E00001C0220F0A94EAF7A22EE22EE0940AEB1D
:1039F00011E022EB31E03E832D83A7E2B1E0BC83EE
:103A0000AB83C12C2D813E813A832983D901DC907F
:103A1000AB81BC817D90BC83AB83272D22952F7019
:103A200030E0D90190962C9130E0B72DBF7002C0E4
:103A300035952795BA95E2F720FD03C02D2D2A294B
:103A400002C02D2D2E21AD81BE812C932D813E8172
:103A50002F5F3F4F3E832D83A981BA812C91D216CF
:103A600011F0CC24C3942D813E814216530651F6A9
:103A700091A1F922F1A292A1892B82A3BC284F5FC8
:103A80005F4F4530510509F08FCFBB2049F081E0F1
:103A9000809337020E946D1E909336028093350208
:103AA00080913702882399F08091350290913602F7
:103AB0000E94521E069758F0E2ECF1E0D4018D917D
:103AC0004D0181930A171B07C9F7109237028B2DFE
:103AD00026960FB6F894DEBF0FBECDBFDF91CF9113
:103AE0001F910F91FF90EF90DF90CF90BF90AF901C
:103AF0009F908F907F906F905F904F903F902F900E
:103B000008958091B602089580E00895209178028A
:103B10009091470256E02917A9F030E0529FF0013A
:103B2000539FF00D1124E85BFD4F7181761306C0A1
:103B30007081781303C07281741306C02F5F3F4FEA
:103B40002770E9CF80E0089581E00895CF93DF9357
:103B500000D01F92CDB7DEB79091C102943019F515
:103B600089837B836A8382E08093E9008FEF909161
:103B7000E800815095FD06C095ED9A95F1F700009B
:103B80008111F5CF8091E80085FF0DC040E050E045
:103B900063E070E0CE0101960E941C248091E80051
:103BA0008E778093E8000F900F900F90DF91CF9168
:103BB0000895BC0184E00C94A61DBC0183E00C9424
:103BC000A61D22E02093E9002FEF3091E80021505C
:103BD00035FD06C035ED3A95F1F700002111F5CF1E
:103BE0002091E80025FF0BC040E050E066E070E067
:103BF0000E941C248091E8008E778093E80008954D
:103C0000CF93DF9321E02093E9002FEF3091E8007C
:103C1000215035FD06C035ED3A95F1F70000211130
:103C2000F5CF2091E80025FF14C0EC0140E050E002
:103C300068E070E00E941C248091E8008E778093F9
:103C4000E80088E0FE01A7EBB2E001900D928A95B2
:103C5000E1F7DF91CF91089578941F920F920FB6FC
:103C60000F9211248F939F93AF93BF938091B002D3
:103C70009091B102A091B202B091B3020196A11D40
:103C8000B11D8093B0029093B102A093B202B093A1
:103C9000B302BF91AF919F918F910F900FBE0F9084
:103CA0001F9018959C014FB7F8948091B0029091A5
:103CB000B102A091B202B091B3024FBF821B930B2D
:103CC00008952FB7F8946091B0027091B10280917D
:103CD000B2029091B3022FBF08952FB7F89480914C
:103CE000B0029091B102A091B202B091B3022FBF85
:103CF00008951F920F920FB60F9211248F939F93E6
:103D0000AF93BF938091BF01811113C08091B00226
:103D10009091B102A091B202B091B3024196A11D5F
:103D2000B11D8093B0029093B102A093B202B09300
:103D3000B302BF91AF919F918F910F900FBE0F90E3
:103D40001F9018959C012A5F3F4FFC01428146134A
:103D500001C01282019682179307B9F708959C015A
:103D6000FC0132969FEF80E04191461789F09F3F1A
:103D700019F4411101C0982F8F5F8630A9F79F3F3A
:103D800039F0F901E90FF11D97FDFA956283089565
:103D90000895CF9384E090E00E945431C82F82E2CE
:103DA00090E00E9454312C2F30E0A901582BCA0119
:103DB000CF9108956AEE7EEF80E090E00E94863118
:103DC00060E082E090E00E94683160E083E090E093
:103DD0000E9468311092E7011092E8011092E90107
:103DE0001092EA0160E084E090E00E94683160E0B7
:103DF00082E290E00E94683160E085E090E00E94FD
:103E0000683160E086E090E00E9468316FEF87E003
:103E100090E00E94683140E050E0BA0188E090E014
:103E20000E947A3160E08DE090E00E94683140E0CD
:103E300050E0BA0188E190E00E947A3160E087E1C9
:103E400090E00E94683140E050E0BA018CE190E0DF
:103E50000E947A3160E070E080E290E00E9486315A
:103E600040E050E0BA0188E190E00E947A3140E001
:103E700050E0BA018FE090E00E947A3140E050E0DB
:103E8000BA0183E190E00C947A318091AF02811104
:103E90001092AF0208959091AE028091AD02892BED
:103EA0002091AC02982F922B909338028091AF0210
:103EB000882389F0892B80933802EAE3F2E097E0C7
:103EC00080E0915029F021912223D9F38F5FF9CF1F
:103ED00081110E94451FE091BD01F091BE01309714
:103EE00031F00280F381E02D88E392E00994089597
:103EF00080E090E00E94832980E090E00E946D299C
:103F00001092AD021092AC020E944B1FE9E1F2E068
:103F100086E0DF011D928A95E9F710921602109251
:103F20001302109240020C941A1CCF93C091A90165
:103F3000C2FB992790F9981781F080FBC2F9C093D2
:103F4000A9016091A80184E090E00E9468316C2F83
:103F500082E290E0CF910C946831CF910895BF92A6
:103F6000CF92DF92EF92FF920F931F93CF93DF9345
:103F70008C01C090E301D090E401E090E501F09065
:103F8000E6018091E7019091E801A091E901B091EB
:103F9000EA01C82AD92AEA2AFB2ACFE1D0E0D701D0
:103FA000C6010C2E04C0B695A795979587950A94DF
:103FB000D2F780FD04C0219790F7B12C07C0BC2E2A
:103FC000B8018C2F0E9478190197A9F38B2DDF91EE
:103FD000CF911F910F91FF90EF90DF90CF90BF9006
:103FE0000895CF93DF93EC010E94AF1FBE010E94A2
:103FF0007819DF91CF9108950E94F11F292F2F701A
:10400000E92FE295EF704E2F50E0FA013297EE3033
:10401000F105B8F4ED58FF4F0C943332803F99F01E
:1040200018F4883E70F40FC0843F59F40CC0883EE9
:1040300050F0813F31F407C0822F86958695869592
:10404000089580E0089581E0089524E0929F900D06
:104050001124890F682F669566956695982F97703D
:1040600085E0689FB001112440E050E080E0FB0152
:10407000E40FF51FE758FD4F208130E0092E02C004
:10408000369527950A94E2F721703327042E01C054
:10409000220F0A94EAF7822B4F5F5F4F453051059C
:1040A00031F7089524E0929F900D1124890FE82F95
:1040B000E695E695E695877051E001C0550F8A9523
:1040C000EAF785E0E89FF0011124E758FD4F20E072
:1040D00030E070E04081CB01022E02C096958795BA
:1040E0000A94E2F781708195842785238427819340
:1040F0002F5F3F4F2530310569F708950E94701BEF
:104100006093E3017093E4018093E5019093E601ED
:104110000C94781F0F931F9341E050E060E070E033
:1041200004C0440F551F661F771F8A95D2F740952C
:104130005095609570958091E3019091E401A09174
:10414000E501B091E6018A019B01082319232A2386
:104150003B23C901B8011F910F910C947E2020913F
:10416000AB02809582238093AB02982F977041F425
:1041700030E0482F082E000C550B2417350721F48A
:104180009091A90192FF07C08595859585950E941C
:104190008A201092AB0208950F931F9341E050E0E4
:1041A00060E070E004C0440F551F661F771F8A95BA
:1041B000D2F78091E3019091E401A091E501B091E3
:1041C000E6018A019B01082B192B2A2B3B2BC901E5
:1041D000B8011F910F910C947E206093E7017093BA
:1041E000E8018093E9019093EA010C94781F809193
:1041F000780290914702891719F08F5F8770FBCF83
:1042000008950F931F93CF93DF9380914602829579
:104210008F7009F05DC080914302882309F458C073
:1042200080917802109147026091410270914202A0
:10423000C0914402D091450291E06F3F09F090E0B7
:10424000292F06E0811709F443C0209721F07F3F12
:1042500021F030E003C031E001C0322F90E030FDAA
:1042600034C0089FF001099FF00D1124DF01A85B05
:10427000BD4F11963C911197371327C03C913613CF
:1042800024C012963C91129731111FC013964D9184
:104290005C9114974C1B5D0B46395105B0F480912D
:1042A00046028F70806180934602E35BFD4F808100
:1042B0008F708061808381E492E00E94890DDF919C
:1042C000CF911F910F910C94F72001968770BACF70
:1042D000DF91CF911F910F9108958F929F92AF928E
:1042E000BF92CF92DF92EF92FF920F931F93CF93E3
:1042F000DF93CDB7DEB761970FB6F894DEBF0FBE80
:10430000CDBF8C0185E0F801DE011D9601900D9274
:104310008A95E1F7D801DC901196EC9011971296EE
:10432000CC909091410220914202409144025091E0
:1043300045024115510531F02F3F31F481E09F3F97
:1043400019F403C081E001C080E080FD58C1F8018C
:10435000A380B48081E4882E82E0982EF0904302FE
:10436000B501641B750BFF2009F403C1809146025F
:10437000382F307F6639710508F0CDC0311188C003
:104380002E1112C09D1110C0FC2CC1100DC08F70D9
:10439000806180934602C4010E94890D809146028B
:1043A000D80115968C9348C1A114B10439F0BFEF20
:1043B000EB1206C081E0DB1203C003C081E001C044
:1043C00080E080FD03C081E08C2502C080E090E0A9
:1043D00080FF10C04C2D6E2D8D2D0E94861D8823D0
:1043E00049F081E492E00E94890DE1E4F2E086E088
:1043F000DF0199C0AB2839F0BFEFEB1206C081E0B6
:10440000DB1203C003C081E001C080E080FD03C077
:1044100081E08C2502C080E090E0E82FE170BE2EA4
:1044200080FF2CC04C2D6E2D8D2D0E94861DF82EE8
:10443000811124C0DD86EE868D859E850E94F11F48
:10444000292F22952F70223018F0243090F405C0C7
:104450009F7059F0811109C0EFC09F7031F0D801F1
:1044600015969C91907F09F4E7C0805E883008F42F
:10447000E3C0C8010E94890DFB2CDEC0FC2CCC20BF
:1044800009F4DAC0809146028160809346024EC0F2
:104490002E1106C09D1104C0C11002C0F8018BC0CE
:1044A000DD86EE868D859E850E94FC1F882369F13E
:1044B000CC2059F120914602822F82958F7090E096
:1044C000029774F0809141029091420298878F8305
:1044D0001986BB86AA862C87CE0107960E94890D75
:1044E00086E0F801A1E4B2E001900D928A95E1F72F
:1044F0000E9401210DC02E15D9F0DD86EE868D8536
:104500009E850E94FC1F81111DC0C8010E94890D5B
:10451000FF24F39491C03111EECF81E492E00E9428
:10452000890D86E0D4011D928A95E9F7F12C84C0AB
:104530009D11E3CFC110E1CFF8018583C8010E942E
:10454000890D57C0CC2009F320914602822F829515
:104550008F7090E0029724F2809141029091420284
:104560009A8389831B82BD82AC822E83CE01019601
:10457000B5CF66397105E8F5FC2CCC2031F22E114F
:1045800027C09D1125C02091460220FD18C0822F12
:1045900082958F70482F50E04115510581F0F80148
:1045A00025834F30510541F08F5F982F9295907F72
:1045B000822F8F70892B8583C8010E94890D86E028
:1045C000F801A1E4B2E001900D928A95E1F734C0C0
:1045D000DD86EE868D859E850E94FC1F811180CF31
:1045E00080914602816080934602C8010E94890D35
:1045F00023C086E0D4011D928A95E9F71DC0CC2026
:1046000009F483CFDD86EE868D859E850E94FC1F92
:10461000F82E882309F479CF86E0F801A1E4B2E00E
:1046200001900D928A95E1F78091410290914202AA
:104630000E94F11F0E9401218F2D61960FB6F89400
:10464000DEBF0FBECDBFDF91CF911F910F91FF90C5
:10465000EF90DF90CF90BF90AF909F908F90089594
:104660001092AE0286E0EAE3F2E0DF011D928A9545
:10467000E9F70C94781F882341F080959091AD0262
:1046800089238093AD020C944B1F0895882339F041
:104690009091AD02892B8093AD020C944B1F08952D
:1046A000882341F080959091AE0289238093AE02D9
:1046B0000C944B1F0895882339F09091AE02892BFA
:1046C0008093AE020C944B1F0895CF93DF938A30F2
:1046D00011F481E003C08D3029F480E0DF91CF91A7
:1046E0000C94E529682F8091D4049091D50426E09C
:1046F000FC01AEECB4E001900D922A95E1F7603E2A
:1047000030F026E0FC0111922A95E9F70AC0F6E0A4
:104710006F9FB00111246952784F46E050E00E942B
:104720004B31C091D404D091D50446E050E0BE0195
:104730008EEC94E00E945532892B49F19E012E5C4B
:104740003240A90185E0569547958A95E1F781E0C9
:1047500090E0BC0102C0660F771F4A95E2F74091D6
:10476000CC025091CD02462B572B2B5F3F4F65E07B
:10477000369527956A95E1F702C0880F991F2A950B
:10478000E2F7842B952B9093CD028093CC029E016F
:10479000285C32404091CB02642F70E0C9010E9436
:1047A0000B32481B463010F4240F311D211582E0D6
:1047B000380710F020E030E022533D4F3093D5040D
:1047C0002093D404DF91CF910895CF93DF93EC0130
:1047D000FE018491882321F00E9465232196F8CF61
:1047E000DF91CF910895EF92FF920F931F93CF9394
:1047F000DF93EC017B0164E670E088E70E941030F3
:104800008C01EC0EFD1ECE15DF0561F017FD0AC010
:10481000FE01849164E670E00E9467308C0121966D
:10482000892B89F30E94EB30C801DF91CF911F9152
:104830000F91FF90EF900895EF92FF920F931F93C7
:10484000CF93DF937C018B010E94252F811119C02A
:10485000E70101151105A1F08091E80085FD0AC06E
:104860008091E8008E778093E8000E94252F8823AE
:1048700081F307C089918093F10001501109E9CFBC
:1048800080E0DF91CF911F910F91FF90EF900895FD
:104890001F93CF93DF93CDB7DEB7AA970FB6F894E7
:1048A000DEBF0FBECDBFE3ECF2E08091F10081935B
:1048B00022E0EB3CF207C9F78091C402833009F48F
:1048C00060C030F4813071F0823009F49AC0B1C018
:1048D0008A3009F486C08B3009F46BC0893009F046
:1048E000A8C020C08091C302813A09F0A2C0809183
:1048F000E800877F8093E8008091C7029091C8020A
:10490000892B21F468E087EB92E003C060E080E04F
:1049100090E070E00E94AC2F8091E8008B7780934C
:10492000E80087C08091C302813209F082C0809183
:10493000C7029091C802029708F07BC08091E800FE
:10494000877F8093E8008091E80082FD05C0809118
:10495000C1028111F8CF6DC02091F3008091F20067
:1049600090E0922B029729F48091F1008B7F8130A7
:1049700021F48091F1008093B6028091E8008B775A
:1049800054C08091C302813A09F053C08091C7029C
:104990009091C802892B09F04CC08091E800877F74
:1049A0008093E8008091E80080FFFCCF80911A019D
:1049B00037C08091C3028132E1F58091C7029091A6
:1049C000C802892BB1F58091E800877F8093E800C9
:1049D0000E94582F8091C50280931A010E943023B3
:1049E00028C08091C302813221F58091E800877F41
:1049F0008093E8000E94582F8091C6028093B502F0
:104A000018C08091C302813AA1F48091E800877FA9
:104A10008093E8008091E80080FFFCCF8091B50290
:104A20008093F1008091E8008E778093E8000E94E7
:104A3000582F8091E80083FFCCC18091C3029091F0
:104A4000C402492F50E04A30510508F0C2C1FA01B2
:104A5000EF57FF4F0C943332803821F0823809F041
:104A6000B8C108C08091BF029091C002992389F01B
:104A700082600FC08091C7028F70873008F0A9C193
:104A80008093E9008091EB0085FB882780F91092E4
:104A9000E9009091E800977F9093E8008093F100FF
:104AA0001092F10065C1282F2D7F09F092C1882353
:104AB00019F0823061F08DC18091C502813009F01A
:104AC00088C1933009F080E08093C0022EC08091AD
:104AD000C50281112AC08091C7028F702FEF280F65
:104AE000263008F076C18093E9002091EB0020FF8A
:104AF0001CC0933021F48091EB00806214C090912F
:104B0000EB0090619093EB0021E030E0A90102C03E
:104B1000440F551F8A95E2F74093EA001092EA008D
:104B20008091EB0088608093EB001092E900809107
:104B3000E800877F20C181114CC11091C5021F7709
:104B40008091E3008078812B8093E3008091E800DE
:104B5000877F8093E8000E94582F8091E80080FFB3
:104B6000FCCF8091E30080688093E300111102C0C4
:104B700082E001C083E08093C1022BC18058823063
:104B800008F027C18091C5029091C6028C3D53E088
:104B9000950779F583E08A838AE289834FB7F89491
:104BA000DE01139620E03EE051E2E32FF0E0509367
:104BB0005700E49120FF03C0E295EF703F5FEF7074
:104BC0008E2F90E0EA3010F0C79601C0C0968D930A
:104BD0009D932F5F243149F74FBF8091E800877F75
:104BE0008093E8006AE270E0CE0101960E94AC2F4B
:104BF000AEC04091C7025091C802292F33272330FD
:104C00003105A9F068F42130310509F4F1C02230F2
:104C1000310509F0DEC08BE390E0EEE5F7E044C03B
:104C20002132310521F12232310571F1D2C09927AB
:104C300081309105A1F058F0029709F0CAC0EBEA63
:104C4000F7E0E4918E2F90E0EBEAF7E02AC0E3ED85
:104C5000F7E0E4918E2F90E0E3EDF7E022C0E1EC85
:104C6000F7E0E4918E2F90E0E1ECF7E01AC04115F7
:104C7000510509F4C2C04130510509F0AAC089E0CC
:104C800090E0E9E8F7E010C04115510509F4BAC019
:104C90004130510509F09DC08BE790E0E3EAF6E072
:104CA00003C0009709F495C02091E800277F209366
:104CB000E8002091C9023091CA028217930708F4D4
:104CC0009C0140E02115310589F18091C1028823C2
:104CD00009F43DC08530D9F18091E80083FD37C0EB
:104CE0008091E80082FD2FC08091E80080FFEACF2C
:104CF0004091F3008091F20090E0942B2115310552
:104D000059F08830910540F444914093F100319678
:104D1000215031090196F2CF41E0089709F040E0B7
:104D20008091E8008E778093E800CCCF4111CDCF01
:104D30000AC08091C102882351F0853041F08091F2
:104D4000E80083FD04C08091E80082FFF2CF8091EB
:104D5000E8008B778093E8003CC08038D1F58091E3
:104D6000E800877F8093E8008091C2028093F10081
:104D70008091E8008E778093E8000E94582F29C028
:104D8000811127C08091C5029091C6029927029790
:104D900004F58091E800877F8093E8001091C502B8
:104DA0001093C2020E94582F111106C08091E30097
:104DB00087FD02C081E001C084E08093C10242E02F
:104DC00061EC81E00E94772F42E261EC82E00E9478
:104DD000772F8091E80083FF1AC08091E800877FD9
:104DE0008093E8008091EB0080628093EB000FC01D
:104DF00082E190E0E9E9F7E057CF89E090E0E0E771
:104E0000F7E052CF80E490E0EEE1F7E04DCFAA96D4
:104E10000FB6F894DEBF0FBECDBFDF91CF911F91CB
:104E200008951F920F920FB60F9211242F933F9364
:104E30004F935F936F937F938F939F93AF93BF93A2
:104E4000CF93DF93EF93FF93C091E900CF708091F0
:104E5000EC00D82FD17080FDD0E81092E90080914D
:104E6000F000877F8093F00078940E94482410928D
:104E7000E9008091F00088608093F000CD2BCF7026
:104E8000C093E900FF91EF91DF91CF91BF91AF9176
:104E90009F918F917F916F915F914F913F912F9152
:104EA0000F900FBE0F901F901895E8EDF0E08081F5
:104EB0008E7F80831092E2001092DA001092E1005F
:104EC000A0EEB0E08C9181608C9380818F7780839D
:104ED00019BCA7EDB0E08C918E7F8C9380818F7E82
:104EE00080831092B4020895CF92DF92EF92FF92E6
:104EF0000F931F93CF93DF93C8EDD0E088818F7E0F
:104F00008883E7EDF0E080818160808384E082BF68
:104F100081E08093B40288818E7F888302EE10E066
:104F2000F80110821092DA0081EEC82ED12CF60121
:104F3000108288818F7788838881806888838881C0
:104F40008F7D888319BC1092C1021092C202109208
:104F5000C0021092BF0290EEE92EF12CF701808181
:104F60008B7F808388818160888342E060E080E07D
:104F70000E94772FF60180818E7F8083F8018081E7
:104F800081608083808188608083F70180818E7F4B
:104F90008083888180618883DF91CF911F910F91F9
:104FA000FF90EF90DF90CF9008951F920F920FB671
:104FB0000F9211242F933F934F935F936F937F939F
:104FC0008F939F93AF93BF93EF93FF938091E100F3
:104FD00082FF09C08091E20082FF05C08091E1005C
:104FE0008B7F8093E1008091DA0080FF2AC080915E
:104FF000D80080FF26C08091DA008E7F8093DA008F
:105000008091D90080FF18C080E189BD82E189BD0F
:1050100009B400FEFDCF81E08093C1028091B4020B
:1050200081110FC00E9455270E9474278091E200D1
:1050300084608093E20005C019BC1092C1021092F6
:10504000B4028091E10080FF17C08091E20080FFF0
:1050500013C08091E2008E7F8093E2008091E20095
:1050600080618093E2008091D80080628093D800B4
:1050700019BC85E08093C1028091E10084FF2EC0BD
:105080008091E20084FF2AC080E189BD82E189BD70
:1050900009B400FEFDCF8091D8008F7D8093D800A9
:1050A0008091E1008F7E8093E1008091E2008F7E0D
:1050B0008093E2008091E20081608093E200809121
:1050C000C202882311F084E007C08091E30087FDCD
:1050D00002C081E001C083E08093C1028091E100C1
:1050E00083FF27C08091E20083FF23C08091E1000D
:1050F000877F8093E10082E08093C1021092C20218
:105100008091E1008E7F8093E1008091E2008E7FAC
:105110008093E2008091E20080618093E20042E0AF
:1051200060E080E00E94772F8091F000886080939B
:10513000F000FF91EF91BF91AF919F918F917F917F
:105140006F915F914F913F912F910F900FBE0F90F4
:105150001F9018950895CF93DF93EC01E8EDF1E0EF
:10516000438162818C810E944A188C818F5F8C837D
:10517000DF91CF910895CF93DF93EC01EC81F0E0C4
:10518000E45EF24F4491E8EDF1E0628181810E949A
:105190004A188C818F5F8C83DF91CF9108951F9384
:1051A000CF93DF93CDB7DEB767970FB6F894DEBF26
:1051B0000FBECDBF342F4B8B252F5C8B6D8B7E8B21
:1051C0008F8B4E895F8961111092AD0286E0FE01DE
:1051D0003D96DF01982F1D929A95E9F73D872E871E
:1051E0006F87598B488BDE01179601900D928A9537
:1051F000E1F7CE0107960E946D2181113EC086E045
:10520000FE013796DE01119601900D928A95E1F725
:10521000FF81E8856A857B856115710531F0EF3F77
:1052200031F481E0FF3F19F403C081E001C080E068
:1052300080FD23C02091470230E0C90101968770AC
:1052400099274091780250E08417950779F1F98306
:10525000EA837D836C8396E0929FD001939FB00D8B
:105260001124A85BBD4FFE01319601900D929A95D5
:10527000E1F7809347020E94F72016E080917802C0
:10528000909147028917F9F0189FC0011124885B9B
:105290009D4F0E946D218823B1F08091780290E0AB
:1052A00001968770992780937802E8CF0E94302377
:1052B0001092470210927802E1E4F2E086E0DF010A
:1052C0001D928A95E9F767960FB6F894DEBF0FBE78
:1052D000CDBFDF91CF911F91089520919A07309112
:1052E0009B072817390771F090939B0780939A07C3
:1052F000E091BD01F091BE01309721F00084F1856D
:10530000E02D099408952091980730919907281766
:10531000390771F09093990780939807E091BD0148
:10532000F091BE01309721F00680F781E02D0994BD
:105330000895E091BD01F091BE01309721F00190F8
:10534000F081E02D099480E00895809112029091FF
:105350001102882389F0992369F062E070E08EE100
:105360009EE00E94F323892B19F080911102089589
:10537000109211029091110281E089270895809185
:1053800012028823F9F00E94611EDC01CB01805AD1
:105390009541AF4FBF4F80930D0290930E02A093A3
:1053A0000F02B09310028091110281110BC062E0D4
:1053B00070E08CE19EE00E94F323892B19F481E0D8
:1053C00080931102809111020895CF93E82F2091CC
:1053D000D4043091D5042E5C32404091CB02642F2E
:1053E00070E0C9010E940B32481B842FEE2351F05C
:1053F00066E00E94FF31C82FC150A8F080E20E94F1
:105400006523FACFA901480F511D4115524018F0EC
:1054100080E020E030E0280F311D22533D4F3093D3
:10542000D5042093D404CF9108959091D80190FF92
:1054300004C09695981740F003C0811105C090E014
:10544000961710F40C94981761E00C945417882365
:1054500011F0FA0101C0FB0109945F926F927F92F3
:105460008F929F92AF92BF92CF92DF92EF92FF9274
:105470000F931F93CF93DF9300D000D01F92CDB72F
:10548000DEB7509005018091D80180FF08C0809060
:10549000BB019090BC0181149104A9F42EC08091AD
:1054A000060190910701891790F7E82FF0E09F011E
:1054B000220F331FE20FF31FEA52FB4F11821082BB
:1054C00012828F5FF0CF8091C101811116C0A12C93
:1054D000B12C66246394712C2091DF01C3010A2C46
:1054E00001C0880F0A94EAF7822309F450C0F4013E
:1054F000C590D490C114D104C9F4E091040123E013
:10550000E29FF0011124EA52FB4F539A8BB1877F3F
:105510009BB198602FB7F894AF0133E0539E400DD4
:10552000511D112440C035E0C30ED11C45E050E0B0
:10553000B601CE0101960E944B3109810F3F39F12E
:1055400010E08A819801280F311DC90129353105E4
:1055500014F088E590E07C01EE0CFF1C8E0D9F1D81
:105560009C012A523B4F7901C801880F991F080FEF
:10557000191F0A521B4F0E151F05A8F698014D81E1
:105580006C818B810E94B2170D5F1F4FF4CF82E0B8
:10559000880E911C9FEFA91AB90A28E0A216B1043F
:1055A00009F09ACFAACF4E175F0789F0319168E0D2
:1055B0009BB9000000C037FF8BB9330F000000C05B
:1055C00000C000C08BB900C06A9591F7ECCF2FBF27
:1055D0008FE594E00197F1F700C000000F900F9065
:1055E0000F900F900F90DF91CF911F910F91FF902F
:1055F000EF90DF90CF90BF90AF909F908F907F9073
:105600006F905F9008957F928F929F92AF92BF921A
:10561000CF92DF92EF92FF920F931F93CF93DF937E
:10562000FC018280748081E08483ECE1FDE0949051
:10563000EBE9FDE0E491A12CF5E0BF2ECC24CA9467
:10564000D12CE9190E2F10E080910801A81608F05E
:105650009EC0EA2CF12C22E0281568F0BE9CF001D7
:10566000BF9CF00D1124E252FA4F8091D901808342
:105670008091DA01818371100AC0BE9CF001BF9C49
:10568000F00D1124E252FA4F1382128266C0BE9CC2
:10569000E001BF9CD00D1124C252DA4F8B818823C8
:1056A000F9F081508B832FEF829FC00111246C8110
:1056B00070E00E940B32FB01FF27E45EF24F849101
:1056C000E82FE9192FEFE29FC0011124B8010E94D1
:1056D0000B328091DB01689FB00111247A833DC0B9
:1056E0000E943B312091DB012695215830E0A90131
:1056F000440F551F322F2227240F351F232F332706
:105700008217930754F582E0881588F40E943B3194
:10571000B6010E941F3288830E943B312091DA013A
:105720002695622F70E00E941F32280F2983BE9CAD
:10573000F001BF9CF00D1124E252FA4F12828091C9
:10574000DB01843108F484E1BE9CF001BF9CF00DC4
:105750001124E252FA4F84838383809106019701DA
:10576000280F311DC901880F991F280F391F2A5290
:105770003B4FBE9CF001BF9CF00D1124E252FA4F4A
:105780004281618180810E94B217A3945DCFDF9135
:10579000CF911F910F91FF90EF90DF90CF90BF902E
:1057A000AF909F908F907F900C942D2A8F929F9214
:1057B000AF92BF92CF92DF92EF92FF920F931F931F
:1057C000CF93DF938C01FC014481C42FD0E09E0174
:1057D000DE010E94F0319B01AC010E94BB316B01E4
:1057E0007C01E0E2F0E0EC1BFD0BA5E5B0E09B01E5
:1057F000AC010E94BB314B015C019F01DF010E94A3
:1058000039329B01AC010E94C6319B01AC012C0DC9
:105810003D1D4E1D5F1DC501B4010E94CE31C22F3A
:10582000D22F2A3228F4F3E02F9F900111240DC0CB
:1058300025E530E02C1B3109C901880F991F280F7D
:10584000391F37FF02C02F5F3F4F35952795C22F75
:10585000C095F12C85E5E82EED1A80910801F81627
:10586000C8F4F0FC02C08E2D01C08D2F909106016E
:105870002F2D30E0290F311DA901440F551F240F92
:10588000351F2A523B4F4C2F6091DA010E94B2170C
:10589000F394E3CF0E942D2AF8018481811102C084
:1058A00091E003C0803219F49FEF9093260190910C
:1058B0002601890FF8018483DF91CF911F910F9109
:1058C000FF90EF90DF90CF90BF90AF909F908F9020
:1058D0000895FF920F931F93CF93DF93EC01F12C68
:1058E0000FE710E060910801F616F0F480910601D0
:1058F0002F2D30E0280F311DC901880F991F280F67
:10590000391F2A523B4F70E0C8010E941F32962F68
:105910008C814091DB016091DA01F99E800D1124A8
:105920000E94B217F394DECF0E942D2A9A818C81B7
:1059300090FF02C08F5F01C081508C83DF91CF91B7
:105940001F910F91FF90089521E030E0A90102C05E
:10595000440F551F8A95E2F7CA012091DF016623A3
:1059600011F0822B02C0809582238093DF01809109
:10597000DE01811106C08091D80160E086950E9409
:1059800054178091D80180FF0C942D2A089590918E
:10599000D80190FF16C0909106012091070192173F
:1059A00070F4E92FF0E0DF01AA0FBB1FEA0FFB1F25
:1059B000EA52FB4F8183608342839F5FF0CF0C9458
:1059C0002D2A0895AF92BF92CF92DF92EF92FF926D
:1059D0000F931F93CF93DF9300D01F92CDB7DEB705
:1059E000182FF62E042FE22E9091D80190FF6DC053
:1059F000E92FE695AE2FB0E0AC5ABE4F8C91809364
:105A0000DD019E7F923061F49E012F5F3F4F812F19
:105A10000E94B2174B8169818A810E94C72C43C0C2
:105A2000823019F40091DB013EC0863019F41091E8
:105A3000D90139C08930D9F38031A9F5E0518E2FD1
:105A40008170D82EE695F0E0E95EF24FA590B49013
:105A5000C12CBB2460910801C61618F52C2D30E02E
:105A6000A29EC001A39E900DB29E900D112470E0E5
:105A70000E940B32812FD11002C0860F01C0861BFD
:105A800090910601290F311DA901440F551F240FC4
:105A9000351F2A523B4F402F6F2D0E94B217C394DF
:105AA000D9CF0E942D2A1093D901F092DA010093E8
:105AB000DB01EE2051F06091D8017091D901809105
:105AC000DA019091DB010E9420170F900F900F9048
:105AD000DF91CF911F910F91FF90EF90DF90CF90CA
