:100000000C943B020C9482020C9482020C948202A7
:100010000C9482020C9482020C9482020C94820250
:100020000C9482020C9482020C9429240C94652373
:100030000C94C6250C9482020C9482020C948202C9
:100040000C9482020C9482020C9482020C94820220
:100050000C9482020C9485250C9482020C948202EA
:100060000C9482020C9482020C9482020C94820200
:100070000C9482020C9482020C9482020C948202F0
:100080000C9482020C9482020C9482020C948202E0
:100090000C9482020C9482020C9482020C948202D0
:1000A0000C9482020C9482020C948202870F870FB8
:1000B000BF0FBF0F19103510CB11CB1140101E11FF
:1000C0002F112F11E117E117F417F417EA17F4179E
:1000D000F417F417E117E117EF17F417F417EF17F8
:1000E0008021A7213D23A7213D23EF2112223D237B
:1000F0000123142307634236B79BD8A71A396856E1
:1001000018AEBAAB558C1D3CB7CC5763BD6DEDFD39
:10011000753EF6177231BF000000803F05A84CCD38
:10012000B2D44EB93836A9020C50B9918688083C31
:10013000A6AAAA2ABE000000803F00010101010119
:100140000101010102020202020202020203030390
:100150000303030303040404040404040505050560
:100160000506060606060707070707080808080920
:100170000909090A0A0A0B0B0B0C0C0C0D0D0D0ECC
:100180000E0E0F0F0F101011111112121313141461
:10019000151516161717181819191A1A1B1B1C1DD6
:1001A0001D1E1E1F2020212222232424252626272F
:1001B0002829292A2B2C2D2D2E2F30313232333461
:1001C00035363738393A3B3C3D3E3F404142434467
:1001D00045464748494A4C4D4E4F50515354555649
:1001E00058595A5B5D5E5F616264656668696B6CF5
:1001F0006D6F7072737577787A7B7D7E8082838570
:1002000087888A8C8E8F91939596989A9C9EA0A2AF
:10021000A3A5A7A9ABADAFB1B3B5B7BABCBEC0C2B9
:10022000C4C6C9CBCDCFD1D4D6D8DBDDDFE2E4E77D
:10023000E9EBEEF0F3F5F8FAFDFFFFAA7F55402B4E
:10024000431A010151000060005D005A0000005691
:10025000005700584200005F005C005900620061D6
:10026000005E005B00630000000000000000002949
:10027000003D040100000052005100000000005445
:100280000055002E0000004A0050004B004E004D6B
:10029000004F002A004C0000000000000000000198
:1002A00000A8000100000041003E003B00000044A7
:1002B0000045000100000040003D003A00430042BC
:1002C000003F003C000000000000000000000001B2
:1002D000005F5D01000000C85CC95C00000000C454
:1002E0005CC55C00000000C65CC75C0000C35CCA63
:1002F0005CCB5C0000005C0000000000000000031C
:1003000000948060FF00000000030555FFFFFF0020
:1003100000000003051CFFFFFF00000000030200B7
:10032000FFFFFF000000001D0313030903FF02008D
:10033000001E0F057F3F1F643214783C1E1E140AF6
:100340000505010902A10185020901A1000509199C
:10035000012908150025019508750181020501098B
:100360003009311581257F950275088106093815F8
:1003700081257F950175088106050C0A38021581D3
:10038000257F950175088106C0C005010980A1017E
:10039000850319012AB700150126B70095017510CC
:1003A0008100C0050C0901A101850419012AA002E0
:1003B000150126A002950175108100C005010906EE
:1003C000A101050719E029E7150025019508750128
:1003D00081029501750881010507190029FF1500A3
:1003E00026FF009506750881000508190129059565
:1003F0000575019102950175039101C009023B0049
:10040000020100A0FA090400000103010100092112
:10041000110100012240000705810308000A0904B8
:1004200001000103000000092111010001227B00ED
:100430000705820320000A1201100100000008EDE8
:10044000FE05A40100010200011403410053005401
:100450000052004100200034003000350000001040
:10046000034C0065006B00690070006F006E0000B7
:1004700000040309040011241FBECFEFDAE0DEBF41
:10048000CDBF04B603FE27C08091D0029091D10267
:10049000A091D202B091D3028730904BA740B04BCD
:1004A000D1F41092D0021092D1021092D202109286
:1004B000D30214BE84B7877F84BF0FB6F894A89583
:1004C00080916000886180936000109260000FBE90
:1004D000E0E0F8E3099511E0A0E0B1E0E0E9FAE539
:1004E00002C005900D92AA3CB107D9F722E0AAEC10
:1004F000B1E001C01D92A03DB207E1F70E940913CF
:100500000C94462D0C9400009091D70192FF0DC0E1
:10051000282F2871283019F4877F846006C0282F7F
:100520002471243011F48B7F886093FF0DC0282F35
:100530002871283119F4877E846106C0282F247120
:10054000243111F48B7E88612091D80120FF0DC0E9
:10055000382F3871383019F4877F816006C0382F02
:100560003171313011F48E7F886021FF0DC0282F4A
:100570002871283119F4877E816106C0282F2171E6
:10058000213111F48E7E886194FD877E0895CF928B
:10059000DF92EF92FF926C01EE24FF24C114D1048C
:1005A000E104F10421F0C701B60120E101C020E01F
:1005B000C72ED82EE92EFF24C114D104E104F10482
:1005C00019F0285FC701B6016B017C0154E0F69475
:1005D000E794D794C7945A95D1F7C114D104E10494
:1005E000F10419F02C5FC701B6016B017C0142E0F8
:1005F000F694E794D794C7944A95D1F7C114D104DF
:10060000E104F10419F02E5FC701B601DC01CB0152
:10061000B695A79597958795892B8A2B8B2B09F0F3
:100620002F5F822FFF90EF90DF90CF9008959C0175
:100630003A9521153F4138F5DC01AA27B270AC018B
:10064000442754709C012227387094FF0FC090FFFC
:1006500002C080E101C080E0AB2B09F08062452B35
:1006600009F08064232B69F080680BC0892F8170AA
:10067000AB2B09F08260452B09F08460232B09F035
:100680008860FB01099408959091F30190FF16C0D2
:1006900090913B0120913C01921770F4E92FF0E01A
:1006A000DF01AA0FBB1FEA0FFB1FE55EFD4F818331
:1006B000608342839F5FF0CF0C94891D08958091E1
:1006C000F301282F269530E02115310519F48170AA
:1006D000826005C02332310524F0817084648093E8
:1006E000F3010895CF92DF92EF92FF926B017C01AC
:1006F0000E945F03B701A60188E090E0FF90EF90B1
:10070000DF90CF900C9422298091F701882319F073
:1007100081508093F7016091F3017091F401809111
:10072000F5019091F6010C9472038091F7018330EA
:1007300018F48F5F8093F7016091F3017091F401D9
:100740008091F5019091F6010C947203E3EFF1E0D2
:1007500083E0808311828FEF8283838314826081A0
:100760007181828193810C947203AF92BF92CF9278
:10077000DF92EF92FF920F931F93CF93DF93E82EB8
:10078000F62EE901E42FF0E0611106C0E65CFE4FB1
:10079000E4914E2F2E2F71C0062F10E0E65CFE4F25
:1007A0004491F42FC42ED12C26E0829FC001112445
:1007B0002FEF30E0B9010E94FC2C5BEA5603C00128
:1007C000579F900D11248E0D911D8E0D911D582F48
:1007D000550F580FD901A01BB10BAC9DC001AD9DA9
:1007E000900DBC9D900D1124E92FF59ED001112490
:1007F000AB2FBB277901EA1AFB0AEC9CD001ED9CD8
:10080000B00DFC9CB00D11245901A51AB108A09E91
:100810007001A19EF00CB09EF00C1124EF2CFF246F
:100820002E193F092C9D80012D9D100D3C9D100D12
:100830001124212F6230710591F048F46115710582
:10084000E1F061307105B9F4242F4B2F16C06430EC
:10085000710569F040F06630710579F00CC0242F05
:10086000492FE12F0AC0492FEF2F2B2F06C0292F28
:10087000E42F412F02C0292FEB2F49832883EA83DD
:10088000DF91CF911F910F91FF90EF90DF90CF906C
:10089000BF90AF900895AF92BF92CF92DF92EF9248
:1008A000FF920F931F93CF93DF9300D01F92CDB78A
:1008B000DEB7182FF62E042FE22E9091F30190FF51
:1008C0006DC0E92FE695AE2FB0E0A95ABE4F8C91CE
:1008D0008093F8019E7F923061F49E012F5F3F4F1D
:1008E000812F0E94B5034B8169818A810E94440354
:1008F00043C0823019F40091F6013EC0863019F4ED
:100900001091F40139C08930D9F38331A9F5E3514D
:100910008E2F8170D82EE695F0E0E65CFD4FA59015
:10092000B490C12CBB2460913D01C61618F52C2D46
:1009300030E0A29EC001A39E900DB29E900D1124A6
:1009400070E00E94FC2C812FD11002C0860F01C0E4
:10095000861B90913B01290F311DA901440F551FA2
:10096000240F351F255E3D4F402F6F2D0E94B5038C
:10097000C394D9CF0E94891D1093F401F092F50120
:100980000093F601EE2051F06091F3017091F401B3
:100990008091F5019091F6010E9472030F900F90E3
:1009A0000F90DF91CF911F910F91FF90EF90DF900B
:1009B000CF90BF90AF900895E3EFF1E0438120E244
:1009C000421B08F440E021E0628181810C944B04D9
:1009D000E3EFF1E0438120E2420F08F44FEF21E022
:1009E000628181810C944B04E3EFF1E0628120E2AB
:1009F000621B08F460E021E0438181810C944B0488
:100A0000E3EFF1E0628120E2620F08F46FEF21E092
:100A1000438181810C944B04E3EFF1E09181282F15
:100A2000438162818CEF890F0C944B0481E00C941C
:100A30000C05E3EFF1E09181282F4381628184E08E
:100A4000890F0C944B0481E00C9419059091F301EB
:100A500090FF36C09170811102C0926006C083324F
:100A600010F0946402C0880F982B9093F3016623D2
:100A700051F06091F3017091F4018091F501909132
:100A8000F6010E9472036091F301669570E04BE0FD
:100A900050E088E491E00E94392D892B19F01092E2
:100AA000F90102C00E94731D81E08093F00120E0F3
:100AB0004091F6016091F5018091F4010C944B0492
:100AC000089521E030E0A90102C0440F551F8A9526
:100AD000E2F7CA012091FA01662311F0822B02C0CD
:100AE000809582238093FA018091F901811106C0DB
:100AF0008091F30160E086950E9426058091F301C4
:100B000080FF0C94891D08958091F3018695815092
:100B100009F482E261E00C9426058091F301869548
:100B20008F5F833208F081E061E00C942605CF935B
:100B3000DF9300D01F92CDB7DEB79091F30190FF05
:100B40000AC09E012F5F3F4F0E94B5034B81698110
:100B50008A810E9444030F900F900F90DF91CF91F4
:100B600008950E94BA2520910D02211104C0209100
:100B70000E02222321F090930A0280930902209111
:100B80000F02211104C020911002222321F0909322
:100B9000070280930602E091E201F091E3013097B1
:100BA00049F082E080930B020480F581E02D8BE018
:100BB00092E0099408958D3E39F490910E0297FFCA
:100BC00035C010920E0259C08E3E29F490910E024B
:100BD0001916BCF32BC090910D028F3E29F497FF9C
:100BE00025C010920D0249C0803F19F41916CCF3AC
:100BF0001DC090910F02893F29F41916BCF4109280
:100C00000F023BC08A3F19F497FF10C0F8CF8B3F0B
:100C100039F49091100297FF09C0109210022DC074
:100C20008C3F21F4909110021916BCF39FE0980FAD
:100C3000983080F421E030E0A90102C0440F551F34
:100C40009A95E2F7CA01809590910C0289238093CE
:100C50000C0213C08D3F21F4809119028E7F0BC0CE
:100C60008E3F21F4809119028D7F05C08F3F29F4BA
:100C7000809119028B7F8093190280910D0281115E
:100C800006C080910E02811102C01092080280916C
:100C90000F02811106C080911002811102C01092D2
:100CA000050208958091190280FD16C081FD16C0CD
:100CB00082FD18C080910502882391F0883290F45B
:100CC00028E0829FC001112468E270E00E94102D8C
:100CD000862F672B29F007C082E0089584E00895ED
:100CE00081E0089588E008958091190280FD14C084
:100CF00081FD14C082FD16C080910802882381F016
:100D0000843180F422E3829FC001112464E170E009
:100D10000E94102D862F08958CE0089589E1089592
:100D200085E0089582E308958D3E21F40E947406C3
:100D3000819504C08E3E29F40E94740680930E02B1
:100D400008958F3E21F40E947406819504C0803F6F
:100D500029F40E94740680930D020895893F19F4C6
:100D60000E94520605C08A3F31F40E9452068195C6
:100D700080930F0208958B3F21F40E9452068195C3
:100D800004C08C3F29F40E945206809310020895FB
:100D90009FE0980F983078F421E030E0A90102C07C
:100DA000440F551F9A95E2F7CA0190910C02892BC6
:100DB00080930C0208958D3F21F480911902816087
:100DC0000BC08E3F21F480911902826005C08F3FD5
:100DD00029F4809119028460809319020895CF93B9
:100DE000DF93E72FF0E026E0829FE00DF11D112454
:100DF000EE0FFF1FEE0FFF1FE60FF11DEE0FFF1F9F
:100E0000E15CFD4FC591D491CE01C238D10569F1A5
:100E1000B0F4C133D10509F475C048F4C932D10525
:100E200009F469C0CA32D10509F473C085C0C5335D
:100E3000D10509F459C0C933D105B9F07DC0C33E0D
:100E4000D10571F138F4C03ED105B1F0C23ED105F3
:100E500011F172C0C63ED105B9F1C73ED105C9F145
:100E6000C43ED10509F068C024C02091D70120FDFF
:100E70005DC021FD5BC060C02091D70120FD50C046
:100E80002091D80120FF51C18091D70184FD4BC131
:100E900083EE90E04AC12091D70122FF46C1F4CFF2
:100EA0008091D70182FD3FC08091D80180FD3EC076
:100EB000EBCF2091D80121FF38C18091D70184FD6B
:100EC00032C187EE90E031C12091D70123FF2DC1BF
:100ED000F4CF8091D70183FD2CC08091D80181FF90
:100EE000ECCF84EE90E021C12091D70125FF1DC1F8
:100EF00089E290E01AC12091D70125FF16C185E350
:100F000090E013C12091D70126FF0FC18AE290E043
:100F10000CC12091D70126FF08C181E390E005C1F3
:100F200089E390E002C182EE90E0FFC080EE90E0A5
:100F3000FCC086EE90E0F9C0C11551E5D50708F078
:100F40006CC0C11520E5D207F0F0CE01F4E0969513
:100F50008795FA95E1F7282F23703C2F337081E0B5
:100F600090E002C0880F991F3A95E2F79C68922B97
:100F70002C2F2F702695269540E2249F9001112456
:100F8000822B932BD2C0C83ED10570F5C03ED1054F
:100F900008F0CBC0C83AD105B8F4C53AD10550F035
:100FA0002C2F255AC22FD0E0C856DE4F888190E002
:100FB0009064BBC0C130D10509F4B7C008F4B3C018
:100FC000249708F4B0C0B1C0CF3BD10508F0ABC046
:100FD0002C2F285AC22FD0E0CC0FDD1FC556DE4F74
:100FE000888199819464A1C0C11540E2D40760F45E
:100FF000C11551E0D50708F098C0CD3ED10508F4E1
:1010000092C0CE01906591C0C11580E4D80708F464
:101010008AC0CE019F70906A88C0C11595E5D90736
:1010200008F040C0C11524E5D20728F09C2F88277E
:10103000846F906A7AC0C11543E5D407A8F09E0179
:101040002370332781E090E002C0880F991F2A9512
:10105000E2F72C2F2695269540E2249F900111243B
:10106000822B932B9A6861C0C11552E5D50728F4ED
:101070009C2F8827816F906A58C09E012370332768
:1010800081E090E002C0880F991F2A95E2F72C2F8B
:101090002695269550E2259F90011124822B932BB3
:1010A0009C6843C0C11589E5D807B0F4C11598E51F
:1010B000D90728F09C2F8827806F906A36C0C11509
:1010C00026E5D20780F58C2F0E9484028F7190E074
:1010D000982F8827906229C0C1154AE5D40790F45B
:1010E0008C2F8F700E9484029E0194E03695279584
:1010F0009A95E1F72F7030E0322F22273069A9014D
:10110000482B0FC0CE0190568115904260F48D2F70
:101110008F710E9484029E01332730628F71A90172
:10112000582BCA0102C080E090E0DF91CF91089572
:10113000CF93DF93EC010E94091ACE01805E9109E2
:10114000089710F0209719F467E178E102C068EF82
:1011500077E1CE01DF91CF910C941703CF93DF930A
:10116000EC01805E9109089710F0209719F46DE06A
:1011700078E102C063E078E1CE010E9417038C2F72
:10118000DF91CF910C94691ACF92DF92EF92FF9288
:101190006B017C01611571058105910549F0DC0148
:1011A000CB01B695A79597958795682F617001C07B
:1011B00060E081E00E946105C114D104E104F10402
:1011C00061F0D701C60132E0B695A795979587954E
:1011D0003A95D1F7682F617001C060E082E00E940B
:1011E0006105C114D104E104F10461F0D701C60125
:1011F00023E0B695A795979587952A95D1F7682FFF
:10120000617001C060E083E00E9461052BE132E083
:1012100040E16FEF85E50E94B503C701B6010E946A
:10122000C702823051F0833071F0813099F42BE1A4
:1012300032E040E66FEF80E10BC02BE132E040E6A8
:101240006FEF85E505C02BE132E040E660E884E918
:101250000E94B503C701B601FF90EF90DF90CF90D9
:101260000895CF93C82F21E232E081FF02C040E809
:1012700001C040E16FEF80E00E94B5032EE132E053
:10128000C0FF02C040E601C040E16FEF80E20E9473
:10129000B503CF910C94891DCF93C82F0E943109BB
:1012A000C1FB662760F980E0CF910C946105CF9374
:1012B000C62F811122C06091D3017091D401809119
:1012C000D5019091D6010E94C702823041F183304E
:1012D00061F1813021F5CC2339F08EE494E00E9455
:1012E000AE088EE494E006C08BE494E00E94AE0861
:1012F0008BE494E00E9498082EC0813061F56091E3
:10130000D3017091D4018091D5019091D6010E94B2
:10131000C702823099F0833041F08130A9F4CC23A8
:1013200011F08CEF16C08BEF14C080E0CC2319F0C5
:101330000E94190510C00E940C050DC0CC2311F0AD
:1013400089EA07C08AEA05C0CC2311F089EF01C001
:101350008AEF0E940D1B81E0CF9108952F923F925A
:101360004F925F926F927F928F929F92AF92BF92B5
:10137000CF92DF92EF92FF920F931F93CF93DF9361
:1013800000D000D000D0CDB7DEB749ED842E41E0CB
:10139000942E5CEDE52E51E0F52ED4012AE731E0E4
:1013A0003A832983B12C61E070E06D016C901C924E
:1013B000E981FA818191FA83E983E82FE295EF7060
:1013C0002E2F30E03C832B83F90121A18F70AB01DC
:1013D00002C0440F551F8A95E2F7CA01242B21A3AE
:1013E00022A1A42EA0942A2122A350EA5A95F1F713
:1013F00030E8232E31E0332E810140E050E0F80147
:1014000071908F01272D22952F7030E0F90120A1D6
:101410005C9030E0F72DFF7002C035952795FA9566
:10142000E2F720FD07C0262F042E01C0220F0A94E8
:10143000EAF701C020E0522A5C924F5F5F4F4430D0
:101440005105E9F6EB81FC8191A1A922A1A292A10B
:10145000892B82A3119681E0F6019081961101C03B
:1014600080E0B82AEA16FB0609F09FCF40E050E082
:1014700061E070E02FED422E21E0522ED1018D91DE
:101480001D01E82FE295EF70F0E021A18F70DB01E4
:1014900002C0AA0FBB1F8A95E2F7CD012A2B21A318
:1014A00022A1FA2EF0942F2122A3B0EABA95F1F7E7
:1014B0009B01042E01C0220F0A94EAF7A22EE22E0D
:1014C000E0940FED11E02CED31E03E832D83AAE78F
:1014D000B1E0BC83AB83C12C2D813E813A8329834B
:1014E000D901DC90AB81BC817D90BC83AB83272D7F
:1014F00022952F7030E0D90190962C9130E0B72DD5
:10150000BF7002C035952795BA95E2F720FD03C05C
:101510002D2D2A2902C02D2D2E21AD81BE812C9387
:101520002D813E812F5F3F4F3E832D83A981BA815C
:101530002C91D21611F0CC24C3942D813E814216F9
:10154000530651F691A1F922F1A292A1892B82A30F
:10155000BC284F5F5F4F4430510509F08FCFBB204F
:1015600049F081E08093CE010E94BA259093CD018D
:101570008093CC018091CE01882399F08091CC0199
:101580009091CD010E94AB25069758F0E7EEF1E06F
:10159000D4018D914D0181930A171B07C9F7109251
:1015A000CE01809138018F3F09F444C0F12C96E1BF
:1015B000E92E0F2D10E080913801082E000C990BB8
:1015C00080179107BCF1E09EF001E19EF00D11241F
:1015D000E45FFE4FC288D388C114D10419F488E7B0
:1015E000C82ED12CE09EF001E19EF00D1124E45FA5
:1015F000FE4FFA83E98386818823D1F0858596851D
:101600000E94AB25C816D90698F4A981BA815196D3
:101610008C915197811103C0CD010E947C1CE09EEA
:10162000C001E19E900D11248E5E9E4F0E949D1C74
:10163000F394BFCF8B2D26960FB6F894DEBF0FBE66
:10164000CDBFDF91CF911F910F91FF90EF90DF9071
:10165000CF90BF90AF909F908F907F906F905F9052
:101660004F903F902F9008958F929F92AF92BF928C
:10167000CF92DF92EF92FF920F931F93CF93DF935E
:10168000CDB7DEB72A970FB6F894DEBF0FBECDBF39
:10169000FC01D080118183819481892B39F01F3F17
:1016A00039F491E00FEFD01203C003C091E001C004
:1016B00090E090FDB2C67F0185E0DE0116960190B4
:1016C0000D928A95E1F7D70112962C918E819F8118
:1016D000222349F00E94E626082F682F8E819F81E1
:1016E0000E945E2703C00E943327082FE12FF0E0FD
:1016F000B6E00B9FE00DF11D1124EE0FFF1FEE0F62
:10170000FF1FED0DF11DEE0FFF1FE15CFD4F059179
:101710001491F7018281882309F49DC080913801DA
:101720008F3F09F44FC04CE0C42E41E0D42EA12CD1
:10173000B12C9924939480913801082E000C990BB8
:101740008A159B055CF1D60116968C911697882315
:10175000F1F019968D919C911A978017910739F4A1
:101760008091CF019091D0018017910781F0F6010F
:101770009786148703878189811103C0C6010E945F
:101780007C1CC60106960E949D1C1092C902FFEFA8
:10179000AF1ABF0A26E1C20ED11CCDCF0F353DE5F1
:1017A000130729F000368DE51807A9F05EC0D701B0
:1017B00012968C91882309F442C30E94A60380915B
:1017C000F30114C00F35BDE51B07B9F30036EDE595
:1017D0001E0709F04AC0F7018281811130C382E6F9
:1017E0000E940D1B82E60E940D1B29C3816080931D
:1017F000F30161E086952CC0D70112968C91882365
:1018000009F406C21092D1010230BCE51B0708F0B2
:10181000CEC08091CA0206312CE5120709F4E8C156
:1018200082720D3CFCE51F0709F4B2C208F401C244
:10183000023D2CE5120709F402C308F04CC20F3C2C
:101840008CE5180709F4ABC208F038C261E081E00A
:101850000E942605F4C20F35FDE51F0709F4EFC20B
:1018600000362DE5120709F4B6CFC80197558F3F12
:10187000910511F008F052C020913801022E000CA1
:10188000330B2817390714F480933801D7011296C7
:101890002C91129736E1389F5001399FB00C1124DA
:1018A000F501E45FFE4F6F01208B12969C918681BB
:1018B000992351F1128701878F5F86830E94BA2591
:1018C000D6011E969C938E931D978091CB021796FE
:1018D0008C9317979091C9028091CA02892B189610
:1018E0008C931897ED91FC911197309741F0549695
:1018F0006D917C915597C5018E5E9E4F0995109311
:10190000D0010093CF010AC0882341F08189882348
:1019100029F0C5018E5E9E4F0E949D1C043FFCE590
:101920001F0769F198F4093D3CE51307F9F00A3DFA
:101930008CE51807B1F1083D9CE5190709F05CCF6B
:1019400006E221EE41EE68ED7CE515C0063FACE510
:101950001A0709F1D0F0073FECE51E0709F04CCF5C
:1019600007E225EE46EE67EF7CE505C007E225EECF
:1019700045EE69ED7CE5C7010E94E81C60C206E205
:1019800021EE40EE64EF7CE5F6CF07E225EE44EE73
:1019900065EF7CE5F0CF06E221EE42EE66EF7CE5F6
:1019A000EACF08E221E045EE6AED7CE5E4CF0631BE
:1019B000ECE51E0730F0C8018B5F9C45099708F0E5
:1019C00028CF0E9416269093D8018093D70100312A
:1019D000FCE51F0709F4C3C008F041C008303CE52E
:1019E000130709F49AC0F0F404309CE5190709F4D0
:1019F00087C068F40230BCE51B0709F477C00330E8
:101A00001C4509F0E5C08091D701826076C00630A0
:101A1000FCE51F0709F46EC008F07BC08091D70178
:101A200088606BC00C303CE5130709F485C068F48E
:101A30000A309CE5190709F474C008F079C00E94C7
:101A4000FE198091D701806858C00E30BCE51B0795
:101A500009F476C008F07FC08091D7018BC00C3F9D
:101A6000FCE51F0709F44FC018F503313CE51307E7
:101A700009F47DC078F401319CE5190709F473C0BD
:101A800002311C4509F0A4C00E94FE198091D701C3
:101A90008F7733C00531BCE51B0709F472C008F429
:101AA00086C00B3F1C4509F093C08091D8013EC011
:101AB00001152DE5120709F45FC058F40E3F8CE5BF
:101AC000180709F444C008F43FC08091D80182602F
:101AD0002DC00230ADE51A0709F475C008F45DC0E9
:101AE00003301D4509F074C060E06EC08091D701DD
:101AF000816003C08091D70180618093D70168C065
:101B00008091D70111C08091D80182608093D80163
:101B10005FC08091D7018062F0CF8091D70180644F
:101B2000ECCF8091D70188608460E7CF8160EECFF1
:101B30008091D7018E7FE1CF8091D7018D7FDDCF5E
:101B40008091D701877FD9CF8091D80118C080912B
:101B5000D8018D7FDBCF8091D7018F7ECECF809152
:101B6000D7018F7DCACF8091D7018F7BC6CF80915F
:101B7000D701877F8B7FC1CF8091D8018D7F8E7FEA
:101B8000C5CF8091D70182FB222720F991E09227CF
:101B900090FB82F990FB83F9B0CF8091D801982F08
:101BA000909591708E7F892B90FB81F9AFCF0E9429
:101BB000FE198091D70187FB222720F991E0922717
:101BC00090FB87F99ACF61E08EE090E00E941029A7
:101BD0006091D7011091D80184E090E00E94102913
:101BE000612F82E290E00E9410290E94FE1927C115
:101BF0008A7A91E009F490E09093D201882311F061
:101C000065E301C069E288E792E00E94FC250EC00E
:101C100006311C4509F033C18091D201882309F4B3
:101C2000FAC365E388E792E00E94EF250E949F26B1
:101C300006C1073C3CE5130709F496C0D8F4043C00
:101C4000ACE51A0709F486C030F4033CECE51E0746
:101C500009F461C0B2C0053CFCE51F0709F47FC070
:101C6000063C2CE5120709F0A8C046E155E063E206
:101C700075E092C00A3C3CE5130709F47FC078F494
:101C8000083CACE51A0709F474C0093CBCE51B0725
:101C900009F093C040E055E064EF74E07DC00B3C78
:101CA000ECE51E0709F46FC00C3CFCE51F0709F0CA
:101CB00084C044E853E065E973E06EC0003DACE5E4
:101CC0001A0709F46FC0013DBCE51B0709F075C098
:101CD0006EE089E06FC0053DECE51E0709F468C0C1
:101CE00068F4033D2CE5120709F45FC0043D3CE5B0
:101CF000130709F062C061E082E1AACD063D8CE5E0
:101D0000180709F49CC00E359DE5190709F055C068
:101D100062E28DE14FC08091F30180FF67CD8E7F3D
:101D20008093F3016091F3017091F4018091F501CA
:101D30009091F6010E9472031092F901AFEFB0E7A3
:101D4000E2E0A150B040E040E1F700C000000E9496
:101D5000891D75C044E855E06DE875E01DC04DE88B
:101D600055E064E875E018C043E255E066E175E0CF
:101D700013C044EF54E060E075E00EC04CED54E059
:101D800068EE74E009C048EE54E06CED74E004C005
:101D900045E953E064E873E00E946D1D50C065E0C2
:101DA00082E008C068E086E005C061E18FE002C023
:101DB0006CE183E10E945B1D42C00B35FDE51F070E
:101DC000C1F158F401153CE51307B9F00F3D1C456E
:101DD00009F055C00E94272632C00C359DE5190731
:101DE00051F10D351D4509F04AC08091D80182FBA3
:101DF000882780F991E089271FC00E94FE19BFEF54
:101E0000E4E3FCE0B150E040F040E1F700C0000046
:101E100087E797E790930108809300089AE088E1AC
:101E20000FB6F894A895809360000FBE9093600061
:101E3000FFCF81E001C080E00E94CC2620C08091CD
:101E4000C702877009F4E9C2D70112968C918823E2
:101E500009F4E3C282E02A960FB6F894DEBF0FBE03
:101E6000CDBFDF91CF911F910F91FF90EF90DF9049
:101E7000CF90BF90AF909F908F900C94B927D701CF
:101E800012968C9112970D911C91882349F0C801EC
:101E90000E94E626D82E682FC8010E945E2704C043
:101EA000C8010E943327D82EB8018D2D0E94EF065D
:101EB0008C01982EF701D280A580A2943FE0A32246
:101EC0008091C702877099F0DD2089F0812F807F93
:101ED000803421F080E2800F883048F082E00E9458
:101EE000B9278091C7028770CC24C3948111C12C7B
:101EF000B12EB2942FE0B2228B2D90E08C30910560
:101F000008F049C2FC01EA5AFF4F0C94242D812F9E
:101F1000807F1F70882311F01295107FDD20B9F0AB
:101F2000112309F423C280E2800F883010F0911051
:101F300006C08091CA02182B1093CA0205C0809176
:101F4000C902182B1093C9020E949F260FC2802F2E
:101F50000E94091A112309F41EC2005E083010F015
:101F6000911004C0812F0E94982606C01095809180
:101F7000C90218231093C9020E949F260CC2812F08
:101F8000807F1F70803211F01295107F992021F010
:101F9000F1E09F1601F12EC0DD20A1F08091CB026F
:101FA000AA2071F001E0A0120BC0182B9091D8016B
:101FB00092FDF1C1181709F4EEC11093CB02EBC1E9
:101FC000812B10C0AA2021F021E0A21609F4E3C160
:101FD0000E9492262AC0DD2041F035E03A1508F42F
:101FE000DAC1812F0E940D18D6C184E08A1508F449
:101FF000D2C11BC0DD2061F0AA2099F3D70115964C
:102000008C91159780FFB2C18F7015968C93E9CF94
:10201000AA2059F0093309F0BBC1BFEFE7EEF3E0A6
:10202000B150E040F040E1F7B1C1812F0E94171894
:10203000B2C1812F86958695837019F0813059F051
:10204000AAC1DD2019F0C801937002C080E090E0C1
:102050000E945A1CA8C1DD2019F0C801937002C06B
:1020600080E090E00E94441C9EC1802FDD2019F08A
:102070000E94940602C00E94DB050E94B10593C134
:10208000812F837009F069C0D11089C1902F92957A
:1020900096959770990F990F802F8F70882E912C9D
:1020A000A12CB12C092E04C0880C991CAA1CBB1CA5
:1020B0000A94D2F704FF12C04FE050E060E070E0F5
:1020C00004C0440F551F661F771F9A95D2F7DB0196
:1020D000CA0180959095A095B09503C080E090E0EE
:1020E000DC0116951695412F4370423019F1C8F462
:1020F0000091CC021091CD022091CE023091CF02FE
:10210000413059F088299929AA29BB29BC01CD0160
:1021100060237123822393230AC0802A912AA22A52
:10212000B32ABC01CD01682979298A299B290E94FB
:10213000F72735C188299929AA29BB290091CC0202
:102140001091CD022091CE023091CF02BC01CD0181
:102150006027712782279327EACFDD2019F0812F8E
:10216000817001C08695882309F419C1902F92953A
:1021700096959770990F990F802F8F70882E912CBC
:10218000A12CB12C092E04C0880C991CAA1CBB1CC4
:102190000A94D2F704FF12C04FE050E060E070E014
:1021A00004C0440F551F661F771F9A95D2F7DB01B5
:1021B000CA0180959095A095B09503C080E090E00D
:1021C000DC0116951695412F43704230D9F068F521
:1021D0000091D3011091D4012091D5013091D60105
:1021E000413059F088299929AA29BB29BC01CD0180
:1021F00060237123822393231EC0802A912AA22A5E
:10220000B32A13C088299929AA29BB290091D3018F
:102210001091D4012091D5013091D601BC01CD019E
:10222000602771278227932706C0BC01CD0168294A
:1022300079298A299B290E948827B1C01F70DD2037
:1022400039F0812F0E94D627802F0E940D18A7C039
:10225000802F0E941718812F0E949427A0C0802FE2
:1022600022EF921609F440C0291538F030EF93168A
:1022700061F091EF991699F174C0A3EF9A16D9F114
:10228000B4EF9B1609F44EC06CC0DD2019F1E4E0F8
:10229000EA1508F480C01F7181E090E0A0E0B0E092
:1022A000AC01BD0104C0440F551F661F771F1A956E
:1022B000D2F78091D3019091D401A091D501B09132
:1022C000D6018A019B01082719272A273B27C90124
:1022D000B80125C025E02A1508F45DC0DCCFDD205B
:1022E00029F0812F8F7130C0DD20D9F3812F8F71BC
:1022F0000E94942750C0DD2079F01F7181E090E0AA
:10230000A0E0B0E0BC01CD0104C0660F771F881FBC
:10231000991F1A95D2F703C060E070E0CB010E94CC
:10232000882739C0DD2099F01F71812F0E94D627A0
:102330008091D80182FD07C038E0139FC0011124AD
:1023400083608093C702812F0E94D62724C081E03A
:102350000E94B92781E08A15F0F482E00E94B92733
:102360001AC0DD2039F0AA2009F4BBCF802F0E94CB
:10237000691A11C0AA2009F4B9CF893349F49FEF33
:10238000A7EEB3E09150A040B040E1F700C00000DC
:10239000802F0E94091A88EF8B0D843020F40E9450
:1023A000701C0E944C09CC20A9F08091C70280FDCE
:1023B00011C0F70112828595859585950E94D627D3
:1023C000C7010E94340B8091C7028595859585953C
:1023D0000E94942785E0F701DE01119601900D928D
:1023E0008A95E1F789819A810E943327EA81F0E09A
:1023F00006E0809FE00DF11D1124EE0FFF1FEE0F90
:10240000FF1F8981E80FF11DEE0FFF1FE15CFD4FFB
:102410008591949102C069E205CC2A960FB6F89492
:10242000DEBF0FBECDBFDF91CF911F910F91FF9007
:10243000EF90DF90CF90BF90AF909F908F900895D6
:10244000BC0184E00C944E252091E4003091E5001D
:1024500095E64091EC00842F817040FF23C080916D
:10246000E80080FD1DC080916E02882399F08530C0
:1024700099F08091EB0085FD11C04091E4005091EE
:10248000E5002417350729F3915011F09A01E1CFA7
:1024900084E0089582E0089583E0089581E008953E
:1024A00080E008954091E80042FFDDCF08958091DB
:1024B000700287FF11C08091E80082FD05C0809105
:1024C0006E028111F8CF11C08091E8008B770BC0AC
:1024D00080916E02882349F08091E80080FFF8CF58
:1024E0008091E8008E778093E8000895982F9730C8
:1024F00068F59093E900981739F07091EC002091FD
:10250000ED005091F00003C0242F762F50E021FD04
:1025100002C09F5FECCF3091EB003E7F3093EB0029
:102520003091ED003D7F3093ED003091EB00316054
:102530003093EB007093EC002093ED005093F0008B
:102540002091EE0027FDE5CF80E008958F70809305
:10255000E90081E0089520917602309177022617F4
:10256000370748F06115710539F42091E8002E779E
:102570002093E80001C0B901FC0120E0611571055C
:1025800079F180916E028823F1F18530F1F180912B
:10259000E80083FD3CC08091E80082FD2EC0809160
:1025A000E80080FFEBCF2091F3008091F20090E0F3
:1025B000922B6115710551F08830910538F4219105
:1025C0002093F100615071090196F3CF21E0089743
:1025D00009F020E08091E8008E778093E800CECF6C
:1025E0002111CFCF0AC080916E02882361F085301F
:1025F00061F08091E80083FD0AC08091E80082FFCD
:10260000F2CF80E0089582E0089583E0089581E0AC
:102610000895CF93DF93CDB7DEB760970FB6F894E8
:10262000DEBF0FBECDBF84B7877F84BF0FB6F894DF
:10263000A89580916000886180936000109260008E
:102640000FBE90E080E80FB6F894809361009093FD
:1026500061000FBE85B7806885BF85B7806885BF7C
:1026600081E095E29093CB018093CA010E94A92357
:102670000E94C8238091E20084608093E2007894F5
:1026800080916E028823A1F01091E9001F70909153
:10269000EC00892F817090FD80E8182B1092E900E2
:1026A0008091E80083FD0E949C201F701093E90038
:1026B00082E084BD93E095BD9AEF97BD80936E0054
:1026C000AAE7B1E020E831E0AD0101E010E0FA0155
:1026D0008191AF01E82FE295EF70F0E061A18F707A
:1026E000580102C0AA0CBB1C8A95E2F7C5019A2DBD
:1026F0009095962391A392A1892B82A32417350745
:1027000031F740E851E064E871E08A01EE24E39497
:10271000F12CF80181918F01E82FE295EF70F0E044
:10272000D1A08F70570102C0AA0CBB1C8A95E2F79A
:10273000C5019A2D90959D2191A392A1892B82A3E9
:102740006017710731F701E010E0FA018191AF01E4
:10275000E82FE295EF70F0E0F1A08F70580102C011
:10276000AA0CBB1C8A95E2F7C5019A2D90959F2172
:1027700091A392A1892B82A36417750731F761E0B9
:1027800070E08D91E82FE295EF70F0E041A18F703D
:102790006B0102C0CC0CDD1C8A95E2F7C6019C2DB2
:1027A0009095942391A392A1892B82A32A173B078A
:1027B00041F7E9EDF1E08FED91E0A7EEB1E0119284
:1027C0001D928E179F07D9F780E090E00E940A299A
:1027D0008A3E9E4F11F00E94272682E090E00E94E0
:1027E000FC28809312020E9416269093D8018093B1
:1027F000D70183E090E00E94FC28682F70E080E021
:1028000090E00E94F7276091D3017091D4018091EC
:10281000D5019091D6010E94C4088091DF018111F9
:1028200036C080E090E00E940A298A3E9E4F21F047
:102830000E9427260E94A60388E090E00E940429B7
:102840006093F3017093F4018093F5019093F60186
:102850006E7F71F40E94A60388E090E00E94042934
:102860006093F3017093F4018093F5019093F60166
:102870000E945F031092F9018091F30180FF04C070
:1028800060E086950E94260581E08093DF0101E0EB
:10289000802E02E0902E44E951E026E931E08FEFEE
:1028A000682E81E0782E61E070E08614970409F4C8
:1028B0004EC0F901A1919F018A2F82958F7090E0FF
:1028C000FC01F1A0AF70EA2E8B0101C0000FAA95A8
:1028D000EAF7F02FF095FF22DC019196FC92919798
:1028E0009296AC91A02BFC01A2A3DA01FD90AD0160
:1028F000EF2DE295EF70F0E0B1A0BF2DBF70FB2E81
:102900006B0101C0CC0CBA95EAF7DC2CD094DB202B
:10291000D1A2D2A0CD28C2A2DC0190968C9190E0E9
:1029200002C095958795EA94E2F78170E0A1F0E006
:1029300002C0F595E795FA94E2F7E0FD02C090E059
:1029400001C092E0892BF30181933F01AECF87E272
:1029500093E09093E1018093E00183E080933B0159
:1029600088E080933C0185E080933D0183E00E94F4
:102970003109FFEF03EC19E0F15000401040E1F79E
:1029800000C0000080E00E9431098EE391E0909346
:10299000E3018093E20112E0412E512C80916E02FE
:1029A000853009F082C0FF24F39400E112E18091A8
:1029B0006E02853009F05CC080916E02843009F4AB
:1029C00043C080E00E944C091092F9018091E60119
:1029D000811116C0F092E6018091F301982F917059
:1029E0009093E5018E7F8093F3012FEF30E742E073
:1029F000215030404040E1F700C000000E94891D96
:102A00001092E40188E190E0A0E40FB6F894A89554
:102A1000809360000FBEA093600083B7817F8460C5
:102A200083BF83B7816083BF7894889583B78E7F97
:102A300083BF0FB6F894A895809160008861809359
:102A40006000109260000FBE80916D02882309F42F
:102A5000AECF0E94AE09E7EEF1E0819181117FC215
:102A6000BDEEAB2EB1E0BB2EAE16BF06B1F79FCFC9
:102A70000E94FE190E94701C0E944C091092E601EF
:102A80008091E501882351F08091F301816080936A
:102A9000F30160E086950E94260505C08091FA0149
:102AA00081110E94891D0E94731D0E94AE09882316
:102AB00059F08FB7F8944091010250910202609151
:102AC0000302709104028FBFE3E1F2E0A7EEB1E0F0
:102AD00000E010E0302F2D919191922721F180E0BC
:102AE000FF24F394492F4F21D1F08F8338872F2172
:102AF00081E009F480E089870E94BA258160782FFF
:102B00009B878A874F81588569858B850E94A61B84
:102B1000F801ED5EFD4F8081F826F08219C08F5FCD
:102B2000FF0C8430F9F60F5F1F4F0630110591F648
:102B30008FEF8C878D871E860E94BA258160782F43
:102B4000988B8F874C855D856E8588890E94A61B32
:102B50008091F901882309F483C08091F801E09104
:102B6000F301E695E81BE093EF01823059F4F0E0C1
:102B7000E35CFC4FE4910E2F10E0A3E9EA2EABE1F9
:102B8000FA2E49C0863059F4F0E0E65CFC4FE4913F
:102B90000E2F10E0FDE5EF2EFBE1FF2E3CC089304B
:102BA00061F4E695F0E0E95CFC4FE4910E2F10E053
:102BB000E5E3EE2EE0E2FE2E2EC08F3059F4F0E079
:102BC000EC5CFC4FE4910E2F10E073ECE72E7FE1FC
:102BD000F72E21C0823191F08D31B9F48E2F63E050
:102BE0000E94F02CE92FF0E0EF5CFC4FE4910E2FF7
:102BF00010E06FE5E62E6EE1F62E0DC008E210E063
:102C000050E3E52E5FE1F52E06C000ED17E04BE244
:102C1000E42E4BE1F42E8091F001882361F01092B4
:102C2000F0010E94BA259093EE018093ED0110927D
:102C3000F2011092F1010E94BA25E091ED01F091AC
:102C4000EE018E1B9F0B8F3F9F4750F40E0F1F1FEF
:102C50001093EE010093ED018DEE91E0F7010995DF
:102C60008DEFE82E81E0F82E0BEF11E09FEF692E3B
:102C700091E0792E24E9C22E21E0D22E36E9A32E4E
:102C800031E0B32E4301212C312CD4018D914D0123
:102C9000E82FEE0FEE0FD5012D915D01A22FA29529
:102CA000AF70B0E090968C9190E02F7002C0959537
:102CB00087952A95E2F79C0121703327D6018D91E3
:102CC0006D01A82FA295AF70B0E090964C9150E0A6
:102CD0008F7002C0559547958A95E2F7CA018170B9
:102CE000992740FF02C082E090E0822B932B8E2B2D
:102CF000F30181933F018F70E82FF0E0EC57FE4F16
:102D00009081D7018C91890F8C93823054F0F80117
:102D100080818F5F808360E0832D0E94570921E0CE
:102D200001C020E0D7018C918F3F4CF4F8018081E5
:102D30008150808361E0832D0E94570921E0D701F3
:102D40008C91082E000C990BB2010E94102DF701F6
:102D500081937F01222A33940F5F1F4FF2E03F12CD
:102D600094CF222059F08FB7F894409101025091EE
:102D7000020260910302709104028FBF86E0EBE0D3
:102D8000F2E0DE01119601900D928A95E1F7E09054
:102D90000D02F0900E0200910F021091100210929D
:102DA0000D0210920E0210920F0210921002E1100A
:102DB00003C0FF2009F451C08091090290910A02DA
:102DC0000E94AB259C0190910802992309F4DDC073
:102DD0002333310508F441C09F3F19F09F5F909362
:102DE0000802EE2061F00E9474061E1414F09FEF9A
:102DF00001C091E0899F802D112480930D02FF2056
:102E000061F00E9474061F1414F09FEF01C091E05E
:102E1000899F802D112480930E0230910D0233235F
:102E2000E1F020910E022223C1F045EB3403C001F2
:102E30001124992319F090930D0203C081E080932F
:102E40000D0235EB2303C0011124992319F090934F
:102E50000E0203C081E080930E02011103C0112312
:102E600009F451C080910602909107020E94AB259F
:102E70009C0190910502992309F48CC025363105F7
:102E800008F441C09F3F19F09F5F90930502002313
:102E900061F00E945206101614F09FEF01C091E0FD
:102EA000899F802D112480930F02112361F00E94CD
:102EB0005206111614F09FEF01C091E0899F802DFA
:102EC00011248093100230910F023323E1F02091FE
:102ED00010022223C1F045EB3403C00111249923D1
:102EE00019F090930F0203C081E080930F0235EB3D
:102EF0002303C0011124992319F09093100203C0F9
:102F000081E08093100280910D0281110BC08091AD
:102F10000E02811107C080910F02811103C08091C0
:102F2000100281110E94B105EB82FC820D831E8389
:102F300086E0FE013196ABE0B2E001900D928A95F9
:102F4000E1F70E94701C90911102891709F426CDB7
:102F50000E94701C809311020E944C091FCD09BD74
:102F600019BD09B400FEFDCF8091D8008F7D8093FC
:102F7000D8008091E00082608093E0008091E000C2
:102F800081FDFCCF0E94FE1912CD2D32314008F098
:102F900025CF63CF2D32314008F076CFB4CF0E94D9
:102FA0002827292F2F70E92FE295EF704E2F50E040
:102FB000FA013297EE30F105B8F4EE59FF4F0C9458
:102FC000242D803F99F018F4883E70F40FC0843FA0
:102FD00059F40CC0883E50F0813F31F407C0822F75
:102FE000869586958695089580E0089581E00895F8
:102FF000882341F080959091C90289238093C9026A
:103000000C949F260895882339F09091C902892B4A
:103010008093C9020C949F260895882339F09091DB
:10302000CA02892B8093CA020C949F260895882394
:1030300021F00E9498260C949F2608958F929F92CB
:10304000AF92BF92CF92DF92EF92FF920F931F93B6
:10305000CF93DF93CDB7DEB761970FB6F894DEBF9D
:103060000FBECDBF8C0185E0F801DE011D960190F9
:103070000D928A95E1F7D801DC901196EC901197AA
:103080001296CC909091800220918102409183020F
:10309000509184024115510531F02F3F31F481E008
:1030A0009F3F19F403C081E001C080E080FD58C15A
:1030B000F801A380B48080E8882E82E0982EF090FA
:1030C0008202B501641B750BFF2009F403C18091D6
:1030D0008502382F307F6837710508F0CDC0311177
:1030E00088C02E1112C09D1110C0FC2CC1100DC043
:1030F0008F70806180938502C4010E94340B80919F
:103100008502D80115968C9348C1A114B10439F0F9
:10311000BFEFEB1206C081E0DB1203C003C081E009
:1031200001C080E080FD03C081E08C2502C080E00A
:1031300090E080FF10C04C2D6E2D8D2D0E94012837
:10314000882349F080E892E00E94340BE0E8F2E046
:1031500086E0DF0199C0AB2839F0BFEFEB1206C063
:1031600081E0DB1203C003C081E001C080E080FD8C
:1031700003C081E08C2502C080E090E0E82FE17080
:10318000BE2E80FF2CC04C2D6E2D8D2D0E9401284F
:10319000F82E811124C0DD86EE868D859E850E94E5
:1031A0002827292F22952F70223018F0243090F4F0
:1031B00005C09F7059F0811109C0EFC09F7031F0B8
:1031C000D80115969C91907F09F4E7C0805E883005
:1031D00008F4E3C0C8010E94340BFB2CDEC0FC2CB9
:1031E000CC2009F4DAC08091850281608093850249
:1031F0004EC02E1106C09D1104C0C11002C0F801BE
:103200008BC0DD86EE868D859E850E94CF17882334
:1032100069F1CC2059F120918502822F82958F701F
:1032200090E0029774F080918002909181029887DB
:103230008F831986BB86AA862C87CE0107960E94AB
:10324000340B86E0F801A0E8B2E001900D928A9577
:10325000E1F70E942B280DC02E15D9F0DD86EE86F1
:103260008D859E850E94CF1781111DC0C8010E94C7
:10327000340BFF24F39491C03111EECF80E892E03B
:103280000E94340B86E0D4011D928A95E9F7F12C57
:1032900084C09D11E3CFC110E1CFF8018583C8013F
:1032A0000E94340B57C0CC2009F320918502822F55
:1032B00082958F7090E0029724F280918002909125
:1032C00081029A8389831B82BD82AC822E83CE01C8
:1032D0000196B5CF68377105E8F5FC2CCC2031F2AA
:1032E0002E1127C09D1125C02091850220FD18C0F8
:1032F000822F82958F70482F50E04115510581F043
:10330000F80125834F30510541F08F5F982F92953A
:10331000907F822F8F70892B8583C8010E94340B88
:1033200086E0F801A0E8B2E001900D928A95E1F7FD
:1033300034C0DD86EE868D859E850E94CF17811173
:1033400080CF80918502816080938502C8010E94B0
:10335000340B23C086E0D4011D928A95E9F71DC085
:10336000CC2009F483CFDD86EE868D859E850E9474
:10337000CF17F82E882309F479CF86E0F801A0E86A
:10338000B2E001900D928A95E1F7809180029091D0
:1033900081020E9428270E942B288F2D61960FB64C
:1033A000F894DEBF0FBECDBFDF91CF911F910F917B
:1033B000FF90EF90DF90CF90BF90AF909F908F9055
:1033C000089580E090E00E945A1C80E090E00E9406
:1033D000441C1092C9021092C8020E949F26EBE082
:1033E000F2E086E0DF011D928A95E9F7109208026B
:1033F00010920502109219020C94B1051092CA02A3
:1034000086E0EAE7F2E0DF011D928A95E9F70C9485
:10341000E119882309F45CC0823869F40E94701CA9
:1034200081FF56C069E388E792E00E94FC250E9474
:103430009F2669E30EC0833891F40E94701C80FFC0
:1034400047C063E588E792E00E94FC250E949F2622
:1034500063E588E792E00E94EF250C949F2684386C
:1034600069F40E94701C82FF33C067E488E792E031
:103470000E94FC250E949F2667E4EBCF9CEF980FEB
:10348000913A10F4682FE5CF90E2980F983050F4FD
:10349000877091E001C0990F8A95EAF7892F0E9401
:1034A0009826DBCF9BE5980F933020F480E090E0E6
:1034B0000C945A1C98E5980F973120F480E090E026
:1034C0000C94441C8D3E20F00E94DB050C94B10549
:1034D0000895CF93882309F49EC0C82F8238B1F491
:1034E0000E94701C81FD97C069E388E792E00E940A
:1034F000FC250E949F262FEF81EE94E02150804012
:103500009040E1F700C0000069E317C08338E1F4A0
:103510000E94701C80FD7FC063E588E792E00E94F6
:10352000FC250E949F262FEF81EE94E021508040E1
:103530009040E1F700C0000063E588E792E00E9458
:10354000EF25CF910C949F268438B1F40E94701C13
:1035500082FD61C067E488E792E00E94FC250E943A
:103560009F262FEF81EE94E0215080409040E1F7BC
:1035700000C0000067E4E1CF8CEF8C0F813A80F44B
:10358000EAE7F2E080E892E02191C217E1F18E17BC
:103590009F07D1F76C2F88E792E00E94FC25D1CFDE
:1035A00080E28C0F883068F4C77081E090E001C041
:1035B000880FCA95EAF79091CA02892B8093CA02B4
:1035C000C0CFEBE5EC0FE33040F4F0E0E856FE4FFF
:1035D000808190E0CF910C945A1CE8E5EC0FE73124
:1035E00050F4F0E0EE0FFF1FE556FE4F8081918111
:1035F000CF910C94441CCD3E70F08C2F0E94940609
:10360000CF910C94B1056C2F88E792E00E94EF25D2
:103610000E949F26BFCFCF9108951F93CF93DF9332
:10362000182F893319F0C0E0D0E002C0C0E5D0E027
:10363000812F0E94691A209741F08FE99FE001973E
:10364000F1F700C000002197F6CF812FDF91CF91D5
:103650001F910C94091A0895FC018081813021F496
:10366000FB018081918105C0823029F4FB018281B8
:1036700093810C9498080895FC018081813021F495
:10368000FB018081918105C0823029F4FB01828198
:1036900093810C94AE080895CF93DF93FC012081B1
:1036A000223041F4FB01EC01828193810E94AE083B
:1036B00081E08B87DF91CF910895CF93DF93EC0169
:1036C000E3EFF1E0438162818C810E9497058C8158
:1036D0008F5F8C83DF91CF910895682F70E080E039
:1036E00090E00E94F12A20E030E04FE753E40E948E
:1036F000142A2BED3FE049E450E40E941A2C0E946A
:10370000872C0E948E2A23ED34E849E25FE30E9471
:10371000A72924E530E643EA52E40E941A2C0E94CD
:10372000C02A862F0895CF93DF93EC018C810E94ED
:103730006D1BE3EFF1E0482F628181810E949705C4
:103740008C818F5F8C83DF91CF9108951F93CF93EE
:10375000DF93CDB7DEB767970FB6F894DEBF0FBE25
:10376000CDBF342F4B8B252F5C8B6D8B7E8B8F8B3E
:103770004E895F8961111092C90286E0FE013D9673
:10378000DF01982F1D929A95E9F73D872E876F8765
:10379000598B488BDE01179601900D928A95E1F7BF
:1037A000CE0107960E941E1881113EC086E0FE01E0
:1037B0003796DE01119601900D928A95E1F7FF810F
:1037C000E8856A857B856115710531F0EF3F31F43D
:1037D00081E0FF3F19F403C081E001C080E080FD7B
:1037E00023C02091860230E0C90101968770992795
:1037F0004091B70250E08417950779F1F983EA8385
:103800007D836C8396E0929FD001939FB00D11242D
:10381000A957BD4FFE01319601900D929A95E1F79F
:10382000809386020E94212816E08091B702909131
:1038300086028917F9F0189FC001112489579D4FFE
:103840000E941E188823B1F08091B70290E0019683
:10385000877099278093B702E8CF0E94FE191092D3
:1038600086021092B702E0E8F2E086E0DF011D92E6
:103870008A95E9F767960FB6F894DEBF0FBECDBF05
:10388000DF91CF911F91089520915F0230916002E6
:103890002817390771F09093600280935F02E091DE
:1038A000E201F091E301309721F00084F185E02DF1
:1038B0000994089520915D0230915E02281739071E
:1038C00071F090935E0280935D02E091E201F091CD
:1038D000E301309721F00680F781E02D09940895E7
:1038E000E091E201F091E301309721F00190F08145
:1038F000E02D099480E00895CF93DF93EC0181E0FF
:10390000898B9091CA028F81892B8093CA029091F2
:10391000C9028885892B8093C9020E949F26EA816B
:10392000FB81CE010696309729F06C897D89DF9165
:10393000CF910994DF91CF910895EF92FF920F9369
:103940001F93CF93DF93FC01228521113AC0EC0134
:10395000E380F480F7E5FF1A26E12E9DC0012F9D3C
:10396000900D1124DC01A45FBE4F1496ED91FC91E3
:1039700015978E5E9E4F309729F054966D917C91ED
:103980005597099586E18E9D80018F9D100D11241C
:10399000045F1E4FF80187810E949826F8018085F8
:1039A00080959091C90289238093C9020E949F2625
:1039B000188219861B861E821D821092D0011092D9
:1039C000CF01DF91CF911F910F91FF90EF9008955C
:1039D0000F931F93CF93DF93C42FD22FFC018281CB
:1039E0008823C9F04093D1010E94BA2590935C02CC
:1039F00080935B0280E28C0F883008F057C0C7705C
:103A000081E001C0880FCA95EAF7DF91CF911F913D
:103A10000F910C940D188091D101481330C0809102
:103A20005B0290915C020E94AB258837910538F5C6
:103A300010E21D0FCD17B9F080E28C0F883040F4F2
:103A4000C77081E001C0880FCA95EAF70E94171875
:103A5000183028F581E09D2F977001C0880F9A9546
:103A6000EAF70E940D18802F0E940D1B1830F0F409
:103A7000D77081E001C0880FDA95EAF70AC080E2CA
:103A80008C0F883098F4C77081E001C0880FCA9508
:103A9000EAF7DF91CF911F910F910C941718802FA7
:103AA000DF91CF911F910F910C940D1BDF91CF915E
:103AB0001F910F9108959091F30190FF04C0969586
:103AC000981740F003C0811105C090E0961710F4DC
:103AD0000C948D0561E00C942605882311F0FA0101
:103AE00001C0FB0109946091F301669570E04BE021
:103AF00050E088E491E00E94392D892B19F481E08F
:103B00008093F9010E94BA259093EE018093ED0114
:103B100008955F926F927F928F929F92AF92BF9221
:103B2000CF92DF92EF92FF920F931F93CF93DF9389
:103B300000D000D01F92CDB7DEB750903A018091EF
:103B4000F30180FF08C08090E0019090E1018114B2
:103B50009104A9F42EC080913B0190913C018917FA
:103B600090F7E82FF0E09F01220F331FE20FF31FC1
:103B7000E55EFD4F1182108212828F5FF0CF80913F
:103B8000E601811116C0A12CB12C66246394712C1E
:103B90002091FA01C3010A2C01C0880F0A94EAF7A8
:103BA000822309F450C0F401C590D490C114D1040B
:103BB000C9F4E091390123E0E29FF0011124E55EB0
:103BC000FD4F539A8BB1877F9BB198602FB7F894C4
:103BD000AF0133E0539E400D511D112440C035E02C
:103BE000C30ED11C45E050E0B601CE0101960E9403
:103BF000F32809810F3F39F110E08A819801280FDD
:103C0000311DC9012930310514F088E090E07C01B4
:103C1000EE0CFF1C8E0D9F1D9C01255E3D4F790112
:103C2000C801880F991F080F191F055E1D4F0E153B
:103C30001F05A8F698014D816C818B810E94B50308
:103C40000D5F1F4FF4CF82E0880E911C9FEFA91AE1
:103C5000B90A28E0A216B10409F09ACFAACF4E17EC
:103C60005F0789F0319168E09BB9000000C037FF21
:103C70008BB9330F000000C000C000C08BB900C07A
:103C80006A9591F7ECCF2FBF8FE594E00197F1F79C
:103C900000C000000F900F900F900F900F90DF91D9
:103CA000CF911F910F91FF90EF90DF90CF90BF9039
:103CB000AF909F908F907F906F905F9008957F92CC
:103CC0008F929F92AF92BF92CF92DF92EF92FF922C
:103CD0000F931F93CF93DF93FC019280748081E058
:103CE000848380E00E946D1B882E8FE70E946D1BED
:103CF000A12CF5E0BF2ECC24CA94D12C8819E82E33
:103D0000F12C80913D01A81608F09BC00A2D10E00F
:103D100022E0291568F0B09EF001B19EF00D11244B
:103D2000ED5CFD4F8091F40180838091F5018183EA
:103D300071100AC0B09EF001B19EF00D1124ED5C2F
:103D4000FD4F1382128263C0B09EE001B19ED00D80
:103D50001124CD5CDD4F8B818823E1F081508B8372
:103D60002FEF829FC00111246C8170E00E94FC2C17
:103D7000862F0E946D1B88192FEF829FC00111248E
:103D8000B7010E94FC2C8091F601689FB0011124BC
:103D90007A833DC00E94E3282091F60126952158A0
:103DA00030E0A901440F551F322F2227240F351F61
:103DB000232F33278217930754F582E0891588F45F
:103DC0000E94E328B6010E94102D88830E94E328F8
:103DD0002091F5012695622F70E00E94102D280F8A
:103DE0002983B09EF001B19EF00D1124ED5CFD4FD2
:103DF00012828091F601843108F484E1B09EF001D2
:103E0000B19EF00D1124ED5CFD4F8483838380917E
:103E10003B019801280F311DC901880F991F280FF8
:103E2000391F255E3D4FB09EF001B19EF00D11246B
:103E3000ED5CFD4F4281618180810E94B503A394B6
:103E400060CFDF91CF911F910F91FF90EF90DF90A6
:103E5000CF90BF90AF909F908F907F900C94891DD2
:103E60008F929F92AF92BF92CF92DF92EF92FF928A
:103E70000F931F93CF93DF938C01FC014481C42FD8
:103E8000D0E09E01DE010E9498299B01AC010E94B6
:103E900063296B017C01E0E2F0E0EC1BFD0BA5E582
:103EA000B0E09B01AC010E9463294B015C019F01C2
:103EB000DF010E942A2D9B01AC010E946E299B010B
:103EC000AC012C0D3D1D4E1D5F1DC501B4010E94AE
:103ED0007629C22FD22F2A3228F4F3E02F9F9001A7
:103EE00011240DC025E530E02C1B3109C901880FD4
:103EF000991F280F391F37FF02C02F5F3F4F35959D
:103F00002795C22FC095F12C85E5E82EED1A8091FA
:103F10003D01F816C8F4F0FC02C08E2D01C08D2FB3
:103F200090913B012F2D30E0290F311DA901440F45
:103F3000551F240F351F255E3D4F4C2F6091F50115
:103F40000E94B503F394E3CF0E94891DF801848198
:103F5000811102C091E003C0803219F49FEF909369
:103F6000550190915501890FF8018483DF91CF911C
:103F70001F910F91FF90EF90DF90CF90BF90AF9087
:103F80009F908F900895CF9380913B0190913C0139
:103F9000891770F4E82FF0E09F01220F331FE20F22
:103FA000F31FE55EFD4F1182108212828F5FF0CF0A
:103FB000C0E060913D01C617C0F5EC2FF0E070E065
:103FC000CF010E94102D20913B01820F20911A02F7
:103FD000022E000C330B90E0E217F307CCF0209197
:103FE0005401022E000C330B2E173F078CF09C015E
:103FF000220F331F820F931F9C01255E3D4F40917E
:10400000F6016091F5018091F4010E94B5030BC0A7
:10401000FC01EE0FFF1F8E0F9F1FFC01E55EFD4FA1
:10402000118210821282CF5FC4CF0E94891D20911D
:10403000530180911A02820F80931A0290915401C9
:10404000920F9093540119165CF4082E000C990BF2
:1040500040913D0150E041505109841795071CF0F3
:10406000219520935301CF910895FF920F931F93B1
:10407000CF93DF93EC01F12C00E810E060913D015B
:10408000F616F0F480913B012F2D30E0280F311D02
:10409000C901880F991F280F391F255E3D4F70E019
:1040A000C8010E94102D962F8C814091F6016091DD
:1040B000F501F99E800D11240E94B503F394DECF23
:1040C0000E94891D9A818C8190FF02C08F5F01C080
:1040D00081508C83DF91CF911F910F91FF900895B4
:1040E000EF92FF920F931F93CF93DF937C018B018D
:1040F0000E942412811119C0E70101151105A1F0D8
:104100008091E80085FD0AC08091E8008E77809359
:10411000E8000E942412882381F307C089918093CC
:10412000F10001501109E9CF80E0DF91CF911F919B
:104130000F91FF90EF9008951F93CF93DF93CDB72A
:10414000DEB7AA970FB6F894DEBF0FBECDBFE0E78B
:10415000F2E08091F100819322E0E837F207C9F79D
:1041600080917102833009F460C030F4813071F0C5
:10417000823009F49AC0B1C08A3009F486C08B300D
:1041800009F46BC0893009F0A8C020C0809170028A
:10419000813A09F0A2C08091E800877F8093E8000F
:1041A0008091740290917502892B21F468E084E675
:1041B00092E003C060E080E090E070E00E94AB120B
:1041C0008091E8008B778093E80087C0809170022F
:1041D000813209F082C08091740290917502029739
:1041E00008F07BC08091E800877F8093E800809191
:1041F000E80082FD05C080916E028111F8CF6DC08C
:104200002091F3008091F20090E0922B029729F424
:104210008091F1008B7F813021F48091F1008093B7
:1042200063028091E8008B7754C080917002813ADC
:1042300009F053C08091740290917502892B09F0A6
:104240004CC08091E800877F8093E8008091E8006F
:1042500080FFFCCF8091560137C08091700281327F
:10426000E1F58091740290917502892BB1F58091EE
:10427000E800877F8093E8000E94571280917202C5
:10428000809356010E94FE1928C0809170028132ED
:1042900021F58091E800877F8093E8000E94571203
:1042A000809173028093620218C080917002813AFB
:1042B000A1F48091E800877F8093E8008091E80076
:1042C00080FFFCCF809162028093F1008091E80032
:1042D0008E778093E8000E9457128091E80083FF58
:1042E000CCC18091700290917102492F50E04A3008
:1042F000510508F0C2C1FA01E059FF4F0C94242D7A
:10430000803821F0823809F0B8C108C080916C0271
:1043100090916D02992389F082600FC080917402A0
:104320008F70873008F0A9C18093E9008091EB007D
:1043300085FB882780F91092E9009091E800977F2B
:104340009093E8008093F1001092F10065C1282F4E
:104350002D7F09F092C1882319F0823061F08DC160
:1043600080917202813009F088C1933009F080E0B9
:1043700080936D022EC08091720281112AC08091BB
:1043800074028F702FEF280F263008F076C18093CB
:10439000E9002091EB0020FF1CC0933021F48091B4
:1043A000EB00806214C09091EB0090619093EB0061
:1043B00021E030E0A90102C0440F551F8A95E2F7C1
:1043C0004093EA001092EA008091EB0088608093AD
:1043D000EB001092E9008091E800877F20C18111F5
:1043E0004CC1109172021F778091E3008078812B7D
:1043F0008093E3008091E800877F8093E8000E942B
:1044000057128091E80080FFFCCF8091E300806824
:104410008093E300111102C082E001C083E0809329
:104420006E022BC18058823008F027C18091720241
:10443000909173028C3D53E0950779F583E08A8370
:104440008AE289834FB7F894DE01139620E03EE0BC
:1044500051E2E32FF0E050935700E49120FF03C0B6
:10446000E295EF703F5FEF708E2F90E0EA3010F032
:10447000C79601C0C0968D939D932F5F243149F755
:104480004FBF8091E800877F8093E8006AE270E088
:10449000CE0101960E94AB12AEC0409174025091C1
:1044A0007502292F332723303105A9F068F4213014
:1044B000310509F4F1C02230310509F0DEC08BE38B
:1044C00090E0ECEFF3E044C02132310521F12232DB
:1044D000310571F1D2C0992781309105A1F058F0D2
:1044E000029709F0CAC0E9E4F4E0E4918E2F90E06D
:1044F000E9E4F4E02AC0E1E7F4E0E4918E2F90E0F3
:10450000E1E7F4E022C0EFE5F4E0E4918E2F90E0E3
:10451000EFE5F4E01AC04115510509F4C2C041307D
:10452000510509F0AAC089E090E0E7E2F4E010C08C
:104530004115510509F4BAC04130510509F09DC03B
:104540008BE790E0E1E4F3E003C0009709F495C045
:104550002091E800277F2093E80020917602309197
:1045600077028217930708F49C0140E0211531057A
:1045700089F180916E02882309F43DC08530D9F11C
:104580008091E80083FD37C08091E80082FD2FC054
:104590008091E80080FFEACF4091F3008091F20023
:1045A00090E0942B2115310559F08830910540F4A5
:1045B00044914093F1003196215031090196F2CF98
:1045C00041E0089709F040E08091E8008E77809301
:1045D000E800CCCF4111CDCF0AC080916E02882374
:1045E00051F0853041F08091E80083FD04C0809156
:1045F000E80082FFF2CF8091E8008B778093E8009B
:104600003CC08038D1F58091E800877F8093E80036
:1046100080916F028093F1008091E8008E77809303
:10462000E8000E94571229C0811127C080917202B0
:10463000909173029927029704F58091E800877F93
:104640008093E8001091720210936F020E9457123B
:10465000111106C08091E30087FD02C081E001C016
:1046600084E080936E0242E061EC81E00E94761269
:1046700042E261EC82E00E9476128091E80083FFC2
:104680001AC08091E800877F8093E8008091EB005A
:1046900080628093EB000FC082E190E0E7E3F4E0FA
:1046A00057CF89E090E0EEE0F4E052CF80E490E074
:1046B000ECEBF3E04DCFAA960FB6F894DEBF0FBE39
:1046C000CDBFDF91CF911F9108951F920F920FB62A
:1046D0000F9211242F933F934F935F936F937F9388
:1046E0008F939F93AF93BF93CF93DF93EF93FF93FA
:1046F000C091E900CF708091EC00D82FD17080FD7F
:10470000D0E81092E9008091F000877F8093F0005C
:1047100078940E949C201092E9008091F0008860BB
:104720008093F000CD2BCF70C093E900FF91EF9103
:10473000DF91CF91BF91AF919F918F917F916F91B9
:104740005F914F913F912F910F900FBE0F901F904F
:104750001895E8EDF0E080818E7F80831092E20072
:104760001092DA001092E100A0EEB0E08C9181602E
:104770008C9380818F77808319BCA7EDB0E08C91FA
:104780008E7F8C9380818F7E80831092610208954A
:10479000CF92DF92EF92FF920F931F93CF93DF930D
:1047A000C8EDD0E088818F7E8883E7EDF0E08081DE
:1047B0008160808384E082BF81E080936102888190
:1047C0008E7F888302EE10E0F80110821092DA00EA
:1047D00081EEC82ED12CF601108288818F778883D4
:1047E00088818068888388818F7D888319BC109236
:1047F0006E0210926F0210926D0210926C0290EE97
:10480000E92EF12CF70180818B7F80838881816084
:10481000888342E060E080E00E947612F6018081A9
:104820008E7F8083F80180818160808380818860B1
:104830008083F70180818E7F808388818061888377
:10484000DF91CF911F910F91FF90EF90DF90CF906C
:1048500008951F920F920FB60F9211242F933F933A
:104860004F935F936F937F938F939F93AF93BF9378
:10487000EF93FF938091E10082FF09C08091E200F5
:1048800082FF05C08091E1008B7F8093E1008091E1
:10489000DA0080FF2AC08091D80080FF26C0809176
:1048A000DA008E7F8093DA008091D90080FF18C0F3
:1048B00080E189BD82E189BD09B400FEFDCF81E0C0
:1048C00080936E028091610281110FC00E94A92322
:1048D0000E94C8238091E20084608093E20005C0BA
:1048E00019BC10926E02109261028091E10080FF6B
:1048F00017C08091E20080FF13C08091E2008E7F9C
:104900008093E2008091E20080618093E2008091D8
:10491000D80080628093D80019BC85E080936E0235
:104920008091E10084FF2EC08091E20084FF2AC0C4
:1049300080E189BD82E189BD09B400FEFDCF80918F
:10494000D8008F7D8093D8008091E1008F7E809386
:10495000E1008091E2008F7E8093E2008091E2008E
:1049600081608093E20080916F02882311F084E0DF
:1049700007C08091E30087FD02C081E001C083E0B1
:1049800080936E028091E10083FF27C08091E20056
:1049900083FF23C08091E100877F8093E10082E064
:1049A00080936E0210926F028091E1008E7F80935F
:1049B000E1008091E2008E7F8093E2008091E2002E
:1049C00080618093E20042E060E080E00E94761225
:1049D0008091F00088608093F000FF91EF91BF918B
:1049E000AF919F918F917F916F915F914F913F9187
:1049F0002F910F900FBE0F901F901895809163021A
:104A0000089580E0089522E02093E9002FEF30918F
:104A1000E800215035FD06C035ED3A95F1F700006C
:104A20002111F5CF2091E80025FF0BC040E050E0B8
:104A300066E070E00E9470208091E8008E7780939D
:104A4000E8000895CF93DF9321E02093E9002FEF52
:104A50003091E800215035FD06C035ED3A95F1F76B
:104A600000002111F5CF2091E80025FF14C0EC01D2
:104A700040E050E068E070E00E9470208091E80023
:104A80008E778093E80088E0FE01A4E6B2E0019012
:104A90000D928A95E1F7DF91CF910895CF93DF933F
:104AA00000D01F92CDB7DEB790916E02943019F509
:104AB00089837B836A8382E08093E9008FEF909102
:104AC000E800815095FD06C095ED9A95F1F700003C
:104AD0008111F5CF8091E80085FF0DC040E050E0E6
:104AE00063E070E0CE0101960E9470208091E800A2
:104AF0008E778093E8000F900F900F90DF91CF9109
:104B00000895BC0183E00C944E2578941F920F9277
:104B10000FB60F9211248F939F93AF93BF93809101
:104B2000010290910202A0910302B0910402019649
:104B3000A11DB11D8093010290930202A093030274
:104B4000B0930402BF91AF919F918F910F900FBED0
:104B50000F901F9018959C014FB7F8948091010217
:104B600090910202A0910302B09104024FBF821BF8
:104B7000930B08952FB7F89480910102909102024F
:104B8000A0910302B09104022FBF08951F920F92CB
:104B90000FB60F9211248F939F93AF93BF93809181
:104BA000E401811113C08091010290910202A09151
:104BB0000302B09104024196A11DB11D8093010230
:104BC00090930202A0930302B0930402BF91AF91AD
:104BD0009F918F910F900FBE0F901F9018959C0181
:104BE0002A5F3F4FFC014281461301C012820196A9
:104BF00082179307B9F708959C01FC0132969FEF45
:104C000080E04191461789F09F3F19F4411101C09E
:104C1000982F8F5F8630A9F79F3F39F0F901E90F90
:104C2000F11D97FDFA95628308950895CF9384E06E
:104C300090E00E94FC28C82F82E290E00E94FC28AD
:104C40002C2F30E0A901582BCA01CF9108956AEEAC
:104C50007EEF80E090E00E942E2960E082E090E00C
:104C60000E94102960E083E090E00E9410291092D9
:104C7000CC021092CD021092CE021092CF0260E0D0
:104C800084E090E00E94102960E082E290E00E94BF
:104C9000102960E085E090E00E94102960E086E045
:104CA00090E00E9410296FEF87E090E00E941029A9
:104CB00040E050E0BA0188E090E00E94222960E0E4
:104CC0008DE090E00E94102940E050E0BA0188E1B8
:104CD00090E00E94222960E087E190E00E94102984
:104CE00040E050E0BA018CE190E00E94222960E0AF
:104CF00070E080E290E00E942E2940E050E0BA018E
:104D000088E190E00E94222940E050E0BA018FE063
:104D100090E00E94222940E050E0BA0183E190E057
:104D20000C9422298091CB0281111092CB0208951C
:104D300080959091CA0289238093CA020895909128
:104D4000CA028091C902892B2091C802982F922B08
:104D5000909378028091CB02882389F0892B8093ED
:104D60007802EAE7F2E097E080E0915029F02191A3
:104D70002223D9F38F5FF9CF81110E949226E0910F
:104D8000E201F091E301309731F00280F381E02DF0
:104D900088E792E009940895CF93C091D801C2FBAF
:104DA000992790F9981781F080FBC2F9C093D80138
:104DB0006091D70184E090E00E9410296C2F82E27C
:104DC00090E0CF910C941029CF910895BF92CF928B
:104DD000DF92EF92FF920F931F93CF93DF938C019B
:104DE000C090D301D090D401E090D501F090D601CD
:104DF0008091CC029091CD02A091CE02B091CF02D1
:104E0000C82AD92AEA2AFB2ACFE1D0E0D701C60175
:104E10000C2E04C0B695A795979587950A94D2F75E
:104E200080FD04C0219790F7B12C07C0BC2EB801BB
:104E30008C2F0E94EF060197A9F38B2DDF91CF9164
:104E40001F910F91FF90EF90DF90CF90BF9008954A
:104E5000CF93DF93EC010E94E626BE010E94EF068D
:104E6000DF91CF910895990F990F890F682F66955B
:104E700066956695982F977085E0689FB00111241C
:104E800040E050E080E0FB01E40FF51FE854FD4FE7
:104E9000208130E0092E02C0369527950A94E2F76A
:104EA00021703327042E01C0220F0A94EAF7822BC7
:104EB0004F5F5F4F4530510531F70895990F990FB6
:104EC000890FE82FE695E695E695877051E001C0D9
:104ED000550F8A95EAF785E0E89FF0011124E85420
:104EE000FD4F20E030E070E04081CB01022E02C097
:104EF000969587950A94E2F781708195842785239A
:104F0000842781932F5F3F4F2530310569F708953E
:104F10000E94C4086093D3017093D4018093D5019B
:104F20009093D6010C94E1190F931F9341E050E048
:104F300060E070E004C0440F551F661F771F8A951C
:104F4000D2F740955095609570958091D3019091DE
:104F5000D401A091D501B091D6018A019B0108230B
:104F600019232A233B23C901B8011F910F910C94E7
:104F700088272091C702809582238093C702982FAB
:104F8000977041F430E0482F082E000C550B241781
:104F9000350721F49091D80192FF07C0859585953A
:104FA00085950E9494271092C70208950F931F932E
:104FB00041E050E060E070E004C0440F551F661F00
:104FC000771F8A95D2F78091D3019091D401A09157
:104FD000D501B091D6018A019B01082B192B2A2BF0
:104FE0003B2BC901B8011F910F910C948827609346
:104FF000CC027093CD028093CE029093CF020C949A
:10500000E1192091B7029091860256E02917A9F084
:1050100030E0529FF001539FF00D1124E957FD4FEE
:105020007181761306C07081781303C07281741386
:1050300006C02F5F3F4F2770E9CF80E0089581E0E1
:1050400008958091B70290918602891719F08F5FB9
:105050008770FBCF08950F931F93CF93DF938091B9
:10506000850282958F7009F05DC08091820288234D
:1050700009F458C08091B7021091860260918002B5
:1050800070918102C0918302D091840291E06F3FC0
:1050900009F090E0292F06E0811709F443C020971A
:1050A00021F07F3F21F030E003C031E001C0322F1A
:1050B00090E030FD34C0089FF001099FF00D1124ED
:1050C000DF01A957BD4F11963C911197371327C0A7
:1050D0003C91361324C012963C91129731111FC097
:1050E00013964D915C9114974C1B5D0B48375105FD
:1050F000B0F4809185028F70806180938502E457BF
:10510000FD4F80818F708061808380E892E00E94F3
:10511000340BDF91CF911F910F910C9421280196B0
:105120008770BACFDF91CF911F910F9108958F9221
:105130009F92AF92BF92CF92DF92EF92FF92CF9366
:10514000DF93EC01688179818A819B81611571050A
:105150008105910521F464E279ED8BE597E02DE17D
:1051600033EF41E050E00E94442949015A019B017C
:10517000AC01A7EAB1E40E9463296B017C01ACEEAB
:10518000B4EFA50194010E947129DC01CB018C0DC3
:105190009D1DAE1DBF1DB7FF03C00197A109B048FB
:1051A00088839983AA83BB839F77DF91CF91FF90F8
:1051B000EF90DF90CF90BF90AF909F908F90089529
:1051C0000E949728089580E091E00E949728089512
:1051D000A0E0B0E08093000190930101A093020150
:1051E000B09303010895FB01DC0102C005900D920C
:1051F00041505040D8F70895F999FECF92BD81BD36
:10520000F89A992780B50895A6E1B0E044E050E00F
:105210000C943629A8E1B0E042E050E00C94362925
:10522000262FF999FECF92BD81BDF89A019700B45F
:10523000021639F01FBA20BD0FB6F894FA9AF99AFF
:105240000FBE08950396272F0E9411290E9410294E
:10525000252F0E941129242F0C9411290196272F04
:105260000E9411290C941029DC01CB01FC01F99951
:10527000FECF06C0F2BDE1BDF89A319600B40D92A2
:1052800041505040B8F70895052E97FB1EF4009446
:105290000E945B2957FD07D00E94762907FC03D0A6
:1052A0004EF40C945B2950954095309521953F4FD5
:1052B0004F4F5F4F089590958095709561957F4F02
:1052C0008F4F9F4F08950E949829A59F900DB49FDE
:1052D000900DA49F800D911D11240895B7FF0C948B
:1052E00063290E946329821B930B0895A1E21A2E61
:1052F000AA1BBB1BFD010DC0AA1FBB1FEE1FFF1F7A
:10530000A217B307E407F50720F0A21BB30BE40BC9
:10531000F50B661F771F881F991F1A9469F7609510
:105320007095809590959B01AC01BD01CF010895CA
:10533000A29FB001B39FC001A39F700D811D1124D6
:10534000911DB29F700D811D1124911D089550581B
:10535000BB27AA270E94BF290C946A2B0E945C2BB2
:1053600038F00E94632B20F039F49F3F19F426F4A3
:105370000C94322B0EF4E095E7FB0C942C2BE92FC8
:105380000E947B2B58F3BA176207730784079507AF
:1053900020F079F4A6F50C949D2B0EF4E0950B2EDD
:1053A000BA2FA02D0B01B90190010C01CA01A00177
:1053B0001124FF27591B99F0593F50F4503E68F1D2
:1053C0001A16F040A22F232F342F4427585FF3CF13
:1053D000469537952795A795F0405395C9F77EF4E4
:1053E0001F16BA0B620B730B840BBAF09150A1F02D
:1053F000FF0FBB1F661F771F881FC2F70EC0BA0FB3
:10540000621F731F841F48F4879577956795B7953A
:10541000F7959E3F08F0B0CF9395880F08F0992735
:10542000EE0F9795879508950E94282A0C946A2B71
:105430000E94632B58F00E945C2B40F029F45F3FE0
:1054400029F00C942C2B51110C949E2B0C94322B84
:105450000E947B2B68F39923B1F3552391F3951B9D
:10546000550BBB27AA2762177307840738F09F5F85
:105470005F4F220F331F441FAA1FA9F335D00E2EF2
:105480003AF0E0E832D091505040E695001CCAF75F
:105490002BD0FE2F29D0660F771F881FBB1F261722
:1054A00037074807AB07B0E809F0BB0B802DBF01F9
:1054B000FF2793585F4F3AF09E3F510578F00C94C8
:1054C0002C2B0C949E2B5F3FE4F3983ED4F38695EF
:1054D00077956795B795F7959F5FC9F7880F911DE9
:1054E0009695879597F90895E1E0660F771F881FD5
:1054F000BB1F621773078407BA0720F0621B730B88
:10550000840BBA0BEE1F88F7E095089529F416F086
:105510000C942C2B0C949D2B0C94322B0E94832BDF
:10552000A8F39638A0F707F80F92E8942BE33AEA2D
:1055300048EB5FE70E94302C0F920F920F924DB70D
:105540005EB70F920E94E62BE4EFF0E00E94352B4D
:105550004F915F91EF91FF91E595EE1FFF1F49F08D
:10556000FE57E0684427EE0F441FFA95E1F7419596
:10557000550B0E94B02B0F9007FE0C94A42B08959E
:105580000E94832B88F09F5798F0B92F9927B75125
:10559000B0F0E1F0660F771F881F991F1AF0BA95D7
:1055A000C9F714C0B13091F00E949D2BB1E008956D
:1055B0000C949D2B672F782F8827B85F39F0B93F5F
:1055C000CCF3869577956795B395D9F73EF490958A
:1055D0008095709561957F4F8F4F9F4F0895E89408
:1055E00009C097FB3EF490958095709561957F4F2B
:1055F0008F4F9F4F9923A9F0F92F96E9BB279395D9
:10560000F695879577956795B795F111F8CFFAF4E8
:10561000BB0F11F460FF1BC06F5F7F4F8F4F9F4F19
:1056200016C0882311F096E911C0772321F09EE877
:10563000872F762F05C0662371F096E8862F70E0DD
:1056400060E02AF09A95660F771F881FDAF7880FB7
:105650009695879597F9089597F99F6780E870E088
:1056600060E008959FEF80EC0895DF93CF931F9340
:105670000F93FF92EF92DF927B018C01689406C03A
:10568000DA2EEF010E942D2CFE01E894A5912591C0
:10569000359145915591A6F3EF010E94BF29FE0176
:1056A0009701A801DA9469F7DF90EF90FF900F91CE
:1056B0001F91CF91DF91089500240A9416161706C2
:1056C00018060906089500240A94121613061406F3
:1056D00005060895092E0394000C11F4882352F056
:1056E000BB0F40F4BF2B11F460FF04C06F5F7F4F0E
:1056F0008F4F9F4F089557FD9058440F551F59F0F5
:105700005F3F71F04795880F97FB991F61F09F3FAE
:1057100079F087950895121613061406551FF2CFD7
:105720004695F1DF08C0161617061806991FF1CF27
:1057300086957105610508940895E894BB2766274E
:105740007727CB0197F908959B01AC0160E070E0E9
:1057500080E89FE30C94142A0C942C2B0C948F2C2F
:105760000E94832BD8F39923C9F3940F511DA3F3FF
:105770009150504094F059F0882332F0660F771F13
:10578000881F91505040C1F79E3F51052CF7880F5C
:10579000911D9695879597F908955F3FACF0983ED7
:1057A0009CF0BB27869577956795B79508F4B1600F
:1057B0009395C1F7BB0F58F711F460FFE8CF6F5F07
:1057C0007F4F8F4F9F4FE3CF0C949E2BFA01DC014C
:1057D000AA0FBB1F9B01AC01BF5728F42227332718
:1057E0004427507820C0B75190F4AB2F0024469541
:1057F00037952795011CA395D2F3002071F0220F55
:10580000331F441FB395DAF30ED00C94A7296130EF
:105810007105A0E88A07B94630F49B01AC01662700
:10582000772788279078309621F020833183428330
:10583000538308950E942D2C0C946A2B0E945C2B9C
:1058400038F00E94632B20F0952311F00C942C2B40
:105850000C94322B11240C949E2B0E947B2B70F302
:10586000959FC1F3950F50E0551F629FF001729F05
:10587000BB27F00DB11D639FAA27F00DB11DAA1F14
:10588000649F6627B00DA11D661F829F2227B00D61
:10589000A11D621F739FB00DA11D621F839FA00DEC
:1058A000611D221F749F3327A00D611D231F849F3C
:1058B000600D211D822F762F6A2F11249F57504093
:1058C0009AF0F1F088234AF0EE0FFF1FBB1F661F0E
:1058D000771F881F91505040A9F79E3F510580F0D7
:1058E0000C942C2B0C949E2B5F3FE4F3983ED4F346
:1058F000869577956795B795F795E7959F5FC1F77B
:10590000FE2B880F911D9695879597F908959F9383
:105910000E949F2C0F9007FCEE5F0C94C82C9F3FB9
:1059200031F0915020F4879577956795B795880F5A
:10593000911D9695879597F908950C94322B0E94A6
:10594000832BD8F3E894E0E0BB279F57F0F02AEDD3
:105950003FE049EC06C0EE0FBB0F661F771F881FA4
:1059600028F0B23A62077307840728F0B25A620B34
:10597000730B840BE3959A9572F7803830F49A95FF
:10598000BB0F661F771F881FD2F790480C94912C8D
:10599000EF93E0FF07C0A2EA2AED3FE049EC5FEB9E
:1059A0000E94BF290E946A2B0F90039401FC90581B
:1059B000ECE1F1E00C94DC2C9F938F937F936F9339
:1059C000FF93EF939B01AC010E941A2CEF91FF9182
:1059D0000E94352B2F913F914F915F910C941A2C7F
:1059E000991B79E004C0991F961708F0961B881F31
:1059F0007A95C9F780950895AA1BBB1B51E107C092
:105A0000AA1FBB1FA617B70710F0A61BB70B881F4E
:105A1000991F5A95A9F780959095BC01CD010895DD
:105A200097FB072E16F4009407D077FD09D00E944B
:105A3000FC2C07FC05D03EF4909581959F4F08956E
:105A4000709561957F4F0895EE0FFF1F0590F491BB
:105A5000E02D09940E949829332312F48A1B9B0B92
:105A60000C94342D0E949829B7FF0895821B930B44
:105A70000895FC014150504030F001900616D1F7D6
:105A80003197CF010895882799270895F894FFCF7B
:105A90000100000059003A00630036004C1B3C1B1B
:105AA0002C1B0000000000000000000000000000AF
:105AB00008014C1B3C1B2C1B0000000000000000D8
:105AC0000000000000000401FF0008000808FE2498
:105AD00022250325812520120113141516171819E4
