:100000000C949F060C94E6060C94E6060C94E60607
:100010000C94E6060C94E6060C94E6060C94E606B0
:100020000C94E6060C94E6060C942D270C94692695
:100030000C94C81D0C94E6060C94E6060C94E60697
:100040000C94E6060C94E6060C94E6060C94E60680
:100050000C94E6060C947B1D0C94E6060C94E606C4
:100060000C94E6060C94E6060C94E6060C94E60660
:100070000C94E6060C94E6060C94E6060C94E60650
:100080000C94E6060C94E6060C94E6060C94E60640
:100090000C94E6060C94E6060C94E6060C94E60630
:1000A0000C94E6060C94E6060C94E6064B075407FF
:1000B0005F079F07CE07FD072C085B088A08B90871
:1000C000EB081A0949097809A409D6090B0A200D79
:1000D000200D5A0D5A0DB40DD00D660F660FDB0DB5
:1000E000B90ECA0ECA0E5D1F5D1F701F701F661FFE
:1000F000701F701F701F5D1F5D1F6B1F701F701FB3
:100100006B1F8424AB244126AB244126F3241625FF
:10011000412605261826165C2B00E0008B6249005C
:100120001F003600120014003504210013001800CF
:100130000E002C0039002A0028001A016500240056
:100140000A000B0010002C72260015001100190087
:100150004A002F002D00380031004D0046432A0090
:100160004C0049008A711E00340004003300E30093
:100170002000370008000D00E20022001C000C00E7
:100180001B00E00023000900070005008B4225004A
:10019000060017001A00E60027000F0016001D00D9
:1001A000520030002E008A7228714B0000004E0071
:1001B0004F0051005000010001000100010001004A
:1001C000615D01000100010001000100010001006A
:1001D000010001006F5D0100010001000100635D8D
:1001E0000100010001000100655D01000100010046
:1001F0000100695D675D01006B5D01004643010020
:1002000001000100010001006D5D01006C5D010055
:1002100001000100010001000100010001000100D6
:1002200001000100625D0100010001000100645D48
:100230000100010001000100665D010001000100F4
:1002400001006A5D685D010001000100000001001D
:1002500001000100010035023D1401000100010010
:1002600001003B0051001B01010001003D004F0057
:10027000190101000100010001003D14010001000D
:100280004000520051000100010042005F005C008C
:1002900059000100440061005E005B0000000100A5
:1002A000560054004E0001003A0050001D010100AC
:1002B00001003C0052000601010001003E004B001D
:1002C0004E00010001003F004A0050000100010003
:1002D00041004D004F004B000100430060005D00F5
:1002E0005A000100450057725871550000002E0059
:1002F0006300605D62005F5D0000000001000100BE
:100300000000C65CC75C000001000000CA5CCB5C5A
:1003100000000052530000000000005C01000000DB
:100320000000A8000000015200000000A900000029
:100330000000470000000000000000000100000075
:1003400000000000000000000000000000000100AC
:100350000000C85CC95C000001000000C45CC55C12
:10036000C35C01000000000000000000010000006C
:100370000000AA000000010046000000000000008C
:100380000000480000000100010000000000000023
:1003900000000000000052018466FFFF0000000022
:1003A0000D011CFFFF10011CFFFF19011CFFFF1CAA
:1003B000011CFFFF23011CFFFF250155FFFF2D013D
:1003C0001CFFFF30011CFFFF38011CFFFF3B011C1D
:1003D000FFFF44011CFFFF47011CFFFF50011CFFF2
:1003E000FF0C0155FFFF110155FFFF180155FFFFDD
:1003F0001D0155FFFF2B0155FFFF310255FFFF3651
:100400000155FFFF3C088466FF48088466FF5404DA
:100410008466FFFF00000000250100FFFFFF0000D1
:10042000000000DA0281FFD9F1DB20A4A62EAF0084
:10043000A0C000A1C800AED580A81FD300408D1475
:1004400020001804A003960300001E0F0564321458
:10045000783C1E1E140A052D2D2D2D2D20003C53F9
:1004600043523E20002D2D2D2D2D2020003C4E5599
:100470004D3E2020000A2D2D2D2D2D2D2020000A4F
:100480003C434150533E20200044564F52414B00C4
:1004900041444A5553540A00466E310A004C617972
:1004A00065723A004A495328313039290A00414ED1
:1004B000534928313034290A004D6F6465203A00D1
:1004C0000001010101010101010102020202020217
:1004D00002020203030303030303030404040404EA
:1004E00004040505050505060606060607070707B1
:1004F0000708080808090909090A0A0A0B0B0B0C66
:100500000C0C0D0D0D0E0E0E0F0F0F101011111102
:100510001212131314141515161617171818191983
:100520001A1A1B1B1C1D1D1E1E1F202021222223E8
:100530002424252626272829292A2B2C2D2D2E2F29
:1005400030313232333435363738393A3B3C3D3E40
:100550003F404142434445464748494A4C4D4E4F2F
:1005600050515354555658595A5B5D5E5F616264F1
:10057000656668696B6C6D6F7072737577787A7B7E
:100580007D7E8082838587888A8C8E8F91939596D5
:10059000989A9C9EA0A2A3A5A7A9ABADAFB1B3B5F5
:1005A000B7BABCBEC0C2C4C6C9CBCDCFD1D4D6D8D1
:1005B000DBDDDFE2E4E7E9EBEEF0F3F5F8FAFDFF6F
:1005C00005010902A10185020901A100050919011E
:1005D00029081500250195087501810205010930DA
:1005E00009311581257F9502750881060938158125
:1005F000257F950175088106050C0A3802158125AD
:100600007F950175088106C0C005010980A101859B
:100610000319012AB700150126B70095017510814D
:1006200000C0050C0901A101850419012AA00215C9
:100630000126A002950175108100C005010906A1DF
:1006400001050719E029E7150025019508750181C5
:10065000029501750881010507190029FF1500267B
:10066000FF00950675088100050819012905950503
:1006700075019102950175039101C009023B0002C9
:100680000100A0FA09040000010301010009211181
:100690000100012240000705810308000A09040146
:1006A000000103000000092111010001227B000765
:1006B00005820320000A1201100100000008EDFE6F
:1006C000150601000102000114034F005000540000
:1006D00049004D0041003600310035000000100394
:1006E0004C0065006B00690070006F006E00000038
:1006F000040309040000000000003E5B4F5B3E0065
:100700003E6B4F6B3E001C3E7C3E1C00183C7E3C0A
:1007100018001C577D571C001C5E7F5E1C000018D3
:100720003C180000FFE7C3E7FF0000182418000092
:10073000FFE7DBE7FF0030483A060E00262979295B
:100740002600407F05050700407F05253F005A3CF5
:10075000E73C5A007F3E1C1C0800081C1C3E7F0022
:1007600014227F2214005F5F005F5F0006097F0193
:100770007F00006689956A0060606060600094A2F6
:10078000FFA2940008047E04080010207E201000C0
:1007900008082A1C0800081C2A0808001E1010104F
:1007A00010000C1E0C1E0C0030383E383000060EB7
:1007B0003E0E060000000000000000005F00000088
:1007C000000700070000147F147F1400242A7F2AEA
:1007D00012002313086462003649562050000008B6
:1007E00007030000001C224100000041221C000001
:1007F0002A1C7F1C2A0008083E0808000080703070
:1008000000000808080808000000606000002010D0
:10081000080402003E5149453E0000427F4000006E
:100820007249494946002141494D33001814127F4D
:1008300010002745454539003C4A494931004121CE
:1008400011090700364949493600464949291E0021
:1008500000001400000000403400000000081422D2
:100860004100141414141400004122140800020161
:10087000590906003E415D594E007C1211127C0060
:100880007F49494936003E41414122007F41414173
:100890003E007F49494941007F09090901003E4165
:1008A000415173007F0808087F0000417F4100002C
:1008B0002040413F01007F08142241007F4040401A
:1008C00040007F021C027F007F0408107F003E4131
:1008D00041413E007F09090906003E4151215E0069
:1008E0007F091929460026494949320003017F0141
:1008F00003003F4040403F001F2040201F003F407A
:1009000038403F00631408146300030478040300B4
:100910006159494D4300007F4141410002040810E4
:100920002000004141417F000402010204004040D8
:100930004040400000030708000020545478400065
:100940007F2844443800384444442800384444282C
:100950007F0038545454180000087E09020018A47F
:10096000A49C78007F080404780000447D400000C7
:100970002040403D00007F102844000000417F409F
:1009800000007C04780478007C0804047800384473
:1009900044443800FC182424180018242418FC00AF
:1009A0007C080404080048545454240004043F44C0
:1009B00024003C4040207C001C2040201C003C4087
:1009C00030403C004428102844004C9090907C001B
:1009D0004464544C44000008364100000000770095
:1009E00000000041360800000201020402003C261B
:1009F00023263C00000000000000404040F0F8F8D2
:100A0000FF38FFF8F83FF8F8FF38FFF8F8F04040FB
:100A10004000000000000080C0C0C0800000C0C0D6
:100A20008000000080C0C000C0C0000080C0C000C6
:100A300000000000C0C0C0C0C000C0C00000000076
:100A400000000000000000000000000000000000A6
:100A50000000000000000000000000000000000096
:100A60000000000000000000000000000000000086
:100A7000000000C0F0F8FC3E1E06010000007F41AF
:100A800041417F007F4141417F000080C0E07E5BAB
:100A90004F5BFEC00000C000DCD7DEDEDED7DC002E
:100AA000C000000000000000000000000000000086
:100AB00000000000000000000000494949FFFFFF5E
:100AC000FFE0DFBFBF00BFBFDFE0FFFFFFFF49491F
:100AD0004900000000001F3F6060E0BF1F007F7FF3
:100AE000071E381E077F7F007F7F0E1F3B7160004F
:100AF000000000007F7F0C0C0C007E7E007F7E03D8
:100B000003007F7E03037E7E03037F7E000F3E7023
:100B10003C063C703E0F00327B49493F7E007F7EA1
:100B20000303001E3F69696F2600000000000000FB
:100B3000000000030F1F3F3C7870600000007F4101
:100B400041417F007F4141417F00307B7F783020F1
:100B50002030787F3B0003000F7F0F0F0F7F0F00C7
:100B60000300000000000000000000000000000082
:100B700000000000000000000000010101070F0F4D
:100B80007F0F7F0F0F7E0F0F7F0F7F0F0F0701016A
:100B90000100000000000000000000010100000052
:100BA0000000000000000000000000000000000045
:100BB0000000000000000000000000000000000035
:100BC0000000000000000000000000000000000025
:100BD0000000000000000000000000000000000015
:100BE0000000000000000000000000000000000005
:100BF00000000000000000000000000000000000F5
:100C000000000000000000000000000000000000E4
:100C100000000000000000000000000000000000D4
:100C200000000000000000000000000000000000C4
:100C300000000000FFAA7F55402223252628292AEC
:100C40002C2D2F3032333536383A3B3D3E4042432F
:100C50004547494A4C4E5051535557595A5C5E606E
:100C600062646668696B6D6F71737577797B7D7F80
:100C700081838587898A8C8E90929496989A9C9E7F
:100C80009FA1A3A5A7A8AAACAEAFB1B3B4B6B8B99B
:100C9000BBBCBEBFC1C2C3C5C6C7C9CACBCCCDCE03
:100CA000D0D1D2D2D3D4D5D6D7D7D8D9D9DADADBE6
:100CB000DBDBDCDCDCDCDCDDDDDDDDDCDCDCDCDC72
:100CC000DBDBDBDADAD9D9D8D7D7D6D5D4D3D2D2B1
:100CD000D1D0CECDCCCBCAC9C7C6C5C3C2C1BFBE99
:100CE000BCBBB9B8B6B4B3B1AFAEACAAA8A7A5A304
:100CF000A19F9E9C9A98969492908E8C8A898785C3
:100D000083817F7D7B79777573716F6D6B696866A1
:100D10006462605E5C5A5957555351504E4C4A4973
:100D200047454342403E3D3B3A3836353332302F1B
:100D30002D2C2A29282625232200AF00AE001124BD
:100D40001FBECFEFDAE0DEBFCDBF04B603FE27C083
:100D500080919C0790919D07A0919E07B0919F075D
:100D60008730904BA740B04BD1F410929C07109263
:100D70009D0710929E0710929F0714BE84B7877F2D
:100D800084BF0FB6F894A895809160008861809325
:100D90006000109260000FBEE0E0F8E3099511E0FA
:100DA000A0E0B1E0ECE3F3E602C005900D92A63AB4
:100DB000B107D9F727E0A6EAB1E001C01D92AC392E
:100DC000B207E1F70E94D80F0C949C310C940000FC
:100DD0008F929F92AF92BF92CF92DF92EF92FF924B
:100DE0000F931F93CF93DF93CDB7DEB72A970FB63C
:100DF000F894DEBF0FBECDBFFC010081D18083819E
:100E00009481892B39F01FEFD11206C091E00F3F7A
:100E100019F403C091E001C090E090FF02C00C946F
:100E2000C50F7F0185E0DE01169601900D928A952F
:100E3000E1F7D70112962C918E819F81222349F0F0
:100E40000E94FE1E182F682F8E819F810E94A11F75
:100E500003C00E94741F182FB0E51B9FF0011124DE
:100E600015E0D19EE00DF11D1124E00FF11DEE0FF4
:100E7000FF1FEA5EFE4F05911491F801EF55FD4505
:100E8000E131F10508F00CC3EA5AFF4FD701129681
:100E90008C910C946D31882311F40C94A50F0E9451
:100EA0000E178091DC01C5C281110C94A50F82E65A
:100EB0000E949F2282E60E949F220C94A50F882305
:100EC00011F40C94A50F8091380291E0382F327004
:100ED00081FF90E09093A90191E0282F207285FF77
:100EE00090E09093A801311103C0211104C022C0E9
:100EF00081EE0E94542D8091A801882319F085EE7F
:100F00000E94542D8FE20E94BB2D8FE20E94542D2F
:100F10008091A901882319F081EE0E94BB2D809158
:100F2000A801882311F40C94A50F85EE0E94BB2D17
:100F30000C94A50F8FE10E94BB2D8FE12CC088235C
:100F400011F40C94A50F8091380291E0382F327083
:100F500081FF90E09093A90191E0282F207285FFF6
:100F600090E09093A801311103C0211104C00FC07B
:100F700081EE0E94542D8091A801882319F085EEFE
:100F80000E94542D8EE20E94BB2D8EE2BFCF83E2E1
:100F90000E94BB2D83E20E94542DD7C7882309F4F9
:100FA000D4C78091380291E0382F327081FF90E0F1
:100FB0009093A90191E0282F207285FF90E09093F3
:100FC000A801311103C0211104C012C081EE0E949A
:100FD000542D8091A801882319F085EE0E94542D8C
:100FE00081EE0E94BB2D83E20E94BB2D83E207C2EB
:100FF00084E20E94BB2D84E2CECF882309F4A5C7EA
:101000008091380291E0382F327081FF90E0909308
:10101000A90191E0282F207285FF90E09093A8010C
:10102000311103C0211104C012C081EE0E94542D61
:101030008091A801882319F085EE0E94542D81EE3D
:101040000E94BB2D84E30E94BB2D84E3D8C185E2BE
:101050000E94BB2D85E29FCF882309F476C780913B
:10106000380291E0382F327081FF90E09093A9010F
:1010700091E0282F207285FF90E09093A801311114
:1010800003C0211104C012C081EE0E94542D809132
:10109000A801882319F085EE0E94542D81EE0E944C
:1010A000BB2D85E20E94BB2D85E2A9C186E20E948C
:1010B000BB2D86E270CF882309F447C780913802A0
:1010C00091E0382F327081FF90E09093A90191E078
:1010D000282F207285FF90E09093A801311103C062
:1010E000211104C012C081EE0E94542D8091A801EC
:1010F000882319F085EE0E94542D81EE0E94BB2DAD
:1011000086E20E94BB2D86E27AC187E20E94BB2D57
:1011100087E241CF882309F418C78091380291E013
:10112000382F327081FF90E09093A90191E0282F31
:10113000207285FF90E09093A801311103C0211126
:1011400004C012C081EE0E94542D8091A801882312
:1011500019F085EE0E94542D81EE0E94BB2D87E888
:101160000E94BB2D87E84BC18DE20E94BB2D8DE212
:1011700012CF882309F4E9C68091380291E0382F14
:10118000327081FF90E09093A90191E0282F2072A6
:1011900085FF90E09093A801311103C0211104C094
:1011A00012C081EE0E94542D8091A801882319F06D
:1011B00085EE0E94542D81EE0E94BB2D83E30E9498
:1011C000BB2D83E31CC181EE0E94BB2D8DE20E94EA
:1011D000BB2D8DE22AC1882309F4B7C6809138025D
:1011E00091E0382F327081FF90E09093A90191E057
:1011F000282F207285FF90E09093A801311103C041
:10120000211104C012C081EE0E94542D8091A801CA
:10121000882319F085EE0E94542D81EE0E94BB2D8B
:1012200080E30E94BB2D80E3EAC080E30E94BB2DD7
:1012300080E3B1CE882309F488C68091380291E01A
:10124000382F327081FF90E09093A90191E0282F10
:10125000207285FF90E09093A801311103C0211105
:1012600004C012C081EE0E94542D8091A8018823F1
:1012700019F085EE0E94542D81EE0E94BB2D82E371
:101280000E94BB2D82E3BBC082E30E94BB2D82E3A0
:1012900082CE882309F459C68091380291E0382F14
:1012A000327081FF90E09093A90191E0282F207285
:1012B00085FF90E09093A801311103C0211104C073
:1012C00012C081EE0E94542D8091A801882319F04C
:1012D00085EE0E94542D81EE0E94BB2D89E80E946C
:1012E000BB2D89E88CC087E80E94BB2D87E853CED0
:1012F000882309F42AC68091380291E0382F327091
:1013000081FF90E09093A90191E0282F207285FF42
:1013100090E09093A801311103C0211104C00FC0C7
:1013200081EE0E94542D8091A801882319F085EE4A
:101330000E94542D84E30E94BB2D84E3E7CD83E318
:101340000E94BB2D83E327CE882309F4FEC580913C
:10135000380291E0382F327081FF90E09093A9011C
:1013600091E0282F207285FF90E09093A801311121
:1013700003C0211104C012C081EE0E94542D80913F
:10138000A801882319F085EE0E94542D81EE0E9459
:10139000BB2D8FE10E94BB2D8FE131C081EE0E94F9
:1013A000BB2D84E20E94BB2D84E23FC0882309F458
:1013B000CCC58091380291E0382F327081FF90E0E7
:1013C0009093A90191E0282F207285FF90E09093DF
:1013D000A801311103C0211104C015C081EE0E9483
:1013E000542D8091A801882319F085EE0E94542D78
:1013F00081EE0E94BB2D8FE20E94BB2D8FE20E94E6
:10140000542D81EE83CD81EE0E94BB2D8EE20E9491
:10141000BB2D8EE20AC0882309F497C581EE0E9495
:10142000BB2D89E30E94BB2D89E30E94542D81EEE0
:10143000B2CD81608093DC0161E086952EC0F7011A
:101440008281882309F4ACC11092AA010230FCE524
:101450001F0708F055C08091AE0206312CE5120737
:1014600009F48EC182720D3C3CE5130709F44CC2AD
:1014700008F4A7C1043D8CE5180708F0F4C1023D4B
:101480009CE5190708F061C50F3CACE51A0709F4A3
:1014900042C208F0DBC161E081E00E94C01655C580
:1014A000043F2CE5120799F406E221EE40EE64EFCA
:1014B0007CE509C0083DACE51A0709F606E221EE15
:1014C00041EE68ED7CE5C7010E94CB2C3EC5053F8F
:1014D0003CE5130708F035C1093D8CE5180731F4E8
:1014E00007E225EE45EE69ED7CE5EDCF0A3D9CE592
:1014F000190701F708E221E045EE6AED7CE5E3CF4C
:1015000006312CE5120730F0C8018B5F9C45099726
:1015100008F0A1CF0E94181E9093AD018093AC01FA
:1015200000313CE5130709F4C3C008F041C008309E
:101530009CE5190709F49AC0F0F40430BCE51B07D8
:1015400009F487C068F40230FCE51F0709F477C08E
:1015500003301C4509F0E5C08091AC01826076C083
:1015600006303CE5130709F46EC008F07BC080919B
:10157000AC0188606BC00C309CE5190709F485C08C
:1015800068F40A30BCE51B0709F474C008F079C0A0
:101590000E947F228091AC01806858C00E30FCE52B
:1015A0001F0709F476C008F07FC08091AC018BC0A2
:1015B0000C3F3CE5130709F44FC018F503319CE5D7
:1015C000190709F47DC078F40131BCE51B0709F463
:1015D00073C002311C4509F0A4C00E947F22809193
:1015E000AC018F7733C00531FCE51F0709F472C0E9
:1015F00008F486C00B3F1C4509F093C08091AD01F3
:101600003EC001158DE5180709F45FC058F40E3F80
:10161000ACE51A0709F444C008F43FC08091AD015D
:1016200082602DC00230EDE51E0709F475C008F494
:101630005DC003301D4509F074C060E06EC080914C
:10164000AC01816003C08091AC0180618093AC01EA
:1016500068C08091AC0111C08091AD01826080931F
:10166000AD015FC08091AC018062F0CF8091AC0190
:101670008064ECCF8091AC0188608460E7CF8160AA
:10168000EECF8091AC018E7FE1CF8091AC018D7F58
:10169000DDCF8091AC01877FD9CF8091AD0118C09B
:1016A0008091AD018D7FDBCF8091AC018F7ECECF5D
:1016B0008091AC018F7DCACF8091AC018F7BC6CF6A
:1016C0008091AC01877F8B7FC1CF8091AD018D7FF1
:1016D0008E7FC5CF8091AC0182FB222720F991E05B
:1016E000922790FB82F990FB83F9B0CF8091AD01F6
:1016F000982F909591708E7F892B90FB81F9AFCFB9
:101700000E947F228091AC0187FB222720F991E083
:10171000922790FB87F99ACF61E08EE090E00E94DB
:10172000A2306091AC011091AD0184E090E00E9484
:10173000A230612F82E290E00E94A2300E947F22BC
:1017400004C4063FBCE51B0731F406E221EE42EE7D
:1017500066EF7CE5B8CE063FECE51E0730F407E205
:1017600025EE44EE65EF7CE5AECE073FFCE51F07B6
:1017700009F065CE07E225EE46EE67EF7CE5A3CEE5
:101780008A7A91E009F490E09093AB01882311F0FC
:1017900065E301C069E288E392E00E94FE1D0EC08D
:1017A00006311C4509F004C18091AB01882309F47E
:1017B000EAC365E388E392E00E94F11D0E949A1E4D
:1017C000C4C3073CACE51A0709F48AC0D8F4043C4A
:1017D000ECE51E0709F47AC030F4033C2CE512074F
:1017E00009F455C0A6C0053C3CE5130709F473C0D5
:1017F000063C9CE5190709F09CC042E656E16FE6FD
:1018000076E186C00A3CACE51A0709F473C078F4A7
:10181000083CECE51E0709F468C0093CFCE51F071D
:1018200009F087C04CE456E160E476E171C00B3CFE
:101830002CE5120709F463C00C3C3CE5130709F0E2
:1018400078C04EE956E16FEA76E162C0003DECE512
:101850001E0709F463C0013DFCE51F0709F069C0DC
:101860006EE089E063C0053D2CE5120709F45CC019
:1018700008F457C0063D8CE5180709F466C30E3519
:101880009DE5190709F055C06FE18AE14FC08091CD
:10189000DC0180FFCECD8E7F8093DC016091DC0186
:1018A0007091DD018091DE019091DF010E948C1624
:1018B0001092E201AFEFB0E7E2E0A150B040E040AB
:1018C000E1F700C000000E9485293FC34BEF56E1BD
:1018D00064E077E11DC044E057E16BEF76E118C0AA
:1018E0004FE656E162E676E113C040E456E16CE46F
:1018F00076E10EC048E256E164E376E109C044E3D4
:1019000056E168E276E104C04FEA56E16EE976E11D
:101910000E947F291AC365E082E008C068E086E083
:1019200005C061E08FE0B9CD69E180E10E946D29D9
:101930000CC30B35FDE51F07B1F150F401153CE573
:101940001307A9F00F3D1C4599F50E94291EFDC201
:101950000C359DE5190749F10D351D4549F5809177
:10196000AD0182FB882780F991E089271FC00E9482
:101970007F22BFEFE4E3FCE0B150E040F040E1F74C
:1019800000C0000087E797E7909301088093000864
:101990009AE088E10FB6F894A895809360000FBE96
:1019A00090936000FFCF81E001C080E00E94E41EC0
:1019B000D70112968C9112970D911C91882349F0B2
:1019C000C8010E94FE1ED82E682FC8010E94A11FC8
:1019D00004C0C8010E94741FD82EB8018D2D0E942A
:1019E000E4188C01982EF701D280A580A2942FE0F4
:1019F000A2228091AB02877099F0DD2089F0812FBF
:101A0000807F803421F080E2800F883048F082E0CF
:101A10000E94FE1F8091AB028770CC24C394811179
:101A2000C12CB12EB2949FE0B9228B2D90E08C3066
:101A3000910508F04BC2FC01E959FF4F0C946D3140
:101A4000812F807F1F70882311F01295107FDD2079
:101A5000B9F0112309F425C280E2800F883010F01C
:101A6000911006C08091AE02182B1093AE0205C0F3
:101A70008091AD02182B1093AD020E949A1E11C2E4
:101A8000802F0E94542D112309F420C2005E10956E
:101A9000083010F0911006C08091AE021823109308
:101AA000AE0205C08091AD0218231093AD020E94D2
:101AB0009A1E0CC2812F807F1F70803211F0129508
:101AC000107F992021F0F1E09F1601F12EC0DD205A
:101AD000A1F08091AF02AA2071F001E0A0120BC02A
:101AE000182B9091AD0192FDF1C1181709F4EEC1C8
:101AF0001093AF02EBC1812B10C0AA2021F021E08E
:101B0000A21609F4E3C10E94941E2AC0DD2041F010
:101B100035E03A1508F4DAC1812F0E949522D6C12A
:101B200084E08A1508F4D2C11BC0DD2061F0AA2030
:101B300099F3D70115968C91159780FFB2C18F70DC
:101B400015968C93E9CFAA2059F0093309F0BBC14F
:101B5000BFEFE7EEF3E0B150E040F040E1F7B1C194
:101B6000812F0E948A22B2C1812F8695869583702B
:101B700019F0813059F0AAC1DD2019F0C801937025
:101B800002C080E090E00E94DB28A8C1DD2019F0AF
:101B9000C801937002C080E090E00E94C5289EC1F9
:101BA000802FDD2019F00E94891802C00E94D017F2
:101BB0000E94691B93C1812F837009F069C0D11005
:101BC00089C1902F929596959770990F990F802FB4
:101BD0008F70882E912CA12CB12C092E04C0880C5A
:101BE000991CAA1CBB1C0A94D2F704FF12C04FE038
:101BF00050E060E070E004C0440F551F661F771F7F
:101C00009A95D2F7DB01CA0180959095A095B09581
:101C100003C080E090E0DC0116951695412F4370DB
:101C2000423019F1C8F40091EB011091EC012091C0
:101C3000ED013091EE01413059F088299929AA2906
:101C4000BB29BC01CD0160237123822393230AC0E9
:101C5000802A912AA22AB32ABC01CD0168297929B8
:101C60008A299B290E943C2035C188299929AA29C3
:101C7000BB290091EB011091EC012091ED01309115
:101C8000EE01BC01CD016027712782279327EACF9F
:101C9000DD2019F0812F817001C08695882309F419
:101CA00019C1902F929596959770990F990F802F43
:101CB0008F70882E912CA12CB12C092E04C0880C79
:101CC000991CAA1CBB1C0A94D2F704FF12C04FE057
:101CD00050E060E070E004C0440F551F661F771F9E
:101CE0009A95D2F7DB01CA0180959095A095B095A1
:101CF00003C080E090E0DC0116951695412F4370FB
:101D00004230D9F068F50091E7011091E801209187
:101D1000E9013091EA01413059F088299929AA292D
:101D2000BB29BC01CD0160237123822393231EC0F4
:101D3000802A912AA22AB32A13C088299929AA297C
:101D4000BB290091E7011091E8012091E901309150
:101D5000EA01BC01CD01602771278227932706C0C5
:101D6000BC01CD01682979298A299B290E94CD1FB0
:101D7000B1C01F70DD2039F0812F0E941B20802F01
:101D80000E949522A7C0802F0E948A22812F0E9444
:101D9000D91FA0C0802F22EF921609F440C0291548
:101DA00038F030EF931661F091EF991699F174C005
:101DB000A3EF9A16D9F1B4EF9B1609F44EC06CC08C
:101DC000DD2019F1E4E0EA1508F480C01F7181E01C
:101DD00090E0A0E0B0E0AC01BD0104C0440F551F8D
:101DE000661F771F1A95D2F78091E7019091E8015D
:101DF000A091E901B091EA018A019B010827192706
:101E00002A273B27C901B80125C025E02A1508F477
:101E10005DC0DCCFDD2029F0812F8F7130C0DD2047
:101E2000D9F3812F8F710E94D91F50C0DD2079F026
:101E30001F7181E090E0A0E0B0E0BC01CD0104C0E2
:101E4000660F771F881F991F1A95D2F703C060E0AD
:101E500070E0CB010E94CD1F39C0DD2099F01F71C9
:101E6000812F0E941B208091AD0182FD07C038E0C8
:101E7000139FC001112483608093AB02812F0E94C5
:101E80001B2024C081E00E94FE1F81E08A15F0F42F
:101E900082E00E94FE1F1AC0DD2039F0AA2009F45A
:101EA000BBCF802F0E94BB2D11C0AA2009F4B9CF4F
:101EB000893349F49FEFA7EEB3E09150A040B040C2
:101EC000E1F700C00000802F0E94542D88EF8B0D99
:101ED000843020F40E94F1280E945E1BCC20A9F0DF
:101EE0008091AB0280FD11C0F70112828595859526
:101EF00085950E941B20C7010E94E8068091AB02D5
:101F00008595859585950E94D91F85E0F701DE01AD
:101F1000119601900D928A95E1F789819A810E942C
:101F2000741F9A8100E5809FF001112415E0919FB4
:101F3000E00DF11D11248981E80FF11DEE0FFF1F47
:101F4000EA5EFE4F8591949120C08091AB0287702C
:101F5000E1F0D70112968C918823B9F082E02A969D
:101F60000FB6F894DEBF0FBECDBFDF91CF911F91AA
:101F70000F91FF90EF90DF90CF90BF90AF909F9028
:101F80008F900C94FE1F69E215CC2A960FB6F89438
:101F9000DEBF0FBECDBFDF91CF911F910F91FF909C
:101FA000EF90DF90CF90BF90AF909F908F9008956B
:101FB000CF93DF93CDB7DEB762970FB6F894DEBF4D
:101FC0000FBECDBF84B7877F84BF0FB6F894A895A6
:101FD00080916000886180936000109260000FBE65
:101FE00090E080E80FB6F8948093610090936100D0
:101FF0000FBE85B7806885BF85B7806885BF83EDD4
:102000009CE19093A7018093A6010E94AD260E94B7
:10201000CC268091E20084608093E20078948091E5
:10202000C1028823A1F01091E9001F709091EC008B
:10203000892F817090FD80E8182B1092E900809123
:10204000E80083FD0E94A0231F701093E90082E046
:1020500084BD93E095BD9AEF97BD80936E00A7E293
:10206000B1E027E331E0AD0161E070E0FA01819178
:10207000AF01E82FE295EF70F0E011A18F705B01E6
:1020800002C0AA0CBB1C8A95E2F7C5019A2D909557
:10209000912391A392A1892B82A32417350731F7AD
:1020A00047E351E06CE371E08A01EE24E394F12C04
:1020B000F80181918F01E82FE295EF70F0E0D1A057
:1020C0008F70570102C0AA0CBB1C8A95E2F7C501AC
:1020D0009A2D90959D2191A392A1892B82A360179F
:1020E000710731F701E010E0FA018191AF01E82FAB
:1020F000E295EF70F0E0F1A08F70580102C0AA0CD9
:10210000BB1C8A95E2F7C5019A2D90959F2191A35A
:1021100092A1892B82A36417750731F761E070E003
:102120008D91E82FE295EF70F0E041A18F706B0187
:1021300002C0CC0CDD1C8A95E2F7C6019C2D90955F
:10214000942391A392A1892B82A32A173B0741F7DD
:10215000EEEAF1E08EEB91E0A6ECB1E011921D9277
:102160008E179F07D9F780E090E00E949C308A3E4E
:102170009E4F11F00E94291E82E090E00E948E3056
:10218000809324020E94181E9093AD018093AC01AD
:1021900083E090E00E948E30682F70E080E090E055
:1021A0000E943C206091E7017091E8018091E90173
:1021B0009091EA010E94DC1A10920F0280E880934D
:1021C000CB020E94442F6DE070E085E394E00E9412
:1021D0004B23892B09F043C080910F0263E070E02C
:1021E00081FD3AC082E394E00E944B23892BB9F52C
:1021F0006DE070E082E294E00E944B23892B79F538
:102200000E94B01DDC01CB01805A9541AF4FBF4FFA
:102210008093110290931202A0931302B0931402C0
:10222000EEECF2E080E092E0DF018C011D920150C3
:102230001040E1F7F093D504E093D4048FEF9FEFC3
:102240009093CD028093CC0281E08093160280931C
:1022500015021092100203C08FE294E0C5CF809166
:10226000BE01811136C080E090E00E949C308A3E21
:102270009E4F21F00E94291E0E940E1788E090E0D8
:102280000E9496306093DC017093DD018093DE0143
:102290009093DF016E7F71F40E940E1788E090E04A
:1022A0000E9496306093DC017093DD018093DE0123
:1022B0009093DF010E9472161092E2018091DC017E
:1022C00080FF04C060E086950E94C01681E0809384
:1022D000BE0184988C9A85988D9A8FB18295817071
:1022E0007D9902C090E001C092E0892B8093E601C5
:1022F00082E494E09093C0018093BF0183E08093D7
:10230000060188E58093070185E58093080183E055
:102310000E94431B2FEF33EC49E0215030404040F6
:10232000E1F700C0000080E00E94431B80E191E0E3
:102330009093C2018093C10150E4652E8091C10247
:10234000853009F083C0FF24F39400E112E180910D
:10235000C102853009F05DC08091C102843009F46A
:1023600044C00E94FD2880E00E945E1B1092E201A2
:102370008091C501811116C0F092C5018091DC01E8
:10238000982F91709093C4018E7F8093DC018FEF22
:1023900090E7A2E081509040A040E1F700C000002B
:1023A0000E9485291092C301E8E1F0E00FB6F8948D
:1023B000A895E09360000FBE6092600083B7817FB4
:1023C000846083BF83B7816083BF7894889583B727
:1023D0008E7F83BF0FB6F894A895809160008861C6
:1023E00080936000109260000FBE8091C00288232D
:1023F00009F4ADCF0E94931BE6ECF1E081918111CD
:10240000C4C346EDA42E41E0B42EAE16BF06B1F70C
:102410009ECF0E947F220E94F1280E945E1B109294
:10242000C5018091C401882351F08091DC01816055
:102430008093DC0160E086950E94C01605C0809103
:10244000E30181110E9485290E943E2D0E94931B69
:10245000E82E81110E94B01DE5E2F2E0A6ECB1E0A9
:1024600000E010E0302F2D919191922721F180E032
:10247000FF24F3944F2D4923D1F08F8338872F21E8
:1024800081E009F480E089870E94BC1D8160782F7B
:102490009B878A874F81588569858B850E9427286D
:1024A000F801EB5DFD4F8081F826F08219C08F5F47
:1024B000FF0C8530F9F60F5F1F4F0031110591F6C3
:1024C0008FEF8C878D871E860E94BC1D8160782FC0
:1024D000988B8F874C855D856E8588890E9427281B
:1024E0008091E201882309F479C09091E101E091A3
:1024F000DC01E6958E2F891B8093D801923061F420
:10250000E82FF0E0ED5AFB4FE4910E2F10E033E19D
:10251000C32E38E2D32E3DC0963061F4E82FF0E0B0
:10252000E05BFB4FE4910E2F10E023E0C22E28E287
:10253000D22E2FC0993069F4E82FE695F0E0E35BE6
:10254000FB4FE4910E2F10E091ECC92E9BE2D92EA7
:1025500020C09F3089F09A31B1F463E00E94393194
:10256000E92FF0E0E65BFB4FE4910E2F10E08BE5E6
:10257000C82E8AE2D82E0DC008E210E0BEE2CB2EB3
:10258000BBE2DB2E06C000ED17E0A2E0CA2EA8E2F7
:10259000DA2E8091D901882361F01092D9010E942E
:1025A000BC1D9093D7018093D6011092DB0110924D
:1025B000DA010E94BC1DE091D601F091D7018E1B7B
:1025C0009F0B8F3F9F4750F40E0F1F1F1093D70193
:1025D0000093D60186ED91E0F60109958091E60120
:1025E000E82FEE0FEE0FE093E6018FB184FB22247B
:1025F00020F8312C7D9903C080E090E002C082E099
:1026000090E0822993298E2B8093E6018F70E82F2A
:10261000F0E0E45CFE4F90818091E501890F8093AA
:10262000E5018230FCF08091E4018F5F8093E4014A
:102630006091E7017091E8018091E9019091EA01D0
:102640000E948C1A823031F0833031F480E00E9495
:10265000651605C08BEF01C08AEF0E949F22FF2400
:10266000F39401C0F12C8091E5018F3FF4F4809147
:10267000E40181508093E4016091E7017091E801E9
:102680008091E9019091EA010E948C1A823031F028
:10269000833031F480E00E94581605C08CEF01C0F1
:1026A00089EF0E949F22FF24F3948091E501082E78
:1026B000000C990B62E070E00E9459318093E501B3
:1026C000F1100E94B01D80911602882309F467C1A1
:1026D0008EEC92E09093D5048093D40489EB94E03F
:1026E0000E943D236091EB017091EC018091ED011E
:1026F0009091EE010E948C1A882329F0813039F4E0
:1027000084EA94E002C08EEA94E00E943D238DE9C1
:1027100094E00E943D236091E7017091E80180916F
:10272000E9019091EA010E948C1A823029F08330ED
:1027300041F480E994E002C088E994E00E943D23DE
:1027400007C089E894E00E943D2381E00E943D2972
:102750000E94F12881FD03C085E794E002C08FE765
:1027600094E00E943D230E94F12880FD03C085E68D
:1027700094E002C08DE694E00E943D230E94F1287F
:1027800082FD03C087E594E002C08EE594E00E94DC
:102790003D2380911602882309F4E6C02091CC02E3
:1027A0003091CD022115310509F4DEC0809110026F
:1027B0008111DAC0482E512CCC24C394D12C082E80
:1027C00002C0CC0CDD1C0A94E2F7A9014C215D216A
:1027D000452B11F48F5FEECF90910F029201E5E04F
:1027E000220F331FEA95E1F790FD12C08295880F02
:1027F000807680930B01220F232F221F330B3195FC
:1028000020930E01815E80930C0110920F0112C083
:1028100065E0369527956A95E1F7220F220F220F82
:1028200020930B0110920E01295F20930C0183E08D
:1028300080930F0124E630E047E050E069E071E06A
:1028400088E70E94D12F892B09F08EC080910F025A
:1028500080FD23C0C20155E0880F991F5A95E1F70A
:10286000AC0142535D4F04E610E020E230E060E44A
:1028700088E70E94F82F892B09F076C00E9417295B
:10288000C094D0948091CC029091CD02C822D922DC
:10289000D092CD02C092CC0267C080E2EFEEF1E0B0
:1028A000DF011D928A95E9F745E0440C551C4A95D5
:1028B000E1F7E0E5F1E0FA8BE98B6CE471E0A989DE
:1028C000BA898D91BA8BA98BFB019191BF01A201AD
:1028D000490F511D42535D4F90E081519E4FFC01C5
:1028E00037E0A32E9F01281B390B8824839401C055
:1028F000880C2A95EAF78A01912CD801BD908D01A8
:10290000B8202A2D29192770722E022E000C330BA5
:10291000BB2D01C0BB0F7A94EAF77B2E3195219530
:1029200031092770332701C0B6942A95EAF77B282E
:10293000B0807B287082939428E0B22E9B10DDCF6C
:10294000AA9431960FEFA012CDCF24E531E089890A
:102950009A892817390709F0B2CF04E610E020E27F
:1029600030E04FEE51E083CF809115028823B9F01B
:102970000E94B01D009111021091120220911302C9
:1029800030911402DC01CB01801B910BA20BB30B25
:102990008F3F9F4FAF4FBF4710F40E94FD28E110BB
:1029A00001C0F1100E94172986E0EDE1F2E0DE019E
:1029B000119601900D928A95E1F7E0901F02F09038
:1029C0002002009121021091220210921F02109207
:1029D00020021092210210922202E11003C0FF2077
:1029E00009F451C080911B0290911C020E94A11D0C
:1029F0009C0190911A02992309F4DDC0233331051B
:102A000008F441C09F3F19F09F5F90931A02EE2097
:102A100061F00E9469181E1414F09FEF01C091E04C
:102A2000899F802D112480931F02FF2061F00E9456
:102A300069181F1414F09FEF01C091E0899F802D49
:102A400011248093200230911F023323E1F0209162
:102A500020022223C1F045EB3403C0011124992345
:102A600019F090931F0203C081E080931F0235EBA1
:102A70002303C0011124992319F09093200203C06D
:102A800081E080932002011103C0112309F451C099
:102A900080911802909119020E94A11D9C019091B1
:102AA0001702992309F48CC02536310508F441C07A
:102AB0009F3F19F09F5F90931702002361F00E94DF
:102AC0004718101614F09FEF01C091E0899F802DE8
:102AD000112480932102112361F00E9447181116DE
:102AE00014F09FEF01C091E0899F802D1124809305
:102AF0002202309121023323E1F02091220222238D
:102B0000C1F045EB3403C0011124992319F09093CF
:102B1000210203C081E08093210235EB2303C00131
:102B20001124992319F09093220203C081E080932D
:102B3000220280911F0281110BC08091200281111D
:102B400007C080912102811103C08091220281116E
:102B50000E94691BEB82FC820D831E8386E0FE01CE
:102B60003196ADE1B2E001900D928A95E1F70E94B5
:102B7000F12890912302891709F4E0CB0E94F128F3
:102B8000809323020E945E1BD9CB09BD19BD09B4F5
:102B900000FEFDCF8091D8008F7D8093D80080917A
:102BA000E00082608093E0008091E00081FDFCCF36
:102BB0000E947F22CCCB2D32314008F025CF63CF4D
:102BC0002D32314008F076CFB4CF9091AC0192FF16
:102BD0000DC0282F2871283019F4877F846006C023
:102BE000282F2471243011F48B7F886093FF0DC04F
:102BF000282F2871283119F4877E846106C0282F78
:102C00002471243111F48B7E88612091AD0120FF65
:102C10000DC0382F3871383019F4877F816006C0B5
:102C2000382F3171313011F48E7F886021FF0DC053
:102C3000282F2871283119F4877E816106C0282F3A
:102C40002171213111F48E7E886194FD877E089573
:102C5000ECEDF1E0438128E0421B08F440E021E084
:102C6000628181810C943A2CECEDF1E0438128E003
:102C7000420F08F44FEF21E0628181810C943A2CDD
:102C8000ECEDF1E0628120E2621B08F460E021E0FB
:102C9000438181810C943A2CECEDF1E0628120E2D9
:102CA000620F08F46FEF21E0438181810C943A2C8C
:102CB000ECEDF1E09181282F438162818CEF890F47
:102CC0000C943A2C81E00C945816ECEDF1E09181D3
:102CD000282F4381628184E0890F0C943A2C81E093
:102CE0000C9465168091DC01282F269530E0211583
:102CF000310519F48170826005C02032310524F05D
:102D000081708E638093DC018091DF0187FF03C0B7
:102D10008FE78093DF010895CF92DF92EF92FF92C9
:102D20006B017C010E947216B701A60188E090E059
:102D3000FF90EF90DF90CF900C94B4308091E00141
:102D4000882319F081508093E0016091DC0170913B
:102D5000DD018091DE019091DF010C948C16809151
:102D6000E001833018F48F5F8093E0016091DC0113
:102D70007091DD018091DE019091DF010C948C1641
:102D80009091DC0190FF36C09170811102C0926079
:102D900006C0803210F09E6302C0880F982B90937B
:102DA000DC01662351F06091DC017091DD018091BE
:102DB000DE019091DF010E948C166091DC01669526
:102DC00070E04BE050E08BE191E00E948231892B72
:102DD00019F01092E20102C00E943E2D81E0809322
:102DE000D90120E04091DF016091DE018091DD0199
:102DF0000C943A2C08958091DC018695815009F459
:102E00008FE161E00C94C0168091DC0186958F5FA4
:102E1000803208F081E061E00C94C016ECEDF1E046
:102E200083E0808311828FEF82838FE78383148214
:102E300060817181828193810C948C16AF92BF92D4
:102E4000CF92DF92EF92FF920F931F93CF93DF9376
:102E5000E82EF62EE90147FD4FE7E42FF0E0F110F0
:102E600006C0E054FB4FE4914E2F2E2F71C00F2D62
:102E700010E0E054FB4F4491F42FC42ED12C26E0F7
:102E8000E29EC00111242FEF30E0B9010E944531CC
:102E90005BEA5603C001579F900D11248E0D911DC2
:102EA0008E0D911D582F550F580FD901A01BB10B36
:102EB000AC9DC001AD9D900DBC9D900D1124E92FDE
:102EC000F59ED0011124AB2FBB277901EA1AFB0A2A
:102ED000EC9CD001ED9CB00DFC9CB00D112459016F
:102EE000A51AB108A09E7001A19EF00CB09EF00C36
:102EF0001124EF2CFF242E193F092C9D80012D9DBC
:102F0000100D3C9D100D1124212F6230710591F0A0
:102F100048F461157105E1F061307105B9F4242FB1
:102F20004B2F16C06430710569F040F066307105B2
:102F300079F00CC0242F492FE12F0AC0492FEF2F21
:102F40002B2F06C0292FE42F412F02C0292FEB2F52
:102F500049832883EA83DF91CF911F910F91FF90DE
:102F6000EF90DF90CF90BF90AF900895CF93DF9315
:102F700000D01F92CDB7DEB79091DC0190FF0AC060
:102F80009E012F5F3F4F0E941E174B8169818A81EE
:102F90000E941F2C0F900F900F90DF91CF910895FA
:102FA0008D3E39F49091200297FF35C01092200297
:102FB00059C08E3E29F4909120021916BCF32BC003
:102FC00090911F028F3E29F497FF25C010921F0297
:102FD00049C0803F19F41916CCF31DC0909121020D
:102FE000893F29F41916BCF4109221023BC08A3F94
:102FF00019F497FF10C0F8CF8B3F39F4909122025B
:1030000097FF09C0109222022DC08C3F21F49091AD
:1030100022021916BCF39FE0980F983080F421E04B
:1030200030E0A90102C0440F551F9A95E2F7CA018A
:10303000809590911E02892380931E0213C08D3FBC
:1030400021F4809140028E7F0BC08E3F21F480914D
:1030500040028D7F05C08F3F29F4809140028B7F15
:103060008093400280911F02811106C0809120024E
:10307000811102C010921A0280912102811106C0B2
:1030800080912202811102C010921702089580914E
:10309000400280FD16C081FD16C082FD18C08091DF
:1030A0001702882391F0883290F428E0829FC001B3
:1030B000112468E270E00E945931862F672B29F0B5
:1030C00007C082E0089584E0089581E0089588E0D3
:1030D00008958091400280FD14C081FD14C082FDDE
:1030E00016C080911A02882381F0843180F422E393
:1030F000829FC001112464E170E00E945931862F43
:1031000008958CE0089589E1089585E0089582E3AB
:1031100008958D3E21F40E946918819504C08E3E69
:1031200029F40E9469188093200208958F3E21F4AB
:103130000E946918819504C0803F29F40E94691893
:1031400080931F020895893F19F40E94471805C013
:103150008A3F31F40E944718819580932102089597
:103160008B3F21F40E944718819504C08C3F29F4BD
:103170000E9447188093220208959FE0980F98308C
:1031800078F421E030E0A90102C0440F551F9A9560
:10319000E2F7CA0190911E02892B80931E020895C6
:1031A0008D3F21F48091400281600BC08E3F21F45D
:1031B00080914002826005C08F3F29F480914002D7
:1031C0008460809340020895CF93DF9320E5829F2F
:1031D000C0011124FC0145E0749FE00DF11D112494
:1031E000E60FF11DEE0FFF1FEA5EFE4FC591D49171
:1031F000CE01C238D10569F1B0F4C133D10509F46B
:1032000075C048F4C932D10509F469C0CA32D10584
:1032100009F473C085C0C533D10509F459C0C93359
:10322000D105B9F07DC0C33ED10571F138F4C03E7F
:10323000D105B1F0C23ED10511F172C0C63ED10533
:10324000B9F1C73ED105C9F1C43ED10509F068C046
:1032500024C02091AC0120FD5DC021FD5BC060C099
:103260002091AC0120FD50C02091AD0120FF51C143
:103270008091AC0184FD4BC183EE90E04AC1209166
:10328000AC0122FF46C1F4CF8091AC0182FD3FC06A
:103290008091AD0180FD3EC0EBCF2091AD0121FFBB
:1032A00038C18091AC0184FD32C187EE90E031C11C
:1032B0002091AC0123FF2DC1F4CF8091AC0183FD9F
:1032C0002CC08091AD0181FFECCF84EE90E021C154
:1032D0002091AC0125FF1DC189E290E01AC1209127
:1032E000AC0125FF16C185E390E013C12091AC012C
:1032F00026FF0FC18AE290E00CC12091AC0126FFAD
:1033000008C181E390E005C189E390E002C182EE4B
:1033100090E0FFC080EE90E0FCC086EE90E0F9C047
:10332000C11551E5D50708F06CC0C11520E5D207DD
:10333000F0F0CE01F4E096958795FA95E1F7282F05
:1033400023703C2F337081E090E002C0880F991FFA
:103350003A95E2F79C68922B2C2F2F702695269594
:1033600050E2259F90011124822B932BD2C0C83E9E
:10337000D10570F5C03ED10508F0CBC0C83AD105E3
:10338000B8F4C53AD10550F02C2F255AC22FD0E001
:10339000CC58DE4F888190E09064BBC0C130D1052D
:1033A00009F4B7C008F4B3C0249708F4B0C0B1C0A2
:1033B000CF3BD10508F0ABC02C2F285AC22FD0E04C
:1033C000CC0FDD1FC958DE4F888199819464A1C05C
:1033D000C11540E2D40760F4C11551E0D50708F0EB
:1033E00098C0CD3ED10508F492C0CE01906591C041
:1033F000C11580E4D80708F48AC0CE019F70906A96
:1034000088C0C11525E5D20708F040C0C11544E5C4
:10341000D40728F09C2F8827846F906A7AC0C11542
:1034200053E5D507A8F09E012370332781E090E093
:1034300002C0880F991F2A95E2F72C2F2695269512
:1034400050E2259F90011124822B932B9A6861C032
:10345000C11582E5D80728F49C2F8827816F906AD0
:1034600058C09E012370332781E090E002C0880F8E
:10347000991F2A95E2F72C2F2695269540E2249F46
:1034800090011124822B932B9C6843C0C11529E520
:10349000D207B0F4C11548E5D40728F09C2F88273F
:1034A000806F906A36C0C11556E5D50780F58C2F20
:1034B0000E94E5158F7190E0982F8827906229C0AF
:1034C000C1158AE5D80790F48C2F8F700E94E515FE
:1034D0009E0194E0369527959A95E1F72F7030E09C
:1034E000322F22273069A901482B0FC0CE019056F8
:1034F0008115904260F48D2F8F710E94E5159E0119
:10350000332730628F71A901582BCA0102C080E0B5
:1035100090E0DF91CF910895CF92DF92EF92FF92EA
:103520006C01EE24FF24C114D104E104F10421F064
:10353000C701B60120E101C020E0C72ED82EE92E38
:10354000FF24C114D104E104F10419F0285FC7017C
:10355000B6016B017C0154E0F694E794D794C794CC
:103560005A95D1F7C114D104E104F10419F02C5F8C
:10357000C701B6016B017C0142E0F694E794D79451
:10358000C7944A95D1F7C114D104E104F10419F0AC
:103590002E5FC701B601DC01CB01B695A7959795C3
:1035A0008795892B8A2B8B2B09F02F5F822FFF9019
:1035B000EF90DF90CF900895CF92DF92EF92FF923D
:1035C0006B017C01611571058105910561F0DC01DC
:1035D000CB0132E0B695A795979587953A95D1F7A7
:1035E000682F617001C060E081E00E94FC2BC11473
:1035F000D104E104F10461F0D701C60123E0B695DE
:10360000A795979587952A95D1F7682F617001C086
:1036100060E082E00E94FC2B6091EB017091EC0174
:103620008091ED019091EE010E948C1A882341F067
:10363000813031F42CED34E040E36FEF89EA05C0CE
:103640002CED34E040E16FEF85E50E941E17C701C5
:10365000B6010E948C1A823041F0833069F42CED5F
:1036600034E040E660E884E905C02CED34E040E653
:103670006FEF85E50E941E17C701B601FF90EF901E
:10368000DF90CF900895CF93C82F26ED34E081FFCF
:1036900002C040E801C040E16FEF80E00E941E17C9
:1036A00029ED34E0C0FF02C040E601C040E16FEF09
:1036B00080E20E941E17CF910C948529CF93C82FCA
:1036C0000E94431BC1FB662760F980E0CF910C94F8
:1036D000FC2B0E94BC1D20911F02211104C02091CF
:1036E0002002222321F090931C0280931B02209140
:1036F0002102211104C020912202222321F0909363
:10370000190280931802E091C101F091C201309733
:1037100049F082E080931D020480F581E02D8DE167
:1037200092E0099408952F923F924F925F926F9288
:103730007F928F929F92AF92BF92CF92DF92EF9241
:10374000FF920F931F93CF93DF9300D000D000D050
:10375000CDB7DEB72EEA822E21E0922E36EBE32E95
:1037600031E0F32ED40127E231E03A832983B12CF2
:1037700061E070E06D016C901C92E981FA818191A9
:10378000FA83E983E82FE295EF702E2F30E03C8337
:103790002B83F90121A18F70AB0102C0440F551F8B
:1037A0008A95E2F7CA01242B21A322A1A42EA0947A
:1037B0002A2122A350EA5A95F1F797E3292E91E0A6
:1037C000392E810140E050E0F80171908F01272DE2
:1037D00022952F7030E0F90120A15C9030E0F72DA8
:1037E000FF7002C035952795FA95E2F720FD07C0D6
:1037F000262F042E01C0220F0A94EAF701C020E010
:10380000522A5C924F5F5F4F45305105E9F6EB81DC
:10381000FC8191A1A922A1A292A1892B82A3119638
:1038200081E0F6019081961101C080E0B82AEA1685
:10383000FB0609F09FCF40E050E061E070E08EEBC6
:10384000482E81E0582ED1018D911D01E82FE2957F
:10385000EF70F0E021A18F70DB0102C0AA0FBB1F47
:103860008A95E2F7CD012A2B21A322A1FA2EF0940A
:103870002F2122A3B0EABA95F1F79B01042E01C0D3
:10388000220F0A94EAF7A22EE22EE0940EEB11E04A
:1038900026EB31E03E832D83A7E2B1E0BC83AB830E
:1038A000C12C2D813E813A832983D901DC90AB81E3
:1038B000BC817D90BC83AB83272D22952F7030E097
:1038C000D90190962C9130E0B72DBF7002C035958C
:1038D0002795BA95E2F720FD03C02D2D2A2902C0B5
:1038E0002D2D2E21AD81BE812C932D813E812F5F08
:1038F0003F4F3E832D83A981BA812C91D21611F0BE
:10390000CC24C3942D813E814216530651F691A1D9
:10391000F922F1A292A1892B82A3BC284F5F5F4FAD
:103920004530510509F08FCFBB2049F081E08093ED
:1039300037020E94BC1D909336028093350280911D
:103940003702882399F080913502909136020E94C7
:10395000A11D069758F0E6ECF1E0D4018D914D01E0
:1039600081930A171B07C9F7109237028B2D2696F1
:103970000FB6F894DEBF0FBECDBFDF91CF911F9180
:103980000F91FF90EF90DF90CF90BF90AF909F90FE
:103990008F907F906F905F904F903F902F90089501
:1039A0008091B602089580E0089520917802909168
:1039B000470256E02917A9F030E0529FF001539FCB
:1039C000F00D1124E85BFD4F7181761306C0708104
:1039D000781303C07281741306C02F5F3F4F2770A6
:1039E000E9CF80E0089581E00895CF93DF9300D080
:1039F0001F92CDB7DEB79091C102943019F589833B
:103A00007B836A8382E08093E9008FEF9091E800E6
:103A1000815095FD06C095ED9A95F1F70000811152
:103A2000F5CF8091E80085FF0DC040E050E063E0F5
:103A300070E0CE0101960E9474238091E8008E7799
:103A40008093E8000F900F900F90DF91CF91089531
:103A5000BC0184E00C94F51CBC0183E00C94F51CC3
:103A600022E02093E9002FEF3091E800215035FD4E
:103A700006C035ED3A95F1F700002111F5CF209100
:103A8000E80025FF0BC040E050E066E070E00E94D7
:103A900074238091E8008E778093E8000895CF9397
:103AA000DF9321E02093E9002FEF3091E8002150CF
:103AB00035FD06C035ED3A95F1F700002111F5CF3F
:103AC0002091E80025FF14C0EC0140E050E068E0E0
:103AD00070E00E9474238091E8008E778093E80064
:103AE00088E0FE01A7EBB2E001900D928A95E1F724
:103AF000DF91CF91089578941F920F920FB60F9295
:103B000011248F939F93AF93BF938091B0029091B4
:103B1000B102A091B202B091B3020196A11DB11DF4
:103B20008093B0029093B102A093B202B093B3021B
:103B3000BF91AF919F918F910F900FBE0F901F90EB
:103B400018959C014FB7F8948091B0029091B10202
:103B5000A091B202B091B3024FBF821B930B0895A4
:103B60002FB7F8946091B0027091B1028091B202C7
:103B70009091B3022FBF08952FB7F8948091B002AF
:103B80009091B102A091B202B091B3022FBF0895FB
:103B90001F920F920FB60F9211248F939F93AF93A2
:103BA000BF938091C301811113C08091B0029091A5
:103BB000B102A091B202B091B3024196A11DB11D14
:103BC0008093B0029093B102A093B202B093B3027B
:103BD000BF91AF919F918F910F900FBE0F901F904B
:103BE00018959C012A5F3F4FFC014281461301C09A
:103BF0001282019682179307B9F708959C01FC0180
:103C000032969FEF80E04191461789F09F3F19F46B
:103C1000411101C0982F8F5F8630A9F79F3F39F07F
:103C2000F901E90FF11D97FDFA9562830895089552
:103C3000CF9384E090E00E948E30C82F82E290E023
:103C40000E948E302C2F30E0A901582BCA01CF9151
:103C500008956AEE7EEF80E090E00E94C03060E060
:103C600082E090E00E94A23060E083E090E00E9459
:103C7000A2301092EB011092EC011092ED01109223
:103C8000EE0160E084E090E00E94A23060E082E219
:103C900090E00E94A23060E085E090E00E94A230B7
:103CA00060E086E090E00E94A2306FEF87E090E055
:103CB0000E94A23040E050E0BA0188E090E00E940B
:103CC000B43060E08DE090E00E94A23040E050E02F
:103CD000BA0188E190E00E94B43060E087E190E0B2
:103CE0000E94A23040E050E0BA018CE190E00E94D6
:103CF000B43060E070E080E290E00E94C03040E0CC
:103D000050E0BA0188E190E00E94B43040E050E019
:103D1000BA018FE090E00E94B43040E050E0BA0178
:103D200083E190E00C94B4308091AF028111109245
:103D3000AF0208959091AE028091AD02892B20913F
:103D4000AC02982F922B909338028091AF02882377
:103D500089F0892B80933802EAE3F2E097E080E073
:103D6000915029F021912223D9F38F5FF9CF81114E
:103D70000E94941EE091C101F091C201309731F090
:103D80000280F381E02D88E392E00994089580E0B9
:103D900090E00E94DB2880E090E00E94C52810920D
:103DA000AD021092AC020E949A1EEDE1F2E086E0B4
:103DB000DF011D928A95E9F710921A0210921702FC
:103DC000109240020C94691BCF93C091AD01C2FBCD
:103DD000992790F9981781F080FBC2F9C093AD0143
:103DE0006091AC0184E090E00E94A2306C2F82E2EE
:103DF00090E0CF910C94A230CF910895BF92CF92D2
:103E0000DF92EF92FF920F931F93CF93DF938C017A
:103E1000C090E701D090E801E090E901F090EA015C
:103E20008091EB019091EC01A091ED01B091EE0138
:103E3000C82AD92AEA2AFB2ACFE1D0E0D701C60155
:103E40000C2E04C0B695A795979587950A94D2F73E
:103E500080FD04C0219790F7B12C07C0BC2EB8019B
:103E60008C2F0E94E4180197A9F38B2DDF91CF913D
:103E70001F910F91FF90EF90DF90CF90BF9008952A
:103E8000CF93DF93EC010E94FE1EBE010E94E41856
:103E9000DF91CF9108950E94401F292F2F70E92FA5
:103EA000E295EF704E2F50E0FA013297EE30F105B7
:103EB000B8F4ED58FF4F0C946D31803F99F018F431
:103EC000883E70F40FC0843F59F40CC0883E50F017
:103ED000813F31F407C0822F869586958695089597
:103EE00080E0089581E0089524E0929F900D1124D0
:103EF000890F682F669566956695982F977085E06F
:103F0000689FB001112440E050E080E0FB01E40F25
:103F1000F51FE758FD4F208130E0092E02C036958D
:103F200027950A94E2F721703327042E01C0220F4F
:103F30000A94EAF7822B4F5F5F4F4530510531F706
:103F4000089524E0929F900D1124890FE82FE695A3
:103F5000E695E695877051E001C0550F8A95EAF71E
:103F600085E0E89FF0011124E758FD4F20E030E0A4
:103F700070E04081CB01022E02C0969587950A948D
:103F8000E2F78170819584278523842781932F5FB1
:103F90003F4F2530310569F708950E94DC1A609380
:103FA000E7017093E8018093E9019093EA010C9492
:103FB000C71E0F931F9341E050E060E070E004C023
:103FC000440F551F661F771F8A95D2F7409550956D
:103FD000609570958091E7019091E801A091E901C9
:103FE000B091EA018A019B01082319232A233B236C
:103FF000C901B8011F910F910C94CD1F2091AB0204
:10400000809582238093AB02982F977041F430E023
:10401000482F082E000C550B2417350721F49091DA
:10402000AD0192FF07C08595859585950E94D91FA2
:104030001092AB0208950F931F9341E050E060E0AF
:1040400070E004C0440F551F661F771F8A95D2F792
:104050008091E7019091E801A091E901B091EA0116
:104060008A019B01082B192B2A2B3B2BC901B80174
:104070001F910F910C94CD1F6093EB017093EC0195
:104080008093ED019093EE010C94C71E809178020D
:1040900090914702891719F08F5F8770FBCF0895C1
:1040A0000F931F93CF93DF938091460282958F7079
:1040B00009F05DC080914302882309F458C08091C3
:1040C0007802109147026091410270914202C091C2
:1040D0004402D091450291E06F3F09F090E0292F12
:1040E00006E0811709F443C0209721F07F3F21F0BB
:1040F00030E003C031E001C0322F90E030FD34C029
:10410000089FF001099FF00D1124DF01A85BBD4F4E
:1041100011963C911197371327C03C91361324C058
:1041200012963C91129731111FC013964D915C91DC
:1041300014974C1B5D0B46395105B0F48091460233
:104140008F70806180934602E35BFD4F80818F70AA
:104150008061808381E492E00E94E806DF91CF9144
:104160001F910F910C94462001968770BACFDF9172
:10417000CF911F910F9108958F929F92AF92BF920E
:10418000CF92DF92EF92FF920F931F93CF93DF9323
:10419000CDB7DEB761970FB6F894DEBF0FBECDBFC7
:1041A0008C0185E0F801DE011D9601900D928A9543
:1041B000E1F7D801DC901196EC9011971296CC9013
:1041C0009091410220914202409144025091450257
:1041D0004115510531F02F3F31F481E09F3F19F433
:1041E00003C081E001C080E080FD58C1F801A380D8
:1041F000B48081E4882E82E0982EF0904302B501CD
:10420000641B750BFF2009F403C180914602382F0F
:10421000307F6639710508F0CDC0311188C02E118C
:1042200012C09D1110C0FC2CC1100DC08F70806198
:1042300080934602C4010E94E80680914602D8019C
:1042400015968C9348C1A114B10439F0BFEFEB125D
:1042500006C081E0DB1203C003C081E001C080E042
:1042600080FD03C081E08C2502C080E090E080FFEB
:1042700010C04C2D6E2D8D2D0E94D51C882349F029
:1042800081E492E00E94E806E1E4F2E086E0DF01EA
:1042900099C0AB2839F0BFEFEB1206C081E0DB120A
:1042A00003C003C081E001C080E080FD03C081E065
:1042B0008C2502C080E090E0E82FE170BE2E80FFE8
:1042C0002CC04C2D6E2D8D2D0E94D51CF82E8111E9
:1042D00024C0DD86EE868D859E850E94401F292F95
:1042E00022952F70223018F0243090F405C09F7072
:1042F00059F0811109C0EFC09F7031F0D8011596B7
:104300009C91907F09F4E7C0805E883008F4E3C098
:10431000C8010E94E806FB2CDEC0FC2CCC2009F46E
:10432000DAC0809146028160809346024EC02E1111
:1043300006C09D1104C0C11002C0F8018BC0DD860B
:10434000EE868D859E850E944B1F882369F1CC20C7
:1043500059F120914602822F82958F7090E002974A
:1043600074F0809141029091420298878F83198660
:10437000BB86AA862C87CE0107960E94E80686E0B7
:10438000F801A1E4B2E001900D928A95E1F70E9454
:1043900050200DC02E15D9F0DD86EE868D859E85C8
:1043A0000E944B1F81111DC0C8010E94E806FF2416
:1043B000F39491C03111EECF81E492E00E94E806BF
:1043C00086E0D4011D928A95E9F7F12C84C09D11F5
:1043D000E3CFC110E1CFF8018583C8010E94E80650
:1043E00057C0CC2009F320914602822F82958F700E
:1043F00090E0029724F280914102909142029A83C8
:1044000089831B82BD82AC822E83CE010196B5CFFB
:1044100066397105E8F5FC2CCC2031F22E1127C04D
:104420009D1125C02091460220FD18C0822F829543
:104430008F70482F50E04115510581F0F801258318
:104440004F30510541F08F5F982F9295907F822FCA
:104450008F70892B8583C8010E94E80686E0F801E9
:10446000A1E4B2E001900D928A95E1F734C0DD86B7
:10447000EE868D859E850E944B1F811180CF809195
:104480004602816080934602C8010E94E80623C06C
:1044900086E0D4011D928A95E9F71DC0CC2009F46D
:1044A00083CFDD86EE868D859E850E944B1FF82E7C
:1044B000882309F479CF86E0F801A1E4B2E0019005
:1044C0000D928A95E1F780914102909142020E94FB
:1044D000401F0E9450208F2D61960FB6F894DEBFCA
:1044E0000FBECDBFDF91CF911F910F91FF90EF9045
:1044F000DF90CF90BF90AF909F908F9008951092D3
:10450000AE0286E0EAE3F2E0DF011D928A95E9F768
:104510000C94C71E882341F080959091AE028923A8
:104520008093AE020C949A1E0895882339F09091DE
:10453000AE02892B8093AE020C949A1E08951F93AD
:10454000CF93DF93182F893319F0C0E0D0E002C079
:10455000C0E5D0E0812F0E94BB2D209741F08FE96C
:104560009FE00197F1F700C000002197F6CF812F5F
:10457000DF91CF911F910C94542DCF93DF938A300C
:1045800011F481E003C08D3029F480E0DF91CF91F8
:104590000C943D29682F8091D4049091D50426E095
:1045A000FC01AEECB4E001900D922A95E1F7603E7B
:1045B00030F026E0FC0111922A95E9F70AC0F6E0F6
:1045C0006F9FB00111246C50794F46E050E00E947B
:1045D0008530C091D404D091D50446E050E0BE01AE
:1045E0008EEC94E00E948F31892B49F19E012E5C64
:1045F0003240A90185E0569547958A95E1F781E01B
:1046000090E0BC0102C0660F771F4A95E2F7409127
:10461000CC025091CD02462B572B2B5F3F4F65E0CC
:10462000369527956A95E1F702C0880F991F2A955C
:10463000E2F7842B952B9093CD028093CC029E01C0
:10464000285C32404091CB02642F70E0C9010E9487
:104650004531481B463010F4240F311D211582E0EE
:10466000380710F020E030E022533D4F3093D5045E
:104670002093D404DF91CF910895CF93DF93EC0181
:10468000FE018491882321F00E94BD222196F8CF5B
:10469000DF91CF910895EF92FF920F931F93CF93E5
:1046A000DF93EC017B0164E670E088E70E944A2F0B
:1046B0008C01EC0EFD1ECE15DF0561F017FD0AC062
:1046C000FE01849164E670E00E94A12F8C01219686
:1046D000892B89F30E942530C801DF91CF911F916A
:1046E0000F91FF90EF900895EF92FF920F931F9319
:1046F000CF93DF937C018B010E945F2E811119C043
:10470000E70101151105A1F08091E80085FD0AC0BF
:104710008091E8008E778093E8000E945F2E8823C6
:1047200081F307C089918093F10001501109E9CF0D
:1047300080E0DF91CF911F910F91FF90EF9008954E
:104740001F93CF93DF93CDB7DEB7AA970FB6F89438
:10475000DEBF0FBECDBFE3ECF2E08091F1008193AC
:1047600022E0EB3CF207C9F78091C402833009F4E0
:1047700060C030F4813071F0823009F49AC0B1C069
:104780008A3009F486C08B3009F46BC0893009F097
:10479000A8C020C08091C302813A09F0A2C08091D4
:1047A000E800877F8093E8008091C7029091C8025B
:1047B000892B21F468E087EB92E003C060E080E0A1
:1047C00090E070E00E94E62E8091E8008B77809365
:1047D000E80087C08091C302813209F082C08091D5
:1047E000C7029091C802029708F07BC08091E80050
:1047F000877F8093E8008091E80082FD05C080916A
:10480000C1028111F8CF6DC02091F3008091F200B8
:1048100090E0922B029729F48091F1008B7F8130F8
:1048200021F48091F1008093B6028091E8008B77AB
:1048300054C08091C302813A09F053C08091C702ED
:104840009091C802892B09F04CC08091E800877FC5
:104850008093E8008091E80080FFFCCF80911A01EE
:1048600037C08091C3028132E1F58091C7029091F7
:10487000C802892BB1F58091E800877F8093E8001A
:104880000E94922E8091C50280931A010E947F227D
:1048900028C08091C302813221F58091E800877F92
:1048A0008093E8000E94922E8091C6028093B50208
:1048B00018C08091C302813AA1F48091E800877FFB
:1048C0008093E8008091E80080FFFCCF8091B502E2
:1048D0008093F1008091E8008E778093E8000E9439
:1048E000922E8091E80083FFCCC18091C302909109
:1048F000C402492F50E04A30510508F0C2C1FA0104
:10490000EF57FF4F0C946D31803821F0823809F059
:10491000B8C108C08091BF029091C002992389F06C
:1049200082600FC08091C7028F70873008F0A9C1E4
:104930008093E9008091EB0085FB882780F9109235
:10494000E9009091E800977F9093E8008093F10050
:104950001092F10065C1282F2D7F09F092C18823A4
:1049600019F0823061F08DC18091C502813009F06B
:1049700088C1933009F080E08093C0022EC08091FE
:10498000C50281112AC08091C7028F702FEF280FB6
:10499000263008F076C18093E9002091EB0020FFDB
:1049A0001CC0933021F48091EB00806214C0909180
:1049B000EB0090619093EB0021E030E0A90102C090
:1049C000440F551F8A95E2F74093EA001092EA00DF
:1049D0008091EB0088608093EB001092E900809159
:1049E000E800877F20C181114CC11091C5021F775B
:1049F0008091E3008078812B8093E3008091E80030
:104A0000877F8093E8000E94922E8091E80080FFCB
:104A1000FCCF8091E30080688093E300111102C015
:104A200082E001C083E08093C1022BC180588230B4
:104A300008F027C18091C5029091C6028C3D53E0D9
:104A4000950779F583E08A838AE289834FB7F894E2
:104A5000DE01139620E03EE051E2E32FF0E05093B8
:104A60005700E49120FF03C0E295EF703F5FEF70C5
:104A70008E2F90E0EA3010F0C79601C0C0968D935B
:104A80009D932F5F243149F74FBF8091E800877FC6
:104A90008093E8006AE270E0CE0101960E94E62E63
:104AA000AEC04091C7025091C802292F332723304E
:104AB0003105A9F068F42130310509F4F1C0223044
:104AC000310509F0DEC08BE390E0EBE7F6E044C08F
:104AD0002132310521F12232310571F1D2C09927FD
:104AE00081309105A1F058F0029709F0CAC0E8ECB6
:104AF000F6E0E4918E2F90E0E8ECF6E02AC0E0EFDB
:104B0000F6E0E4918E2F90E0E0EFF6E022C0EEEDCB
:104B1000F6E0E4918E2F90E0EEEDF6E01AC041153C
:104B2000510509F4C2C04130510509F0AAC089E01D
:104B300090E0E6EAF6E010C04115510509F4BAC06C
:104B40004130510509F09DC08BE790E0E0ECF5E0C5
:104B500003C0009709F495C02091E800277F2093B7
:104B6000E8002091C9023091CA028217930708F425
:104B70009C0140E02115310589F18091C102882313
:104B800009F43DC08530D9F18091E80083FD37C03C
:104B90008091E80082FD2FC08091E80080FFEACF7D
:104BA0004091F3008091F20090E0942B21153105A3
:104BB00059F08830910540F444914093F1003196CA
:104BC000215031090196F2CF41E0089709F040E009
:104BD0008091E8008E778093E800CCCF4111CDCF53
:104BE0000AC08091C102882351F0853041F0809144
:104BF000E80083FD04C08091E80082FFF2CF80913D
:104C0000E8008B778093E8003CC08038D1F5809134
:104C1000E800877F8093E8008091C2028093F100D2
:104C20008091E8008E778093E8000E94922E29C040
:104C3000811127C08091C5029091C60299270297E1
:104C400004F58091E800877F8093E8001091C50209
:104C50001093C2020E94922E111106C08091E300AF
:104C600087FD02C081E001C084E08093C10242E080
:104C700061EC81E00E94B12E42E261EC82E00E9490
:104C8000B12E8091E80083FF1AC08091E800877FF1
:104C90008093E8008091EB0080628093EB000FC06E
:104CA00082E190E0E6EBF6E057CF89E090E0EDE8B6
:104CB000F6E052CF80E490E0EBE3F6E04DCFAA9629
:104CC0000FB6F894DEBF0FBECDBFDF91CF911F911D
:104CD00008951F920F920FB60F9211242F933F93B6
:104CE0004F935F936F937F938F939F93AF93BF93F4
:104CF000CF93DF93EF93FF93C091E900CF70809142
:104D0000EC00D82FD17080FDD0E81092E90080919E
:104D1000F000877F8093F00078940E94A023109287
:104D2000E9008091F00088608093F000CD2BCF7077
:104D3000C093E900FF91EF91DF91CF91BF91AF91C7
:104D40009F918F917F916F915F914F913F912F91A3
:104D50000F900FBE0F901F901895E8EDF0E0808146
:104D60008E7F80831092E2001092DA001092E100B0
:104D7000A0EEB0E08C9181608C9380818F778083EE
:104D800019BCA7EDB0E08C918E7F8C9380818F7ED3
:104D900080831092B4020895CF92DF92EF92FF9237
:104DA0000F931F93CF93DF93C8EDD0E088818F7E60
:104DB0008883E7EDF0E080818160808384E082BFBA
:104DC00081E08093B40288818E7F888302EE10E0B8
:104DD000F80110821092DA0081EEC82ED12CF60173
:104DE000108288818F778883888180688883888112
:104DF0008F7D888319BC1092C1021092C20210925A
:104E0000C0021092BF0290EEE92EF12CF7018081D2
:104E10008B7F808388818160888342E060E080E0CE
:104E20000E94B12EF60180818E7F8083F8018081FF
:104E300081608083808188608083F70180818E7F9C
:104E40008083888180618883DF91CF911F910F914A
:104E5000FF90EF90DF90CF9008951F920F920FB6C2
:104E60000F9211242F933F934F935F936F937F93F0
:104E70008F939F93AF93BF93EF93FF938091E10044
:104E800082FF09C08091E20082FF05C08091E100AD
:104E90008B7F8093E1008091DA0080FF2AC08091AF
:104EA000D80080FF26C08091DA008E7F8093DA00E0
:104EB0008091D90080FF18C080E189BD82E189BD61
:104EC00009B400FEFDCF81E08093C1028091B4025D
:104ED00081110FC00E94AD260E94CC268091E20075
:104EE00084608093E20005C019BC1092C102109248
:104EF000B4028091E10080FF17C08091E20080FF42
:104F000013C08091E2008E7F8093E2008091E200E6
:104F100080618093E2008091D80080628093D80005
:104F200019BC85E08093C1028091E10084FF2EC00E
:104F30008091E20084FF2AC080E189BD82E189BDC1
:104F400009B400FEFDCF8091D8008F7D8093D800FA
:104F50008091E1008F7E8093E1008091E2008F7E5E
:104F60008093E2008091E20081608093E200809172
:104F7000C202882311F084E007C08091E30087FD1E
:104F800002C081E001C083E08093C1028091E10012
:104F900083FF27C08091E20083FF23C08091E1005E
:104FA000877F8093E10082E08093C1021092C20269
:104FB0008091E1008E7F8093E1008091E2008E7FFE
:104FC0008093E2008091E20080618093E20042E001
:104FD00060E080E00E94B12E8091F00088608093B4
:104FE000F000FF91EF91BF91AF919F918F917F91D1
:104FF0006F915F914F913F912F910F900FBE0F9046
:105000001F9018950895CF93DF93EC01ECEDF1E03C
:10501000438162818C810E94B6178C818F5F8C8363
:10502000DF91CF910895CF93DF93EC01EC81F0E015
:10503000E75CF34F4491ECEDF1E0628181810E94E5
:10504000B6178C818F5F8C83DF91CF9108951F936A
:10505000CF93DF93CDB7DEB767970FB6F894DEBF77
:105060000FBECDBF342F4B8B252F5C8B6D8B7E8B72
:105070008F8B4E895F8961111092AD0286E0FE012F
:105080003D96DF01982F1D929A95E9F73D872E876F
:105090006F87598B488BDE01179601900D928A9588
:1050A000E1F7CE0107960E94BC2081113EC086E048
:1050B000FE013796DE01119601900D928A95E1F777
:1050C000FF81E8856A857B856115710531F0EF3FC9
:1050D00031F481E0FF3F19F403C081E001C080E0BA
:1050E00080FD23C02091470230E0C90101968770FE
:1050F00099274091780250E08417950779F1F98358
:10510000EA837D836C8396E0929FD001939FB00DDC
:105110001124A85BBD4FFE01319601900D929A9526
:10512000E1F7809347020E94462016E080917802C2
:10513000909147028917F9F0189FC0011124885BEC
:105140009D4F0E94BC208823B1F08091780290E0AE
:1051500001968770992780937802E8CF0E947F227A
:105160001092470210927802E1E4F2E086E0DF015B
:105170001D928A95E9F767960FB6F894DEBF0FBEC9
:10518000CDBFDF91CF911F91089520919A07309163
:105190009B072817390771F090939B0780939A0714
:1051A000E091C101F091C201309721F00084F185B6
:1051B000E02D0994089520919807309199072817B8
:1051C000390771F09093990780939807E091C10196
:1051D000F091C201309721F00680F781E02D09940B
:1051E0000895E091C101F091C201309721F0019042
:1051F000F081E02D099480E008958091160290914D
:105200001502882389F0992369F062E070E08BE34E
:105210009DE00E944B23892B19F08091150208957F
:10522000109215029091150281E0892708958091CE
:1052300016028823F9F00E94B01DDC01CB01805AD0
:105240009541AF4FBF4F8093110290931202A093EC
:105250001302B09314028091150281110BC062E019
:1052600070E089E39DE00E944B23892B19F481E0D3
:1052700080931502809115020895CF93E82F209115
:10528000D4043091D5042E5C32404091CB02642F7F
:1052900070E0C9010E944531481B842FEE2351F074
:1052A00066E00E943931C82FC150A8F080E20E9408
:1052B000BD22FACFA901480F511D4115524018F0E7
:1052C00080E020E030E0280F311D22533D4F309325
:1052D000D5042093D404CF9108959091DC0190FFE0
:1052E00004C09695981740F003C0811105C090E066
:1052F000961710F40C94041761E00C94C0168823E0
:1053000011F0FA0101C0FB0109945F926F927F9244
:105310008F929F92AF92BF92CF92DF92EF92FF92C5
:105320000F931F93CF93DF9300D000D01F92CDB780
:10533000DEB7509005018091DC0180FF08C08090AD
:10534000BF019090C00181149104A9F42EC08091F6
:10535000060190910701891790F7E82FF0E09F016F
:10536000220F331FE20FF31FEA52FB4F118210820C
:1053700012828F5FF0CF8091C501811116C0A12CE0
:10538000B12C66246394712C2091E301C3010A2C93
:1053900001C0880F0A94EAF7822309F450C0F4018F
:1053A000C590D490C114D104C9F4E091040123E064
:1053B000E29FF0011124EA52FB4F539A8BB1877F91
:1053C0009BB198602FB7F894AF0133E0539E400D26
:1053D000511D112440C035E0C30ED11C45E050E002
:1053E000B601CE0101960E94853009810F3F39F147
:1053F00010E08A819801280F311DC9012935310536
:1054000014F088E590E07C01EE0CFF1C8E0D9F1DD2
:105410009C012A523B4F7901C801880F991F080F40
:10542000191F0A521B4F0E151F05A8F698014D8132
:105430006C818B810E941E170D5F1F4FF4CF82E09D
:10544000880E911C9FEFA91AB90A28E0A216B10490
:1054500009F09ACFAACF4E175F0789F0319168E023
:105460009BB9000000C037FF8BB9330F000000C0AC
:1054700000C000C08BB900C06A9591F7ECCF2FBF78
:105480008FE594E00197F1F700C000000F900F90B6
:105490000F900F900F90DF91CF911F910F91FF9080
:1054A000EF90DF90CF90BF90AF909F908F907F90C4
:1054B0006F905F9008957F928F929F92AF92BF926C
:1054C000CF92DF92EF92FF920F931F93CF93DF93D0
:1054D000FC018280748081E08483E9E3FCE09490A5
:1054E000E8EBFCE0E491A12CF5E0BF2ECC24CA94BB
:1054F000D12CE9190E2F10E080910801A81608F0B0
:105500009EC0EA2CF12C22E0281568F0BE9CF00128
:10551000BF9CF00D1124E252FA4F8091DD0180838F
:105520008091DE01818371100AC0BE9CF001BF9C96
:10553000F00D1124E252FA4F1382128266C0BE9C13
:10554000E001BF9CD00D1124C252DA4F8B81882319
:10555000F9F081508B832FEF829FC00111246C8161
:1055600070E00E944531FB01FF27E75CF34F849117
:10557000E82FE9192FEFE29FC0011124B8010E9422
:1055800045318091DF01689FB00111247A833DC0CD
:105590000E9475302091DF012695215830E0A90145
:1055A000440F551F322F2227240F351F232F332757
:1055B0008217930754F582E0881588F40E947530AD
:1055C000B6010E94593188830E9475302091DE0116
:1055D0002695622F70E00E945931280F2983BE9CC6
:1055E000F001BF9CF00D1124E252FA4F128280911B
:1055F000DF01843108F484E1BE9CF001BF9CF00D12
:105600001124E252FA4F848383838091060197012B
:10561000280F311DC901880F991F280F391F2A52E1
:105620003B4FBE9CF001BF9CF00D1124E252FA4F9B
:105630004281618180810E941E17A3945DCFDF911A
:10564000CF911F910F91FF90EF90DF90CF90BF907F
:10565000AF909F908F907F900C9485298F929F920E
:10566000AF92BF92CF92DF92EF92FF920F931F9370
:10567000CF93DF938C01FC014481C42FD0E09E01C5
:10568000DE010E942A319B01AC010E94F5306B01C2
:105690007C01E0E2F0E0EC1BFD0BA5E5B0E09B0136
:1056A000AC010E94F5304B015C019F01DF010E94BB
:1056B00073319B01AC010E9400319B01AC012C0DA8
:1056C0003D1D4E1D5F1DC501B4010E940831C22F52
:1056D000D22F2A3228F4F3E02F9F900111240DC01D
:1056E00025E530E02C1B3109C901880F991F280FCF
:1056F000391F37FF02C02F5F3F4F35952795C22FC7
:10570000C095F12C85E5E82EED1A80910801F81678
:10571000C8F4F0FC02C08E2D01C08D2F90910601BF
:105720002F2D30E0290F311DA901440F551F240FE3
:10573000351F2A523B4F4C2F6091DE010E941E17ED
:10574000F394E3CF0E948529F8018481811102C07E
:1057500091E003C0803219F49FEF9093260190915D
:105760002601890FF8018483DF91CF911F910F915A
:10577000FF90EF90DF90CF90BF90AF909F908F9071
:105780000895FF920F931F93CF93DF93EC01F12CB9
:105790000FE710E060910801F616F0F48091060121
:1057A0002F2D30E0280F311DC901880F991F280FB8
:1057B000391F2A523B4F70E0C8010E945931962F81
:1057C0008C814091DF016091DE01F99E800D1124F2
:1057D0000E941E17F394DECF0E9485299A818C8146
:1057E00090FF02C08F5F01C081508C83DF91CF9109
:1057F0001F910F91FF90089521E030E0A90102C0B0
:10580000440F551F8A95E2F7CA012091E3016623F0
:1058100011F0822B02C0809582238093E301809156
:10582000E201811106C08091DC0160E086950E9452
:10583000C0168091DC0180FF0C9485290895909119
:10584000DC0190FF16C0909106012091070192178C
:1058500070F4E92FF0E0DF01AA0FBB1FEA0FFB1F76
:10586000EA52FB4F8183608342839F5FF0CF0C94A9
:1058700085290895AF92BF92CF92DF92EF92FF9267
:105880000F931F93CF93DF9300D01F92CDB7DEB756
:10589000182FF62E042FE22E9091DC0190FF6DC0A0
:1058A000E92FE695AE2FB0E0AC5ABE4F8C918093B5
:1058B000E1019E7F923061F49E012F5F3F4F812F67
:1058C0000E941E174B8169818A810E941F2C43C050
:1058D000823019F40091DF013EC0863019F4109136
:1058E000DD0139C08930D9F38031A9F5E0518E2F1F
:1058F0008170D82EE695F0E0EC5CF34FA590B49063
:10590000C12CBB2460910801C61618F52C2D30E07F
:10591000A29EC001A39E900DB29E900D112470E036
:105920000E944531812FD11002C0860F01C0861B15
:1059300090910601290F311DA901440F551F240F15
:10594000351F2A523B4F402F6F2D0E941E17C394C4
:10595000D9CF0E9485291093DD01F092DE010093DA
:10596000DF01EE2051F06091DC017091DD0180914A
:10597000DE019091DF010E948C160F900F900F9026
:10598000DF91CF911F910F91FF90EF90DF90CF901B
:10599000BF90AF9008950F931F93CF93DF93C42FC1
:1059A000D22FFC0182818823C9F04093AA010E9472
:1059B000BC1D909397078093960780E28C0F8830E8
:1059C00008F057C0C77081E001C0880FCA95EAF798
:1059D000DF91CF911F910F910C9495228091AA0194
:1059E000481330C080919607909197070E94A11D9F
:1059F0008639910538F510E21D0FCD17B9F080E218
:105A00008C0F883040F4C77081E001C0880FCA95C0
:105A1000EAF70E948A22183028F581E09D2F9770BE
:105A200001C0880F9A95EAF70E949522802F0E9464
:105A30009F221830F0F4D77081E001C0880FDA950A
:105A4000EAF70AC080E28C0F883098F4C77081E0D2
:105A500001C0880FCA95EAF7DF91CF911F910F918E
:105A60000C948A22802FDF91CF911F910F910C947B
:105A70009F22DF91CF911F910F9108956091DC01DA
:105A8000669570E04BE050E08BE191E00E9482313E
:105A9000892B19F481E08093E2010E94BC1D909350
:105AA000D7018093D6010895882309F463C0823812
:105AB00069F40E94F12881FF5DC069E388E392E008
:105AC0000E94FE1D0E949A1E69E30EC0833891F465
:105AD0000E94F12880FF4EC063E588E392E00E94B7
