:100000000C94E0060C94FD060C94FD060C94FD0681
:100010000C94FD060C94FD060C94FD060C94FD0654
:100020000C94FD060C94FD060C943B200C947D1F53
:100030000C9410280C94FD060C94FD060C94FD06FF
:100040000C94FD060C94FD060C94FD060C94FD0624
:100050000C94FD060C94C3270C94FD060C94FD062D
:100060000C94FD060C94FD060C94FD060C94FD0604
:100070000C94FD060C94FD060C94FD060C94FD06F4
:100080000C94FD060C94FD060C94FD060C94FD06E4
:100090000C94FD060C94FD060C94FD060C94FD06D4
:1000A0000C94FD060C94FD060C94FD0648075107C0
:1000B0006007A007CE07FD072C085B088A08B9086F
:1000C000EB081A0949097809A409D6090B0AA70CF3
:1000D000A70CD90CD90C4E0D6A0D3D0F3D0FB10D7B
:1000E0008F0EA00EA00E9C1DC31D5B1FC31D5B1FAA
:1000F0000B1E2E1E5B1F1D1F301F09018466FFFF94
:1001000000000000220400FFFF290100FFFF370369
:1001100000FFFF2B0555FFFF3A0555FFFF4805552A
:10012000FFFF540555FFFFFF00000000090100FF1D
:10013000FFFF0000000000DA0281FFD9F1DB20A4FC
:10014000A62EAF00A0C000A1C800AED580A81FD3C6
:1001500000408D1420002C010401FA0000006432DC
:1001600014643214783C1E1E140A052D2D2D2D2DDD
:1001700020003C5343523E20002D2D2D2D2D2020BC
:10018000003C4E554D3E2020002D2D2D2D2D2D2097
:1001900020003C434150533E20200044564F5241E2
:1001A0004B0041444A5553540A00466E310A004CF4
:1001B000617965723A004A495328313039290A0079
:1001C000414E53493228313034290A00414E5349B7
:1001D00028313034290A004F5054494D41363135C9
:1001E000205265762E322E300A4D6F6465203A001B
:1001F00000010101010101010101020202020202EA
:1002000002020203030303030303030404040404BC
:100210000404050505050506060606060707070783
:100220000708080808090909090A0A0A0B0B0B0C38
:100230000C0C0D0D0D0E0E0E0F0F0F1010111111D5
:100240001212131314141515161617171818191956
:100250001A1A1B1B1C1D1D1E1E1F202021222223BB
:100260002424252626272829292A2B2C2D2D2E2FFC
:1002700030313232333435363738393A3B3C3D3E13
:100280003F404142434445464748494A4C4D4E4F02
:1002900050515354555658595A5B5D5E5F616264C4
:1002A000656668696B6C6D6F7072737577787A7B51
:1002B0007D7E8082838587888A8C8E8F91939596A8
:1002C000989A9C9EA0A2A3A5A7A9ABADAFB1B3B5C8
:1002D000B7BABCBEC0C2C4C6C9CBCDCFD1D4D6D8A4
:1002E000DBDDDFE2E4E7E9EBEEF0F3F5F8FAFDFF42
:1002F000FFAA7F554005010902A10185020901A15C
:1003000000050919012908150025019508750181C5
:10031000020501093009311581257F950275088193
:100320000609381581257F950175088106050C0A97
:1003300038021581257F950175088106C0C0050129
:100340000980A101850319012AB700150126B7000C
:10035000950175108100C0050C0901A101850419E2
:10036000012AA002150126A002950175108100C086
:1003700005010906A101050719E029E71500250176
:10038000950875018102950175088101050719001D
:1003900029FF150026FF009506750881000508193C
:1003A000012905950575019102950175039101C01B
:1003B00009023B00020100A0FA0904000001030148
:1003C00001000921110100012240000705810308F5
:1003D00000010904010001030000000921110100CE
:1003E00001227B00070582032000011201000200A8
:1003F000000008EDFE15060200010200011E034F79
:10040000005000540049004D0041003600310035D5
:100410000020005200650076003200000010034CFE
:100420000065006B00690070006F006E0000000442
:1004300003090407087F0807003E5B4F5B3E003E50
:100440006B4F6B3E001C3E7C3E1C00183C7E3C18F3
:10045000001C577D571C001C5E7F5E1C0000183C72
:10046000180000FFE7C3E7FF00001824180000FF92
:10047000E7DBE7FF0030483A060E002629792926F7
:1004800000407F05050700407F05253F005A3CE7F7
:100490003C5A007F3E1C1C0800081C1C3E7F0014B8
:1004A000227F2214005F5F005F5F0006097F017FEB
:1004B00000006689956A0060606060600094A2FF39
:1004C000A2940008047E04080010207E201000087A
:1004D000082A1C0800081C2A0808001E101010100A
:1004E000000C1E0C1E0C0030383E383000060E3E4C
:1004F0000E060000000000000000005F0000000089
:100500000700070000147F147F1400242A7F2A129A
:100510000023130864620036495620500000080783
:10052000030000001C224100000041221C00002AA0
:100530001C7F1C2A0008083E08080000807030005C
:10054000000808080808000000606000002010088B
:100550000402003E5149453E0000427F40000072C7
:1005600049494946002141494D33001814127F1072
:10057000002745454539003C4A4949310041211190
:10058000090700364949493600464949291E0000F5
:100590000014000000004034000000000814224154
:1005A000001414141414000041221408000201590C
:1005B0000906003E415D594E007C1211127C007FFD
:1005C00049494936003E41414122007F4141413E77
:1005D000007F49494941007F09090901003E414125
:1005E0005173007F0808087F0000417F4100002010
:1005F00040413F01007F08142241007F40404040BD
:10060000007F021C027F007F0408107F003E4141F2
:10061000413E007F09090906003E4151215E007FED
:10062000091929460026494949320003017F01037F
:10063000003F4040403F001F2040201F003F403807
:10064000403F00631408146300030478040300614E
:1006500059494D4300007F414141000204081020E8
:1006600000004141417F000402010204004040407B
:100670004040000003070800002054547840007FE9
:100680002844443800384444442800384444287FEF
:100690000038545454180000087E09020018A4A41D
:1006A0009C78007F080404780000447D400000200E
:1006B00040403D00007F102844000000417F400082
:1006C000007C04780478007C0804047800384444F2
:1006D000443800FC182424180018242418FC007C3A
:1006E000080404080048545454240004043F4424DB
:1006F000003C4040207C001C2040201C003C40303E
:10070000403C004428102844004C9090907C0044C9
:1007100064544C440000083641000000007700009B
:10072000000041360800000201020402003C2623BA
:10073000263C00000000000000404040F0F8F8FFB8
:1007400038FFF8F83FF8F8FF38FFF8F8F04040407D
:1007500000000000000080C0C0C0800000C0C08059
:1007600000000080C0C000C0C0000080C0C0000009
:10077000000000C0C0C0C0C000C0C0000000000039
:100780000000000000000000000000000000000069
:100790000000000000000000000000000000000059
:1007A0000000000000000000000000000000000049
:1007B0000000C0F0F8FC3E1E06010000007F414131
:1007C000417F007F4141417F000080C0E07E5B4F60
:1007D0005BFEC00000C000DCD7DEDEDED7DC00C080
:1007E0000000000000000000000000000000000009
:1007F000000000000000000000494949FFFFFFFF22
:10080000E0DFBFBF00BFBFDFE0FFFFFFFF49494997
:1008100000000000001F3F6060E0BF1F007F7F07F7
:100820001E381E077F7F007F7F0E1F3B7160000018
:100830000000007F7F0C0C0C007E7E007F7E030397
:10084000007F7E03037E7E03037F7E000F3E703CAD
:10085000063C703E0F00327B49493F7E007F7E039D
:1008600003001E3F69696F260000000000000000C1
:100870000000030F1F3F3C7870600000007F414183
:10088000417F007F4141417F00307B7F78302020D5
:1008900030787F3B0003000F7F0F0F0F7F0F0003A7
:1008A0000000000000000000000000000000000048
:1008B000000000000000000000010101070F0F7F91
:1008C0000F7F0F0F7E0F0F7F0F7F0F0F07010101AB
:1008D0000000000000000000000001010000000016
:1008E0000000000000000000000000000000000008
:1008F00000000000000000000000000000000000F8
:1009000000000000000000000000000000000000E7
:1009100000000000000000000000000000000000D7
:1009200000000000000000000000000000000000C7
:1009300000000000000000000000000000000000B7
:1009400000000000000000000000000000000000A7
:100950000000000000000000000000000000000097
:100960000000000000000000000000000000000087
:1009700000000029002B00E000E1000000E0001F63
:1009800000360012001400E2008B4321001300180F
:10099000000E00F300F10039002A00000028002CAE
:1009A00072FA0024000A000B0010004A00500026D2
:1009B000001500110019004D004F002F002D0038C8
:1009C0000031004C004E001E00340004003300E3F0
:1009D0000065002000370008000D002C43F90022BC
:1009E000001C000C001B000000F20023000900079F
:1009F000000500E6008A712500060017001A005263
:100A000000510027000F0016001D0049002871301A
:100A1000002E004644E5002A004B0029002B00E090
:100A200000E1000000E0001F00360012001400E2A8
:100A3000008B432100130018000E000100F2003962
:100A4000002A00000028002C72FA0024000A000B83
:100A50000010004A00500026001500110019004D3A
:100A6000004F002F002D00380031004C004E001EBA
:100A700000340004003300E3006500200037000864
:100A8000000D002C43F90022001C000C001B00008C
:100A900000F1002300090007000500E6008A712527
:100AA00000060017001A005200510027000F001620
:100AB000001D004900287130002E004644E5002A40
:100AC000004B00010001000100010000000100B026
:100AD0005D010001000100010001000100010001B1
:100AE00000010001000100BE5D01000000010001E5
:100AF000000100B25D01000100010001000100B42D
:100B00005D01000100010001000100B85DB65D015A
:100B100000BA5D010001000100BC5D0100BB5D0188
:100B200000010001000100010001000100010001BD
:100B30000001000100010000000100B15D010001A1
:100B400000010001000100B35D010001000100018E
:100B5000000100B55D01000100010001000100B9C4
:100B60005DB75D4644010001000100350001000150
:100B7000000100000001003B00400051001B01018A
:100B80000001003D0042004F0019011A01F4004924
:100B9000000100000001000100FB004000000052C5
:100BA00000510059006200420000005F005C005BE1
:100BB0000063004400000061005E0056002E003A11
:100BC000003F0050001D01010001003C00410052A7
:100BD0000006010100FC003E0043004B004E0000F7
:100BE00000F5003F0000004A0050004B004E00415D
:100BF0000000004D004F005A00AF5D430000006050
:100C0000005D005400587145000000460057720115
:100C1000005500AE5D000000000100000001000072
:100C200000C65CC75C0000010001000000CA5CCB8C
:100C30005C0000005C010053000000000001520253
:100C400052010000000000A80000000000000000A9
:100C5000000000A9000000000000004700000000A4
:100C6000000000A60000000000BD00BE0000000162
:100C70000001000000C85CC95C00000052010000D7
:100C800000C45CC55CC35C00000100000000000003
:100C90000000000100000000000000AA00000000A9
:100CA00000000046000000000000000000010048B5
:100CB000000000010001000000000022232526287A
:100CC000292A2C2D2F3032333536383A3B3D3E40E1
:100CD00042434547494A4C4E5051535557595A5C27
:100CE0005E6062646668696B6D6F71737577797B3E
:100CF0007D7F81838587898A8C8E90929496989A3D
:100D00009C9E9FA1A3A5A7A8AAACAEAFB1B3B4B651
:100D1000B8B9BBBCBEBFC1C2C3C5C6C7C9CACBCCAC
:100D2000CDCED0D1D2D2D3D4D5D6D7D7D8D9D9DA7F
:100D3000DADBDBDBDCDCDCDCDCDDDDDDDDDCDCDCF4
:100D4000DCDCDBDBDBDADAD9D9D8D7D7D6D5D4D31C
:100D5000D2D2D1D0CECDCCCBCAC9C7C6C5C3C2C1F1
:100D6000BFBEBCBBB9B8B6B4B3B1AFAEACAAA8A74E
:100D7000A5A3A19F9E9C9A98969492908E8C8A8906
:100D8000878583817F7D7B79777573716F6D6B69E3
:100D900068666462605E5C5A5957555351504E4CB8
:100DA0004A4947454342403E3D3B3A383635333267
:100DB000302F2D2C2A29282625232200AF00AE0013
:100DC00011241FBECFEFDAE0DEBFCDBF11E0A0E0FF
:100DD000B1E0E4E6F7E602C005900D92A23AB10751
:100DE000D9F726E0A2EAB1E001C01D92A630B20711
:100DF000E1F70E942A100C94B0330C940000A7E194
:100E0000B0E0E5E0F7E00C94E032FC0180819181F4
:100E100023813481232B31F09F3F31F491E08F3FC8
:100E200019F403C091E001C090E090FF02C00C945F
:100E300026107F0185E0DE01539601900D928A9580
:100E4000E1F7D70112962C918B899C89222349F0D6
:100E50000E94BA2E182F682F8B899C890E94382FE8
:100E600003C00E94032F182F6B897C89812F0E9459
:100E700077218C01FC01EE5AFD45E131F10508F0C6
:100E800004C3EA5AFF4FD70112968C910C94903309
:100E9000882311F40C94740F0E94AB178091B00555
:100EA000C8C281110C94740F60E070E082E60E9469
:100EB000273160E070E082E60E9427310C94740FC5
:100EC000882311F40C94740F80914C0491E0382F16
:100ED000327081FF90E09093A50191E0282F20725D
:100EE00085FF90E09093A401311103C0211104C04B
:100EF00022C081EE0E9420308091A401882319F045
:100F000085EE0E9420308FE20E9483308FE20E94A3
:100F100020308091A501882319F081EE0E94833052
:100F20008091A401882311F40C94740F85EE0E9423
:100F300083300C94740F8FE10E9483308FE12BC0BB
:100F4000882309F4D1C780914C0491E0382F327086
:100F500081FF90E09093A50191E0282F207285FFFA
:100F600090E09093A401311103C0211104C00FC07F
:100F700081EE0E9420308091A401882319F085EE33
:100F80000E9420308EE20E9483308EE2C0CF83E246
:100F90000E94833083E20E942030A6C7882309F490
:100FA000A3C780914C0491E0382F327081FF90E00C
:100FB0009093A50191E0282F207285FF90E09093F7
:100FC000A401311103C0211104C012C081EE0E949E
:100FD00020308091A401882319F085EE0E942030F2
:100FE00081EE0E94833083E20E94833083E207C255
:100FF00084E20E94833084E2CECF882309F474C750
:1010000080914C0491E0382F327081FF90E09093F2
:10101000A50191E0282F207285FF90E09093A40114
:10102000311103C0211104C012C081EE0E94203092
:101030008091A401882319F085EE0E94203081EE72
:101040000E94833084E30E94833084E3D8C185E228
:101050000E94833085E29FCF882309F445C78091A1
:101060004C0491E0382F327081FF90E09093A501FD
:1010700091E0282F207285FF90E09093A401311118
:1010800003C0211104C012C081EE0E942030809163
:10109000A401882319F085EE0E94203081EE0E9481
:1010A000833085E20E94833085E2A9C186E20E94F6
:1010B000833086E270CF882309F416C780914C04F0
:1010C00091E0382F327081FF90E09093A50191E07C
:1010D000282F207285FF90E09093A401311103C066
:1010E000211104C012C081EE0E9420308091A40121
:1010F000882319F085EE0E94203081EE0E94833013
:1011000086E20E94833086E27AC187E20E948330C1
:1011100087E241CF882309F4E7C680914C0491E02F
:10112000382F327081FF90E09093A50191E0282F35
:10113000207285FF90E09093A401311103C021112A
:1011400004C012C081EE0E9420308091A401882347
:1011500019F085EE0E94203081EE0E94833087E8EE
:101160000E94833087E84BC18DE20E9483308DE27C
:1011700012CF882309F4B8C680914C0491E0382F2F
:10118000327081FF90E09093A50191E0282F2072AA
:1011900085FF90E09093A401311103C0211104C098
:1011A00012C081EE0E9420308091A401882319F0A2
:1011B00085EE0E94203081EE0E94833083E30E94FE
:1011C000833083E31CC181EE0E9483308DE20E9454
:1011D00083308DE22AC1882309F486C680914C04AD
:1011E00091E0382F327081FF90E09093A50191E05B
:1011F000282F207285FF90E09093A401311103C045
:10120000211104C012C081EE0E9420308091A401FF
:10121000882319F085EE0E94203081EE0E948330F1
:1012200080E30E94833080E3EAC080E30E94833041
:1012300080E3B1CE882309F457C680914C0491E035
:10124000382F327081FF90E09093A50191E0282F14
:10125000207285FF90E09093A401311103C0211109
:1012600004C012C081EE0E9420308091A401882326
:1012700019F085EE0E94203081EE0E94833082E3D7
:101280000E94833082E3BBC082E30E94833082E30A
:1012900082CE882309F428C680914C0491E0382F2F
:1012A000327081FF90E09093A50191E0282F207289
:1012B00085FF90E09093A401311103C0211104C077
:1012C00012C081EE0E9420308091A401882319F081
:1012D00085EE0E94203081EE0E94833089E80E94D2
:1012E000833089E88CC087E80E94833087E853CE3A
:1012F000882309F4F9C580914C0491E0382F3270AD
:1013000081FF90E09093A50191E0282F207285FF46
:1013100090E09093A401311103C0211104C00FC0CB
:1013200081EE0E9420308091A401882319F085EE7F
:101330000E94203084E30E94833084E3E8CD83E37D
:101340000E94833083E327CE882309F4CDC58091A2
:101350004C0491E0382F327081FF90E09093A5010A
:1013600091E0282F207285FF90E09093A401311125
:1013700003C0211104C012C081EE0E942030809170
:10138000A401882319F085EE0E94203081EE0E948E
:1013900083308FE10E9483308FE131C081EE0E9463
:1013A000833084E20E94833084E23FC0882309F4C2
:1013B0009BC580914C0491E0382F327081FF90E002
:1013C0009093A50191E0282F207285FF90E09093E3
:1013D000A401311103C0211104C015C081EE0E9487
:1013E00020308091A401882319F085EE0E942030DE
:1013F00081EE0E9483308FE20E9483308FE20E9450
:10140000203081EE84CD81EE0E9483308EE20E94F6
:1014100083308EE20AC0882309F466C581EE0E94FB
:10142000833089E30E94833089E30E94203081EE7B
:10143000B2CD81608093B00561E0869523C0F7014D
:101440008281811151C00631BCE51B0709F4C8C176
:101450008091960482720D3CACE51A0709F4E1C54F
:1014600008F414C2023DACE51A0709F4E7C508F018
:1014700034C50F3CECE51E0709F4DAC508F07CC55D
:1014800061E081E00E941A192FC5843FFCE59F07A7
:1014900099F406E221EE40EE64EF7CE509C0083DD8
:1014A0009CE5190761F606E221EE41EE68ED7CE568
:1014B000C7010E94A72818C5853F2CE5920708F0B0
:1014C0005BC1893D9C4531F407E225EE45EE69EDAF
:1014D0007CE5EECF0A3D8CE5180709F708E221E02C
:1014E00045EE6AED7CE5E4CF1092BD050430FDE5E4
:1014F0001F0758F40B3F2CE5120780F4C8018250F7
:101500009C45449708F056C109C002363DE51307D3
:1015100029F0063A8DE5180709F04CC10E942A23EC
:101520009093B6018093B50101319CE5190709F448
:10153000C9C008F043C00930BCE51B0709F49EC0D0
:1015400008F50530FCE51F0709F488C080F4033076
:101550003CE5130709F47BC008F07DC002309CE530
:10156000190709F0F9C08091B5018160F3C0073017
:10157000ACE51A0709F47AC008F07CC08091B50187
:101580008061E8C00D30ECE51E0709F489C058F40D
:101590000B302CE5120709F47BC008F07DC0809168
:1015A000B501886071C00F308CE5180709F482C05E
:1015B00008F084C08091B501877FCCC00E3FACE5B8
:1015C0001A0709F473C008F50531ECE51E0709F4A4
:1015D00087C068F403312CE5120709F477C008F0DE
:1015E00097C00E94EE2F8091B5018F77B3C00C3F5A
:1015F0008CE51807B9F108F056C00B3FACE51A07A7
:1016000009F0AAC08091B60141C00230BDE51B07B8
:1016100009F48AC058F40115FDE51F0709F45BC001
:1016200008F06AC08091B601826030C002363DE5A4
:10163000130709F47FC0063A8DE5180709F484C042
:1016400003309DE5190709F087C060E06EC0809106
:10165000B50182607FC08091B50116C08091B5014F
:10166000886078C08091B60182604FC08091B501DA
:10167000806270C08091B50180646CC00E94EE2FC2
:101680008091B501806866C0846064C081603DC09F
:101690008091B5018E7F5EC08091B5018D7F5AC06B
:1016A0008091B50116C08091B60118C08091B60135
:1016B0008D7F2BC08091B5018F7E4CC08091B5018C
:1016C0008F7D48C08091B5018F7B44C08091B5016A
:1016D000877F8B7F3FC08091B6018D7F8E7F15C045
:1016E0008091B50182FB222720F991E0922790FB9F
:1016F00082F990FB83F92EC08091B601982F9095C6
:1017000091708E7F892B90FB81F98093B60124C064
:101710000E94EE2F8091B50187FB222720F991E0EE
:10172000922790FB87F916C061E08EE090E00E945E
:101730002E3312C08091B50184FB222720F991E05D
:10174000922790FB84F906C08091B501982F90955F
:1017500090FB80F98093B5016091B5011091B601BD
:1017600084E090E00E942E33612F82E290E00E949C
:101770002E330E94EE2FB8C3863FACE59A0731F4B2
:1017800006E221EE42EE66EF7CE592CE863FBCE5B6
:101790009B0730F407E225EE44EE65EF7CE588CE4A
:1017A000873F9C4509F04BCE07E225EE46EE67EFFA
:1017B0007CE57ECE0631FCE51F07F9F480919604A6
:1017C0008A7A91E009F490E09093A601882311F0C1
:1017D00065E301C069E28CE494E00E9446280AC0F7
:1017E0008091A601882309F492C365E38CE494E018
:1017F0000E9439280E94B42377C30B352DE51207C8
:1018000009F43EC060F401158CE5180791F00F3D16
:101810009CE5190709F04DC00E943B2326C00D35F9
:10182000ADE51A0729F170F1083AEDE51E07E9F078
:1018300040C00E94EE2FFFEF04E31CE0F150004097
:101840001040E1F700C0000087E797E79093010898
:10185000809300089AE088E10FB6F894A8958093E9
:1018600060000FBE90936000FFCF0E94512C3CC3DC
:101870008091B60182FB882780F991E0892703C017
:1018800081E001C080E00E940D2413C0073CECE51C
:101890001E0709F4B2C308F04BC3043C2CE5120741
:1018A00009F4A1C308F035C3033C8CE5180709F41B
:1018B0007BC3D70112968C9112970D911C918823AE
:1018C00049F0C8010E94BA2ED82E682FC8010E9484
:1018D000382F04C0C8010E94032FD82EB8018D2DC7
:1018E0000E9477210E9490218C01982EF701D280CE
:1018F000A580A2949FE0A92280918C048770B9F002
:10190000DD20A9F0812F807F803421F080E2800FDC
:10191000883068F08091B60182FF09C082E00E94A1
:10192000F02380918C048770CC24C3948111C12C46
:10193000B12EB2948FE0B8228B2D90E08C309105BF
:1019400008F09BC2FC01E959FF4F0C949033812FA2
:10195000807F1F70882311F01295107FDD20B9F071
:10196000112309F477C280E2800F883010F09110C3
:1019700006C080919604182B1093960405C08091A0
:101980009504182B109395040E94B42363C2802FF2
:101990000E942030112309F470C2005E083078F1F3
:1019A000992069F11095809195041823109395045E
:1019B00029C0812F807F1F70803211F01295107F17
:1019C000992021F0F1E09F16D9F149C08091B6012C
:1019D00082FD1BC0DD2069F0112339F0809196044F
:1019E000182B109396040E94B42380E00E94833049
:1019F00044C280E00E942030112309F43EC2812FAE
:101A00000E94AD230E94B42338C2DD2081F0809172
:101A10009704AA2051F001E0A01207C0182B181754
:101A200009F42BC21093970428C2812B10C0AA205E
:101A300021F021E0A21609F420C20E94A7232AC0A7
:101A4000DD2041F035E03A1508F417C2812F0E94DD
:101A5000163013C284E08A1508F40FC21BC0DD20C3
:101A600061F0AA2099F3D70115968C91159780FF04
:101A7000F1C18F7015968C93E9CFAA2059F00933E4
:101A800009F0F8C1BFEFE7EEF3E0B150E040F040FD
:101A9000E1F7EEC1812F0E940F30EFC1812F8695B3
:101AA0008695837019F0813059F0E7C1DD2019F077
:101AB000C801937002C080E090E00E947628E5C1E2
:101AC000DD2019F0C801937002C080E090E00E9410
:101AD0006028DBC1802FDD2019F00E944A1B02C064
:101AE0000E94911A8FE0800F8830C0F5082F81E0A6
:101AF00090E09C0101C0220F0A95EAF786E0E9E137
:101B0000F2E0DE01179601900D928A95E1F786E0EA
:101B1000FE013796DE011D9601900D928A95E1F740
:101B20009885DD2019F0892F822B03C0822F8095A4
:101B300089238E8796E0FE013D96DE011196019085
:101B40000D929A95E1F78A8386E0FE013196A9E12C
:101B5000B2E001900D928A95E1F797C10E94A51B12
:101B600094C1812F837009F069C0D1108AC1902F70
:101B7000929596959770990F990F802F8F70882E58
:101B8000912CA12CB12C092E04C0880C991CAA1CE4
:101B9000BB1C0A94D2F704FF12C04FE050E060E093
:101BA00070E004C0440F551F661F771F9A95D2F747
:101BB000DB01CA0180959095A095B09503C080E0A7
:101BC00090E0DC0116951695412F4370423019F1D3
:101BD000C8F40091DE011091DF012091E001309105
:101BE000E101413059F088299929AA29BB29BC0172
:101BF000CD0160237123822393230AC0802A912A76
:101C0000A22AB32ABC01CD01682979298A299B29F6
:101C10000E94C32F36C188299929AA29BB2900917E
:101C2000DE011091DF012091E0013091E101BC0162
:101C3000CD016027712782279327EACFDD2019F095
:101C4000812F817001C08695882309F41AC1902FD5
:101C5000929596959770990F990F802F8F70882E77
:101C6000912CA12CB12C092E04C0880C991CAA1C03
:101C7000BB1C0A94D2F704FF12C04FE050E060E0B2
:101C800070E004C0440F551F661F771F9A95D2F766
:101C9000DB01CA0180959095A095B09503C080E0C6
:101CA00090E0DC0116951695412F43704230D9F033
:101CB00068F50091DA011091DB012091DC0130918F
:101CC000DD01413059F088299929AA29BB29BC0195
:101CD000CD0160237123822393231EC0802A912A81
:101CE000A22AB32A13C088299929AA29BB290091BD
:101CF000DA011091DB012091DC013091DD01BC01A2
:101D0000CD01602771278227932706C0BC01CD0132
:101D1000682979298A299B290E946E2FB2C01F70D9
:101D2000DD2039F0812F0E94A12F802F0E941630D4
:101D3000A8C0802F0E940F30812F0E947B2FA1C04E
:101D4000802F22EF921609F443C0291538F030EFA6
:101D5000931659F091EF9916B1F177C0A3EF9A1647
:101D6000F1F1B4EF9B1659F170C0DD2019F1E4E0F8
:101D7000EA1508F482C01F7181E090E0A0E0B0E0B5
:101D8000AC01BD0104C0440F551F661F771F1A9593
:101D9000D2F78091DA019091DB01A091DC01B09142
:101DA000DD018A019B01082719272A273B27C90142
:101DB000B80129C025E02A1508F45FC0DCCF809166
:101DC000B60182FD23C0DD2029F0812F8F7130C044
:101DD000DD20D9F3812F8F710E947B2F4EC0DD2033
:101DE00079F01F7181E090E0A0E0B0E0BC01CD018E
:101DF00004C0660F771F881F991F1A95D2F703C07A
:101E000060E070E0CB010E946E2F37C0DD2099F0BA
:101E10001F71812F0E94A12F8091B60182FF07C000
:101E200038E0139FC0011124836080938C04812FBC
:101E30000E94A12F22C081E00E94F02381E08A1538
:101E4000E0F482E00E94F02318C0DD2029F0AA20EF
:101E500009F4BBCF802FCACDAA2009F4BBCF8933A8
:101E600049F49FEFA7EEB3E09150A040B040E1F7F6
:101E700000C00000802F0E94203088EF8B0D84303E
:101E800020F40E949A280E94172DCC20A9F080915E
:101E90008C0480FD11C0F70112828595859585958A
:101EA0000E94A12FC7010E94FF0680918C04859596
:101EB000859585950E947B2F85E0F701DE011D96B3
:101EC00001900D928A95E1F70D851E85C8010E944B
:101ED000032FB8010E947721B9C0053D8CE5180792
:101EE00009F4AFC008F055C080918C04877009F4E4
:101EF000ADC0D70112968C91882309F4A7C08091B8
:101F0000B60182FFA3C082E00E94F0239FC069E275
:101F10006DCC053C9CE5190709F46AC0063CACE5AC
:101F20001A0709F0C6CC47E059E166E179E17DC0C6
:101F30000A3CBCE51B0709F46AC078F4083CFCE5E0
:101F40001F0709F45FC0093C2CE5120709F0B1CC6A
:101F50004FEE58E162EE78E168C00B3C3CE51307B8
:101F600009F45AC00C3C9CE5190709F0A2CC47E8DB
:101F700057E169E977E159C0003D2CE5120709F402
:101F80005AC0013D3CE5130709F093CC6EE089E0AF
:101F90005AC0063DACE51A0709F4A6CF0E35BDE5DB
:101FA0001B0709F4A1CF85CC8091B00580FF41CA01
:101FB0008E7F8093B0056091B0057091B1058091DE
:101FC000B2059091B3050E9474171092A204EFEF2E
:101FD000F0E702E0E150F0400040E1F700C000000F
:101FE0000E94CC2981CF48E759E162E879E11DC020
:101FF00042E859E168E779E118C046E159E167E054
:1020000079E113C042EE58E16FEE78E10EC048EC82
:1020100058E165ED78E109C045ED58E168EC78E1FB
:1020200004C049E957E167E877E10E94AF295CCF36
:1020300065E082E008C068E086E005C064E18FE00A
:1020400002C06EE185E10E949B294ECF6796ECE0CD
:102050000C94FC32CF93DF93CDB7DEB762970FB607
:10206000F894DEBF0FBECDBF85B7806885BF85B74A
:10207000806885BF84B7877F84BF0FB6F894A89522
:1020800080916000886180936000109260000FBEB4
:1020900090E080E80FB6F89480936100909361001F
:1020A0000FBE82E191E29093A3018093A2010E946E
:1020B000C11F0E94E01F8091E20084608093E200D3
:1020C0007894809137028823A1F01091E9001F7065
:1020D0009091EC00892F817090FD80E8182B109270
:1020E000E9008091E80083FD0E94BB1C1F701093E3
:1020F000E90082E084BD93E095BD9AEF97BD80939F
:102100006E00A6E2B1E024E331E0AD0101E010E0B1
:10211000FA018191AF01E82FE295EF70F0E061A143
:102120008F70580102C0AA0CBB1C8A95E2F7C5014A
:102130009A2D9095962391A392A1892B82A324177F
:10214000350731F744E351E06AE371E08A01EE2498
:10215000E394F12CF80181918F01E82FE295EF7063
:10216000F0E0D1A08F70570102C0AA0CBB1C8A9569
:10217000E2F7C5019A2D90959D2191A392A1892BFB
:1021800082A36017710731F701E010E0FA01819135
:10219000AF01E82FE295EF70F0E0F1A08F705801E9
:1021A00002C0AA0CBB1C8A95E2F7C5019A2D909536
:1021B0009F2191A392A1892B82A36417750731F700
:1021C00061E070E08D91E82FE295EF70F0E041A1C1
:1021D0008F706B0102C0CC0CDD1C8A95E2F7C60142
:1021E0009C2D9095942391A392A1892B82A32A17C9
:1021F0003B0741F7E7EAF1E085EB91E0A9EBB1E0BD
:1022000011921D928E179F07D9F780E090E00E94EF
:102210002833883E9E4F11F00E943B2382E090E0DD
:102220000E941A338093C7010E942A239093B6011B
:102230008093B50183E090E00E941A33682F70E02C
:1022400080E090E00E94C32F6091DA017091DB0181
:102250008091DC019091DD010E94672C10920202B6
:1022600080E8809341020E943F316DE070E089E494
:1022700091E00E946A1C892B09F043C08091020200
:1022800063E070E081FD3AC086E491E00E946A1C40
:10229000892BB9F56DE070E086E391E00E946A1C3D
:1022A000892B79F50E94F827DC01CB01805A9541F2
:1022B000AF4FBF4F8093B5059093B605A093B70578
:1022C000B093B805E4E4F2E080E092E0DF018C0135
:1022D0001D9201501040E1F7F0934B04E0934A0443
:1022E0008FEF9FEF909343028093420281E08093AF
:1022F000BA058093B9051092030203C083E491E00C
:10230000C5CF8091B701811136C080E090E00E9476
:102310002833883E9E4F21F00E943B230E94AB173A
:1023200088E090E00E9422336093B0057093B1057D
:102330008093B2059093B3056E7F71F40E94AB1742
:1023400088E090E00E9422336093B0057093B1055D
:102350008093B2059093B3050E945A171092A2047D
:102360008091B00580FF04C060E086950E941A1934
:1023700081E08093B70181E08093D80185988D9AA0
:1023800084988C9A8FE891E00197F1F700C00000E3
:102390003091D801E9EDF1E020E0231769F08FB129
:1023A00085FB882780F97C9902C090E001C092E00B
:1023B000892B81932F5FF1CF0E94621686E591E011
:1023C00090939A048093990483E08093230189E594
:1023D0008093240186E58093250183E00E94FB2CF5
:1023E0009FEFA3ECB9E09150A040B040E1F700C0EE
:1023F000000080E00E94FB2C80E091E09093C105FA
:102400008093C00522242394312C8091370285309B
:1024100009F08CC020E4F22EEE24E39400E112E1F6
:1024200080913702853009F064C080913702843092
:1024300009F44DC00E942B2940E060E080E00E943A
:10244000511C80E00E94172D1092A20480919804E4
:10245000811116C0E09298048091B005982F917078
:102460009093B8018E7F8093B005EFEFF0E722E004
:10247000E150F0402040E1F700C000000E94CC296C
:102480000E942B290E94A8191092C40588E190E0AF
:102490000FB6F894A895809360000FBEF09260008C
:1024A00083B7817F846083BF83B7816083BF789463
:1024B000889583B78E7F83BF0FB6F894A8958091D7
:1024C0006000886180936000109260000FBE809170
:1024D0003602882309F4A4CF0E94862DE9EBF1E0AF
:1024E0008191811198C3A7ECB1E0AE17BF07C1F786
:1024F00097CF0E94EE2F0E949A280E94172D1092CB
:1025000098048091B801882351F08091B0058160D2
:102510008093B00560E086950E941A1905C08091ED
:10252000A30481110E94CC290E94B6290E94862D05
:10253000C82E81110E94F827E8ECF1E0A9EBB1E088
:1025400000E010E0302F2D919191922721F180E051
:10255000FF24F394492F4F21D1F08F8338872F2107
:1025600081E009F480E089870E9404288160782F47
:102570009B878A874F81588569858B850E94642B4C
:10258000F801E853FE4F8081F826F08219C08F5F72
:10259000FF0C8630F9F60F5F1F4F0E30110591F6D4
:1025A0008FEF8C878D871E860E9404288160782F8C
:1025B000988B8F874C855D856E8588890E94642BFA
:1025C0008091A204882309F469C08091A104E0915C
:1025D000B005E695E81BE0939D04823059F4F0E0E5
:1025E000E959FE4FE4910E2F10E09AECE92E96E2A5
:1025F000F92E2FC0863059F4F0E0EC59FE4FE491EB
:102600000E2F10E08AEBE82E86E2F82E22C08930E9
:1026100061F4E695F0E0EF59FE4FE4910E2F10E0E3
:10262000BAEFEB2EBAE2FB2E14C08F3061F4E695C0
:10263000F0E0E25AFE4FE4910E2F10E0A7E8EA2EF8
:10264000AAE2FA2E06C000ED17E0F9E3EF2EF6E25B
:10265000FF2E80919E04882361F010929E040E94B8
:10266000042890939C0480939B041092A0041092E1
:102670009F040E940428E0919B04F0919C048E1B0F
:102680009F0B8F3F9F4750F40E0F1F1F10939C040A
:1026900000939B048BE994E0F7010995B12CD12CB0
:1026A0008091D801B81608F058C00B2D10E0EFB19A
:1026B000E5FBEE27E0F97C9902C090E001C092E0D2
:1026C0008E2F892BD801A752BE4FEC912E2F23704D
:1026D00030E0482F082E000C550B24173507D9F190
:1026E000EE0FEE0FE82BEC93EF70F0E0E65CFE4FA0
:1026F000980129523E4F79019081D9018C91890F1F
:102700008C93823064F0F801EA52FE4F80818F5F33
:10271000808360E08B2D0E94232D21E001C020E00A
:10272000F70180818F3F5CF4F801EA52FE4F80810F
:102730008150808361E08B2D0E94232D21E0D70101
:102740008C91082E000C990B62E070E00E947C33A3
:10275000F7018083D22AB394A3CFD1100E94F82727
:102760008091BA05882309F468C184E492E09093CB
:102770004B0480934A0487ED91E00E94431C6091D2
:10278000DE017091DF018091E0019091E1010E94F2
:10279000012C813049F028F0823051F486EB91E031
:1027A00005C08CEC91E002C080EC91E00E94431CDB
:1027B0008FEA91E00E94431C6091DA017091DB0185
:1027C0008091DC019091DD010E94012C833029F081
:1027D000843041F482EA91E002C08AEA91E00E94EA
:1027E000431C07C08BE991E00E94431C81E00E94DA
:1027F0006B290E949A2881FD03C089E891E002C0FC
:1028000082E991E00E94431C0E949A2880FD03C047
:1028100089E791E002C081E891E00E94431C0E9498
:102820009A2882FD03C08BE691E002C082E791E026
:102830000E94431C8091BA05882309F4E3C02091CB
:102840004202309143022115310509F4DBC0809129
:1028500003028111D7C0482E512C7101082E02C0ED
:10286000EE0CFF1C0A94E2F7A9014E215F21452BD3
:1028700011F48F5FF0CF909102029201E5E0220FF8
:10288000331FEA95E1F790FD12C08295880F80769C
:1028900080930E01220F232F221F330B319520939B
:1028A0001101815E80930F011092120112C065E048
:1028B000369527956A95E1F7220F220F220F209374
:1028C0000E0110921101295F20930F0183E0809384
:1028D000120124E630E047E050E06CE071E088E768
:1028E0000E943432892B09F08DC08091020280FD54
:1028F00023C0C20155E0880F991F5A95E1F7AC013A
:102900004C5B5D4F04E610E020E230E060E488E7D5
:102910000E945532892B09F075C00E944529E09428
:10292000F0948091420290914302E822F922F092C1
:102930004302E092420266C080E2E2EEF1E0DF0193
:102940001D928A95E9F745E0440C551C4A95E1F73C
:10295000EEE4F1E0FA8BE98B6AE471E0A989BA89C7
:102960008D91BA8BA98BFB019191BF01A201490FF7
:10297000511D4C5B5D4F90E08E519E4FFC0137E046
:10298000A32E9F01281B390B822C01C0880C2A958D
:10299000EAF78A01912CD801BD908D01B8202A2D2B
:1029A00029192770722E022E000C330BBB2D01C08B
:1029B000BB0F7A94EAF77B2E319521953109277068
:1029C000332701C0B6942A95EAF77B28B0807B288C
:1029D0007082939428E0B22E9B10DDCFAA9431969A
:1029E0000FEFA012CECF22E531E089899A8928170E
:1029F000390709F0B3CF04E610E020E230E042EE00
:102A000051E084CF8091B9058823B9F00E94F8275E
:102A10000091B5051091B6052091B7053091B80524
:102A2000DC01CB01801B910BA20BB30B8F3F9F4F9F
:102A3000AF4FBF4710F40E942B29C11001C0D11025
:102A40000E94452986E0EDE0F2E0DE01119601905A
:102A50000D928A95E1F710920F02109210021092D7
:102A60001102109212028B81811104C08C81882383
:102A700009F453C080910A0290910B020E94E92749
:102A80009C0190910602992309F4DBC025313105A0
:102A900008F443C09F3F19F09F5F909306021B818B
:102AA000112361F00E942A1B111614F09FEF01C040
:102AB00091E0899F802D112480930F021C811123A6
:102AC00061F00E942A1B111614F09FEF01C091E0E3
:102AD000899F802D11248093100230910F0233239F
:102AE000E1F0209110022223C1F005EB3003C00178
:102AF0001124992319F090930F0203C081E0809371
:102B00000F0215EB2103C0011124992319F09093B2
:102B1000100203C081E0809310028D81811104C0F6
:102B20008E81882309F453C0809108029091090294
:102B30000E94E9279C0190910502992309F486C01F
:102B40002135310508F443C09F3F19F09F5F9093F2
:102B500005021D81112361F00E94081B111614F05B
:102B60009FEF01C091E0899F802D11248093110275
:102B70001E81112361F00E94081B111614F09FEFB3
:102B800001C091E0899F802D112480931202309121
:102B900011023323E1F0209112022223C1F045EB10
:102BA0003403C0011124992319F09093110203C03A
:102BB00081E08093110205EB2003C00111249923C9
:102BC00019F09093120203C081E08093120246E054
:102BD00050E0BE016F5F7F4F8DE092E00E94A33313
:102BE000892B11F00E94A51B86E0FE013196ADE015
:102BF000B2E001900D928A95E1F70E94A8190E9417
:102C00009A2890910402891709F4FFCB809304025B
:102C10000E94172DFACB09BD19BD09B400FEFDCFE6
:102C20008091D8008F7D8093D8008091E0008260F1
:102C30008093E0008091E00081FDFCCF0E94EE2FA8
:102C4000EFCB2B30310508F027CF67CF2B30310584
:102C500008F07CCFBCCF9C01893F910538F481E01E
:102C600090E090931401809313010895EDE7F0E054
:102C7000BF010E94C632A901481B590BCA01BF01FE
:102C80000E94C632709314016093130108959091CD
:102C9000B00590FF16C09091230120912401921756
:102CA00070F4E92FF0E0DF01AA0FBB1FEA0FFB1F52
:102CB000EB55FB4F8183608342839F5FF0CF0E947F
:102CC000CC2908950E943F3140E060E080E00E94FE
:102CD000511C0895A1E1B0E0E0E7F6E10C94E53283
:102CE0004C87888B998BD52E7B01AE01495F5F4F56
:102CF00085E0FA0111928A95E9F7809129028A30DC
:102D000008F0C0C004E610E025E030E064E084E1B3
:102D10000E947C32892B09F0B0C0109229028B8569
:102D200087FDA1C0FD2DFE7FDF2E809127029091AF
:102D30002802009709F095C08F819885891720F4A3
:102D4000981B892F91E002C0891B90E0209113010C
:102D50003091140143E0849FB0011124869FA001AB
:102D6000879F500D1124429FB001439F700D529FC9
:102D7000700D1124660F672F661F770B71959923CD
:102D800019F0719561957109809125029091260243
:102D9000680F791F89859A85891720F4981B892FD8
:102DA00041E002C0891B40E093E0899FD0011124DB
:102DB0008A9FF0018B9FF00D1124E29FC001E39FD9
:102DC000900DF29F900D1124880F892F881F990B69
:102DD0009195442319F091958195910920912302B1
:102DE00030912402820F931F603871054CF06F57A9
:102DF000710970932602609325023FE7E32E12C00B
:102E00006138EFEF7E074CF461587F4F70932602D4
:102E10006093250221E8E22E05C0E62E10922602DC
:102E200010922502803891054CF08F5791099093AC
:102E30002402809323029FE7F92E24C08138FFEFFC
:102E40009F074CF481589F4F909324028093230254
:102E500081E8F82E17C0F82E109224021092230257
:102E600011C0019705C02D2D2160D22E84E190E084
:102E7000909328028093270205C0809129028F5FDA
:102E800080932902DD86EE86FF8686E0FE013C9671
:102E9000DE01119601900D928A95E1F729813A8120
:102EA0004B815C816D817E8180E090E06196E7E0FE
:102EB0000C9401338091B005282F269530E0211520
:102EC000310519F48170826005C02F31310524F07D
:102ED00081708C638093B0058091B305813818F0C0
:102EE00080E88093B3050895CF92DF92EF92FF922E
:102EF0006B017C010E945A17B701A60188E090E09F
:102F00000E944033FF90EF90DF90CF900895809122
:102F1000B405882319F081508093B4056091B00501
:102F20007091B1058091B2059091B3050E9474171C
:102F300008958091B405833018F48F5F8093B405B1
:102F40006091B0057091B1058091B2059091B30583
:102F50000E9474170895E0EBF5E083E0808311820E
:102F60008FEF828380E88383148260817181828104
:102F700093810E9474170895A0E0B0E0E2ECF7E1BD
:102F80000C94E232E82EF62EE901E42FF0E0611114
:102F900006C0E051FE4FE4914E2F2E2F71C0062F38
:102FA00010E0E051FE4F4491F42FC42ED12C26E0C6
:102FB000829FC00111242FEF30E0B9010E94C63278
:102FC0005BEA5603C001579F900D11248E0D911D91
:102FD0008E0D911D582F550F580FD901A01BB10B05
:102FE000AC9DC001AD9D900DBC9D900D1124E92FAD
:102FF000F59ED0011124AB2FBB277901EA1AFB0AF9
:10300000EC9CD001ED9CB00DFC9CB00D112459013D
:10301000A51AB108A09E7001A19EF00CB09EF00C04
:103020001124EF2CFF242E193F092C9D80012D9D8A
:10303000100D3C9D100D1124212F6230710591F06F
:1030400048F461157105E1F061307105B9F4242F80
:103050004B2F16C06430710569F040F06630710581
:1030600079F00CC0242F492FE12F0AC0492FEF2FF0
:103070002B2F06C0292FE42F412F02C0292FEB2F21
:1030800049832883EA83CDB7DEB7EAE00C94FE32A9
:10309000A3E0B0E0EEE4F8E10C94E332F82EE62E83
:1030A000042FD22E9091B00590FF6EC0E92FE695C7
:1030B000AE2FB0E0AE5ABE4F8C918093A1049E7F9C
:1030C000923081F4413808F040E89E012F5F3F4F75
:1030D0006E2D8F2D0E94BC174B8169818A810E94C1
:1030E000471640C0823019F40091B3053BC08630CA
:1030F00019F4F090B10536C08930D9F3853191F5D6
:10310000E5518E2F8170C82EE695F0E0E051FD4F1D
:103110001491B12C60912501B61610F5B19EC00135
:10312000112470E00E94C6328F2DC11002C0860F9C
:1031300001C0861B909123012B2D30E0290F311DFA
:10314000A901440F551F240F351F2B553B4F402F0E
:10315000013808F040E86E2D0E94BC17B394DACF16
:103160000E94CC29F092B105E092B2050093B3051C
:10317000DD2051F06091B0057091B1058091B205EC
:103180009091B3050E9474172396E9E00C94FF32E6
:10319000E0EBF5E0438120E1421B08F440E021E050
:1031A000628181810E9448180895E0EBF5E0438137
:1031B00020E1420F08F44FEF21E0628181810E94FB
:1031C00048180895E0EBF5E0628120E1621B08F405
:1031D00060E021E0438181810E9448180895E0EB7E
:1031E000F5E0628120E1620F08F46FEF21E0438196
:1031F00081810E9448180895E0EBF5E09181282F25
:10320000438162818CEF890F0E944818089581E004
:103210000E94FC180895E0EBF5E09181282F43818E
:10322000628184E0890F0E944818089581E00E941D
:103230000B1908959091B00590FF36C091708111DF
:1032400002C0926006C08F3110F09C6302C0880FEC
:10325000982B9093B005662351F06091B005709162
:10326000B1058091B2059091B3050E9474176091E9
:10327000B005669570E04BE050E086E191E00E9479
:103280009633892B19F01092A20402C00E94B6292D
:1032900081E080939E0420E04091B3056091B205E7
:1032A0008091B1050E944818089521E030E0A901FD
:1032B00002C0440F551F8A95E2F7CA012091A3046A
:1032C000662311F0822B02C0809582238093A30491
:1032D0008091A204811106C08091B00560E08695BE
:1032E0000E941A198091B00580FF0E94CC29089590
:1032F0008091B0058695815009F48EE161E00E94CD
:103300001A1908958091B00586958F5F8F3108F066
:1033100081E061E00E941A190895A3E0B0E0E3E9BA
:10332000F9E10C94EA329091B00590FF0DC041385C
:1033300008F040E89E012F5F3F4F0E94BC174B8171
:1033400069818A810E9447162396E2E00C94063335
:10335000A6E3B0E0EEEAF9E10C94EA3240911F02F4
:103360005091200260912102709122022FB7F894AF
:103370008091C5059091C605A091C705B091C8057B
:103380002FBF841B950BA60BB70B4997A105B10561
:1033900008F4C3C00E94F82760931F0270932002B4
:1033A00080932102909322024091190250911A02B7
:1033B00060911B0270911C0280911D0290911E026F
:1033C0000E946A162093190230931A0240931B023E
:1033D00050931C0260931D0270931E0286E0E9E187
:1033E000F2E0DE01599601900D928A95E1F786E0B0
:1033F000FE017996DE011D9601900D928A95E1F706
:1034000086E0FE013D96DE01539601900D928A956D
:10341000E1F786E0FE017396A9E1B2E001900D921A
:103420008A95E1F786E0E9E1F2E0DE019B96019002
:103430000D928A95E1F786E0FE01BB96DE011796B4
:1034400001900D928A95E1F72DA58EA59FA530914B
:103450000C02332321F0982F919580E020E02987FA
:103460008A879B8736E0FE013796DE011196019030
:103470000D923A95E1F72B838C839D8336E0FE0114
:103480003196DE015F9601900D923A95E1F729A3FE
:103490008AA39BA336E0FE017F96DE0195960190FC
:1034A0000D923A95E1F72FA388A799A786E0FE0130
:1034B000B596A9E1B2E001900D928A95E1F786E018
:1034C000EDE0F2E0DE01D19601900D928A95E1F7F0
:1034D00090911A028AA9892B80931A0246E050E043
:1034E00063E172E089E192E00E94A333892B21F02D
:1034F00089E192E00E948C2810921B0210921C021B
:1035000010921D0210921E0286E0E9E1F2E0A3E1B2
:10351000B2E001900D928A95E1F7E696E2E00C9414
:1035200006338D3E39F49091100297FF35C010920A
:10353000100259C08E3E29F4909110021916BCF366
:103540002BC090910F028F3E29F497FF25C0109257
:103550000F0249C0803F19F41916CCF31DC0909199
:103560001102893F29F41916BCF4109211023BC0D4
:103570008A3F19F497FF10C0F8CF8B3F39F4909130
:10358000120297FF09C0109212022DC08C3F21F445
:10359000909112021916BCF39FE0980F983080F4B6
:1035A00021E030E0A90102C0440F551F9A95E2F7CF
:1035B000CA01809590910E02892380930E0213C058
:1035C0008D3F21F4809107028E7F0BC08E3F21F446
:1035D000809107028D7F05C08F3F29F480910702FB
:1035E0008B7F8093070280910F02811106C080912A
:1035F0001002811102C01092060280911102811105
:1036000006C080911202811102C010920502089535
:103610008091070280FD16C081FD16C082FD18C092
:1036200080910502882391F0883290F428E0829FEF
:10363000C001112468E270E00E947C33862F672B62
:1036400029F007C082E0089584E0089581E008959C
:1036500088E008958091070280FD14C081FD14C0A8
:1036600082FD16C080910602882381F08E3180F49D
:1036700020E5829FC00111246EE170E00E947C333E
:10368000862F089584E1089588E2089588E00895DA
:1036900080E508958D3E21F40E942A1B819504C087
:1036A0008E3E29F40E942A1B8093100208958F3EBB
:1036B00021F40E942A1B819504C0803F29F40E94B6
:1036C0002A1B80930F020895893F19F40E94081B5A
:1036D00005C08A3F31F40E94081B81958093110236
:1036E00008958B3F21F40E94081B819504C08C3FF4
:1036F00029F40E94081B8093120208959FE0980FFE
:10370000983078F421E030E0A90102C0440F551F41
:103710009A95E2F7CA0190910E02892B80930E02CE
:1037200008958D3F21F48091070281600BC08E3F88
:1037300021F480910702826005C08F3F29F48091B7
:10374000070284608093070208950E940428209154
:103750000F02211104C020911002222321F0909326
:103760000B0280930A0220911102211104C02091C2
:103770001202222321F090930902809308028DE027
:1037800092E00E948C280895CF93DF93682F8A30AF
:1037900011F481E003C08D3021F480E00E946B2998
:1037A0006FC080914A0490914B0426E0FC01A4E490
:1037B000B4E001900D922A95E1F7603E30F026E0EA
:1037C000FC0111922A95E9F70AC0F6E06F9FB0015B
:1037D00011246D5C7B4F46E050E00E941133C09194
:1037E0004A04D0914B0446E050E0BE0184E494E0EA
:1037F0000E94A333892B49F19E0124543240A90130
:1038000085E0569547958A95E1F781E090E0BC0107
:1038100002C0660F771F4A95E2F74091420250912D
:103820004302462B572B2B5F3F4F65E0369527957C
:103830006A95E1F702C0880F991F2A95E2F7842B59
:10384000952B90934302809342029E012E53324067
:1038500040914102642F70E0C9010E94C632481BAA
:10386000463010F4240F311D211582E0380710F086
:1038700020E030E02C5B3D4F30934B0420934A0412
:10388000DF91CF910895CF93DF93EC01FE018491F6
:10389000882321F00E94C41B2196F8CFDF91CF919D
:1038A0000895A4E0B0E0E7E5FCE10C94E832198269
:1038B0008A836B834C8304E610E024E030E0AE01A1
:1038C0004F5F5F4F60E084E10E9455322496E4E050
:1038D0000C940433EF92FF920F931F93CF93DF93D7
:1038E000EC017B0164E670E088E70E9445318C01C1
:1038F000EC0EFD1ECE15DF0561F017FD0AC0FE01BE
:10390000849164E670E00E94BA318C012196892B83
:1039100089F30E94C232C801CDB7DEB7E6E00C944D
:103920000233EF92FF920F931F93CF93DF937C01AB
:103930008B010E94DE26811119C0E70101151105D6
:10394000A1F08091E80085FD0AC08091E8008E77A3
:103950008093E8000E94DE26882381F307C08991C6
:103960008093F10001501109E9CF80E0CDB7DEB7B7
:10397000E6E00C940233AAE2B0E0E1ECFCE10C9446
:10398000E932E9E3F2E081E492E02091F100219351
:103990008E179F07D1F780913A02833009F461C0F6
:1039A00030F4813071F0823009F49BC0B2C08A30AB
:1039B00009F487C08B3009F46CC0893009F0A9C0C4
:1039C00020C080913902813A09F0A3C08091E800BB
:1039D000877F8093E80080913D0290913E02892B81
:1039E00021F468E08DE292E003C060E080E090E0C6
:1039F00070E00E9465278091E8008B778093E80053
:103A000088C080913902813209F083C080913D02E3
:103A100090913E02029708F07CC08091E800877F79
:103A20008093E8008091E80082FD05C08091370214
:103A30008111F8CF6EC02091F3008091F20090E0E8
:103A4000922B029731F48091F100813011F0863091
:103A500021F48091F10080932C028091E8008B7713
:103A600054C080913902813A09F053C080913D02DF
:103A700090913E02892B09F04CC08091E800877F2D
:103A80008093E8008091E80080FFFCCF80911501D1
:103A900037C0809139028132E1F580913D029091E9
:103AA0003E02892BB1F58091E800877F8093E80082
:103AB0000E94112780913B02809315010E94EE2FF6
:103AC00028C080913902813221F58091E800877FFA
:103AD0008093E8000E94112780913C0280932B0282
:103AE00018C080913902813AA1F48091E800877F63
:103AF0008093E8008091E80080FFFCCF80912B024A
:103B00008093F1008091E8008E778093E8000E9416
:103B100011278091E80083FFCEC1809139029091F6
:103B20003A02492F50E04A30510508F0C4C1FA0169
:103B3000ED58FF4F0C949033803821F0823809F013
:103B4000BAC108C08091350290913602992389F05C
:103B500082600FC080913D028F70873008F0ABC14A
:103B60008093E9008091EB0085FB882780F9109213
:103B7000E9009091E800977F9093E8008093F1002E
:103B80001092F10065C1282F2D7F09F094C1882380
:103B900019F0823061F08FC180913B02813009F0D1
:103BA0008AC1933009F080E0809336022EC0809164
:103BB0003B0281112AC080913D028F702FEF280FA8
:103BC000263008F078C18093E9002091EB0020FFB7
:103BD0001CC0933021F48091EB00806214C090915E
:103BE000EB0090619093EB0021E030E0A90102C06E
:103BF000440F551F8A95E2F74093EA001092EA00BD
:103C00008091EB0088608093EB001092E900809136
:103C1000E800877F20C181114EC110913B021F77C0
:103C20008091E3008078812B8093E3008091E8000D
:103C3000877F8093E8000E9411278091E80080FF31
:103C4000FCCF8091E30080688093E300111102C0F3
:103C500082E001C083E0809337022DC1805882301A
:103C600008F029C180913B0290913C028C3D53E0C9
:103C7000950779F583E08A838AE289834FB7F894C0
:103C8000DE01139620E03EE051E2E32FF0E0509396
:103C90005700E49120FF03C0E295EF703F5FEF70A3
:103CA0008E2F90E0EA3010F0C79601C0C0968D9339
:103CB0009D932F5F243149F74FBF8091E800877FA4
:103CC0008093E8006AE270E0CE0101960E946527C9
:103CD000AEC040913D0250913E02292F3327233040
:103CE0003105A9F068F42130310509F4F3C0223020
:103CF000310509F0E0C08BE390E0E0EBF3E044C075
:103D00002132310521F12232310571F1D4C09927D8
:103D100081309105A1F058F0029709F0CCC0EDEF89
:103D2000F3E0E4918E2F90E0EDEFF3E02AC0EFE2B4
:103D3000F4E0E4918E2F90E0EFE2F4E022C0EDE1B8
:103D4000F4E0E4918E2F90E0EDE1F4E01AC041152B
:103D5000510509F4C4C04130510509F0ACC089E0F7
:103D600090E0EBEDF3E010C04115510509F4BCC043
:103D70004130510509F09FC08BE790E0E5EFF2E09C
:103D800003C0009709F497C02091E800277F209393
:103D9000E80020913F02309140028217930708F417
:103DA0009C0140E02115310589F18091370288237B
:103DB00009F43DC08530D9F18091E80083FD37C01A
:103DC0008091E80082FD2FC08091E80080FFEACF5B
:103DD0004091F3008091F20090E0942B2115310581
:103DE00059F08830910540F444914093F1003196A8
:103DF000215031090196F2CF41E0089709F040E0E7
:103E00008091E8008E778093E800CCCF4111CDCF30
:103E10000AC080913702882351F0853041F08091AB
:103E2000E80083FD04C08091E80082FFF2CF80911A
:103E3000E8008B778093E8003EC08038E1F5809100
:103E4000E800877F8093E800809138028093F1003A
:103E50008091E8008E778093E8000E9411272BC0A4
:103E6000811129C080913B0290913C0299270297D1
:103E700014F58091E800877F8093E80010913B0261
:103E8000109338020E941127111106C08091E3009F
:103E900087FD02C081E001C084E08093370242E0E8
:103EA00061EC81E00E94302742E261EC82E00E94F6
:103EB0003027809137028091E80083FF1AC08091FB
:103EC000E800877F8093E8008091EB008062809318
:103ED000EB000FC082E190E0EBEEF3E055CF89E01C
:103EE00090E0E2ECF3E050CF80E490E0E0E7F3E034
:103EF0004BCFAA96E3E00C9405331F920F920FB6B6
:103F00000F9211242F933F934F935F936F937F935F
:103F10008F939F93AF93BF93CF93DF93EF93FF93D1
:103F2000C091E900CF708091EC00D82FD17080FD56
:103F3000D0E81092E9008091F000877F8093F00034
:103F400078940E94BB1C1092E9008091F000886078
:103F50008093F000CD2BCF70C093E900FF91EF91DB
:103F6000DF91CF91BF91AF919F918F917F916F9191
:103F70005F914F913F912F910F900FBE0F901F9027
:103F80001895E8EDF0E080818E7F80831092E2004A
:103F90001092DA001092E100A0EEB0E08C91816006
:103FA0008C9380818F77808319BCA7EDB0E08C91D2
:103FB0008E7F8C9380818F7E808310922A02089559
:103FC000A0E0B0E0E6EEFFE10C94E432C8EDD0E012
:103FD00088818F7E8883E7EDF0E080818160808337
:103FE00084E082BF81E080932A0288818E7F88836B
:103FF00002EE10E0F80110821092DA0081EEC82E75
:10400000D12CF601108288818F778883888180681F
:10401000888388818F7D888319BC10923702109223
:104020003802109236021092350290EEE92EF12CF1
:10403000F70180818B7F808388818160888342E063
:1040400060E080E00E943027F60180818E7F8083CF
:10405000F801808181608083808188608083F7019E
:1040600080818E7F8083888180618883CDB7DEB731
:10407000E8E00C9400331F920F920FB60F921124B8
:104080002F933F934F935F936F937F938F939F9360
:10409000AF93BF93EF93FF938091E10082FF09C03C
:1040A0008091E20082FF05C08091E1008B7F8093C8
:1040B000E1008091DA0080FF2AC08091D80080FF63
:1040C00026C08091DA008E7F8093DA008091D9003B
:1040D00080FF18C080E189BD82E189BD09B400FE7E
:1040E000FDCF81E08093370280912A0281110FC0B9
:1040F0000E94C11F0E94E01F8091E20084608093B3
:10410000E20005C019BC1092370210922A02809179
:10411000E10080FF17C08091E20080FF13C0809112
:10412000E2008E7F8093E2008091E20080618093C4
:10413000E2008091D80080628093D80019BC85E0AD
:10414000809337028091E10084FF30C08091E200CB
:1041500084FF2CC080E189BD82E189BD09B400FEE5
:10416000FDCF8091D8008F7D8093D8008091E100B1
:104170008F7E8093E1008091E2008F7E8093E20049
:104180008091E20081608093E20080913802882370
:1041900011F084E007C08091E30087FD02C081E058
:1041A00001C083E080933702809137028091E10063
:1041B00083FF27C08091E20083FF23C08091E1004C
:1041C000877F8093E10082E080933702109238026B
:1041D0008091E1008E7F8093E1008091E2008E7FEC
:1041E0008093E2008091E20080618093E20042E0EF
:1041F00060E080E00E9430278091F000886080932A
:10420000F000FF91EF91BF91AF919F918F917F91BE
:104210006F915F914F913F912F910F900FBE0F9033
:104220001F90189580E008959091B50192FF0DC000
:10423000282F2871283019F4877F846006C0282F22
:104240002471243011F48B7F886093FF0DC0282FD8
:104250002871283119F4877E846106C0282F2471C3
:10426000243111F48B7E88612091B60120FF0DC0AE
:10427000382F3871383019F4877F816006C0382FA5
:104280003171313011F48E7F886021FF0DC0282FED
:104290002871283119F4877E816106C0282F217189
:1042A000213111F48E7E886194FD877E08952091DE
:1042B0008B0490915A0456E02917A9F030E0529FE0
:1042C000F001539FF00D1124E55AFB4F71817613D5
:1042D00006C07081781303C07281741306C02F5F0B
:1042E0003F4F2770E9CF80E0089581E008957E3048
:1042F000A0F4663090F494E5899FF001112486E0E3
:10430000789FE00DF11D1124E60FF11DEE0FFF1F48
:10431000ED58F64F85919491089580E090E00895CE
:10432000CF93DF938238910569F1B0F48133910521
:1043300009F46FC048F48932910509F465C08A32E6
:10434000910509F46BC08AC08533910509F457C003
:1043500089339105B9F082C0833E910571F138F43B
:10436000803E9105B1F0823E910511F177C0863E05
:104370009105B9F1873E9105C9F1843E910509F097
:104380006DC024C02091B50120FD53C021FD51C056
:1043900065C08091B50180FD46C08091B60180FF67
:1043A00048C08091B50184FD50C183EE90E04FC1BB
:1043B0008091B50182FF3AC0F4CF8091B50182FDB2
:1043C00035C08091B60180FD34C0EBCF8091B6013D
:1043D00081FF35C08091B50184FD37C187EE90E043
:1043E00036C18091B50183FF27C0F4CF8091B5011C
:1043F00083FD22C08091B60181FD21C0EBCF809169
:10440000B50185FD1FC021C08091B50185FD1DC08E
:1044100019C08091B50186FD1BC01DC08091B501FA
:1044200086FD19C015C089E390E011C182EE90E0CD
:104430000EC180EE90E00BC186EE90E008C184EEE4
:1044400090E005C189E290E002C185E390E0FFC001
:104450008AE290E0FCC081E390E0F9C0811531E58B
:10446000930708F069C0811540E59407F0F09C01BE
:1044700074E0369527957A95E1F7922F9370482F3F
:10448000437021E030E002C0220F331F4A95E2F76B
:104490003C68392B982F9F709695969540E2949F93
:1044A000C0011124822B932BD2C0883E910568F560
:1044B000803E910508F0CBC0883A9105B8F4853A62
:1044C000910548F0855AE82FF0E0EF58FE4F8081C3
:1044D00090E09064BCC08130910509F4B3C008F449
:1044E000B4C08430910508F4B0C0B1C08F3B9105D1
:1044F00008F0ABC0885AE82FF0E0EE0FFF1FEC5831
:10450000FE4F808191819464A2C0811520E29207C0
:1045100058F4811531E0930708F099C08D3E91055C
:1045200008F493C0906593C0811540E4940708F4A3
:104530008CC09F70906A8BC0811525E5920708F0AA
:1045400042C0811534E5930728F0982F8827846F9F
:10455000906A7DC0811543E59407B0F09C012370FB
:10456000332741E050E002C0440F551F2A95E2F77F
:10457000282F2695269580E2289F90011124CA01B4
:10458000822B932B9A6863C0811522E5920728F449
:10459000982F8827816F906A5AC09C012370332717
:1045A00041E050E002C0440F551F2A95E2F7282F42
:1045B0002695269580E2289F90011124CA01822B1E
:1045C000932B9C6844C0EC01811539E59307A8F44E
:1045D0008115984528F09C2F8827806F906A37C0F6
:1045E000C11586E5D80788F58C2F0E9414218F719C
:1045F00090E0982F882790622AC081152AE59207BB
:1046000090F48C2F8F700E94142194E0D695C7955A
:104610009A95E1F7CF70D0E0DC2FCC27D0699E01CE
:10462000282BC90114C090568115904270F48D2F2B
:104630008F710E941421282F2F71CE01992790622B
:10464000922B05C081E090E002C080E090E0DF9115
:10465000CF910895CF9384E090E00E941A33C82F41
:1046600082E290E00E941A332C2F30E0A901582BEF
:10467000CA01CF91089568EE7EEF80E090E00E943D
:104680004C3360E082E090E00E942E3360E083E0F3
:1046900090E00E942E331092DE011092DF01109202
:1046A000E0011092E10160E084E090E00E942E338E
:1046B00064E082E290E00E942E3360E085E090E0CA
:1046C0000E942E3360E086E090E00E942E336FEF70
:1046D00087E090E00E942E3340E050E0BA0188E08D
:1046E00090E00E94403360E08DE090E00E942E3325
:1046F00040E050E0BA0188E190E00E94403360E081
:1047000087E190E00E942E3340E050E0BA018CE156
:1047100090E00E94403360E070E080E290E00E9410
:104720004C3340E050E0BA0188E190E00E94403311
:1047300040E050E0BA018FE090E00E94403340E05A
:1047400050E0BA0183E190E00E94403308958091E7
:104750009704811110929704089580959091960482
:1047600089238093960408959091960480919504EE
:10477000982B90934C0480919704882389F0892B7F
:1047800080934C04EEE4F4E097E080E0915029F04F
:1047900021912223D9F38F5FF9CF81110E94A723A2
:1047A00048E050E06DE874E08CE494E00E94A333AC
:1047B000892BA9F088E0ECE4F4E0ADE8B4E00190E6
:1047C0000D928A95E1F7E091C005F091C10530970F
:1047D00031F00280F381E02D8CE494E00995089596
:1047E00020918C048095822380938C04982F97705D
:1047F00099F430E0482F082E000C550B241735078C
:1048000059F09091B60192FF07C0859585958595E1
:104810000E947B2F10928C040895CF93C091B60113
:10482000C2FB992790F9981791F080FBC2F9C093C9
:10483000B6016091B50184E090E00E942E336C2FA8
:1048400082E290E00E942E3382E00E94F023CF911A
:10485000089580918B0490915A04891719F08F5F05
:104860008770FBCF08950F931F93CF93DF938091B1
:10487000590482958F7009F05AC08091560488239C
:1048800009F455C080918B0410915A04609154042E
:1048900070915504C0915704D091580491E06F3F36
:1048A00009F090E0292F06E0811709F440C0209715
:1048B00021F07F3F21F030E003C031E001C0322F12
:1048C00090E030FD31C0089FF001099FF00D1124E8
:1048D000DF01A55ABB4F11963C911197371324C0A5
:1048E0003C91361321C012963C91129731111CC095
:1048F00013964D915C9114974C1B5D0B46395105F5
:1049000098F4809159048F70806180935904E05A23
:10491000FB4F80818F708061808384E594E00E94EA
:10492000FF060E94292403C001968770BDCFDF9146
:10493000CF911F910F910895A1E1B0E0E2EAF4E276
:104940000C94E0328C0185E0F801DE011D960190A7
:104950000D928A95E1F7D8011296EC90909154044B
:104960002091550440915704509158044115510528
:1049700031F02F3F31F481E09F3F19F403C081E013
:1049800001C080E080FD52C1F801D080C180A380C9
:10499000B48084E5882E84E0982EF0905604B5010A
:1049A000641B750BFF2009F4FEC080915904382F59
:1049B000307F6639710508F0C8C0311189C02C11EB
:1049C00012C09D1110C0FE2CE1100DC08F708061CF
:1049D00080935904C4010E94FF0680915904D801B4
:1049E00015968C933DC1A114B10439F0BFEFCB12E1
:1049F00006C081E0DB1203C003C081E001C080E09B
:104A000080FD03C081E08E2502C080E090E080FF41
:104A100010C04E2D6C2D8D2D0E945721882349F0FA
:104A200084E594E00E94FF06E4E5F4E086E0DF011F
:104A300094C0A114B10439F0BFEFCB1206C081E0DD
:104A4000DB1203C003C081E001C080E080FD03C031
:104A500081E08E2502C080E090E0E82FE170BE2E5C
:104A600080FF2CC04E2D6C2D8D2D0E945721F82ECD
:104A7000811124C0DD86CE868D859E850E94F62E0E
:104A8000292F22952F70223018F0243090F405C081
:104A90009F7059F0811109C0E3C09F7031F0D801B7
:104AA00015969C91907F09F4DBC0805E883008F4F5
:104AB000D7C0C8010E94FF06FB2CD2C0FE2CEE20FE
:104AC00009F4CEC08091590481608093590448C094
:104AD0002C1106C09D1104C0E11002C0F80185C070
:104AE000C8010E94CE2F882351F1EE2041F1209180
:104AF0005904822F82958F7090E0029774F0809114
:104B000054049091550498878F831986BB86AA8692
:104B10002C87CE0107960E94FF0686E0F801A4E5E7
:104B2000B4E001900D928A95E1F70E9433240AC007
:104B30002C15C1F0C8010E94CE2F81111DC0C801E3
:104B40000E94FF06FF24F3948BC03111F1CF84E55E
:104B500094E00E94FF0686E0D4011D928A95E9F751
:104B6000F12C7EC09D11E6CFE110E4CFF8018583E2
:104B7000C8010E94FF0654C0EE2009F32091590499
:104B8000822F82958F7090E002973CF280915404BE
:104B9000909155049A8389831B82BD82AC822E83B7
:104BA000CE010196B8CF66397105D0F5FE2CEE2006
:104BB00031F22C1127C09D1125C02091590420FDF0
:104BC00018C0822F82958F70482F50E041155105F3
:104BD00081F0F80125834F30510541F08F5F982F08
:104BE0009295907F822F8F70892B8583C8010E94B8
:104BF000FF0686E0F801A4E5B4E001900D928A95E5
:104C0000E1F72EC0C8010E94CE2F811186CF80917E
:104C10005904816080935904C8010E94FF0620C096
:104C200086E0D4011D928A95E9F71AC0EE2009F4B6
:104C300086CFC8010E94CE2FF82E882309F47FCF9B
:104C400086E0F801A4E5B4E001900D928A95E1F7C1
:104C500080915404909155040E94F62E0E943324B2
:104C60008F2D6196ECE00C94FC32089580912C021B
:104C7000089508958093C9057093CB056093CA0584
:104C800080913702843001F582E08093E9008FEF54
:104C90009091E800815095FD06C095ED9A95F1F749
:104CA00000008111F5CF8091E80085FF0DC040E044
:104CB00050E063E070E089EC95E00E94911C8091E7
:104CC000E8008E778093E8000895BC0184E00E949C
:104CD0003A260895BC0183E00E943A26089522E016
:104CE0002093E9002FEF3091E800215035FD06C0F8
:104CF00035ED3A95F1F700002111F5CF2091E8004C
:104D000025FF0BC040E050E066E070E00E94911C7F
:104D10008091E8008E778093E8000895CF93DF9329
:104D200021E02093E9002FEF3091E800215035FD7C
:104D300006C035ED3A95F1F700002111F5CF20912D
:104D4000E80025FF14C0EC0140E050E068E070E0AE
:104D50000E94911C8091E8008E778093E80088E0A3
:104D6000FE01ADE2B2E001900D928A95E1F7DF918C
:104D7000CF910895CF93DF93EC01E0EBF5E0438111
:104D800062818C810E948D198C818F5F8C83DF9171
:104D9000CF910895CF93DF93EC01EC81F0E0E554DF
:104DA000F34F4491E0EBF5E0628181810E948D191F
:104DB0008C818F5F8C83DF91CF9108952091E400E7
:104DC0003091E50095E64091EC00842F817040FF22
:104DD00023C08091E80080FD1DC0809137028823A8
:104DE00099F0853099F08091EB0085FD11C04091DC
:104DF000E4005091E5002417350729F3915011F094
:104E00009A01E1CF84E0089582E0089583E0089557
:104E100081E0089580E008954091E80042FFDDCFF1
:104E200008958091390287FF11C08091E80082FDCA
:104E300005C0809137028111F8CF11C08091E80040
:104E40008B770BC080913702882349F08091E8006E
:104E500080FFF8CF8091E8008E778093E800089576
:104E6000982F973068F59093E900981739F0709172
:104E7000EC002091ED005091F00003C0242F762F1C
:104E800050E021FD02C09F5FECCF3091EB003E7FF0
:104E90003093EB003091ED003D7F3093ED00309189
:104EA000EB0031603093EB007093EC002093ED0049
:104EB0005093F0002091EE0027FDE5CF80E00895AB
:104EC0008F708093E90081E0089520913F02309136
:104ED00040022617370748F06115710539F4209113
:104EE000E8002E772093E80001C0B901FC0120E022
:104EF0006115710579F1809137028823F1F18530D0
:104F0000F1F18091E80083FD3CC08091E80082FDD2
:104F10002EC08091E80080FFEBCF2091F3008091BC
:104F2000F20090E0922B6115710551F088309105E7
:104F300038F421912093F100615071090196F3CF6B
:104F400021E0089709F020E08091E8008E778093B7
:104F5000E800CECF2111CFCF0AC08091370288233D
:104F600061F0853061F08091E80083FD0AC0809196
:104F7000E80082FFF2CF80E0089582E0089583E0A8
:104F8000089581E0089578941F920F920FB60F92C2
:104F900011248F939F93AF93BF938091C5059091F8
:104FA000C605A091C705B091C8050196A11DB11D08
:104FB0008093C5059093C605A093C705B093C80517
:104FC000BF91AF919F918F910F900FBE0F901F9047
:104FD00018959C014FB7F8948091C5059091C6052E
:104FE000A091C705B091C8054FBF821B930B0895D0
:104FF0002FB7F8946091C5057091C6058091C705DB
:105000009091C8052FBF08952FB7F8948091C505DA
:105010009091C605A091C705B091C8052FBF08950E
:105020001F920F920FB60F9211248F939F93AF93FD
:10503000BF938091C405811113C08091C5059091E3
:10504000C605A091C705B091C8054196A11DB11D27
:105050008093C5059093C605A093C705B093C80576
:10506000BF91AF919F918F910F900FBE0F901F90A6
:1050700018959C012A5F3F4FFC014281461301C0F5
:105080001282019682179307B9F708959C01FC01DB
:1050900032969FEF80E04191461789F09F3F19F4C7
:1050A000411101C0982F8F5F8630A9F79F3F39F0DB
:1050B000F901E90FF11D97FDFA95628308950895AE
:1050C0002091C2053091C3052817390771F09093DC
:1050D000C3058093C205E091C005F091C1053097EA
:1050E00021F00084F185E02D099508952091BE05F9
:1050F0003091BF052817390771F09093BF05809351
:10510000BE05E091C005F091C105309721F0068001
:10511000F781E02D09950895E091C005F091C10552
:10512000309739F022E0DC012C930480F581E02DEA
:1051300009950895E091C005F091C105309729F0D7
:105140000190F081E02D0995089580E008950F9376
:105150001F93CF93DF93C42FD22FFC01828188232A
:10516000B1F04093BD050E9404289093BC05809344
:10517000BB0580E28C0F883008F068C0C77081E002
:1051800001C0880FCA95EAF70E9416305FC080916F
:10519000BD0548133DC08091BB059091BC050E94A0
:1051A000E92786399105A0F510E21D0FCD17E9F02A
:1051B00080E28C0F883040F4C77081E001C0880F16
:1051C000CA95EAF70E940F30183078F581E09D2FDC
:1051D000977001C0880F9A95EAF70E94163009333C
:1051E00051F560E570E089E329C0093319F460E501
:1051F00070E002C060E070E0802F0E94273118301C
:1052000028F5D77081E001C0880FDA95EAF70AC067
:1052100080E28C0F8830D0F4C77081E001C0880F25
:10522000CA95EAF70E940F3011C0093351F460E5C6
:1052300070E089E309C060E070E0802F0E942731B0
:10524000E0CF60E070E0802F0E942731DF91CF91A6
:105250001F910F9108958091BA059091B905882307
:1052600089F0992369F062E070E08DEB9DE00E9487
:105270006A1C892B19F08091B90508951092B9051F
:105280009091B90581E0892708958091BA05882316
:10529000F9F00E94F827DC01CB01805A9541AF4F0D
:1052A000BF4F8093B5059093B605A093B705B09313
:1052B000B8058091B90581110BC062E070E08BEBFD
:1052C0009DE00E946A1C892B19F481E08093B90546
:1052D0008091B9050895CF93E82F20914A04309129
:1052E0004B042454324040914102642F70E0C901C4
:1052F0000E94C632481B842FEE2351F066E00E94C4
:105300006233C82FC150A8F080E20E94C41BFACFBC
:10531000A901480F511D4115524018F080E020E0CE
:1053200030E0280F311D2C5B3D4F30934B04209310
:105330004A04CF9108959091B00590FF04C09695CE
:10534000981748F003C0811106C090E0961718F432
:105350000E948219089561E00E941A190895882315
:1053600011F0FA0101C0FB01099508956091B005A3
:10537000669570E04BE050E086E191E00E94963344
:10538000892B19F481E08093A2040E940428909351
:105390009C0480939B040895A5E0B0E0E2EDF9E25F
:1053A0000C94DD32509022018091B00580FF08C03E
:1053B0008090990490909A0481149104A9F42EC0CD
:1053C0008091230190912401891790F7E82FF0E054
:1053D0009F01220F331FE20FF31FEB55FB4F11828A
:1053E000108212828F5FF0CF80919804811116C0D5
:1053F000A12CB12C66246394712C2091A304C301C9
:105400000A2C01C0880F0A94EAF7822309F454C0D9
:10541000F401C590D490C114D104B9F5E0912101F3
:1054200023E0E29FF0011124EB55FB4F539A8BB11F
:10543000877F9BB198602FB7F894AF0133E0539EFC
:10544000400D511D112444C010E08A819801280F9D
:10545000311DC9012A35310514F089E590E07C0140
:10546000EE0CFF1C8E0D9F1D9C012B553B4F7901AF
:10547000C801880F991F080F191F0B551B4F0E15D8
:105480001F0570F035E0C30ED11C45E050E0B601B9
:10549000CE0101960E94113309810F3FA9F60CC07D
:1054A0004D81413808F040E898016C818B810E9461
:1054B000BC170D5F1F4FE3CF82E0880E911C9FEF5A
:1054C000A91AB90A28E0A216B10409F096CFA6CF0E
:1054D0004E175F0789F0319168E09BB9000000C06A
:1054E00037FF8BB9330F000000C000C000C08BB97C
:1054F00000C06A9591F7ECCF2FBF8FE594E001973C
:10550000F1F700C000002596EFE00C94F932A0E01E
:10551000B0E0EDE8FAE20C94E132FC01828180FF18
:1055200003C0CC24CA9402C0CC24C394D12C39E546
:10553000932EA0902501DA1408F041C08091230138
:10554000ED2CF12CE701C80FD11DCE01880F991F5A
:10555000C80FD91FCB55DB4F198218821A8204E07D
:1055600010E0B12C8091A4048B0D8A352CF0692DAC
:105570000E946E33892F02C087FD8A0D082E000C11
:10558000990BE816F906A9F48091B305809FA00154
:10559000819F500D11245595479555954795413854
:1055A00008F040E89E016091B2058091B1050E942B
:1055B000BC17BC0C01501109A9F6D394BACF0E94B4
:1055C000CC298091A404F1E0CF1206C0811102C061
:1055D00080912501815007C090E0019660912501DE
:1055E00070E00E947C338093A404CDB7DEB7EBE07B
:1055F0000C94FD32FF920F931F93CF93DF93EC0136
:10560000F12C0FE710E060912501F61608F5809166
:1056100023012F2D30E0280F311DC901880F991F5C
:10562000280F391F2B553B4F4091B305413808F0E7
:1056300040E870E0C8010E947C33962F8C81609115
:10564000B205F99E800D11240E94BC17F394DBCFA4
:105650000E94CC299A818C8190FF02C08F5F01C08B
:1056600081508C83CDB7DEB7E5E00C9403339C0109
:105670003A9521153F4130F5BC0166277270AC01A7
:10568000442754709C012227387094FF0FC090FF6C
:1056900002C080E101C080E0672B09F08062452BE9
:1056A00009F08064232B79F080680895892F817038
:1056B000672B09F08260452B09F08460232B19F0D9
:1056C0008860089580E00895A7E1B0E0EAE6FBE293
:1056D0000C94E9324B8B5C8B6D8B7E8B8F8B6111C5
:1056E0001092950486E09E01235F3F4FD901E82F79
:1056F0001D92EA95E9F795E0FE017396D9010190B4
:105700000D929A95E1F79C894E895F897B897D8707
:105710009E876F87598B488BF901DE0117960190A0
:105720000D928A95E1F7CE0107960E949C24811183
:105730003EC086E0FE013796DE01119601900D9283
:105740008A95E1F7FF81E8856A857B85611571059A
:1057500031F0EF3F31F481E0FF3F19F403C081E005
:1057600001C080E080FD23C020915A0430E0C901CF
:1057700001968770992740918B0450E08417950714
:1057800079F1F983EA837D836C8396E0929FD0015F
:10579000939FB00D1124A55ABB4FFE013196019085
:1057A0000D929A95E1F780935A040E94292416E0FD
:1057B00080918B0490915A048917F9F0189FC001C9
:1057C0001124855A9B4F0E949C248823B1F080911C
:1057D0008B0490E001968770992780938B04E8CF23
:1057E0000E94EE2F10925A0410928B04E4E5F4E02C
:1057F00086E0DF011D928A95E9F76796E3E00C9455
:105800000533CF92DF92EF92FF926C01EE24FF24DA
:10581000C114D104E104F10421F0C701B60120E173
:1058200001C020E0C72ED82EE92EFF24C114D104D8
:10583000E104F10419F0285FC701B6016B017C0196
:1058400054E0F694E794D794C7945A95D1F7C114CD
:10585000D104E104F10419F02C5FC701B6016B011A
:105860007C0142E0F694E794D794C7944A95D1F727
:10587000C114D104E104F10419F02E5FC701B6018F
:10588000DC01CB01B695A79597958795892B8A2B37
:105890008B2B09F02F5F822FFF90EF90DF90CF903E
:1058A00008950E94EE2F2FEF84E39CE0215080406A
:1058B0009040E1F700C000009AE088E10FB6F8944C
:1058C000A895809360000FBE90936000FFCFCF92A9
:1058D000DF92EF92FF926B017C01611571058105EA
:1058E000910561F0DC01CB0133E0B695A795979562
:1058F00087953A95D1F7682F617001C060E081E02B
:105900000E945519C114D104E104F10461F0D701DA
:10591000C60124E0B695A795979587952A95D1F766
:10592000682F617001C060E082E00E9455196091AB
:10593000DE017091DF018091E0019091E1010E9410
:10594000012C8130A9F060F08230E9F42BEA34E0D8
:1059500040E36FEF89EA0E94BC1740E060EC15C09D
:105960002BEA34E040E16FEF85E50E94BC170BC0E5
:105970002BEA34E040E16FEF8FE70E94BC1740E074
:1059800060E480E603C040E660E080E00E94511CD5
:10599000C701B6010E94012C833051F08430D1F44C
:1059A0002BEA34E04FE760E884E90E94BC171CC092
:1059B0002BEA34E040E66FEF85E50E94BC1740E03B
:1059C00060E08FEF0E94511C81E080930C0280ED1B
:1059D00097E008C080910C02882331F010920C02ED
:1059E00080E895E20E942B16C701B601FF90EF9068
:1059F000DF90CF900895CF93C82F25EA34E081FF40
:105A000002C040E801C040E16FEF80E00E94BC1797
:105A100028EA34E0C0FF02C040E601C040E16FEF79
:105A200080E20E94BC170E94CC29CF910895CF93A9
:105A3000C82F0E94FB2CC1FB662760F980E00E9402
:105A40005519CF9108950F931F93CF93DF93162F7E
:105A500081111BC06091DA017091DB018091DC0142
:105A60009091DD010E94012C843049F480E01123E3
:105A700019F00E94FC1809C00E940B1906C01123DE
:105A800011F0C8E001C0C3E0D5E08D2F9C2F0E942B
:105A9000BA2E6D2F7C2F0E947721EC018C01005EC5
:105AA00011090830110510F0009729F40E94372BD6
:105AB0000E94163004C00E94372B0E9405308C2FA4
:105AC0000E948330C933D10549F42FEF87EE93E06C
:105AD000215080409040E1F700C000008C2F0E94D0
