:100000000C9412070C942F070C942F070C942F07B5
:100010000C942F070C942F070C942F070C942F0788
:100020000C942F070C942F070C9442200C94FD1E67
:100030000C94D5210C942F070C942F070C942F07A8
:100040000C942F070C942F070C942F070C942F0758
:100050000C942F070C9488210C942F070C942F07D5
:100060000C942F070C942F070C942F070C942F0738
:100070000C942F070C942F070C942F070C942F0728
:100080000C942F070C942F070C942F070C942F0718
:100090000C942F070C942F070C942F070C942F0708
:1000A0000C942F070C942F070C942F079F08A60879
:1000B000AF08EC081A0949097809A709D609050A01
:1000C000370A660A950AC40AF00A220B570BEA0D92
:1000D000EA0D1D0E1D0E900EAE0EF90FF90FF60E65
:1000E0006A0F7B0F7B0FFE1601171D172A1731179A
:1000F0003C173F178117A31748184818AE17B017B9
:10010000B417DA17FD17001803182718DF29062A75
:10011000AF2B062AAF2B522A752AAF2B6A2B7A2BCC
:1001200000000000000000000000000000000000CF
:1001300000000000000000000000000000000000BF
:10014000000000007E0F00D4FFFFFFC70000007812
:1001500000000000000000002A2B28000000000022
:100160000000000000000000000000290000000066
:100170002C1E3420212224342627252E362D3738D4
:10018000271E1F202122232425263333362E3738DD
:100190001F0405060708090A0B0C0D0E0F1011129B
:1001A000131415161718191A1B1C1D2F3130232D67
:1001B000350405060708090A0B0C0D0E0F10111265
:1001C000131415161718191A1B1C1D2F3130354C16
:1001D000220400FFFF290100FFFF370300FFFF2B70
:1001E0000555FFFF3A0555FFFF480555FFFF54052C
:1001F00055FFFFFF00000000510200FFFFFF00005D
:100200000000090100FFFFFF0000000000DA02818A
:10021000FFD9F1DB20A4A62EAF00A0C000A1C8002A
:10022000AED580A81FD300408D1420000202F80133
:10023000D0010000643214643214783C1E1E140A8B
:10024000052D2D2D2D2D20003C5343523E20002DF9
:100250002D2D2D2D2020003C4E554D3E2020002DD3
:100260002D2D2D2D2D2020003C434150533E20208C
:100270000044564F52414B0041444A5553540A00E2
:10028000466E310A004C617965723A004A4953283A
:10029000313039290A00414E534928313034290A76
:1002A000004F5054494D41363135205265762E323B
:1002B0002E300A4D6F6465203A0000AF00AE290071
:1002C0002B00E000E1000000E0001F0036001200FB
:1002D0001400E2008B422100130018000E00F6000B
:1002E000F40039002A00000028002C72FA002400D3
:1002F0000A000B0010004A005000260015001100F3
:1003000019004D004F002F002D00380031004C0027
:100310004E001E00340004003300E300650020009E
:10032000370008000D002C42F90022001C000C00D0
:100330001B000000F5002300090007000500E6008F
:100340008A712500060017001A005200510027008C
:100350000F0016001D004900287130002E00464392
:10036000E5002A004B00010001000100010000002F
:100370000100AF5D0100010001000100010001006A
:1003800001000100010001000100BD5D010000004D
:10039000010001000100B15D010001000100010048
:1003A0000100B35D01000100010001000100B75D23
:1003B000B55D0100B95D010001000100BB5D0100F8
:1003C000BA5D01000100010001000100010001000F
:1003D0000100010001000100010000000100B05D0A
:1003E00001000100010001000100B25D01000100F7
:1003F000010001000100B45D0100010001000100E5
:100400000100B85DB65D4643010001000100350002
:10041000010001000100000001003B00400051000C
:100420001B01010001003D0042004F0019011A01AB
:10043000F70049000100000001000100FB0040003E
:1004400000005200510059006200420000005F00AD
:100450005C005B0063004400000061005E00560029
:100460002E003A003F0050001D01010001003C0039
:100470004100520006010100FC003E0043004B0019
:100480004E000000F8003F0000004A0050004B0002
:100490004E00410000004D004F005A00AE5D430089
:1004A000000060005D0054005871450000004600E7
:1004B000577201005500AD5D000000000100000012
:1004C00001000000C55CC65C0000010001000000E6
:1004D000C95CCA5C0000005C010053000000000021
:1004E00000000152010000000000A8000000000010
:1004F000000000000000A90000000000000047000C
:10050000000000000000A60000000000BD00BE00CA
:100510000000010001000000C75CC85C0000005240
:1005200001000000C35CC45CC25C0000010000006C
:100530000000000000000100000000000000AA0010
:100540000000000000004600000000000000000065
:10055000010048000000010001000000000000014F
:100560000101010101010101020202020202020273
:100570000203030303030303030404040404040445
:100580000505050505060606060607070707070809
:10059000080808090909090A0A0A0B0B0B0C0C0CBC
:1005A0000D0D0D0E0E0E0F0F0F1010111111121256
:1005B00013131414151516161717181819191A1AD3
:1005C0001B1B1C1D1D1E1E1F202021222223242434
:1005D000252626272829292A2B2C2D2D2E2F303170
:1005E0003232333435363738393A3B3C3D3E3F4082
:1005F0004142434445464748494A4C4D4E4F50516D
:100600005354555658595A5B5D5E5F616264656626
:1006100068696B6C6D6F7072737577787A7B7D7EAD
:100620008082838587888A8C8E8F91939596989AFD
:100630009C9EA0A2A3A5A7A9ABADAFB1B3B5B7BA15
:10064000BCBEC0C2C4C6C9CBCDCFD1D4D6D8DBDDE9
:10065000DFE2E4E7E9EBEEF0F3F5F8FAFDFF050180
:100660000902A10185020901A10005091901290852
:100670001500250195087501810205010930093130
:100680001581257F95027508810609381581257F1A
:10069000950175088106050C0A38021581257F959C
:1006A0000175088106C0C005010980A101850319F3
:1006B000012AB700150126B700950175108100C009
:1006C000050C0901A101850419012AA002150126C2
:1006D000A002950175108100C00660FF0961A101AB
:1006E0000962150026FF009520750881020963152F
:1006F0000026FF00952075089102C005010906A19A
:1007000001050719E029E715002501950875018104
:10071000029501750881010507190029FF150026BA
:10072000FF00950675088100050819012905950542
:1007300075019102950175039101C009025B0003E7
:100740000100A0FA090400000103010100092111C0
:10075000010001224000070581030800010904018E
:1007600000020300000009211101000122220007FC
:10077000058203200001070503032000010904028C
:10078000000103000000092111010001227B000784
:1007900005840320000112010002000000084B4CF8
:1007A00015060200010200011E034F005000540014
:1007B00049004D0041003600310035002000520054
:1007C000650076003200000010034C0065006B00ED
:1007D000690070006F006E00000004030904070840
:1007E0007F0807003E5B4F5B3E003E6B4F6B3E0059
:1007F0001C3E7C3E1C00183C7E3C18001C577D575C
:100800001C001C5E7F5E1C0000183C180000FFE707
:10081000C3E7FF00001824180000FFE7DBE7FF0034
:1008200030483A060E00262979292600407F050522
:100830000700407F05253F005A3CE73C5A007F3EB9
:100840001C1C0800081C1C3E7F0014227F22140080
:100850005F5F005F5F0006097F017F00006689958A
:100860006A0060606060600094A2FFA294000804C7
:100870007E04080010207E20100008082A1C0800B2
:10088000081C2A0808001E10101010000C1E0C1E58
:100890000C0030383E383000060E3E0E06000000D8
:1008A0000000000000005F000000000700070000DB
:1008B000147F147F1400242A7F2A12002313086453
:1008C0006200364956205000000807030000001C53
:1008D000224100000041221C00002A1C7F1C2A002B
:1008E00008083E080800008070300000080808086A
:1008F00008000000606000002010080402003E5163
:1009000049453E0000427F40000072494949460087
:100910002141494D33001814127F100027454545E9
:1009200039003C4A49493100412111090700364943
:1009300049493600464949291E00000014000000BC
:100940000040340000000008142241001414141464
:1009500014000041221408000201590906003E411A
:100960005D594E007C1211127C007F4949493600C6
:100970003E41414122007F4141413E007F4949497A
:1009800041007F09090901003E41415173007F0880
:1009900008087F0000417F4100002040413F0100E6
:1009A0007F08142241007F40404040007F021C022B
:1009B0007F007F0408107F003E4141413E007F09D7
:1009C000090906003E4151215E007F0919294600B0
:1009D00026494949320003017F0103003F4040405E
:1009E0003F001F2040201F003F4038403F0063145D
:1009F000081463000304780403006159494D43005F
:100A0000007F4141410002040810200000414141A3
:100A10007F00040201020400404040404000000307
:100A2000070800002054547840007F2844443800D0
:100A3000384444442800384444287F0038545454EF
:100A4000180000087E09020018A4A49C78007F0802
:100A50000404780000447D4000002040403D000038
:100A60007F102844000000417F4000007C0478048F
:100A700078007C0804047800384444443800FC18AA
:100A80002424180018242418FC007C0804040800FE
:100A900048545454240004043F4424003C40402063
:100AA0007C001C2040201C003C4030403C0044287E
:100AB000102844004C9090907C004464544C4400B6
:100AC00000083641000000007700000000413608B1
:100AD00000000201020402003C2623263C00000024
:100AE00000000000404040F0F8F8FF38FFF8F83F01
:100AF000F8F8FF38FFF8F8F0404040000000000030
:100B00000080C0C0C0800000C0C08000000080C065
:100B1000C000C0C0000080C0C00000000000C0C015
:100B2000C0C0C000C0C00000000000000000000005
:100B300000000000000000000000000000000000B5
:100B400000000000000000000000000000000000A5
:100B500000000000000000000000000000C0F0F8ED
:100B6000FC3E1E06010000007F4141417F007F41A5
:100B700041417F000080C0E07E5B4F5BFEC0000013
:100B8000C000DCD7DEDEDED7DC00C00000000000E5
:100B90000000000000000000000000000000000055
:100BA00000000000494949FFFFFFFFE0DFBFBF0031
:100BB000BFBFDFE0FFFFFFFF494949000000000021
:100BC0001F3F6060E0BF1F007F7F071E381E077F4A
:100BD0007F007F7F0E1F3B716000000000007F7F61
:100BE0000C0C0C007E7E007F7E0303007F7E0303DF
:100BF0007E7E03037F7E000F3E703C063C703E0FFE
:100C000000327B49493F7E007F7E0303001E3F691F
:100C1000696F2600000000000000000000030F1FA5
:100C20003F3C7870600000007F4141417F007F4180
:100C300041417F00307B7F7830202030787F3B003F
:100C400003000F7F0F0F0F7F0F0003000000000055
:100C50000000000000000000000000000000000094
:100C600000000000010101070F0F7F0F7F0F0F7EB3
:100C70000F0F7F0F7F0F0F07010101000000000021
:100C80000000000000010100000000000000000062
:100C90000000000000000000000000000000000054
:100CA0000000000000000000000000000000000044
:100CB0000000000000000000000000000000000034
:100CC0000000000000000000000000000000000024
:100CD0000000000000000000000000000000000014
:100CE0000000000000000000000000000000000004
:100CF00000000000000000000000000000000000F4
:100D000000000000000000000000000000000000E3
:100D10000000000000000000000000000000FFAA2A
:100D20007F55402223252628292A2C2D2F30323387
:100D30003536383A3B3D3E4042434547494A4C4EA2
:100D40005051535557595A5C5E6062646668696BCE
:100D50006D6F71737577797B7D7F81838587898AD4
:100D60008C8E90929496989A9C9E9FA1A3A5A7A8DA
:100D7000AAACAEAFB1B3B4B6B8B9BBBCBEBFC1C20A
:100D8000C3C5C6C7C9CACBCCCDCED0D1D2D2D3D49D
:100D9000D5D6D7D7D8D9D9DADADBDBDBDCDCDCDCBB
:100DA000DCDDDDDDDDDCDCDCDCDCDBDBDBDADAD989
:100DB000D9D8D7D7D6D5D4D3D2D2D1D0CECDCCCB0B
:100DC000CAC9C7C6C5C3C2C1BFBEBCBBB9B8B6B429
:100DD000B3B1AFAEACAAA8A7A5A3A19F9E9C9A98B9
:100DE000969492908E8C8A89878583817F7D7B798A
:100DF000777573716F6D6B6968666462605E5C5A6B
:100E00005957555351504E4C4A4947454342403E2D
:100E10003D3B3A3836353332302F2D2C2A292826BF
:100E20002523220011241FBECFEFDAE0DEBFCDBFA5
:100E300011E0A0E0B1E0E0E6FDE602C005900D9211
:100E4000A43BB107D9F725E0A4EBB1E001C01D92A6
:100E5000AC3FB207E1F70E94DD100C94AE360C9463
:100E60000000A7E1B0E0E7E3F7E00C947F35FC0178
:100E70008081918123813481232B31F09F3F31F494
:100E800091E08F3F19F403C091E001C090E090FF22
:100E900002C00C94D9107F0185E0DE0153960190C9
:100EA0000D928A95E1F7F70122818B899C89222393
:100EB00049F00E94DE1B182F682F8B899C890E94A5
:100EC000E71D03C00E94B31D182F6B897C89812FF9
:100ED0000E9462238C01F7018281882309F4F5C006
:100EE000980122513F452031310508F00FC18FEFA5
:100EF00093E00E94BE358111F2C0025137EC832E7F
:100F000032E0932E002379F08114F4E09F0609F477
:100F1000E6C0C4010E94BE35811101C001502FEF0F
:100F2000821A920AEFCF19821A821B821C824424F1
:100F300043942AE0322E84010F5F1F4FC4010E94A8
:100F4000BE3589831A82882309F4C9C09FEF980FA0
:100F5000933060F48A83498232E0830E911CC80189
:100F60000E94BE358B83811102C0B9C048018E0139
:100F70000F5F1F4FF80120812223E9F2213009F091
:100F80004CC08181813049F46801F2E0CF0ED11C60
:100F9000F80182810E94C4330AC0823051F4680192
:100FA000F2E0CF0ED11CF80182810E9466338601E7
:100FB00089C0833049F46801F2E0CF0ED11CF801FA
:100FC00082810E942B33F3CF843019F00F5F1F4FC3
:100FD00079C0F80122810E5F1F4F80E090E030E081
:100FE000205331092A30310568F4389EA001399E1A
:100FF000500D1124C901840F951F0F5F1F4FF80179
:101000002081EDCF009709F45DC0EFE9FFE0319753
:10101000F1F700C000000197F5CFE22FF0E0E05BB0
:10102000FE4F5490822F86958695869590E0FC0120
:10103000E05CFE4F64902770712C022E02C0759404
:1010400067940A94E2F7F1E06F227724FC01E05DF7
:10105000FE4FA490B12C022E02C0B594A7940A941E
:10106000E2F731E0A322BB24FC01E05EFE4FC49016
:10107000D12C02C0D594C7942A95E2F741E0C4224E
:10108000DD246114710419F081EE0E946633A1140D
:10109000B10419F086EE0E946633852D0E94C43398
:1010A000A114B10419F086EE0E942B33611471046F
:1010B00019F081EE0E942B33C114D10419F08CE297
:1010C0000E94C4330F5F1F4F55CF00313FE5130718
:1010D00009F0B0C781E00E94231E0E94C6288091BB
:1010E0007102877011F40C94D910F7018281882362
:1010F00011F40C94D9108091C80182FD02C00C94A7
:10110000D91082E00E94301E0C94D9100031FFE506
:101110001F0711F481E005C001312FE5120721F40A
:1011200082E00E94691ED9CFF801ED5AFD45E131F8
:10113000F10508F0F4C2EA5AFF4F0C9456368823A2
:1011400071F20E943E258091F405BFC28111C7CF84
:1011500082E60E94C43382E60E94C433C0CF882353
:1011600009F4BDCF8091100291E0382F327081FFD9
:1011700090E09093B70191E0282F207285FF90E0D6
:101180009093B601311103C0211104C020C081EE3B
:101190000E942B338091B601882319F085EE0E94BE
:1011A0002B338FE20E9466338FE20E942B338091B3
:1011B000B701882319F081EE0E9466338091B60151
:1011C000882309F48CCF85EE0E94663388CF8FE1A7
:1011D0000E9466338FE12BC0882309F480CF809171
:1011E000100291E0382F327081FF90E09093B701A8
:1011F00091E0282F207285FF90E09093B601311185
:1012000003C0211104C00FC081EE0E942B338091D6
:10121000B601882319F085EE0E942B338EE20E94DE
:1012200066338EE2C2CF83E20E94663383E20E947D
:101230002B3355CF882309F452CF8091100291E0CF
:10124000382F327081FF90E09093B70191E0282F02
:10125000207285FF90E09093B601311103C02111F7
:1012600004C012C081EE0E942B338091B601882306
:1012700019F085EE0E942B3381EE0E94663383E2E3
:101280000E94663383E207C284E20E94663384E2EE
:10129000CECF882309F423CF8091100291E0382F1C
:1012A000327081FF90E09093B70191E0282F207277
:1012B00085FF90E09093B601311103C0211104C065
:1012C00012C081EE0E942B338091B601882319F061
:1012D00085EE0E942B3381EE0E94663384E30E94E8
:1012E000663384E3D8C185E20E94663385E29FCFEE
:1012F000882309F4F4CE8091100291E0382F3270E7
:1013000081FF90E09093B70191E0282F207285FF34
:1013100090E09093B601311103C0211104C012C0B6
:1013200081EE0E942B338091B601882319F085EE5F
:101330000E942B3381EE0E94663385E20E94663361
:1013400085E2A9C186E20E94663386E270CF8823D7
:1013500009F4C5CE8091100291E0382F327081FFE0
:1013600090E09093B70191E0282F207285FF90E0E4
:101370009093B601311103C0211104C012C081EE57
:101380000E942B338091B601882319F085EE0E94CC
:101390002B3381EE0E94663386E20E94663386E23A
:1013A0007AC187E20E94663387E241CF882309F43D
:1013B00096CE8091100291E0382F327081FF90E03C
:1013C0009093B70191E0282F207285FF90E09093D1
:1013D000B601311103C0211104C012C081EE0E9478
:1013E0002B338091B601882319F085EE0E942B33B0
:1013F00081EE0E94663387E80E94663387E84BC11E
:101400008DE20E9466338DE212CF882309F467CE05
:101410008091100291E0382F327081FF90E090931C
:10142000B70191E0282F207285FF90E09093B601DC
:10143000311103C0211104C012C081EE0E942B3370
:101440008091B601882319F085EE0E942B3381EE3E
:101450000E94663383E30E94663383E31CC181EEFE
:101460000E9466338DE20E9466338DE22AC1882392
:1014700009F435CE8091100291E0382F327081FF4F
:1014800090E09093B70191E0282F207285FF90E0C3
:101490009093B601311103C0211104C012C081EE36
:1014A0000E942B338091B601882319F085EE0E94AB
:1014B0002B3381EE0E94663380E30E94663380E323
:1014C000EAC080E30E94663380E3B1CE882309F44A
:1014D00006CE8091100291E0382F327081FF90E0AB
:1014E0009093B70191E0282F207285FF90E09093B0
:1014F000B601311103C0211104C012C081EE0E9457
:101500002B338091B601882319F085EE0E942B338E
:1015100081EE0E94663382E30E94663382E3BBC0A1
:1015200082E30E94663382E382CE882309F4D7CD1A
:101530008091100291E0382F327081FF90E09093FB
:10154000B70191E0282F207285FF90E09093B601BB
:10155000311103C0211104C012C081EE0E942B334F
:101560008091B601882319F085EE0E942B3381EE1D
:101570000E94663389E80E94663389E88CC087E858
:101580000E94663387E853CE882309F4A8CD809162
:10159000100291E0382F327081FF90E09093B701F4
:1015A00091E0282F207285FF90E09093B6013111D1
:1015B00003C0211104C00FC081EE0E942B33809123
:1015C000B601882319F085EE0E942B3384E30E9434
:1015D000663384E3EACD83E30E94663383E327CE58
:1015E000882309F47CCD8091100291E0382F32706D
:1015F00081FF90E09093B70191E0282F207285FF42
:1016000090E09093B601311103C0211104C012C0C3
:1016100081EE0E942B338091B601882319F085EE6C
:101620000E942B3381EE0E9466338FE10E94663365
:101630008FE131C081EE0E94663384E20E946633FE
:1016400084E23FC0882309F44ACD8091100291E0E2
:10165000382F327081FF90E09093B70191E0282FEE
:10166000207285FF90E09093B601311103C02111E3
:1016700004C015C081EE0E942B338091B6018823EF
:1016800019F085EE0E942B3381EE0E9466338FE2C3
:101690000E9466338FE20E942B3381EE86CD81EE6D
:1016A0000E9466338EE20E9466338EE20AC088236F
:1016B00009F415CD81EE0E94663389E30E946633FA
:1016C00089E30E942B3381EEB2CD81608093F405D3
:1016D00061E0869521C0811152C006315CE5150795
:1016E00009F4CAC180917B0282720C3C3CE513076D
:1016F00009F448C508F40EC2013D4CE5140709F48D
:101700004FC508F0E0C40E3C8CE5180709F442C54B
:1017100008F0CCC461E081E00E94582FE0CC033F88
:10172000FCE51F0799F406E221EE40EE63EF7CE54D
:1017300009C0073D5CE5150771F606E221EE41EEB2
:1017400067ED7CE5C7010E945F22C9CC043F2CE510
:10175000120708F05CC1083D3CE5130731F407E2CD
:1017600025EE45EE68ED7CE5EDCF093D4CE514072F
:1017700001F708E221E045EE69ED7CE5E3CF109248
:10178000850203305DE5150758F40A3F8CE518071C
:1017900080F4C80182509C45449708F057C109C0A5
:1017A00001369DE5190729F0053AEDE51E0709F018
:1017B0004DC10E949A1A9093C8018093C7010131CC
:1017C000FCE51F0709F4C9C008F043C009303CE537
:1017D000130709F49EC008F505305CE5150709F408
:1017E00088C080F403309CE5190709F47BC008F039
:1017F0007DC00230FCE51F0709F0F9C08091C701E8
:101800008160F3C007302CE5120709F47AC008F0B4
:101810007CC08091C7018061E8C00D304CE51407A1
:1018200009F489C058F40B308CE5180709F47BC023
:1018300008F07DC08091C701886071C00F30ECE571
:101840001E0709F482C008F084C08091C701877F19
:10185000CCC00D3F2CE5120709F473C008F5053123
:101860004CE5140709F487C068F403318CE51807C8
:1018700009F477C008F097C00E94F9328091C7013F
:101880008F77B3C00B3FECE51E07B9F108F056C0E7
:101890000A3F2CE5120709F0AAC08091C80141C097
:1018A00001303DE5130709F48AC058F40F3F5CE5A9
:1018B000150709F45BC008F06AC08091C801826016
:1018C00030C001369DE5190709F47FC0053AEDE502
:1018D0001E0709F484C00230FDE51F0709F087C028
:1018E00060E06EC08091C70182607FC08091C701B7
:1018F00016C08091C701886078C08091C80182605D
:101900004FC08091C701806270C08091C701806420
:101910006CC00E94F9328091C701806866C0846003
:1019200064C081603DC08091C7018E7F5EC08091A0
:10193000C7018D7F5AC08091C70116C08091C80130
:1019400018C08091C8018D7F2BC08091C7018F7E08
:101950004CC08091C7018F7D48C08091C7018F7BAB
:1019600044C08091C701877F8B7F3FC08091C801B1
:101970008D7F8E7F15C08091C70182FB222720F9C1
:1019800091E0922790FB82F990FB83F92EC0809121
:10199000C801982F909591708E7F892B90FB81F9CB
:1019A0008093C80124C00E94F9328091C70187FB4F
:1019B000222720F991E0922790FB87F916C061E079
:1019C0008EE090E00E94D23512C08091C70184FB66
:1019D000222720F991E0922790FB84F906C080919C
:1019E000C701982F909590FB80F98093C701609173
:1019F000C7011091C80184E090E00E94D235612FA8
:101A000082E290E00E94D2350E94F93268CB053F15
:101A10009CE5190731F406E221EE42EE65EF7CE524
:101A200091CE053FECE51E0730F407E225EE44EECB
:101A300064EF7CE587CE063FFCE51F0709F04BCE3F
:101A400007E225EE46EE66EF7CE57CCE06312CE51E
:101A5000120731F580917B028A7A91E009F490E0D7
:101A60009093B801882311F065E301C069E280E139
:101A700092E00E94FE2111C08091B801882309F4F0
:101A8000E0C285E3E0E1F2E09281891301C01282B5
:101A9000319622E0E631F207B9F70E942F1B1FCBE7
:101AA0000A353DE5130781F160F401155CE5150782
:101AB00091F00E3D8CE5180709F03FC00E94B71A5F
:101AC00018C00C359DE51907B9F000F1073AFDE59E
:101AD0001F0779F032C00E94F9322FEF34E34CE057
:101AE000215030404040E1F700C000000E947721C3
:101AF000F6CA0E94A830F3CA8091C80182FB8827E9
:101B000080F991E0892703C081E001C080E00E9454
:101B10004D1E13C0063C5CE5150709F41FC308F011
:101B2000A1C2033CECE51E0709F40EC308F08BC20A
:101B3000023C2CE5120709F4E7C2F701828100811B
:101B40001181882349F0C8010E94DE1BD82E682F1E
:101B5000C8010E94E71D04C0C8010E94B31DD82E11
:101B6000B8018D2D0E9462230E940019B82E192FF2
:101B7000982EF7010281A580A2949FE0A92280916E
:101B800071028770B9F00023A9F0812F807F803423
:101B900021F080E28B0D883068F08091C80182FFCF
:101BA00009C082E00E94301E809171028770DD249E
:101BB000D3948111D12CC12EC2948FE0C8228C2DD8
:101BC00090E08C30910508F014C2FC01E959FF4FF8
:101BD0000C945636812F807F1F70882311F0129548
:101BE000107F0023B9F0112309F4F1C180E28B0DBD
:101BF000883010F0911006C080917B02182B109352
:101C00007B0205C080917A02182B10937A020E9401
:101C10002F1BDDC18B2D0E942B33112309F4E9C149
:101C200080E28B0D883080F1992071F110958091C0
:101C30007A02182310937A022AC0812F807F1F70A6
:101C4000803211F01295107F8B2D992021F0F1E058
:101C50009F16D9F149C08091C80182FD1BC00023A5
:101C600069F0112339F080917B02182B10937B02CD
:101C70000E942F1B80E00E946633BBC180E00E945F
:101C80002B33112309F4B5C1812F0E94281B0E9418
:101C90002F1BAFC1002381F080917C02AA2051F05C
:101CA00021E0A21207C0182B181709F4A2C1109343
:101CB0007C029FC1812B10C0AA2021F031E0A31625
:101CC00009F497C10E94221B27C0002341F045E080
:101CD0004A1508F48EC1812F0E9421338AC154E035
:101CE0005A1508F486C118C0002349F0AA2099F3B8
:101CF000F701858180FF6BC18F708583ECCFAA20AF
:101D000059F0893309F072C1FFEF27EE33E0F1504B
:101D100020403040E1F768C1812F0E941A3369C129
:101D2000812F86958695837019F0813061F061C1AD
:101D3000002321F08B2D912F937002C080E090E062
:101D40000E942E225EC1002321F08B2D912F9370D3
:101D500002C080E090E00E94182253C18B2D002326
:101D600019F00E947F2702C00E94C6268CE08B0DCE
:101D70008530C8F5282F81E090E0AC0102C0440F07
:101D8000551F2A95E2F786E0E9EAF2E0DE011796B0
:101D900001900D928A95E1F786E0FE013796DE010B
:101DA0001D9601900D928A95E1F79885002319F010
:101DB000892F842B03C0842F809589238E8796E0FA
:101DC000FE013D96DE01119601900D929A95E1F784
:101DD0008A8386E0FE013196A9EAB2E001900D9275
:101DE0008A95E1F70EC10E94DA270BC1812F83701B
:101DF000A9F5011102C14B2D429546954770440F3C
:101E0000440F8B2D8F7090E09C01042E01C0220F97
:101E10000A94EAF7B4FE08C08FE090E001C0880F92
:101E20004A95EAF7809501C080E0169516951370E3
:101E3000123069F088F49091DE01113019F0822B94
:101E4000892302C0922B892B0E94751ED6C0822B3B
:101E50009091DE018927F8CF822BF6CF002319F06D
:101E6000812F817001C08695882309F4C6C04B2D4F
:101E7000429546954770440F440F8B2D8F7090E02C
:101E80009C01042E01C0220F0A94EAF7B4FE08C098
:101E90008FE090E001C0880F4A95EAF7809501C075
:101EA00080E0169516951370123059F078F49091E1
:101EB000D002113019F0822B892309C0922B892B73
:101EC00006C0822B9091D002892701C0822B0E94EC
:101ED0001C1E93C01F70002339F0812F0E94691EC1
:101EE0008B2D0E94213389C08B2D0E941A33812FA4
:101EF0000E94231E82C08B2D52EF951681F1591539
:101F000038F090EF991659F0E1EF9E1619F15BC089
:101F1000F3EF9F1659F124EF9216C1F054C000233D
:101F200081F034E03A1508F464C01F7181E090E05C
:101F3000012E01C0880F0A94EAF79091D0028927F8
:101F400020C045E04A1508F454C0EFCF8091C80185
:101F500082FD1AC0002329F0812F8F7127C0002332
:101F6000D9F3812F8F710E94231E43C0002341F0BB
:101F70001F7181E0012E01C0880F0A94EAF701C0A9
:101F800080E00E941C1E35C0002399F01F71812F34
:101F90000E94691E8091C80182FF07C058E0159F0A
:101FA000C0011124836080937102812F0E94691EF9
:101FB00020C081E00E94301E81E08A15D0F482E0CA
:101FC0000E94301E16C0002321F0AA2029F28B2D7A
:101FD00052CEAA2031F2893349F49FEFE7EEF3E0C5
:101FE0009150E040F040E1F700C000008B2D0E94CE
:101FF0002B3388EF8C0D843020F40E9452220E94F3
:102000003C31DD2009F4D5C08091710280FDD1C042
:10201000F70112828595859585950E94691EC701F5
:102020000E943107809171028595859585950E9462
:10203000231EBFC001314FE5140709F075C882E0C7
:102040004AC889E21FCD043C3CE5130709F481C06E
:10205000053C4CE5140709F070CD4FE25FE26EE3FA
:102060007FE294C0093C5CE5150709F481C078F46F
:10207000073CECE51E0709F476C0083CFCE51F07A9
:1020800009F05BCD47E15FE26AE07FE27FC00A3C96
:102090002CE5120709F471C00B3C3CE5130709F06D
:1020A0004CCD48EC5BE26AED7BE270C00F3CECE5A6
:1020B0001E0709F472C0003DFCE51F0709F03DCD85
:1020C0006EE089E072C0043D2CE5120709F46BC094
:1020D00070F4023D4CE5140711F40C946F08033DB5
:1020E0005CE5150709F029CD61E085E115CB053DDB
:1020F0008CE5180711F40C946F080D359DE5190750
:1021000011F40C946F0819CD8091F40580FFDDCA9D
:102110008E7F8093F4056091F4057091F5058091B0
:10212000F6059091F7050E942B251092E604EFEF3B
:10213000F0E722E0E150F0402040E1F700C000006D
:102140000E943B2C0C946F0841E054E26BE074E277
:102150001DC04BE054E261E074E218C04EE35FE260
:102160006FE27FE213C04AE05FE267E17FE20EC008
:1021700040EF5EE26DEF7EE209C04DEF5EE260EFA0
:102180007EE204C04AED5BE268EC7BE20E94342C04
:102190000C946F0865E082E008C068E086E005C046
:1021A00064E18FE002C06FE186E10E94932F0C94FE
:1021B0006F086796E1E10C949B35ACE2B0E0E3EE8A
:1021C000F0E10C947E3585B7806885BF85B780685F
:1021D00085BF84B7877F84BF0FB6F894A895809198
:1021E0006000886180936000109260000FBE90E0F4
:1021F00080E80FB6F89480936100909361000FBE61
:102200008BE998E19093B5018093B4010E94411F3E
:102210000E94E71F8091E20084608093E20078943E
:102220008091C6028823A1F01091E9001F7090915F
:10223000EC00892F817090FD80E8182B1092E90046
:102240008091E80083FD0E94FC281F701093E90034
:1022500082E084BD93E095BD9AEF97BD80936E00B8
:102260000E941B2C811102C00E940B2CA7E2B1E03E
:1022700025E331E0AD0101E010E0FA018191AF0109
:10228000E82FE295EF70F0E061A18F70580102C075
:10229000AA0CBB1C8A95E2F7C5019A2D909596234E
:1022A00091A392A1892B82A32417350731F745E327
:1022B00051E06BE371E08A01EE24E394F12CF80124
:1022C00081918F01E82FE295EF70F0E0D1A08F703F
:1022D000570102C0AA0CBB1C8A95E2F7C5019A2DD2
:1022E00090959D2191A392A1892B82A360177107DC
:1022F00031F701E010E0FA018191AF01E82FE2959A
:10230000EF70F0E0F1A08F70580102C0AA0CBB1C66
:102310008A95E2F7C5019A2D90959F2191A392A1EC
:10232000892B82A36417750731F761E070E08D9106
:10233000E82FE295EF70F0E041A18F706B0102C0D1
:10234000CC0CDD1C8A95E2F7C6019C2D9095942358
:1023500091A392A1892B82A32A173B0741F7E9EBAE
:10236000F1E0A2E0B2E011921D9201E0E73CF0073B
:10237000D1F70E94AB1A811102C00E94B71A82E005
:1023800090E00E94BE358093CB010E949A1A9093F0
:10239000C8018093C7010E94A5318FE39CE9019792
:1023A000F1F700C000000E94A5318091020280FF79
:1023B00008C06FEF7FEF80E090E00E94F0350E9450
:1023C000772183E090E00E94BE350E94751E8091C7
:1023D000D0020E94BE301092FF0180E88093D102AB
:1023E0000E94E3336DE070E08FE192E00E949F284D
:1023F000892B09F043C08091FF0163E070E081FD0B
:102400003AC08CE192E00E949F28892BB9F56DE0DB
:1024100070E08CE092E00E949F28892B79F50E9461
:10242000BD21DC01CB01805A9541AF4FBF4F809356
:102430007D0290937E02A0937F02B0938002E4ED30
:10244000F2E080E092E0DF018C011D92015010402B
:10245000E1F7F093DB04E093DA048FEF9FEF9093C2
:10246000D3028093D20281E0809382028093810222
:102470001092000203C089E192E0C5CF8091C901AA
:10248000811133C00E94AB1A811104C00E94B71A97
:102490000E943E2588E090E00E94C6356093F405D6
:1024A0007093F5058093F6059093F7056E7F71F4B0
:1024B0000E943E2588E090E00E94C6356093F405B6
:1024C0007093F5058093F6059093F7050E9411250A
:1024D0001092E6048091F40580FF04C060E08695C8
:1024E0000E94582F81E08093C90181E08093DC0134
:1024F00085988D9A84988C9A8FE891E00197F1F7EE
:1025000000C000003091DC01EDEDF1E020E0231788
:1025100069F08FB185FB882780F97C9B02C092E02F
:1025200001C090E0892B81932F5FF1CF0E94162488
:102530008CE292E09093DE048093DD0483E080934C
:10254000240189E58093250186E58093260183E0B7
:102550000E9420319FEFA3ECB9E09150A040B04021
:10256000E1F700C0000080E00E94203180E091E0AF
:10257000909389028093880230E4632E222423946E
:10258000312C8091C602853009F088C0FF24F39475
:1025900000E112E18091C602853009F062C08091AD
:1025A000C602843009F44CC00E94702360E080E0D1
:1025B0000E94862880E00E943C311092E6048091BF
:1025C000DC04811116C0F092DC048091F405982F90
:1025D00091709093CA018E7F8093F405EFEFF0E73E
:1025E00022E0E150F0402040E1F700C000000E94EE
:1025F0003B2C0E9470230E94DD2510928C0288E102
:1026000090E00FB6F894A895809360000FBE60929A
:10261000600083B7817F846083BF83B7816083BF9D
:102620007894889583B78E7F83BF0FB6F894A8956A
:1026300080916000886180936000109260000FBEFE
:102640008091C502882309F4A5CF0E94A531E2E05C
:10265000F2E08191811146C592E0E031F907C9F7B6
:1026600099CF0E94F9320E9452220E943C3110926E
:10267000DC048091CA01882351F08091F4058160C7
:102680008093F40560E086950E94582F05C08091E4
:10269000E70481110E943B2C0E94422F0E94A53129
:1026A000C82E81110E94BD21ECECF1E0A2E0B2E065
:1026B00000E010E0302F2D919191922721F180E0E0
:1026C000FF24F394492F4F21D1F089A33AA32F215E
:1026D00081E009F480E08BA30E94C9218160782FFA
:1026E0009DA38CA349A15AA16BA18DA10E94F72F94
:1026F000F801E453FE4F8081F826F08219C08F5F05
:10270000FF0C8630F9F60F5F1F4F0E30110591F662
:102710008FEF8EA38FA318A60E94C9218160782F06
:102720009AA789A74EA15FA168A58AA50E94F72F45
:102730008091E604882309F472C08091E504E09159
:10274000F405E695E81BE093E104823059F4F0E0EB
:10275000E35CFD4FE4910E2F10E023E6E22E2EE223
:10276000F22E38C0863059F4F0E0E65CFD4FE4917B
:102770000E2F10E093E5E92E9EE2F92E2BC0893052
:1027800061F4E695F0E0E95CFD4FE4910E2F10E076
:1027900086EEE82E8DE2F82E1DC08F3061F4E695AE
:1027A000F0E0EC5CFD4FE4910E2F10E0B7E7EB2E6C
:1027B000BDE2FB2E0FC0853139F000ED17E0A7EC2C
:1027C000EA2EABE2FA2E06C008E210E0F2EFEF2E9E
:1027D000FCE2FF2E8091E204882361F01092E20473
:1027E0000E94C9219093E0048093DF041092E404D6
:1027F0001092E3040E94C921E091DF04F091E0040B
:102800008E1B9F0B8F3F9F4750F40E0F1F1F10937F
:10281000E0040093DF048FED94E0F7010995B12CFB
:10282000D12C8091DC01B81608F058C00B2D10E0B7
:10283000EFB1E5FBEE27E0F97C9B02C092E001C01E
:1028400090E08E2F892BD801A352BE4FEC912E2FF2
:10285000237030E0482F082E000C550B2417350745
:10286000D9F1EE0FEE0FE82BEC93EF70F0E0E55CA2
:10287000FE4F980125523E4F79019081D9018C91EC
:10288000890F8C93823064F0F801E652FE4F80810C
:102890008F5F808360E08B2D0E94483121E001C072
:1028A00020E0F70180818F3F5CF4F801E652FE4F93
:1028B00080818150808361E08B2D0E94483121E02E
:1028C000D7018C91082E000C990B62E070E00E94F9
:1028D0002036F7018083D22AB394A3CFD1100E946F
:1028E000BD2180918202882309F456C184ED92E0D3
:1028F0009093DB048093DA0481EA92E00E947828C6
:102900008091DE010E949430882329F0813039F4CF
:102910008CE892E002C086E992E00E94782885E87F
:1029200092E00E9478288091D0020E9494308230F8
:1029300029F0833041F488E792E002C080E892E019
:102940000E94782807C081E792E00E94782881E001
:102950000E94B0230E94522281FF03C088E692E0C9
:1029600002C08FE592E00E9478280E94522280FFE8
:1029700003C087E592E002C08FE492E00E947828CD
:102980000E94522282FF03C088E492E002C081E4E8
:1029900092E00E94782880918202882309F4E1C0A5
:1029A0002091D2023091D3022115310509F4D9C00A
:1029B000809100028111D5C0482E512C7101082E42
:1029C00002C0EE0CFF1C0A94E2F7A9014E215F2120
:1029D000452B11F48F5FF0CF9091FF019201E5E05C
:1029E000220F331FEA95E1F790FD12C08295880F00
:1029F000807680930E01220F232F221F330B3195F7
:102A000020931101815E80930F011092120112C078
:102A100065E0369527956A95E1F7220F220F220F80
:102A200020930E0110921101295F20930F0183E082
:102A30008093120124E630E047E050E06CE071E062
:102A400088E70E94D834892B09F08BC08091FF0160
:102A500080FD23C0C20155E0880F991F5A95E1F708
:102A6000AC014C525D4F04E610E020E230E060E43F
:102A700088E70E94F934892B09F073C00E948A23E9
:102A8000E094F0948091D2029091D302E822F9224E
:102A9000F092D302E092D20264C080E2EFEDF1E066
:102AA000DF011D928A95E9F745E0440C551C4A95D3
:102AB000E1F7EFE4F1E0FCA7EBA76BE471E0ABA575
:102AC000BCA58D91BCA7ABA7FB019191BF01A20151
:102AD000490F511D4C525D4F90E081529E4FFC01B9
:102AE00037E0A32E9F01281B390B822C01C0880CD4
:102AF0002A95EAF78A01912CD801BD908D01B82062
:102B00002A2D29192770722E022E000C330BBB2D93
:102B100001C0BB0F7A94EAF77B2E319521953109DC
:102B20002770332701C0B6942A95EAF77B28B08036
:102B30007B287082939428E0B22E9B10DDCFAA945C
:102B400031960FEFA012CECF2BA53CA523553140D7
:102B500009F0B5CF04E610E020E230E04FED51E09F
:102B600086CF809181028823B9F00E94BD21009117
:102B70007D0210917E0220917F0230918002DC0163
:102B8000CB01801B910BA20BB30B8F3F9F4FAF4F1D
:102B9000BF4710F40E947023C11001C0D1100E94E1
:102BA0008A2386E0EDE9F2E08E010F5F1F4FD80126
:102BB00001900D928A95E1F710929F021092A00267
:102BC0001092A1021092A2028B81811104C08C810B
:102BD000882309F453C080919A0290919B020E942D
:102BE000AE219C0190919602992309F49AC2253155
:102BF000310508F443C09F3F19F09F5F9093960200
:102C0000FB80FF2061F00E945F271F1414F491E005
:102C100001C09FEF899F802D112480939F02FC802B
:102C2000FF2061F00E945F271F1414F491E001C09F
:102C30009FEF899F802D11248093A00230919F02E5
:102C40003323E1F02091A0022223C1F045EB3403AD
:102C5000C0011124992319F090939F0203C081E0D1
:102C600080939F0235EB2303C0011124992319F0AF
:102C70009093A00203C081E08093A0028D81811116
:102C800004C08E81882309F453C0809198029091EA
:102C900099020E94AE219C0190919502992309F41A
:102CA00045C22135310508F443C09F3F19F09F5FAD
:102CB00090939502FD80FF2061F00E943D271F1434
:102CC00014F491E001C09FEF899F802D112480931F
:102CD000A102FE80FF2061F00E943D271F1414F422
:102CE00091E001C09FEF899F802D11248093A20263
:102CF0003091A1023323E1F02091A2022223C1F0FE
:102D000045EB3403C0011124992319F09093A102DB
:102D100003C081E08093A10235EB2303C00111249D
:102D2000992319F09093A20203C081E08093A2023C
:102D300046E050E0B8018DE992E00E94A136892B6F
:102D400011F00E94DA2786E0F801ADE9B2E00190C7
:102D50000D928A95E1F70E94DD250E945222909102
:102D60000102891721F0809301020E943C31809179
:102D7000C602843009F005CC83E08093E90080919D
:102D8000E80082FFFECB8091E80085FF21C00E9411
:102D9000601F81111BC080E2C82ED12C780109C0B0
:102DA0008091F100D7018D937D01B1E0CB1AD1085C
:102DB00069F08091E80085FDF3CF8091E8008B7782
:102DC0008093E8000E94601F882399F391E001C07E
:102DD00090E08091E8008B778093E800992309F4D4
:102DE000D0CBE9818E2F90E0FC013197E331F105E2
:102DF00008F04EC1ED58FF4F0C9456361A8289E008
:102E0000A0C08A81823009F483C1833051F08130BF
:102E100009F03EC10E94BD219B838C837D836E831C
:102E200039C1FE013396CE014196A2E0B2E02D9168
:102E300021938E179F07D9F72DC18A81823009F01F
:102E400027C16B817C818D819E810E945C360E94AE
:102E5000E02320C14C816B818A810E9434239D83B1
:102E60005EC12D813E813227232732274C816B8121
:102E70008A810E94D8220EC10E94FF220BC18A8142
:102E80008138B1F050F4803809F004C120E04B8162
:102E90006091F6058091F50531C0823859F183388B
:102EA00009F0F8C020E04091F7056C818B8126C0C5
:102EB00060E08B810E94582F9B818091F4059111D5
:102EC00011C08E7F8093F4051092E604EFEFF0E7D7
:102ED00022E0E150F0402040E1F700C000000E94F5
:102EE0003B2CD8C081608093F40560E086950E94F9
:102EF000582FD0C08B818093F805CCC00E94772ECC
:102F0000C9C08A81813899F030F4803809F0C2C094
:102F10008091F70516C0823891F0833809F0BAC065
:102F20008091F5058B838091F6058C83B3C08091E9
:102F3000F40580FF02C0869504C080E002C0809145
:102F4000F8058B83A7C06091F4057091F505809119
:102F5000F6059091F7050E942B259CC080E151C099
:102F600081E08A8389E3EDCFEA80FB80FE24EF24B1
:102F7000FE24CC80D12C5801C70189539D4F950167
:102F8000201B310B2C153D0508F084C039E3E316F6
:102F900031E0F30630F40E94BE35D50114968C93CF
:102FA00002C0F5011482FFEFEF1AFF0A2FEFA21AF9
:102FB000B20AE2CFEA80FB80FE24EF24FE24CC801C
:102FC000D12C5801C70189539D4F9501201B310B0E
:102FD0002C153D0508F05EC039E3E31631E0F30639
:102FE00028F4D50114966C910E94D235BFEFEB1AEC
:102FF000FB0AEFEFAE1ABE0AE5CF0E94C8224AC014
:1030000084E08A8347C0EA80FB80FE24EF24FE240C
:10301000CC80D12C5801C70187969501201B310B1C
:103020002C153D05B8F5F0EAEF16F2E0FF0630F496
:103030000E94BE35D50114968C9302C0F50114820E
:10304000FFEFEF1AFF0A2FEFA21AB20AE4CFEA80CD
:10305000FB80FE24EF24FE24CC80D12C5801C70134
:1030600087969501201B310B2C153D0598F430EA0D
:10307000E31632E0F30628F4D50114966C910E9411
:10308000D235BFEFEB1AFB0AEFEFAE1ABE0AE7CF5D
:103090008FEF89838091C602843009F072CA8091D3
:1030A000E9008F702091EC00922F917020FD90E844
:1030B000F92EF82A82E08093E9008091E80080FFF1
:1030C0000CC040E050E060E270E0C8010E94D228ED
:1030D0008091E8008E778093E8008F2D8F70809329
:1030E000E9004FCA09BD19BD09B400FEFDCF8091AA
:1030F000D8008F7D8093D8008091E000826080931B
:10310000E0008091E00081FDFCCF0E94F93242CACC
:1031100086E290E00E94BE351B821C821D828E8357
:10312000B9CF2B30310508F068CDA8CD2B30310553
:1031300008F0BDCDFDCD80E008959091C70192FFCC
:103140000DC0282F2871283019F4877F846006C0AD
:10315000282F2471243011F48B7F886093FF0DC0D9
:10316000282F2871283119F4877E846106C0282F02
:103170002471243111F48B7E88612091C80120FFD5
:103180000DC0382F3871383019F4877F816006C040
:10319000382F3171313011F48E7F886021FF0DC0DE
:1031A000282F2871283119F4877E816106C0282FC5
:1031B0002171213111F48E7E886194FD877E0895FE
:1031C0002091700290913F0256E02917A9F030E05B
:1031D000529FF001539FF00D1124E05CFD4F71816F
:1031E000761306C07081781303C07281741306C011
:1031F0002F5F3F4F2770E9CF80E0089581E0089569
:10320000CF93DF938238910569F1B0F48133910552
:1032100009F46FC048F48932910509F465C08A3217
:10322000910509F46BC08AC08533910509F457C034
:1032300089339105B9F082C0833E910571F138F46C
:10324000803E9105B1F0823E910511F177C0863E36
:103250009105B9F1873E9105C9F1843E910509F0C8
:103260006DC024C02091C70120FD53C021FD51C075
:1032700065C08091C70180FD46C08091C80180FF74
:1032800048C08091C70184FD50C183EE90E04FC1DA
:103290008091C70182FF3AC0F4CF8091C70182FDBF
:1032A00035C08091C80180FD34C0EBCF8091C8014A
:1032B00081FF35C08091C70184FD37C187EE90E062
:1032C00036C18091C70183FF27C0F4CF8091C70129
:1032D00083FD22C08091C80181FD21C0EBCF809188
:1032E000C70185FD1FC021C08091C70185FD1DC09C
:1032F00019C08091C70186FD1BC01DC08091C70108
:1033000086FD19C015C089E390E011C182EE90E0FE
:103310000EC180EE90E00BC186EE90E008C184EE15
:1033200090E005C189E290E002C185E390E0FFC032
:103330008AE290E0FCC081E390E0F9C0811531E5BC
:10334000930708F069C0811540E59407F0F09C01EF
:1033500074E0369527957A95E1F7922F9370482F70
:10336000437021E030E002C0220F331F4A95E2F79C
:103370003C68392B982F9F709695969540E2949FC4
:10338000C0011124822B932BD2C0883E910568F591
:10339000803E910508F0CBC0883A9105B8F4853A93
:1033A000910548F0855AE82FF0E0ED5AFE4F8081F4
:1033B00090E09064BCC08130910509F4B3C008F47A
:1033C000B4C08430910508F4B0C0B1C08F3B910502
:1033D00008F0ABC0885AE82FF0E0EE0FFF1FEA5A62
:1033E000FE4F808191819464A2C0811520E29207F2
:1033F00058F4811531E0930708F099C0803F91059A
:1034000008F493C0906593C0811540E4940708F4D4
:103410008CC09F70906A8BC0811525E5920708F0DB
:1034200042C0811534E5930728F0982F8827846FD0
:10343000906A7DC0811543E59407B0F09C0123702C
:10344000332741E050E002C0440F551F2A95E2F7B0
:10345000282F2695269580E2289F90011124CA01E5
:10346000822B932B9A6863C0811522E5920728F47A
:10347000982F8827816F906A5AC09C012370332748
:1034800041E050E002C0440F551F2A95E2F7282F73
:103490002695269580E2289F90011124CA01822B4F
:1034A000932B9C6844C0EC01811539E59307A8F47F
:1034B0008115984528F09C2F8827806F906A37C027
:1034C000C11586E5D80788F58C2F0E949D188F714D
:1034D00090E0982F882790622AC081152AE59207EC
:1034E00090F48C2F8F700E949D1894E0D695C7950C
:1034F0009A95E1F7CF70D0E0DC2FCC27D0699E0100
:10350000282BC90114C090568115904270F48D2F5C
:103510008F710E949D18282F2F71CE0199279062DC
:10352000922B05C081E090E002C080E090E0DF9146
:10353000CF910895CF9384E090E00E94BE35C82FCC
:1035400082E290E00E94BE352C2F30E0A901582B7A
:10355000CA01CF91089580E090E00E94CC35883E6A
:103560009E4F19F40E941B2C089580E0089568EE88
:103570007EEF80E090E00E94F03560E082E090E035
:103580000E94D23560E083E090E00E94D235109234
:10359000DE0160E084E090E00E94D23564E082E2E7
:1035A00090E00E94D23560E085E090E00E94D23544
:1035B00060E086E090E00E94D2356FEF87E090E017
:1035C0000E94D23540E050E0BA0188E090E00E94CD
:1035D000E43560E08DE090E00E94D23540E050E0BC
:1035E000BA0188E190E00E94E43560E087E190E074
:1035F0000E94D23540E050E0BA018CE190E00E9498
:10360000E43560E070E080E290E00E94F03540E058
:1036100050E0BA0188E190E00E94E43580E00E9429
:10362000EC2B0E940B2C40E050E0BA018FE090E0C0
:103630000E94E43540E050E0BA0183E190E00E944E
:10364000E435089580917C02811110927C020895E6
:10365000809590917B02892380937B0208959091BD
:103660007B0280917A02982B9093100280917C02C9
:10367000882389F0892B80931002E2E1F2E097E041
:1036800080E0915029F021912223D9F38F5FF9CF67
:1036900081110E94221B48E050E062E772E080E165
:1036A00092E00E94A136892BA9F088E0E0E1F2E0E7
:1036B000A2E7B2E001900D928A95E1F7E0918802CD
:1036C000F0918902309731F00280F381E02D80E1A2
:1036D00092E0099508958091700290913F028917B8
:1036E00019F08F5F8770FBCF08950F931F93CF93CF
:1036F000DF9380913E0282958F7009F05AC08091CD
:103700003B02882309F455C08091700210913F025A
:103710006091390270913A02C0913C02D0913D0211
:1037200091E06F3F09F090E0292F06E0811709F43E
:1037300040C0209721F07F3F21F030E003C031E00E
:1037400001C0322F90E030FD31C0089FF001099F89
:10375000F00D1124DF01A05CBD4F11963C91119733
:10376000371324C03C91361321C012963C91129716
:1037700031111CC013964D915C9114974C1B5D0B3D
:103780004639510598F480913E028F708061809394
:103790003E02EB5BFD4F80818F708061808389E307
:1037A00092E00E9431070E946B1B03C00196877054
:1037B000BDCFDF91CF911F910F910895CF92DF92EE
:1037C000FF920F931F93CF93DF936C010091D00270
:1037D0008091DE01082BC7E0D0E010E0C8010C2E7C
:1037E00002C0959587950A94E2F780FD04C0219761
:1037F000A8F7F12C09C0FC2EB6018C2F0E94622381
:103800000E940019019799F38F2DDF91CF911F919D
:103810000F91FF90DF90CF900895CF93DF93EC014D
:103820000E94DE1BBE010E9462230E940019DF91EC
:10383000CF910895A1E1B0E0E0E2FCE10C94843581
:103840008C0185E0F801DE011D9601900D928A95AC
:10385000E1F7D8011296EC909091390220913A024A
:1038600040913C0250913D024115510531F02F3FEE
:1038700031F481E09F3F19F403C081E001C080E092
:1038800080FD52C1F801D080C180A380B48089E35B
:10389000882E82E0982EF0903B02B501641B750BD8
:1038A000FF2009F4FEC080913E02382F307F663938
:1038B000710508F0C8C0311189C02C1112C09D11CA
:1038C00010C0FE2CE1100DC08F70806180933E020D
:1038D000C4010E94310780913E02D80115968C9355
:1038E0003DC1A114B10439F0BFEFCB1206C081E095
:1038F000DB1203C003C081E001C080E080FD03C093
:1039000081E08E2502C080E090E080FF10C04E2D47
:103910006C2D8D2D0E94E018882349F089E392E0F8
:103920000E943107E9E3F2E086E0DF0194C0A114D0
:10393000B10439F0BFEFCB1206C081E0DB1203C047
:1039400003C081E001C080E080FD03C081E08E25DE
:1039500002C080E090E0E82FE170BE2E80FF2CC016
:103960004E2D6C2D8D2D0E94E018F82E811124C053
:10397000DD86CE868D859E850E940D1C292F229581
:103980002F70223018F0243090F405C09F7059F049
:10399000811109C0E3C09F7031F0D80115969C9148
:1039A000907F09F4DBC0805E883008F4D7C0C8017E
:1039B0000E943107FB2CD2C0FE2CEE2009F4CEC0B1
:1039C00080913E02816080933E0248C02C1106C067
:1039D0009D1104C0E11002C0F80185C0C8010E9419
:1039E000BD32882351F1EE2041F120913E02822F19
:1039F00082958F7090E0029774F0809139029091D7
:103A00003A0298878F831986BB86AA862C87CE01B7
:103A100007960E94310786E0F801A9E3B2E0019021
:103A20000D928A95E1F70E94751B0AC02C15C1F012
:103A3000C8010E94BD3281111DC0C8010E9431071A
:103A4000FF24F3948BC03111F1CF89E392E00E94FF
:103A5000310786E0D4011D928A95E9F7F12C7EC0EA
:103A60009D11E6CFE110E4CFF8018583C8010E94E3
:103A7000310754C0EE2009F320913E02822F829537
:103A80008F7090E002973CF28091390290913A0257
:103A90009A8389831B82BD82AC822E83CE010196DC
:103AA000B8CF66397105D0F5FE2CEE2031F22C111D
:103AB00027C09D1125C020913E0220FD18C0822FF5
:103AC00082958F70482F50E04115510581F0F80123
:103AD00025834F30510541F08F5F982F9295907F4D
:103AE000822F8F70892B8583C8010E94310786E061
:103AF000F801A9E3B2E001900D928A95E1F72EC09A
:103B0000C8010E94BD32811186CF80913E02816042
:103B100080933E02C8010E94310720C086E0D40194
:103B20001D928A95E9F71AC0EE2009F486CFC801E4
:103B30000E94BD32F82E882309F47FCF86E0F80179
:103B4000A9E3B2E001900D928A95E1F780913902E4
:103B500090913A020E940D1C0E94751B8F2D619658
:103B6000ECE00C94A035292F9E3078F5863068F56E
:103B700090E036E0239F800D911D1124682F67701F
:103B800023E0969587952A95E1F7FC01EE0FFF1F3C
:103B9000E80FF91FE85EFD4F40E050E080E0219122
:103BA00030E0062E02C0369527950A94E2F7217080
:103BB0003327042E01C0220F0A94EAF7822B4F5FAD
:103BC0005F4F4330510559F7089580E00895292F3C
:103BD0009E3088F5863078F590E036E0239F800DA2
:103BE000911D1124282F277051E001C0550F2A95EF
:103BF000EAF723E0969587952A95E1F7FC01EE0F09
:103C0000FF1FE80FF91FE85EFD4F20E030E070E095
:103C10004081CB01022E02C0969587950A94E2F767
:103C20008170819584278523842781932F5F3F4F5F
:103C30002330310569F708950E94BE308093D00289
:103C40000E94DD32089521E030E001C0220F8A9504
:103C5000EAF720958091D00282230E941C1E0895CD
:103C6000209171028095822380937102982F977022
:103C700099F430E0482F082E000C550B2417350717
:103C800059F09091C80192FF07C08595859585955B
:103C90000E94231E109271020895CF93C091C80113
:103CA000C2FB992790F9981791F080FBC2F9C09355
:103CB000C8016091C70184E090E00E94D2356C2F6A
:103CC00082E290E00E94D23582E00E94301ECF91C5
:103CD000089521E030E001C0220F8A95EAF7809133
:103CE000D002822B0E941C1E08958093DE010E9448
:103CF000DD32089508958091BB020895809391026A
:103D000070939302609392028091C6028430F9F41A
:103D10008093E9008FEF9091E800815095FD06C0F7
:103D200095ED9A95F1F700008111F5CF8091E800AB
:103D300085FF0DC040E050E063E070E081E992E073
:103D40000E94D2288091E8008E778093E800089541
:103D5000BC0184E00E947E1E0895BC0183E00E94A5
:103D60007E1E089524E02093E9002FEF3091E800B3
:103D7000215035FD06C035ED3A95F1F700002111CF
:103D8000F5CF2091E80025FF0BC040E050E066E051
:103D900070E00E94D2288091E8008E778093E8003E
:103DA0000895CF93DF9321E02093E9002FEF309126
:103DB000E800215035FD06C035ED3A95F1F70000D9
:103DC0002111F5CF2091E80025FF14C0EC0140E05F
:103DD00050E068E070E00E94D2288091E8008E7781
:103DE0008093E80088E0FE01ACEBB2E001900D9218
:103DF0008A95E1F7DF91CF9108951F920F920FB648
:103E00000F9211242F933F934F935F936F937F9360
:103E10008F939F93AF93BF93CF93DF93EF93FF93D2
:103E2000C091E900CF708091EC00D82FD17080FD57
:103E3000D0E81092E9008091F000877F8093F00035
:103E400078940E94FC281092E9008091F00088602C
:103E50008093F000CD2BCF70C093E900FF91EF91DC
:103E6000DF91CF91BF91AF919F918F917F916F9192
:103E70005F914F913F912F910F900FBE0F901F9028
:103E80001895E8EDF0E080818E7F80831092E2004B
:103E90001092DA001092E100A0EEB0E08C91816007
:103EA0008C9380818F77808319BCA7EDB0E08C91D3
:103EB0008E7F8C9380818F7E8083109294020895F0
:103EC0002091E4003091E50095E64091EC00842FCC
:103ED000817040FF23C08091E80080FD1DC080916B
:103EE000C602882399F0853099F08091EB0085FD1A
:103EF00011C04091E4005091E5002417350729F3E3
:103F0000915011F09A01E1CF84E0089582E0089584
:103F100083E0089581E0089580E008954091E800ED
:103F200042FFDDCF08958091C80287FF11C08091C4
:103F3000E80082FD05C08091C6028111F8CF11C052
:103F40008091E8008B770BC08091C602882349F0EE
:103F50008091E80080FFF8CF8091E8008E77809311
:103F6000E8000895982F973068F59093E900981726
:103F700039F07091EC002091ED005091F00003C0F9
:103F8000242F762F50E021FD02C09F5FECCF3091AF
:103F9000EB003E7F3093EB003091ED003D7F30939E
:103FA000ED003091EB0031603093EB007093EC004A
:103FB0002093ED005093F0002091EE0027FDE5CF17
:103FC00080E008958F708093E90081E00895A0E07B
:103FD000B0E0EDEEFFE10C948835C8EDD0E08881CB
:103FE0008F7E8883E7EDF0E080818160808384E0CC
:103FF00082BF81E08093940288818E7F888302EE65
:1040000010E0F80110821092DA0081EEC82ED12C57
:10401000F601108288818F77888388818068888301
:1040200088818F7D888319BC1092C6021092C702C6
:104030001092C5021092C40290EEE92EF12CF70105
:1040400080818B7F808388818160888342E060E00B
:1040500080E00E94B21FF60180818E7F8083F8018C
:10406000808181608083808188608083F701808186
:104070008E7F8083888180618883CDB7DEB7E8E05A
:104080000C94A4351F920F920FB60F9211242F9308
:104090003F934F935F936F937F938F939F93AF93D0
:1040A000BF93EF93FF938091E10082FF09C080915D
:1040B000E20082FF05C08091E1008B7F8093E100E8
:1040C0008091DA0080FF2AC08091D80080FF26C04E
:1040D0008091DA008E7F8093DA008091D90080FF92
:1040E00018C080E189BD82E189BD09B400FEFDCF21
:1040F00081E08093C6028091940281110FC00E94DA
:10410000411F0E94E71F8091E20084608093E200DB
:1041100005C019BC1092C602109294028091E10071
:1041200080FF17C08091E20080FF13C08091E20001
:104130008E7F8093E2008091E20080618093E200B4
:104140008091D80080628093D80019BC85E080936C
:10415000C6028091E10084FF30C08091E20084FFBC
:104160002CC080E189BD82E189BD09B400FEFDCF8C
:104170008091D8008F7D8093D8008091E1008F7E60
:104180008093E1008091E2008F7E8093E200809135
:10419000E20081608093E2008091C702882311F0E1
:1041A00084E007C08091E30087FD02C081E001C088
:1041B00083E08093C6028091C6028091E10083FF74
:1041C00027C08091E20083FF23C08091E100877FB8
:1041D0008093E10082E08093C6021092C702809132
:1041E000E1008E7F8093E1008091E2008E7F8093DA
:1041F000E2008091E20080618093E20042E060E0B2
:1042000080E00E94B21F8091F00088608093F000EF
:10421000FF91EF91BF91AF919F918F917F916F919E
:104220005F914F913F912F910F900FBE0F901F9074
:1042300018952091CE023091CF022617370748F00B
:104240006115710539F42091E8002E772093E8007C
:1042500001C0B901FC0120E06115710579F180917F
:10426000C6028823F1F18530F1F18091E80083FDE9
:104270003CC08091E80082FD2EC08091E80080FF64
:10428000EBCF2091F3008091F20090E0922B61152A
:10429000710551F08830910538F421912093F10097
:1042A000615071090196F3CF21E0089709F020E0F1
:1042B0008091E8008E778093E800CECF2111CFCF98
:1042C0000AC08091C602882361F0853061F0809138
:1042D000E80083FD0AC08091E80082FFF2CF80E011
:1042E000089582E0089583E0089581E0089587E7C6
:1042F00097E790930108809300089AE088E10FB651
:10430000F894A895809360000FBE90936000FFCF53
:1043100078941F920F920FB60F9211248F939F9350
:10432000AF93BF9380918D0290918E02A0918F02E6
:10433000B09190020196A11DB11D80938D029093C2
:104340008E02A0938F02B0939002BF91AF919F9184
:104350008F910F900FBE0F901F9018959C014FB733
:10436000F89480918D0290918E02A0918F02B0916D
:1043700090024FBF821B930B08952FB7F894609162
:104380008D0270918E0280918F02909190022FBFCA
:1043900008952FB7F89480918D0290918E02A0918C
:1043A0008F02B09190022FBF08951F920F920FB607
:1043B0000F9211248F939F93AF93BF9380918C02A0
:1043C000811113C080918D0290918E02A0918F0275
:1043D000B09190024196A11DB11D80938D029093E2
:1043E0008E02A0938F02B0939002BF91AF919F91E4
:1043F0008F910F900FBE0F901F9018959C01FC019C
:1044000032969FEF80E04191461789F09F3F19F463
:10441000411101C0982F8F5F8630A9F79F3F39F077
:10442000F901E90FF11D97FDFA956283089508954A
:1044300020918A0230918B022817390771F09093EE
:104440008B0280938A02E0918802F0918902309772
:1044500021F00084F185E02D0995089520918602D0
:10446000309187022817390771F090938702809363
:104470008602E0918802F0918902309721F006804F
:10448000F781E02D09950895E0918802F091890265
:10449000309739F022E0DC012C930480F581E02D87
:1044A00009950895E0918802F0918902309729F0EA
:1044B0000190F081E02D0995089580E008950F9313
:1044C0001F93CF93DF93C42FD22FFC0182818823C7
:1044D000B1F0409385020E94C92190938402809399
:1044E000830280E28C0F883008F04DC0C77081E0F5
:1044F00001C0880FCA95EAF70E94213344C0809119
:104500008502481330C080918302909184020E94FA
:10451000AE218639910538F510E21D0FCD17B9F09F
:1045200080E28C0F883040F4C77081E001C0880FB2
:10453000CA95EAF70E941A33183010F581E09D2FD2
:10454000977001C0880F9A95EAF70E942133802F57
:104550000E94C4331830B8F4D77081E001C0880FCE
:10456000DA95EAF70AC080E28C0F883060F4C770F1
:1045700081E001C0880FCA95EAF70E941A3303C090
:10458000802F0E94C433DF91CF911F910F91089526
:10459000CF93DF93C7ECD2E060E0CE010E94D2352A
:1045A0002196C11584E0D807B9F7DF91CF9108951E
:1045B0001F93CF93DF93962F8430E8F46E30D8F4B6
:1045C0004630C8F4632F122FC42FD0E0CC0FDD1F6C
:1045D0002CE0929FC00DD11D112498EA899FC00D37
:1045E000D11D1124CE0187960E94D235612FCE01B4
:1045F00088960E94D235DF91CF911F910895A0E057
:10460000B0E0E5E0F3E20C948635A12CE12CF12C2E
:10461000B12C00E010E0C0E0D0E06701C00ED11E78
:10462000FE01EE0FFF1FEC0DFD1DE254FD4F259125
:1046300034914C2F6B2D8A2D0E94D8222196C630A2
:10464000D10571F7045F1F4FB3948EE0B812E3CF2A
:1046500088EAE80EF11CA39484E0A812D9CFCDB764
:10466000DEB7EAE00C94A2350F931F93CF93DF934C
:10467000843008F56E30F8F44630E8F4C42FD0E00A
:10468000CC0FDD1F2CE0629FC00DD11D112438EA34
:10469000839FC00DD11D1124CE0187960E94BE3587
:1046A00090E0182F0027CE0188960E94BE35980111
:1046B000282BC90102C080E090E0DF91CF911F91CB
:1046C0000F910895843048F47E3038F4663028F431
:1046D000462F672F0E943423089580E090E00895CC
:1046E0008091820290918102882389F0992369F058
:1046F00062E070E08CEB92E00E949F28892B19F019
:10470000809181020895109281029091810281E04E
:1047100089270895809182028823F9F00E94BD21A3
:10472000DC01CB01805A9541AF4FBF4F80937D0292
:1047300090937E02A0937F02B093800280918102C9
:1047400081110BC062E070E08AEB92E00E949F282A
:10475000892B19F481E08093810280918102089570
:10476000CF93E82F2091DA043091DB04245D3240AE
:104770004091D102642F70E0C9010E946A35481B44
:10478000842FEE2351F066E00E940636C82FC150F8
:10479000A8F080E20E94F927FACFA901480F511D25
:1047A0004115524018F080E020E030E0280F311D24
:1047B0002C523D4F3093DB042093DA04CF910895BF
:1047C00086E290E00E94D23508959C01893F9105D0
:1047D00038F481E090E090931401809313010895E0
:1047E000EDE7F0E0BF010E946A35A901481B590BB3
:1047F000CA01BF010E946A357093140160931301CE
:1048000008958091F4058695815009F48FE161E067
:104810000E94582F08958091F40586958F5F80320D
:1048200008F081E061E00E94582F08950E94E33370
:1048300060E080E00E9486280895A1E1B0E0E3E214
:10484000F4E20C9489354C87888B998BE52ED62E13
:10485000F72EAE01495F5F4F85E0FA0111928A950C
:10486000E9F78091B9028A3008F0C3C004E610E08D
:1048700025E030E064E084E10E942035892B09F0D6
:10488000B3C01092B9028B85FE2D87FDA4C0FE7FB8
:10489000EF2E8091B7029091B802009709F099C06D
:1048A0008F819885891720F4981B892F41E002C0D9
:1048B000891B40E0209113013091140190E0BC016C
:1048C000660F771F689FF001699FF00D789FF00DCC
:1048D0001124E29FB001E39F700DF29F700D11242F
:1048E000660F672F661F770B7195442319F071953A
:1048F000619571098091B5029091B602680F791F98
:1049000089859A85891720F4981B892F41E002C078
:10491000891B40E090E0DC01AA0FBB1FA89FF001BB
:10492000A99FF00DB89FF00D1124E29FC001E39FF5
:10493000900DF29F900D1124880F892F881F990BDD
:104940009195442319F09195819591092091B30295
:104950003091B402820F931F603871054CF06F578D
:1049600071097093B6026093B5023FE7D32E12C06F
:1049700061382FEF72074CF461587F4F7093B60285
:104980006093B50221E8D22E05C0D62E1092B60251
:104990001092B502803891054CF08F579109909391
:1049A000B4028093B3029FE7F92E23C08138EFEF62
:1049B0009E074CF481589F4F9093B4028093B302AA
:1049C00081E8F82E16C0F82E1092B4021092B302AD
:1049D00010C0019704C0F160EF2E84E190E0909345
:1049E000B8028093B70205C08091B9028F5F8093AF
:1049F000B902ED86DE86FF8686E0FE013C96DE018A
:104A0000119601900D928A95E1F729813A814B81A7
:104A10005C816D817E8180E090E06196E7E00C949E
:104A2000A5358091F405282F269530E02115310514
:104A300019F48170826005C02032310524F0817044
:104A40008E638093F4058091F70587FF03C08FE79D
:104A50008093F7050895CF92DF92EF92FF926B015A
:104A60007C010E941125B701A60188E090E00E9418
:104A7000E435FF90EF90DF90CF900895E4EFF5E0FC
:104A800083E0808311828FEF82838FE78383148298
:104A900060817181828193810E942B250895A0E01D
:104AA000B0E0E5E5F5E20C948635E82EF62EE90156
:104AB00047FD4FE7E42FF0E0F11006C0E25AFA4F4D
:104AC000E4914E2F2E2F71C00F2D10E0E25AFA4FB5
:104AD0004491F42FC42ED12C26E0E29EC001112473
:104AE0002FEF30E0B9010E946A355BEA5603C0013E
:104AF000579F900D11248E0D911D8E0D911D582FD5
:104B0000550F580FD901A01BB10BAC9DC001AD9D35
:104B1000900DBC9D900D1124E92FF59ED00111241C
:104B2000AB2FBB277901EA1AFB0AEC9CD001ED9C64
:104B3000B00DFC9CB00D11245901A51AB108A09E1E
:104B40007001A19EF00CB09EF00C1124EF2CFF24FC
:104B50002E193F092C9D80012D9D100D3C9D100D9F
:104B60001124212F6230710591F048F4611571050F
:104B7000E1F061307105B9F4242F4B2F16C0643079
:104B8000710569F040F06630710579F00CC0242F92
:104B9000492FE12F0AC0492FEF2F2B2F06C0292FB5
:104BA000E42F412F02C0292FEB2F49832883EA836A
:104BB000CDB7DEB7EAE00C94A235A6E3B0E0E3EEB1
:104BC000F5E20C948E354091AF025091B0026091A5
:104BD000B1027091B2022FB7F89480918D0290913A
:104BE0008E02A0918F02B09190022FBF841B950B73
:104BF000A60BB70B4E97A105B10508F4C3C00E94E0
:104C0000BD216093AF027093B0028093B102909384
:104C1000B2024091A9025091AA026091AB02709138
:104C2000AC028091AD029091AE020E941D242093AF
:104C3000A9023093AA024093AB025093AC02609356
:104C4000AD027093AE0286E0E9EAF2E0DE01599629
:104C500001900D928A95E1F786E0FE017996DE01DA
:104C60001D9601900D928A95E1F786E0FE013D9632
:104C7000DE01539601900D928A95E1F786E0FE01E0
:104C80007396A9EAB2E001900D928A95E1F786E069
:104C9000E9EAF2E0DE019B9601900D928A95E1F738
:104CA00086E0FE01BB96DE01179601900D928A9573
:104CB000E1F72DA58EA59FA530919C02332321F00D
:104CC000982F919580E020E029878A879B8736E09E
:104CD000FE013796DE01119601900D923A95E1F7AB
:104CE0002B838C839D8336E0FE013196DE015F9637
:104CF00001900D923A95E1F729A38AA39BA336E090
:104D0000FE017F96DE01959601900D923A95E1F7AE
:104D10002FA388A799A786E0FE01B596A9EAB2E07D
:104D200001900D928A95E1F786E0EDE9F2E0DE016F
:104D3000D19601900D928A95E1F79091AA028AA9E5
:104D4000892B8093AA0246E050E063EA72E089EA88
:104D500092E00E94A136892B21F089EA92E00E941C
:104D600044221092AB021092AC021092AD0210924B
:104D7000AE0286E0E9EAF2E0A3EAB2E001900D9229
:104D80008A95E1F7E696E2E00C94AA35803F39F483
:104D90009091A00297FF35C01092A00259C0813FA8
:104DA00029F49091A0021916BCF32BC090919F0298
:104DB000823F29F497FF25C010929F0249C0833F8C
:104DC00019F41916CCF31DC09091A102893F29F462
:104DD0001916BCF41092A1023BC08A3F19F497FF48
:104DE00010C0F8CF8B3F39F49091A20297FF09C011
:104DF0001092A2022DC08C3F21F49091A2021916AC
:104E0000BCF39CE0980F953080F421E030E0A901DC
:104E100002C0440F551F9A95E2F7CA018095909100
:104E20009E02892380939E0213C08D3F21F48091BE
:104E300097028E7F0BC08E3F21F4809197028D7F69
:104E400005C08F3F29F4809197028B7F8093970252
:104E500080919F02811106C08091A002811102C041
:104E6000109296028091A102811106C08091A20247
:104E7000811102C01092950208958091970280FDE1
:104E800016C081FD16C082FD18C08091950288234E
:104E900091F0883290F428E0829FC001112468E2EA
:104EA00070E00E942036862F672B29F007C082E031
:104EB000089584E0089581E0089588E00895809140
:104EC000970280FD14C081FD14C082FD16C0809140
:104ED0009602882381F08E3180F420E5829FC00104
:104EE00011246EE170E00E942036862F089584E13F
:104EF000089588E2089588E0089580E50895803F48
:104F000021F40E945F27819504C0813F29F40E940B
:104F10005F278093A0020895823F21F40E945F27BB
:104F2000819504C0833F29F40E945F2780939F02EC
:104F30000895893F19F40E943D2705C08A3F31F446
:104F40000E943D2781958093A10208958B3F21F413
:104F50000E943D27819504C08C3F29F40E943D2783
:104F60008093A20208959CE0980F953078F421E098
:104F700030E0A90102C0440F551F9A95E2F7CA011B
:104F800090919E02892B80939E0208958D3F21F47B
:104F90008091970281600BC08E3F21F4809197022F
:104FA000826005C08F3F29F48091970284608093CE
:104FB000970208950E94C92120919F02211104C0E7
:104FC0002091A002222321F090939B0280939A02C9
:104FD0002091A102211104C02091A202222321F0DC
:104FE00090939902809398028DE992E00E94442266
:104FF0000895CF93DF93682F8A3011F481E003C0C6
:105000008D3021F480E00E94B0236FC08091DA04DB
:105010009091DB0426E0FC01A4EDB4E001900D9238
:105020002A95E1F7603E30F026E0FC0111922A95C6
:10503000E9F70AC0F6E06F9FB00111246252784F81
:1050400046E050E00E94B535C091DA04D091DB040F
:1050500046E050E0BE0184ED94E00E94A136892B29
:1050600049F19E01245D3240A90185E0569547959E
:105070008A95E1F781E090E0BC0102C0660F771FDE
:105080004A95E2F74091D2025091D302462B572B1A
:105090002B5F3F4F65E0369527956A95E1F702C093
:1050A000880F991F2A95E2F7842B952B9093D302B2
:1050B0008093D2029E012E5C32404091D102642F37
:1050C00070E0C9010E946A35481B463010F4240F75
:1050D000311D211582E0380710F020E030E02C521D
:1050E0003D4F3093DB042093DA04DF91CF91089594
:1050F000CF93DF93EC01FE018491882321F00E947D
:10510000F9272196F8CFDF91CF910895A4E0B0E080
:10511000ECE8F8E20C948C3519828A831B826C834C
:1051200004E610E024E030E0AE014F5F5F4F60E046
:1051300084E10E94F9342496E4E00C94A835EF92BF
:10514000FF920F931F93CF93DF93EC017B0164E6F3
:1051500070E088E70E94E9338C01EC0EFD1ECE154D
:10516000DF0561F017FD0AC0FE01849164E670E07E
:105170000E945E348C012196892B89F30E9466354A
:10518000C801CDB7DEB7E6E00C94A6358091D00219
:10519000982F9670963011F4886001C0877F0E9426
:1051A0001C1E0895EF92FF920F931F93CF93DF93EE
:1051B0007C018B010E94601F811119C0E70101155C
:1051C0001105A1F08091E80085FD0AC08091E800FA
:1051D0008E778093E8000E94601F882381F307C0C8
:1051E00089918093F10001501109E9CF80E0CDB79A
:1051F000DEB7E6E00C94A635AAE2B0E0E2E0F9E220
:105200000C948D35E8ECF2E080ED92E02091F10015
:1052100021938E179F07D1F78091C902833009F43B
:1052200063C030F4813071F0823009F49DC0B4C0A5
:105230008A3009F489C08B3009F46EC0893009F0D6
:10524000ABC020C08091C802813A09F0A5C080910E
:10525000E800877F8093E8008091CC029091CD0296
:10526000892B21F468E08CEB92E003C060E080E0E1
:1052700090E070E00E9419218091E8008B77809384
:10528000E8008AC08091C802813209F085C080910F
:10529000CC029091CD02009719F0029709F07CC0E2
:1052A0008091E800877F8093E8008091E80082FD8C
:1052B00005C08091C6028111F8CF6EC02091F30025
:1052C0008091F20090E0922B029731F48091F100EE
:1052D000813011F0863021F48091F1008093BB027F
:1052E0008091E8008B7754C08091C802813A09F020
:1052F00053C08091CC029091CD02892B09F04CC013
:105300008091E800877F8093E8008091E80080FF2B
:10531000FCCF8091150137C08091C8028132E1F540
:105320008091CC029091CD02892BB1F58091E8005B
:10533000877F8093E8000E94931F8091CA02809328
:1053400015010E94F93228C08091C802813221F5EE
:105350008091E800877F8093E8000E94931F8091EE
:10536000CB028093BA0218C08091C802813AA1F49E
:105370008091E800877F8093E8008091E80080FFBB
:10538000FCCF8091BA028093F1008091E8008E7783
:105390008093E8000E94931F8091E80083FFDFC1A3
:1053A0008091C8029091C902492F50E04A305105BE
:1053B00008F0D5C1FA01EA57FF4F0C9456368038F1
:1053C00021F0823809F0CBC108C08091C4029091CD
:1053D000C502992389F082600FC08091CC028F7042
:1053E000873008F0BCC18093E9008091EB0085FB19
:1053F000882780F91092E9009091E800977F9093B8
:10540000E8008093F1001092F10070C1282F2D7FE9
:1054100009F0A5C1882319F0823061F0A0C1809104
:10542000CA02813009F09BC1933009F080E080937B
:10543000C5022EC08091CA0281112AC08091CC027F
:105440008F702FEF280F263008F089C18093E90074
:105450002091EB0020FF1CC0933021F48091EB00E1
:10546000806214C09091EB0090619093EB0021E07A
:1054700030E0A90102C0440F551F8A95E2F740931E
:10548000EA001092EA008091EB0088608093EB00C4
:105490001092E9008091E800877F8093E8000E94E5
:1054A000931F5DC181115BC11091CA021F7780916A
:1054B000E3008078812B8093E3008091E800877F70
:1054C0008093E8000E94931F8091E80080FFFCCF4A
:1054D0008091E30080688093E300111102C082E0B4
:1054E00001C083E08093C6023AC18058823008F040
:1054F00036C12091CA023091CB022C3D53E03507D2
:1055000079F583E08A838AE289834FB7F894DE01D4
:10551000139620E03EE051E2E32FF0E05093570075
:10552000E49120FF03C0E295EF703F5FEF708E2F94
:1055300090E0EA3010F0C79601C0C0968D939D931D
:105540002F5F243149F74FBF8091E800877F809318
:10555000E8006AE270E0CE0101960E941921B4C011
:105560008091CC029091CD02432F552743305105B5
:10557000A9F068F44130510509F400C142305105E9
:1055800009F0EDC08BE590E0EBE3F7E04BC0413272
:10559000510529F14232510589F1E1C0C90199272C
:1055A00081309105A1F058F0029709F0D8C0E8EADF
:1055B000F7E0E4918E2F90E0E8EAF7E030C0EAED02
:1055C000F7E0E4918E2F90E0EAEDF7E028C0E8ECF8
:1055D000F7E0E4918E2F90E0E8ECF7E020C0833014
:1055E000910508F0BCC0880F991FFC01E357FE4FDE
:1055F0000190F081E02D89E090E014C083309105A6
:1056000008F0ADC0FC01EE0FFF1FE957FE4F0190FF
:10561000F081E02DDC01AC57BE4F8C9190E00097FB
:1056200009F49DC02091E800277F2093E800209195
:10563000CE023091CF022817390708F4C90140E0A3
:10564000009789F12091C602222309F43DC025303C
:10565000D9F12091E80023FD37C02091E80022FD18
:105660002FC02091E80020FFEBCF4091F300209164
:10567000F20030E0342B009759F02830310540F427
:1056800044914093F100319601972F5F3F4FF3CF44
:1056900041E02830310509F040E02091E8002E7704
:1056A0002093E800CDCF4111CDCF0AC08091C60232
:1056B000882351F0853041F08091E80083FD04C0DB
:1056C0008091E80082FFF2CF8091E8008B77809391
:1056D000E80045C0803809F042C08091E800877F2B
:1056E0008093E8008091C7028093F1008091E800E8
:1056F0008E77D3CE811133C08091CA029091CB02B4
:105700009927029764F58091E800877F8093E800ED
:105710001091CA021093C7020E94931F111106C074
:105720008091E30087FD02C081E001C084E08093A6
:10573000C60242E061EC81E00E94B21F42E261ECED
:1057400084E00E94B21F42E261EC82E00E94B21F3C
:1057500042E260EC83E00E94B21F8091C602809119
:10576000E80083FF10C08091E800877F8093E80005
:105770008091EB0080628093EB0005C082E190E0B5
:10578000E6E9F7E04FCFAA96E3E00C94A935089537
:105790008091F805882319F081508093F805609175
:1057A000F4057091F5058091F6059091F7050E943A
:1057B0002B2508958091F805833018F48F5F80932E
:1057C000F8056091F4057091F5058091F6059091CA
:1057D000F7050E942B250895CF93C82F811102C091
:1057E0006FEF01C062E283E290E00E94D235C11106
:1057F00002C06FEF01C066E084E290E00E94D23503
:10580000C11102C06FEF01C065E185E290E00E9426
:10581000D235CF91089580E00E94EC2B60E070E0DB
:10582000CB010E94E0230E94FF220E94C82281E057
:105830000E94EC2B089583E290E00E94BE358232F4
:1058400081F484E290E00E94BE35863051F485E216
:1058500090E00E94BE3591E0853109F090E0892FFB
:1058600001C080E081700895882311F0FA0101C021
:10587000FB0109950895A5E0B0E0E1E4FCE20C9499
:105880008135509023018091F40580FF08C08090FD
:10589000DD049090DE0481149104A9F42EC080915F
:1058A000240190912501891790F7E82FF0E09F01DE
:1058B000220F331FE20FF31FE751FB4F11821082BB
:1058C00012828F5FF0CF8091DC04811116C0A12C71
:1058D000B12C66246394712C2091E704C3010A2C37
:1058E00001C0880F0A94EAF7822309F450C0F4013A
:1058F000C590D490C114D104C9F4E091220123E0F1
:10590000E29FF0011124E751FB4F539A8BB1877F3F
:105910009BB198602FB7F894AF0133E0539E400DD0
:10592000511D112440C035E0C30ED11C45E050E0AC
:10593000B601CE0101960E94B53509810F3F39F1BC
:1059400010E08A819801280F311DC9012A353105DF
:1059500014F089E590E07C01EE0CFF1C8E0D9F1D7C
:105960009C0127513B4F7901C801880F991F080FEF
:10597000191F07511B4F0E151F05A8F698014D81E1
:105980006C818B810E944F250D5F1F4FF4CF82E009
:10599000880E911C9FEFA91AB90A28E0A216B1043B
:1059A00009F09ACFAACF4E175F0789F0319168E0CE
:1059B0009BB9000000C037FF8BB9330F000000C057
:1059C00000C000C08BB900C06A9591F7ECCF2FBF23
:1059D0008FE594E00197F1F700C000002596EFE015
:1059E0000C949D35A0E0B0E0E8EFFCE20C94843527
:1059F0008C01FC014481C42FD0E09E01DE010E9495
:105A00006B369B01AC010E9481366B017C01E0E2A8
:105A1000F0E0EC1BFD0BA5E5B0E09B01AC010E94A2
:105A200081364B015C019F01DF010E9463369B01BF
:105A3000AC010E948C369B01AC012C0D3D1D4E1D0E
:105A40005F1DC501B4010E943436C22FD22F2A3205
:105A500028F4F3E02F9F900111240DC025E530E0DC
:105A60002C1B3109C901880F991F280F391F37FFD7
:105A700002C02F5F3F4F35952795C22FC095F12C5F
:105A800085E5E82EED1A80912601F816C8F4F1FCA0
:105A900002C08E2D01C08D2F909124012F2D30E05A
:105AA000290F311DA901440F551F240F351F275100
:105AB0003B4F4C2F6091F6050E944F25F394E3CFA6
:105AC0000E943B2CF8018481811102C091E003C047
:105AD000803219F49FEF9093210190912101890F59
