:100000000C9432070C9479070C9479070C947907B7
:100010000C9479070C9479070C9479070C94790760
:100020000C9479070C9479070C9453290C948F281D
:100030000C94F91F0C9479070C9479070C947907A8
:100040000C9479070C9479070C9479070C94790730
:100050000C9479070C94AC1F0C9479070C947907D5
:100060000C9479070C9479070C9479070C94790710
:100070000C9479070C9479070C9479070C94790700
:100080000C9479070C9479070C9479070C947907F0
:100090000C9479070C9479070C9479070C947907E0
:1000A0000C9479070C9479070C947907530E5F0E22
:1000B0006C0EAF0EE10E140F460F780FA90FDB0F79
:1000C0000F1041107210A410D21007113E11B2147B
:1000D000B214EA14EA1441155D15D716D71668153F
:1000E0004616571657165A0E5F0E6C0EAF0EE10EDF
:1000F000140F460F780FA90FDB0F0F10411072106D
:10010000A410D21007113E1117175F0E6C0EAF0E20
:10011000E10E140F460F780FA90FDB0F0F104110DF
:100120007210A410D21007113E1195219521A8211B
:10013000A8219E21A821A821A82195219521A321AC
:10014000A821A821A321AA26D1266728D12667287D
:1001500019273C2767282B283E2852018466FFFF79
:10016000000000000C01AAFFFF1101AAFFFF180107
:10017000AAFFFF1D01AAFFFF3101AAFFFF3701AA55
:10018000FFFF3C01AAFFFF4301AAFFFF0D011CFF77
:10019000FF10011CFFFF19011CFFFF1C011CFFFFCA
:1001A00023011CFFFF2D011CFFFF30011CFFFF3846
:1001B000011CFFFF3B011CFFFF44011CFFFF470127
:1001C0001CFFFF50011CFFFFFF000000000E021C7F
:1001D000FFFF1A021CFFFF24011CFFFF2E021CFF61
:1001E000FF39021CFFFF45021CFFFF51011CFFFFEE
:1001F0002B0155FFFF310255FFFF360155FFFF3B35
:100200000A8466FF470A8466FFFF0000000025019C
:1002100000FFFFFF0000000000DA0281FFD9F1DBE0
:1002200020A4A62EAF00A0C000A1C800AED580A813
:100230001FD300408D1420000E02CD0164015A012D
:1002400000001E0F05643214783C1E1E140A05209F
:100250002020202020003C5343523E20002020201C
:10026000202020003C4E554D3E20000A202020201A
:10027000202020000A3C434150533E200044564F6A
:1002800052414B0041444A5553540A00466E3228AD
:100290005241495345290A00466E31284C4F574573
:1002A00052290A004C617965723A004A4953283153
:1002B0003039290A00414E534928313034290A0087
:1002C0004D6F6465203A0029002B00E0008B6249E5
:1002D000001F00360012001400350421001300181E
:1002E000000E00005739002A002800F300650024A2
:1002F000000A000B0010002C432600150011001905
:10030000004A002F002D00380031004D0004512A12
:10031000004C0049008A721E00340004003300E3E0
:10032000002000370008000D00E20022001C000C35
:10033000001B00E00023000900070005008B712569
:1003400000060017001A00E60027000F0016001D27
:1003500000520030002E008A7228714B0000004EBF
:10036000004F005100500001000100010001000198
:1003700000615D01000100010001000100010001B8
:1003800000010001006F5D01000100010001006338
:100390005D0100010001000100655D010001000137
:1003A000000100695D675D01006B5D0100045101A2
:1003B0000001000100010001006D5D01006C5D01A4
:1003C0000001000100010001000100010001000125
:1003D0000001000100625D010001000100010064F4
:1003E0005D0100010001000100665D0100010001E6
:1003F0000001006A5D685D0100010001000000016C
:1004000000010001000100350201000100010001AE
:10041000003B004A0050001B0101003D004D004F11
:10042000001901010049004C00010001003D144089
:1004300000000052005100010042002E005F005CED
:100440000059004400550061005E005B005300014C
:1004500000010001004E003A00000000001D0101F3
:10046000003C0052005100060101003E000000293E
:1004700000000001003F0000004A00500001004160
:100480000000004D004F004B004300540060005D31
:10049000005A0045005600570058000100000001B6
:1004A000006300605D620035000100E000010001B2
:1004B0000045003B004E001B01010000003D004DC7
:1004C000001901010049004C00010001003D140029
:1004D00000400050002800010000004200520000CF
:1004E0000000000000440000000000000053000174
:1004F0000001000100010044003A004A001D010112
:100500000000003C004B000601010000003E0029F5
:10051000000000010000003F002A00000000000071
:10052000004100510000000100000043004F0000A6
:10053000000000000045008A723D14010000000127
:10054000000000000000005F5D00000000010001ED
:10055000000000C65CC75C000001000000CA5CCB64
:100560005C00000052005C00000000C35C01000061
:10057000000000A8000000015200000000A90000D7
:100580000000004700000000000000000001000023
:10059000000000000000000000000000000000015A
:1005A000000000C85CC95C000001000000C45CC51C
:1005B0005CC35C01000000000000000000000000BF
:1005C000000000AA0000000100460000000000003A
:1005D00000000048000000010001000000000000D1
:1005E0000000000000000000010101010101010103
:1005F00001020202020202020202030303030303D6
:1006000003030404040404040405050505050606A3
:100610000606060707070707080808080909090961
:100620000A0A0A0B0B0B0C0C0C0D0D0D0E0E0E0F07
:100630000F0F101011111112121313141415151697
:10064000161717181819191A1A1B1B1C1D1D1E1E08
:100650001F20202122222324242526262728292959
:100660002A2B2C2D2D2E2F30313232333435363784
:1006700038393A3B3C3D3E3F404142434445464782
:1006800048494A4C4D4E4F50515354555658595A5B
:100690005B5D5E5F616264656668696B6C6D6F70FF
:1006A00072737577787A7B7D7E8082838587888A6E
:1006B0008C8E8F91939596989A9C9EA0A2A3A5A7A5
:1006C000A9ABADAFB1B3B5B7BABCBEC0C2C4C6C9A1
:1006D000CBCDCFD1D4D6D8DBDDDFE2E4E7E9EBEE5A
:1006E000F0F3F5F8FAFDFF05010902A10185020901
:1006F00001A10005091901290815002501950875B2
:100700000181020501093009311581257F950275A6
:1007100008810609381581257F9501750881060530
:100720000C0A38021581257F950175088106C0C025
:1007300005010980A101850319012AB700150126C9
:10074000B700950175108100C0050C0901A1018554
:100750000419012AA002150126A002950175108135
:1007600000C005010906A101050719E029E71500E8
:10077000250195087501810295017508810105071C
:10078000190029FF150026FF009506750881000550
:1007900008190129059505750191029501750391C7
:1007A00001C009023B00020100A0FA090400000197
:1007B0000301010009211101000122400007058108
:1007C0000308000A090401000103000000092111C7
:1007D000010001227B000705820320000A1201109C
:1007E0000100000008EDFE150601000102000114E1
:1007F000034F005000540049004D004100360031C5
:10080000003500000010034C0065006B00690070AB
:10081000006F006E000000040309040000000000E7
:10082000003E5B4F5B3E003E6B4F6B3E001C3E7CD0
:100830003E1C00183C7E3C18001C577D571C001CB9
:100840005E7F5E1C0000183C180000FFE7C3E7FF56
:1008500000001824180000FFE7DBE7FF0030483AEB
:10086000060E00262979292600407F05050700404D
:100870007F05253F005A3CE73C5A007F3E1C1C0880
:1008800000081C1C3E7F0014227F2214005F5F00C2
:100890005F5F0006097F017F00006689956A00603E
:1008A000606060600094A2FFA2940008047E0408C7
:1008B0000010207E20100008082A1C0800081C2AAE
:1008C0000808001E10101010000C1E0C1E0C00302A
:1008D000383E383000060E3E0E06000000000000D4
:1008E0000000005F000000000700070000147F14F4
:1008F0007F1400242A7F2A12002313086462003622
:100900004956205000000807030000001C22410047
:10091000000041221C00002A1C7F1C2A0008083EFF
:10092000080800008070300000080808080800006F
:1009300000606000002010080402003E5149453E5E
:100940000000427F40000072494949460021414968
:100950004D33001814127F10002745454539003CDF
:100960004A494931004121110907003649494936B0
:1009700000464949291E00000014000000004034D0
:100980000000000008142241001414141414000084
:1009900041221408000201590906003E415D594EEA
:1009A000007C1211127C007F49494936003E4141CA
:1009B0004122007F4141413E007F49494941007F3A
:1009C00009090901003E41415173007F0808087F71
:1009D0000000417F4100002040413F01007F08149A
:1009E0002241007F40404040007F021C027F007F88
:1009F0000408107F003E4141413E007F090909067D
:100A0000003E4151215E007F0919294600264949CF
:100A100049320003017F0103003F4040403F001F77
:100A20002040201F003F4038403F006314081463FB
:100A3000000304780403006159494D4300007F41DD
:100A4000414100020408102000004141417F0004A0
:100A5000020102040040404040400000030708003B
:100A6000002054547840007F2844443800384444DF
:100A7000442800384444287F003854545418000057
:100A8000087E09020018A4A49C78007F080404785A
:100A90000000447D4000002040403D00007F1028C1
:100AA00044000000417F4000007C04780478007C12
:100AB0000804047800384444443800FC18242418FE
:100AC0000018242418FC007C08040408004854542E
:100AD00054240004043F4424003C4040207C001C7B
:100AE0002040201C003C4030403C0044281028445A
:100AF000004C9090907C004464544C4400000836B4
:100B000041000000007700000000413608000002AC
:100B100001020402003C2623263C000000000000E5
:100B200000404040F0F8F8FF38FFF8F83FF8F8FFD1
:100B300038FFF8F8F040404000000000000080C09E
:100B4000C0C0800000C0C08000000080C0C000C0E5
:100B5000C0000080C0C00000000000C0C0C0C0C015
:100B600000C0C00000000000000000000000000005
:100B70000000000000000000000000000000000075
:100B80000000000000000000000000000000000065
:100B900000000000000000000000C0F0F8FC3E1E55
:100BA00006010000007F4141417F007F4141417FBC
:100BB000000080C0E07E5B4F5BFEC00000C000DC38
:100BC000D7DEDEDED7DC00C0000000000000000041
:100BD0000000000000000000000000000000000015
:100BE00000494949FFFFFFFFE0DFBFBF00BFBFDF94
:100BF000E0FFFFFFFF49494900000000001F3F6080
:100C000060E0BF1F007F7F071E381E077F7F007FC9
:100C10007F0E1F3B716000000000007F7F0C0C0CFA
:100C2000007E7E007F7E0303007F7E03037E7E03C3
:100C3000037F7E000F3E703C063C703E0F00327B0F
:100C400049493F7E007F7E0303001E3F69696F268E
:100C500000000000000000000000030F1F3F3C7870
:100C600070600000007F4141417F007F4141417F32
:100C700000307B7F7830202030787F3B0003000FEE
:100C80007F0F0F0F7F0F0003000000000000000027
:100C90000000000000000000000000000000000054
:100CA00000010101070F0F7F0F7F0F0F7E0F0F7FD6
:100CB0000F7F0F0F0701010100000000000000007E
:100CC0000000010100000000000000000000000022
:100CD0000000000000000000000000000000000014
:100CE0000000000000000000000000000000000004
:100CF00000000000000000000000000000000000F4
:100D000000000000000000000000000000000000E3
:100D100000000000000000000000000000000000D3
:100D200000000000000000000000000000000000C3
:100D300000000000000000000000000000000000B3
:100D400000000000000000000000000000000000A3
:100D50000000000000000000000000FFAA7F5540D6
:100D60002223252628292A2C2D2F303233353638B8
:100D70003A3B3D3E4042434547494A4C4E50515311
:100D80005557595A5C5E6062646668696B6D6F7135
:100D9000737577797B7D7F81838587898A8C8E9037
:100DA000929496989A9C9E9FA1A3A5A7A8AAACAE40
:100DB000AFB1B3B4B6B8B9BBBCBEBFC1C2C3C5C680
:100DC000C7C9CACBCCCDCED0D1D2D2D3D4D5D6D729
:100DD000D7D8D9D9DADADBDBDBDCDCDCDCDCDDDD67
:100DE000DDDDDCDCDCDCDCDBDBDBDADAD9D9D8D757
:100DF000D7D6D5D4D3D2D2D1D0CECDCCCBCAC9C7F9
:100E0000C6C5C3C2C1BFBEBCBBB9B8B6B4B3B1AF2F
:100E1000AEACAAA8A7A5A3A19F9E9C9A98969492CF
:100E2000908E8C8A89878583817F7D7B79777573A6
:100E3000716F6D6B6968666462605E5C5A59575584
:100E40005351504E4C4A4947454342403E3D3B3A40
:100E50003836353332302F2D2C2A292826252322C7
:100E600000AF00AE11241FBECFEFDAE0DEBFCDBF72
:100E700004B603FE27C08091B8079091B907A091EE
:100E8000BA07B091BB078730904BA740B04BD1F465
:100E90001092B8071092B9071092BA071092BB07C8
:100EA00014BE84B7877F84BF0FB6F894A89580914D
:100EB0006000886180936000109260000FBEE0E0E7
:100EC000F8E3099511E0A0E0B1E0EAEDF8E602C030
:100ED00005900D92A03CB107D9F727E0A0ECB1E056
:100EE00001C01D92A83BB207E1F70E947B070C945A
:100EF0006B340C940000CF93DF93CDB7DEB76297CD
:100F00000FB6F894DEBF0FBECDBF84B7877F84BF16
:100F10000FB6F894A8958091600088618093600076
:100F2000109260000FBE90E080E80FB6F8948093B6
:100F30006100909361000FBE85B7806885BF85B75B
:100F4000806885BF84E09FE19093C1018093C001D8
:100F50000E94D3280E94F2288091E200846080934E
:100F6000E20078948091DD028823A1F01091E900DD
:100F70001F709091EC00892F817090FD80E8182BF4
:100F80001092E9008091E80083FD0E94C6251F7041
:100F90001093E90082E084BD93E095BD9AEF97BD80
:100FA00080936E00A1E4B1E021E531E0AD0161E0A4
:100FB00070E0FA018191AF01E82FE295EF70F0E067
:100FC00011A18F705B0102C0AA0CBB1C8A95E2F7CD
:100FD000C5019A2D9095912391A392A1892B82A36B
:100FE0002417350731F741E551E066E571E08A01E4
:100FF000EE24E394F12CF80181918F01E82FE29522
:10100000EF70F0E0D1A08F70570102C0AA0CBB1C9A
:101010008A95E2F7C5019A2D90959D2191A392A101
:10102000892B82A36017710731F701E010E0FA0104
:101030008191AF01E82FE295EF70F0E0F1A08F70A1
:10104000580102C0AA0CBB1C8A95E2F7C5019A2D73
:1010500090959F2191A392A1892B82A36417750774
:1010600031F761E070E08D91E82FE295EF70F0E0EC
:1010700041A18F706B0102C0CC0CDD1C8A95E2F798
:10108000C6019C2D9095942391A392A1892B82A3B4
:101090002A173B0741F7E4ECF1E084ED91E0ACED79
:1010A000B1E011921D928E179F07D9F780E090E072
:1010B0000E946B338A3E9E4F11F00E945A2082E0BC
:1010C00090E00E945D3380933A020E944920909301
:1010D000C3018093C20183E090E00E945D33682FDA
:1010E00070E080E090E00E9495226091FD01709197
:1010F000FE018091FF01909100020E94A71C1092B6
:10110000250280E88093E7020E9413326DE070E0D0
:101110008BE292E00E947125892B09F043C08091F7
:10112000250263E070E081FD3AC088E292E00E940F
:101130007125892BB9F56DE070E088E192E00E949D
:101140007125892B79F50E94E11FDC01CB01805AC2
:101150009541AF4FBF4F8093270290932802A093F1
:101160002902B0932A02EAEEF2E080E092E0DF0189
:101170008C011D9201501040E1F7F093F104E093CF
:10118000F0048FEF9FEF9093E9028093E80281E0F3
:1011900080932C0280932B021092260203C085E2DA
:1011A00092E0C5CF8091D401811136C080E090E0FB
:1011B0000E946B338A3E9E4F21F00E945A200E946B
:1011C000D91888E090E00E9465336093F201709333
:1011D000F3018093F4019093F5016E7F71F40E9406
:1011E000D91888E090E00E9465336093F201709313
:1011F000F3018093F4019093F5010E943D18109241
:10120000F8018091F20180FF04C060E086950E94A1
:101210008B1881E08093D40184988C9A85988D9A5C
:101220008FB1829581707D9902C090E001C092E0FB
:10123000892B8093FC0188E392E09093D601809300
:10124000D50183E08093060188E58093070185E559
:101250008093080183E00E942B1D2FEF33EC49E0BF
:10126000215030404040E1F700C0000080E00E9483
:101270002B1D80E191E09093D8018093D70150E439
:10128000652E8091DD02853009F083C0FF24F39440
:1012900000E112E18091DD02853009F05DC08091AE
:1012A000DD02843009F444C00E948F2B80E00E944C
:1012B000461D1092F8018091DB01811116C0F09259
:1012C000DB018091F201982F91709093DA018E7F6B
:1012D0008093F2018FEF90E7A2E081509040A04010
:1012E000E1F700C000000E94172C1092D901E8E13C
:1012F000F0E00FB6F894A895E09360000FBE6092FE
:10130000600083B7817F846083BF83B7816083BFC0
:101310007894889583B78E7F83BF0FB6F894A8958D
:1013200080916000886180936000109260000FBE21
:101330008091DC02882309F4ADCF0E947B1DECED87
:10134000F1E081918111E7C34CEEA42E41E0B42E6F
:10135000AE16BF06B1F79ECF0E94D8240E94172B6D
:101360000E94461D1092DB018091DA01882351F022
:101370008091F20181608093F20160E086950E9485
:101380008B1805C08091F90181110E94172C0E94D1
:10139000D02F0E947B1DE82E81110E94E11FABE33C
:1013A000B2E0ECEDF1E000E010E0302F21919D91F2
:1013B000922721F180E0FF24F394492F4F21D1F0AF
:1013C0008F8338872F2181E009F480E089870E948C
:1013D000ED1F8160782F9B878A874F8158856985AB
:1013E0008B850E944D2AF801E55CFD4F8081F8262F
:1013F000F08219C08F5FFF0C8530F9F60F5F1F4F29
:101400000031110591F68FEF8C878D871E860E9423
:10141000ED1F8160782F988B8F874C855D856E8559
:1014200088890E944D2A8091F801882309F479C0A7
:101430009091F701E091F201E6958E2F891B809340
:10144000EE01923061F4E82FF0E0E55BFD4FE491AE
:101450000E2F10E039E3C32E3AE2D32E3DC0963072
:1014600061F4E82FF0E0E85BFD4FE4910E2F10E00F
:1014700029E2C22E2AE2D22E2FC0993069F4E82F39
:10148000E695F0E0EB5BFD4FE4910E2F10E093E565
:10149000C92E9EE2D92E20C09F3089F09A31B1F436
:1014A00063E00E940834E92FF0E0EE5BFD4FE49129
:1014B0000E2F10E08DEEC82E8CE2D82E0DC008E263
:1014C00010E0B0ECCB2EBDE2DB2E06C000ED17E045
:1014D000A8E2CA2EAAE2DA2E8091EF01882361F0F9
:1014E0001092EF010E94ED1F9093ED018093EC01AB
:1014F0001092F1011092F0010E94ED1FE091EC01B9
:10150000F091ED018E1B9F0B8F3F9F4750F40E0F04
:101510001F1F1093ED010093EC018CEE91E0F6019A
:1015200009958091FC01E82FEE0FEE0FE093FC018E
:101530008FB184FB222420F8312C7D9903C080E0F8
:1015400090E002C082E090E0822993298E2B809364
:10155000FC018F70E82FF0E0EA5AFE4F90818091F5
:10156000FB01890F8093FB01823074F18091FA01B5
:101570008F5F8093FA016091FD017091FE0180916F
:10158000FF01909100020E94571C833089F0843043
:1015900089F08230A9F481E00E94F12F8BE40E944F
:1015A0006C308BE40E940C3081E00E94E62F05C075
:1015B0008BEF07C080E00E943018FF24F39405C031
:1015C0008AEF0E941031F9CFF12C8091FB018F3FFF
:1015D0006CF58091FA0181508093FA016091FD01D0
:1015E0007091FE018091FF01909100020E94571CB2
:1015F000833089F0843089F0823099F481E00E9450
:10160000F12F8EE40E946C308EE40E940C3081E059
:101610000E94E62F09C08CEF05C080E00E942318CD
:1016200003C089EF0E941031FF24F3948091FB01E5
:10163000082E000C990B62E070E00E942834809321
:10164000FB01F1100E94E11F80912C02882309F414
:101650006CC18AEE92E09093F1048093F00480ECE8
:1016600092E00E94632560910102709102028091D4
:101670000302909104020E94571C882329F08130B4
:1016800039F48BEA92E002C085EB92E00E94632578
:1016900084EA92E00E9463256091FD017091FE0151
:1016A0008091FF01909100020E94571C833039F015
:1016B000843051F0823059F488E992E002C08CE81D
:1016C00092E00E9463250AC084E892E0FACF8DE799
:1016D00092E00E94632581E00E94CF2B0E94172B8D
:1016E00081FD03C08BE692E002C084E792E00E9495
:1016F00063250E94172B80FD03C08DE592E002C098
:1017000084E692E00E9463250E94172B82FD03C0AD
:101710008FE492E002C086E592E00E94632580910A
:101720002C02882309F4E6C02091E8023091E902F6
:101730002115310509F4DEC0809126028111DAC03D
:10174000482E512CCC24C394D12C082E02C0CC0C92
:10175000DD1C0A94E2F7A9014C215D21452B11F40F
:101760008F5FEECF909125029201E5E0220F331FAB
:10177000EA95E1F790FD12C08295880F80768093FC
:101780000B01220F232F221F330B319520930E01C3
:10179000815E80930C0110920F0112C065E03695B6
:1017A00027956A95E1F7220F220F220F20930B0154
:1017B00010920E01295F20930C0183E080930F01AA
:1017C00024E630E047E050E069E071E088E70E94FD
:1017D000A032892B09F08EC08091250280FD23C0A4
:1017E000C20155E0880F991F5A95E1F7AC014651A7
:1017F0005D4F04E610E020E230E060E488E70E94FC
:10180000C732892B09F076C00E94A92BC094D094CE
:101810008091E8029091E902C822D922D092E9028F
:10182000C092E80267C080E2E5E0F2E0DF011D92CD
:101830008A95E9F745E0440C551C4A95E1F7EAE63C
:10184000F1E0FA8BE98B66E671E0A989BA898D919E
:10185000BA8BA98BFB019191BF01A201490F511DC8
:1018600046515D4F90E08B5F9D4FFC0137E0A32E0A
:101870009F01281B390B8824839401C0880C2A956A
:10188000EAF78A01912CD801BD908D01B8202A2D4C
:1018900029192770722E022E000C330BBB2D01C0AC
:1018A000BB0F7A94EAF77B2E319521953109277089
:1018B000332701C0B6942A95EAF77B28B0807B28AD
:1018C0007082939428E0B22E9B10DDCFAA943196BB
:1018D0000FEFA012CDCF2EE631E089899A89281723
:1018E000390709F0B2CF04E610E020E230E045E02D
:1018F00052E083CF80912B028823B9F00E94E11F30
:1019000000912702109128022091290230912A0289
:10191000DC01CB01801B910BA20BB30B8F3F9F4FC0
:10192000AF4FBF4710F40E948F2BE11001C0F110A0
:101930000E94A92B86E0E3E3F2E0DE01119601901C
:101940000D928A95E1F7E0903502F0903602009111
:10195000370210913802109235021092360210921E
:10196000370210923802E11003C0FF2009F451C081
:1019700080913102909132020E94D21F9C0190917D
:101980003002992309F4DDC02333310508F441C046
:101990009F3F19F09F5F90933002EE2061F00E940C
:1019A000341A1E1414F09FEF01C091E0899F802D1E
:1019B000112480933502FF2061F00E94341A1F1415
:1019C00014F09FEF01C091E0899F802D1124809336
:1019D0003602309135023323E1F020913602222382
:1019E000C1F045EB3403C0011124992319F0909301
:1019F000350203C081E08093350235EB2303C0013B
:101A00001124992319F09093360203C081E080934A
:101A10003602011103C0112309F451C080912E0236
:101A200090912F020E94D21F9C0190912D02992328
:101A300009F48CC02536310508F441C09F3F19F0E8
:101A40009F5F90932D02002361F00E94121A1016DE
:101A500014F09FEF01C091E0899F802D11248093A5
:101A60003702112361F00E94121A111614F09FEF31
:101A700001C091E0899F802D11248093380230911C
:101A800037023323E1F0209138022223C1F045EBE5
:101A90003403C0011124992319F09093370203C035
:101AA00081E08093370235EB2303C0011124992391
:101AB00019F09093380203C081E08093380280913E
:101AC000350281110BC080913602811107C08091CF
:101AD0003702811103C08091380281110E94511D8B
:101AE000EB82FC820D831E8386E0FE013196A3E328
:101AF000B2E001900D928A95E1F70E94172B909128
:101B00003902891709F4BDCB0E94172B8093390243
:101B10000E94461DB6CB09BD19BD09B400FEFDCF1C
:101B20008091D8008F7D8093D8008091E000826002
:101B30008093E0008091E00081FDFCCF0E94D824DA
:101B4000A9CB2D32314008F025CF63CF2D32314063
:101B500008F076CFB4CF8F929F92AF92BF92CF9280
:101B6000DF92EF92FF920F931F93CF93DF93CDB746
:101B7000DEB72A970FB6F894DEBF0FBECDBFFC01CB
:101B80000081D18083819481892B39F02FEFD2128B
:101B900006C091E00F3F19F403C091E001C090E04E
:101BA00090FF02C00C9446177F0185E0DE01169677
:101BB00001900D928A95E1F7D70112962C918E81B2
:101BC0009F81222349F00E943621182F682F8E8191
:101BD0009F810E94D92103C00E94AC21182FB0E53B
:101BE0001B9FF001112425E0D29EE00DF11D112470
:101BF000E00FF11DEE0FFF1FE953FD4F059114910A
:101C0000D70112968C91882311F40C943917809186
:101C100030018F3F09F47BC33AE1C32E31E0D32E6C
:101C2000A12CB12C9924939480913001082E000CA2
:101C3000990B8A159B0564F1F6018681882309F1C9
:101C4000818592858017910739F480914D0290919A
:101C50004E0280179107A9F0D6011F969C921F97FC
:101C60001C961C930E931B9751968C91811103C067
:101C7000C6010E94232BC60106960E94442B109297
:101C8000C902BFEFAB1ABB0AE6E1CE0ED11CCCCF26
:101C9000F801EF55FD45E131F10508F03FC3EA5A7F
:101CA000FF4F0C943C34D70112968C91882311F489
:101CB0000C9417170E94D9188091F201F0C2F70115
:101CC000828181110C94171782E60E94103182E6FE
:101CD0000E9410310C941717D70112968C9188230B
:101CE00011F40C9417178091540291E0382F327040
:101CF00081FF90E090934C0291E0282F207285FFA5
:101D000090E090934B02311103C0211104C022C016
:101D100081EE0E940C3080914B02882319F085EEF1
:101D20000E940C308FE20E946C308FE20E940C30D7
:101D300080914C02882319F081EE0E946C308091D2
:101D40004B02882311F40C94171785EE0E946C3017
:101D50000C9417178FE10E946C308FE12EC0F701B1
:101D60008281882311F40C9417178091540291E01A
:101D7000382F327081FF90E090934C0291E0282F31
:101D8000207285FF90E090934B02311103C0211126
:101D900004C00FC081EE0E940C3080914B0288235A
:101DA00019F085EE0E940C308EE20E946C308EE2BB
:101DB000BDCF83E20E946C3083E20E940C300C9411
:101DC0001717D70112968C91882311F40C941717CA
:101DD0008091540291E0382F327081FF90E090930F
:101DE0004C0291E0282F207285FF90E090934B02E7
:101DF000311103C0211104C012C081EE0E940C30C9
:101E000080914B02882319F085EE0E940C3081EE00
:101E10000E946C3083E20E946C3083E223C284E231
:101E20000E946C3084E2C9CFF7018281882311F4CB
:101E30000C9417178091540291E0382F327081FF73
:101E400090E090934C0291E0282F207285FF90E063
:101E500090934B02311103C0211104C012C081EED6
:101E60000E940C3080914B02882319F085EE0E946D
:101E70000C3081EE0E946C3084E30E946C3084E36D
:101E8000F1C185E20E946C3085E297CFD7011296AE
:101E90008C91882309F4CBC78091540291E0382FAC
:101EA000327081FF90E090934C0291E0282F2072D5
:101EB00085FF90E090934B02311103C0211104C0C3
:101EC00012C081EE0E940C3080914B02882319F0E1
:101ED00085EE0E940C3081EE0E946C3085E20E94FB
:101EE0006C3085E2BFC186E20E946C3086E265CF2D
:101EF000F7018281882309F49AC78091540291E006
:101F0000382F327081FF90E090934C0291E0282F9F
:101F1000207285FF90E090934B02311103C0211194
:101F200004C012C081EE0E940C3080914B028823C5
:101F300019F085EE0E940C3081EE0E946C3086E232
:101F40000E946C3086E28EC187E20E946C3087E28C
:101F500034CFD70112968C91882309F468C78091F9
:101F6000540291E0382F327081FF90E090934C0240
:101F700091E0282F207285FF90E090934B02311161
:101F800003C0211104C012C081EE0E940C30809168
:101F90004B02882319F085EE0E940C3081EE0E94DE
:101FA0006C3087E80E946C3087E85CC18DE20E944B
:101FB0006C308DE202CFF7018281882309F437C7A4
:101FC0008091540291E0382F327081FF90E090931D
:101FD0004C0291E0282F207285FF90E090934B02F5
:101FE000311103C0211104C012C081EE0E940C30D7
:101FF00080914B02882319F085EE0E940C3081EE0F
:102000000E946C3083E30E946C3083E32BC181EE2D
:102010000E946C308DE20E946C308DE23CC1D70191
:1020200012968C91882309F402C78091540291E0A2
:10203000382F327081FF90E090934C0291E0282F6E
:10204000207285FF90E090934B02311103C0211163
:1020500004C012C081EE0E940C3080914B02882394
:1020600019F085EE0E940C3081EE0E946C3080E306
:102070000E946C3080E3F6C080E30E946C3080E305
:102080009CCEF7018281882309F4D1C68091540245
:1020900091E0382F327081FF90E090934C0291E0F4
:1020A000282F207285FF90E090934B02311103C0DE
:1020B000211104C012C081EE0E940C3080914B02AD
:1020C000882319F085EE0E940C3081EE0E946C305E
:1020D00082E30E946C3082E3C5C082E30E946C30D0
:1020E00082E36BCED70112968C91882309F49FC6A8
:1020F0008091540291E0382F327081FF90E09093EC
:102100004C0291E0282F207285FF90E090934B02C3
:10211000311103C0211104C012C081EE0E940C30A5
:1021200080914B02882319F085EE0E940C3081EEDD
:102130000E946C3089E80E946C3089E893C087E87F
:102140000E946C3087E839CEF7018281882309F438
:102150006EC68091540291E0382F327081FF90E07A
:1021600090934C0291E0282F207285FF90E090938D
:102170004B02311103C0211104C00FC081EE0E9437
:102180000C3080914B02882319F085EE0E940C30B0
:1021900084E30E946C3084E3C9CD83E30E946C30F9
:1021A00083E30BCED70112968C91882309F43FC6A6
:1021B0008091540291E0382F327081FF90E090932B
:1021C0004C0291E0282F207285FF90E090934B0203
:1021D000311103C0211104C012C081EE0E940C30E5
:1021E00080914B02882319F085EE0E940C3081EE1D
:1021F0000E946C308FE10E946C308FE133C081EE21
:102200000E946C3084E20E946C3084E244C0F7018A
:102210008281882309F40BC68091540291E0382F03
:10222000327081FF90E090934C0291E0282F207251
:1022300085FF90E090934B02311103C0211104C03F
:1022400015C081EE0E940C3080914B02882319F05A
:1022500085EE0E940C3081EE0E946C308FE20E946D
:102260006C308FE20E940C3081EE60CD81EE0E94D6
:102270006C308EE20E946C308EE20DC0D701129657
:102280008C91882309F4D3C581EE0E946C3089E3D8
:102290000E946C3089E30E940C3081EE8ECD81600B
:1022A0008093F20161E086952FC0D70112968C9140
:1022B000882309F407C210924F020230BCE51B07C5
:1022C00008F0CFC08091CA0206319CE5190709F4D5
:1022D000E9C182720D3CACE51A0709F4A7C208F403
:1022E00002C2043DFCE51F0708F04FC2023D2CE589
:1022F000120708F09CC50F3C8CE5180709F49DC235
:1023000008F036C261E081E00E948B1890C5F801A8
:10231000EF55FD45E131F10508F4A7C5C801975512
:102320008F3F910511F008F053C020913001022E2B
:10233000000C330B2817390714F480933001F70190
:10234000228136E1389F5001399FB00C1124C5011C
:10235000865E9E4F6C01DC0150962C9350979281C3
:1023600016968C911697992341F11A961C930E9309
:1023700019978F5F16968C930E94ED1FF601968732
:1023800085878091CB0287839091C9028091CA0290
:10239000892B80870190F081E02D309749F0D6019C
:1023A00054966D917C915597C501805E9E4F09951D
:1023B00010934E0200934D020BC0882349F0F601A2
:1023C0008189882329F0C501805E9E4F0E94442B9D
:1023D000043FFCE51F0751F198F4093D8CE518070F
:1023E000F9F00A3D9CE5190799F1083DACE51A079B
:1023F00009F05BCF06E221EE41EE68ED7CE52DC0F1
:10240000063FBCE51B07F1F0B8F0073FFCE51F07EE
:1024100009F04BCF07E225EE46EE67EF7CE51DC0E5
:1024200007E225EE45EE69ED7CE517C006E221EEF8
:1024300040EE64EF7CE511C007E225EE44EE65EF67
:102440007CE50BC006E221EE42EE66EF7CE505C0BE
:1024500008E221E045EE6AED7CE5C7010E945D2FB0
:10246000E6C40631ECE51E0730F0C8018B5F9C45E1
:10247000099708F027CF0E9449209093C3018093C9
:10248000C2010031FCE51F0709F4C3C008F041C0D8
:1024900008308CE5180709F49AC0F0F40430ACE574
:1024A0001A0709F487C068F40230ECE51E0709F446
:1024B00077C003301C4509F0E5C08091C2018260FD
:1024C00076C006302CE5120709F46EC008F07BC018
:1024D0008091C20188606BC00C309CE5190709F43B
:1024E00085C068F40A30BCE51B0709F474C008F025
:1024F00079C00E94D8248091C201806858C00E30F3
:10250000FCE51F0709F476C008F07FC08091C20186
:102510008BC00C3F8CE5180709F44FC018F5033148
:10252000ACE51A0709F47DC078F40131ECE51E072B
:1025300009F473C002311C4509F0A4C00E94D824DC
:102540008091C2018F7733C005312CE5120709F461
:1025500072C008F486C00B3F1C4509F093C08091FF
:10256000C3013EC00115ADE51A0709F45FC058F478
:102570000E3FECE51E0709F444C008F43FC080910B
:10258000C30182602DC002302DE5120709F475C029
:1025900008F45DC003301D4509F074C060E06EC0F2
:1025A0008091C201816003C08091C20180618093EB
:1025B000C20168C08091C20111C08091C3018260D4
:1025C0008093C3015FC08091C2018062F0CF80918F
:1025D000C2018064ECCF8091C20188608460E7CF43
:1025E0008160EECF8091C2018E7FE1CF8091C201E8
:1025F0008D7FDDCF8091C201877FD9CF8091C301CC
:1026000018C08091C3018D7FDBCF8091C2018F7E86
:10261000CECF8091C2018F7DCACF8091C2018F7BC6
:10262000C6CF8091C201877F8B7FC1CF8091C301CC
:102630008D7F8E7FC5CF8091C20182FB222720F93A
:1026400091E0922790FB82F990FB83F9B0CF8091C3
:10265000C301982F909591708E7F892B90FB81F903
:10266000AFCF0E94D8248091C20187FB222720F996
:1026700091E0922790FB87F99ACF61E08EE090E09D
:102680000E9471336091C2011091C30184E090E017
:102690000E947133612F82E290E00E9471330E94A8
:1026A000D824C5C38A7A91E009F490E0909350024F
:1026B000882311F065E301C069E284E592E00E949D
:1026C0002F200EC006311C4509F004C18091500234
:1026D000882309F4D9C365E384E592E00E942220AF
:1026E0000E94D220A4C3073CECE51E0709F48AC06F
:1026F000D8F4043C2CE5120709F47AC030F4033C0A
:10270000ACE51A0709F455C0A6C0053CBCE51B079B
:1027100009F473C0063CECE51E0709F09CC04DE2CD
:1027200058E16AE378E186C00A3CFCE51F0709F43A
:1027300073C078F4083C9CE5190709F468C0093CAB
:10274000ACE51A0709F087C040EC57E164EB77E18C
:1027500071C00B3CBCE51B0709F463C00C3CECE505
:102760001E0709F078C049E658E16AE778E162C0DF
:10277000003DACE51A0709F463C0013DBCE51B0749
:1027800009F069C06EE089E063C0053DECE51E0715
:1027900009F45CC008F457C0063D2CE5120709F4A3
:1027A00046C30E358DE5180709F055C06FE18AE183
:1027B0004FC08091F20180FF72CD8E7F8093F20135
:1027C0006091F2017091F3018091F4019091F50113
:1027D0000E9457181092F8019FEFA0E7B2E09150C5
:1027E000A040B040E1F700C000000E94172C1FC3BA
:1027F00046EC58E16FEC78E11DC04FEC58E166EC17
:1028000078E118C04AE358E16DE278E113C044EB87
:1028100057E160EC77E10EC04CE957E168EA77E1F7
:1028200009C048EA57E16CE977E104C04AE758E19A
:1028300069E678E10E94112CFAC265E082E008C0E6
:1028400068E086E005C061E08FE05ECD69E180E18F
:102850000E94FF2BECC20B35EDE51E07B1F150F4E1
:1028600001152CE51207A9F00F3D1C4599F50E94B2
:102870005A20DDC20C359DE5190749F10D351D457E
:1028800049F58091C30182FB882780F991E089276F
:102890001FC00E94D824BFEFE4E3FCE0B150E04049
:1028A000F040E1F700C0000087E797E79093010848
:1028B000809300089AE088E10FB6F894A895809379
:1028C00060000FBE90936000FFCF81E001C080E008
:1028D0000E941C21D70112968C9112970D911C9188
:1028E000882349F0C8010E943621D82E682FC801DC
:1028F0000E94D92104C0C8010E94AC21D82EB80181
:102900008D2D0E94AF1A8C01982EF701D280A580E0
:10291000A2942FE0A2228091C702877099F0DD2057
:1029200089F0812F807F803421F080E2800F883011
:1029300048F082E00E9457228091C7028770CC2421
:10294000C3948111C12CB12EB2949FE0B9228B2D7A
:1029500090E08C30910508F02AC2FC01E959FF4F44
:102960000C943C34812F807F1F70882311F01295C6
:10297000107FDD20B9F0112309F404C280E2800F3A
:10298000883010F0911006C08091CA02182B109365
:10299000CA0205C08091C902182B1093C9020E9477
:1029A000D220F0C1802F0E940C30112309F4FFC106
:1029B000005E083010F0911004C0812F0E94CB20DF
:1029C00006C010958091C90218231093C9020E9475
:1029D000D220EDC1812F807F1F70803211F01295BF
:1029E000107F992021F0F1E09F1601F12EC0DD202B
:1029F000A1F08091CB02AA2071F021E0A2120BC0BD
:102A0000182B9091C30192FDD2C1181709F4CFC1C0
:102A10001093CB02CCC1812B10C0AA2021F081E001
:102A2000A81609F4C4C10E94C52027C0DD2041F0CA
:102A300095E09A1508F4BBC1812F0E940230B7C1FE
:102A4000A4E0AA1508F4B3C118C0DD2049F0AA20FB
:102A500099F3F701858180FF95C18F708583ECCF55
:102A6000AA2059F0093309F09FC1FFEF27EE83E058
:102A7000F15020408040E1F795C1812F0E94FB2F4B
:102A800096C1812F86958695837019F0813059F013
:102A90008EC1DD2019F0C801937002C080E090E083
:102AA0000E94012B8CC1DD2019F0C801937002C077
:102AB00080E090E00E94EB2A82C1802FDD2019F097
:102AC0000E94541A02C00E949B190E94511D77C196
:102AD000812F837009F069C0D1106DC1902F92953C
:102AE00096959770990F990F802F8F70882E912C43
:102AF000A12CB12C092E04C0880C991CAA1CBB1C4B
:102B00000A94D2F704FF12C04FE050E060E070E09A
:102B100004C0440F551F661F771F9A95D2F7DB013B
:102B2000CA0180959095A095B09503C080E090E093
:102B3000DC0116951695412F4370423019F1C8F407
:102B400000910102109102022091030230910402CF
:102B5000413059F088299929AA29BB29BC01CD0106
:102B600060237123822393230AC0802A912AA22AF8
:102B7000B32ABC01CD01682979298A299B290E94A1
:102B8000952219C188299929AA29BB2900910102F6
:102B9000109102022091030230910402BC01CD0188
:102BA0006027712782279327EACFDD2019F0812F34
:102BB000817001C08695882309F4FDC0902F9295FD
:102BC00096959770990F990F802F8F70882E912C62
:102BD000A12CB12C092E04C0880C991CAA1CBB1C6A
:102BE0000A94D2F704FF12C04FE050E060E070E0BA
:102BF00004C0440F551F661F771F9A95D2F7DB015B
:102C0000CA0180959095A095B09503C080E090E0B2
:102C1000DC0116951695412F43704230D9F068F5C6
:102C20000091FD011091FE012091FF013091000201
:102C3000413059F088299929AA29BB29BC01CD0125
:102C400060237123822393231EC0802A912AA22A03
:102C5000B32A13C088299929AA29BB290091FD010B
:102C60001091FE012091FF0130910002BC01CD01C5
:102C7000602771278227932706C0BC01CD016829F0
:102C800079298A299B290E94052295C01F70DD2081
:102C900039F0812F0E947422802F0E9402308BC055
:102CA000802F0E94FB2F812F0E94322284C0802F10
:102CB00092EF991629F1991538F0A0EF9A1659F06C
:102CC000B1EF9B16C1F059C0E3EF9E1601F1F4EF8E
:102CD0009F16A1F152C0DD2049F024E02A1508F426
:102CE00066C0812F8F710E94112261C085E08A1514
:102CF00008F45DC0F6CFDD2029F0812F8F7130C040
:102D0000DD20D9F3812F8F710E94322250C0DD2047
:102D100079F01F7181E090E0A0E0B0E0BC01CD014E
:102D200004C0660F771F881F991F1A95D2F703C03A
:102D300060E070E0CB010E94052239C0DD2099F0EF
:102D40001F71812F0E9474228091C30182FD07C0F0
:102D5000A8E01A9FC001112483608093C702812FCD
:102D60000E94742224C081E00E945722B1E0BA156B
:102D7000F0F482E00E9457221AC0DD2039F0AA2028
:102D800009F4BBCF802F0E946C3011C0AA2009F437
:102D9000B9CF893349F4EFEFF7EE23E0E150F0408B
:102DA0002040E1F700C00000802F0E940C3088EF27
:102DB0008B0D843020F40E94172B0E94461DCC20DE
:102DC000B1F08091C70280FD12C0D70112961C920B
:102DD0008595859585950E947422C7010E94AB0D4B
:102DE0008091C7028595859585950E94322285E060
:102DF000F701DE01119601900D928A95E1F7898124
:102E00009A810E94AC219A81B0E58B9FF001112438
:102E100025E0929FE00DF11D11248981E80FF11D3D
:102E2000EE0FFF1FE953FD4F859194912FC08091C4
:102E3000C702877059F1D70112968C91882331F11E
:102E400082E02A960FB6F894DEBF0FBECDBFDF91A9
:102E5000CF911F910F91FF90EF90DF90CF90BF9097
:102E6000AF909F908F900C945722ED58FF4F0C9489
:102E70003C34F801EF55FD45E131F10508F04ECA4B
:102E8000EC57FF4F0C943C3469E226CC2A960FB6DF
:102E9000F894DEBF0FBECDBFDF91CF911F910F9190
:102EA000FF90EF90DF90CF90BF90AF909F908F906A
:102EB00008959091C20192FF0DC0282F28712830EB
:102EC00019F4877F846006C0282F2471243011F400
:102ED0008B7F886093FF0DC0282F2871283119F44B
:102EE000877E846106C0282F2471243111F48B7EE3
:102EF00088612091C30120FF0DC0382F3871383010
:102F000019F4877F816006C0382F3171313011F498
:102F10008E7F886021FF0DC0282F2871283119F479
:102F2000877E816106C0282F2171213111F48E7EA8
:102F3000886194FD877E0895E2EFF1E0438128E007
:102F4000421B08F440E021E0628181810C94CC2E88
:102F5000E2EFF1E0438128E0420F08F44FEF21E077
:102F6000628181810C94CC2EE2EFF1E0628120E25B
:102F7000621B08F460E021E0438181810C94CC2E37
:102F8000E2EFF1E0628120E2620F08F46FEF21E0EE
:102F9000438181810C94CC2E809132019091330138
:102FA0008130910531F0029739F482E00E9432229B
:102FB00003C08CE20E940C30109233011092320157
:102FC0000895FC019081913031F48285882341F08D
:102FD00082E090E00AC0923031F086E090E005C0D7
:102FE00081E090E002C083E090E090933301809311
:102FF00032018230910501F18330910501F1019791
:1030000009F58091FD019091FE01A091FF01B09121
:1030100000020097A105B10561F022E0B695A795E1
:10302000979587952A95D1F780FF03C082E00C948D
:1030300032228CE20C946C3082E00C94742282E098
:103040000C9411220895E2EFF1E09181282F438141
:1030500062818CEF890F0C94CC2E81E00C942318A4
:10306000E2EFF1E09181282F4381628184E0890FB2
:103070000C94CC2E81E00C9430188091F201282F12
:10308000269530E02115310519F48170826005C064
:103090002032310524F081708E638093F20180919B
:1030A000F50187FF03C08FE78093F5010895CF9264
:1030B000DF92EF92FF926B017C010E943D18B701F5
:1030C000A60188E090E0FF90EF90DF90CF900C9405
:1030D00083338091F601882319F081508093F601A3
:1030E0006091F2017091F3018091F4019091F501EA
:1030F0000C9457188091F601833018F48F5F8093F9
:10310000F6016091F2017091F3018091F4019091C8
:10311000F5010C9457189091F20190FF36C0917010
:10312000811102C0926006C0803210F09E6302C01E
:10313000880F982B9093F201662351F06091F20171
:103140007091F3018091F4019091F5010E9457185C
:103150006091F201669570E04BE050E085E391E00C
:103160000E945134892B19F01092F80102C00E947C
:10317000D02F81E08093EF0120E04091F501609134
:10318000F4018091F3010C94CC2E08958091F2010A
:103190008695815009F48FE161E00C948B18809141
:1031A000F20186958F5F803208F081E061E00C9437
:1031B0008B18E2EFF1E083E0808311828FEF82834E
:1031C0008FE78383148260817181828193810C9463
:1031D0005718AF92BF92CF92DF92EF92FF920F9368
:1031E0001F93CF93DF93E82EF62EE90147FD4FE7BB
:1031F000E42FF0E0F11006C0E951FA4FE4914E2FB0
:103200002E2F71C00F2D10E0E951FA4F4491F42F89
:10321000C42ED12C26E0E29EC00111242FEF30E015
:10322000B9010E9414345BEA5603C001579F900D08
:1032300011248E0D911D8E0D911D582F550F580F75
:10324000D901A01BB10BAC9DC001AD9D900DBC9DE3
:10325000900D1124E92FF59ED0011124AB2FBB272F
:103260007901EA1AFB0AEC9CD001ED9CB00DFC9CA4
:10327000B00D11245901A51AB108A09E7001A19E9C
:10328000F00CB09EF00C1124EF2CFF242E193F09F6
:103290002C9D80012D9D100D3C9D100D1124212F82
:1032A0006230710591F048F461157105E1F061300B
:1032B0007105B9F4242F4B2F16C06430710569F0E5
:1032C00040F06630710579F00CC0242F492FE12FB2
:1032D0000AC0492FEF2F2B2F06C0292FE42F412F93
:1032E00002C0292FEB2F49832883EA83DF91CF91F6
:1032F0001F910F91FF90EF90DF90CF90BF90AF9014
:103300000895CF93DF9300D01F92CDB7DEB7909191
:10331000F20190FF0AC09E012F5F3F4F0E94E91803
:103320004B8169818A810E94B12E0F900F900F907E
:10333000DF91CF9108958D3E39F49091360297FF39
:1033400035C01092360259C08E3E29F49091360253
:103350001916BCF32BC0909135028F3E29F497FFCC
:1033600025C01092350249C0803F19F41916CCF3DC
:103370001DC090913702893F29F41916BCF41092B0
:1033800037023BC08A3F19F497FF10C0F8CF8B3F3C
:1033900039F49091380297FF09C0109238022DC07D
:1033A0008C3F21F4909138021916BCF39FE0980FDE
:1033B000983080F421E030E0A90102C0440F551F8D
:1033C0009A95E2F7CA0180959091340289238093FF
:1033D000340213C08D3F21F480915C028E7F0BC0BC
:1033E0008E3F21F480915C028D7F05C08F3F29F4D0
:1033F00080915C028B7F80935C0280913502811109
:1034000006C080913602811102C010923002809174
:103410003702811106C080913802811102C01092DA
:103420002D02089580915C0280FD16C081FD16C0BA
:1034300082FD18C080912D02882391F0883290F48B
:1034400028E0829FC001112468E270E00E942834C5
:10345000862F672B29F007C082E0089584E0089545
:1034600081E0089588E0089580915C0280FD14C099
:1034700081FD14C082FD16C080913002882381F046
:10348000843180F422E3829FC001112464E170E062
:103490000E942834862F08958CE0089589E10895CC
:1034A00085E0089582E308958D3E21F40E94341A48
:1034B000819504C08E3E29F40E94341A809336020E
:1034C00008958F3E21F40E94341A819504C0803FF4
:1034D00029F40E94341A809335020895893F19F423
:1034E0000E94121A05C08A3F31F40E94121A819577
:1034F0008093370208958B3F21F40E94121A819520
:1035000004C08C3F29F40E94121A80933802089557
:103510009FE0980F983078F421E030E0A90102C0D4
:10352000440F551F9A95E2F7CA0190913402892BF6
:103530008093340208958D3F21F480915C02816074
:103540000BC08E3F21F480915C02826005C08F3FEA
:1035500029F480915C02846080935C020895CF938B
:10356000DF9320E5829FC0011124FC0145E0749F98
:10357000E00DF11D1124E60FF11DEE0FFF1FE953C1
:10358000FD4FC591D491CE01C238D10569F1B0F497
:10359000C133D10509F475C048F4C932D10509F425
:1035A00069C0CA32D10509F473C085C0C533D105DD
:1035B00009F459C0C933D105B9F07DC0C33ED10566
:1035C00071F138F4C03ED105B1F0C23ED10511F120
:1035D00072C0C63ED105B9F1C73ED105C9F1C43E9E
:1035E000D10509F068C024C02091C20120FD5DC052
:1035F00021FD5BC060C02091C20120FD50C0209120
:10360000C30120FF51C18091C20184FD4BC183EEF3
:1036100090E04AC12091C20122FF46C1F4CF8091BF
:10362000C20182FD3FC08091C30180FD3EC0EBCF4F
:103630002091C30121FF38C18091C20184FD32C1B4
:1036400087EE90E031C12091C20123FF2DC1F4CF5C
:103650008091C20183FD2CC08091C30181FFECCF1A
:1036600084EE90E021C12091C20125FF1DC189E2B5
:1036700090E01AC12091C20125FF16C185E390E0B8
:1036800013C12091C20126FF0FC18AE290E00CC154
:103690002091C20126FF08C181E390E005C189E3C2
:1036A00090E002C182EE90E0FFC080EE90E0FCC0AE
:1036B00086EE90E0F9C0C11551E5D50708F06CC061
:1036C000C11520E5D207F0F0CE01F4E0969587957C
:1036D000FA95E1F7282F23703C2F337081E090E0BA
:1036E00002C0880F991F3A95E2F79C68922B2C2F05
:1036F0002F702695269550E2259F90011124822B4C
:10370000932BD2C0C83ED10570F5C03ED10508F05C
:10371000CBC0C83AD105B8F4C53AD10550F02C2F2A
:10372000255AC22FD0E0C257DE4F888190E09064C6
:10373000BBC0C130D10509F4B7C008F4B3C02497A9
:1037400008F4B0C0B1C0CF3BD10508F0ABC02C2FFE
:10375000285AC22FD0E0CC0FDD1FCF56DE4F888114
:1037600099819464A1C0C11540E2D40760F4C115E9
:1037700051E0D50708F098C0CD3ED10508F492C0BD
:10378000CE01906591C0C11580E4D80708F48AC0C5
:10379000CE019F70906A88C0C11525E5D20708F058
:1037A00040C0C11544E5D40728F09C2F8827846FBA
:1037B000906A7AC0C11553E5D507A8F09E01237021
:1037C000332781E090E002C0880F991F2A95E2F725
:1037D0002C2F2695269550E2259F90011124822BAF
:1037E000932B9A6861C0C11582E5D80728F49C2FF5
:1037F0008827816F906A58C09E012370332781E02B
:1038000090E002C0880F991F2A95E2F72C2F269589
:10381000269540E2249F90011124822B932B9C68D3
:1038200043C0C11529E5D207B0F4C11548E5D40756
:1038300028F09C2F8827806F906A36C0C11556E506
:10384000D50780F58C2F0E9459178F7190E0982F23
:103850008827906229C0C1158AE5D80790F48C2F7B
:103860008F700E9459179E0194E0369527959A957E
:10387000E1F72F7030E0322F22273069A901482B61
:103880000FC0CE0190568115904260F48D2F8F713C
:103890000E9459179E01332730628F71A901582B5E
:1038A000CA0102C080E090E0DF91CF910895CF92ED
:1038B000DF92EF92FF926C01EE24FF24C114D10439
:1038C000E104F10421F0C701B60120E101C020E0CC
:1038D000C72ED82EE92EFF24C114D104E104F1042F
:1038E00019F0285FC701B6016B017C0154E0F69422
:1038F000E794D794C7945A95D1F7C114D104E10441
:10390000F10419F02C5FC701B6016B017C0142E0A4
:10391000F694E794D794C7944A95D1F7C114D1048B
:10392000E104F10419F02E5FC701B601DC01CB01FF
:10393000B695A79597958795892B8A2B8B2B09F0A0
:103940002F5F822FFF90EF90DF90CF900895CF925E
:10395000DF92EF92FF926B017C0161157105810589
:10396000910561F0DC01CB0142E0B695A7959795F2
:1039700087954A95D1F7682F617001C060E081E0BA
:103980000E948E2EC114D104E104F10461F0D7012C
:10399000C60133E0B695A795979587953A95D1F7E7
:1039A000682F617001C060E082E00E948E2EC11419
:1039B000D104E104F10461F0D701C60124E0B69519
:1039C000A795979587952A95D1F7682F617001C0C3
:1039D00060E083E00E948E2E6091010270910202ED
:1039E00080910302909104020E94571C882341F0A9
:1039F000813031F428EF34E040E36FEF89EA05C00D
:103A000028EF34E040E16FEF85E50E94E918C70137
:103A1000B6010E94571C833051F0843071F082301F
:103A200099F428EF34E040E66FEF85E50BC028EF0E
:103A300034E040E66FEF80E105C028EF34E040E677
:103A400060E884E90E94E918C701B601FF90EF9091
:103A5000DF90CF900895CF93C82F22EF34E081FFFD
:103A600002C040E801C040E16FEF80E00E94E91829
:103A700025EF34E0C0FF02C040E601C040E16FEF37
:103A800080E20E94E918CF910C94172CCF93C82F95
:103A90000E942B1DC1FB662760F980E0CF910C943A
:103AA0008E2E0E94ED1F20913502211104C020911D
:103AB0003602222321F0909332028093310220912A
:103AC0003702211104C020913802222321F0909363
:103AD0002F0280932E02E091D701F091D801309708
:103AE00049F082E0809333020480F581E02D83E386
:103AF00092E0099408952F923F924F925F926F92B5
:103B00007F928F929F92AF92BF92CF92DF92EF926D
:103B1000FF920F931F93CF93DF9300D000D000D07C
:103B2000CDB7DEB744EC842E41E0942E5CECE52E5C
:103B300051E0F52ED40121E431E03A832983B12C00
:103B400061E070E06D016C901C92E981FA818191D5
:103B5000FA83E983E82FE295EF702E2F30E03C8363
:103B60002B83F90121A18F70AB0102C0440F551FB7
:103B70008A95E2F7CA01242B21A322A1A42EA094A6
:103B80002A2122A350EA5A95F1F731E5232E31E09C
:103B9000332E810140E050E0F80171908F01272D14
:103BA00022952F7030E0F90120A15C9030E0F72DD4
:103BB000FF7002C035952795FA95E2F720FD07C002
:103BC000262F042E01C0220F0A94EAF701C020E03C
:103BD000522A5C924F5F5F4F45305105E9F6EB8109
:103BE000FC8191A1A922A1A292A1892B82A3119665
:103BF00081E0F6019081961101C080E0B82AEA16B2
:103C0000FB0609F09FCF40E050E061E070E024ED5A
:103C1000422E21E0522ED1018D911D01E82FE29517
:103C2000EF70F0E021A18F70DB0102C0AA0FBB1F73
:103C30008A95E2F7CD012A2B21A322A1FA2EF09436
:103C40002F2122A3B0EABA95F1F79B01042E01C0FF
:103C5000220F0A94EAF7A22EE22EE09404ED11E07E
:103C60002CEC31E03E832D83A1E4B1E0BC83AB8337
:103C7000C12C2D813E813A832983D901DC90AB810F
:103C8000BC817D90BC83AB83272D22952F7030E0C3
:103C9000D90190962C9130E0B72DBF7002C03595B8
:103CA0002795BA95E2F720FD03C02D2D2A2902C0E1
:103CB0002D2D2E21AD81BE812C932D813E812F5F34
:103CC0003F4F3E832D83A981BA812C91D21611F0EA
:103CD000CC24C3942D813E814216530651F691A106
:103CE000F922F1A292A1892B82A3BC284F5F5F4FDA
:103CF0004530510509F08FCFBB2049F081E080931A
:103D000053020E94ED1F90935202809351028091C2
:103D10005302882399F080915102909152020E949F
:103D2000D21F069758F0ECEDF1E0D4018D914D01D2
:103D300081930A171B07C9F7109253028091300133
:103D40008F3F09F444C0F12C96E1E92E0F2D10E0CD
:103D500080913001082E000C990B80179107BCF15F
:103D6000E09EF001E19EF00D1124E65EFE4FC28858
:103D7000D388C114D10419F488ECC82ED12CE09E4C
:103D8000F001E19EF00D1124E65EFE4FFA83E98317
:103D900086818823D1F0858596850E94D21FC8161A
:103DA000D90698F4A981BA8151968C9151978111C5
:103DB00003C0CD010E94232BE09EC001E19E900D27
:103DC0001124805E9E4F0E94442BF394BFCF8B2D15
:103DD00026960FB6F894DEBF0FBECDBFDF91CF9110
:103DE0001F910F91FF90EF90DF90CF90BF90AF9019
:103DF0009F908F907F906F905F904F903F902F900B
:103E000008958091D202089580E00895209194024F
:103E10009091630256E02917A9F030E0529FF0011B
:103E2000539FF00D1124EC59FD4F7181761306C09C
:103E30007081781303C07281741306C02F5F3F4FE7
:103E40002770E9CF80E0089581E00895CF93DF9354
:103E500000D01F92CDB7DEB79091DD02943019F5F6
:103E600089837B836A8382E08093E9008FEF90915E
:103E7000E800815095FD06C095ED9A95F1F7000098
:103E80008111F5CF8091E80085FF0DC040E050E042
:103E900063E070E0CE0101960E949A258091E800CF
:103EA0008E778093E8000F900F900F90DF91CF9165
:103EB0000895BC0184E00C94261FBC0183E00C949F
:103EC000261F22E02093E9002FEF3091E8002150D7
:103ED00035FD06C035ED3A95F1F700002111F5CF1B
:103EE0002091E80025FF0BC040E050E066E070E064
:103EF0000E949A258091E8008E778093E8000895CB
:103F0000CF93DF9321E02093E9002FEF3091E80079
:103F1000215035FD06C035ED3A95F1F7000021112D
:103F2000F5CF2091E80025FF14C0EC0140E050E0FF
:103F300068E070E00E949A258091E8008E77809377
:103F4000E80088E0FE01A3EDB2E001900D928A95B1
:103F5000E1F7DF91CF91089578941F920F920FB6F9
:103F60000F9211248F939F93AF93BF938091CC02B4
:103F70009091CD02A091CE02B091CF020196A11DE9
:103F8000B11D8093CC029093CD02A093CE02B0934A
:103F9000CF02BF91AF919F918F910F900FBE0F9065
:103FA0001F9018959C014FB7F8948091CC02909186
:103FB000CD02A091CE02B091CF024FBF821B930BD6
:103FC00008952FB7F8946091CC027091CD02809142
:103FD000CE029091CF022FBF08952FB7F894809111
:103FE000CC029091CD02A091CE02B091CF022FBF12
:103FF00008951F920F920FB60F9211248F939F93E3
:10400000AF93BF938091D901811113C08091CC02ED
:104010009091CD02A091CE02B091CF024196A11D08
:10402000B11D8093CC029093CD02A093CE02B093A9
:10403000CF02BF91AF919F918F910F900FBE0F90C4
:104040001F9018959C012A5F3F4FFC014281461347
:1040500001C01282019682179307B9F708959C0157
:10406000FC0132969FEF80E04191461789F09F3F17
:1040700019F4411101C0982F8F5F8630A9F79F3F37
:1040800039F0F901E90FF11D97FDFA956283089562
:104090000895CF9384E090E00E945D33C82F82E2C0
:1040A00090E00E945D332C2F30E0A901582BCA010B
:1040B000CF9108956AEE7EEF80E090E00E948F330A
:1040C00060E082E090E00E94713360E083E090E085
:1040D0000E947133109201021092020210920302A8
:1040E0001092040260E084E090E00E94713360E08E
:1040F00082E290E00E94713360E085E090E00E94EF
:10410000713360E086E090E00E9471336FEF87E0EA
:1041100090E00E94713340E050E0BA0188E090E006
:104120000E94833360E08DE090E00E94713340E0B4
:1041300050E0BA0188E190E00E94833360E087E1BB
:1041400090E00E94713340E050E0BA018CE190E0D1
:104150000E94833360E070E080E290E00E948F3341
:1041600040E050E0BA0188E190E00E94833340E0F3
:1041700050E0BA018FE090E00E94833340E050E0CD
:10418000BA0183E190E00C9483338091CB028111DA
:104190001092CB02089580959091CA028923809352
:1041A000CA0208959091CA028091C902892B209178
:1041B000C802982F922B909354028091CB028823AF
:1041C00089F0892B80935402E6E5F2E097E080E0E5
:1041D000915029F021912223D9F38F5FF9CF8111DA
:1041E0000E94C520E091D701F091D801309731F0BD
:1041F0000280F381E02D84E592E00994089580E047
:1042000090E00E94012B80E090E00E94EB2A109247
:10421000C9021092C8020E94D220E3E3F2E086E0D5
:10422000DF011D928A95E9F71092300210922D025B
:1042300010925C020C94511DCF93C091C301C2FB3C
:10424000992790F9981781F080FBC2F9C093C301B8
:104250006091C20184E090E00E9471336C2F82E291
:1042600090E0CF910C947133CF910895BF92CF928B
:10427000DF92EF92FF920F931F93CF93DF938C0106
:10428000C090FD01D090FE01E090FF01F09000028F
:104290008091010290910202A0910302B091040268
:1042A000C82AD92AEA2AFB2ACFE1D0E0D701C601E1
:1042B0000C2E04C0B695A795979587950A94D2F7CA
:1042C00080FD04C0219790F7B12C07C0BC2EB80127
:1042D0008C2F0E94AF1A0197A9F38B2DDF91CF91FC
:1042E0001F910F91FF90EF90DF90CF90BF900895B6
:1042F000CF93DF93EC010E943621BE010E94AF1ADA
:10430000DF91CF9108950E947821292F2F70E92FF6
:10431000E295EF704E2F50E0FA013297EE30F10542
:10432000B8F4EB56FF4F0C943C34803F99F018F4EE
:10433000883E70F40FC0843F59F40CC0883E50F0A2
:10434000813F31F407C0822F869586958695089522
:1043500080E0089581E0089524E0929F900D11245B
:10436000890F682F669566956695982F977085E0FA
:10437000689FB001112440E050E080E0FB01E40FB1
:10438000F51FEB56FD4F208130E0092E02C0369517
:1043900027950A94E2F721703327042E01C0220FDB
:1043A0000A94EAF7822B4F5F5F4F4530510531F792
:1043B000089524E0929F900D1124890FE82FE6952F
:1043C000E695E695877051E001C0550F8A95EAF7AA
:1043D00085E0E89FF0011124EB56FD4F20E030E02E
:1043E00070E04081CB01022E02C0969587950A9419
:1043F000E2F78170819584278523842781932F5F3D
:104400003F4F2530310569F708950E94A71C60933E
:10441000FD017093FE018093FF01909300020C94C4
:10442000FF200F931F9341E050E060E070E004C074
:10443000440F551F661F771F8A95D2F78091FD01A3
:104440009091FE01A091FF01B09100028A019B01B1
:10445000082719272A273B27C901B8011F910F9167
:104460000C9405220F931F9341E050E060E070E050
:1044700004C0440F551F661F771F8A95D2F74095D9
:104480005095609570958091FD019091FE01A091ED
:10449000FF01B09100028A019B01082319232A23FE
:1044A0003B23C901B8011F910F910C940522209163
:1044B000C702809582238093C702982F977041F49A
:1044C00030E0482F082E000C550B2417350721F437
:1044D0009091C30192FF07C08595859585950E94AF
:1044E00032221092C70208950F931F9341E050E0CB
:1044F00060E070E004C0440F551F661F771F8A9567
:10450000D2F78091FD019091FE01A091FF01B09141
:1045100000028A019B01082B192B2A2B3B2BC90176
:10452000B8011F910F910C940522609301027093C2
:10453000020280930302909304020C94FF20809166
:10454000940290916302891719F08F5F8770FBCFF7
:1045500008950F931F93CF93DF938091620282950A
:104560008F7009F05DC080915F02882309F458C004
:10457000809194021091630260915D0270915E02DD
:10458000C0916002D091610291E06F3F09F090E02C
:10459000292F06E0811709F443C0209721F07F3FBF
:1045A00021F030E003C031E001C0322F90E030FD57
:1045B00034C0089FF001099FF00D1124DF01AC59B0
:1045C000BD4F11963C911197371327C03C9136137C
:1045D00024C012963C91129731111FC013964D9131
:1045E0005C9114974C1B5D0B483C5105B0F48091D5
:1045F00062028F70806180936202E759FD4F808173
:104600008F70806180838DE592E00E94AB0DDF9119
:10461000CF911F910F910C949F2201968770BACF72
:10462000DF91CF911F910F9108958F929F92AF923A
:10463000BF92CF92DF92EF92FF920F931F93CF938F
:10464000DF93CDB7DEB761970FB6F894DEBF0FBE2C
:10465000CDBF8C0185E0F801DE011D9601900D9221
:104660008A95E1F7D801DC901196EC90119712969B
:10467000CC9090915D0220915E0240916002509139
:1046800061024115510531F02F3F31F481E09F3F28
:1046900019F403C081E001C080E080FD58C1F80139
:1046A000A380B4808DE5882E82E0982EF0905F0282
:1046B000B501641B750BFF2009F403C180916202F0
:1046C000382F307F683C710508F0CDC0311188C0AB
:1046D0002E1112C09D1110C0FC2CC1100DC08F7086
:1046E000806180936202C4010E94AB0D80916202DE
:1046F000D80115968C9348C1A114B10439F0BFEFCD
:10470000EB1206C081E0DB1203C003C081E001C0F0
:1047100080E080FD03C081E08C2502C080E090E055
:1047200080FF10C04C2D6E2D8D2D0E94061F8823FA
:1047300049F08DE592E00E94AB0DEDE5F2E086E0F8
:10474000DF0199C0AB2839F0BFEFEB1206C081E062
:10475000DB1203C003C081E001C080E080FD03C024
:1047600081E08C2502C080E090E0E82FE170BE2E51
:1047700080FF2CC04C2D6E2D8D2D0E94061FF82E13
:10478000811124C0DD86EE868D859E850E9478216C
:10479000292F22952F70223018F0243090F405C074
:1047A0009F7059F0811109C0EFC09F7031F0D8019E
:1047B00015969C91907F09F4E7C0805E883008F4DC
:1047C000E3C0C8010E94AB0DFB2CDEC0FC2CCC204A
:1047D00009F4DAC0809162028160809362024EC067
:1047E0002E1106C09D1104C0C11002C0F8018BC07B
:1047F000DD86EE868D859E850E948321882369F162
:10480000CC2059F120916202822F82958F7090E026
:10481000029774F080915D0290915E0298878F8379
:104820001986BB86AA862C87CE0107960E94AB0DFF
:1048300086E0F801ADE5B2E001900D928A95E1F7CE
:104840000E94A9220DC02E15D9F0DD86EE868D8539
:104850009E850E94832181111DC0C8010E94AB0D5D
:10486000FF24F39491C03111EECF8DE592E00E94C8
:10487000AB0D86E0D4011D928A95E9F7F12C84C036
:104880009D11E3CFC110E1CFF8018583C8010E94DB
:10489000AB0D57C0CC2009F320916202822F829584
:1048A0008F7090E0029724F280915D0290915E02F9
:1048B0009A8389831B82BD82AC822E83CE010196AE
:1048C000B5CF683C7105E8F5FC2CCC2031F22E11F7
:1048D00027C09D1125C02091620220FD18C0822FA3
:1048E00082958F70482F50E04115510581F0F801F5
:1048F00025834F30510541F08F5F982F9295907F1F
:10490000822F8F70892B8583C8010E94AB0D86E0B2
:10491000F801ADE5B2E001900D928A95E1F734C05F
:10492000DD86EE868D859E850E948321811180CF54
:1049300080916202816080936202C8010E94AB0D87
:1049400023C086E0D4011D928A95E9F71DC0CC20D2
:1049500009F483CFDD86EE868D859E850E948321B6
:10496000F82E882309F479CF86E0F801ADE5B2E0AE
:1049700001900D928A95E1F780915D0290915E021F
:104980000E9478210E94A9228F2D61960FB6F8947B
:10499000DEBF0FBECDBFDF91CF911F910F91FF9072
:1049A000EF90DF90CF90BF90AF909F908F90089541
:1049B0001092CA0286E0E6E5F2E0DF011D928A95D8
:1049C000E9F70C94FF20CF93DF938A3011F481E054
:1049D00003C08D3029F480E0DF91CF910C94CF2B70
:1049E000682F8091F0049091F10426E0FC01AAEE7A
:1049F000B4E001900D922A95E1F7603E30F026E098
:104A0000FC0111922A95E9F70AC0F6E06F9FB00108
:104A10001124655E774F46E050E00E945433C09108
:104A2000F004D091F10446E050E0BE018AEE94E03B
:104A30000E945E34892B49F19E012A5E3240A90111
:104A400085E0569547958A95E1F781E090E0BC01B5
:104A500002C0660F771F4A95E2F74091E802509135
:104A6000E902462B572B2B5F3F4F65E03695279584
:104A70006A95E1F702C0880F991F2A95E2F7842B07
:104A8000952B9093E9028093E8029E01245E3240C8
:104A90004091E702642F70E0C9010E941434481B62
:104AA000463010F4240F311D211582E0380710F034
:104AB00020E030E026513D4F3093F1042093F00484
:104AC000DF91CF910895CF93DF93EC01FE018491A4
:104AD000882321F00E94E3242196F8CFDF91CF9123
:104AE0000895EF92FF920F931F93CF93DF93EC0102
:104AF0007B0164E670E088E70E9419328C01EC0EBD
:104B0000FD1ECE15DF0561F017FD0AC0FE01849180
:104B100064E670E00E9470328C012196892B89F343
:104B20000E94F432C801DF91CF911F910F91FF9045
:104B3000EF900895EF92FF920F931F93CF93DF931F
:104B40007C018B010E942E31811119C0E7010115F2
:104B50001105A1F08091E80085FD0AC08091E80070
:104B60008E778093E8000E942E31882381F307C05E
:104B700089918093F10001501109E9CF80E0DF9124
:104B8000CF911F910F91FF90EF9008951F93CF93B6
:104B9000DF93CDB7DEB7AA970FB6F894DEBF0FBE8E
:104BA000CDBFEFEDF2E08091F100819322E0E73E8E
:104BB000F207C9F78091E002833009F460C030F455
:104BC000813071F0823009F49AC0B1C08A3009F4A2
:104BD00086C08B3009F46BC0893009F0A8C020C0B2
:104BE0008091DF02813A09F0A2C08091E800877FBE
:104BF0008093E8008091E3029091E402892B21F4F4
:104C000068E083ED92E003C060E080E090E070E057
:104C10000E94B5318091E8008B778093E80087C0CF
:104C20008091DF02813209F082C08091E30290918D
:104C3000E402029708F07BC08091E800877F8093B0
:104C4000E8008091E80082FD05C08091DD028111BD
:104C5000F8CF6DC02091F3008091F20090E0922B8C
:104C6000029729F48091F1008B7F813021F48091AB
:104C7000F1008093D2028091E8008B7754C080913C
:104C8000DF02813A09F053C08091E3029091E4027F
:104C9000892B09F04CC08091E800877F8093E80061
:104CA0008091E80080FFFCCF8091340137C0809173
:104CB000DF028132E1F58091E3029091E402892BD9
:104CC000B1F58091E800877F8093E8000E94613110
:104CD0008091E102809334010E94D82428C0809101
:104CE000DF02813221F58091E800877F8093E80020
:104CF0000E9461318091E2028093D10218C08091BC
:104D0000DF02813AA1F48091E800877F8093E80078
:104D10008091E80080FFFCCF8091D1028093F10068
:104D20008091E8008E778093E8000E946131809145
:104D3000E80083FFCCC18091DF029091E002492F0F
:104D400050E04A30510508F0C2C1FA01ED55FF4F5D
:104D50000C943C34803821F0823809F0B8C108C086
:104D60008091DB029091DC02992389F082600FC070
:104D70008091E3028F70873008F0A9C18093E90029
:104D80008091EB0085FB882780F91092E9009091D3
:104D9000E800977F9093E8008093F1001092F10073
:104DA00065C1282F2D7F09F092C1882319F0823028
:104DB00061F08DC18091E102813009F088C19330AA
:104DC00009F080E08093DC022EC08091E102811125
:104DD0002AC08091E3028F702FEF280F263008F051
:104DE00076C18093E9002091EB0020FF1CC0933036
:104DF00021F48091EB00806214C09091EB009061EF
:104E00009093EB0021E030E0A90102C0440F551F50
:104E10008A95E2F74093EA001092EA008091EB0055
:104E200088608093EB001092E9008091E800877F12
:104E300020C181114CC11091E1021F778091E300E4
:104E40008078812B8093E3008091E800877F8093B6
:104E5000E8000E9461318091E80080FFFCCF8091E2
:104E6000E30080688093E300111102C082E001C07A
:104E700083E08093DD022BC18058823008F027C187
:104E80008091E1029091E2028C3D53E0950779F523
:104E900083E08A838AE289834FB7F894DE01139610
:104EA00020E03EE051E2E32FF0E050935700E49120
:104EB00020FF03C0E295EF703F5FEF708E2F90E010
:104EC000EA3010F0C79601C0C0968D939D932F5F76
:104ED000243149F74FBF8091E800877F8093E80035
:104EE0006AE270E0CE0101960E94B531AEC04091F9
:104EF000E3025091E402292F332723303105A9F032
:104F000068F42130310509F4F1C02230310509F08F
:104F1000DEC08BE390E0E2EAF7E044C021323105E5
:104F200021F12232310571F1D2C0992781309105EA
:104F3000A1F058F0029709F0CAC0EFEEF7E0E49153
:104F40008E2F90E0EFEEF7E02AC0E7E1F8E0E49181
:104F50008E2F90E0E7E1F8E022C0E5E0F8E0E49190
:104F60008E2F90E0E5E0F8E01AC04115510509F4F4
:104F7000C2C04130510509F0AAC089E090E0EDECD3
:104F8000F7E010C04115510509F4BAC04130510590
:104F900009F09DC08BE790E0E7EEF6E003C00097D4
:104FA00009F495C02091E800277F2093E800209124
:104FB000E5023091E6028217930708F49C0140E075
:104FC0002115310589F18091DD02882309F43DC066
:104FD0008530D9F18091E80083FD37C08091E800E9
:104FE00082FD2FC08091E80080FFEACF4091F3005E
:104FF0008091F20090E0942B2115310559F0883012
:10500000910540F444914093F100319621503109CB
:105010000196F2CF41E0089709F040E08091E80066
:105020008E778093E800CCCF4111CDCF0AC080911C
:10503000DD02882351F0853041F08091E80083FD46
:1050400004C08091E80082FFF2CF8091E8008B7766
:105050008093E8003CC08038D1F58091E800877FDC
:105060008093E8008091DE028093F1008091E80057
:105070008E778093E8000E94613129C0811127C09A
:105080008091E1029091E2029927029704F58091C4
:10509000E800877F8093E8001091E1021093DE0220
:1050A0000E946131111106C08091E30087FD02C0AA
:1050B00081E001C084E08093DD0242E061EC81E0A8
:1050C0000E94803142E261EC82E00E948031809156
:1050D000E80083FF1AC08091E800877F8093E80092
:1050E0008091EB0080628093EB000FC082E190E042
:1050F000EDEDF7E057CF89E090E0E4EBF7E052CF39
:1051000080E490E0E2E6F7E04DCFAA960FB6F8947F
:10511000DEBF0FBECDBFDF91CF911F9108951F92CB
:105120000F920FB60F9211242F933F934F935F93DB
:105130006F937F938F939F93AF93BF93CF93DF939F
:10514000EF93FF93C091E900CF708091EC00D82FCE
:10515000D17080FDD0E81092E9008091F000877F47
:105160008093F00078940E94C6251092E900809107
:10517000F00088608093F000CD2BCF70C093E900E1
:10518000FF91EF91DF91CF91BF91AF919F918F915F
:105190007F916F915F914F913F912F910F900FBE33
:1051A0000F901F901895E8EDF0E080818E7F80834E
:1051B0001092E2001092DA001092E100A0EEB0E04E
:1051C0008C9181608C9380818F77808319BCA7ED4F
:1051D000B0E08C918E7F8C9380818F7E8083109243
:1051E000D0020895CF92DF92EF92FF920F931F9318
:1051F000CF93DF93C8EDD0E088818F7E8883E7ED81
:10520000F0E080818160808384E082BF81E08093D0
:10521000D00288818E7F888302EE10E0F801108230
:105220001092DA0081EEC82ED12CF601108288810E
:105230008F77888388818068888388818F7D888341
:1052400019BC1092DD021092DE021092DC02109264
:10525000DB0290EEE92EF12CF70180818B7F8083B9
:1052600088818160888342E060E080E00E94803134
:10527000F60180818E7F8083F80180818160808348
:10528000808188608083F70180818E7F8083888120
:1052900080618883DF91CF911F910F91FF90EF90F4
:1052A000DF90CF9008951F920F920FB60F921124A6
:1052B0002F933F934F935F936F937F938F939F931E
:1052C000AF93BF93EF93FF938091E10082FF09C0FA
:1052D0008091E20082FF05C08091E1008B7F809386
:1052E000E1008091DA0080FF2AC08091D80080FF21
:1052F00026C08091DA008E7F8093DA008091D900F9
:1053000080FF18C080E189BD82E189BD09B400FE3B
:10531000FDCF81E08093DD028091D00281110FC02A
:105320000E94D3280E94F2288091E200846080933A
:10533000E20005C019BC1092DD021092D0028091EB
:10534000E10080FF17C08091E20080FF13C08091D0
:10535000E2008E7F8093E2008091E2008061809382
:10536000E2008091D80080628093D80019BC85E06B
:105370008093DD028091E10084FF2EC08091E200E5
:1053800084FF2AC080E189BD82E189BD09B400FEA5
:10539000FDCF8091D8008F7D8093D8008091E1006F
:1053A0008F7E8093E1008091E2008F7E8093E20007
:1053B0008091E20081608093E2008091DE02882388
:1053C00011F084E007C08091E30087FD02C081E016
:1053D00001C083E08093DD028091E10083FF27C05C
:1053E0008091E20083FF23C08091E100877F80935A
:1053F000E10082E08093DD021092DE028091E10004
:105400008E7F8093E1008091E2008E7F8093E200A6
:105410008091E20080618093E20042E060E080E001
:105420000E9480318091F00088608093F000FF91AD
:10543000EF91BF91AF919F918F917F916F915F910C
:105440004F913F912F910F900FBE0F901F90189585
:105450000895CF93DF93EC01E2EFF1E043816281A5
:105460008C810E9481198C818F5F8C83DF91CF9119
:105470000895CF93DF93EC01EC81F0E0E05AF24F16
:105480004491E2EFF1E0628181810E9481198C8177
:105490008F5F8C83DF91CF9108951F93CF93DF931C
:1054A000CDB7DEB767970FB6F894DEBF0FBECDBF9E
:1054B000342F4B8B252F5C8B6D8B7E8B8F8B4E8986
:1054C0005F8961111092C90286E0FE013D96DF01FD
:1054D000982F1D929A95E9F73D872E876F87598BF4
:1054E000488BDE01179601900D928A95E1F7CE0167
:1054F00007960E94152381113EC086E0FE01379673
:10550000DE01119601900D928A95E1F7FF81E88501
:105510006A857B856115710531F0EF3F31F481E0DB
:10552000FF3F19F403C081E001C080E080FD23C08B
:105530002091630230E0C90101968770992740915C
:10554000940250E08417950779F1F983EA837D830B
:105550006C8396E0929FD001939FB00D1124AC59BB
:10556000BD4FFE01319601900D929A95E1F780931F
:1055700063020E949F2216E0809194029091630240
:105580008917F9F0189FC00111248C599D4F0E9472
:1055900015238823B1F08091940290E001968770E2
:1055A000992780939402E8CF0E94D8241092630236
:1055B00010929402EDE5F2E086E0DF011D928A95FB
:1055C000E9F767960FB6F894DEBF0FBECDBFDF9147
:1055D000CF911F9108952091B6073091B7072817F2
:1055E000390771F09093B7078093B607E091D70120
:1055F000F091D801309721F00084F185E02D0994D5
:1056000008952091B4073091B5072817390771F034
:105610009093B5078093B407E091D701F091D8013A
:10562000309721F00680F781E02D09940895E091EC
:10563000D701F091D801309721F00190F081E02D51
:10564000099480E00895CF93DF93EC0181E0898B8A
:105650009091CA028F81892B8093CA029091C902CE
:105660008885892B8093C9020E94D220EA81FB8120
:10567000CE010696309729F06C897D89DF91CF9114
:105680000994DF91CF910895EF92FF920F931F93AA
:10569000CF93DF93FC01228521113AC0EC01E38016
:1056A000F480F7E5FF1A26E12E9DC0012F9D900D95
:1056B0001124DC01A65EBE4F1496ED91FC91159766
:1056C000805E9E4F309729F054966D917C9155974E
:1056D000099586E18E9D80018F9D100D1124065E37
:1056E0001E4FF80187810E94CB20F80180858095AC
:1056F0009091C90289238093C9020E94D220188206
:1057000019861B861E821D8210924E0210924D0237
:10571000DF91CF911F910F91FF90EF9008958091AD
:105720002C0290912B02882389F0992369F062E082
:1057300070E082E69EE00E947125892B19F080912D
:105740002B02089510922B0290912B0281E0892761
:10575000089580912C028823F9F00E94E11FDC015A
:10576000CB01805A9541AF4FBF4F80932702909352
:105770002802A0932902B0932A0280912B02811162
:105780000BC062E070E080E69EE00E947125892BEC
:1057900019F481E080932B0280912B020895CF931E
:1057A000E82F2091F0043091F1042A5E32404091BC
:1057B000E702642F70E0C9010E941434481B842F53
:1057C000EE2351F066E00E940834C82FC150A8F0C3
:1057D00080E20E94E324FACFA901480F511D411530
:1057E000524018F080E020E030E0280F311D2651B3
:1057F0003D4F3093F1042093F004CF9108959091A0
:10580000F20190FF04C09695981740F003C08111F3
:1058100005C090E0961710F40C94CF1861E00C943A
:105820008B18882311F0FA0101C0FB0109945F92E3
:105830006F927F928F929F92AF92BF92CF92DF92A0
:10584000EF92FF920F931F93CF93DF9300D000D07E
:105850001F92CDB7DEB7509005018091F20180FF15
:1058600008C08090D5019090D60181149104A9F4CC
:105870002EC08091060190910701891790F7E82FBB
:10588000F0E09F01220F331FE20FF31FEE50FB4F9A
:105890001182108212828F5FF0CF8091DB01811123
:1058A00016C0A12CB12C66246394712C2091F901AF
:1058B000C3010A2C01C0880F0A94EAF7822309F475
:1058C00050C0F401C590D490C114D104C9F4E09142
:1058D000040123E0E29FF0011124EE50FB4F539AA4
:1058E0008BB1877F9BB198602FB7F894AF0133E0FD
:1058F000539E400D511D112440C035E0C30ED11CF4
:1059000045E050E0B601CE0101960E945433098172
:105910000F3F39F110E08A819801280F311DC9012C
:105920002935310514F088E590E07C01EE0CFF1C70
:105930008E0D9F1D9C012E503B4F7901C801880F91
:10594000991F080F191F0E501B4F0E151F05A8F6A3
:1059500098014D816C818B810E94E9180D5F1F4F6A
:10596000F4CF82E0880E911C9FEFA91AB90A28E0B3
:10597000A216B10409F09ACFAACF4E175F0789F09B
:10598000319168E09BB9000000C037FF8BB9330F3D
:10599000000000C000C000C08BB900C06A9591F73C
:1059A000ECCF2FBF8FE594E00197F1F700C0000026
:1059B0000F900F900F900F900F90DF91CF911F914C
:1059C0000F91FF90EF90DF90CF90BF90AF909F909E
:1059D0008F907F906F905F9008957F928F929F92AB
:1059E000AF92BF92CF92DF92EF92FF920F931F93ED
:1059F000CF93DF93FC018280748081E08483E0E6B2
:105A0000FDE09490EFEDFDE0E491A12CF5E0BF2ED8
:105A1000CC24CA94D12CE9190E2F10E080910801F2
:105A2000A81608F09EC0EA2CF12C22E0281568F098
:105A3000BE9CF001BF9CF00D1124E650FA4F8091FE
:105A4000F30180838091F401818371100AC0BE9CB0
:105A5000F001BF9CF00D1124E650FA4F1382128220
:105A600066C0BE9CE001BF9CD00D1124C650DA4F29
:105A70008B818823F9F081508B832FEF829FC001A7
:105A800011246C8170E00E941434FB01FF27E05A5E
:105A9000F24F8491E82FE9192FEFE29FC001112402
:105AA000B8010E9414348091F501689FB00111245F
:105AB0007A833DC00E9444332091F50126952158F8
:105AC00030E0A901440F551F322F2227240F351F24
:105AD000232F33278217930754F582E0881588F423
