:100000000C9430060C9477060C9477060C947706C3
:100010000C9477060C9477060C9477060C9477066C
:100020000C9477060C9477060C94E32E0C94B52F61
:100030000C94422A0C9477060C9477060C9477065D
:100040000C9477060C9477060C9477060C9477063C
:100050000C9477060C949B2A0C9477060C947706E4
:100060000C9477060C9477060C9477060C9477061C
:100070000C9477060C9477060C9477060C9477060C
:100080000C9477060C9477060C9477060C947706FC
:100090000C9477060C9477060C9477060C947706EC
:1000A0000C9477060C9477060C9477062909390985
:1000B00042098109B009E209140A460A780AAA0A23
:1000C000DF0A110B430B750BA40BD90B110CC61FC8
:1000D000C61FF81FF81F4520792179217921632057
:1000E000F82009210921692179217921722115221C
:1000F0001522272227221E222722272227221522E5
:10010000152223222722272223222230493041315F
:10011000493041319530B83041310F311E310763DC
:100120004236B79BD8A71A39685618AEBAAB558C69
:100130001D3CB7CC5763BD6DEDFD753EF6177231B2
:10014000BF000000803F05A84CCDB2D44EB9383670
:10015000A9020C50B9918688083CA6AAAA2ABE001A
:100160000000803F202020202020003C5343523EAE
:100170002000202020202020003C4E554D3E200015
:100180000A20202020202020000A3C434150533EDA
:10019000200044564F52414B0041444A5553540AA3
:1001A00000466E32284C65667448616E64290A0008
:1001B000466E312846554E43290A004C61796572D6
:1001C0003A004A495328313039290A00414E5349EF
:1001D00028313034290A004D6F6465203A00290027
:1001E0002B00E0008B6249001F0036001200140053
:1001F00065002100130018000E002C6139002A0050
:1002000028000253350424000A000B0010002C7251
:1002100026001500110019004A002F002D0038009B
:1002200031004D0004512A004C0049004E711E005F
:10023000340004003300E3002000370008000D0004
:10024000E20022001C000C001B00E4002300090057
:10025000070005008B422500060017001A004B74AA
:1002600027000F0016001D00520030002E008A7279
:100270002871E4000000E6004F005100500001002A
:100280000100010001000100615D010001000100A9
:100290000100010001000100010001006F5D01008B
:1002A000010001000100635D010001000100010087
:1002B000655D0100010001000100695D675D0100ED
:1002C0006B5D01000451010001000100010001000B
:1002D0006D5D01006C5D0100010001000100010085
:1002E000010001000100010001000100625D010048
:1002F000010001000100645D010001000100010036
:10030000665D01000100010001006A5D685D010099
:1003100001000100000001000100010001003500A2
:10032000010001000100010045003B0040001B01ED
:100330003D1400003D0042001901010001004C0085
:100340000100010001000000000052005100010006
:1003500000002E005F005C005900000055006100A5
:100360005E005B0053000100010001004E004400EC
:100370003A003F001D01010000003C004100060161
:10038000010000003E0043000000010000000000EA
:100390004A0050000100000000004D004F004B00DB
:1003A0000000540060005D005A0000005600570035
:1003B00058000100000001006300605D620035022A
:1003C000010028000100010000004E0051001B0147
:1003D000010000004D004F001901010049004C00D0
:1003E0000100010001000000000052005100010066
:1003F00000002E005F005C00590000005500610005
:100400005E005B00530001000100010001000000DC
:100410004A0050001D01010000004B00520006017F
:1004200001000000000029000000010000000000A1
:100430004A0050000100000000004D004F00010084
:100440000000540060005D005A0000005600570094
:1004500058000100000001006300605D62005F5D04
:1004600000000000000000000000C65CC75C000047
:1004700000000000CA5CCB5C0000005200000000DD
:100480000000C35C000000000000A8000000015252
:1004900000000000A900000000004700000000006C
:1004A000000000000100000000000000000000004B
:1004B00000000000000000000000C85CC95C0000F3
:1004C00000000000C45CC55CC35C000000000000CC
:1004D00000000000000000000000AA000000000072
:1004E000460000000000000000004800000000007E
:1004F00000000000000000000000000000001E0FCF
:1005000005643214783C1E1E140A05FFAA7F55406C
:1005100000010101010101010101020202020202C6
:100520000202020303030303030303040404040499
:100530000404050505050506060606060707070760
:100540000708080808090909090A0A0A0B0B0B0C15
:100550000C0C0D0D0D0E0E0E0F0F0F1010111111B2
:100560001212131314141515161617171818191933
:100570001A1A1B1B1C1D1D1E1E1F20202122222398
:100580002424252626272829292A2B2C2D2D2E2FD9
:1005900030313232333435363738393A3B3C3D3EF0
:1005A0003F404142434445464748494A4C4D4E4FDF
:1005B00050515354555658595A5B5D5E5F616264A1
:1005C000656668696B6C6D6F7072737577787A7B2E
:1005D0007D7E8082838587888A8C8E8F9193959685
:1005E000989A9C9EA0A2A3A5A7A9ABADAFB1B3B5A5
:1005F000B7BABCBEC0C2C4C6C9CBCDCFD1D4D6D881
:10060000DBDDDFE2E4E7E9EBEEF0F3F5F8FAFDFF1E
:1006100000AE00AF00DA0281FFD9F1DB20A4A62EE4
:10062000AF00A0C000A1C800AED580A81FD3004075
:100630008D1420000000000000003E5B4F5B3E0078
:100640003E6B4F6B3E001C3E7C3E1C00183C7E3CCB
:1006500018001C577D571C001C5E7F5E1C00001894
:100660003C180000FFE7C3E7FF0000182418000053
:10067000FFE7DBE7FF0030483A060E00262979291C
:100680002600407F05050700407F05253F005A3CB6
:10069000E73C5A007F3E1C1C0800081C1C3E7F00E3
:1006A00014227F2214005F5F005F5F0006097F0154
:1006B0007F00006689956A0060606060600094A2B7
:1006C000FFA2940008047E04080010207E20100081
:1006D00008082A1C0800081C2A0808001E10101010
:1006E00010000C1E0C1E0C0030383E383000060E78
:1006F0003E0E060000000000000000005F00000049
:10070000000700070000147F147F1400242A7F2AAA
:100710001200231308646200364956205000000876
:1007200007030000001C224100000041221C0000C1
:100730002A1C7F1C2A0008083E0808000080703030
:100740000000080808080800000060600000201091
:10075000080402003E5149453E0000427F4000002F
:100760007249494946002141494D33001814127F0E
:1007700010002745454539003C4A4949310041218F
:1007800011090700364949493600464949291E00E2
:100790000000140000000040340000000008142293
:1007A0004100141414141400004122140800020122
:1007B000590906003E415D594E007C1211127C0021
:1007C0007F49494936003E41414122007F41414134
:1007D0003E007F49494941007F09090901003E4126
:1007E000415173007F0808087F0000417F410000ED
:1007F0002040413F01007F08142241007F404040DB
:1008000040007F021C027F007F0408107F003E41F1
:1008100041413E007F09090906003E4151215E0029
:100820007F091929460026494949320003017F0101
:1008300003003F4040403F001F2040201F003F403A
:1008400038403F0063140814630003047804030075
:100850006159494D4300007F4141410002040810A5
:100860002000004141417F00040201020400404099
:100870004040400000030708000020545478400026
:100880007F284444380038444444280038444428ED
:100890007F0038545454180000087E09020018A440
:1008A000A49C78007F080404780000447D40000088
:1008B0002040403D00007F102844000000417F4060
:1008C00000007C04780478007C0804047800384434
:1008D00044443800FC182424180018242418FC0070
:1008E0007C080404080048545454240004043F4481
:1008F00024003C4040207C001C2040201C003C4048
:1009000030403C004428102844004C9090907C00DB
:100910004464544C44000008364100000000770055
:1009200000000041360800000201020402003C26DB
:1009300023263C00000000000000404040F0F8F892
:10094000FF38FFF8F83FF8F8FF38FFF8F8F04040BC
:100950004000000000000080C0C0C0800000C0C097
:100960008000000080C0C000C0C0000080C0C00087
:1009700000000000C0C0C0C0C000C0C00000000037
:100980000000000000000000000000000000000067
:100990000000000000000000000000000000000057
:1009A0000000000000000000000000000000000047
:1009B000000000C0F0F8FC3E1E06010000007F4170
:1009C00041417F007F4141417F000080C0E07E5B6C
:1009D0004F5BFEC00000C000DCD7DEDEDED7DC00EF
:1009E000C000000000000000000000000000000047
:1009F00000000000000000000000494949FFFFFF1F
:100A0000FFE0DFBFBF00BFBFDFE0FFFFFFFF4949DF
:100A10004900000000001F3F6060E0BF1F007F7FB3
:100A2000071E381E077F7F007F7F0E1F3B7160000F
:100A3000000000007F7F0C0C0C007E7E007F7E0398
:100A400003007F7E03037E7E03037F7E000F3E70E4
:100A50003C063C703E0F00327B49493F7E007F7E62
:100A60000303001E3F69696F2600000000000000BC
:100A7000000000030F1F3F3C7870600000007F41C2
:100A800041417F007F4141417F00307B7F783020B2
:100A90002030787F3B0003000F7F0F0F0F7F0F0088
:100AA0000300000000000000000000000000000043
:100AB00000000000000000000000010101070F0F0E
:100AC0007F0F7F0F0F7E0F0F7F0F7F0F0F0701012B
:100AD0000100000000000000000000010100000013
:100AE0000000000000000000000000000000000006
:100AF00000000000000000000000000000000000F6
:100B000000000000000000000000000000000000E5
:100B100000000000000000000000000000000000D5
:100B200000000000000000000000000000000000C5
:100B300000000000000000000000000000000000B5
:100B400000000000000000000000000000000000A5
:100B50000000000000000000000000000000000095
:100B60000000000000000000000000000000000085
:100B70000000000014034F005000540049004D00D5
:100B80004100360031003500000010034C006500C4
:100B90006B00690070006F006E0000000403090420
:100BA00009023B00020100A0FA0904000001030150
:100BB00001000921110100012240000705810308FD
:100BC000000A0904010001030000000921110100CD
:100BD000012232000705820320000A1201100100E1
:100BE000000008EDFE1506010001020001050109E3
:100BF00080A101850319012AB700150126B70095C8
:100C00000175108100C0050C0901A10185041901BD
:100C10002AA002150126A002950175108100C005C9
:100C2000010906A101050719E029E715002501952D
:100C300008750181029501750881010507190029D0
:100C4000FF150026FF0095067508810005081901AB
:100C50002905950575019102950175039101C00063
:100C600011241FBECFEFDAE0DEBFCDBF04B603FE16
:100C700027C08091CD079091CE07A091CF07B0916A
:100C8000D0078730904BA740B04BD1F41092CD07DE
:100C90001092CE071092CF071092D00714BE84B7DF
:100CA000877F84BF0FB6F894A89580916000886113
:100CB00080936000109260000FBEE0E0F8E30995B9
:100CC00011E0A0E0B1E0E6E6FCE602C005900D927E
:100CD000A83DB107D9F727E0A8EDB1E001C01D920A
:100CE000AD3CB207E1F70E941D2C0C9431360C94F8
:100CF00000000C94250C0C94260CE82FF0E0E65232
:100D0000FE4F808108950895CF92DF92EF92FF9277
:100D10000F931F93CF93DF93AEE2B1E02EE331E068
:100D2000ED0161E070E08991E82FE295EF70F0E06D
:100D300041A18F706B0102C0CC0CDD1C8A95E2F7DB
:100D4000C6019C2D9095942391A392A1892B82A3F7
:100D50002C173D0741F7C9E2D1E04EE251E0BE0158
:100D600001E010E0FB018191BF01E82FE295EF70F7
:100D7000F0E0F1A08F70680102C0CC0CDD1C8A95F8
:100D8000E2F7C6019C2D90959F2191A392A1892BFA
:100D900082A34617570731F701E010E08991E82F49
:100DA000E295EF70F0E061A18F70780102C0EE0C67
:100DB000FF1C8A95E2F7C7019E2D9095962391A37B
:100DC00092A1892B82A34C175D0741F761E070E087
:100DD0008D91E82FE295EF70F0E041A18F708B01CB
:100DE00002C0000F111F8A95E2F7C801902F90955D
:100DF000942391A392A1892B82A32A173B0741F741
:100E0000EAEEF1E0AAEDB1E08AEF91E011921D92D5
:100E10008E179F07D9F780E10E94700FDF91CF9165
:100E20001F910F91FF90EF90DF90CF900C94770C73
:100E30003F924F925F926F927F928F929F92AF926A
:100E4000BF92CF92DF92EF92FF920F931F93CF93B7
:100E5000DF93AAEEB1E032EF832E31E0932E0EE263
:100E600011E0412CEE24E394F12C5D017C901C9266
:100E7000E80189918E01E82FE295EF70F0E021A161
:100E80008F70A70102C0440F551F8A95E2F7CA016F
:100E9000242B21A322A1342E3094232122A350EA13
:100EA0005A95F1F769E271E06B0140E050E0E6012C
:100EB00059906E01252D22952F7030E0E90128A16F
:100EC0006C9030E0D52DDF7002C035952795DA950E
:100ED000E2F720FD08C03E2D042E01C0330F0A9416
:100EE000EAF7232F01C020E026292C934F5F5F4FA4
:100EF00045305105E1F691A1D32DD923D1A392A17B
:100F0000892B82A3119681E0F5019081971101C090
:100F100080E0482A8A169B0609F0A7CF40E050E0FF
:100F200001E010E02AEFA22E21E0B22EDB018D912C
:100F3000BD01E82FE295EF70F0E021A18F70E8018C
:100F400002C0CC0FDD1F8A95E2F7CE012C2B21A326
:100F500022A13C2E3094232122A3D0EADA95F1F786
:100F60009801042E01C0220F0A94EAF7622E922EF5
:100F70009094A2EFB1E09EE2E92E91E0F92E812C4F
:100F80006D017C90E70159907E01252D22952F70EF
:100F900030E0E90128A130E0D52DDF7002C03595A1
:100FA0002795DA95E2F720FD03C0272D262902C0F8
:100FB000272D29212C931196E6012881721611F014
:100FC00088248394AA16BB06D9F691A1D32DD923E0
:100FD000D1A392A1892B82A348284F5F5F4F453050
:100FE000510509F0A3CF242D40E16AED71E08AEEAE
:100FF00091E00E94710F0E947B0C842DDF91CF91B4
:101000001F910F91FF90EF90DF90CF90BF90AF9026
:101010009F908F907F906F905F904F903F9008953A
:1010200060E087ED91E00E94531860918804709110
:10103000890480918A0490918B040E94E60C882395
:1010400031F0813049F460E082EC91E003C060E06F
:101050008CEC91E00E94531860E08BEB91E00E94D1
:101060005318609184047091850480918604909156
:1010700087040E94E60C60E0833039F0843051F040
:10108000823059F480EB91E002C081EA91E00E9445
:10109000531807C089E991E0FACF82E991E00E94F4
:1010A00065180E94E11C81FD03C080E891E002C048
:1010B00089E891E060E00E9453180E94E11C80FDE5
:1010C00003C082E791E002C089E791E060E00E94FE
:1010D00053180E94E11C82FD03C084E691E002C027
:1010E0008BE691E060E00C945318CF9381112DC0F2
:1010F000C62F60918404709185048091860490913C
:1011000087040E94E60C833029F0843079F0823025
:10111000A9F406C0CC2311F08BE415C08EE413C0F3
:10112000CC2311F080E50FC08FE40DC0CC2319F063
:101130000E9429120AC00E94191207C0CC2311F084
:1011400082E501C081E50E947C1F81E0CF91089576
:10115000CF93C82F2EEA34E081FF02C040E601C0E1
:1011600040E16FEF80E00E94841021EB34E0C0FF8B
:1011700002C040E601C040E16FEF80E20E948410AF
:10118000CF910C94021165E583E00E94621083E028
:101190000E94A8082FEF83EC99E0215080409040F6
:1011A000E1F700C0000080E00C94A808CF92DF9225
:1011B000EF92FF926B017C01609188047091890429
:1011C00080918A0490918B040E94E60C882341F060
:1011D000813031F424EB34E040E26FEF89EA05C05E
:1011E00024EB34E040E16FEF85E50E948410C701F5
:1011F000B6010E94E60C833051F0843071F08230E9
:1012000099F424EB34E040E66FEF85E50BC024EB66
:1012100034E040E66FEF80E105C024EB34E040E6C7
:1012200060E884E90E948410C701B601FF90EF9046
:10123000DF90CF900895CF938F559D4581319105D3
:1012400008F0FFC2FB018A5A9F4FC281FC010C9437
:101250001435CC2361F00E94B9100E94B61480911D
:10126000A904869590E09093A6048093A504C0E01D
:10127000E9C2C111FCCF82E60E947C1F82E60E9477
:101280007C1FE0C2CC2399F3E0911C01F0911D0179
:10129000808191E0382F327081FF90E09093FB01C4
:1012A00091E0282F207285FF90E09093FA01311190
:1012B00003C0211104C020C081EE0E94061F80914E
:1012C000FA01882319F085EE0E94061F8FE20E9422
:1012D000641E8FE20E94061F8091FB01882319F093
:1012E00081EE0E94641E8091FA01882309F4BFCF29
:1012F00085EE0E94641EBBCF8FE10E94641E8FE1C9
:101300009DC2CC2309F4B3CFE0911C01F0911D01E3
:10131000808191E0382F327081FF90E09093FB0143
:1013200091E0282F207285FF90E09093FA0131110F
:1013300003C0211104C00FC081EE0E94061F8091DE
:10134000FA01882319F085EE0E94061F8EE20E94A2
:10135000641E8EE2BFCF83E20E94641E83E26EC2EF
:10136000CC2309F484CFE0911C01F0911D01808110
:1013700091E0382F327081FF90E09093FB0191E073
:10138000282F207285FF90E09093FA01311103C05D
:10139000211104C012C081EE0E94061F8091FA0143
:1013A000882319F085EE0E94061F81EE0E94641EBC
:1013B00083E20E94641E83E228C284E20E94641ECB
:1013C00084E23CC2CC2309F452CFE0911C01F0919D
:1013D0001D01808191E0382F327081FF90E0909361
:1013E000FB0191E0282F207285FF90E09093FA0195
:1013F000311103C0211104C012C081EE0E94061FEA
:101400008091FA01882319F085EE0E94061F81EE73
:101410000E94641E84E30E94641E84E3F6C185E298
:101420000E94641E85E20AC2CC2309F420CFE09119
:101430001C01F0911D01808191E0382F327081FFF5
:1014400090E09093FB0191E0282F207285FF90E0BF
:101450009093FA01311103C0211104C012C081EE32
:101460000E94061F8091FA01882319F085EE0E94E0
:10147000061F81EE0E94641E85E20E94641E85E2C2
:10148000C4C186E20E94641E86E2D8C1CC2309F45E
:10149000EECEE0911C01F0911D01808191E0382F8A
:1014A000327081FF90E09093FB0191E0282F207231
:1014B00085FF90E09093FA01311103C0211104C01F
:1014C00012C081EE0E94061F8091FA01882319F054
:1014D00085EE0E94061F81EE0E94641E86E20E9435
:1014E000641E86E292C187E20E94641E87E2A6C162
:1014F000CC2309F4BCCEE0911C01F0911D01808148
:1015000091E0382F327081FF90E09093FB0191E0E1
:10151000282F207285FF90E09093FA01311103C0CB
:10152000211104C012C081EE0E94061F8091FA01B1
:10153000882319F085EE0E94061F81EE0E94641E2A
:1015400087E80E94641E87E860C18DE20E94641EE5
:101550008DE274C1CC2309F48ACEE0911C01F09194
:101560001D01808191E0382F327081FF90E09093CF
:10157000FB0191E0282F207285FF90E09093FA0103
:10158000311103C0211104C012C081EE0E94061F58
:101590008091FA01882319F085EE0E94061F81EEE2
:1015A0000E94641E83E30E94641E83E32EC181EEC9
:1015B0000E94641E8DE20E94641E8DE23CC1CC2319
:1015C00009F455CEE0911C01F0911D01808191E05C
:1015D000382F327081FF90E09093FB0191E0282F2B
:1015E000207285FF90E09093FA01311103C0211120
:1015F00004C012C081EE0E94061F8091FA01882368
:1016000019F085EE0E94061F81EE0E94641E80E3A1
:101610000E94641E80E3F9C080E30E94641E80E3A0
:101620000DC1CC2309F423CEE0911C01F0911D01E2
:10163000808191E0382F327081FF90E09093FB0120
:1016400091E0282F207285FF90E09093FA013111EC
:1016500003C0211104C012C081EE0E94061F8091B8
:10166000FA01882319F085EE0E94061F81EE0E9480
:10167000641E82E30E94641E82E3C7C082E30E946C
:10168000641E82E3DBC0CC2309F4F1CDE0911C01A0
:10169000F0911D01808191E0382F327081FF90E040
:1016A0009093FB0191E0282F207285FF90E09093AA
:1016B000FA01311103C0211104C012C081EE0E9451
:1016C000061F8091FA01882319F085EE0E94061FFB
:1016D00081EE0E94641E89E80E94641E89E895C01C
:1016E00087E80E94641E87E8A9C0CC2309F4BFCD17
:1016F000E0911C01F0911D01808191E0382F327042
:1017000081FF90E09093FB0191E0282F207285FFEC
:1017100090E09093FA01311103C0211104C00FC071
:1017200081EE0E94061F8091FA01882319F085EE50
:101730000E94061F84E30E94641E84E3CBCD83E3F2
:101740000E94641E83E37AC0CC2309F490CDE0911B
:101750001C01F0911D01808191E0382F327081FFD2
:1017600090E09093FB0191E0282F207285FF90E09C
:101770009093FA01311103C0211104C012C081EE0F
:101780000E94061F8091FA01882319F085EE0E94BD
:10179000061F81EE0E94641E8FE10E94641E8FE18D
:1017A00034C081EE0E94641E84E20E94641E84E2C2
:1017B00042C0CC2309F45BCDE0911C01F0911D01E6
:1017C000808191E0382F327081FF90E09093FB018F
:1017D00091E0282F207285FF90E09093FA0131115B
:1017E00003C0211104C015C081EE0E94061F809124
:1017F000FA01882319F085EE0E94061F81EE0E94EF
:10180000641E8FE20E94641E8FE20E94061F81EE1A
:1018100061CD81EE0E94641E8EE20E94641E8EE203
:101820000AC0CC2309F423CD81EE0E94641E89E313
:101830000E94641E89E30E94061F81EE0E94061F1B
:1018400016CDC1E08C2FCF9108950895089581E0C1
:10185000089581E008950C941B0908950C942D0CB3
:101860001F93CF93DF9300D000D01F92CDB7DEB788
:1018700049835A836B833091190489819A8131118C
:1018800014C0662359F0222349F00E948A27182F9A
:10189000682F89819A810E94312703C00E945D27A9
:1018A000182F69817A81812F04C00E948A2769815B
:1018B0007A810F900F900F900F900F90DF91CF9142
:1018C0001F910C94470DFC01262F408151816281AC
:1018D000738184810C94300CCF93DF93EC0160E032
:1018E0000E94630CBE01DF91CF910C942E0C0E94DC
:1018F0004C0F0C9479060C947B0608950E940322E9
:101900000E947D0C2FEF84E39CE0215080409040AA
:10191000E1F700C000000C94C12A0F931F93CF93EE
:10192000DF938C0161E00E94630CEC01B8010E941E
:101930002B0C882309F444C0B801CE010E94491A37
:101940008823F1F1B801CE010E949B1A8823C1F1CE
:10195000B801CE010E94C61B882391F1B801CE01C7
:101960000E94A615882361F1F8018281882309F17C
:10197000CB358DE5D807C1F050F4C115FCE5DF0784
:1019800081F0CF3DDC45A9F40E94952919C0CC35E2
:10199000EDE5DE0761F0CD35DD4559F40E941D28E7
:1019A00008C00E947E0C0CC00E94262802C00E9423
:1019B0002928C801DF91CF911F910F910C94290C18
:1019C00080E0DF91CF911F910F910895CF92DF9228
:1019D000EF92FF926C01EE24FF24C114D104E104C4
:1019E000F10421F0C701B60120E101C020E0C72EBB
:1019F000D82EE92EFF24C114D104E104F10419F01A
:101A0000285FC701B6016B017C0154E0F694E794AE
:101A1000D794C7945A95D1F7C114D104E104F104C5
:101A200019F02C5FC701B6016B017C0142E0F6940E
:101A3000E794D794C7944A95D1F7C114D104E1042F
:101A4000F10419F02E5FC701B601DC01CB01B69598
:101A5000A79597958795892B8A2B8B2B09F02F5F5C
:101A6000822FFF90EF90DF90CF9008950C94A808FC
:101A70000C94270CCF93C82F0E94360D8C2F0E94F8
:101A8000380DCF91089580E090E00895089520E505
:101A9000829FC0011124FC0125E0729FE00DF11D21
:101AA0001124E60FF11DEE0FFF1FE252FE4F85914C
:101AB00094910895880F991FFC01E250FB4F859186
:101AC00094910895CF93DF930E94470D0E94740E66
:101AD000EC018115904508F043C0C11580E4D8079A
:101AE00008F0CBC0C03ED10528F5C03CD10508F0B8
:101AF000B3C0C83AD10578F4C53AD10508F0A4C0FE
:101B0000C130D10509F4ECC008F4E8C0C430D105F7
:101B100008F0E6C0E3C0CF3BD10508F0DFC0C85AEB
:101B2000D0E0CC0FDD1FC25CDE4F0990D881C02D04
:101B3000D464D6C0C11590E2D90750F4C11521E094
:101B4000D20708F0CDC0C83ED10508F4C9C0C6C050
:101B5000C11580E3D80708F086C0CE019F707FC012
:101B6000C11595E5D90708F043C0C11524E5D20792
:101B700008F09AC0C11582E5D80708F5C11591E5AE
:101B8000D90708F07DC0CE0174E0969587957A95C7
:101B9000E1F783709C2F937021E030E002C0220FA8
:101BA000331F9A95E2F73C68382BCF70C695C695DF
:101BB00080E2C89FE0011124C22BD32B91C09E016B
:101BC000237033278C2F86958695C115D34508F051
:101BD0005CC0C1E0D0E002C0CC0FDD1F2A95E2F767
:101BE00020E2829FC0011124C82BD92BDC6878C069
:101BF000C11529E5D207A0F4C11588E5D80708F07A
:101C000058C0C11596E5D90708F068C08C2F0E940E
:101C1000080F8F71C82FD0E0DC2FCC27D06260C0B6
:101C2000C1152AE5D20708F449C0CE0190568115A6
:101C3000904208F053C08D2F8F710E94080FDD274E
:101C4000D0628F71D82B4CC0C55AD0E0C459DE4F3A
:101C5000C881D0E0D06444C0CE01805C91090E946C
:101C60005A0DEC013DC0CE019927D3FF03C0EC0112
:101C7000D86C36C0EC01D06C33C0DF70D06A30C095
:101C8000DC2FCC27C16FD06A2BC0C1E0D0E002C0EE
:101C9000CC0FDD1F2A95E2F720E2829FC0011124BC
:101CA000C82BD92BDA681CC0DC2FCC27C46FD06AB4
:101CB00017C0DC2FCC27C06FD06A12C08C2F8F705A
:101CC0000E94080F94E0D695C7959A95E1F7CF70DA
:101CD000D0E0DC2FCC27D069C82B02C0C0E0D0E018
:101CE000CE01DF91CF9108958238910569F1B0F46A
:101CF0008133910509F46DC048F48932910509F4E6
:101D000063C08A32910509F469C00895853391054D
:101D100009F455C089339105B9F00895833E9105C2
:101D200069F138F4803E9105B1F0823E910509F1E8
:101D30000895863E9105A9F1873E9105B9F1843E4B
:101D4000910509F064C023C02091A70420FD4FC075
:101D500021FD4DC008958091A70480FD44C080916D
:101D6000A80480FF44C08091A70484FD42C083EE94
:101D70004DC08091A70482FF38C0F5CF8091A704A1
:101D800082FD33C08091A80480FD31C0ECCF8091EA
:101D9000A80481FF32C08091A70484FD2AC087EE89
:101DA00035C08091A70483FF26C0F5CF8091A7049A
:101DB00083FD21C08091A80481FD1FC0ECCF8091DC
:101DC000A70485FD1CC01DC08091A70485FD19C016
:101DD00016C08091A70486FD16C017C08091A70485
:101DE00086FD13C010C089E311C082EE0FC080EEE3
:101DF0000DC080E00BC086EE09C084EE07C089E20A
:101E000005C085E303C08AE201C081E390E0089544
:101E10009091A70492FF0DC0282F2871283019F443
:101E2000877F846006C0282F2471243011F48B7FB3
:101E3000886093FF0DC0282F2871283119F4877E00
:101E4000846106C0282F2471243111F48B7E8861AF
:101E50002091A80420FF0DC0382F3871383019F4B4
:101E6000877F816006C0382F3171313011F48E7F49
:101E7000886021FF0DC0282F2871283119F4877E32
:101E8000816106C0282F2171213111F48E7E886175
:101E900094FD877E089508950E94ED28811102C067
:101EA0000E9495290E94F828809399040E94002995
:101EB0009093A8048093A7040E944B0F0E94FC28D3
:101EC000682F70E080E090E00E94332660918404E7
:101ED0007091850480918604909187040C946B2600
:101EE0000895FF920F931F93CF93DF938C01F62EEB
:101EF000D72FC42F222349F081E08093FE010E9456
:101F0000742A9093FD018093FC018091FE01882347
:101F1000C1F08091FC019091FD010E948C2A0697EE
:101F200080F0EF2DFD2FD8014C2F50E0CD01801B0C
:101F3000910B841795071CF48D918193F7CF109224
:101F4000FE01DF91CF911F910F91FF900895EF92C5
:101F5000FF920F931F93CF93DF938B01682F111183
:101F60000AC0442329F0E82FF0E0E05FFA4F6491C3
:101F7000762F862F75C0212F30E0E82FF0E0442324
:101F800021F0E05FFA4FE491F0E046E0049FC001E9
:101F90001124CFEFD0E0BE010E94CA344BEA4603C1
:101FA000C001479F900D1124800F911D800F911D3E
:101FB000982F990F890FAE01421B530B4E9FD001F2
:101FC0004F9FB00D5E9FB00D11249B2F189FA00155
:101FD0001124452F55278E01041B150B0E9FA001C0
:101FE0000F9F500D1E9F500D11247E01E81AF1081D
:101FF000E29E8001E39E100DF29E100D1124212F10
:102000003327C21BD30BCE9F9001CF9F300DDE9F95
:10201000300D112462307105A9F048F46115710585
:1020200069F061307105C9F48B2F752F0DC06430D4
:10203000710581F058F06630710579F47E2F8B2F91
:10204000932F0DC0832F7B2F9E2F09C08E2F7B2FA8
:10205000952F05C08E2F732F02C07E2F852F692FDD
:10206000DF91CF911F910F91FF90EF90089541E084
:102070000E94A70F08950895682F70E080E090E017
:102080000E94BF3220E030E04FE753E40E94E2318B
:102090002BED3FE049E450E40E94E8330E945534C0
:1020A0000E945C3222EB3AE54CE35FE30E9475311B
:1020B00025EC35ED49E552E40E94E8330E948E326A
:1020C000862F0895883570F4262F30E0280F311DB3
:1020D000293531053CF480930701860F8093080170
:1020E0006093090108950E9437100895CF93DF93FC
:1020F000762FE901682F842F0E94731079836883FB
:102100008A83DF91CF910895413408F040E40C9424
:1021100076108091A904282F269530E021153105ED
:1021200019F48170826005C02032310524F081707D
:102130008E638093A9048091AC04813418F080E40C
:102140008093AC04089588E090E00C94D235CF924F
:10215000DF92EF92FF926B017C010E948910B70120
:10216000A60188E090E0FF90EF90DF90CF900C9474
:10217000F035E9EAF4E083E0808311828FEF828317
:1021800080E48383148260817181828193810C94C5
:10219000A7108091A90480FF02C08695089580E071
:1021A00008959091AD04933018F49F5F9093AD041F
:1021B000882351F06091A9047091AA048091AB0426
:1021C0009091AC040C94A710089581E00C94D11068
:1021D0009091AD04992319F091509093AD04882308
:1021E00051F06091A9047091AA048091AB04909180
:1021F000AC040C94A710089581E00C94E81070E0F2
:102200000C946516609106018091A90480FF0AC0B4
:102210008091050123E0829FC001112482559B4FCC
:102220000C94FF108091070190910801891780F7A5
:10223000E82FF0E09F01220F331FE20FF31FE2555A
:10224000FB4F1182108212828F5FF0CF9091A90410
:1022500090FF16C09091070120910801921770F429
:10226000E92FF0E0DF01AA0FBB1FEA0FFB1FE255C9
:10227000FB4F8183608342839F5FF0CF0C940211F8
:102280000895CF93DF9300D01F92CDB7DEB7909122
:10229000A90490FF0AC09E012F5F3F4F0E94841047
:1022A0004B8169818A810E9426110F900F900F90B7
:1022B000DF91CF910895CF93DF93EC018C810E9441
:1022C0003C10E9EAF4E0482F628181810E944111CB
:1022D0008C818F5F8C83DF91CF910895CF93DF93B3
:1022E000EC01E9EAF4E0438162818C810E944111B2
:1022F0008C818F5F8C83DF91CF910895AF92BF92D5
:10230000CF92DF92EF92FF920F931F93CF93DF93C1
:1023100000D01F92CDB7DEB7182FF62E042FE22E75
:102320009091A90490FF6DC0E92FE695AE2FB0E023
:10233000A159BE4F8C918093C0039E7F923061F46F
:102340009E012F5F3F4F812F0E9484104B81698136
:102350008A810E94261143C0823019F40091AC0496
:102360003EC0863019F41091AA0439C08930D9F3DF
:102370008031A9F5E0518E2F8170D82EE695F0E0DE
:10238000E55FFA4FA590B490C12CBB246091090180
:10239000C61618F52C2D30E0A29EC001A39E900D0C
:1023A000B29E900D112470E00E94CA34812FD1108A
:1023B00002C0860F01C0861B90910701290F311DB5
:1023C000A901440F551F240F351F22553B4F402FA5
:1023D0006F2D0E948410C394D9CF0E9402111093D4
:1023E000AA04F092AB040093AC04EE2051F060918B
:1023F000A9047091AA048091AB049091AC040E944E
:10240000A7100F900F900F90DF91CF911F910F9118
:10241000FF90EF90DF90CF90BF90AF900895E9EAE2
:10242000F4E09181282F4381628184E0890F0C942C
:102430007E1180E00C940F1281E00C940F12E9EAF7
:10244000F4E09181282F438162818CEF890F0C94F5
:102450007E1180E00C941F1281E00C941F12E9EAB7
:10246000F4E0628120E2620F08F46FEF282F4381CD
:1024700081810C947E1181E00C942F12E9EAF4E042
:10248000628120E2621B08F460E0282F4381818191
:102490000C947E1181E00C943E12E9EAF4E0438151
:1024A00028E0420F08F44FEF282F628181810C94BD
:1024B0007E1181E00C944D12E9EAF4E0438128E0BA
:1024C000421B08F440E0282F628181810C947E1128
:1024D00081E00C945C1220E00C947E11FF920F932B
:1024E0001F93CF93DF93EC01F12C0FE710E0609185
:1024F0000901F616F0F4809107012F2D30E0280F26
:10250000311DC901880F991F280F391F22553B4FD4
:1025100070E0C8010E94DE34962F8C814091AC049B
:102520006091AB04F99E800D11240E948410F394F5
:10253000DECF0E9402119A818C8190FF02C08F5FD2
:1025400001C081508C83DF91CF911F910F91FF903B
:1025500008958F929F92AF92BF92CF92DF92EF92A7
:10256000FF920F931F93CF93DF938C01FC01448163
:10257000C42FD0E09E01DE010E9422359B01AC01F8
:102580000E9438356B017C01E0E2F0E0EC1BFD0BB2
:10259000A5E5B0E09B01AC010E9438354B015C0120
:1025A0009F01DF010E941A359B01AC010E94433557
:1025B0009B01AC012C0D3D1D4E1D5F1DC501B401DD
:1025C0000E94F234C22FD22F2A3228F4F3E02F9F38
:1025D000900111240DC025E530E02C1B3109C90103
:1025E000880F991F280F391F37FF02C02F5F3F4FF9
:1025F00035952795C22FC095F12C85E5E82EED1A6B
:1026000080910901F816C8F4F0FC02C08E2D01C0BB
:102610008D2F909107012F2D30E0290F311DA90139
:10262000440F551F240F351F22553B4F4C2F6091EF
:10263000AB040E948410F394E3CF0E940211F801CE
:102640008481811102C091E003C0803219F49FEFB0
:102650009093040190910401890FF8018483DF9124
:10266000CF911F910F91FF90EF90DF90CF90BF908F
:10267000AF909F908F9008957F928F929F92AF928C
:10268000BF92CF92DF92EF92FF920F931F93CF935F
:10269000DF93FC019280748081E0848380E00E945B
:1026A0003C10882E8FE70E943C10A12CF5E0BF2E35
:1026B000CC24CA94D12C8819E82EF12C80910901E0
:1026C000A81608F09BC00A2D10E022E0291568F03A
:1026D000B09EF001B19EF00D1124E150FE4F8091AB
:1026E000AA0480838091AB04818371100AC0B09EDC
:1026F000F001B19EF00D1124E150FE4F13821282C1
:1027000063C0B09EE001B19ED00D1124C150DE4FD8
:102710008B818823E1F081508B832FEF829FC00152
:1027200011246C8170E00E94CA34862F0E943C10F4
:1027300088192FEF829FC0011124B7010E94CA346B
:102740008091AC04689FB00111247A833DC00E943F
:1027500097352091AC042695215830E0A901440F0B
:10276000551F322F2227240F351F232F332782177F
:10277000930754F582E0891588F40E949735B601D5
:102780000E94DE3488830E9497352091AB04269501
:10279000622F70E00E94DE34280F2983B09EF00182
:1027A000B19EF00D1124E150FE4F12828091AC04D5
:1027B000843108F484E1B09EF001B19EF00D112443
:1027C000E150FE4F84838383809107019801280F95
:1027D000311DC901880F991F280F391F22553B4F02
:1027E000B09EF001B19EF00D1124E150FE4F4281E8
:1027F000618180810E948410A39460CFDF91CF918A
:102800001F910F91FF90EF90DF90CF90BF90AF900E
:102810009F908F907F900C940211E9EAF4E0808100
:102820008E7F808360817181828193810E94A71055
:102830001092C1032FEF80E792E02150804090403A
:10284000E1F700C000000C940211E9EAF4E0808195
:102850008E7F80831092C1032FEF80E792E021509A
:1028600080409040E1F700C000000C9402111092EB
:10287000C1038091BE0381110AC081E08093BE0331
:102880008091A90481708093BD030C942514089550
:102890006091A904669570E04BE050E08AE091E019
:1028A0000E94B035892B19F481E08093C1030E9406
:1028B000742A9093B8038093B70308959091A90464
:1028C00090FF35C09170811102C0926006C08032C5
:1028D00010F09E6302C0880F982B9093A904662382
:1028E00051F06091A9047091AA048091AB04909179
:1028F000AC040E94A7106091A904669570E04BE0BB
:1029000050E08AE091E00E94B035892B19F01092D6
:10291000C10302C00E94481481E08093BA03409131
:10292000AC046091AB048091AA040C946B120895DE
:10293000682F9091A904969581E0890F803208F064
:1029400081E00C945E1481E00C949814682F9091AF
:10295000A90496958FEF890F09F48FE10C945E140A
:1029600081E00C94A61461E00C945E14E9EAF4E0B2
:1029700080818160808386950C94B3148091A90432
:1029800080FD0C940D140C94B61460E00C945E144D
:102990008091BF0381112EC00E94ED28811104C0D7
:1029A0000E9495290E94B9100E94A3106093A90467
:1029B0007093AA048093AB049093AC046E7F61F48F
:1029C0000E94B9100E94A3106093A9047093AA04F6
:1029D0008093AB049093AC040E9489101092C103C1
:1029E0008091A90480FF03C086950E94C51481E0F0
:1029F0008093BF030895E9EAF4E0808181608083D9
:102A000086950C94C5141092BE038091BD0381116C
:102A10000E94FB140C9448140F931F93CF93DF93E1
:102A20008091C103882309F471C09091C003E091A3
:102A3000A904E6958E2F891B8093B903923051F437
:102A4000E82FF0E0E95FFA4FE491CE2FD0E00BE5FC
:102A500011E133C0963051F4E82FF0E0EC5FFA4F0B
:102A6000E491CE2FD0E00EE611E127C0993059F461
:102A7000E82FE695F0E0EF5FFA4FE491CE2FD0E03B
:102A80000EE612E11AC09F3079F09A3191F463E0BA
:102A90000E94BE34E92FF0E0E250FB4FE491CE2FCC
:102AA000D0E00CE313E109C0C8E2D0E009EA12E18A
:102AB00004C0C0EDD7E00BE310E18091BA03882396
:102AC00061F01092BA030E94742A9093B803809325
:102AD000B7031092BC031092BB030E94742AE091CA
:102AE000B703F091B8038E1B9F0B8F3F9F4770F485
:102AF000EC0FFD1FF093B803E093B70387EB93E06F
:102B0000F801DF91CF911F910F910994DF91CF913F
:102B10001F910F910895882311F0FA0101C0FB0164
:102B20000994CF93DF93C82FD62F0E94C9108C171A
:102B300040F00E94C9108D1720F4DF91CF910C94C2
:102B4000A3148C2FDF91CF910C94B3141F93CF93C8
:102B5000DF93FB011281112309F4AFC0EC010E9445
:102B60002C288272CD3CFCE5DF0709F490C008F008
:102B700043C0C73CECE5DE0709F475C0D8F4C43C9B
:102B80009CE5D90709F463C038F4C33CDC4509F07F
:102B900097C00E94BE1493C0C53C9CE5D90709F4B8
:102BA0005BC0C63CDC4509F08BC04CE252E16CE1F5
:102BB00072E156C0CA3CFCE5DF0709F45EC070F460
:102BC000C83CECE5DE0709F453C0C93CDC4509F01C
:102BD00077C04BE352E16AE472E142C0CB3C9CE532
:102BE000D90709F44FC0CC3CDC4509F069C04CEF73
:102BF00050E165EE70E134C0C43DFCE5DF07C0F490
:102C0000C23D8CE5D80708F05AC0CF3C9CE5D907F7
:102C100009F444C008F440C0C03DFCE5DF0709F4F6
:102C200040C0C13DDC4509F04BC06EE089E042C0C8
:102C3000C53D9CE5D907E1F1B8F1C63DFCE5DF07EC
:102C4000F1F1CE35DD45E1F56FE18AE133C040EBCE
:102C500054E163EA74E104C043EA54E160EB74E1D7
:102C60000E948B152CC04CE152E16CE272E1F8CF6E
:102C70004AE452E16BE372E1F3CF48E652E169E5E1
:102C800072E1EECF49E552E168E672E1E9CF45EE47
:102C900050E16CEF70E1E4CF81E007C065E082E0D5
:102CA00009C068E086E006C08FE00E94B31407C048
:102CB00069E180E10E94911502C011E001C010E0BD
:102CC000812FDF91CF911F910895539A2BB1277FC8
:102CD0003BB138604FB7F894FC01CB01880F991FC6
:102CE000680F791F6E0F7F1FE617F70789F0819134
:102CF00098E03BB9000000C087FF2BB9880F0000A7
:102D000000C000C000C02BB900C09A9591F7ECCF6D
:102D10004FBF8FE594E00197F1F700C000000895E0
:102D20000C94750884988C9A85988D9A8FB18295A9
:102D300081707D9902C090E001C092E0892B809360
:102D4000C4030895E091C403EE0FEE0FE093C403B3
:102D50004FB144FB882780F990E04FB145FB222713
:102D600020F930E045FF02C022E030E0822B932BB7
:102D70008E2B8093C4038F70E82FF0E0E157FE4F55
:102D800090818091C303890F8093C30382305CF0EC
:102D90008091C2038F5F8093C20360E080E00E9455
:102DA000901621E001C020E08091C3038F3F54F4CE
:102DB0008091C20381508093C20361E080E00E9451
:102DC000901621E08091C303082E000C990B62E05D
:102DD00070E00E94DE348093C303822F0895EF9247
:102DE000FF920F931F93CF93DF93EC017B0164E677
:102DF00070E088E70E94FD1B8C01EC0EFD1ECE15D5
:102E0000DF0561F017FD0AC0FE01849164E670E001
:102E10000E94541C8C012196892B89F30E94D81C96
:102E2000C801DF91CF911F910F91FF90EF9008950E
:102E30000895E6EBF5E080E092E0DF019C011D9251
:102E400021503040E1F7F093BB07E093BA078FEFD2
:102E50009FEF9093F1038093F00308950E94181759
:102E60008093EC0380FD02C080E801C080E2809383
:102E7000EB030E94F71B6DE070E087E296E00E9492
:102E8000EF16892B11F080E008958091EC0363E048
:102E900070E081FD03C084E296E002C081E296E02A
:102EA0000E94EF16892B79F76DE070E084E196E0DF
:102EB0000E94EF16892B39F70E94802ADC01CB0192
:102EC000805A9541AF4FBF4F8093B6079093B70795
:102ED000A093B807B093B9070E94191781E08093B7
:102EE000EF038093EE031092ED0308952091EB031E
:102EF00036E0839FC0011124629F800D911D112433
:102F0000811522E0920714F080E090E08A549A4FF5
:102F10009093BB078093BA0708952091BA07309128
:102F2000BB07205B35404091EB03642F70E0C90183
:102F30000E94CA34481B463010F4240F311D21155D
:102F400082E0380710F020E030E02A543A4F309306
:102F5000BB072093BA070895CF93DF938A3011F40B
:102F600081E003C08D3029F480E0DF91CF910C9493
:102F70002218C62F682F8091BA079091BB0726E0D0
:102F8000FC01A5ECB3E001900D922A95E1F7603EBB
:102F900030F026E0FC0111922A95E9F70AC0F6E02C
:102FA0006F9FB00111246C5C794F46E050E00E94A5
:102FB000A735C11135C0C091BA07D091BB0746E013
:102FC00050E0BE0185EC93E00E94BD35892BB1F144
:102FD000C65BD5409E0185E0369527958A95E1F739
:102FE00081E090E0AC0102C0440F551F2A95E2F742
:102FF0002091F0033091F103242B352B259645E0E9
:10300000D695C7954A95E1F702C0880F991FCA95D2
:10301000E2F7822B932B9093F1038093F0030EC081
:10302000E091BA07F091BB079F012A5F3F4F2E172F
:103030003F0709F2808180958193F9CFDF91CF918D
:103040000C948D17CF93E82F2091BA073091BB07CE
:10305000265B35404091EB03642F70E0C9010E946C
:10306000CA34481B842FEE2359F066E00E94BE3418
:10307000C82FC150B0F060E080E20E94AC17F9CFD9
:10308000A901480F511D4115524018F080E020E081
:1030900030E0280F311D2A543A4F3093BB0720935C
:1030A000BA07CF9108951F93CF93DF93EC01162FAA
:1030B000FE018491882329F0612F0E94AC1721968C
:1030C000F7CFDF91CF911F9108950E94531881E0AF
:1030D0000C9422188091EF038823F9F00E94802A33
:1030E000DC01CB01805A9541AF4FBF4F8093B607AB
:1030F0009093B707A093B807B093B9078091EE03F8
:1031000081110BC062E070E082E196E00E94EF1650
:10311000892B19F481E08093EE038091EE030895EA
:103120006F927F928F929F92AF92BF92CF92DF92D7
:10313000EF92FF920F931F93CF93DF938091EF0352
:10314000882309F4DCC02091F0033091F1032115AC
:10315000310509F4D4C08091ED038111D0C061E044
:1031600070E0082F10E03B01082E02C0660C771CAF
:103170000A94E2F7A90146215721452B11F48F5FEC
:10318000F0CF9091EC03980165E0220F331F6A9510
:10319000E1F790FD12C08295880F80768093170129
:1031A000220F232F221F330B319520931A01815EAA
:1031B0008093180110921B0112C045E036952795A7
:1031C0004A95E1F7220F220F220F20931701109248
:1031D0001A01295F2093180183E080931B0124E6E4
:1031E00030E047E050E065E171E088E70E94841C30
:1031F000892B09F084C08091EC0380FD23C0A801D5
:1032000095E0440F551F9A95E1F74A545A4F04E64A
:1032100010E020E230E060E488E70E94AB1C892BDC
:1032200009F06DC00E946A18E301C095D0958091A5
:10323000F0039091F103C823D923D093F103C093F5
:10324000F0035DC080E2EBECF3E0DF011D928A95B4
:10325000E9F785E0000F111F8A95E1F7A3EAB1E0D5
:103260004FE951E0992493942D91EA018991AE019F
:10327000B801680F711D6A547A4F30E025533C4FF6
:10328000F90197E07F01E21AF30AA92C01C0AA0C08
:10329000EA94EAF77B01B12CE70189917E018A214A
:1032A000892E8B18D82DD770CD2E0D2E000CDD0851
:1032B000C82F01C0CC0FDA95EAF7D194C194D10898
:1032C000D7E0CD22DD2401C08695CA94EAF78C2B85
:1032D000D0808D298083B39488E0B812DDCF9150DF
:1032E00031969F3F79F6C1E0A73ABC0709F0BCCF01
:1032F00004E610E020E230E04BEC53E08CCFDF91AD
:10330000CF911F910F91FF90EF90DF90CF90BF90E2
:10331000AF909F908F907F906F9008958091EF0372
:103320009091EE03882389F0992369F062E070E0C0
:1033300080E196E00E94EF16892B19F08091EE0350
:1033400008951092EE039091EE0381E0892708958D
:103350000F931F938091EF03882329F160E080E0B1
:103360000E9476170E9410080E9490188091EE0328
:103370008823C9F00E94802A0091B6071091B707F0
:103380002091B8073091B907DC01CB01801B910B6C
:10339000A20BB30B8F3F9F4FAF4FBF4720F41F913E
:1033A0000F910C948E191F910F9108950F931F93F5
:1033B000CF93DF93C42FD22FFC0182818823C9F0E1
:1033C0004093F4030E94742A9093F3038093F203D2
:1033D00080E28C0F883008F057C0C77081E001C0D0
:1033E000880FCA95EAF7DF91CF911F910F910C9446
:1033F000851F8091F403481330C08091F2039091AF
:10340000F3030E948C2A8639910538F510E21D0FCE
:10341000CD17B9F080E28C0F883040F4C77081E09E
:1034200001C0880FCA95EAF70E948C1F183028F552
:1034300081E09D2F977001C0880F9A95EAF70E944E
:10344000851F802F0E947C1F1830F0F4D77081E018
:1034500001C0880FDA95EAF70AC080E28C0F883045
:1034600098F4C77081E001C0880FCA95EAF7DF9130
:10347000CF911F910F910C948C1F802FDF91CF91D2
:103480001F910F910C947C1FDF91CF911F910F9191
:1034900008950F939C01CB01243F4CE5340731F193
:1034A00088F4293DFCE53F07D9F02A3D4CE5340777
:1034B00079F1283D3C45A9F506E221EE41EE68EDA3
:1034C0007CE52BC0263FFCE53F07E1F0A8F0273F55
:1034D0003C4539F507E225EE46EE67EF7CE51DC079
:1034E00007E225EE45EE69ED7CE517C006E221EE28
:1034F00040EE64EF7CE511C007E225EE44EE65EF97
:103500007CE50BC006E221EE42EE66EF7CE505C0ED
:1035100008E221E045EE6AED7CE50E94D61980E0E4
:1035200008C0FC018281882319F01092F40301C0C5
:1035300081E00F910895CF93DF93EC01FB0182812D
:10354000882309F41FC1C230FCE5DF0708F41BC162
:10355000C6319CE5D90738F09E012B5F3C452930E8
:10356000310508F010C10E9400299093A8048093AF
:10357000A704C031ECE5DE0709F4C3C008F041C080
:10358000C8308CE5D80709F49AC0F0F4C430ECE5F3
:10359000DE0709F487C068F4C2308CE5D80709F467
:1035A00077C0C330DC4509F0E3C08091A704826096
:1035B00076C0C630ECE5DE0709F46EC008F07BC0CB
:1035C0008091A70488606BC0CC308CE5D80709F4E3
:1035D00085C068F4CA30ECE5DE0709F474C008F071
:1035E00079C00E9403228091A704806858C0CE3021
:1035F0008CE5D80709F476C008F07FC08091A70455
:103600008BC0CC3FECE5DE0709F44FC018F5C331A1
:103610008CE5D80709F47DC078F4C131ECE5DE070C
:1036200009F473C0C231DC4509F0A2C00E94032234
:103630008091A7048F7733C0C5318CE5D80709F492
:1036400072C008F486C0CB3FDC4509F091C0809180
:10365000A8043EC0C115FDE5DF0709F45FC058F4BA
:10366000CE3F9CE5D90709F444C008F43FC08091DF
:10367000A80482602DC0C230FDE5DF0709F475C0E3
:1036800008F45DC0C330DD4509F072C080E06EC053
:103690008091A704816003C08091A704806180931A
:1036A000A70466C08091A70411C08091A80482601D
:1036B0008093A8045DC08091A7048062F0CF8091C0
:1036C000A7048064ECCF8091A70488608460E7CF72
:1036D0008160EECF8091A7048E7FE1CF8091A70417
:1036E0008D7FDDCF8091A704877FD9CF8091A804FB
:1036F00018C08091A8048D7FDBCF8091A7048F7EB6
:10370000CECF8091A7048F7DCACF8091A7048F7BF5
:10371000C6CF8091A704877F8B7FC1CF8091A804FB
:103720008D7F8E7FC5CF8091A70482FB222720F951
:1037300091E0922790FB82F990FB83F9B0CF8091C2
:10374000A804982F909591708E7F892B90FB81F91A
:10375000AFCF0E9403228091A70487FB222720F984
:1037600091E0922790FB87F99ACF81E00E949729F8
:103770008091A7049091A8040E9411290E9403221D
:1037800080E001C081E0DF91CF910895CF93DF9376
:1037900086319C4541F5EB010E942C28982F8A81A7
:1037A00020911C0130911D01882379F09A7A81E0E3
:1037B00009F480E08093F503911102C069E201C031
:1037C00065E3C9010E94DE290AC08091F5038111D9
:1037D00002C069E201C065E3C9010E94E0290E94BC
:1037E0007E2880E001C081E0DF91CF9108951092A2
:1037F000B9008CE08093B8000895EF92FF920F9388
:103800001F93CF93DF93182FEB011092BC0084EA33
:103810008093BC000E94742A7C018091BC0087FDCB
:103820000EC0CF3F8FEFD807C1F30E94742A8E19C4
:103830009F098C179D0788F38EEF9FEF2EC0809114
:10384000B900887F883041F08091B900887F80314D
:1038500019F08FEF9FEF21C01093BB0084E8809395
:10386000BC000E94742A8C018091BC0087FD0CC0B2
:10387000CF3F8FEFD807C1F30E94742A801B910BB2
:103880008C179D0788F3D8CF8091B900887F883145
:1038900011F08034F1F680E090E0DF91CF911F913C
:1038A0000F91FF90EF9008950F931F93CF93DF93A5
:1038B000EB018093BB0084E88093BC000E94742AD3
:1038C0008C018091BC0087FD0EC0CF3F8FEFD807E1
:1038D000C1F30E94742A801B910B8C179D0788F3FB
:1038E0008EEF9FEF0CC02091B900287F81E090E01F
:1038F000283211F480E090E0919581959109DF9153
:10390000CF911F910F910895CF92DF92EF92FF9286
:103910000F931F93CF93DF936B018A017901B90154
:103920000E94FD1BE6010C0D1D1DC017D10761F49F
:1039300024E92093BC00DF91CF911F910F91FF905C
:10394000EF90DF90CF90089597FDF2CFB701899166
:103950000E94541CEACFCF92DF92EF92FF920F9316
:103960001F93CF93DF93C62F6A017901B8010E949C
:10397000FD1B97FD11C0B8018C2F0E94541CE6015D
:10398000EC0CFD1CCE15DF0539F097FD05C0B80124
:1039900089910E94541CF6CF24E92093BC00DF914A
:1039A000CF911F910F91FF90EF90DF90CF900895EE
:1039B00084E98093BC0008959093FB038093FA03FD
:1039C0000895E091FA03F091FB03309721F0019004
:1039D000F081E02D099480E00895E091FA03F091E0
:1039E000FB03309721F00280F381E02D09940895C4
:1039F0002091F8033091F9032817390771F090935B
:103A0000F9038093F803E091FA03F091FB033097F8
:103A100021F00680F781E02D099408952091F603A6
:103A20003091F7032817390771F09093F7038093CB
:103A3000F603E091FA03F091FB03309721F0008444
:103A4000F185E02D099408950E94802A6093150461
:103A500070931604809317049093180460931104D4
:103A600070931204809313049093140408950E9499
:103A7000802A609315047093160480931704909322
:103A8000180460930D0470930E0480930F049093B8
:103A90001004089585B7806885BF85B7806885BFA5
:103AA000089581E008950C94511D08950C94551DBE
:103AB0000C94C3080C94551D0C945A1D0C94551D60
:103AC0000E944A1D8BEE98E20E94D22A0E945E1D3F
:103AD0000C945C1D0E94561D0C94551D0E946B2A6F
:103AE0000E94840680E00E942E170E94C8140E9443
:103AF00092160C94581D8F929F92AF92BF92CF92C4
:103B0000DF92EF92FF920F931F93CF93DF93CDB786
:103B1000DEB72A970FB6F894DEBF0FBECDBF0E9466
:103B20001807982E81110E94241D8DEFA82E83E086
:103B3000B82E00E010E0802E802F0E947D06D82E47
:103B4000F501C1905F01C826B1F40F5F1F4F00312E
:103B5000110589F78FEF89838A831B820E94742A5B
:103B60008160782F9D838C8349815A816B818D81FF
:103B70000E942A1E2FC08091990481FD0E94830615
:103B8000E12CFF24F3948C2D8F21F1F00E94531D22
:103B9000882399F0EE828F82DF2081E009F480E0B3
:103BA00088870E94742A8160782F9A8789874E813E
:103BB0005F8168858A850E942A1EF801E350FC4FC8
:103BC0008081F826F08206C0E394FF0CF5E0EF1246
:103BD000DACFBBCF0E940C150E94A216182F8111BC
:103BE0000E94371D0E94A819911001C011110E9456
:103BF0006A180E94E11C9091FC038917C1F00E9491
:103C0000E11C8093FC032A960FB6F894DEBF0FBE2A
:103C1000CDBFDF91CF911F910F91FF90EF90DF907B
:103C2000CF90BF90AF909F908F900C943A0D2A96B2
:103C30000FB6F894DEBF0FBECDBFDF91CF911F91BD
:103C40000F91FF90EF90DF90CF90BF90AF909F903B
:103C50008F900895DF92EF92FF920F931F93CF936F
:103C6000DF93CDB7DEB72B970FB6F894DEBF0FBE4C
:103C7000CDBFF42E052F162FE72ED82E61110E94EE
:103C80004C28FE01319686E0DF011D928A95E9F706
:103C90007E2D4F2D502F612F8D2D9E810E94F62459
:103CA0002B960FB6F894DEBF0FBECDBFDF91CF913C
:103CB0001F910F91FF90EF90DF900895FC0180819C
:103CC00091810E94CC270895CF93882309F49CC04A
:103CD000C82F8238C1F40E94E11C81FD95C069E3C0
:103CE00080911C0190911D010E94DE290E947E2876
:103CF0002FEF81EE94E0215080409040E1F700C02A
:103D0000000069E319C0833801F50E94E11C80FDC1
:103D10007BC063E580911C0190911D010E94DE290A
:103D20000E947E282FEF81EE94E021508040904049
:103D3000E1F700C0000063E580911C0190911D0136
:103D40000E94E029CF910C947E288438C1F40E940F
:103D5000E11C82FD59C067E480911C0190911D0116
:103D60000E94DE290E947E282FEF81EE94E02150F0
:103D700080409040E1F700C0000067E4DDCF8CEFA9
:103D80008C0F813AD0F46C2F80911C0190911D0111
:103D90000E94A829882349F06C2F80911C019091E2
:103DA0001D010E94E0290E947E286C2F80911C0139
:103DB00090911D010E94DE29C5CF80E28C0F8830D2
:103DC00048F4C77081E001C0880FCA95EAF70E94E5
:103DD0002F28B8CFEBE5EC0FE33040F4F0E0EB52E6
:103DE000FE4F808190E0CF910C94F81CC85AC731E7
:103DF00058F4EC2FF0E0EE0FFF1FE955FE4F8081E5
:103E00009181CF910C940E1DCF910895882309F4D0
:103E10005BC0682F823879F40E94E11C81FF54C096
:103E200069E380911C0190911D010E94DE290E948E
:103E30007E2869E310C08338B1F40E94E11C80FF42
:103E400043C063E580911C0190911D010E94DE2911
:103E50000E947E2863E580911C0190911D010E94C3
:103E6000E0290C947E28843879F40E94E11C82FFBA
:103E70002BC067E480911C0190911D010E94DE29F6
:103E80000E947E2867E4E7CF8CEF860F813A18F313
:103E900080E2860F883048F4677081E001C0880FA7
:103EA0006A95EAF70E943528DCCF8BE5860F8330D0
:103EB00020F480E090E00C94F81C685A673120F4FC
:103EC00080E090E00C940E1D08951F93CF93DF9334
:103ED000182FEB010E94641E209741F08FE99FE0AC
:103EE0000197F1F700C000002197F6CF812FDF91F5
:103EF000CF911F910C94061F893319F060E070E098
:103F000002C060E570E00C94651F882321F00E94D8
:103F10002F280C947E280895882321F00E943528AC
:103F20000C947E280895CF92DF92EF92FF920F9328
:103F30001F93CF93DF937C01062FC72FFC01D28103
:103F4000158112951F700E940428882399F0DD23A3
:103F500089F08C2F807F803421F080E2800F8830C0
:103F600048F082E00E94CE280E94042891E0D82EDA
:103F7000D92601C0D12CCC2EC2948FE0C8228C2D22
:103F800090E0FC01E959FF4F0C9414358C2F807F91
:103F9000CF70882311F0C295C07FDD2399F0CC2328
:103FA00009F482C180E2800F883010F0011104C052
:103FB0008C2F0E942F2803C08C2F0E943F280E9424
:103FC0007E2872C1802F0E94061FCC2309F491C164
:103FD00080E2800F883010F0011104C08C2F0E9405
:103FE000352803C08C2F0E9445280E947E2881C15D
:103FF0008C2F807FCF70803211F0C295C07F00235C
:1040000019F00130C9F022C0DD2371F0112341F015
:10401000113031F40E945F288C2B0E94672869C1FF
:104020000E945F288C2B1DC0112319F0113009F458
:1040300060C10E94742825C0DD2321F0163008F0ED
:1040400058C10EC0153008F054C11BC0DD2361F00B
:10405000112331F0F701858180FF26C18F708583A0
:104060008C2F0E94851F45C1112359F0093309F097
:104070002CC1FFEF27EE83E0F15020408040E1F7B4
:1040800022C18C2F0E948C1F34C18C2F869586955F
:10409000837019F0813061F02CC1DD2321F0802F75
:1040A0009C2F937002C080E090E00E94F81C29C110
:1040B000DD2321F0802F9C2F937002C080E090E0E0
:1040C0000E940E1D1EC18C2F837009F045C0D111B6
:1040D00014C1402F429546954770440F440F602FFE
:1040E0006F70862F90E0A0E0B0E0042E04C0880F2F
:1040F000991FAA1FBB1F0A94D2F704FF10C00FE03C
:1041000010E020E030E004C0000F111F221F331F19
:104110004A95D2F7009510952095309503C000E0A0
:1041200010E09801C695C695C370BC01CD01602B07
:10413000712B822B932BC23049F058F4C13019F007
:104140000E944726DAC00E943526D7C00E94592611
:10415000D4C00E943326D1C0DD2319F08C2F81708A
:1041600001C08695882309F4C8C0402F4295469522
:104170004770440F440F602F6F70862F90E0A0E0CF
:10418000B0E0042E04C0880F991FAA1FBB1F0A9419
:10419000D2F704FF10C00FE010E020E030E004C0D0
:1041A000000F111F221F331F4A95D2F7009510955B
:1041B0002095309503C000E010E09801C695C695A3
:1041C000C370BC01CD01602B712B822B932BC230AD
:1041D00049F058F4C13019F00E940C278EC00E949B
:1041E000FA268BC00E941E2788C00E946D2685C0BB
:1041F000CF70DD2339F08C2F0E949326802F0E94F0
:10420000851F7BC0802F0E948C1F8C2F0E94B4269C
:1042100074C0023F01F128F4003F41F0013FA1F0DA
:104220003FC0033FF9F0043F39F13AC0DD2341F0CC
:10423000153008F05EC08C2F8F710E94D92659C0AE
:10424000163008F056C0F7CFDD2339F08C2F8F7170
:104250000E9493264EC0DD23C9F38C2F8F710E94DC
:10426000B42647C0DD2329F08C2F8F710E947E2653
:1042700040C00E9479263DC0DD2349F0CF718C2FCC
:104280000E94932663E08C2F0E94B32832C081E005
:104290000E94CE28123068F182E00E94CE2829C008
:1042A000DD2331F0112391F2802F0E94641E21C082
:1042B000112399F2093349F49FEFE7EEF3E09150AF
:1042C000E040F040E1F700C00000802F0E94061F90
:1042D00010C04C2F4F70602FC7010E94430D0E94E9
:1042E000A4250FC04C2F4F70602FC7010E94460DB0
:1042F00008C088EF8C0D843020F40E94E11C0E94DD
:104300003A0DDD20C9F00E94002880FD15C0F7019C
:1043100012820E94FA270E949326C7010E94BD21A3
:104320000E94FA27DF91CF911F910F91FF90EF909C
:10433000DF90CF900C94B426DF91CF911F910F9115
:10434000FF90EF90DF90CF9008950F931F93CF933E
:10435000DF93EC01688179818A810E94D7278C01E3
:104360000E9430270E942126B801CE010E94931F8F
:10437000DF91CF911F910F910895CF93DF93EC01BF
:10438000988189812B813C81232B31F08F3F31F43F
:1043900081E09F3F19F403C081E001C080E080FD0F
:1043A00019C0CE010E948D0C81110CC00E940428FE
:1043B000882381F08A81882369F082E0DF91CF91A0
:1043C0000C94CE28CE010E94A521CE01DF91CF9181
:1043D0000C946C0CDF91CF91089580E090E00E94E6
:1043E000F81C80E090E00E940E1D0E944C280E9464
:1043F0005C280C947E2880911C0190911D010E94E4
:10440000E2290C94ED210E943C280C94FB21E92F19
:10441000E295EF704E2F50E0FA013297EE30F10541
:10442000B0F4E958FF4F0C941435803F91F018F424
:10443000883E68F40EC0843F51F40BC0883E48F0BB
:10444000813F29F406C093FB882780F9089580E016
:10445000089581E008950E94CC270E9407220895C4
:10446000CF93DF9300D000D01F92CDB7DEB70F906F
:104470000F900F900F900F90DF91CF910895CF93F1
:10448000DF9300D000D000D0CDB7DEB726960FB6B0
:10449000F894DEBF0FBECDBFDF91CF9108951F937B
:1044A000CF93DF93C0911A0416E080911B04C817C4
:1044B00099F0D0E01C9FF0011D9FF00D1124E45EE7
:1044C000FB4F4081518162817381848195810E947B
:1044D0003F222196C770E9CFDF91CF911F910895B8
:1044E00040914C0450914D0460914E0470914F04E2
:1044F00080915004909151040C943F2220911A0411
:1045000090911B0456E02917A9F030E0529FF0016A
:10451000539FF00D1124E45EFB4F7181761306C0AA
:104520007081781303C07281741306C02F5F3F4FF0
:104530002770E9CF80E0089581E008950F931F93DD
:10454000CF93DF938091510482958F7009F05DC005
:1045500080914E04882309F458C080911A04109168
:104560001B0460914C0470914D04C0914F04D09194
:10457000500491E06F3F09F090E0292F06E0811789
:1045800009F443C0209721F07F3F21F030E003C0C1
:1045900031E001C0322F90E030FD34C0089FF001BF
:1045A000099FF00D1124DF01A45EBB4F11963C91D1
:1045B0001197371327C03C91361324C012963C91B3
:1045C000129731111FC013964D915C9114974C1B9B
:1045D0005D0B46395105B0F4809151048F708061B4
:1045E00080935104EF5DFB4F80818F7080618083E9
:1045F0008CE494E00E94BD21DF91CF911F910F9137
:104600000C944F2201968770BACFDF91CF911F9102
:104610000F9108958F929F92AF92BF92CF92DF92A7
:10462000EF92FF920F931F93CF93DF93CDB7DEB737
:1046300061970FB6F894DEBF0FBECDBF8C0185E049
:10464000F801DE011D9601900D928A95E1F7D801DF
:10465000DC901196EC9011971296CC9090914C04AE
:1046600020914D0440914F04509150044115510543
:1046700031F02F3F31F481E09F3F19F403C081E016
:1046800001C080E080FD81C1F801838094808CE4CA
:10469000A82E84E0B82EF0904E04B401641B750B74
:1046A000FF2009F418C180915104382F307F6639FA
:1046B000710508F0D1C031118AC0E21214C0D912BC
:1046C00012C0FC2CC1100FC08F7080618093510408
:1046D0000E947022C5010E94BD2180915104D80121
:1046E00015968C936FC18114910439F0BFEFEB12D2
:1046F00006C081E0DB1203C003C081E001C080E09E
:1047000080FD03C081E08C2502C080E090E080FF46
:1047100010C04C2D6E2D8D2D0E947E22882349F0D5
:104720008CE494E00E94BD21ECE4F4E086E0DF013B
:10473000A4C0892839F0BFEFEB1206C081E0DB127C
:1047400003C003C081E001C080E080FD03C081E0C0
:104750008C2502C080E090E0E82FE170BE2E80FF43
:104760002CC04C2D6E2D8D2D0E947E22F82E811195
:1047700024C0DD86EE868D859E850E94CC27292F5C
:1047800022952F70223018F0243090F405C09F70CD
:1047900059F0811109C016C19F7031F0D8011596EA
:1047A0009C91907F09F40EC1805E883008F40AC1A4
:1047B000C8010E94BD21FB2C05C1FC2CCC2009F4B2
:1047C00001C1809151048160809351045BC0E21269
:1047D00006C0D91204C0C11002C0F801A0C0DD8615
:1047E000EE868D859E850E942B22882379F1CC2030
:1047F00069F120915104822F82958F7090E0029789
:1048000074F080914C0490914D0498878F831986A1
:104810009B868A862C87CE0107960E94BD2186E062
:10482000F801ACE4B4E001900D928A95E1F70E94A2
:104830009E220E9470220DC0E21631F1DD86EE86C6
:104840008D859E850E942B2281112DC0C8010E945A
:10485000BD21FF24F394B6C03111EECF782D998A93
:10486000888A4D2D5E2D6C2D89890E9430228CE422
:1048700094E00E94BD2186E0D5011D928A95E9F75A
:104880000E947022F12C9EC0D912D8CFC110D6CF71
:10489000F8018583C8010E94BD2186E0D5011D92E3
:1048A0008A95E9F78FC0CC2089F220915104822F9C
:1048B00082958F7090E002970CF4B1CF80914C04F8
:1048C00090914D049A8389831B829D828C822E83D2
:1048D000CE010196A2CF6639710508F047C0FC2CC5
:1048E000CC2009F4B3CFE21230C0D9122EC02091EF
:1048F000510420FD21C0822F82958F70482F50E0F7
:1049000041155105C9F0F80125834F30510541F09B
:104910008F5F982F9295907F822F8F70892B858340
:10492000C8010E94BD2186E0F801ACE4B4E001902A
:104930000D928A95E1F744C086E0F801ACE4B4E05A
:1049400001900D928A95E1F73DC0DD86EE868D855A
:104950009E850E942B22811162CF8091510481603B
:1049600080935104C8010E94BD212CC0782D998AE2
:10497000888A4D2D5E2D6C2D89890E94302286E01B
:10498000D5011D928A95E9F71BC0CC2009F45ECFB2
:10499000DD86EE868D859E850E942B22F82E88234B
:1049A00009F454CF86E0F801ACE4B4E001900D9234
:1049B0008A95E1F78CE494E00E945E1E0E949E229C
:1049C0000E9470228F2D61960FB6F894DEBF0FBE45
:1049D000CDBFDF91CF911F910F91FF90EF90DF90AE
:1049E000CF90BF90AF909F908F9008951F93CF93DB
:1049F000DF93CDB7DEB72C970FB6F894DEBF0FBEAE
:104A0000CDBF4F83588769877A878B879C87CE0174
:104A100007960E940A238823D1F09F8188852A85E2
:104A20003B85232B31F08F3F31F481E09F3F19F418
:104A300003C081E001C080E080FD47C04F81588500
:104A400069857A858B859C850E943F223EC086E0E1
:104A5000FE013796DE01119601900D928A95E1F7DD
:104A6000FF81E8856A857B856115710531F0EF3F2F
:104A700031F481E0FF3F19F403C081E001C080E020
:104A800080FD23C020911B0430E0C901019687708E
:104A9000992740911A0450E084179507F1F1F983A2
:104AA000EA837D836C8396E0929FD001939FB00D43
:104AB0001124A45EBB4FFE01319601900D929A9590
:104AC000E1F780931B040E944F2216E080911A04A4
:104AD00090911B04891771F1189FC0011124845E05
:104AE0009B4F0E940A23882329F1E0911A041E9FFC
:104AF000F0011124E45EFB4F40815181628173819A
:104B0000848195810E943F2280911A0490E0019651
:104B10008770992780931A04D9CF0E94032210929C
:104B20001B0410921A04ECE4F4E086E0DF011D920D
:104B30008A95E9F72C960FB6F894DEBF0FBECDBF6D
:104B4000DF91CF911F910895EF92FF920F931F93E2
:104B5000CF93DF938C01892B09F46CC0F12CEE24E8
:104B6000E394E8012196F8018491843740F484307D
:104B700008F051C0813081F0823019F15BC0853777
:104B800009F444C0A8F19CE7980F903708F052C090
:104B90008F770E94061F41C00E5F1F4FFE01849158
:104BA00090E2980F983050F48770FE2D01C0FF0FEF
:104BB0008A95EAF78F2F0E944F2814C00E94641E26
:104BC0002DC00E5F1F4FFE01849190E2980F983028
:104BD00060F48770FE2D01C0FF0F8A95EAF78F2FD2
:104BE0000E9455280E947E2819C00E94061F16C0E8
:104BF0000E5F1F4FFE01C491CC2381F08FE99FE02F
:104C00000197F1F700C00000C150F6CF0E5F1F4FB3
:104C1000FE01F49003C00E94641E8E018F2D882334
:104C200009F49FCFEFE9FFE03197F1F700C00000F2
:104C30008150F5CFDF91CF911F910F91FF90EF90B1
:104C40000895089508950C9422260C9423260E941A
:104C50002526609388047093890480938A04909336
:104C60008B040C94ED210C9427260F931F93009135
:104C700088041091890420918A0430918B04602B60
:104C8000712B822B932B1F910F910C9427260F933E
:104C90001F93009188041091890420918A04309117
:104CA0008B0460237123822393231F910F910C9413
:104CB00027260F931F930091880410918904209157
:104CC0008A0430918B0460277127822793271F91D4
:104CD0000F910C9427260C94D6080E946B266093A3
:104CE00084047093850480938604909387040C94C5
:104CF000ED2160E070E0CB010C946D260F931F93C3
:104D000041E050E060E070E08A019B0104C0000FC8
:104D1000111F221F331F8A95D2F7C901B8011F91B5
:104D20000F910C946D260F931F9341E050E060E0CB
:104D300070E004C0440F551F661F771F8A95D2F795
:104D40008091840490918504A0918604B091870499
:104D50008A019B01082B192B2A2B3B2BC901B80177
:104D60001F910F910C946D260F931F9341E050E01B
:104D700060E070E004C0440F551F661F771F8A95DE
:104D8000D2F74095509560957095809184049091EC
:104D90008504A0918604B09187048A019B010823B1
:104DA00019232A233B23C901B8011F910F910C94A9
:104DB0006D260F931F9341E050E060E070E004C067
:104DC000440F551F661F771F8A95D2F78091840480
:104DD00090918504A0918604B09187048A019B017B
:104DE000082719272A273B27C901B8011F910F91CE
:104DF0000C946D260F931F930091840410918504E9
:104E00002091860430918704602B712B822B932B89
:104E10001F910F910C946D260F931F9300918404A2
:104E200010918504209186043091870460237123BA
:104E3000822393231F910F910C946D260F931F9340
:104E40000091840410918504209186043091870498
:104E500060277127822793271F910F910C946D264D
:104E6000089524E0929F900D1124890FE82FE69574
:104E7000E695E695877051E001C0550F8A95EAF7EF
:104E800085E0E89FF0011124EE5AFB4F20E030E06E
:104E900070E04081CB01022E02C0969587950A945E
:104EA000E2F78170819584278523842781932F5F82
:104EB0003F4F2530310569F7089524E0929F900D0A
:104EC0001124890F682F669566956695982F9770BF
:104ED00085E0689FB001112440E050E080E0FB01D4
:104EE000E40FF51FEE5AFB4F208130E0092E02C07F
:104EF000369527950A94E2F721703327042E01C0D6
:104F0000220F0A94EAF7822B4F5F5F4F453051051D
:104F100031F70895BF92CF92DF92EF92FF920F93F5
:104F20001F93CF93DF938C01C0908404D0908504AD
:104F3000E0908604F0908704809188049091890421
:104F4000A0918A04B0918B04C82AD92AEA2AFB2AA4
:104F5000CFE1D0E0D701C6010C2E04C0B695A795CD
:104F6000979587950A94D2F780FD04C0219790F712
:104F7000B12C07C0BC2EB8018C2F0E94620D019786
:104F8000A9F38B2DDF91CF911F910F91FF90EF909F
:104F9000DF90CF90BF900895CF93DF93EC010E94F4
:104FA0008A27BE010E94620DDF91CF9108951F9361
:104FB000CF93DF93EB0190911904992321F0CB015A
:104FC0000E94CC2713C0882349F0CB010E948A2776
:104FD000182F682FCE010E94312704C0CB010E94F8
:104FE0005D27182FBE01812F0E94620DDF91CF91A6
:104FF0001F91089580918C048595859585950895D8
:1050000080918C048770089590918C04977081E052
:1050100009F480E008959091A80492FB222720F9DA
:10502000281751F080FB92F99093A8048091A7046F
:105030009091A8040C94112908958091A80482FBF2
:10504000882780F991E089270C940B2881E00C9443
:105050000B2880E00C940B2880919804089590917F
:105060009804892B809398040895809590919804D2
:10507000892380939804089510929804089590913C
:105080009704892B809397040895809590919704B5
:10509000892380939704089510929704089590911E
:1050A0009604892B80939604089580959091960498
:1050B0008923809396040895109296040895809110
:1050C0008D04089508950C9462280C94632890919F
:1050D000A80492FD08C090918D04981721F0809348
:1050E0008D040C946528089580918D04882329F0FF
:1050F00010928D0480E00C9465280895E0911C01C5
:10510000F0911D01809198048083E0911C01F09141
:105110001D01908180919704892B8083E0911C016F
:10512000F0911D01908180919604892B808380915C
:105130008D04882381F0E0911C01F0911D01908184
:10514000892B808380911C0190911D010E949C29D4
:1051500081110E94742880911C0190911D010C9472
:10516000ED1C0C9462289091A80492FD10C098E068
:10517000899F90011124262B20938C040E94932652
:1051800080918C048595859585950C94B1280C9417
:10519000932610928C0480E00C94B12820918C040A
:1051A0008095822380938C04982F977041F430E08F
:1051B000482F082E000C550B2417350721F4909129
:1051C000A80492FF07C08595859585950E94B42611
:1051D0000C94C928089580E0089580E090E00E9432
:1051E000D83521E08A3E9E4F09F020E0822F0895B5
:1051F00082E090E00C94CA3583E090E00C94CA35CC
:10520000CF9384E090E00E94CA35C82F82E290E0FC
:105210000E94CA352C2F30E0A901582BCA01CF912A
:105220000895CF93C92F682F84E090E00E94DE3567
:105230006C2F82E290E0CF910C94DE35AB01BC0183
:105240008FE090E00C94F035AB01BC0183E190E07D
:105250000C94F03560E070E0CB010C94242960E000
:1052600070E0CB010E941E290C942A296AEE7EEF81
:1052700080E090E00E94FC3560E082E090E00E94D7
:10528000DE3560E083E090E00E94DE351092880415
:105290001092890410928A0410928B0460E084E0DA
:1052A00090E00E94DE3560E082E290E00E94DE3510
:1052B00060E085E090E00E94DE3560E086E090E00E
:1052C0000E94DE356FEF87E090E00E94DE3540E01F
:1052D00050E0BA0188E090E00E94F03560E08DE097
:1052E00090E00E94DE3540E050E0BA0188E190E0B5
:1052F0000E94F03560E087E190E00E94DE3540E0FA
:1053000050E0BA018CE190E00E94F03560E070E07E
:1053100080E290E00E94FC3540E050E0BA0188E174
:1053200090E00E94F0350C942F290C943629682FB8
:105330008EE090E00C94DE35FC01329697E080E040
:10534000915029F021912223D9F38F5FF9CF08954D
:10535000662349F0FC01329608962191621729F0E4
:10536000E817F907D1F780E0089581E008959C01DE
:10537000FC0132969FEF80E04191461789F09F3FF4
:1053800019F4411101C0982F8F5F8630A9F79F3F14
:1053900039F0F901E90FF11D97FDFA95628308953F
:1053A00008959C012A5F3F4FFC014281461301C0D2
:1053B0001282019682179307B9F708950C94B729C2
:1053C0000C94D129029626E0FC0111922A95E9F766
:1053D000089508950C94E9290C94E929CF930E942B
:1053E000EC290E9418070E94EA29C0E08C2F0E9435
:1053F0007D06811104C0CF5FC031C1F701C081E0DB
:10540000CF9108950C94E9290C94022A8091C40745
:10541000843059F10E94042A80E00E943A0D0E94D3
:10542000371410929A0420E488E190E00FB6F894C3
:10543000A895809360000FBE2093600083B7817FA2
:10544000846083BF83B7816083BF7894889583B776
:105450008E7F83BF0FB6F894A89580916000886115
:1054600080936000109260000FBE08950C94E929AB
:105470000E9403220E94E11C0E943A0D0E94031523
:105480000C94362A1F920F920FB60F9211248F930D
:105490009F93AF93BF9380919A04811113C0809121
:1054A000BC079091BD07A091BE07B091BF07419680
:1054B000A11DB11D8093BC079093BD07A093BE07AB
:1054C000B093BF07BF91AF919F918F910F900FBE87
:1054D0000F901F90189582E084BD93E095BD9AEFE0
:1054E00097BD80936E0008952FB7F8948091BC0704
:1054F0009091BD07A091BE07B091BF072FBF08953F
:105500002FB7F8946091BC077091BD078091BE07DA
:105510009091BF072FBF08959C014FB7F8948091D9
:10552000BC079091BD07A091BE07B091BF074FBFC8
:10553000821B930B089578941F920F920FB60F92CF
:1055400011248F939F93AF93BF938091BC07909149
:10555000BD07A091BE07B091BF070196A11DB11D67
:105560008093BC079093BD07A093BE07B093BF077D
:10557000BF91AF919F918F910F900FBE0F901F9091
:10558000189587E797E790930108809300089AE0C1
:1055900088E10FB6F894A895809360000FBE9093B1
:1055A0006000FFCF9093D9018093D8010895809136
:1055B000A30408950895CF93DF9300D01F92CDB731
:1055C000DEB79091C407943019F589837B836A8391
:1055D00082E08093E9008FEF9091E800815095FD83
:1055E00006C095ED9A95F1F700008111F5CF8091F5
:1055F000E80085FF0DC040E050E063E070E0CE01C0
:1056000001960E94D72C8091E8008E778093E80065
:105610000F900F900F90DF91CF910895BC0184E01F
:105620000C94DB2ABC0183E00C94DB2ACF93DF933C
:1056300021E02093E9002FEF3091E800215035FD63
:1056400006C035ED3A95F1F700002111F5CF209114
:10565000E80025FF14C0EC0140E050E068E070E095
:105660000E94D72C8091E8008E778093E80088E034
:10567000FE01ABE9B4E001900D928A95E1F7DF916C
:10568000CF9108958091C307811109C00E94682EAF
:105690000E94C52E8091E20084608093E20008950C
:1056A0001092C307089508950895089542E061ECAB
:1056B00081E00E94E12D42E261EC82E00C94E12D58
:1056C0008091C607833009F460C030F4813071F0F6
:1056D000823009F499C008958A3009F485C08B306E
:1056E00009F46BC0893009F0A7C020C08091C507BC
:1056F000813A09F0A1C08091E800877F8093E8009B
:105700008091C9079091CA07892B21F468E08BE941
:1057100094E003C060E080E090E070E00E94222D01
:105720008091E8008B778093E80008958091C50709
:10573000813209F081C08091C9079091CA07029710
:1057400008F07AC08091E800877F8093E80080911C
:10575000E80082FD05C08091C4078111F8CF6CC0BC
:105760002091F3008091F20090E0922B029729F4AF
:105770008091F1008B7F813021F48091F100809342
:10578000A3048091E8008B7753C08091C507813ACC
:1057900009F052C08091C9079091CA07892B09F07E
:1057A0004BC08091E800877F8093E8008091E800FB
:1057B00080FFFCCF8091280136C08091C5078132DF
:1057C000D9F58091C9079091CA07892BA9F58091D5
:1057D000E800877F8093E8000E94162E8091C7071B
:1057E000809328010C9403228091C507813221F512
:1057F0008091E800877F8093E8000E94162E8091B8
:10580000C8078093A40408958091C507813AA1F444
:105810008091E800877F8093E8008091E80080FF16
:10582000FCCF8091A4048093F1008091E8008E77F2
:105830008093E8000C94162E089584B7877F84BF68
:105840000FB6F894A89580916000886180936000FD
:10585000109260000FBE90E080E80FB6F89480933D
:105860006100909361000FBE0E94601D0E94682E2F
:105870000E94C52E8091E20084608093E2007894BB
:105880000E945A310E946E1D8EE191E00E94DC1C44
:105890008091C4078530A9F48091C407853079F4DC
:1058A0000E94062A8091C2078823B1F30E94EE2944
:1058B000882391F30E94C12C0E940322EDCF0E9405
:1058C000382A0E947B1D0E946A1DE2CF0C94682C2E
:1058D000292F332723303105C9F060F421303105F9
:1058E00081F02230310509F044C08BE390E020EADA
:1058F0003BE043C021323105E1F02232310549F16C
:1059000038C082E190E02BED3BE037C09927813031
:10591000910549F028F0029761F5E4E7FBE005C046
:10592000ECE9FBE002C0EAE8FBE0849190E09F0133
:1059300024C06115710541F061307105D1F489E031
:1059400090E02BEC3BE019C089E090E022EB3BE0DB
:1059500014C06115710541F06130710551F482E3A5
:1059600090E02DEE3BE009C080E490E02FE13CE0C8
:1059700004C080E090E020E030E0FA013183208331
:10598000089580E189BD82E189BD09B400FEFDCFA3
:105990008091D8008F7D8093D8008091E000826054
:1059A0008093E0008091E00081FDFCCF0895CF92CC
:1059B000DF92EF92FF920F931F93CF93DF93EC014F
:1059C0008B017A010E94352E811133C0E114F1045C
:1059D00039F0F70180819181081B190BC80FD91F7D
:1059E000C12CD12C0115110519F18091E80085FD1C
:1059F00016C08091E8008E778093E800E114F104EE
:105A000049F0F70180819181C80ED91ED182C082F0
:105A100085E00FC00E94352E882321F30AC08991AA
:105A20008093F10001501109FFEFCF1ADF0ADACF9E
:105A300080E0DF91CF911F910F91FF90EF90DF9069
:105A4000CF9008952091CB073091CC0726173707C8
:105A500048F06115710539F42091E8002E77209304
:105A6000E80001C0B901FC0120E06115710579F180
:105A70008091C4078823F1F18530F1F18091E8002D
:105A800083FD3CC08091E80082FD2EC08091E8003B
:105A900080FFEBCF2091F3008091F20090E0922BF9
:105AA0006115710551F08830910538F421912093EA
:105AB000F100615071090196F3CF21E0089709F0D8
:105AC00020E08091E8008E778093E800CECF21110E
:105AD000CFCF0AC08091C407882361F0853061F080
