:100000000C944F060C9496060C9496060C94960647
:100010000C9496060C9496060C9496060C949606F0
:100020000C9496060C9496060C942E2D0C946A2C27
:100030000C948F1D0C9496060C9496060C949606C0
:100040000C9496060C9496060C9496060C949606C0
:100050000C9496060C94421D0C9496060C949606ED
:100060000C9496060C9496060C9496060C949606A0
:100070000C9496060C9496060C9496060C94960690
:100080000C9496060C9496060C9496060C94960680
:100090000C9496060C9496060C9496060C94960670
:1000A0000C9496060C9496060C949606FB06040790
:1000B0000F074F077F07AF07DE070D083C086B08E7
:1000C0009D08CC08FB082A0956098809BD09DB0CE4
:1000D000DB0C150D150D6F0D8B0D210F210F960DDE
:1000E000740E850E850E241F241F371F371F2D1FEA
:1000F000371F371F371F241F241F321F371F371F7B
:10010000321F852AAC2A422CAC2A422CF42A172B07
:10011000422C062C192C07634236B79BD8A71A39F4
:10012000685618AEBAAB558C1D3CB7CC5763BD6D45
:10013000EDFD753EF6177231BF000000803F05A847
:100140004CCDB2D44EB93836A9020C50B99186883C
:10015000083CA6AAAA2ABE000000803F29002B0066
:10016000E000E10046001F003600120014003504D4
:100170002100130018000E002C0039002A0028006E
:100180001A01650024000A000B0010002C722600E2
:100190001500110019004A002F002D003800310011
:1001A0004D0046432A004C0049008A711E0034006D
:1001B00004003300E3002000370008000D00E200D7
:1001C00022001C000C001B00E000230009000700B7
:1001D00005008B422500060017001A00E6002700E4
:1001E0000F0016001D00520030002E00E50028719F
:1001F0004B0000004E004F00510050000100010074
:10020000010001000100615D010001000100010029
:10021000010001000100010001006F5D010001000B
:1002200001000100635D0100010001000100655D46
:100230000100010001000100695D675D01006B5D67
:1002400001004643010001000100010001006D5D55
:1002500001006C5D010001000100010001000100CE
:1002600001000100010001000100625D01000100C8
:1002700001000100645D0100010001000100665DF4
:1002800001000100010001006A5D685D01000100DC
:1002900001000000010001000100010035002B00F9
:1002A0000100010001003B00400051001B01010062
:1002B0003D0042004F00190101004900010001000A
:1002C0003D140100000040005200510001000000F8
:1002D00042005F005C0059000000440061005E00C5
:1002E0005B0000000100560054004E003A003F0041
:1002F00050001D0101003C004100520006010100B8
:100300003E00430000000000010000003F004A00E2
:1003100050000100000041004D004F004B00000064
:10032000430060005D005A0000004500577258719C
:10033000550000002E006300605D62005F5D0000FC
:100340000000010001000000C65CC75C0000010065
:100350000000CA5CCB5C00000052530000000000AB
:10036000005C010000000000A80000000152000035
:100370000000A9000000000047000000000000008D
:10038000000001000F18A600000000000000BD00E2
:10039000BE00000001000000C85CC95C0000010054
:1003A0000000C45CC55CC35C0100000000000000EC
:1003B0000000010000000000AA000000010046004B
:1003C00000000000000000004800000001000100E3
:1003D00000000000000000000000000045018466ED
:1003E000FFFF00000000090155FFFF220400FFFF8E
:1003F000290100FFFF370300FFFF510100FFFF2B22
:100400000555FF603A0555FF60490555FF605305E6
:1004100055FF60FF00000000090100FFFF450100DB
:10042000FFFFFF0000000000DA0281FFD9F1DB20AE
:10043000A4A62EAF00A0C000A1C800AED580A81F02
:10044000D300408D1420001804E603DC0300001ED6
:100450000F05643214643214783C1E1E140A052DF4
:100460002D2D2D2D20003C5343523E20002D2D2DAF
:100470002D2D2020003C4E554D3E2020000A2D2DD4
:100480002D2D2D2D2020000A3C434150533E20208D
:100490000044564F52414B0041444A5553540A00C0
:1004A000466E310A004C617965723A004A49532818
:1004B000313039290A00414E534928313034290A54
:1004C000004D6F6465203A00000101010101010146
:1004D00001010202020202020202020303030303F9
:1004E00003030304040404040404050505050506C8
:1004F0000606060607070707070808080809090986
:10050000090A0A0A0B0B0B0C0C0C0D0D0D0E0E0E2E
:100510000F0F0F10101111111212131314141515BF
:1005200016161717181819191A1A1B1B1C1D1D1E31
:100530001E1F202021222223242425262627282985
:10054000292A2B2C2D2D2E2F3031323233343536B3
:100550003738393A3B3C3D3E3F40414243444546B3
:100560004748494A4C4D4E4F50515354555658598F
:100570005A5B5D5E5F616264656668696B6C6D6F36
:100580007072737577787A7B7D7E808283858788A9
:100590008A8C8E8F91939596989A9C9EA0A2A3A5E3
:1005A000A7A9ABADAFB1B3B5B7BABCBEC0C2C4C6E4
:1005B000C9CBCDCFD1D4D6D8DBDDDFE2E4E7E9EBA0
:1005C000EEF0F3F5F8FAFDFFFFAA7F5540000102B7
:1005D000031221303F4E4F403122130405142332C1
:1005E000415051423324150607162534434435261D
:1005F00017080918273645463728190A0B1A2938CB
:10060000475248392A1B0C0D1C2B3A4953544A3B7C
:100610002C1D0E0F1E2D3C4B55564C3D2E1F101100
:10062000202F3E4D5700AF00AE05010902A1018504
:10063000020901A1000509190129081500250195E4
:1006400008750181020501093009311581257F9561
:10065000027508810609381581257F950175088185
:1006600006050C0A38021581257F9501750881065B
:10067000C0C005010980A101850319012AB7001531
:100680000126B700950175108100C0050C0901A174
:1006900001850419012AA002150126A00295017501
:1006A000108100C005010906A101050719E029E72D
:1006B00015002501950875018102950175088101D4
:1006C0000507190029FF150026FF0095067508810A
:1006D0000005081901290595057501910295017517
:1006E000039101C009023B00020100A0FA090400C5
:1006F000000103010100092111010001224000074E
:1007000005810308000A0904010001030000000933
:100710002111010001227B000705820320000A123B
:1007200001100100000008EDFE15060100010200A5
:100730000114034F005000540049004D00410036A1
:100740000031003500000010034C0065006B0069AB
:100750000070006F006E0000000403090400000038
:100760000000003E5B4F5B3E003E6B4F6B3E001C4B
:100770003E7C3E1C00183C7E3C18001C577D571CDC
:10078000001C5E7F5E1C0000183C180000FFE7C3E1
:10079000E7FF00001824180000FFE7DBE7FF003048
:1007A000483A060E00262979292600407F050507CC
:1007B00000407F05253F005A3CE73C5A007F3E1C25
:1007C0001C0800081C1C3E7F0014227F2214005FBE
:1007D0005F005F5F0006097F017F00006689956A00
:1007E0000060606060600094A2FFA2940008047E34
:1007F00004080010207E20100008082A1C080008A9
:100800001C2A0808001E10101010000C1E0C1E0CD4
:100810000030383E383000060E3E0E060000000064
:1008200000000000005F0000000007000700001447
:100830007F147F1400242A7F2A1200231308646285
:1008400000364956205000000807030000001C2213
:100850004100000041221C00002A1C7F1C2A0008C5
:10086000083E0808000080703000000808080808EA
:10087000000000606000002010080402003E5149A2
:10088000453E0000427F4000007249494946002130
:1008900041494D33001814127F1000274545453952
:1008A000003C4A49493100412111090700364949B4
:1008B000493600464949291E000000140000000086
:1008C00040340000000008142241001414141414D1
:1008D000000041221408000201590906003E415D52
:1008E000594E007C1211127C007F49494936003E66
:1008F00041414122007F4141413E007F49494941F8
:10090000007F09090901003E41415173007F080839
:10091000087F0000417F4100002040413F01007FEF
:1009200008142241007F40404040007F021C027FAB
:10093000007F0408107F003E4141413E007F0909CD
:100940000906003E4151215E007F09192946002613
:10095000494949320003017F0103003F4040403FC5
:10096000001F2040201F003F4038403F0063140814
:100970001463000304780403006159494D430000E7
:100980007F41414100020408102000004141417FA5
:100990000004020102040040404040400000030700
:1009A0000800002054547840007F28444438003820
:1009B0004444442800384444287F00385454541890
:1009C0000000087E09020018A4A49C78007F080497
:1009D00004780000447D4000002040403D00007F3E
:1009E000102844000000417F4000007C0478047817
:1009F000007C0804047800384444443800FC18247F
:100A000024180018242418FC007C0804040800485A
:100A1000545454240004043F4424003C4040207CAF
:100A2000001C2040201C003C4030403C004428106A
:100A30002844004C9090907C004464544C44000046
:100A40000836410000000077000000004136080031
:100A5000000201020402003C2623263C00000000A4
:100A6000000000404040F0F8F8FF38FFF8F83FF889
:100A7000F8FF38FFF8F8F0404040000000000000A8
:100A800080C0C0C0800000C0C08000000080C0C026
:100A900000C0C0000080C0C00000000000C0C0C096
:100AA000C0C000C0C0000000000000000000000046
:100AB0000000000000000000000000000000000036
:100AC0000000000000000000000000000000000026
:100AD000000000000000000000000000C0F0F8FC72
:100AE0003E1E06010000007F4141417F007F4141E1
:100AF000417F000080C0E07E5B4F5BFEC00000C015
:100B000000DCD7DEDEDED7DC00C000000000000025
:100B100000000000000000000000000000000000D5
:100B2000000000494949FFFFFFFFE0DFBFBF00BFF2
:100B3000BFDFE0FFFFFFFF49494900000000001F41
:100B40003F6060E0BF1F007F7F071E381E077F7F6A
:100B5000007F7F0E1F3B716000000000007F7F0C54
:100B60000C0C007E7E007F7E0303007F7E03037EED
:100B70007E03037F7E000F3E703C063C703E0F00FC
:100B8000327B49493F7E007F7E0303001E3F696937
:100B90006F2600000000000000000000030F1F3F50
:100BA0003C7870600000007F4141417F007F4141FF
:100BB000417F00307B7F7830202030787F3B0003FE
:100BC000000F7F0F0F0F7F0F0003000000000000D9
:100BD0000000000000000000000000000000000015
:100BE000000000010101070F0F7F0F7F0F0F7E0F25
:100BF0000F7F0F7F0F0F07010101000000000000B1
:100C000000000000010100000000000000000000E2
:100C100000000000000000000000000000000000D4
:100C200000000000000000000000000000000000C4
:100C300000000000000000000000000000000000B4
:100C400000000000000000000000000000000000A4
:100C50000000000000000000000000000000000094
:100C60000000000000000000000000000000000084
:100C70000000000000000000000000000000000074
:100C80000000000000000000000000000000000064
:100C9000000000000000000000000000000011241F
:100CA0001FBECFEFDAE0DEBFCDBF04B603FE27C024
:100CB0008091A3079091A407A091A507B091A607E2
:100CC0008730904BA740B04BD1F41092A3071092FD
:100CD000A4071092A5071092A60714BE84B7877FB9
:100CE00084BF0FB6F894A8958091600088618093C6
:100CF0006000109260000FBEE0E0F8E3099511E09B
:100D0000A0E0B1E0E8E4FBE602C005900D92AC3A49
:100D1000B107D9F727E0ACEAB1E001C01D92A33AD0
:100D2000B207E1F70E94930F0C94A2350C940000D7
:100D30008F929F92AF92BF92CF92DF92EF92FF92EB
:100D40000F931F93CF93DF93CDB7DEB72A970FB6DC
:100D5000F894DEBF0FBECDBFFC010081D18083813E
:100D60009481892B39F01FEFD11206C091E00F3F1B
:100D700019F403C091E001C090E090FF02C00C9410
:100D8000800F7F0185E0DE01169601900D928A9515
:100D9000E1F7D70112962C918E819F81222349F091
:100DA0000E94C51E182F682F8E819F810E94681F88
:100DB00003C00E943B1F182FB0E51B9FF0011124B8
:100DC00015E0D19EE00DF11D1124E00FF11DEE0F95
:100DD000FF1FE45AFE4F05911491F801EF55FD45B0
:100DE000E131F10508F00BC3EA5AFF4FD701129623
:100DF0008C910C947335882311F40C94600F0E942D
:100E0000D4168091E201C7C281110C94600F82E672
:100E10000E94662282E60E9466220C94600F88235C
:100E200011F40C94600F80913E0291E0382F3270E3
:100E300081FF90E09093AF0191E0282F207285FF11
:100E400090E09093AE01311103C0211104C022C083
:100E500081EE0E94032E8091AE01882319F085EE69
:100E60000E94032E8FE20E946A2E8FE20E94032EC0
:100E70008091AF01882319F081EE0E946A2E809143
:100E8000AE01882311F40C94600F85EE0E946A2E47
:100E90000C94600F8FE10E946A2E8FE12CC0882392
:100EA00011F40C94600F80913E0291E0382F327063
:100EB00081FF90E09093AF0191E0282F207285FF91
:100EC00090E09093AE01311103C0211104C00FC016
:100ED00081EE0E94032E8091AE01882319F085EEE9
:100EE0000E94032E8EE20E946A2E8EE2BFCF83E222
:100EF0000E946A2E83E20E94032E0C94600F8823C6
:100F000011F40C94600F80913E0291E0382F327002
:100F100081FF90E09093AF0191E0282F207285FF30
:100F200090E09093AE01311103C0211104C012C0B2
:100F300081EE0E94032E8091AE01882319F085EE88
:100F40000E94032E81EE0E946A2E83E20E946A2E86
:100F500083E207C284E20E946A2E84E2CCCF882317
:100F600009F4AEC780913E0291E0382F327081FFC4
:100F700090E09093AF0191E0282F207285FF90E0E0
:100F80009093AE01311103C0211104C012C081EE53
:100F90000E94032E8091AE01882319F085EE0E94F5
:100FA000032E81EE0E946A2E84E30E946A2E84E35F
:100FB000D8C185E20E946A2E85E29DCF882309F47C
:100FC0007FC780913E0291E0382F327081FF90E020
:100FD0009093AF0191E0282F207285FF90E09093CD
:100FE000AE01311103C0211104C012C081EE0E9474
:100FF000032E8091AE01882319F085EE0E94032E06
:1010000081EE0E946A2E85E20E946A2E85E2A9C1C5
:1010100086E20E946A2E86E26ECF882309F450C7CA
:1010200080913E0291E0382F327081FF90E09093E2
:10103000AF0191E0282F207285FF90E09093AE01E0
:10104000311103C0211104C012C081EE0E94032E91
:101050008091AE01882319F085EE0E94032E81EE67
:101060000E946A2E86E20E946A2E86E27AC187E298
:101070000E946A2E87E23FCF882309F421C780911E
:101080003E0291E0382F327081FF90E09093AF01E3
:1010900091E0282F207285FF90E09093AE013111EE
:1010A00003C0211104C012C081EE0E94032E809162
:1010B000AE01882319F085EE0E94032E81EE0E9476
:1010C0006A2E87E80E946A2E87E84BC18DE20E9453
:1010D0006A2E8DE210CF882309F4F2C680913E0279
:1010E00091E0382F327081FF90E09093AF0191E052
:1010F000282F207285FF90E09093AE01311103C03C
:10110000211104C012C081EE0E94032E8091AE0115
:10111000882319F085EE0E94032E81EE0E946A2E2C
:1011200083E30E946A2E83E31CC181EE0E946A2E33
:101130008DE20E946A2E8DE22AC1882309F4C0C67E
:1011400080913E0291E0382F327081FF90E09093C1
:10115000AF0191E0282F207285FF90E09093AE01BF
:10116000311103C0211104C012C081EE0E94032E70
:101170008091AE01882319F085EE0E94032E81EE46
:101180000E946A2E80E30E946A2E80E3EAC080E318
:101190000E946A2E80E3AFCE882309F491C6809125
:1011A0003E0291E0382F327081FF90E09093AF01C2
:1011B00091E0282F207285FF90E09093AE013111CD
:1011C00003C0211104C012C081EE0E94032E809141
:1011D000AE01882319F085EE0E94032E81EE0E9455
:1011E0006A2E82E30E946A2E82E3BBC082E30E94E1
:1011F0006A2E82E380CE882309F462C680913E0283
:1012000091E0382F327081FF90E09093AF0191E030
:10121000282F207285FF90E09093AE01311103C01A
:10122000211104C012C081EE0E94032E8091AE01F4
:10123000882319F085EE0E94032E81EE0E946A2E0B
:1012400089E80E946A2E89E88CC087E80E946A2E8D
:1012500087E851CE882309F433C680913E0291E09D
:10126000382F327081FF90E09093AF0191E0282FEA
:10127000207285FF90E09093AE01311103C02111DF
:1012800004C00FC081EE0E94032E8091AE0188231E
:1012900019F085EE0E94032E84E30E946A2E84E3F7
:1012A000E5CD83E30E946A2E83E325CE882309F4EB
:1012B00007C680913E0291E0382F327081FF90E0A6
:1012C0009093AF0191E0282F207285FF90E09093DA
:1012D000AE01311103C0211104C012C081EE0E9481
:1012E000032E8091AE01882319F085EE0E94032E13
:1012F00081EE0E946A2E8FE10E946A2E8FE131C03A
:1013000081EE0E946A2E84E20E946A2E84E23FC02F
:10131000882309F4D5C580913E0291E0382F3270C0
:1013200081FF90E09093AF0191E0282F207285FF1C
:1013300090E09093AE01311103C0211104C015C09B
:1013400081EE0E94032E8091AE01882319F085EE74
:101350000E94032E81EE0E946A2E8FE20E946A2E66
:101360008FE20E94032E81EE81CD81EE0E946A2ED3
:101370008EE20E946A2E8EE20AC0882309F4A0C57C
:1013800081EE0E946A2E89E30E946A2E89E30E9400
:10139000032E81EEB0CD81608093E20161E08695FD
:1013A0002BC0F7018281882309F4A9C11092B001F2
:1013B0000230FCE51F0708F052C08091B4020631EC
:1013C0002CE5120709F48BC182720D3C3CE5130732
:1013D00009F455C208F4A4C1023D8CE5180709F4CC
:1013E0005BC208F0EFC10F3CACE51A0709F44EC22E
:1013F00008F0DBC161E081E00E94861661C5043F10
:101400002CE5120799F406E221EE40EE64EF7CE54C
:1014100009C0083DACE51A0721F606E221EE41EECF
:1014200068ED7CE5C7010E9435284AC5053F3CE5CB
:10143000130708F035C1093D8CE5180731F407E2C0
:1014400025EE45EE69ED7CE5EDCF0A3D9CE51907FB
:1014500001F708E221E045EE6AED7CE5E3CF0631D5
:101460002CE5120730F0C8018B5F9C45099708F006
:10147000A4CF0E94DF1D9093B3018093B20100318D
:101480003CE5130709F4C3C008F041C008309CE5EF
:10149000190709F49AC0F0F40430BCE51B0709F4FD
:1014A00087C068F40230FCE51F0709F477C00330F9
:1014B0001C4509F0E5C08091B201826076C006301B
:1014C0003CE5130709F46EC008F07BC08091B201BF
:1014D00088606BC00C309CE5190709F485C068F47E
:1014E0000A30BCE51B0709F474C008F079C00E94FB
:1014F00046228091B201806858C00E30FCE51F077B
:1015000009F476C008F07FC08091B2018BC00C3F17
:101510003CE5130709F44FC018F503319CE51907A2
:1015200009F47DC078F40131BCE51B0709F473C0F0
:1015300002311C4509F0A4C00E9446228091B201EC
:101540008F7733C00531FCE51F0709F472C008F43A
:1015500086C00B3F1C4509F093C08091B3013EC08B
:1015600001158DE5180709F45FC058F40E3FACE58E
:101570001A0709F444C008F43FC08091B3018260A7
:101580002DC00230EDE51E0709F475C008F45DC0FA
:1015900003301D4509F074C060E06EC08091B20157
:1015A000816003C08091B20180618093B20168C004
:1015B0008091B20111C08091B30182608093B30128
:1015C0005FC08091B2018062F0CF8091B2018064EF
:1015D000ECCF8091B20188608460E7CF8160EECF6C
:1015E0008091B2018E7FE1CF8091B2018D7FDDCFFE
:1015F0008091B201877FD9CF8091B30118C08091CB
:10160000B3018D7FDBCF8091B2018F7ECECF8091F1
:10161000B2018F7DCACF8091B2018F7BC6CF8091FE
:10162000B201877F8B7FC1CF8091B3018D7F8E7F89
:10163000C5CF8091B20182FB222720F991E0922749
:1016400090FB82F990FB83F9B0CF8091B301982F82
:10165000909591708E7F892B90FB81F9AFCF0E947E
:1016600046228091B20187FB222720F991E0922740
:1016700090FB87F99ACF61E08EE090E00E945131B3
:101680006091B2011091B30184E090E00E94513169
:10169000612F82E290E00E9451310E94462210C4E4
:1016A000063FBCE51B0731F406E221EE42EE66EF91
:1016B0007CE5B8CE063FECE51E0730F407E225EEE8
:1016C00044EE65EF7CE5AECE073FFCE51F0709F071
:1016D00068CE07E225EE46EE67EF7CE5A3CE8A7A78
:1016E00091E009F490E09093B101882311F065E353
:1016F00001C069E28EE392E00E94C51D0EC0063172
:101700001C4509F010C18091B101882309F4F6C38A
:1017100065E38EE392E00E94B81D0E94611ED0C373
:10172000073CACE51A0709F496C0D8F4043CECE594
:101730001E0709F486C030F4033C2CE5120709F4B7
:1017400061C0B2C0053C3CE5130709F47FC0063C0C
:101750009CE5190709F0A8C048E256E165E376E187
:1017600092C00A3CACE51A0709F47FC078F4083C43
:10177000ECE51E0709F474C0093CFCE51F0709F0FD
:1017800093C042E156E166E076E17DC00B3C2CE57A
:10179000120709F46FC00C3C3CE5130709F084C044
:1017A00044E656E165E776E16EC0003DECE51E07D4
:1017B00009F46FC0013DFCE51F0709F075C06EE03C
:1017C00089E06FC0053D2CE5120709F468C068F494
:1017D000033D8CE5180709F473C3043D9CE5190724
:1017E00009F062C061E085E107CE063DACE51A076D
:1017F00009F466C30E35BDE51B0709F055C065E267
:1018000080E24FC08091E20180FFC5CD8E7F809342
:10181000E2016091E2017091E3018091E401909115
:10182000E5010E9452161092E801EFEFF0E702E0A6
:10183000E150F0400040E1F700C000000E942C247D
:101840003FC341EC56E16AEC76E11DC04AEC56E13B
:1018500061EC76E118C045E356E168E276E113C039
:1018600046E056E162E176E10EC04EEE55E16AEFE8
:1018700075E109C04AEF55E16EEE75E104C045E738
:1018800056E164E676E10E9426241AC365E082E010
:1018900008C068E086E005C064E18FE002C06FE147
:1018A00086E10E9414240CC30B352DE51207B1F11B
:1018B00050F401158CE51807A9F00F3D1C4599F56A
:1018C0000E94F01DFDC20C35ADE51A0749F10D353A
:1018D0001D4549F58091B30182FB882780F991E08D
:1018E00089271FC00E944622EFEFF4E30CE0E1508D
:1018F000F0400040E1F700C0000087E797E79093D1
:101900000108809300089AE088E10FB6F894A89542
:10191000809360000FBE90936000FFCF81E001C014
:1019200080E00E94AB1ED70112968C9112970D9108
:101930001C91882349F0C8010E94C51ED82E682F2B
:10194000C8010E94681F04C0C8010E943B1FD82E16
:10195000B8018D2D0E94AB188C01982EF701D28012
:10196000A580A2942FE0A2228091B102877099F005
:10197000DD2089F0812F807F803421F080E2800F8C
:10198000883048F082E00E94C51F8091B1028770C4
:10199000CC24C3948111C12CB12EB2949FE0B92202
:1019A0008B2D90E08C30910508F04BC2FC01E95979
:1019B000FF4F0C947335812F807F1F70882311F0A7
:1019C0001295107FDD20B9F0112309F425C280E2C1
:1019D000800F883010F0911006C08091B402182B4F
:1019E0001093B40205C08091B302182B1093B30278
:1019F0000E94611E11C2802F0E94032E112309F440
:101A000020C2005E1095083010F0911006C0809141
:101A1000B40218231093B40205C08091B3021823B6
:101A20001093B3020E94611E0CC2812F807F1F7031
:101A3000803211F01295107F992021F0F1E09F166D
:101A400001F12EC0DD20A1F08091B502AA2071F035
:101A500001E0A0120BC0182B9091B30192FDF1C1CF
:101A6000181709F4EEC11093B502EBC1812B10C019
:101A7000AA2021F021E0A21609F4E3C10E945B1E16
:101A80002AC0DD2041F035E03A1508F4DAC1812F93
:101A90000E945C22D6C184E08A1508F4D2C11BC022
:101AA000DD2061F0AA2099F3D70115968C91159746
:101AB00080FFB2C18F7015968C93E9CFAA2059F0A0
:101AC000093309F0BBC1BFEFE7EEF3E0B150E040EE
:101AD000F040E1F7B1C1812F0E945122B2C1812FA4
:101AE00086958695837019F0813059F0AAC1DD2062
:101AF00019F0C801937002C080E090E00E94822338
:101B0000A8C1DD2019F0C801937002C080E090E008
:101B10000E946C239EC1802FDD2019F00E94501876
:101B200002C00E9497170E94301B93C1812F8370BF
:101B300009F069C0D11089C1902F92959695977040
:101B4000990F990F802F8F70882E912CA12CB12C7A
:101B5000092E04C0880C991CAA1CBB1C0A94D2F73D
:101B600004FF12C04FE050E060E070E004C0440F9A
:101B7000551F661F771F9A95D2F7DB01CA01809522
:101B80009095A095B09503C080E090E0DC0116959B
:101B90001695412F4370423019F1C8F40091F101BC
:101BA0001091F2012091F3013091F401413059F08C
:101BB00088299929AA29BB29BC01CD016023712359
:101BC000822393230AC0802A912AA22AB32ABC0125
:101BD000CD01682979298A299B290E94032035C1D2
:101BE00088299929AA29BB290091F1011091F201B4
:101BF0002091F3013091F401BC01CD0160277127E0
:101C000082279327EACFDD2019F0812F817001C050
:101C10008695882309F419C1902F9295969597700F
:101C2000990F990F802F8F70882E912CA12CB12C99
:101C3000092E04C0880C991CAA1CBB1C0A94D2F75C
:101C400004FF12C04FE050E060E070E004C0440FB9
:101C5000551F661F771F9A95D2F7DB01CA01809541
:101C60009095A095B09503C080E090E0DC011695BA
:101C70001695412F43704230D9F068F50091ED017F
:101C80001091EE012091EF013091F001413059F0B7
:101C900088299929AA29BB29BC01CD016023712378
:101CA000822393231EC0802A912AA22AB32A13C01A
:101CB00088299929AA29BB290091ED011091EE01EB
:101CC0002091EF013091F001BC01CD016027712717
:101CD0008227932706C0BC01CD01682979298A296A
:101CE0009B290E94941FB1C01F70DD2039F0812F05
:101CF0000E94E21F802F0E945C22A7C0802F0E94BA
:101D00005122812F0E94A01FA0C0802F22EF921687
:101D100009F440C0291538F030EF931661F091EFC7
:101D2000991699F174C0A3EF9A16D9F1B4EF9B16E6
:101D300009F44EC06CC0DD2019F1E4E0EA1508F4A6
:101D400080C01F7181E090E0A0E0B0E0AC01BD0177
:101D500004C0440F551F661F771F1A95D2F7809154
:101D6000ED019091EE01A091EF01B091F0018A0197
:101D70009B01082719272A273B27C901B80125C03D
:101D800025E02A1508F45DC0DCCFDD2029F0812F85
:101D90008F7130C0DD20D9F3812F8F710E94A01F79
:101DA00050C0DD2079F01F7181E090E0A0E0B0E04C
:101DB000BC01CD0104C0660F771F881F991F1A95BB
:101DC000D2F703C060E070E0CB010E94941F39C0DD
:101DD000DD2099F01F71812F0E94E21F8091B301D5
:101DE00082FD07C038E0139FC001112483608093F7
:101DF000B102812F0E94E21F24C081E00E94C51F12
:101E000081E08A15F0F482E00E94C51F1AC0DD202F
:101E100039F0AA2009F4BBCF802F0E946A2E11C08E
:101E2000AA2009F4B9CF893349F49FEFA7EEB3E0B4
:101E30009150A040B040E1F700C00000802F0E9408
:101E4000032E88EF8B0D843020F40E9498230E948B
:101E5000251BCC20A9F08091B10280FD11C0F701B3
:101E600012828595859585950E94E21FC7010E9483
:101E700098068091B1028595859585950E94A01F51
:101E800085E0F701DE01119601900D928A95E1F748
:101E900089819A810E943B1F9A8100E5809FF00111
:101EA000112415E0919FE00DF11D11248981E80FA7
:101EB000F11DEE0FFF1FE45AFE4F8591949120C053
:101EC0008091B1028770E1F0D70112968C9188233E
:101ED000B9F082E02A960FB6F894DEBF0FBECDBFF0
:101EE000DF91CF911F910F91FF90EF90DF90CF90F6
:101EF000BF90AF909F908F900C94C51F69E209CC62
:101F00002A960FB6F894DEBF0FBECDBFDF91CF91FA
:101F10001F910F91FF90EF90DF90CF90BF90AF9007
:101F20009F908F900895CF93DF93CDB7DEB76497DE
:101F30000FB6F894DEBF0FBECDBF84B7877F84BFD6
:101F40000FB6F894A8958091600088618093600036
:101F5000109260000FBE90E080E80FB6F894809376
:101F60006100909361000FBE85B7806885BF85B71B
:101F7000806885BF8AE99CE19093AD018093AC01B4
:101F80000E94AE2C0E94CD2C8091E2008460809350
:101F9000E200789480918E058823A1F01091E900E9
:101FA0001F709091EC00892F817090FD80E8182BB4
:101FB0001092E9008091E80083FD0E94A1291F7022
:101FC0001093E90082E084BD93E095BD9AEF97BD40
:101FD00080936E00A7E2B1E027E331E0AD0161E05C
:101FE00070E0FA018191AF01E82FE295EF70F0E027
:101FF00011A18F705B0102C0AA0CBB1C8A95E2F78D
:10200000C5019A2D9095912391A392A1892B82A32A
:102010002417350731F747E351E06CE371E08A019B
:10202000EE24E394F12CF80181918F01E82FE295E1
:10203000EF70F0E0D1A08F70570102C0AA0CBB1C5A
:102040008A95E2F7C5019A2D90959D2191A392A1C1
:10205000892B82A36017710731F701E010E0FA01C4
:102060008191AF01E82FE295EF70F0E0F1A08F7061
:10207000580102C0AA0CBB1C8A95E2F7C5019A2D33
:1020800090959F2191A392A1892B82A36417750734
:1020900031F761E070E08D91E82FE295EF70F0E0AC
:1020A00041A18F706B0102C0CC0CDD1C8A95E2F758
:1020B000C6019C2D9095942391A392A1892B82A374
:1020C0002A173B0741F7E4EBF1E084EC91E0ACEC3C
:1020D000B1E011921D928E179F07D9F780E090E032
:1020E0000E944B318A3E9E4F11F00E94F01D82E00B
:1020F00090E00E943D3180932A020E94DF1D909360
:10210000B3018093B20183E090E00E943D31682FDB
:1021100070E080E090E00E9403206091ED017091FA
:10212000EE018091EF019091F0010E94A31A1092AC
:10213000150280E8809398050E94F32F6DE070E00F
:102140008AE394E00E944C29892B09F043C08091D6
:10215000150263E070E081FD3AC087E394E00E94DD
:102160004C29892BB9F56DE070E087E294E00E947C
:102170004C29892B79F50E94771DDC01CB01805A0F
:102180009541AF4FBF4F8093170290931802A093D1
:102190001902B0931A02EBE9F5E080E092E0DF016A
:1021A0008C011D9201501040E1F7F093A207E093DB
:1021B000A1078FEF9FEF90939A058093990581E097
:1021C00080931C0280931B021092160203C084E3CA
:1021D00094E0C5CF8091C401811136C080E090E0C9
:1021E0000E944B318A3E9E4F21F00E94F01D0E94BA
:1021F000D41688E090E00E9445316093E20170932C
:10220000E3018093E4019093E5016E7F71F40E94F5
:10221000D41688E090E00E9445316093E20170930B
:10222000E3018093E4019093E5010E943816109237
:10223000E8018091E20180FF04C060E086950E9481
:10224000861681E08093C40184988C9A85988D9A33
:102250008FB1829581707D9902C090E001C092E0BB
:10226000892B8093EC0187E494E09093C6018093DE
:10227000C50183E08093060188E58093070185E529
:102280008093080183E00E940A1B2FEF33EC49E0A2
:10229000215030404040E1F700C0000080E00E9443
:1022A0000A1B80E191E09093C8018093C70150E43C
:1022B000652E22242394312C80918E05853009F0DF
:1022C00083C0FF24F39400E112E180918E058530F4
:1022D00009F05DC080918E05843009F444C00E94ED
:1022E000A42380E00E94251B1092E8018091CB017D
:1022F000811116C0F092CB018091E201982F91706C
:102300009093CA018E7F8093E2018FEF90E7A2E065
:1023100081509040A040E1F700C000000E942C24B2
:102320001092C901E8E1F0E00FB6F894A895E093A7
:1023300060000FBE6092600083B7817F846083BFBE
:1023400083B7816083BF7894889583B78E7F83BF7E
:102350000FB6F894A8958091600088618093600022
:10236000109260000FBE80918D05882309F4ADCFD7
:102370000E945A1BECECF1E081918111CCC34CED31
:10238000A42E41E0B42EAE16BF06B1F79ECF0E9438
:1023900046220E9498230E94251B1092CB01809117
:1023A000CA01882351F08091E20181608093E201AB
:1023B00060E086950E94861605C08091E901811132
:1023C0000E942C240E94A8280E945A1BE82E8111EA
:1023D0000E94771DEBE2F2E0ACECB1E000E010E02F
:1023E000302F2D919191922721F180E0FF24F394D9
:1023F0004F2D4923D1F08F8338872F2181E009F4B5
:1024000080E089870E94831D8160782F9B878A875F
:102410004F81588569858B850E94CE22F801E55D44
:10242000FD4F8081F826F08219C08F5FFF0C853048
:10243000F9F60F5F1F4F0031110591F68FEF8C8772
:102440008D871E860E94831D8160782F988B8F87D1
:102450004C855D856E8588890E94CE228091E80139
:10246000882309F484C08091E701E091E201E695B8
:10247000E81BE093DE01823059F4F0E0E55AFB4FAF
:10248000E4910E2F10E03BEBC32E32E2D32E4AC074
:10249000863059F4F0E0E85AFB4FE4910E2F10E03B
:1024A00025E8C22E22E2D22E3DC0893061F4E695A5
:1024B000F0E0EB5AFB4FE4910E2F10E091E2C92EB1
:1024C00097E2D92E2FC08F3061F4E695F0E0EE5AF6
:1024D000FB4FE4910E2F10E081EAC82E86E2D82E41
:1024E00021C0853191F08032B9F48E2F63E00E94D3
:1024F0003135E92FF0E0E15BFB4FE4910E2F10E066
:10250000BBE2CB2EB5E2DB2E0DC008E210E0ABE063
:10251000CA2EA6E2DA2E06C000ED17E0F4E8CF2EB0
:10252000F2E2DF2E8091DF01882361F01092DF015B
:102530000E94831D9093DD018093DC011092E101E4
:102540001092E0010E94831DE091DC01F091DD0119
:102550008E1B9F0B8F3F9F4750F40E0F1F1F109332
:10256000DD010093DC018CED91E0F601099580918D
:10257000EC01E82FEE0FEE0FE093EC018FB18295A6
:102580008170898B1A8A7D9903C080E090E002C037
:1025900082E090E0A988BA888A299B298E2B8093B3
:1025A000EC018F70E82FF0E0E45CFE4F90818091A9
:1025B000EB01890F8093EB018230FCF08091EA01FE
:1025C0008F5F8093EA016091ED017091EE0180913F
:1025D000EF019091F0010E94531A823031F0833064
:1025E00031F480E00E942B1605C08BEF01C08AEF0A
:1025F0000E946622FF24F39401C0F12C8091EB012C
:102600008F3FF4F48091EA0181508093EA01609158
:10261000ED017091EE018091EF019091F0010E9427
:10262000531A823031F0833031F480E00E941E165C
:1026300005C08CEF01C089EF0E946622FF24F3944D
:102640008091EB01082E000C990B62E070E00E9473
:102650005F358093EB01F1100E94771D80911C0281
:10266000882309F462C18BE995E09093A2078093D7
:10267000A10781EC94E00E943E296091F1017091E4
:10268000F2018091F3019091F4010E94531A882382
:1026900029F0813039F48CEA94E002C086EB94E0B2
:1026A0000E943E2985EA94E00E943E296091ED0156
:1026B0007091EE018091EF019091F0010E94531A08
:1026C000823029F0833041F488E994E002C080EA46
:1026D00094E00E943E2907C081E994E00E943E29CF
:1026E00081E00E94E4230E94982381FD03C08DE7CE
:1026F00094E002C087E894E00E943E290E9498235B
:1027000080FD03C08DE694E002C085E794E00E945E
:102710003E290E94982382FD03C08FE594E002C009
:1027200086E694E00E943E2980911C02882309F4E9
:10273000E1C02091990530919A052115310509F4E0
:10274000D9C0809116028111D5C0482E512C61014B
:10275000082E02C0CC0CDD1C0A94E2F7A9014C2122
:102760005D21452B11F48F5FF0CF909115029201FE
:10277000E5E0220F331FEA95E1F790FD12C0829544
:10278000880F807680930B01220F232F221F330B9B
:10279000319520930E01815E80930C0110920F0100
:1027A00012C065E0369527956A95E1F7220F220F52
:1027B000220F20930B0110920E01295F20930C0130
:1027C00083E080930F0124E630E047E050E069E0C9
:1027D00071E088E70E948030892B09F08BC08091DE
:1027E000150280FD23C0C20155E0880F991F5A953C
:1027F000E1F7AC0145565A4F04E610E020E230E024
:1028000060E488E70E94A730892B09F073C00E941A
:10281000BE23C094D0948091990590919A05C822C6
:10282000D922D0929A05C092990564C080E2E5EF62
:10283000F1E0DF011D928A95E9F745E0440C551C53
:102840004A95E1F7E0E5F1E0FC8BEB8B6CE471E09D
:10285000AB89BC898D91BC8BAB8BFB019191BF0186
:10286000A201490F511D45565A4F90E08B509E4F83
:10287000FC0137E0A32E9F01281B390B822C01C0DD
:10288000880C2A95EAF78A01912CD801BD908D0118
:10289000B8202A2D29192770722E022E000C330B16
:1028A000BB2D01C0BB0F7A94EAF77B2E31952195A1
:1028B00031092770332701C0B6942A95EAF77B289F
:1028C000B0807B287082939428E0B22E9B10DDCFDD
:1028D000AA9431960FEFA012CECF2B893C892455B4
:1028E000314009F0B5CF04E610E020E230E045EFDA
:1028F00051E086CF80911B028823B9F00E94771D9A
:1029000000911702109118022091190230911A02B9
:10291000DC01CB01801B910BA20BB30B8F3F9F4FB0
:10292000AF4FBF4710F40E94A423E11001C0F11083
:102930000E94BE2386E0E3E2F2E0DE011196019000
:102940000D928A95E1F7E0902502F0902602009121
:10295000270210912802109225021092260210924E
:10296000270210922802E11003C0FF2009F451C091
:1029700080912102909122020E94681D9C019091F9
:102980002002992309F4DDC02333310508F441C046
:102990009F3F19F09F5F90932002EE2061F00E940C
:1029A00030181E1414F09FEF01C091E0899F802D14
:1029B000112480932502FF2061F00E9430181F141B
:1029C00014F09FEF01C091E0899F802D1124809326
:1029D0002602309125023323E1F0209126022223A2
:1029E000C1F045EB3403C0011124992319F09093F1
:1029F000250203C081E08093250235EB2303C0014B
:102A00001124992319F09093260203C081E080934A
:102A10002602011103C0112309F451C080911E0246
:102A200090911F020E94681D9C0190911D029923A4
:102A300009F48CC02536310508F441C09F3F19F0D8
:102A40009F5F90931D02002361F00E940E181016E4
:102A500014F09FEF01C091E0899F802D1124809395
:102A60002702112361F00E940E18111614F09FEF37
:102A700001C091E0899F802D11248093280230911C
:102A800027023323E1F0209128022223C1F045EBF5
:102A90003403C0011124992319F09093270203C035
:102AA00081E08093270235EB2303C0011124992391
:102AB00019F09093280203C081E08093280280914E
:102AC000250281110BC080912602811107C08091DF
:102AD0002702811103C08091280281110E94301BBE
:102AE000EB82FC820D831E8386E0FE013196A3E219
:102AF000B2E001900D928A95E1F70E94982390919F
:102B00002902891709F4D8CB0E94982380932902BF
:102B10000E94251BD1CB09BD19BD09B400FEFDCF14
:102B20008091D8008F7D8093D8008091E0008260F2
:102B30008093E0008091E00081FDFCCF0E9446225E
:102B4000C4CB2D32314008F025CF63CF2D32314038
:102B500008F076CFB4CF9091B20192FF0DC0282F2C
:102B60002871283019F4877F846006C0282F2471CB
:102B7000243011F48B7F886093FF0DC0282F2871BB
:102B8000283119F4877E846106C0282F24712431EE
:102B900011F48B7E88612091B30120FF0DC0382F86
:102BA0003871383019F4877F816006C0382F317151
:102BB000313011F48E7F886021FF0DC0282F2871DD
:102BC000283119F4877E816106C0282F21712131B7
:102BD00011F48E7E886194FD877E0895E2EEF1E027
:102BE000438120E1421B08F440E021E062818181C1
:102BF0000C949D27E2EEF1E0438120E1420F08F4BE
:102C00004FEF21E0628181810C949D27E2EEF1E09B
:102C1000628120E1621B08F460E021E04381818150
:102C20000C949D27E2EEF1E0628120E1620F08F44E
:102C30006FEF21E0438181810C949D27E2EEF1E06A
:102C40009181282F438162818CEF890F0C949D27FD
:102C500081E00C941E16E2EEF1E09181282F438171
:102C6000628184E0890F0C949D2781E00C942B16DF
:102C70008091E201282F269530E02115310519F4C5
:102C80008170826005C02632310524F081708A642B
:102C90008093E2018091E501813A18F080EA809307
:102CA000E5010895CF92DF92EF92FF926B017C01D4
:102CB0000E943816B701A60188E090E0FF90EF90DF
:102CC000DF90CF900C9463318091E601882319F056
:102CD00081508093E6016091E2017091E30180915F
:102CE000E4019091E5010C9452168091E601833045
:102CF00018F48F5F8093E6016091E2017091E30127
:102D00008091E4019091E5010C9452169091E201BA
:102D100090FF36C09170811102C0926006C0863269
:102D200010F09A6402C0880F982B9093E2016623FA
:102D300051F06091E2017091E3018091E401909182
:102D4000E5010E9452166091E201669570E04BE049
:102D500050E08AE191E00E948835892B19F01092A9
:102D6000E80102C00E94A82881E08093DF0120E0F2
:102D70004091E5016091E4018091E3010C949D276D
:102D800008958091E2018695815009F485E261E021
:102D90000C9486168091E20186958F5F863208F04A
:102DA00081E061E00C948616E2EEF1E083E080833E
:102DB00011828FEF828380EA838314826081718124
:102DC000828193810C945216AF92BF92CF92DF9280
:102DD000EF92FF920F931F93CF93DF93E82EF62E7F
:102DE000E901E42FF0E0611106C0E853FB4FE491E4
:102DF0004E2F2E2F71C0062F10E0E853FB4F449149
:102E0000F42FC42ED12C26E0829FC00111242FEF75
:102E100030E0B9010E944B355BEA5603C001579F71
:102E2000900D11248E0D911D8E0D911D582F550F53
:102E3000580FD901A01BB10BAC9DC001AD9D900DE9
:102E4000BC9D900D1124E92FF59ED0011124AB2FCC
:102E5000BB277901EA1AFB0AEC9CD001ED9CB00D6E
:102E6000FC9CB00D11245901A51AB108A09E700157
:102E7000A19EF00CB09EF00C1124EF2CFF242E1913
:102E80003F092C9D80012D9D100D3C9D100D11249E
:102E9000212F6230710591F048F461157105E1F060
:102EA00061307105B9F4242F4B2F16C064307105C1
:102EB00069F040F06630710579F00CC0242F492F7D
:102EC000E12F0AC0492FEF2F2B2F06C0292FE42F07
:102ED000412F02C0292FEB2F49832883EA83DF91FA
:102EE000CF911F910F91FF90EF90DF90CF90BF9007
:102EF000AF900895CF93DF9300D01F92CDB7DEB788
:102F00009091E20190FF0DC0413A08F040EA9E0125
:102F10002F5F3F4F0E94E4164B8169818A810E9496
:102F200082270F900F900F90DF91CF9108958D3EE3
:102F300039F49091260297FF35C01092260259C0AD
:102F40008E3E29F4909126021916BCF32BC0909165
:102F500025028F3E29F497FF25C01092250249C013
:102F6000803F19F41916CCF31DC090912702893FB8
:102F700029F41916BCF4109227023BC08A3F19F4B9
:102F800097FF10C0F8CF8B3F39F49091280297FF3C
:102F900009C0109228022DC08C3F21F49091280284
:102FA0001916BCF39FE0980F983080F421E030E0D0
:102FB000A90102C0440F551F9A95E2F7CA018095F6
:102FC0009091240289238093240213C08D3F21F421
:102FD000809146028E7F0BC08E3F21F48091460285
:102FE0008D7F05C08F3F29F4809146028B7F8093AF
:102FF000460280912502811106C08091260281112E
:1030000002C01092200280912702811106C0809197
:103010002802811102C010921D020895809146027B
:1030200080FD16C081FD16C082FD18C080911D0272
:10303000882391F0883290F428E0829FC001112407
:1030400068E270E00E945F35862F672B29F007C089
:1030500082E0089584E0089581E0089588E008956D
:103060008091460280FD14C081FD14C082FD16C00F
:1030700080912002882381F0843180F422E3829FB2
:10308000C001112464E170E00E945F35862F08952D
:103090008CE0089589E1089585E0089582E308951C
:1030A0008D3E21F40E943018819504C08E3E29F493
:1030B0000E9430188093260208958F3E21F40E94CA
:1030C0003018819504C0803F29F40E943018809305
:1030D00025020895893F19F40E940E1805C08A3F01
:1030E00031F40E940E1881958093270208958B3F3A
:1030F00021F40E940E18819504C08C3F29F40E948F
:103100000E188093280208959FE0980F983078F465
:1031100021E030E0A90102C0440F551F9A95E2F763
:10312000CA0190912402892B8093240208958D3F37
:1031300021F48091460281600BC08E3F21F4809182
:103140004602826005C08F3F29F480914602846068
:10315000809346020895CF93DF9320E5829FC001BC
:103160001124FC0145E0749FE00DF11D1124E60FD0
:10317000F11DEE0FFF1FE45AFE4FC591D491CE0111
:10318000C238D10569F1B0F4C133D10509F475C075
:1031900048F4C932D10509F469C0CA32D10509F42D
:1031A00073C085C0C533D10509F459C0C933D105F1
:1031B000B9F07DC0C33ED10571F138F4C03ED105F0
:1031C000B1F0C23ED10511F172C0C63ED105B9F1D0
:1031D000C73ED105C9F1C43ED10509F068C024C07D
:1031E0002091B20120FD5DC021FD5BC060C0209137
:1031F000B20120FD50C02091B30120FF51C1809148
:10320000B20184FD4BC183EE90E04AC12091B2012E
:1032100022FF46C1F4CF8091B20182FD3FC0809170
:10322000B30180FD3EC0EBCF2091B30121FF38C137
:103230008091B20184FD32C187EE90E031C12091CE
:10324000B20123FF2DC1F4CF8091B20183FD2CC0C8
:103250008091B30181FFECCF84EE90E021C12091F9
:10326000B20125FF1DC189E290E01AC12091B2018F
:1032700025FF16C185E390E013C12091B20126FF1E
:103280000FC18AE290E00CC12091B20126FF08C173
:1032900081E390E005C189E390E002C182EE90E015
:1032A000FFC080EE90E0FCC086EE90E0F9C0C11552
:1032B00051E5D50708F06CC0C11520E5D207F0F044
:1032C000CE01F4E096958795FA95E1F7282F2370C3
:1032D0003C2F337081E090E002C0880F991F3A952F
:1032E000E2F79C68922B2C2F2F702695269550E2A2
:1032F000259F90011124822B932BD2C0C83ED1056B
:1033000070F5C03ED10508F0CBC0C83AD105B8F47D
:10331000C53AD10550F02C2F255AC22FD0E0C658FF
:10332000DE4F888190E09064BBC0C130D10509F4C4
:10333000B7C008F4B3C0249708F4B0C0B1C0CF3B05
:10334000D10508F0ABC02C2F285AC22FD0E0CC0FEB
:10335000DD1FC358DE4F888199819464A1C0C115D7
:1033600040E2D40760F4C11551E0D50708F098C0D9
:10337000CD3ED10508F492C0CE01906591C0C11533
:1033800080E4D80708F48AC0CE019F70906A88C094
:10339000C11525E5D20708F040C0C11544E5D407A2
:1033A00028F09C2F8827846F906A7AC0C11553E556
:1033B000D507A8F09E012370332781E090E002C07A
:1033C000880F991F2A95E2F72C2F2695269550E213
:1033D000259F90011124822B932B9A6861C0C115FF
:1033E00082E5D80728F49C2F8827816F906A58C0FF
:1033F0009E012370332781E090E002C0880F991F5F
:103400002A95E2F72C2F2695269540E2249F9001DD
:103410001124822B932B9C6843C0C11529E5D20748
:10342000B0F4C11548E5D40728F09C2F8827806F99
:10343000906A36C0C11556E5D50780F58C2F0E94DD
:10344000AB158F7190E0982F8827906229C0C11525
:103450008AE5D80790F48C2F8F700E94AB159E01DF
:1034600094E0369527959A95E1F72F7030E0322F4A
:1034700022273069A901482B0FC0CE019056811533
:10348000904260F48D2F8F710E94AB159E013327FF
:1034900030628F71A901582BCA0102C080E090E010
:1034A000DF91CF910895CF92DF92EF92FF926C015E
:1034B000EE24FF24C114D104E104F10421F0C7017A
:1034C000B60120E101C020E0C72ED82EE92EFF244E
:1034D000C114D104E104F10419F0285FC701B60159
:1034E0006B017C0154E0F694E794D794C7945A9505
:1034F000D1F7C114D104E104F10419F02C5FC70124
:10350000B6016B017C0142E0F694E794D794C7942E
:103510004A95D1F7C114D104E104F10419F02E5FEA
:10352000C701B601DC01CB01B695A79597958795A4
:10353000892B8A2B8B2B09F02F5F822FFF90EF9026
:10354000DF90CF900895CF92DF92EF92FF926B01C0
:103550007C01611571058105910561F0DC01CB01EC
:1035600032E0B695A795979587953A95D1F7682F4C
:10357000617001C060E081E00E945F27C114D10446
:10358000E104F10461F0D701C60123E0B695A795E7
:10359000979587952A95D1F7682F617001C060E0F3
:1035A00082E00E945F276091F1017091F2018091A9
:1035B000F3019091F4010E94531A882341F0813065
:1035C00031F421EC32E040E36FEF89EA05C021ECF1
:1035D00032E040E16FEF85E50E94E416C701B601D5
:1035E0000E94531A823041F0833069F421EC32E0BA
:1035F00040E660E884E905C021EC32E040E66FEF88
:1036000085E50E94E416C701B601FF90EF90DF90B8
:10361000CF900895CF93C82F2BEB32E081FF02C0EB
:1036200040E801C040E16FEF80E00E94E4162EEB1D
:1036300032E0C0FF02C040E601C040E16FEF80E22F
:103640000E94E416CF910C942C24CF93C82F0E9493
:103650000A1BC1FB662760F980E0CF910C945F27BD
:103660000E94831D20912502211104C02091260271
:10367000222321F09093220280932102209127029D
:10368000211104C020912802222321F090931F02CF
:1036900080931E02E091C701F091C801309749F074
:1036A00082E0809323020480F581E02D83E292E0A2
:1036B000099408952F923F924F925F926F927F925A
:1036C0008F929F92AF92BF92CF92DF92EF92FF9232
:1036D0000F931F93CF93DF9300D000D000D0CDB7CE
:1036E000DEB724EB822E21E0922E3CEBE32E31E07C
:1036F000F32ED40127E231E03A832983B12C61E033
:1037000070E06D016C901C92E981FA818191FA83DD
:10371000E983E82FE295EF702E2F30E03C832B8376
:10372000F90121A18F70AB0102C0440F551F8A958A
:10373000E2F7CA01242B21A322A1A42EA0942A21BE
:1037400022A350EA5A95F1F797E3292E91E0392EFA
:10375000810140E050E0F80171908F01272D229502
:103760002F7030E0F90120A15C9030E0F72DFF7060
:1037700002C035952795FA95E2F720FD07C0262F60
:10378000042E01C0220F0A94EAF701C020E0522A59
:103790005C924F5F5F4F45305105E9F6EB81FC814C
:1037A00091A1A922A1A292A1892B82A3119681E0C5
:1037B000F6019081961101C080E0B82AEA16FB0656
:1037C00009F09FCF40E050E061E070E084EC482ECB
:1037D00081E0582ED1018D911D01E82FE295EF7007
:1037E000F0E021A18F70DB0102C0AA0FBB1F8A95F8
:1037F000E2F7CD012A2B21A322A1FA2EF0942F214A
:1038000022A3B0EABA95F1F79B01042E01C0220F62
:103810000A94EAF7A22EE22EE09404EC11E02CEBDD
:1038200031E03E832D83A7E2B1E0BC83AB83C12CA2
:103830002D813E813A832983D901DC90AB81BC8103
:103840007D90BC83AB83272D22952F7030E0D9016A
:1038500090962C9130E0B72DBF7002C0359527951A
:10386000BA95E2F720FD03C02D2D2A2902C02D2D87
:103870002E21AD81BE812C932D813E812F5F3F4F44
:103880003E832D83A981BA812C91D21611F0CC24CC
:10389000C3942D813E814216530651F691A1F9221F
:1038A000F1A292A1892B82A3BC284F5F5F4F4530C4
:1038B000510509F08FCFBB2049F081E080933D0294
:1038C0000E94831D90933C0280933B0280913D02B5
:1038D000882399F080913B0290913C020E94681DE0
:1038E000069758F0ECECF1E0D4018D914D018193F5
:1038F0000A171B07C9F710923D028B2D26960FB6AB
:10390000F894DEBF0FBECDBFDF91CF911F910F9115
:10391000FF90EF90DF90CF90BF90AF909F908F90EF
:103920007F906F905F904F903F902F90089580917F
:103930008305089580E0089520917E0290914D02C4
:1039400056E02917A9F030E0529FF001539FF00D87
:103950001124E25BFD4F7181761306C070817813EC
:1039600003C07281741306C02F5F3F4F2770E9CFE9
:1039700080E0089581E00895CF93DF9300D01F92F7
:10398000CDB7DEB790918E05943019F589837B838E
:103990006A8382E08093E9008FEF9091E800815084
:1039A00095FD06C095ED9A95F1F700008111F5CFD0
:1039B0008091E80085FF0DC040E050E063E070E0DA
:1039C000CE0101960E9475298091E8008E77809340
:1039D000E8000F900F900F90DF91CF910895BC01F8
:1039E00084E00C94BC1CBC0183E00C94BC1C22E061
:1039F0002093E9002FEF3091E800215035FD06C0FB
:103A000035ED3A95F1F700002111F5CF2091E8004E
:103A100025FF0BC040E050E066E070E00E94752991
:103A20008091E8008E778093E8000895CF93DF932C
:103A300021E02093E9002FEF3091E800215035FD7F
:103A400006C035ED3A95F1F700002111F5CF209130
:103A5000E80025FF14C0EC0140E050E068E070E0B1
:103A60000E9475298091E8008E778093E80088E0B5
:103A7000FE01A4E8B5E001900D928A95E1F7DF918F
:103A8000CF91089578941F920F920FB60F92112440
:103A90008F939F93AF93BF938091B6029091B7029B
:103AA000A091B802B091B9020196A11DB11D8093F9
:103AB000B6029093B702A093B802B093B902BF9137
:103AC000AF919F918F910F900FBE0F901F901895FF
:103AD0009C014FB7F8948091B6029091B702A091E3
:103AE000B802B091B9024FBF821B930B08952FB754
:103AF000F8946091B6027091B7028091B8029091EB
:103B0000B9022FBF08952FB7F8948091B602909113
:103B1000B702A091B802B091B9022FBF08951F92C9
:103B20000F920FB60F9211248F939F93AF93BF9371
:103B30008091C901811113C08091B6029091B702A2
:103B4000A091B802B091B9024196A11DB11D809318
:103B5000B6029093B702A093B802B093B902BF9196
:103B6000AF919F918F910F900FBE0F901F9018955E
:103B70009C012A5F3F4FFC014281461301C0128223
:103B8000019682179307B9F708959C01FC013296BC
:103B90009FEF80E04191461789F09F3F19F4411152
:103BA00001C0982F8F5F8630A9F79F3F39F0F90148
:103BB000E90FF11D97FDFA95628308950895CF935B
:103BC00084E090E00E943D31C82F82E290E00E94A4
:103BD0003D312C2F30E0A901582BCA01CF91089517
:103BE0006AEE7EEF80E090E00E946F3160E082E05C
:103BF00090E00E94513160E083E090E00E945131FA
:103C00001092F1011092F2011092F3011092F4015E
:103C100060E084E090E00E94513160E082E290E058
:103C20000E94513160E085E090E00E94513160E0F7
:103C300086E090E00E9451316FEF87E090E00E94B3
:103C4000513140E050E0BA0188E090E00E946331D9
:103C500060E08DE090E00E94513140E050E0BA0118
:103C600088E190E00E94633160E087E190E00E948B
:103C7000513140E050E0BA018CE190E00E946331A4
:103C800060E070E080E290E00E946F3140E050E040
:103C9000BA0188E190E00E94633140E050E0BA014F
:103CA0008FE090E00E94633140E050E0BA0183E190
:103CB00090E00C9463318091B50281111092B502AD
:103CC00008959091B4028091B302892B2091B202A1
:103CD000982F922B90933E028091B502882389F011
:103CE000892B80933E02E0E4F2E097E080E091507F
:103CF00029F021912223D9F38F5FF9CF81110E94FE
:103D00005B1EE091C701F091C801309731F002804D
:103D1000F381E02D8EE392E00994089580E090E035
:103D20000E94822380E090E00E946C231092B302F4
:103D30001092B2020E94611EE3E2F2E086E0DF012F
:103D40001D928A95E9F71092200210921D0210929E
:103D500046020C94301BCF93C091B301C2FB99274C
:103D600090F9981781F080FBC2F9C093B30160917C
:103D7000B20184E090E00E9451316C2F82E290E029
:103D8000CF910C945131CF910895BF92CF92DF9291
:103D9000EF92FF920F931F93CF93DF938C01C0900C
:103DA000ED01D090EE01E090EF01F090F0018091F4
:103DB000F1019091F201A091F301B091F401C82AB0
:103DC000D92AEA2AFB2ACFE1D0E0D701C6010C2E7E
:103DD00004C0B695A795979587950A94D2F780FD6C
:103DE00004C0219790F7B12C07C0BC2EB8018C2FCE
:103DF0000E94AB180197A9F38B2DDF91CF911F91F2
:103E00000F91FF90EF90DF90CF90BF900895CF93E8
:103E1000DF93EC010E94C51EBE010E94AB18DF912A
:103E2000CF9108950E94071F292F2F70E92FE29547
:103E3000EF704E2F50E0FA013297EE30F105B8F4F2
:103E4000ED58FF4F0C947335803F99F018F4883E7D
:103E500070F40FC0843F59F40CC0883E50F0813F8D
:103E600031F407C0822F869586958695089580E067
:103E7000089581E0089524E0929F900D1124890F08
:103E8000682F669566956695982F977085E0689F70
:103E9000B001112440E050E080E0FB01E40FF51F89
:103EA000E158FD4F208130E0092E02C0369527955C
:103EB0000A94E2F721703327042E01C0220F0A94DE
:103EC000EAF7822B4F5F5F4F4530510531F7089578
:103ED00024E0929F900D1124890FE82FE695E69536
:103EE000E695877051E001C0550F8A95EAF785E0A5
:103EF000E89FF0011124E158FD4F20E030E070E030
:103F00004081CB01022E02C0969587950A94E2F774
:103F10008170819584278523842781932F5F3F4F6C
:103F20002530310569F708950E94A31A6093ED01C9
:103F30007093EE018093EF019093F0010C948E1E2C
:103F40000F931F9341E050E060E070E004C0440F25
:103F5000551F661F771F8A95D2F74095509560953B
:103F600070958091ED019091EE01A091EF01B091DB
:103F7000F0018A019B01082319232A233B23C9014D
:103F8000B8011F910F910C94941F2091B10280955C
:103F900082238093B102982F977041F430E0482F2C
:103FA000082E000C550B2417350721F49091B3010E
:103FB00092FF07C08595859585950E94A01F109258
:103FC000B10208950F931F9341E050E060E070E06C
:103FD00004C0440F551F661F771F8A95D2F7809142
:103FE000ED019091EE01A091EF01B091F0018A01F5
:103FF0009B01082B192B2A2B3B2BC901B8011F91C0
:104000000F910C94941F6093F1017093F2018093CF
:10401000F3019093F4010C948E1E80917E02909196
:104020004D02891719F08F5F8770FBCF08950F93AA
:104030001F93CF93DF9380914C0282958F7009F08C
:104040005DC080914902882309F458C080917E02A6
:1040500010914D026091470270914802C0914A024E
:10406000D0914B0291E06F3F09F090E0292F06E0DC
:10407000811709F443C0209721F07F3F21F030E001
:1040800003C031E001C0322F90E030FD34C0089F02
:10409000F001099FF00D1124DF01A25BBD4F1196C5
:1040A0003C911197371327C03C91361324C01296C8
:1040B0003C91129731111FC013964D915C9114974A
:1040C0004C1B5D0B48375105B0F480914C028F704A
:1040D000806180934C02ED5AFD4F80818F7080612A
:1040E000808387E492E00E949806DF91CF911F9130
:1040F0000F910C940D2001968770BACFDF91CF916C
:104100001F910F9108958F929F92AF92BF92CF927D
:10411000DF92EF92FF920F931F93CF93DF93CDB770
:10412000DEB761970FB6F894DEBF0FBECDBF8C012E
:1041300085E0F801DE011D9601900D928A95E1F768
:10414000D801DC901196EC9011971296CC9090913A
:1041500047022091480240914A0250914B0241157A
:10416000510531F02F3F31F481E09F3F19F403C036
:1041700081E001C080E080FD58C1F801A380B480D7
:1041800087E4882E82E0982EF0904902B501641BE6
:10419000750BFF2009F403C180914C02382F307F4A
:1041A0006837710508F0CDC0311188C02E1112C0DA
:1041B0009D1110C0FC2CC1100DC08F7080618093C8
:1041C0004C02C4010E94980680914C02D8011596B9
:1041D0008C9348C1A114B10439F0BFEFEB1206C0B3
:1041E00081E0DB1203C003C081E001C080E080FDFC
:1041F00003C081E08C2502C080E090E080FF10C009
:104200004C2D6E2D8D2D0E949C1C882349F087E437
:1042100092E00E949806E7E4F2E086E0DF0199C0B0
:10422000AB2839F0BFEFEB1206C081E0DB1203C010
:1042300003C081E001C080E080FD03C081E08C25E7
:1042400002C080E090E0E82FE170BE2E80FF2CC01D
:104250004C2D6E2D8D2D0E949C1CF82E811124C09A
:10426000DD86EE868D859E850E94071F292F22956B
:104270002F70223018F0243090F405C09F7059F050
:10428000811109C0EFC09F7031F0D80115969C9143
:10429000907F09F4E7C0805E883008F4E3C0C8016D
:1042A0000E949806FB2CDEC0FC2CCC2009F4DAC05E
:1042B00080914C02816080934C024EC02E1106C04A
:1042C0009D1104C0C11002C0F8018BC0DD86EE86CE
:1042D0008D859E850E94121F882369F1CC2059F19B
:1042E00020914C02822F82958F7090E0029774F09B
:1042F000809147029091480298878F831986BB86E8
:10430000AA862C87CE0107960E94980686E0F801BF
:10431000A7E4B2E001900D928A95E1F70E94172080
:104320000DC02E15D9F0DD86EE868D859E850E9406
:10433000121F81111DC0C8010E949806FF24F3942A
:1043400091C03111EECF87E492E00E94980686E09A
:10435000D4011D928A95E9F7F12C84C09D11E3CF19
:10436000C110E1CFF8018583C8010E94980657C0AB
:10437000CC2009F320914C02822F82958F7090E01F
:10438000029724F280914702909148029A83898390
:104390001B82BD82AC822E83CE010196B5CF6837D9
:1043A0007105E8F5FC2CCC2031F22E1127C09D11AF
:1043B00025C020914C0220FD18C0822F82958F705D
:1043C000482F50E04115510581F0F80125834F3009
:1043D000510541F08F5F982F9295907F822F8F70BB
:1043E000892B8583C8010E94980686E0F801A7E41E
:1043F000B2E001900D928A95E1F734C0DD86EE8639
:104400008D859E850E94121F811180CF80914C0264
:10441000816080934C02C8010E94980623C086E008
:10442000D4011D928A95E9F71DC0CC2009F483CFF1
:10443000DD86EE868D859E850E94121FF82E8823CC
:1044400009F479CF86E0F801A7E4B2E001900D927B
:104450008A95E1F780914702909148020E94071FD8
:104460000E9417208F2D61960FB6F894DEBF0FBE05
:10447000CDBFDF91CF911F910F91FF90EF90DF9013
:10448000CF90BF90AF909F908F9008951092B402FC
:1044900086E0E0E4F2E0DF011D928A95E9F70C94F2
:1044A0008E1E882341F080959091B40289238093D9
:1044B000B4020C94611E0895882339F09091B402DF
:1044C000892B8093B4020C94611E08951F93CF939F
:1044D000DF93182F893319F0C0E0D0E002C0C0E5A7
:1044E000D0E0812F0E946A2E209741F08FE99FE053
:1044F0000197F1F700C000002197F6CF812FDF91DF
:10450000CF911F910C94032E0895CF93DF93EC016C
:10451000E2EEF1E0438162818C810E947A178C8106
:104520008F5F8C83DF91CF910895682F70E080E0DA
:1045300090E00E94323320E030E04FE753E40E94E5
:1045400055322BED3FE049E450E40E945B340E9479
:10455000C8340E94CF3220E736E042EE5EE30E948C
:10456000E83124E530E643E252E40E945B340E94E5
:104570000133862F0895CF93DF93EC018C810E9445
:104580009522E2EEF1E0482F628181810E947A1744
:104590008C818F5F8C83DF91CF9108951F93CF9390
:1045A000DF93CDB7DEB767970FB6F894DEBF0FBEC7
:1045B000CDBF342F4B8B252F5C8B6D8B7E8B8F8BE0
:1045C0004E895F8961111092B30286E0FE013D962B
:1045D000DF01982F1D929A95E9F73D872E876F8707
:1045E000598B488BDE01179601900D928A95E1F761
:1045F000CE0107960E94832081113EC086E0FE0115
:104600003796DE01119601900D928A95E1F7FF81B0
:10461000E8856A857B856115710531F0EF3F31F4DE
:1046200081E0FF3F19F403C081E001C080E080FD1C
:1046300023C020914D0230E0C9010196877099276F
:1046400040917E0250E08417950779F1F983EA835F
:104650007D836C8396E0929FD001939FB00D1124CF
:10466000A25BBD4FFE01319601900D929A95E1F744
:1046700080934D020E940D2016E080917E02909161
:104680004D028917F9F0189FC0011124825B9D4FDC
:104690000E9483208823B1F080917E0290E00196F1
:1046A0008770992780937E02E8CF0E94462210925D
:1046B0004D0210927E02E7E4F2E086E0DF011D92F7
:1046C0008A95E9F767960FB6F894DEBF0FBECDBFA7
:1046D000DF91CF911F91089520917F053091800542
:1046E0002817390771F09093800580937F05E0913A
:1046F000C701F091C801309721F00084F185E02DC9
:104700000994089520917D0530917E052817390779
:1047100071F090937E0580937D05E091C701F09143
:10472000C801309721F00680F781E02D09940895A3
:10473000E091C701F091C801309721F00190F0811C
:10474000E02D099480E0089580911C0290911B0255
:10475000882389F0992369F062E070E087E296E0AF
:104760000E944C29892B19F080911B020895109208
:104770001B0290911B0281E08927089580911C0201
:104780008823F9F00E94771DDC01CB01805A954106
:10479000AF4FBF4F8093170290931802A093190256
:1047A000B0931A0280911B0281110BC062E070E08D
:1047B00085E296E00E944C29892B19F481E08093D0
:1047C0001B0280911B020895CF93E82F2091A1072F
:1047D0003091A2072B59354040919805642F70E025
:1047E000C9010E944B35481B842FEE2351F066E02F
:1047F0000E943135C82FC150A8F080E20E94BE2827
:10480000FACFA901480F511D4115524018F080E020
:1048100020E030E0280F311D25563A4F3093A20793
:104820002093A107CF9108959091E20190FF04C0D9
:104830009695981740F003C0811105C090E0961737
:1048400010F40C94CA1661E00C948616882311F0BB
:10485000FA0101C0FB0109945F926F927F928F92DF
:104860009F92AF92BF92CF92DF92EF92FF920F93FF
:104870001F93CF93DF93CDB7DEB7C850D1400FB6AB
:10488000F894DEBF0FBECDBF509005018091E201CC
:1048900080FF08C08090C5019090C60181149104EA
:1048A000A9F42EC08091060190910701891790F715
:1048B000E82FF0E09F01220F331FE20FF31FE554B2
:1048C000FD4F1182108212828F5FF0CF8091CB0159
:1048D000811116C0A12CB12C66246394712C2091F7
:1048E000E901C3010A2C01C0880F0A94EAF7822368
:1048F00009F448C0F401C590D490C114D10459F50D
:10490000EDECF5E0AE014F5F5F4FBE01675F7E4F9C
:10491000CA0144C010E08A819801280F311DC901E5
:104920002935310514F088E590E07C01EE0CFF1C80
:104930008E0D9F1DDC01A554BD4F7D01C801880F60
:10494000991F080F191F05541D4F0E151F0570F0F4
:10495000B5E0CB0ED11C45E050E0B601CE0101968A
:104960000E94343109810F3FA9F60CC04D81413AB4
:1049700008F040EA98016C818B810E94E4160D5F7B
:104980001F4FE3CF22E0820E911C3FEFA31AB30A20
:1049900088E0A816B10409F0A2CFB2CF249130E08C
:1049A000D901AA0FBB1F2A0F3B1FD901A554BD4F28
:1049B000CD90DD90EC90DA01CD92DD92ED92AD01DB
:1049C00031966A177B0751F720910401FC01B3E08F
:1049D0002B9FE00DF11D1124539A8BB1877F9BB162
:1049E00098602FB7F894AF0133E0539E400D511DEE
:1049F00011244E175F0789F0319168E09BB90000E0
:104A000000C037FF8BB9330F000000C000C000C0EA
:104A10008BB900C06A9591F7ECCF2FBF8FE594E07A
:104A20000197F1F700C00000C85FDE4F0FB6F894A1
:104A3000DEBF0FBECDBFDF91CF911F910F91FF90D1
:104A4000EF90DF90CF90BF90AF909F908F907F902E
:104A50006F905F9008957F928F929F92AF92BF92D6
:104A6000CF92DF92EF92FF920F931F93CF93DF933A
:104A7000FC019280748081E0848380E00E94952212
:104A8000882E8FE70E949522A12CF5E0BF2ECC2422
:104A9000CA94D12C8819E82EF12C80910801A8160F
:104AA00008F0AAC0CA2DD0E022E0291568F0BC9E0B
:104AB000F001BD9EF00D1124ED53FC4F8091E301F8
:104AC00080838091E401818371100AC0BC9EF00153
:104AD000BD9EF00D1124ED53FC4F1382128268C06D
:104AE000BC9E8001BD9E100D11240D531C4FF8017A
:104AF00083818823F1F081508383FFEF8F9FC00172
:104B00001124F801648170E00E944B35862F0E94C9
:104B100095228819FFEF8F9FC0011124B7010E94D1
:104B20004B358091E501689FB0011124F801728333
:104B30003FC00E9424312091E5012695215830E0A4
:104B4000A901440F551F322F2227240F351F232F71
:104B500033278217930764F5F2E0F91598F40E9461
:104B60002431B6010E945F35F80180830E94243110
:104B70002091E4012695622F70E00E945F35280F96
:104B8000F8012183BC9EF001BD9EF00D1124ED5370
:104B9000FC4F12828091E501843108F484E1BC9ECF
:104BA000F001BD9EF00D1124ED53FC4F84838383EF
:104BB000809106019E01280F311DC901880F991FA0
:104BC000280F391F25543D4FBC9EF001BD9EF00DAE
:104BD0001124ED53FC4F4281413A08F040EABC9E5B
:104BE000F001BD9EF00D1124ED53FC4F61818081D9
:104BF0000E94E416A39451CFDF91CF911F910F91A2
:104C0000FF90EF90DF90CF90BF90AF909F908F90EC
:104C10007F900C942C248F929F92AF92BF92CF9250
:104C2000DF92EF92FF920F931F93CF93DF938C014C
:104C3000FC014481C42FD0E09E01DE010E94D931E5
:104C40009B01AC010E94A4316B017C01E0E2F0E029
:104C5000EC1BFD0BA5E5B0E09B01AC010E94A4316B
:104C60004B015C019F01DF010E9479359B01AC0182
:104C70000E94AF319B01AC012C0D3D1D4E1D5F1DEF
:104C8000C501B4010E94B731C22FD22F2A3228F4B5
:104C9000F3E02F9F900111240DC025E530E02C1B7F
:104CA0003109C901880F991F280F391F37FF02C02A
:104CB0002F5F3F4F35952795C22FC095F12C85E585
:104CC000E82EED1A80910801F816E0F4F0FC02C01D
:104CD0008E2D01C08D2F909106012F2D30E0290FD0
:104CE000311DA901440F551F240F351F25543D4F79
:104CF0004C2FC13A08F040EA6091E4010E94E416AA
:104D0000F394E0CF0E942C24F8018481811102C029
:104D100091E003C0803219F49FEF909325019091A8
:104D20002501890FF8018483DF91CF911F910F91A5
:104D3000FF90EF90DF90CF90BF90AF909F908F90BB
:104D40000895AF92BF92CF92DF92EF92FF920F93AE
:104D50001F93CF93DF93FC01828180FF03C0CC249B
:104D6000CA9402C0CC24C394D12C38E5A32E8091E0
:104D70000801D81608F044C080910601ED2CF12CF2
:104D8000E701C80FD11DCE01880F991FC80FD91F89
:104D9000C554DD4F198218821A8204E010E0B12C4C
:104DA0008091BA028B0D89352CF06A2D0E943D3519
:104DB000892F05C087FF03C090910801890F082E35
:104DC000000C990BE816F906A9F48091E501809F83
:104DD000A001819F500D11245595479555954795F4
:104DE000413A08F040EA9E016091E4018091E301BC
:104DF0000E94E416BC0C0150110991F6D394B7CF70
:104E00000E942C248091BA02F1E0CF1206C08111D9
:104E100002C080910801815007C090E00196609126
:104E2000080170E00E945F358093BA02DF91CF9154
:104E30001F910F91FF90EF90DF90CF90BF90AF90B8
:104E40000895FF920F931F93CF93DF93EC01F12C02
:104E50000FE710E060910801F61608F58091060151
:104E60002F2D30E0280F311DC901880F991F280F01
:104E7000391F25543D4F4091E501413A08F040EA81
:104E800070E0C8010E945F35962F8C816091E4012B
:104E9000F99E800D11240E94E416F394DBCF0E944A
:104EA0002C249A818C8190FF02C08F5F01C08150B9
:104EB0008C83DF91CF911F910F91FF90089521E096
:104EC00030E0A90102C0440F551F8A95E2F7CA01DC
:104ED0002091E901662311F0822B02C08095822384
:104EE0008093E9018091E801811106C08091E2017F
:104EF00060E086950E9486168091E20180FF0C9406
:104F00002C2408959091E20190FF16C09091060123
:104F100020910701921770F4E92FF0E0DF01AA0F4A
:104F2000BB1FEA0FFB1FE554FD4F81836083428363
:104F30009F5FF0CF0C942C240895AF92BF92CF9234
:104F4000DF92EF92FF920F931F93CF93DF9300D0E6
:104F50001F92CDB7DEB7082FF62E142FE22E9091B8
:104F6000E20190FF74C0E92FE695AE2FB0E0AC5A95
:104F7000BE4F8C918093E7019E7F923081F4413A3D
:104F800008F040EA9E012F5F3F4F6F2D802F0E9457
:104F9000E4164B8169818A810E94822746C0823053
:104FA00019F41091E50141C0863019F40091E30134
:104FB0003CC08930D9F38631C1F5E6518E2F81701E
:104FC000D82EE695F0E0E853FA4FA590B490C12CA6
:104FD000BB2460910801C61630F52C2D30E0A29E4E
:104FE000C001A39E900DB29E900D112470E00E940E
:104FF0004B35802FD11002C0860F01C0861B9091C7
:105000000601290F311DA901440F551F240F351F1B
:1050100025543D4F412F113A08F040EA6F2D0E9470
:10502000E416C394D6CF0E942C240093E301F0929F
:10503000E4011093E501EE2051F06091E2017091DE
:10504000E3018091E4019091E5010E9452160F90D6
:105050000F900F90DF91CF911F910F91FF90EF90E4
:10506000DF90CF90BF90AF9008950F931F93CF9391
:10507000DF93C42FD22FFC0182818823C9F0409393
:10508000B0010E94831D90937C0580937B0580E294
:105090008C0F883008F057C0C77081E001C0880FBE
:1050A000CA95EAF7DF91CF911F910F910C945C2282
:1050B0008091B001481330C080917B0590917C05B0
:1050C0000E94681D8837910538F510E21D0FCD1735
:1050D000B9F080E28C0F883040F4C77081E001C0E5
:1050E000880FCA95EAF70E945122183028F581E00E
:1050F0009D2F977001C0880F9A95EAF70E945C2255
:10510000802F0E9466221830F0F4D77081E001C031
:10511000880FDA95EAF70AC080E28C0F883098F49D
:10512000C77081E001C0880FCA95EAF7DF91CF917F
:105130001F910F910C945122802FDF91CF911F91DD
:105140000F910C946622DF91CF911F910F910895DA
:105150006091E201669570E04BE050E08AE191E0F9
:105160000E948835892B19F481E08093E8010E9420
:10517000831D9093DD018093DC010895CF93DF932D
:105180008A3011F481E003C08D3029F480E0DF9192
:10519000CF910C94E423682F8091A1079091A207EE
:1051A00026E0FC01ABE9B7E001900D922A95E1F70A
:1051B000603E30F026E0FC0111922A95E9F70AC022
:1051C000F6E06F9FB0011124635A784F46E050E03B
:1051D0000E943431C091A107D091A20746E050E06F
:1051E000BE018BE997E00E949535892B49F19E011C
:1051F0002B593540A90185E0569547958A95E1F7E9
:1052000081E090E0BC0102C0660F771F4A95E2F78B
:105210004091990550919A05462B572B2B5F3F4F94
:1052200065E0369527956A95E1F702C0880F991FCA
:105230002A95E2F7842B952B90939A0580939905F4
:105240009E012559354040919805642F70E0C901B1
:105250000E944B35481B463010F4240F311D211598
:1052600082E0380710F020E030E025563A4F3093C6
:10527000A2072093A107DF91CF910895CF93DF93E9
:10528000EC01FE018491882321F00E94BE28219622
:10529000F8CFDF91CF910895EF92FF920F931F9374
:1052A000CF93DF93EC017B0164E670E088E70E9416
:1052B000F92F8C01EC0EFD1ECE15DF0561F017FDF8
:1052C0000AC0FE01849164E670E00E9450308C01B7
:1052D0002196892B89F30E94D430C801DF91CF91A8
:1052E0001F910F91FF90EF900895EF92FF920F930F
:1052F0001F93CF93DF937C018B010E940E2F8111AE
:1053000019C0E70101151105A1F08091E80085FDA4
:105310000AC08091E8008E778093E8000E940E2FEB
:10532000882381F307C089918093F100015011090E
:10533000E9CF80E0DF91CF911F910F91FF90EF9027
:1053400008951F93CF93DF93CDB7DEB7AA970FB61B
:10535000F894DEBF0FBECDBFE0E9F5E08091F1002B
:10536000819325E0E839F207C9F7809191058330F0
:1053700009F460C030F4813071F0823009F49AC0D1
:10538000B1C08A3009F486C08B3009F46BC0893013
:1053900009F0A8C020C080919005813A09F0A2C010
:1053A0008091E800877F8093E80080919405909138
:1053B0009505892B21F468E084E895E003C060E05E
:1053C00080E090E070E00E94952F8091E8008B775C
:1053D0008093E80087C080919005813209F082C0F7
:1053E0008091940590919505029708F07BC080917B
:1053F000E800877F8093E8008091E80082FD05C087
:1054000080918E058111F8CF6DC02091F3008091BD
:10541000F20090E0922B029729F48091F1008B7FAB
:10542000813021F48091F100809383058091E80020
:105430008B7754C080919005813A09F053C08091D8
:10544000940590919505892B09F04CC08091E80056
:10545000877F8093E8008091E80080FFFCCF8091F7
:10546000260137C0809190058132E1F58091940545
:1054700090919505892BB1F58091E800877F809305
:10548000E8000E94412F80919205809326010E949E
:10549000462228C080919005813221F58091E80054
:1054A000877F8093E8000E94412F8091930580932D
:1054B000820518C080919005813AA1F48091E8009E
:1054C000877F8093E8008091E80080FFFCCF809187
:1054D00082058093F1008091E8008E778093E80048
:1054E0000E94412F8091E80083FFCCC180919005FC
:1054F00090919105492F50E04A30510508F0C2C102
:10550000FA01EF57FF4F0C947335803821F0823841
:1055100009F0B8C108C080918C0590918D05992340
:1055200089F082600FC0809194058F70873008F0F9
:10553000A9C18093E9008091EB0085FB882780F961
:105540001092E9009091E800977F9093E800809393
:10555000F1001092F10065C1282F2D7F09F092C152
:10556000882319F0823061F08DC1809192058130DD
:1055700009F088C1933009F080E080938D052EC03A
:105580008091920581112AC0809194058F702FEF30
:10559000280F263008F076C18093E9002091EB00B7
:1055A00020FF1CC0933021F48091EB00806214C076
:1055B0009091EB0090619093EB0021E030E0A90125
:1055C00002C0440F551F8A95E2F74093EA001092FB
:1055D000EA008091EB0088608093EB001092E90074
:1055E0008091E800877F20C181114CC11091920504
:1055F0001F778091E3008078812B8093E300809176
:10560000E800877F8093E8000E94412F8091E800A6
:1056100080FFFCCF8091E30080688093E30011114C
:1056200002C082E001C083E080938E052BC18058C8
:10563000823008F027C180919205909193058C3DAE
:1056400053E0950779F583E08A838AE289834FB72F
:10565000F894DE01139620E03EE051E2E32FF0E003
:1056600050935700E49120FF03C0E295EF703F5F35
:10567000EF708E2F90E0EA3010F0C79601C0C09610
:105680008D939D932F5F243149F74FBF8091E800A0
:10569000877F8093E8006AE270E0CE0101960E9465
:1056A000952FAEC04091940550919505292F332731
:1056B00023303105A9F068F42130310509F4F1C037
:1056C0002230310509F0DEC08BE390E0E4EEF6E035
:1056D00044C02132310521F12232310571F1D2C0AD
:1056E000992781309105A1F058F0029709F0CAC0BE
:1056F000E1E3F7E0E4918E2F90E0E1E3F7E02AC0E8
:10570000E9E5F7E0E4918E2F90E0E9E5F7E022C0CB
:10571000E7E4F7E0E4918E2F90E0E7E4F7E01AC0C9
:105720004115510509F4C2C04130510509F0AAC024
:1057300089E090E0EFE0F7E010C04115510509F471
:10574000BAC04130510509F09DC08BE790E0E9E215
:10575000F6E003C0009709F495C02091E800277F88
:105760002093E800209196053091970582179307C2
:1057700008F49C0140E02115310589F180918E05E6
:10578000882309F43DC08530D9F18091E80083FD7C
:1057900037C08091E80082FD2FC08091E80080FF33
:1057A000EACF4091F3008091F20090E0942B211514
:1057B000310559F08830910540F444914093F1004F
:1057C0003196215031090196F2CF41E0089709F056
:1057D00040E08091E8008E778093E800CCCF4111C3
:1057E000CDCF0AC080918E05882351F0853041F0DD
:1057F0008091E80083FD04C08091E80082FFF2CF31
:105800008091E8008B778093E8003CC08038D1F528
:105810008091E800877F8093E80080918F058093D6
:10582000F1008091E8008E778093E8000E94412F7C
:1058300029C0811127C080919205909193059927E5
:10584000029704F58091E800877F8093E80010912B
:10585000920510938F050E94412F111106C080916F
:10586000E30087FD02C081E001C084E080938E05E3
:1058700042E061EC81E00E94602F42E261EC82E054
:105880000E94602F8091E80083FF1AC08091E80099
:10589000877F8093E8008091EB0080628093EB002B
:1058A0000FC082E190E0EFE1F7E057CF89E090E0B0
:1058B000E6EFF6E052CF80E490E0E4EAF6E04DCF88
:1058C000AA960FB6F894DEBF0FBECDBFDF91CF9181
:1058D0001F9108951F920F920FB60F9211242F93CC
:1058E0003F934F935F936F937F938F939F93AF9368
:1058F000BF93CF93DF93EF93FF93C091E900CF70F5
:105900008091EC00D82FD17080FDD0E81092E90092
:105910008091F000877F8093F00078940E94A12905
:105920001092E9008091F00088608093F000CD2B08
:10593000CF70C093E900FF91EF91DF91CF91BF91BC
:10594000AF919F918F917F916F915F914F913F9117
:105950002F910F900FBE0F901F901895E8EDF0E07B
:1059600080818E7F80831092E2001092DA00109284
:10597000E100A0EEB0E08C9181608C9380818F7704
:10598000808319BCA7EDB0E08C918E7F8C938081D1
:105990008F7E8083109281050895CF92DF92EF92DF
:1059A000FF920F931F93CF93DF93C8EDD0E08881D0
:1059B0008F7E8883E7EDF0E080818160808384E0E2
:1059C00082BF81E08093810588818E7F888302EE8B
:1059D00010E0F80110821092DA0081EEC82ED12C6E
:1059E000F601108288818F77888388818068888318
:1059F00088818F7D888319BC10928E0510928F0547
:105A000010928D0510928C0590EEE92EF12CF70185
:105A100080818B7F808388818160888342E060E021
:105A200080E00E94602FF60180818E7F8083F801E4
:105A3000808181608083808188608083F70180819C
:105A40008E7F8083888180618883DF91CF911F91D1
:105A50000F91FF90EF90DF90CF9008951F920F92DB
:105A60000FB60F9211242F933F934F935F936F9331
:105A70007F938F939F93AF93BF93EF93FF93809107
:105A8000E10082FF09C08091E20082FF05C08091A1
:105A9000E1008B7F8093E1008091DA0080FF2AC0D3
:105AA0008091D80080FF26C08091DA008E7F80939D
:105AB000DA008091D90080FF18C080E189BD82E1C1
:105AC00089BD09B400FEFDCF81E080938E058091F1
:105AD000810581110FC00E94AE2C0E94CD2C8091B7
