:100000000C94A0060C94BD060C94BD060C94BD0681
:100010000C94BD060C94BD060C94BD060C94BD0654
:100020000C94BD060C94BD060C94C2200C940420C4
:100030000C94ED170C94BD060C94BD060C94BD06F3
:100040000C94BD060C94BD060C94BD060C94BD0624
:100050000C94BD060C94A0170C94BD060C94BD0620
:100060000C94BD060C94BD060C94BD060C94BD0604
:100070000C94BD060C94BD060C94BD060C94BD06F4
:100080000C94BD060C94BD060C94BD060C94BD06E4
:100090000C94BD060C94BD060C94BD060C94BD06D4
:1000A0000C94BD060C94BD060C94BD060807100701
:1000B000190756078407B307E207110840086F08BD
:1000C000A108D008FF082E095A098C09C1097C0C27
:1000D0007C0CAE0CAE0C230D3F0DD60ED60E4A0D89
:1000E000280E390E390E231E4A1EE21F4A1EE21F39
:1000F000921EB51EE21FA41FB71F07634236B79BAF
:10010000D8A71A39685618AEBAAB558C1D3CB7CC77
:100110005763BD6DEDFD753EF6177231BF000000EF
:10012000803F05A84CCDB2D44EB93836A9020C5048
:10013000B9918688083CA6AAAA2ABE000000803F82
:1001400045018466FFFF00000000090155FFFF2202
:100150000400FFFF290100FFFF370300FFFF5101EB
:1001600000FFFF2B0555FFFF3A0555FFFF490555D9
:10017000FFFF530555FFFFFF00000000090100FFCE
:10018000FF450100FFFFFF0000000000DA0281FFD1
:10019000D9F1DB20A4A62EAF00A0C000A1C800AEFC
:1001A000D580A81FD300408D1420007C014A014057
:1001B0000100001E0F05643214643214783C1E1EC8
:1001C000140A052D2D2D2D2D20003C5343523E2089
:1001D000002D2D2D2D2D2020003C4E554D3E202054
:1001E000002D2D2D2D2D2D2020003C434150533E20
:1001F00020200044564F52414B0041444A5553542D
:100200000A00466E310A004C617965723A004A492B
:100210005328313039290A00414E534932283130B0
:1002200034290A00414E534928313034290A004FFD
:100230005054494D41363135205265762E312E309D
:100240000A4D6F6465203A00000102031221303F1D
:100250004E4F403122130405142332415051423392
:100260002415060716253443443526170809182790
:100270003645463728190A0B1A2938475248392A71
:100280001B0C0D1C2B3A4953544A3B2C1D0E0F1EC0
:100290002D3C4B55564C3D2E1F1011202F3E4D57D7
:1002A00000230000232505010902A101850209019F
:1002B000A1000509190129081500250195087501F6
:1002C00081020501093009311581257F95027508E4
:1002D000810609381581257F950175088106050C71
:1002E0000A38021581257F950175088106C0C00571
:1002F000010980A101850319012AB700150126B75C
:1003000000950175108100C0050C0901A10185044B
:1003100019012AA002150126A0029501751081007D
:10032000C005010906A101050719E029E715002507
:10033000019508750181029501750881010507196C
:100340000029FF150026FF009506750881000508A5
:100350001901290595057501910295017503910112
:10036000C009023B00020100A0FA090400000103D9
:10037000010100092111010001224000070581034C
:100380000800010904010001030000000921110116
:100390000001227B000705820320000112010002F8
:1003A00000000008EDFE1506010001020001140323
:1003B0004F005000540049004D004100360031000C
:1003C0003500000010034C0065006B0069007000F0
:1003D0006F006E0000000403090407087F0807008F
:1003E0003E5B4F5B3E003E6B4F6B3E001C3E7C3ED7
:1003F0001C00183C7E3C18001C577D571C001C5EDE
:100400007F5E1C0000183C180000FFE7C3E7FF00F8
:10041000001824180000FFE7DBE7FF0030483A0629
:100420000E00262979292600407F05050700407F18
:1004300005253F005A3CE73C5A007F3E1C1C080043
:10044000081C1C3E7F0014227F2214005F5F005FA7
:100450005F0006097F017F00006689956A00606081
:100460006060600094A2FFA2940008047E0408006B
:1004700010207E20100008082A1C0800081C2A08EA
:1004800008001E10101010000C1E0C1E0C0030383E
:100490003E383000060E3E0E060000000000000050
:1004A00000005F000000000700070000147F147FB9
:1004B0001400242A7F2A120023130864620036499C
:1004C00056205000000807030000001C22410000D5
:1004D0000041221C00002A1C7F1C2A0008083E083C
:1004E00008000080703000000808080808000000BC
:1004F000606000002010080402003E5149453E00A3
:1005000000427F4000007249494946002141494D5F
:1005100033001814127F10002745454539003C4A26
:10052000494931004121110907003649494936003E
:10053000464949291E000000140000000040340014
:100540000000000814224100141414141400004187
:10055000221408000201590906003E415D594E006F
:100560007C1211127C007F49494936003E414141CD
:1005700022007F4141413E007F49494941007F09B6
:10058000090901003E41415173007F0808087F00BE
:1005900000417F4100002040413F01007F081422BC
:1005A00041007F40404040007F021C027F007F04EA
:1005B00008107F003E4141413E007F0909090600C5
:1005C0003E4151215E007F091929460026494949CB
:1005D000320003017F0103003F4040403F001F20E5
:1005E00040201F003F4038403F0063140814630060
:1005F0000304780403006159494D4300007F4141E1
:100600004100020408102000004141417F00040223
:100610000102040040404040400000030708000081
:100620002054547840007F284444380038444444DF
:100630002800384444287F003854545418000008D7
:100640007E09020018A4A49C78007F0804047800A6
:1006500000447D4000002040403D00007F102844C1
:10066000000000417F4000007C04780478007C0892
:1006700004047800384444443800FC18242418004A
:1006800018242418FC007C0804040800485454541E
:10069000240004043F4424003C4040207C001C20F3
:1006A00040201C003C4030403C00442810284400BE
:1006B0004C9090907C004464544C440000083641B7
:1006C0000000000077000000004136080000020131
:1006D000020402003C2623263C000000000000002B
:1006E000404040F0F8F8FF38FFF8F83FF8F8FF38DE
:1006F000FFF8F8F040404000000000000080C0C05B
:10070000C0800000C0C08000000080C0C000C0C029
:10071000000080C0C00000000000C0C0C0C0C00019
:10072000C0C0000000000000000000000000000049
:1007300000000000000000000000000000000000B9
:1007400000000000000000000000000000000000A9
:10075000000000000000000000C0F0F8FC3E1E0693
:10076000010000007F4141417F007F4141417F0006
:100770000080C0E07E5B4F5BFEC00000C000DCD7A5
:10078000DEDEDED7DC00C00000000000000000005C
:100790000000000000000000000000000000000059
:1007A000494949FFFFFFFFE0DFBFBF00BFBFDFE0F8
:1007B000FFFFFFFF49494900000000001F3F606044
:1007C000E0BF1F007F7F071E381E077F7F007F7FEF
:1007D0000E1F3B716000000000007F7F0C0C0C00BE
:1007E0007E7E007F7E0303007F7E03037E7E030305
:1007F0007F7E000F3E703C063C703E0F00327B490E
:10080000493F7E007F7E0303001E3F69696F26001B
:10081000000000000000000000030F1F3F3C787044
:10082000600000007F4141417F007F4141417F00E6
:10083000307B7F7830202030787F3B0003000F7FB3
:100840000F0F0F7F0F0003000000000000000000EA
:100850000000000000000000000000000000000098
:10086000010101070F0F7F0F7F0F0F7E0F0F7F0F0B
:100870007F0F0F07010101000000000000000000D1
:100880000001010000000000000000000000000066
:100890000000000000000000000000000000000058
:1008A0000000000000000000000000000000000048
:1008B0000000000000000000000000000000000038
:1008C0000000000000000000000000000000000028
:1008D0000000000000000000000000000000000018
:1008E0000000000000000000000000000000000008
:1008F00000000000000000000000000000000000F8
:1009000000000000000000000000000000000000E7
:100910000000000000000000000029002B00E000A3
:100920008B6249001F0036001200140035042100BC
:10093000130018000E002C0039002A0028001A01AC
:10094000650024000A000B0010002C722600150020
:10095000110019004A002F002D00380031004D0011
:1009600046442A004C0049008A711E0034000400ED
:100970003300E3002000370008000D00E2002200F1
:100980001C000C001B00E00023000900070005000C
:100990008B432500060017001A00E60027000F0011
:1009A00016001D00520030002E008A7228714B0084
:1009B00000004E004F005100500029002B00E000C5
:1009C000E10049001F003600120014003504210028
:1009D000130018000E002C0039002A0028001A010C
:1009E000650024000A000B0010002C722600150080
:1009F000110019004A002F002D00380031004D0071
:100A000046442A004C004900E4001E003400040063
:100A10003300E3002000370008000D008B64220043
:100A20001C000C001B00E00023000900070005006B
:100A300003512500060017001A008A7427000F00D2
:100A400016001D00520030002E00E50028714B00FA
:100A500000004E004F005100500001000100010055
:100A600001000100B05D0100010001000100010072
:100A70000100010001000100BE5D01000100010054
:100A80000100B25D0100010001000100B45D010040
:100A9000010001000100B85DB65D0100BA5D010012
:100AA000464401000100010001000100BC5D01009D
:100AB000BB5D010001000100010001000100010017
:100AC0000100010001000100B15D01000100010011
:100AD0000100B35D0100010001000100B55D0100EE
:100AE000010001000100B95DB75D010001000100D6
:100AF0000000010001000100010035002B00010091
:100B0000010001003B00400051001B0101003D00BD
:100B100042004F001901010049004C0001003D1442
:100B2000010040000000520051000100420000009E
:100B30005F005C0059004400000061005E005B0043
:100B400046000100560054004E003A003F0050009D
:100B50001D0101003C0041005200060101003E0061
:100B600043000000000001003F0000004A00500068
:100B70000100410000004D004F004B004300000009
:100B800060005D005A004500000057725871550022
:100B900000002E006300AF5D6200AE5D000000004B
:100BA000010001000000C65CC75C000001000000FD
:100BB000CA5CCB5C00000052530000000152005C94
:100BC000010000000000A800000002520000000028
:100BD000A900000000004700000000000000000025
:100BE00001000000A600000000000000BD00BE00E3
:100BF000000001000000C85CC95C000001000000AA
:100C0000C45CC55CC35C0100000000000000000083
:100C1000010000000000AA000000010046000000E2
:100C2000000000000000480000000100010000007A
:100C300000000000000000000000000101010101AF
:100C40000101010102020202020202020203030385
:100C50000303030303040404040404040505050555
:100C60000506060606060707070707080808080915
:100C70000909090A0A0A0B0B0B0C0C0C0D0D0D0EC1
:100C80000E0E0F0F0F101011111112121313141456
:100C9000151516161717181819191A1A1B1B1C1DCB
:100CA0001D1E1E1F20202122222324242526262724
:100CB0002829292A2B2C2D2D2E2F30313232333456
:100CC00035363738393A3B3C3D3E3F40414243445C
:100CD00045464748494A4C4D4E4F5051535455563E
:100CE00058595A5B5D5E5F616264656668696B6CEA
:100CF0006D6F7072737577787A7B7D7E8082838565
:100D000087888A8C8E8F91939596989A9C9EA0A2A4
:100D1000A3A5A7A9ABADAFB1B3B5B7BABCBEC0C2AE
:100D2000C4C6C9CBCDCFD1D4D6D8DBDDDFE2E4E772
:100D3000E9EBEEF0F3F5F8FAFDFFFFAA7F5540006E
:100D400011241FBECFEFDAE0DEBFCDBF11E0A0E07F
:100D5000B1E0E2E4FBE602C005900D92AE3AB107C5
:100D6000D9F727E0AEEAB1E001C01D92A03BB2077F
:100D7000E1F70E94B30F0C949F350C940000AAE099
:100D8000B0E0E5ECF6E00C94B830FC018081918194
:100D900023813481232B31F09F3F31F491E08F3F49
:100DA00019F403C091E001C090E090FF02C00C94E0
:100DB000AF0F7F0185E0DE01169601900D928A95B6
:100DC000E1F7D70112962C918E819F81222349F061
:100DD0000E94302D182F682F8E819F810E94AE2D8A
:100DE00003C00E94792D182F6E817F81812F0E9470
:100DF000FE218C01FC01EE5AFD45E131F10508F0C0
:100E0000FAC2EA5AFF4FD70112968C910C947035B2
:100E1000882309F4FDC40E9428278091E404BFC2FE
:100E20008111F6C482E60E94882F82E60E94882FF4
:100E3000EFC4882309F4ECC48091220791E0382F95
:100E4000327081FF90E09093B10191E0282F2072E1
:100E500085FF90E09093B001311103C0211104C0CF
:100E600020C081EE0E94812E8091B001882319F06C
:100E700085EE0E94812E8FE20E94E42E8FE20E9476
:100E8000812E8091B101882319F081EE0E94E42E19
:100E90008091B001882309F4BBC485EE0E94E42E42
:100EA000B7C48FE10E94E42E8FE12BC0882309F4A0
:100EB000AFC48091220791E0382F327081FF90E01B
:100EC0009093B10191E0282F207285FF90E09093DC
:100ED000B001311103C0211104C00FC081EE0E9486
:100EE000812E8091B001882319F085EE0E94812E19
:100EF0008EE20E94E42E8EE2C2CF83E20E94E42EB4
:100F000083E20E94812E84C4882309F481C48091E5
:100F1000220791E0382F327081FF90E09093B10169
:100F200091E0282F207285FF90E09093B00131115D
:100F300003C0211104C012C081EE0E94812E809155
:100F4000B001882319F085EE0E94812E81EE0E9467
:100F5000E42E83E20E94E42E83E207C284E20E9430
:100F6000E42E84E2CECF882309F452C48091220774
:100F700091E0382F327081FF90E09093B10191E0C1
:100F8000282F207285FF90E09093B001311103C0AB
:100F9000211104C012C081EE0E94812E8091B00107
:100FA000882319F085EE0E94812E81EE0E94E42EA6
:100FB00084E30E94E42E84E3D8C185E20E94E42EFB
:100FC00085E29FCF882309F423C48091220791E012
:100FD000382F327081FF90E09093B10191E0282F7B
:100FE000207285FF90E09093B001311103C0211170
:100FF00004C012C081EE0E94812E8091B00188232E
:1010000019F085EE0E94812E81EE0E94E42E85E289
:101010000E94E42E85E2A9C186E20E94E42E86E2C7
:1010200070CF882309F4F4C38091220791E0382F10
:10103000327081FF90E09093B10191E0282F2072EF
:1010400085FF90E09093B001311103C0211104C0DD
:1010500012C081EE0E94812E8091B001882319F088
:1010600085EE0E94812E81EE0E94E42E86E20E948F
:10107000E42E86E27AC187E20E94E42E87E241CF25
:10108000882309F4C5C38091220791E0382F32707C
:1010900081FF90E09093B10191E0282F207285FFAD
:1010A00090E09093B001311103C0211104C012C02F
:1010B00081EE0E94812E8091B001882319F085EE87
:1010C0000E94812E81EE0E94E42E87E80E94E42E89
:1010D00087E84BC18DE20E94E42E8DE212CF882377
:1010E00009F496C38091220791E0382F327081FF76
:1010F00090E09093B10191E0282F207285FF90E05D
:101100009093B001311103C0211104C012C081EECF
:101110000E94812E8091B001882319F085EE0E94F3
:10112000812E81EE0E94E42E83E30E94E42E83E36D
:101130001CC181EE0E94E42E8DE20E94E42E8DE21D
:101140002AC1882309F464C38091220791E0382FD3
:10115000327081FF90E09093B10191E0282F2072CE
:1011600085FF90E09093B001311103C0211104C0BC
:1011700012C081EE0E94812E8091B001882319F067
:1011800085EE0E94812E81EE0E94E42E80E30E9473
:10119000E42E80E3EAC080E30E94E42E80E3B1CE37
:1011A000882309F435C38091220791E0382F3270EB
:1011B00081FF90E09093B10191E0282F207285FF8C
:1011C00090E09093B001311103C0211104C012C00E
:1011D00081EE0E94812E8091B001882319F085EE66
:1011E0000E94812E81EE0E94E42E82E30E94E42E72
:1011F00082E3BBC082E30E94E42E82E382CE882396
:1012000009F406C38091220791E0382F327081FFE4
:1012100090E09093B10191E0282F207285FF90E03B
:101220009093B001311103C0211104C012C081EEAE
:101230000E94812E8091B001882319F085EE0E94D2
:10124000812E81EE0E94E42E89E80E94E42E89E836
:101250008CC087E80E94E42E87E853CE882309F4E7
:10126000D7C28091220791E0382F327081FF90E041
:101270009093B10191E0282F207285FF90E0909328
:10128000B001311103C0211104C00FC081EE0E94D2
:10129000812E8091B001882319F085EE0E94812E65
:1012A00084E30E94E42E84E3EACD83E30E94E42EEB
:1012B00083E327CE882309F4ABC28091220791E013
:1012C000382F327081FF90E09093B10191E0282F88
:1012D000207285FF90E09093B001311103C021117D
:1012E00004C012C081EE0E94812E8091B00188233B
:1012F00019F085EE0E94812E81EE0E94E42E8FE18E
:101300000E94E42E8FE131C081EE0E94E42E84E23F
:101310000E94E42E84E23FC0882309F479C28091C0
:10132000220791E0382F327081FF90E09093B10155
:1013300091E0282F207285FF90E09093B001311149
:1013400003C0211104C015C081EE0E94812E80913E
:10135000B001882319F085EE0E94812E81EE0E9453
:10136000E42E8FE20E94E42E8FE20E94812E81EE15
:1013700086CD81EE0E94E42E8EE20E94E42E8EE263
:101380000AC0882309F444C281EE0E94E42E89E356
:101390000E94E42E89E30E94812E81EEB2CD81600D
:1013A0008093E40461E0869523C0F7018281811176
:1013B00051C00631BCE51B0709F4C8C180916C0718
:1013C00082720D3CACE51A0709F4B4C508F433C2C7
:1013D000023DACE51A0709F4BAC508F00DC20F3C8E
:1013E000ECE51E0709F4ADC508F045C561E081E0F4
:1013F0000E9497280DC2843FFCE59F0799F406E2FE
:1014000021EE40EE64EF7CE509C0083D9CE519073C
:1014100061F606E221EE41EE68ED7CE5C7010E942F
:101420007618F6C1853F2CE5920708F05BC1893D2F
:101430009C4531F407E225EE45EE69ED7CE5EECF03
:101440000A3D8CE5180709F708E221E045EE6AED50
:101450007CE5E4CF1092F1040430FDE51F0758F459
:101460000B3F2CE5120780F4C80182509C4544973D
:1014700008F056C109C002363DE5130729F0063AC7
:101480008DE5180709F04CC10E94B1239093C40167
:101490008093C30101319CE5190709F4C9C008F024
:1014A00043C00930BCE51B0709F49EC008F50530B0
:1014B000FCE51F0709F488C080F403303CE51307FE
:1014C00009F47BC008F07DC002309CE5190709F0E3
:1014D000F9C08091C3018160F3C00730ACE51A0701
:1014E00009F47AC008F07CC08091C3018061E8C033
:1014F0000D30ECE51E0709F489C058F40B302CE5DB
:10150000120709F47BC008F07DC08091C301886098
:1015100071C00F308CE5180709F482C008F084C050
:101520008091C301877FCCC00E3FACE51A0709F458
:1015300073C008F50531ECE51E0709F487C068F4AF
:1015400003312CE5120709F477C008F097C00E9418
:10155000642E8091C3018F77B3C00C3F8CE51807D0
:10156000B9F108F056C00B3FACE51A0709F0AAC064
:101570008091C40141C00230BDE51B0709F48AC057
:1015800058F40115FDE51F0709F45BC008F06AC0B7
:101590008091C401826030C002363DE5130709F432
:1015A0007FC0063A8DE5180709F484C003309DE535
:1015B000190709F087C060E06EC08091C3018260A6
:1015C0007FC08091C30116C08091C301886078C03C
:1015D0008091C40182604FC08091C301806270C05D
:1015E0008091C30180646CC00E94642E8091C3010D
:1015F000806866C0846064C081603DC08091C30122
:101600008E7F5EC08091C3018D7F5AC08091C301DF
:1016100016C08091C40118C08091C4018D7F2BC079
:101620008091C3018F7E4CC08091C3018F7D48C0E3
:101630008091C3018F7B44C08091C301877F8B7FE2
:101640003FC08091C4018D7F8E7F15C08091C30102
:1016500082FB222720F991E0922790FB82F990FBF0
:1016600083F92EC08091C401982F909591708E7F40
:10167000892B90FB81F98093C40124C00E94642EC1
:101680008091C30187FB222720F991E0922790FBEC
:1016900087F916C061E08EE090E00E94623112C0CE
:1016A0008091C30184FB222720F991E0922790FBCF
:1016B00084F906C08091C301982F909590FB80F922
:1016C0008093C3016091C3011091C40184E090E054
:1016D0000E946231612F82E290E00E9462310E949A
:1016E000642E96C0863FACE59A0731F406E221EEFF
:1016F00042EE66EF7CE592CE863FBCE59B0730F478
:1017000007E225EE44EE65EF7CE588CE873F9C45F9
:1017100009F04BCE07E225EE46EE67EF7CE57ECE84
:101720000631FCE51F07F9F480916C078A7A91E095
:1017300009F490E09093B201882311F065E301C0B1
:1017400069E282E297E00E9423180AC08091B20108
:10175000882309F45BC365E382E297E00E941618D0
:101760000E943B2455C00B353DE5130709F43EC0EC
:1017700060F401159CE5190791F00F3DACE51A07DF
:1017800009F06CC00E94C22326C00D35BDE51B07C1
:1017900029F170F1083AFDE51F07E9F05FC00E94EA
:1017A000642E0FEF14E32CE0015010402040E1F7CD
:1017B00000C0000087E797E7909301088093000836
:1017C0009AE088E10FB6F894A895809360000FBE68
:1017D00090936000FFCF0E94502B1AC08091C401EB
:1017E00082FB882780F991E0892703C081E001C04E
:1017F00080E00E94942432C0053D8CE5180709F46E
:10180000A9C308F04DC3033DACE51A0709F040C376
:1018100080916207877009F4A2C3D70112968C9158
:10182000882309F49CC38091C40182FF98C382E09D
:101830000E94772494C3073CECE51E0709F466C3B5
:1018400008F0F5C2043C2CE5120709F455C308F072
:10185000DFC2033C8CE5180709F42FC3D7011296A9
:101860008C9112970D911C91882349F0C8010E9418
:10187000302DD82E682FC8010E94AE2D04C0C8019B
:101880000E94792DD82EB8018D2D0E94FE210E9434
:1018900017228C01982EF701D280A580A2949FE098
:1018A000A922809162078770B9F0DD20A9F0812F0D
:1018B000807F803421F080E2800F883068F0809152
:1018C000C40182FF09C082E00E94772480916207F0
:1018D0008770CC24C3948111C12CB12EB2948FE0B7
:1018E000B8228B2D90E08C30910508F05FC2FC018E
:1018F000E959FF4F0C947035812F807F1F7088232A
:1019000011F01295107FDD20B9F0112309F43BC2CC
:1019100080E2800F883010F0911006C080916C0733
:10192000182B10936C0705C080916B07182B109330
:101930006B070E943B2427C2802F0E94812E112317
:1019400009F434C2005E083078F1992069F11095ED
:1019500080916B07182310936B0729C0812F807F1C
:101960001F70803211F01295107F992021F0F1E064
:101970009F16D9F149C08091C40182FD1BC0DD20B2
:1019800069F0112339F080916C07182B10936C07C4
:101990000E943B2480E00E94E42E08C280E00E9466
:1019A000812E112309F402C2812F0E9434240E9447
:1019B0003B24FCC1DD2081F080916D07AA2051F00D
:1019C00001E0A01207C0182B181709F4EFC11093FB
:1019D0006D07ECC1812B10C0AA2021F021E0A216D6
:1019E00009F4E4C10E942E242AC0DD2041F035E034
:1019F0003A1508F4DBC1812F0E94772ED7C184E00D
:101A00008A1508F4D3C11BC0DD2061F0AA2099F328
:101A1000D70115968C91159780FFB5C18F701596DB
:101A20008C93E9CFAA2059F0093309F0BCC1BFEF6C
:101A3000E7EEF3E0B150E040F040E1F7B2C1812FB2
:101A40000E94702EB3C1812F86958695837019F000
:101A5000813059F0ABC1DD2019F0C801937002C08C
:101A600080E090E00E945318A9C1DD2019F0C80160
:101A7000937002C080E090E00E943D189FC1802FCB
:101A8000DD2019F00E94DE2902C00E9425290E9453
:101A9000392A94C1812F837009F069C0D1108AC19D
:101AA000902F929596959770990F990F802F8F7020
:101AB000882E912CA12CB12C092E04C0880C991CC5
:101AC000AA1CBB1C0A94D2F704FF12C04FE050E0DE
:101AD00060E070E004C0440F551F661F771F9A95A1
:101AE000D2F7DB01CA0180959095A095B09503C00F
:101AF00080E090E0DC0116951695412F437042304E
:101B000019F1C8F40091F0011091F1012091F20156
:101B10003091F301413059F088299929AA29BB292C
:101B2000BC01CD0160237123822393230AC0802A44
:101B3000912AA22AB32ABC01CD01682979298A29D0
:101B40009B290E94392E36C188299929AA29BB29A7
:101B50000091F0011091F1012091F2013091F30117
:101B6000BC01CD016027712782279327EACFDD20B2
:101B700019F0812F817001C08695882309F41AC15C
:101B8000902F929596959770990F990F802F8F703F
:101B9000882E912CA12CB12C092E04C0880C991CE4
:101BA000AA1CBB1C0A94D2F704FF12C04FE050E0FD
:101BB00060E070E004C0440F551F661F771F9A95C0
:101BC000D2F7DB01CA0180959095A095B09503C02E
:101BD00080E090E0DC0116951695412F437042306D
:101BE000D9F068F50091EC011091ED012091EE0122
:101BF0003091EF01413059F088299929AA29BB2950
:101C0000BC01CD0160237123822393231EC0802A4F
:101C1000912AA22AB32A13C088299929AA29BB2963
:101C20000091EC011091ED012091EE013091EF0156
:101C3000BC01CD01602771278227932706C0BC0114
:101C4000CD01682979298A299B290E94E42DB2C0F7
:101C50001F70DD2039F0812F0E94172E802F0E94E7
:101C6000772EA8C0802F0E94702E812F0E94F12D08
:101C7000A1C0802F22EF921609F443C0291538F035
:101C800030EF931659F091EF9916B1F177C0A3EFA9
:101C90009A16F1F1B4EF9B1659F170C0DD2019F1DD
:101CA000E4E0EA1508F482C01F7181E090E0A0E052
:101CB000B0E0AC01BD0104C0440F551F661F771F83
:101CC0001A95D2F78091EC019091ED01A091EE016F
:101CD000B091EF018A019B01082719272A273B278A
:101CE000C901B80129C025E02A1508F45FC0DCCF7E
:101CF0008091C40182FD23C0DD2029F0812F8F71E6
:101D000030C0DD20D9F3812F8F710E94F12D4EC09C
:101D1000DD2079F01F7181E090E0A0E0B0E0BC012F
:101D2000CD0104C0660F771F881F991F1A95D2F73F
:101D300003C060E070E0CB010E94E42D37C0DD20DD
:101D400099F01F71812F0E94172E8091C40182FF8C
:101D500007C038E0139FC00111248360809362079D
:101D6000812F0E94172E22C081E00E94772481E0FB
:101D70008A15E0F482E00E94772418C0DD2029F063
:101D8000AA2009F4BBCF802F06CEAA2009F4BBCF2E
:101D9000893349F49FEFA7EEB3E09150A040B040E3
:101DA000E1F700C00000802F0E94812E88EF8B0D8C
:101DB000843020F40E9469180E94F02BCC20A9F0F6
:101DC0008091620780FD11C0F7011282859585958B
:101DD00085950E94172EC7010E94BF068091620759
:101DE0008595859585950E94F12D85E0F701DE01A9
:101DF000119601900D928A95E1F709811A81C80127
:101E00000E94792DB8010E94FE21A9C069E2A4CCEC
:101E1000053C9CE5190709F474C0063CACE51A07BB
:101E200009F01CCD44E858E263E978E287C00A3C37
:101E3000BCE51B0709F474C078F4083CFCE51F07F7
:101E400009F469C0093C2CE5120709F007CD4CE6FE
:101E500058E26FE578E272C00B3C3CE5130709F4E9
:101E600064C00C3C9CE5190709F0F8CC44E057E24B
:101E700066E177E263C0003D2CE5120709F464C017
:101E8000013D3CE5130709F0E9CC6EE089E064C050
:101E9000043DBCE51B0709F0E1CC61E085E1A8CA7F
:101EA000063DECE51E0709F4B3CC0E35FDE51F0732
:101EB00009F0D4CC65E280E24FC08091E40480FF59
:101EC0006ECA8E7F8093E4046091E4047091E5040F
:101ED0008091E6049091E7040E94F126109221027D
:101EE0000FEF10E722E0015010402040E1F700C062
:101EF00000000E9480198CCC45EF58E26FEF78E229
:101F00001DC04FEF58E265EF78E218C043E958E290
:101F100064E878E213C04FE558E26CE678E20EC060
:101F200045E458E262E578E209C042E558E265E43A
:101F300078E204C046E157E264E077E20E94631968
:101F400067CC65E082E008C068E086E005C064E137
:101F50008FE002C06FE186E10E944F1959CC2A96AA
:101F6000ECE00C94D430CF93DF93CDB7DEB762971B
:101F70000FB6F894DEBF0FBECDBF85B7806885BFB2
:101F800085B7806885BF84B7877F84BF0FB6F89414
:101F9000A895809160008861809360001092600035
:101FA0000FBE90E080E80FB6F894809361009093A4
:101FB00061000FBE89E991E29093AF018093AE0179
:101FC0000E9448200E9467208091E20084608093F4
:101FD000E200789480910D058823A1F01091E9002A
:101FE0001F709091EC00892F817090FD80E8182B74
:101FF0001092E9008091E80083FD0E94421D1F704D
:102000001093E90082E084BD93E095BD9AEF97BDFF
:1020100080936E00A9E2B1E029E331E0AD0101E077
:1020200010E0FA018191AF01E82FE295EF70F0E046
:1020300061A18F70580102C0AA0CBB1C8A95E2F7FF
:10204000C5019A2D9095962391A392A1892B82A3E5
:102050002417350731F749E351E06EE371E08A0157
:10206000EE24E394F12CF80181918F01E82FE295A1
:10207000EF70F0E0D1A08F70570102C0AA0CBB1C1A
:102080008A95E2F7C5019A2D90959D2191A392A181
:10209000892B82A36017710731F701E010E0FA0184
:1020A0008191AF01E82FE295EF70F0E0F1A08F7021
:1020B000580102C0AA0CBB1C8A95E2F7C5019A2DF3
:1020C00090959F2191A392A1892B82A364177507F4
:1020D00031F761E070E08D91E82FE295EF70F0E06C
:1020E00041A18F706B0102C0CC0CDD1C8A95E2F718
:1020F000C6019C2D9095942391A392A1892B82A334
:102100002A173B0741F7E3EBF1E0A7ECB1E01192AE
:102110001D9201E0E33CF007D1F780E090E00E94DF
:102120005C31883E9E4F11F00E94C22382E090E015
:102130000E944E318093D7010E94B1239093C40135
:102140008093C30183E090E00E944E31682F70E0DD
:1021500080E090E00E94392E6091EC017091ED01D9
:102160008091EE019091EF010E94662B1092140273
:1021700080E8809317050E94A72F6DE070E08EE93C
:1021800091E00E94F11C892B09F043C08091140258
:1021900063E070E081FD3AC08BE991E00E94F11CA0
:1021A000892BB9F56DE070E08BE891E00E94F11C9D
:1021B000892B79F50E94D517DC01CB0188579C4EFD
:1021C000AF4FBF4F8093E9049093EA04A093EB04D0
:1021D000B093EC04EAE1F5E080E092E0DF018C01ED
:1021E0001D9201501040E1F7F0932107E093200782
:1021F0008FEF9FEF909319058093180581E08093EE
:10220000EE048093ED041092150203C088E991E07A
:10221000C5CF8091C501811136C080E090E00E9459
:102220005C31883E9E4F21F00E94C2230E942827E5
:1022300088E090E00E9456316093E4047093E504D6
:102240008093E6049093E7046E7F71F40E94282740
:1022500088E090E00E9456316093E4047093E504B6
:102260008093E6049093E7040E94D72610922102FF
:102270008091E40480FF04C060E086950E94972866
:1022800081E08093C50181E08093EA0184988C9A73
:1022900085988D9A8FE891E00197F1F700C00000D2
:1022A0003091EA01EBEEF1E020E0231761F08FB10D
:1022B000829581707D9902C090E001C092E0892BE7
:1022C00081932F5FF2CF8BEA91E090931902809374
:1022D000180283E08093250188E58093260185E537
:1022E0008093270183E00E94D42B9FEFA3ECB9E0F9
:1022F0009150A040B040E1F700C0000080E00E9493
:10230000D42B84E091E09093F5048093F40422248C
:102310002394312C80910D05853009F085C040E46F
:10232000F42EEE24E39400E112E180910D05853056
:1023300009F05DC080910D05843009F446C00E940B
:10234000DF1880E00E94F02B10922102809117028A
:10235000811116C0E09217028091E404982F9170C9
:102360009093C6018E7F8093E404EFEFF0E722E0C4
:10237000E150F0402040E1F700C000000E948019C9
:102380000E94DF181092F80488E190E00FB6F894EC
:10239000A895809360000FBEF092600083B7817FA4
:1023A000846083BF83B7816083BF7894889583B747
:1023B0008E7F83BF0FB6F894A895809160008861E6
:1023C00080936000109260000FBE80910C058823FE
:1023D00009F4ABCF0E94FC2BE7ECF1E08191811175
:1023E000DCC3A7EDB1E0AE17BF07C1F79ECF0E94D7
:1023F000642E0E9469180E94F02B1092170280919F
:10240000C601882351F08091E40481608093E40444
:1024100060E086950E94972805C080912202811174
:102420000E9480190E946A190E94FC2BC82E8111FB
:102430000E94D517E8EDF1E0A7ECB1E000E010E074
:10244000302F2D919191922721F180E0FF24F39478
:102450004F2D4923D1F08F8338872F2181E009F454
:1024600080E089870E94E1178160782F9B878A87A7
:102470004F81588569858B850E94632AF801E8524F
:10248000FE4F8081F826F08219C08F5FFF0C8530E7
:10249000F9F60F5F1F4F0031110591F68FEF8C8712
:1024A0008D871E860E94E1178160782F988B8F8719
:1024B0004C855D856E8588890E94632A8091210202
:1024C000882309F484C080912002E091E404E69519
:1024D000E81BE0931C02823059F4F0E0E154FE4F17
:1024E000E4910E2F10E038EAE32E36E1F32E4AC0D5
:1024F000863059F4F0E0E454FE4FE4910E2F10E0E2
:1025000022E7E22E26E1F22E3DC0893061F4E69505
:10251000F0E0E754FE4FE4910E2F10E097E2E92E31
:102520009CE1F92E2FC08F3061F4E695F0E0EA547B
:10253000FE4FE4910E2F10E084EBE82E8BE1F82E95
:1025400021C0853191F08032B9F48E2F63E00E9472
:102550004235E92FF0E0ED54FE4FE4910E2F10E0EC
:10256000BBE5EB2EBAE1FB2E0DC008E210E0ACE2B9
:10257000EA2EABE1FA2E06C000ED17E0F1EFEF2EE8
:10258000F5E1FF2E80911D02882361F010921D025B
:102590000E94E11790931B0280931A0210921F026F
:1025A00010921E020E94E117E0911A02F0911B02A4
:1025B0008E1B9F0B8F3F9F4750F40E0F1F1F1093D2
:1025C0001B0200931A028AE192E0F7010995B12CEF
:1025D000D12C8091EA01B81608F083C00B2D10E0D1
:1025E000EFB1E295E1707D9902C090E001C092E008
:1025F0008E2F892BD801A551BE4FEC912E2F237021
:1026000030E0482F082E000C550B2417350709F42D
:1026100066C0EE0FEE0FE82BEC93EF70F0E0E25C9B
:10262000FE4F980127513E4F79019081D9018C913D
:10263000890F8C93823004F1F801E851FE4F8081BC
:102640008F5F8083B1101AC06091EC017091ED0131
:102650008091EE019091EF010E94002B833031F0C8
:10266000843031F480E00E94882808C08BEF01C0DC
:102670008AEF0E94882F02C020E001C021E0F7010C
:1026800080818F3F04F5F801E851FE4F8081815031
:102690008083B11017C06091EC017091ED018091C1
:1026A000EE019091EF010E94002B833031F08430D5
:1026B00031F480E00E94792805C08CEF01C089EFD9
:1026C0000E94882F21E0D7018C91082E000C990BD5
:1026D00062E070E00E945C35F7018083D22AB394F7
:1026E00078CFD1100E94D5178091EE04882309F489
:1026F00068C18AE195E090932107809320078FE2DB
:1027000092E00E94E31C6091F0017091F1018091D0
:10271000F2019091F3010E94002B813049F028F0E2
:10272000823051F48EE092E005C084E292E002C073
:1027300088E192E00E94E31C87E092E00E94E31CA3
:102740006091EC017091ED018091EE019091EF01AB
:102750000E94002B833029F0843041F48AEF91E00D
:1027600002C082E092E00E94E31C07C083EF91E088
:102770000E94E31C81E00E941F190E94691881FDDC
:1027800003C081EE91E002C08AEE91E00E94E31C5A
:102790000E94691880FD03C081ED91E002C089EDBF
:1027A00091E00E94E31C0E94691882FD03C083EC43
:1027B00091E002C08AEC91E00E94E31C8091EE045B
:1027C000882309F4E3C020911805309119052115DB
:1027D000310509F4DBC0809115028111D7C0482E64
:1027E000512C7101082E02C0EE0CFF1C0A94E2F776
:1027F000A9014E215F21452B11F48F5FF0CF9091FD
:1028000014029201E5E0220F331FEA95E1F790FDF3
:1028100012C08295880F807680931201220F232F99
:10282000221F330B319520931501815E8093130194
:102830001092160112C065E0369527956A95E1F76A
:10284000220F220F220F2093120110921501295FEF
:102850002093130183E08093160124E630E047E0E3
:1028600050E060E171E088E70E945230892B09F066
:102870008DC08091140280FD23C0C20155E0880FF5
:10288000991F5A95E1F7AC01465E5A4F04E610E0F5
:1028900020E230E060E488E70E947330892B09F081
:1028A00075C00E94F918E094F094809118059091F9
:1028B0001905E822F922F0921905E092180566C080
:1028C00080E2E4EFF1E0DF011D928A95E9F745E04F
:1028D000440C551C4A95E1F7E2E5F1E0FA8BE98BEF
:1028E0006EE471E0A989BA898D91BA8BA98BFB013D
:1028F0009191BF01A201490F511D465E5A4F90E0D0
:102900008C509E4FFC0137E0A32E9F01281B390BF2
:10291000822C01C0880C2A95EAF78A01912CD801F3
:10292000BD908D01B8202A2D29192770722E022EF4
:10293000000C330BBB2D01C0BB0F7A94EAF77B2E42
:102940003195219531092770332701C0B6942A9516
:10295000EAF77B28B0807B287082939428E0B22E1F
:102960009B10DDCFAA9431960FEFA012CECF26E5B3
:1029700031E089899A892817390709F0B3CF04E62D
:1029800010E020E230E044EF51E084CF8091ED048C
:102990008823B9F00E94D5170091E9041091EA0448
:1029A0002091EB043091EC04DC01CB01801B910BF6
:1029B000A20BB30B8F3F9F4FAF4FBF4710F40E9446
:1029C000DF18C11001C0D1100E94F91886E0E5E7B8
:1029D000F7E0DE01119601900D928A95E1F71092D1
:1029E0007707109278071092790710927A078B81F7
:1029F000811104C08C81882309F453C0809173072E
:102A0000909174070E94C6179C0190916F079923BB
:102A100009F4D9C02531310508F443C09F3F19F0AE
:102A20009F5F90936F071B81112361F00E94BE2965
:102A3000111614F09FEF01C091E0899F802D1124A1
:102A4000809377071C81112361F00E94BE29111623
:102A500014F09FEF01C091E0899F802D1124809395
:102A60007807309177073323E1F02091780722230C
:102A7000C1F005EB3003C0011124992319F09093A4
:102A8000770703C081E08093770715EB2103C0012E
:102A90001124992319F09093780703C081E0809363
:102AA00078078D81811104C08E81882309F453C079
:102AB00080917107909172070E94C6179C019091B6
:102AC0006E07992309F484C02135310508F443C009
:102AD0009F3F19F09F5F90936E071D81112361F056
:102AE0000E949C29111614F09FEF01C091E0899F6C
:102AF000802D1124809379071E81112361F00E949B
:102B00009C29111614F09FEF01C091E0899F802D40
:102B1000112480937A07309179073323E1F02091D3
:102B20007A072223C1F045EB3403C0011124992315
:102B300019F09093790703C081E08093790705EB42
:102B40002003C0011124992319F090937A0703C040
:102B500081E080937A0746E050E0BE016F5F7F4FCF
:102B600085E797E00E949235892B11F00E94392A5F
:102B700086E0FE013196A5E7B7E001900D928A95B7
:102B8000E1F70E94691890911602891709F4C2CBE7
:102B9000809316020E94F02BBDCB09BD19BD09B46C
:102BA00000FEFDCF8091D8008F7D8093D80080916A
:102BB000E00082608093E0008091E00081FDFCCF26
:102BC0000E94642EB2CB2B30310508F029CF69CF9B
:102BD0002B30310508F07ECFBECF089580910205DD
:102BE000089508958093FD047093FF046093FE049C
:102BF00080910D05843001F582E08093E9008FEF2C
:102C00009091E800815095FD06C095ED9A95F1F7F9
:102C100000008111F5CF8091E80085FF0DC040E0F4
:102C200050E063E070E08DEF94E00E94181D809109
:102C3000E8008E778093E8000895BC0184E00E944C
:102C4000F2150895BC0183E00E94F215089522E078
:102C50002093E9002FEF3091E800215035FD06C0A8
:102C600035ED3A95F1F700002111F5CF2091E800FC
:102C700025FF0BC040E050E066E070E00E94181DA8
:102C80008091E8008E778093E8000895CF93DF93DA
:102C900021E02093E9002FEF3091E800215035FD2D
:102CA00006C035ED3A95F1F700002111F5CF2091DE
:102CB000E80025FF14C0EC0140E050E068E070E05F
:102CC0000E94181D8091E8008E778093E80088E0CC
:102CD000FE01A3E0B5E001900D928A95E1F7DF9146
:102CE000CF910895CF93DF93EC01E4EEF4E04381BC
:102CF00062818C810E940A298C818F5F8C83DF9195
:102D0000CF910895682F70E080E090E00E944333F7
:102D100020E030E04FE753E40E9466322BED3FE0C5
:102D200049E450E40E946C340E94D9340E94E0329D
:102D300022EB3AE54CE35FE30E94F93125EC35EDF7
:102D400049ED51E40E946C340E941233862F08959D
:102D5000CF93DF93EC018C810E948216E4EEF4E0C5
:102D6000482F628181810E940A298C818F5F8C8328
:102D7000DF91CF9108952091E4003091E50095E630
:102D80004091EC00842F817040FF23C08091E800C7
:102D900080FD1DC080910D05882399F0853099F044
:102DA0008091EB0085FD11C04091E4005091E50059
:102DB0002417350729F3915011F09A01E1CF84E0EF
:102DC000089582E0089583E0089581E0089580E009
:102DD00008954091E80042FFDDCF089580910F05EE
:102DE00087FF11C08091E80082FD05C080910D052C
:102DF0008111F8CF11C08091E8008B770BC08091D2
:102E00000D05882349F08091E80080FFF8CF80917C
:102E1000E8008E778093E8000895982F973068F542
:102E20009093E900981739F07091EC002091ED0033
:102E30005091F00003C0242F762F50E021FD02C0F6
:102E40009F5FECCF3091EB003E7F3093EB003091F1
:102E5000ED003D7F3093ED003091EB003160309319
:102E6000EB007093EC002093ED005093F000209164
:102E7000EE0027FDE5CF80E008958F708093E90094
:102E800081E0089520911505309116052617370722
:102E900048F06115710539F42091E8002E772093F0
:102EA000E80001C0B901FC0120E06115710579F16C
:102EB00080910D058823F1F18530F1F18091E800D2
:102EC00083FD3CC08091E80082FD2EC08091E80027
:102ED00080FFEBCF2091F3008091F20090E0922BE5
:102EE0006115710551F08830910538F421912093D6
:102EF000F100615071090196F3CF21E0089709F0C4
:102F000020E08091E8008E778093E800CECF2111F9
:102F1000CFCF0AC080910D05882361F0853061F024
:102F20008091E80083FD0AC08091E80082FFF2CF23
:102F300080E0089582E0089583E0089581E0089597
:102F400078941F920F920FB60F9211248F939F9334
:102F5000AF93BF938091F9049091FA04A091FB0480
:102F6000B091FC040196A11DB11D8093F9049093CA
:102F7000FA04A093FB04B093FC04BF91AF919F911E
:102F80008F910F900FBE0F901F9018959C014FB717
:102F9000F8948091F9049091FA04A091FB04B09107
:102FA000FC044FBF821B930B08952FB7F8946091D8
:102FB000F9047091FA048091FB049091FC042FBFF6
:102FC00008952FB7F8948091F9049091FA04A09194
:102FD000FB04B091FC042FBF08951F920F920FB60F
:102FE0000F9211248F939F93AF93BF938091F80416
:102FF000811113C08091F9049091FA04A091FB040F
:10300000B091FC044196A11DB11D8093F9049093E9
:10301000FA04A093FB04B093FC04BF91AF919F917D
:103020008F910F900FBE0F901F9018959C012A5FF3
:103030003F4FFC014281461301C012820196821764
:103040009307B9F708959C01FC0132969FEF80E049
:103050004191461789F09F3F19F4411101C0982F03
:103060008F5F8630A9F79F3F39F0F901E90FF11D15
:1030700097FDFA956283089508952091F6043091A2
:10308000F7042817390771F09093F7048093F6043A
:10309000E091F404F091F504309721F00084F1857B
:1030A000E02D099508952091F2043091F30428173A
:1030B000390771F09093F3048093F204E091F404E3
:1030C000F091F504309721F00680F781E02D099505
:1030D0000895E091F404F091F504309729F00190FF
:1030E000F081E02D0995089580E008950F931F93D6
:1030F000CF93DF93C42FD22FFC0182818823B1F0BC
:103100004093F1040E94E1179093F0048093EF0440
:1031100080E28C0F883008F04DC0C77081E001C09C
:10312000880FCA95EAF70E94772E44C08091F10477
:10313000481330C08091EF049091F0040E94C617AC
:103140008639910538F510E21D0FCD17B9F080E2F0
:103150008C0F883040F4C77081E001C0880FCA9599
:10316000EAF70E94702E183010F581E09D2F9770BD
:1031700001C0880F9A95EAF70E94772E802F0E944F
:10318000882F1830B8F4D77081E001C0880FDA9525
:10319000EAF70AC080E28C0F883060F4C77081E0E3
:1031A00001C0880FCA95EAF70E94702E03C0802FD5
:1031B0000E94882FDF91CF911F910F9108958091E8
:1031C000EE049091ED04882389F0992369F063E07F
:1031D00070E083EA92E00E94F11C892B19F0809143
:1031E000ED0408951092ED049091ED0481E089279B
:1031F00008958091EE048823F9F00E94D517DC0130
:10320000CB0188579C4EAF4FBF4F8093E9049093FA
:10321000EA04A093EB04B093EC048091ED048111D7
:103220000BC063E070E080EA92E00E94F11C892B01
:1032300019F481E08093ED048091ED040895CF931B
:10324000E82F20912007309121072A5135404091E5
:103250001705642F70E0C9010E949E30481B842F1F
:10326000EE2351F066E00E944235C82FC150A8F00D
:1032700080E20E94641CFACFA901480F511D41153C
:10328000524018F080E020E030E0280F311D265E2B
:103290003A4F3093210720932007CF9108959091C2
:1032A000E40490FF04C09695981748F003C081117C
:1032B00006C090E0961718F40E94FF28089561E078
:1032C0000E9497280895882311F0FA0101C0FB019C
:1032D000099508956091E404669570E04BE050E034
:1032E00087E191E00E948535892B19F481E0809374
:1032F00021020E94E11790931B0280931A02089505
:10330000A8E0B1E0E6E8F9E10C94B5305090240172
:103310008091E40480FF08C0809018029090190208
:1033200081149104A9F42EC0809125019091260169
:10333000891790F7E82FF0E09F01220F331FE20F6B
:10334000F31FEC5DFD4F1182108212828F5FF0CF70
:1033500080911702811116C0A12CB12C66246394B0
:10336000712C20912202C3010A2C01C0880F0A94FB
:10337000EAF7822309F448C0F401C590D490C1143F
:10338000D10459F5E8E4F2E0AE014F5F5F4FBE01B2
:10339000675F7E4FCA0144C010E08A819801280F00
:1033A000311DC9012935310514F088E590E07C0113
:1033B000EE0CFF1C8E0D9F1DDC01AC5DBD4F7D0131
:1033C000C801880F991F080F191F0C5D1D4F0E159E
:1033D0001F0570F0B5E0CB0ED11C45E050E0B60102
:1033E000CE0101960E94453109810F3FA9F60CC01C
:1033F0004D81413808F040E898016C818B810E9432
:1034000039270D5F1F4FE3CF22E0820E911C3FEF63
:10341000A31AB30A88E0A816B10409F0A2CFB2CF6C
:10342000249130E0D901AA0FBB1F2A0F3B1FD901FD
:10343000AC5DBD4FCD90DD90EC90DA01CD92DD9288
:10344000ED92AD0131966A177B0751F72091230168
:10345000FC01B3E02B9FE00DF11D1124539A8BB1B9
:10346000877F9BB198602FB7F894AF0133E0539EEC
:10347000400D511D11244E175F0789F0319168E00E
:103480009BB9000000C037FF8BB9330F000000C0AC
:1034900000C000C08BB900C06A9591F7ECCF2FBF78
:1034A0008FE594E00197F1F700C00000C85FDE4FA0
:1034B000EFE00C94D130A0E0B0E0E1E6FAE10C944A
:1034C000B730FC019280748081E0848380E00E94A8
:1034D0008216882E8FE70E948216A12CF5E0BF2E5F
:1034E000CC24CA94D12C8819E82EF12C8091270184
:1034F000A81608F0AAC0CA2DD0E022E0291568F06D
:10350000BC9EF001BD9EF00D1124E45DFC4F809146
:10351000E50480838091E604818371100AC0BC9E1B
:10352000F001BD9EF00D1124E45DFC4F1382128268
:1035300068C0BC9E8001BD9E100D1124045D1C4F0F
:10354000F80183818823F1F081508383FFEF8F9FFF
:10355000C0011124F801648170E00E949E30862F22
:103560000E9482168819FFEF8F9FC0011124B701B6
:103570000E949E308091E704689FB0011124F801F9
:1035800072833FC00E9435312091E704269521586F
:1035900030E0A901440F551F322F2227240F351F79
:1035A000232F33278217930764F5F2E0F91598F477
:1035B0000E943531B6010E945C35F80180830E947B
:1035C00035312091E6042695622F70E00E945C352B
:1035D000280FF8012183BC9EF001BD9EF00D11243F
:1035E000E45DFC4F12828091E704843108F484E1A9
:1035F000BC9EF001BD9EF00D1124E45DFC4F848360
:103600008383809125019E01280F311DC901880FF8
:10361000991F280F391F2C5D3D4FBC9EF001BD9EA8
:10362000F00D1124E45DFC4F4281413808F040E880
:10363000BC9EF001BD9EF00D1124E45DFC4F618144
:1036400080810E943927A39451CF0E948019CDB761
:10365000DEB7EDE00C94D330A0E0B0E0E2E3FBE1B4
:103660000C94B8308C01FC014481C42FD0E09E0141
:10367000DE010E94EA319B01AC010E94B5316B0171
:103680007C01E0E2F0E0EC1BFD0BA5E5B0E09B0166
:10369000AC010E94B5314B015C019F01DF010E942A
:1036A00076359B01AC010E94C0319B01AC012C0D11
:1036B0003D1D4E1D5F1DC501B4010E94C831C22FC2
:1036C000D22F2A3228F4F3E02F9F900111240DC04D
:1036D00025E530E02C1B3109C901880F991F280FFF
:1036E000391F37FF02C02F5F3F4F35952795C22FF7
:1036F000C095F12C85E5E82EED1A80912701F8168A
:10370000E0F4F0FC02C08E2D01C08D2F90912501B8
:103710002F2D30E0290F311DA901440F551F240F13
:10372000351F2C5D3D4F4C2FC13808F040E86091AB
:10373000E6040E943927F394E0CF0E948019F80133
:103740008481811102C091E003C0803219F49FEF9F
:103750009093220190912201890FF8018483CDB7C3
:10376000DEB7ECE00C94D430A0E0B0E0EAEBFBE193
:103770000C94B930FC01828180FF03C0CC24CA9430
:1037800002C0CC24C394D12C38E5932EA0902701FD
:10379000DA1408F041C080912501ED2CF12CE701ED
:1037A000C80FD11DCE01880F991FC80FD91FCC5D3E
:1037B000DD4F198218821A8204E010E0B12C80914A
:1037C00023028B0D89352CF0692D0E944E35892FEF
:1037D00002C087FD8A0D082E000C990BE816F90629
:1037E000A9F48091E704809FA001819F500D1124CE
:1037F0005595479555954795413808F040E89E0105
:103800006091E6048091E5040E943927BC0C0150C8
:103810001109A9F6D394BACF0E948019809123028E
:10382000F1E0CF1206C0811102C0809127018150C2
:1038300007C090E001966091270170E00E945C351E
:1038400080932302CDB7DEB7EBE00C94D530FF9226
:103850000F931F93CF93DF93EC01F12C00E610E060
:1038600060912701F61608F5809125012F2D30E093
:10387000280F311DC901880F991F280F391F2C5D92
:103880003D4F4091E704413808F040E870E0C8013E
:103890000E945C35962F8C816091E604F99E800D24
:1038A00011240E943927F394DBCF0E9480199A815A
:1038B0008C8190FF02C08F5F01C081508C83CDB797
:1038C000DEB7E5E00C94DB30CF93DF93682F8A30CE
:1038D00011F481E003C08D3021F480E00E941F19B3
:1038E0006FC0809120079091210726E0FC01AAE19A
:1038F000B7E001900D922A95E1F7603E30F026E0A6
:10390000FC0111922A95E9F70AC0F6E06F9FB00119
:10391000112466527C4F46E050E00E944531C09130
:103920002007D091210746E050E0BE018AE197E0F0
:103930000E949235892B49F19E012A513540A901F7
:1039400085E0569547958A95E1F781E090E0BC01C6
:1039500002C0660F771F4A95E2F740911805509113
:103960001905462B572B2B5F3F4F65E03695279562
:103970006A95E1F702C0880F991F2A95E2F7842B18
:10398000952B90931905809318059E01245135407D
:1039900040911705642F70E0C9010E949E30481BBA
:1039A000463010F4240F311D211582E0380710F045
:1039B00020E030E0265E3A4F309321072093200725
:1039C000DF91CF910895CF93DF93EC01FE018491B5
:1039D000882321F00E94641C2196F8CFDF91CF91BB
:1039E0000895EF92FF920F931F93CF93DF93EC0113
:1039F0007B0164E670E088E70E94AD2F8C01EC0E3D
:103A0000FD1ECE15DF0561F017FD0AC0FE01849191
:103A100064E670E00E9422308C012196892B89F3A4
:103A20000E949A30C801CDB7DEB7E6E00C94DA30D8
:103A3000EF92FF920F931F93CF93DF937C018B0143
:103A40000E94BB16811119C0E70101151105A1F0F3
:103A50008091E80085FD0AC08091E8008E77809310
:103A6000E8000E94BB16882381F307C089918093E8
:103A7000F10001501109E9CF80E0CDB7DEB7E6E0F3
:103A80000C94DA30AAE2B0E0E8E4FDE10C94C13035
:103A9000EFE0F5E087E195E02091F10021938E17AA
:103AA0009F07D1F780911005833009F461C030F48D
:103AB000813071F0823009F49BC0B2C08A3009F4C1
:103AC00087C08B3009F46CC0893009F0A9C020C0D0
:103AD00080910F05813A09F0A3C08091E800877FAB
:103AE0008093E8008091130590911405892B21F4AF
:103AF00068E083E095E003C060E080E090E070E083
:103B00000E9442178091E8008B778093E80088C07C
:103B100080910F05813209F083C080911305909147
:103B20001405029708F07CC08091E800877F80939D
:103B3000E8008091E80082FD05C080910D058111AB
:103B4000F8CF6EC02091F3008091F20090E0922BAC
:103B5000029731F48091F100813011F0863021F428
:103B60008091F100809302058091E8008B7754C02A
:103B700080910F05813A09F053C08091130590910F
:103B80001405892B09F04CC08091E800877F809351
:103B9000E8008091E80080FFFCCF8091280137C0C9
:103BA00080910F058132E1F5809113059091140504
:103BB000892BB1F58091E800877F8093E8000E940F
:103BC000EE1680911105809328010E94642E28C072
:103BD00080910F05813221F58091E800877F8093E5
:103BE000E8000E94EE16809112058093010518C02E
:103BF00080910F05813AA1F48091E800877F80933E
:103C0000E8008091E80080FFFCCF8091010580935F
:103C1000F1008091E8008E778093E8000E94EE1614
:103C20008091E80083FFCEC180910F05909110052F
:103C3000492F50E04A30510508F0C4C1FA01ED584F
:103C4000FF4F0C947035803821F0823809F0BAC1EA
:103C500008C080910B0590910C05992389F0826032
:103C60000FC0809113058F70873008F0ABC180932F
:103C7000E9008091EB0085FB882780F91092E9002C
:103C80009091E800977F9093E8008093F100109264
:103C9000F10065C1282F2D7F09F094C1882319F008
:103CA000823061F08FC180911105813009F08AC1A5
:103CB000933009F080E080930C052EC080911105AF
:103CC00081112AC0809113058F702FEF280F2630A5
:103CD00008F078C18093E9002091EB0020FF1CC020
:103CE000933021F48091EB00806214C09091EB003E
:103CF00090619093EB0021E030E0A90102C0440FF5
:103D0000551F8A95E2F74093EA001092EA008091ED
:103D1000EB0088608093EB001092E9008091E8004E
:103D2000877F20C181114EC1109111051F778091AD
:103D3000E3008078812B8093E3008091E800877F07
:103D40008093E8000E94EE168091E80080FFFCCF8F
:103D50008091E30080688093E300111102C082E04B
:103D600001C083E080930D052DC18058823008F09A
:103D700029C180911105909112058C3D53E0950762
:103D800079F583E08A838AE289834FB7F894DE016C
:103D9000139620E03EE051E2E32FF0E0509357000D
:103DA000E49120FF03C0E295EF703F5FEF708E2F2C
:103DB00090E0EA3010F0C79601C0C0968D939D93B5
:103DC0002F5F243149F74FBF8091E800877F8093B0
:103DD000E8006AE270E0CE0101960E944217AEC090
:103DE0004091130550911405292F332723303105B5
:103DF000A9F068F42130310509F4F3C0223031050F
:103E000009F0E0C08BE390E0E1E6F3E044C021324A
:103E1000310521F12232310571F1D4C09927813069
:103E20009105A1F058F0029709F0CCC0EEEAF3E05A
:103E3000E4918E2F90E0EEEAF3E02AC0E6EDF3E0A5
:103E4000E4918E2F90E0E6EDF3E022C0E4ECF3E0A5
:103E5000E4918E2F90E0E4ECF3E01AC04115510597
:103E600009F4C4C04130510509F0ACC089E090E0CC
:103E7000ECE8F3E010C04115510509F4BCC0413035
:103E8000510509F09FC08BE790E0E6EAF2E003C03D
:103E9000009709F497C02091E800277F2093E8005D
:103EA00020911505309116058217930708F49C019F
:103EB00040E02115310589F180910D05882309F431
:103EC0003DC08530D9F18091E80083FD37C08091F5
:103ED000E80082FD2FC08091E80080FFEACF40918A
:103EE000F3008091F20090E0942B2115310559F0F8
:103EF0008830910540F444914093F100319621506F
:103F000031090196F2CF41E0089709F040E0809135
:103F1000E8008E778093E800CCCF4111CDCF0AC066
:103F200080910D05882351F0853041F08091E800A3
:103F300083FD04C08091E80082FFF2CF8091E80009
:103F40008B778093E8003EC08038E1F58091E800EF
:103F5000877F8093E80080910E058093F100809127
:103F6000E8008E778093E8000E94EE162BC0811146
:103F700029C080911105909112059927029714F597
:103F80008091E800877F8093E800109111051093DD
:103F90000E050E94EE16111106C08091E30087FD08
:103FA00002C081E001C084E080930D0542E061EC35
:103FB00081E00E940D1742E261EC82E00E940D1741
:103FC00080910D058091E80083FF1AC08091E80080
:103FD000877F8093E8008091EB0080628093EB0004
:103FE0000FC082E190E0ECE9F3E055CF89E090E08A
:103FF000E3E7F3E050CF80E490E0E1E2F3E04BCF81
:10400000AA96E3E00C94DD301F920F920FB60F9248
:1040100011242F933F934F935F936F937F938F93CD
:104020009F93AF93BF93CF93DF93EF93FF93C09191
:10403000E900CF708091EC00D82FD17080FDD0E8DE
:104040001092E9008091F000877F8093F0007894CF
:104050000E94421D1092E9008091F00088608093D8
:10406000F000CD2BCF70C093E900FF91EF91DF916D
:10407000CF91BF91AF919F918F917F916F915F9100
:104080004F913F912F910F900FBE0F901F90189559
:10409000E8EDF0E080818E7F80831092E200109244
:1040A000DA001092E100A0EEB0E08C9181608C9378
:1040B00080818F77808319BCA7EDB0E08C918E7FD3
:1040C0008C9380818F7E8083109200050895A0E0FC
:1040D000B0E0EDE6F0E20C94BC30C8EDD0E08881B1
:1040E0008F7E8883E7EDF0E080818160808384E0CB
:1040F00082BF81E08093000588818E7F888302EEF5
:1041000010E0F80110821092DA0081EEC82ED12C56
:10411000F601108288818F77888388818068888300
:1041200088818F7D888319BC10920D0510920E0531
:1041300010920C0510920B0590EEE92EF12CF70170
:1041400080818B7F808388818160888342E060E00A
:1041500080E00E940D17F60180818E7F8083F80138
:10416000808181608083808188608083F701808185
:104170008E7F8083888180618883CDB7DEB7E8E059
:104180000C94D8301F920F920FB60F9211242F93D8
:104190003F934F935F936F937F938F939F93AF93CF
:1041A000BF93EF93FF938091E10082FF09C080915C
:1041B000E20082FF05C08091E1008B7F8093E100E7
:1041C0008091DA0080FF2AC08091D80080FF26C04D
:1041D0008091DA008E7F8093DA008091D90080FF91
:1041E00018C080E189BD82E189BD09B400FEFDCF20
:1041F00081E080930D058091000581110FC00E9420
:1042000048200E9467208091E20084608093E20051
:1042100005C019BC10920D05109200058091E100B7
:1042200080FF17C08091E20080FF13C08091E20000
:104230008E7F8093E2008091E20080618093E200B3
:104240008091D80080628093D80019BC85E080936B
:104250000D058091E10084FF30C08091E20084FF71
:104260002CC080E189BD82E189BD09B400FEFDCF8B
:104270008091D8008F7D8093D8008091E1008F7E5F
:104280008093E1008091E2008F7E8093E200809134
:10429000E20081608093E20080910E05882311F096
:1042A00084E007C08091E30087FD02C081E001C087
:1042B00083E080930D0580910D058091E10083FFDF
:1042C00027C08091E20083FF23C08091E100877FB7
:1042D0008093E10082E080930D0510920E0580919D
:1042E000E1008E7F8093E1008091E2008E7F8093D9
:1042F000E2008091E20080618093E20042E060E0B1
:1043000080E00E940D178091F00088608093F0009B
:10431000FF91EF91BF91AF919F918F917F916F919D
:104320005F914F913F912F910F900FBE0F901F9073
:10433000189580E008959091C30192FF0DC0282F39
:104340002871283019F4877F846006C0282F2471D3
:10435000243011F48B7F886093FF0DC0282F2871C3
:10436000283119F4877E846106C0282F24712431F6
:1043700011F48B7E88612091C40120FF0DC0382F7D
:104380003871383019F4877F816006C0382F317159
:10439000313011F48E7F886021FF0DC0282F2871E5
:1043A000283119F4877E816106C0282F21712131BF
:1043B00011F48E7E886194FD877E089520916107B7
:1043C0009091300756E02917A9F030E0529FF00194
:1043D000539FF00D1124EF5CF84F7181761306C0E6
:1043E0007081781303C07281741306C02F5F3F4F32
:1043F0002770E9CF80E0089581E008957031A0F43E
:10440000653090F490E5899FF001112485E0789F54
:10441000E00DF11D1124E60FF11DEE0FFF1FE65E0A
:10442000F64F85919491089580E090E00895CF93A0
:10443000DF938238910569F1B0F48133910509F475
:104440006FC048F48932910509F465C08A3291053C
:1044500009F46BC08AC08533910509F457C08933CC
:104460009105B9F082C0833E910571F138F4803E28
:104470009105B1F0823E910511F177C0863E91051C
:10448000B9F1873E9105C9F1843E910509F06DC0EF
:1044900024C02091C30120FD53C021FD51C065C03F
:1044A0008091C30180FD46C08091C40180FF48C057
:1044B0008091C30184FD50C183EE90E04FC1809193
:1044C000C30182FF3AC0F4CF8091C30182FD35C0A1
:1044D0008091C40180FD34C0EBCF8091C40181FF85
:1044E00035C08091C30184FD37C187EE90E036C1AD
:1044F0008091C30183FF27C0F4CF8091C30183FD66
:1045000022C08091C40181FD21C0EBCF8091C30105
:1045100085FD1FC021C08091C30185FD1DC019C04C
:104520008091C30186FD1BC01DC08091C30186FD23
:1045300019C015C089E390E011C182EE90E00EC170
:1045400080EE90E00BC186EE90E008C184EE90E032
:1045500005C189E290E002C185E390E0FFC08AE2F4
:1045600090E0FCC081E390E0F9C0811531E593074C
:1045700008F069C0811540E59407F0F09C0174E0F3
:10458000369527957A95E1F7922F9370482F4370CF
:1045900021E030E002C0220F331F4A95E2F73C6869
:1045A000392B982F9F709695969540E2949FC00165
:1045B0001124822B932BD2C0883E910568F5803E52
:1045C000910508F0CBC0883A9105B8F4853A910579
:1045D00048F0855AE82FF0E0EA5AFE4F808190E0DB
:1045E0009064BCC08130910509F4B3C008F4B4C034
:1045F0008430910508F4B0C0B1C08F3B910508F03C
:10460000ABC0885AE82FF0E0EE0FFF1FE75AFE4FCD
:10461000808191819464A2C0811520E2920758F4B0
:10462000811531E0930708F099C08D3E910508F49B
:1046300093C0906593C0811540E4940708F48CC042
:104640009F70906A8BC0811525E5920708F042C0E3
:10465000811534E5930728F0982F8827846F906A96
:104660007DC0811543E59407B0F09C01237033278A
:1046700041E050E002C0440F551F2A95E2F7282F71
:104680002695269580E2289F90011124CA01822B4D
:10469000932B9A6863C0811522E5920728F4982F1E
:1046A0008827816F906A5AC09C012370332741E0AC
:1046B00050E002C0440F551F2A95E2F7282F269597
:1046C000269580E2289F90011124CA01822B932B0A
:1046D0009C6844C0EC01811539E59307A8F4811565
:1046E000984528F09C2F8827806F906A37C0C115A5
:1046F00086E5D80788F58C2F0E949B218F7190E06A
:10470000982F882790622AC081152AE5920790F495
:104710008C2F8F700E949B2194E0D695C7959A9517
:10472000E1F7CF70D0E0DC2FCC27D0699E01282B99
:10473000C90114C090568115904270F48D2F8F716D
:104740000E949B21282F2F71CE0199279062922BD6
:1047500005C081E090E002C080E090E0DF91CF9161
:104760000895CF9384E090E00E944E31C82F82E2FA
:1047700090E00E944E312C2F30E0A901582BCA0145
:10478000CF91089568EE7EEF80E090E00E94803146
:1047900060E082E090E00E94623160E083E090E0BF
:1047A0000E9462311092F0011092F1011092F20118
:1047B0001092F30160E084E090E00E94623164E0D6
:1047C00082E290E00E94623160E085E090E00E9429
:1047D000623160E086E090E00E9462316FEF87E036
:1047E00090E00E94623140E050E0BA0188E090E041
:1047F0000E94743160E08DE090E00E94623140E000
:1048000050E0BA0188E190E00E94743160E087E1F5
:1048100090E00E94623140E050E0BA018CE190E00B
:104820000E94743160E070E080E290E00E9480318C
:1048300040E050E0BA0188E190E00E94743140E02D
:1048400050E0BA018FE090E00E94743140E050E007
:10485000BA0183E190E00E947431089580916D0760
:10486000811110926D070895809590916C078923AE
:1048700080936C07089590916C0780916B07982B3B
:104880009093220780916D07882389F0892B80936C
:104890002207E4E2F7E097E080E0915029F02191CF
:1048A0002223D9F38F5FF9CF81110E942E2448E093
:1048B00050E063E677E082E297E00E949235892B30
:1048C000A9F088E0E2E2F7E0A3E6B7E001900D92FC
:1048D0008A95E1F7E091F404F091F504309731F016
:1048E0000280F381E02D82E297E0099508952091FE
:1048F00062078095822380936207982F977099F4BE
:1049000030E0482F082E000C550B2417350759F0BE
:104910009091C40192FF07C08595859585950E9469
:10492000F12D109262070895CF93C091C401C2FB8C
:10493000992790F9981791F080FBC2F9C093C401B0
:104940006091C30184E090E00E9462316C2F82E2AA
:1049500090E00E94623182E00E947724CF91089516
:104960008091610790913007891719F08F5F8770E8
:10497000FBCF08950F931F93CF93DF9380912F0761
:1049800082958F7009F05AC080912C07882309F412
:1049900055C0809161071091300760912A0770918E
:1049A0002B07C0912D07D0912E0791E06F3F09F0A2
:1049B00090E0292F06E0811709F440C0209721F0EC
:1049C0007F3F21F030E003C031E001C0322F90E0A2
:1049D00030FD31C0089FF001099FF00D1124DF0167
:1049E000AF5CB84F11963C911197371324C03C919E
:1049F000361321C012963C91129731111CC01396A8
:104A00004D915C9114974C1B5D0B4639510598F400
:104A100080912F078F70806180932F07EA5CF84F99
:104A200080818F70806180838AE297E00E94BF0658
:104A30000E94B02403C001968770BDCFDF91CF9153
:104A40001F910F910895A1E1B0E0E9E2F5E20C9425
:104A5000B8308C0185E0F801DE011D9601900D92C1
:104A60008A95E1F7D8011296EC9090912A0720914F
:104A70002B0740912D0750912E074115510531F01C
:104A80002F3F31F481E09F3F19F403C081E001C062
:104A900080E080FD52C1F801D080C180A380B48045
:104AA0008AE2882E87E0982EF0902C07B501641BCF
:104AB000750BFF2009F4FEC080912F07382F307F3F
:104AC0006639710508F0C8C0311189C02C1112C0B7
:104AD0009D1110C0FE2CE1100DC08F70806180937D
:104AE0002F07C4010E94BF0680912F07D801159699
:104AF0008C933DC1A114B10439F0BFEFCB1206C0B5
:104B000081E0DB1203C003C081E001C080E080FDD2
:104B100003C081E08E2502C080E090E080FF10C0DD
:104B20004E2D6C2D8D2D0E94DE21882349F08AE2C6
:104B300097E00E94BF06EAE2F7E086E0DF0194C05A
:104B4000A114B10439F0BFEFCB1206C081E0DB1233
:104B500003C003C081E001C080E080FD03C081E0AC
:104B60008E2502C080E090E0E82FE170BE2E80FF2D
:104B70002CC04E2D6C2D8D2D0E94DE21F82E811122
:104B800024C0DD86CE868D859E850E946C2D292FC2
:104B900022952F70223018F0243090F405C09F70B9
:104BA00059F0811109C0E3C09F7031F0D80115960A
:104BB0009C91907F09F4DBC0805E883008F4D7C0F8
:104BC000C8010E94BF06FB2CD2C0FE2CEE2009F4C7
:104BD000CEC080912F07816080932F0748C02C1191
:104BE00006C09D1104C0E11002C0F80185C0C801D3
:104BF0000E94442E882351F1EE2041F120912F078D
:104C0000822F82958F7090E0029774F080912A072E
:104C100090912B0798878F831986BB86AA862C874D
:104C2000CE0107960E94BF0686E0F801AAE2B7E02F
:104C300001900D928A95E1F70E94BA240AC02C15C2
:104C4000C1F0C8010E94442E81111DC0C8010E94FC
:104C5000BF06FF24F3948BC03111F1CF8AE297E0B5
:104C60000E94BF0686E0D4011D928A95E9F7F12CD7
:104C70007EC09D11E6CFE110E4CFF8018583C80125
:104C80000E94BF0654C0EE2009F320912F07822F07
:104C900082958F7090E002973CF280912A07909164
:104CA0002B079A8389831B82BD82AC822E83CE011F
:104CB0000196B8CF66397105D0F5FE2CEE2031F2A1
:104CC0002C1127C09D1125C020912F0720FD18C051
:104CD000822F82958F70482F50E04115510581F049
:104CE000F80125834F30510541F08F5F982F929541
:104CF000907F822F8F70892B8583C8010E94BF0609
:104D000086E0F801AAE2B7E001900D928A95E1F7FA
:104D10002EC0C8010E94442E811186CF80912F079A
:104D2000816080932F07C8010E94BF0620C086E0E3
:104D3000D4011D928A95E9F71AC0EE2009F486CFB6
:104D4000C8010E94442EF82E882309F47FCF86E004
:104D5000F801AAE2B7E001900D928A95E1F78091FF
:104D60002A0790912B070E946C2D0E94BA248F2D48
:104D70006196ECE00C94D4309091E40490FF16C05E
:104D80009091250120912601921770F4E92FF0E00F
:104D9000DF01AA0FBB1FEA0FFB1FEC5DFD4F8183F4
:104DA000608342839F5FF0CF0E94801908958091B5
:104DB000E404282F269530E02115310519F481707F
:104DC000826005C02632310524F081708A648093A8
:104DD000E4048091E704813818F080E88093E704C8
:104DE0000895CF92DF92EF92FF926B017C010E94B7
:104DF000D726B701A60188E090E00E947431FF90A9
:104E0000EF90DF90CF9008958091E804882319F007
:104E100081508093E8046091E4047091E5048091EE
:104E2000E6049091E7040E94F12608958091E80439
:104E3000833018F48F5F8093E8046091E4047091EC
:104E4000E5048091E6049091E7040E94F12608951C
:104E5000E4EEF4E083E0808311828FEF828380E8C8
:104E60008383148260817181828193810E94F12603
:104E70000895A0E0B0E0EFE3F7E20C94BA30E82E3A
:104E8000F62EE901E42FF0E0611106C0E65CF34F75
:104E9000E4914E2F2E2F71C0062F10E0E65CF34FE9
:104EA0004491F42FC42ED12C26E0829FC0011124FE
:104EB0002FEF30E0B9010E949E305BEA5603C0013B
:104EC000579F900D11248E0D911D8E0D911D582F01
:104ED000550F580FD901A01BB10BAC9DC001AD9D62
:104EE000900DBC9D900D1124E92FF59ED001112449
:104EF000AB2FBB277901EA1AFB0AEC9CD001ED9C91
:104F0000B00DFC9CB00D11245901A51AB108A09E4A
:104F10007001A19EF00CB09EF00C1124EF2CFF2428
:104F20002E193F092C9D80012D9D100D3C9D100DCB
:104F30001124212F6230710591F048F4611571053B
:104F4000E1F061307105B9F4242F4B2F16C06430A5
:104F5000710569F040F06630710579F00CC0242FBE
:104F6000492FE12F0AC0492FEF2F2B2F06C0292FE1
:104F7000E42F412F02C0292FEB2F49832883EA8396
:104F8000CDB7DEB7EAE00C94D630A3E0B0E0EBECAE
:104F9000F7E20C94BB30F82EE62E042FD22E90911F
:104FA000E40490FF6EC0E92FE695AE2FB0E0A9575C
:104FB000BE4F8C91809320029E7F923081F44138C5
:104FC00008F040E89E012F5F3F4F6E2D8F2D0E940D
:104FD00039274B8169818A810E94BC2640C082307A
:104FE00019F40091E7043BC0863019F4F090E50411
:104FF00036C08930D9F3863191F5E6518E2F817014
:10500000C82EE695F0E0E65CF24F1491B12C609169
:105010002701B61610F5B19EC001112470E00E9460
:105020009E308F2DC11002C0860F01C0861B90914B
:1050300025012B2D30E0290F311DA901440F551FEB
:10504000240F351F2C5D3D4F402F013808F040E8FC
:105050006E2D0E943927B394DACF0E948019F09206
:10506000E504E092E6040093E704DD2051F060914E
:10507000E4047091E5048091E6049091E7040E94B5
:10508000F1262396E9E00C94D730E4EEF4E0438176
:1050900020E1421B08F440E021E0628181810E940E
:1050A000C5270895E4EEF4E0438120E1420F08F4BF
:1050B0004FEF21E0628181810E94C5270895E4EECF
:1050C000F4E0628120E1621B08F460E021E04381AA
:1050D00081810E94C5270895E4EEF4E0628120E119
:1050E000620F08F46FEF21E0438181810E94C527A0
:1050F0000895E4EEF4E09181282F438162818CEFE2
:10510000890F0E94C527089581E00E94792808959B
:10511000E4EEF4E09181282F4381628184E0890FDD
:105120000E94C527089581E00E94882808959091E3
:10513000E40490FF36C09170811102C0926006C0F5
:10514000863210F09A6402C0880F982B9093E40482
:10515000662351F06091E4047091E5048091E604C7
:105160009091E7040E94F1266091E404669570E056
:105170004BE050E087E191E00E948535892B19F0E2
:105180001092210202C00E946A1981E080931D02E0
:1051900020E04091E7046091E6048091E5040E94DC
:1051A000C527089521E030E0A90102C0440F551F32
:1051B0008A95E2F7CA0120912202662311F0822B20
:1051C00002C0809582238093220280912102811166
:1051D00006C08091E40460E086950E949728809143
:1051E000E40480FF0E94801908958091E40486956C
:1051F000815009F485E261E00E949728089580912A
:10520000E40486958F5F863208F081E061E00E94B9
:1052100097280895A3E0B0E0E0E1F9E20C94C230F1
:105220009091E40490FF0DC0413808F040E89E01E1
:105230002F5F3F4F0E9439274B8169818A810E94ED
:10524000BC262396E2E00C94DE308D3E39F490913A
:10525000780797FF35C01092780759C08E3E29F421
:10526000909178071916BCF32BC0909177078F3E69
:1052700029F497FF25C01092770749C0803F19F4A1
:105280001916CCF31DC090917907893F29F419169E
:10529000BCF4109279073BC08A3F19F497FF10C005
:1052A000F8CF8B3F39F490917A0797FF09C010929D
:1052B0007A072DC08C3F21F490917A071916BCF320
:1052C0009FE0980F983080F421E030E0A90102C0FF
:1052D000440F551F9A95E2F7CA0180959091760781
:1052E00089238093760713C08D3F21F48091700746
:1052F0008E7F0BC08E3F21F4809170078D7F05C09B
:105300008F3F29F4809170078B7F80937007809185
:105310007707811106C080917807811102C0109231
:105320006F0780917907811106C080917A078111FA
:1053300002C010926E0708958091700780FD16C01C
:1053400081FD16C082FD18C080916E07882391F000
:10535000883290F428E0829FC001112468E270E056
:105360000E945C35862F672B29F007C082E00895E4
:1053700084E0089581E0089588E0089580917007A1
:1053800080FD14C081FD14C082FD16C080916F079E
:10539000882381F08E3180F420E5829FC0011124A2
:1053A0006EE170E00E945C35862F089584E10895D7
:1053B00088E2089588E0089580E508958D3E21F4FF
:1053C0000E94BE29819504C08E3E29F40E94BE2908
:1053D0008093780708958F3E21F40E94BE2981951D
:1053E00004C0803F29F40E94BE2980937707089566
:1053F000893F19F40E949C2905C08A3F31F40E941C
:105400009C2981958093790708958B3F21F40E9410
:105410009C29819504C08C3F29F40E949C2980938B
:105420007A0708959FE0980F983078F421E030E0F3
:10543000A90102C0440F551F9A95E2F7CA01909145
:105440007607892B8093760708958D3F21F480910C
:10545000700781600BC08E3F21F4809170078260DD
:1054600005C08F3F29F48091700784608093700796
:1054700008950E94E11720917707211104C020911F
:105480007807222321F0909374078093730720916B
:105490007907211104C020917A07222321F09093EB
:1054A000720780937107E091F404F091F50430974E
:1054B00049F082E0809375070480F581E02D85E74F
:1054C00097E009950895A7E1B0E0E9E6FAE20C94C7
:1054D000C1304B8B5C8B6D8B7E8B8F8B61111092EF
:1054E0006B0786E09E01235F3F4FD901E82F1D9295
:1054F000EA95E9F795E0FE017396D90101900D92C6
:105500009A95E1F79C894E895F897B897D879E8783
:105510006F87598B488BF901DE01179601900D9228
:105520008A95E1F7CE0107960E94232581113EC09E
:1055300086E0FE013796DE01119601900D928A9564
:10554000E1F7FF81E8856A857B856115710531F09A
:10555000EF3F31F481E0FF3F19F403C081E001C067
:1055600080E080FD23C02091300730E0C901019622
:10557000877099274091610750E08417950779F16A
:10558000F983EA837D836C8396E0929FD001939F99
:10559000B00D1124AF5CB84FFE01319601900D9211
:1055A0009A95E1F7809330070E94B02416E080912D
:1055B0006107909130078917F9F0189FC0011124F5
:1055C0008F5C984F0E9423258823B1F0809161075A
:1055D00090E001968770992780936107E8CF0E9439
:1055E000642E1092300710926107EAE2F7E086E03D
:1055F000DF011D928A95E9F76796E3E00C94DD30B0
:10560000CF92DF92EF92FF926C01EE24FF24C1143F
:10561000D104E104F10421F0C701B60120E101C089
:1056200020E0C72ED82EE92EFF24C114D104E104B6
:10563000F10419F0285FC701B6016B017C0154E049
:10564000F694E794D794C7945A95D1F7C114D1042E
:10565000E104F10419F02C5FC701B6016B017C0174
:1056600042E0F694E794D794C7944A95D1F7C114D1
:10567000D104E104F10419F02E5FC701B601DC0189
:10568000CB01B695A79597958795892B8A2B8B2B60
:1056900009F02F5F822FFF90EF90DF90CF90089559
:1056A0000E94642E2FEF84E39CE0215080409040C4
:1056B000E1F700C000009AE088E10FB6F894A895E1
:1056C000809360000FBE90936000FFCFCF92DF9277
:1056D000EF92FF926B017C016115710581059105C7
:1056E00061F0DC01CB0133E0B695A79597958795DE
:1056F0003A95D1F7682F617001C060E081E00E94A7
:10570000D228C114D104E104F10461F0D701C6012B
:1057100024E0B695A795979587952A95D1F7682F98
:10572000617001C060E082E00E94D2286091F001C7
:105730007091F1018091F2019091F3010E94002B90
:10574000813079F040F0823099F42AE232E040E38F
:105750006FEF89EA0BC02AE232E040E16FEF85E5A6
:1057600005C02AE232E040E16FEF8FE70E9439275F
:10577000C701B6010E94002B833041F0843069F4E8
:105780002AE232E040E660E884E905C02AE232E03D
:1057900040E66FEF85E50E943927C701B601FF900B
:1057A000EF90DF90CF900895CF93C82F24E232E09E
:1057B00081FF02C040E801C040E16FEF80E00E943D
:1057C000392727E232E0C0FF02C040E601C040E1D5
:1057D0006FEF80E20E9439270E948019CF910895CF
:1057E000CF93C82F0E94D42BC1FB662760F980E0BD
:1057F0000E94D228CF910895A6E0B0E0E2E0FCE25A
:105800000C94B23023EB822E21E0922E3BEBE32E60
:1058100031E0F32ED40129E231E03A832983B12C1F
:1058200061E070E06D016C901C92E981FA818191D8
:10583000FA83E983E82FE295EF702E2F30E03C8366
:105840002B83F90121A18F70AB0102C0440F551FBA
:105850008A95E2F7CA01242B21A322A1A42EA094A9
:105860002A2122A350EA5A95F1F799E3292E91E0D3
:10587000392E810140E050E0F80171908F01272D11
:1058800022952F7030E0F90120A15C9030E0F72DD7
:10589000FF7002C035952795FA95E2F720FD07C005
:1058A000262F042E01C0220F0A94EAF701C020E03F
:1058B000522A5C924F5F5F4F45305105E9F6EB810C
:1058C000FC8191A1A922A1A292A1892B82A3119668
:1058D00081E0F6019081961101C080E0B82AEA16B5
:1058E000FB0609F09FCF40E050E061E070E083EC00
:1058F000482E81E0582ED1018D911D01E82FE295AF
:10590000EF70F0E021A18F70DB0102C0AA0FBB1F76
:105910008A95E2F7CD012A2B21A322A1FA2EF09439
:105920002F2122A3B0EABA95F1F79B01042E01C002
:10593000220F0A94EAF7A22EE22EE09403EC11E083
:105940002BEB31E03E832D83A9E2B1E0BC83AB8336
:10595000C12C2D813E813A832983D901DC90AB8112
:10596000BC817D90BC83AB83272D22952F7030E0C6
:10597000D90190962C9130E0B72DBF707B2E02C0DC
:1059800035952795BA95E2F720FD03C02D2D2A29DC
:1059900002C02D2D2E21AD81BE812C932D813E8103
:1059A0002F5F3F4F3E832D83A981BA812C91D21660
:1059B00011F0CC24C3942D813E814216530649F642
:1059C00091A1F922F1A292A1892B82A3BC284F5F59
:1059D0005F4F4530510509F08ECFBB2049F081E083
:1059E00080937D070E94E11790937C0780937B074B
:1059F00080917D07882399F080917B0790917C07A7
:105A00000E94C617059758F0E7ECF1E0D4018D919C
:105A10004D0181930A171B07C9F710927D078B2D43
:105A20002696E2E10C94CE3080E090E00E9453187C
:105A300080E090E00E943D1810926B070E943B248A
:105A4000E5E7F7E086E0DF011D928A95E9F710921D
:105A50006F0710926E07109270070E94392A0895FE
:105A6000A0E0B0E0E6E3FDE20C94BB308C01C09016
:105A7000EC01D090ED01E090EE01F090EF0180910B
:105A8000F0019091F101A091F201B091F301C82AC7
:105A9000D92AEA2AFB2ACFE1D0E0D701C6010C2E91
:105AA00004C0B695A795979587950A94D2F780FD7F
:105AB00004C0219790F7B12C09C0BC2EB8018C2FDF
:105AC0000E94FE210E941722019799F38B2DCDB7DA
:105AD000DEB7E9E00C94D730CF93DF93EC010E945E
