:100000000C9457060C949E060C949E060C949E0627
:100010000C949E060C949E060C949E060C949E06D0
:100020000C949E060C949E060C9402260C943E257D
:100030000C94A41C0C949E060C949E060C949E0694
:100040000C949E060C949E060C949E060C949E06A0
:100050000C949E060C94571C0C949E060C949E06C1
:100060000C949E060C949E060C949E060C949E0680
:100070000C949E060C949E060C949E060C949E0670
:100080000C949E060C949E060C949E060C949E0660
:100090000C949E060C949E060C949E060C949E0650
:1000A0000C949E060C949E060C949E0603070C0767
:1000B0001B075B078B07BB07EA0719084808770887
:1000C000A908D8080709360962099409C909E50C85
:1000D000E50C1F0D1F0D790D950D2B0F2B0FA00D8E
:1000E0007E0E8F0E8F0E391E391E4C1E4C1E421E68
:1000F0004C1E4C1E4C1E391E391E471E4C1E4C1EDB
:10010000471E59238023162580231625C823EB2359
:100110001625DA24ED2407634236B79BD8A71A398F
:10012000685618AEBAAB558C1D3CB7CC5763BD6D45
:10013000EDFD753EF6177231BF000000803F05A847
:100140004CCDB2D44EB93836A9020C50B99186883C
:10015000083CA6AAAA2ABE000000803F29002B0066
:1001600039618B62E0001F00360012001400E300CA
:100170002100130018000E008B4349004C002D0095
:100180002F0050004B004E002E0030004F00240086
:100190000A000B0010008A42260015001100190009
:1001A000E7002A00310038002872E4001E00340005
:1001B0000400330065442000370008000D00E20011
:1001C00022001C000C001B002C710000000000002D
:1001D0005200510023000900070005002C72250081
:1001E000060017001A00E60027000F0016001D0089
:1001F00035040000000000000000000001000100C4
:10020000010001000100615D010001000100010029
:1002100001000100010001008B4301000100675D46
:10022000695D010001000100685D6A5D0100635DB8
:100230000100010001008A42655D0100010001002A
:10024000010001006B5D01000100010001006D5D16
:1002500001006C5D010001000100010001000100CE
:100260000100010001000100010000000000000089
:1002700001000100625D0100010001000100645DF8
:100280000100010001000100665D010001000100A4
:100290000100000000000000000000003502010025
:1002A00001000100010045003B004E001B01010060
:1002B00000003D004D001901045300000000000043
:1002C00000004A0000000000000000004D00000097
:1002D00040005000580001000000420052000000A1
:1002E00001000100010001000100010044003A008A
:1002F0004A001D013D1400003C004B0006010100B6
:1003000000003E0029000000010000000000000085
:100310004B004E0000003F002A00000001000000DA
:100320004100510000000100000043004F000000A8
:10033000390000000000000000000000350001004E
:100340002800010001001F02000050001B010100F5
:10035000210200004F001901010000000000000010
:100360000000FB000000000000000000FC00240270
:100370005F005C0059006200260261005E005B00C5
:100380006300010001005400580001001E0200003B
:1003900000001D013D142002520051000601010021
:1003A00022020000290000000100000000000000FF
:1003B000F900FA0023022E002A00000001002502A5
:1003C00060005D005A00605D27025600570055002E
:1003D0003900000000000000000000005F5D000028
:1003E0000000000001000000C65CC75C00000100C6
:1003F0000000CA5CCB5C0000010000000000135C40
:1004000000520000000000000A5C015200000000E1
:100410004600A8000000010000004800A9000000FC
:1004200001000000000000000000010000000000CA
:100430000000000001000000C85CC95C0000010071
:100440000000C45CC55CC35C01000000000000004B
:100450000000000000005300000000000100000048
:100460004700AA000000010000000000000000009A
:10047000005C0000000000000000000000DA0281C3
:10048000FFD9F1DB20A4A62EAF00A0C000A1C800B8
:10049000AED580A81FD300408D1420001E0F057F0D
:1004A0003F1F643214783C1E1E140A0520202020B1
:1004B0002020003C5343523E2000202020202020BA
:1004C000003C4E554D3E20002020202020202000C2
:1004D0003C434150533E200044564F52414B004153
:1004E000444A5553540A004C4F574552284E756D97
:1004F00073290A0052414953452846756E63290AFB
:10050000000A4C617965723A004A49532831303902
:10051000290A00414E534928313034290A004D6FD1
:100520006465203A0000010101010101010101029D
:100530000202020202020202030303030303030393
:10054000040404040404040505050505060606065E
:1005500006070707070708080808090909090A0A1A
:100560000A0B0B0B0C0C0C0D0D0D0E0E0E0F0F0FBE
:100570001010111111121213131414151516161749
:1005800017181819191A1A1B1B1C1D1D1E1E1F20B7
:1005900020212222232424252626272829292A2B04
:1005A0002C2D2D2E2F303132323334353637383929
:1005B0003A3B3C3D3E3F4041424344454647484923
:1005C0004A4C4D4E4F50515354555658595A5B5DF5
:1005D0005E5F616264656668696B6C6D6F70727393
:1005E0007577787A7B7D7E8082838587888A8C8EFA
:1005F0008F91939596989A9C9EA0A2A3A5A7A9AB2C
:10060000ADAFB1B3B5B7BABCBEC0C2C4C6C9CBCD1D
:10061000CFD1D4D6D8DBDDDFE2E4E7E9EBEEF0F3CF
:10062000F5F8FAFDFFFFAA7F554000AF00AE0501C7
:100630000902A10185020901A10005091901290882
:100640001500250195087501810205010930093160
:100650001581257F95027508810609381581257F4A
:10066000950175088106050C0A38021581257F95CC
:100670000175088106C0C005010980A10185031923
:10068000012AB700150126B700950175108100C039
:10069000050C0901A101850419012AA002150126F2
:1006A000A002950175108100C005010906A1010590
:1006B0000719E029E71500250195087501810295C4
:1006C00001750881010507190029FF150026FF00A3
:1006D000950675088100050819012905950575011C
:1006E0009102950175039101C009023B00020100CE
:1006F000A0FA090400000103010100092111010011
:10070000012240000705810308000A0904010001D5
:1007100003000000092111010001227B000705826E
:100720000320000A1201100100000008EDFE15056B
:100730000100010200012003540068006F006E00F8
:1007400073006800690050006100640020004C00E4
:10075000350031003500000010034C0065006B00CF
:10076000690070006F006E000000040309040000BF
:10077000000000003E5B4F5B3E003E6B4F6B3E0057
:100780001C3E7C3E1C00183C7E3C18001C577D57CC
:100790001C001C5E7F5E1C0000183C180000FFE778
:1007A000C3E7FF00001824180000FFE7DBE7FF00A5
:1007B00030483A060E00262979292600407F050593
:1007C0000700407F05253F005A3CE73C5A007F3E2A
:1007D0001C1C0800081C1C3E7F0014227F221400F1
:1007E0005F5F005F5F0006097F017F0000668995FB
:1007F0006A0060606060600094A2FFA29400080438
:100800007E04080010207E20100008082A1C080022
:10081000081C2A0808001E10101010000C1E0C1EC8
:100820000C0030383E383000060E3E0E0600000048
:100830000000000000005F0000000007000700004B
:10084000147F147F1400242A7F2A120023130864C3
:100850006200364956205000000807030000001CC3
:10086000224100000041221C00002A1C7F1C2A009B
:1008700008083E08080000807030000008080808DA
:1008800008000000606000002010080402003E51D3
:1008900049453E0000427F400000724949494600F8
:1008A0002141494D33001814127F1000274545455A
:1008B00039003C4A494931004121110907003649B4
:1008C00049493600464949291E000000140000002D
:1008D00000403400000000081422410014141414D5
:1008E00014000041221408000201590906003E418B
:1008F0005D594E007C1211127C007F494949360037
:100900003E41414122007F4141413E007F494949EA
:1009100041007F09090901003E41415173007F08F0
:1009200008087F0000417F4100002040413F010056
:100930007F08142241007F40404040007F021C029B
:100940007F007F0408107F003E4141413E007F0947
:10095000090906003E4151215E007F091929460020
:1009600026494949320003017F0103003F404040CE
:100970003F001F2040201F003F4038403F006314CD
:10098000081463000304780403006159494D4300CF
:10099000007F414141000204081020000041414114
:1009A0007F00040201020400404040404000000378
:1009B000070800002054547840007F284444380041
:1009C000384444442800384444287F003854545460
:1009D000180000087E09020018A4A49C78007F0873
:1009E0000404780000447D4000002040403D0000A9
:1009F0007F102844000000417F4000007C04780400
:100A000078007C0804047800384444443800FC181A
:100A10002424180018242418FC007C08040408006E
:100A200048545454240004043F4424003C404020D3
:100A30007C001C2040201C003C4030403C004428EE
:100A4000102844004C9090907C004464544C440026
:100A50000008364100000000770000000041360821
:100A600000000201020402003C2623263C00000094
:100A700000000000404040F0F8F8FF38FFF8F83F71
:100A8000F8F8FF38FFF8F8F04040400000000000A0
:100A90000080C0C0C0800000C0C08000000080C0D6
:100AA000C000C0C0000080C0C00000000000C0C086
:100AB000C0C0C000C0C00000000000000000000076
:100AC0000000000000000000000000000000000026
:100AD0000000000000000000000000000000000016
:100AE00000000000000000000000000000C0F0F85E
:100AF000FC3E1E06010000007F4141417F007F4116
:100B000041417F000080C0E07E5B4F5BFEC0000083
:100B1000C000DCD7DEDEDED7DC00C0000000000055
:100B200000000000000000000000000000000000C5
:100B300000000000494949FFFFFFFFE0DFBFBF00A1
:100B4000BFBFDFE0FFFFFFFF494949000000000091
:100B50001F3F6060E0BF1F007F7F071E381E077FBA
:100B60007F007F7F0E1F3B716000000000007F7FD1
:100B70000C0C0C007E7E007F7E0303007F7E03034F
:100B80007E7E03037F7E000F3E703C063C703E0F6E
:100B900000327B49493F7E007F7E0303001E3F6990
:100BA000696F2600000000000000000000030F1F16
:100BB0003F3C7870600000007F4141417F007F41F1
:100BC00041417F00307B7F7830202030787F3B00B0
:100BD00003000F7F0F0F0F7F0F00030000000000C6
:100BE0000000000000000000000000000000000005
:100BF00000000000010101070F0F7F0F7F0F0F7E24
:100C00000F0F7F0F7F0F0F07010101000000000091
:100C100000000000000101000000000000000000D2
:100C200000000000000000000000000000000000C4
:100C300000000000000000000000000000000000B4
:100C400000000000000000000000000000000000A4
:100C50000000000000000000000000000000000094
:100C60000000000000000000000000000000000084
:100C70000000000000000000000000000000000074
:100C80000000000000000000000000000000000064
:100C90000000000000000000000000000000000054
:100CA000000000000000000000000000000011240F
:100CB0001FBECFEFDAE0DEBFCDBF04B603FE27C014
:100CC0008091090690910A06A0910B06B0910C063E
:100CD0008730904BA740B04BD1F410920906109288
:100CE0000A0610920B0610920C0614BE84B7877F7A
:100CF00084BF0FB6F894A8958091600088618093B6
:100D00006000109260000FBEE0E0F8E3099511E08A
:100D1000A0E0B1E0E2E9F6E602C005900D92A83944
:100D2000B107D9F726E0A8E9B1E001C01D92A930CA
:100D3000B207E1F70E94A50F0C9447330C94000012
:100D40008F929F92AF92BF92CF92DF92EF92FF92DB
:100D50000F931F93CF93DF93CDB7DEB72A970FB6CC
:100D6000F894DEBF0FBECDBFFC010081D18083812E
:100D70009481892B39F01FEFD11206C091E00F3F0B
:100D800019F403C091E001C090E090FF02C00C9400
:100D90008A0F7F0185E0DE01169601900D928A95FB
:100DA000E1F7D70112962C918E819F81222349F081
:100DB0000E94DA1D182F682F8E819F810E947D1E50
:100DC00003C00E94501E182FB0E51B9FF001112494
:100DD00015E0D19EE00DF11D1124E00FF11DEE0F85
:100DE000FF1FE45AFE4F05911491F801EF55FD45A0
:100DF000E131F10508F00FC3EA5AFF4FD70112960F
:100E00008C910C942733882311F40C946A0F0E9460
:100E10004C178091CC01CBC281110C946A0F60E019
:100E200070E082E60E947B2160E070E082E60E9432
:100E30007B210C946A0F882311F40C946A0F809123
:100E4000680391E0382F327081FF90E090939B010E
:100E500091E0282F207285FF90E090939A01311144
:100E600003C0211104C022C081EE0E94C52B8091D5
:100E70009A01882319F085EE0E94C52B8FE20E940B
:100E80002C2C8FE20E94C52B80919B01882319F0A6
:100E900081EE0E942C2C80919A01882311F40C94ED
:100EA0006A0F85EE0E942C2C0C946A0F8FE10E9431
:100EB0002C2C8FE12CC0882311F40C946A0F8091A4
:100EC000680391E0382F327081FF90E090939B018E
:100ED00091E0282F207285FF90E090939A013111C4
:100EE00003C0211104C00FC081EE0E94C52B809168
:100EF0009A01882319F085EE0E94C52B8EE20E948C
:100F00002C2C8EE2BFCF83E20E942C2C83E20E9425
:100F1000C52B0C946A0F882311F40C946A0F8091EE
:100F2000680391E0382F327081FF90E090939B012D
:100F300091E0282F207285FF90E090939A01311163
:100F400003C0211104C012C081EE0E94C52B809104
:100F50009A01882319F085EE0E94C52B81EE0E942C
:100F60002C2C83E20E942C2C83E207C284E20E9494
:100F70002C2C84E2CCCF882309F4ACC78091680381
:100F800091E0382F327081FF90E090939B0191E0C7
:100F9000282F207285FF90E090939A01311103C0B1
:100FA000211104C012C081EE0E94C52B80919A01CC
:100FB000882319F085EE0E94C52B81EE0E942C2C0F
:100FC00084E30E942C2C84E3D8C185E20E942C2C5F
:100FD00085E29DCF882309F47DC78091680391E065
:100FE000382F327081FF90E090939B0191E0282F81
:100FF000207285FF90E090939A01311103C0211176
:1010000004C012C081EE0E94C52B80919A018823F2
:1010100019F085EE0E94C52B81EE0E942C2C85E2F2
:101020000E942C2C85E2A9C186E20E942C2C86E22B
:101030006ECF882309F44EC78091680391E0382F62
:10104000327081FF90E090939B0191E0282F2072F5
:1010500085FF90E090939A01311103C0211104C0E3
:1010600012C081EE0E94C52B80919A01882319F04D
:1010700085EE0E94C52B81EE0E942C2C86E20E94F8
:101080002C2C86E27AC187E20E942C2C87E23FCF8B
:10109000882309F41FC78091680391E0382F3270CC
:1010A00081FF90E090939B0191E0282F207285FFB3
:1010B00090E090939A01311103C0211104C012C035
:1010C00081EE0E94C52B80919A01882319F085EE4C
:1010D0000E94C52B81EE0E942C2C87E80E942C2CAC
:1010E00087E84BC18DE20E942C2C8DE210CF882323
:1010F00009F4F0C68091680391E0382F327081FFC7
:1011000090E090939B0191E0282F207285FF90E062
:1011100090939A01311103C0211104C012C081EED5
:101120000E94C52B80919A01882319F085EE0E94B8
:10113000C52B81EE0E942C2C83E30E942C2C83E390
:101140001CC181EE0E942C2C8DE20E942C2C8DE281
:101150002AC1882309F4BEC68091680391E0382F24
:10116000327081FF90E090939B0191E0282F2072D4
:1011700085FF90E090939A01311103C0211104C0C2
:1011800012C081EE0E94C52B80919A01882319F02C
:1011900085EE0E94C52B81EE0E942C2C80E30E94DC
:1011A0002C2C80E3EAC080E30E942C2C80E3AFCE9D
:1011B000882309F48FC68091680391E0382F32703C
:1011C00081FF90E090939B0191E0282F207285FF92
:1011D00090E090939A01311103C0211104C012C014
:1011E00081EE0E94C52B80919A01882319F085EE2B
:1011F0000E94C52B81EE0E942C2C82E30E942C2C95
:1012000082E3BBC082E30E942C2C82E380CE882341
:1012100009F460C68091680391E0382F327081FF35
:1012200090E090939B0191E0282F207285FF90E041
:1012300090939A01311103C0211104C012C081EEB4
:101240000E94C52B80919A01882319F085EE0E9497
:10125000C52B81EE0E942C2C89E80E942C2C89E859
:101260008CC087E80E942C2C87E851CE882309F493
:1012700031C68091680391E0382F327081FF90E091
:1012800090939B0191E0282F207285FF90E090932E
:101290009A01311103C0211104C00FC081EE0E94D8
:1012A000C52B80919A01882319F085EE0E94C52BE9
:1012B00084E30E942C2C84E3E5CD83E30E942C2C54
:1012C00083E325CE882309F405C68091680391E065
:1012D000382F327081FF90E090939B0191E0282F8E
:1012E000207285FF90E090939A01311103C0211183
:1012F00004C012C081EE0E94C52B80919A01882300
:1013000019F085EE0E94C52B81EE0E942C2C8FE1F6
:101310000E942C2C8FE131C081EE0E942C2C84E2A3
:101320000E942C2C84E23FC0882309F4D3C580910D
:10133000680391E0382F327081FF90E090939B0119
:1013400091E0282F207285FF90E090939A0131114F
:1013500003C0211104C015C081EE0E94C52B8091ED
:101360009A01882319F085EE0E94C52B81EE0E9418
:101370002C2C8FE20E942C2C8FE20E94C52B81EE38
:1013800081CD81EE0E942C2C8EE20E942C2C8EE2CC
:101390000AC0882309F49EC581EE0E942C2C89E3A3
:1013A0000E942C2C89E30E94C52B81EEB0CD816078
:1013B0008093CC0161E086952BC0F7018281882360
:1013C00009F4A9C110929C010230FCE51F0708F046
:1013D00052C08091DE0306312CE5120709F48BC15F
:1013E00082720D3C3CE5130709F453C208F4A4C112
:1013F000023D8CE5180709F46DC508F0EFC10F3CFC
:10140000ACE51A0709F44CC208F0DBC161E081E0E9
:101410000E942A1B5FC5043F2CE5120799F406E2DF
:1014200021EE40EE64EF7CE509C0083DACE51A070B
:1014300021F606E221EE41EE68ED7CE5C7010E944F
:10144000861A48C5053F3CE5130708F035C1093D3C
:101450008CE5180731F407E225EE45EE69ED7CE5F1
:10146000EDCF0A3D9CE5190701F708E221E045EEC2
:101470006AED7CE5E3CF06312CE5120730F0C801B8
:101480008B5F9C45099708F0A4CF0E94F41C9093B1
:101490009F0180939E0100313CE5130709F4C3C00E
:1014A00008F041C008309CE5190709F49AC0F0F42F
:1014B0000430BCE51B0709F487C068F40230FCE582
:1014C0001F0709F477C003301C4509F0E5C080917F
:1014D0009E01826076C006303CE5130709F46EC0B9
:1014E00008F07BC080919E0188606BC00C309CE549
:1014F000190709F485C068F40A30BCE51B0709F434
:1015000074C008F079C00E945B2180919E018068C0
:1015100058C00E30FCE51F0709F476C008F07FC004
:1015200080919E018BC00C3F3CE5130709F44FC02E
:1015300018F503319CE5190709F47DC078F40131F1
:10154000BCE51B0709F473C002311C4509F0A4C0B7
:101550000E945B2180919E018F7733C00531FCE5AD
:101560001F0709F472C008F486C00B3F1C4509F040
:1015700093C080919F013EC001158DE5180709F4C5
:101580005FC058F40E3FACE51A0709F444C008F4F4
:101590003FC080919F0182602DC00230EDE51E07A3
:1015A00009F475C008F45DC003301D4509F074C02E
:1015B00060E06EC080919E01816003C080919E01B9
:1015C000806180939E0168C080919E0111C08091CE
:1015D0009F01826080939F015FC080919E01806225
:1015E000F0CF80919E018064ECCF80919E01886055
:1015F0008460E7CF8160EECF80919E018E7FE1CF46
:1016000080919E018D7FDDCF80919E01877FD9CF14
:1016100080919F0118C080919F018D7FDBCF8091C9
:101620009E018F7ECECF80919E018F7DCACF80910B
:101630009E018F7BC6CF80919E01877F8B7FC1CF1C
:1016400080919F018D7F8E7FC5CF80919E0182FB0F
:10165000222720F991E0922790FB82F990FB83F9F1
:10166000B0CF80919F01982F909591708E7F892B9C
:1016700090FB81F9AFCF0E945B2180919E0187FB97
:10168000222720F991E0922790FB87F99ACF61E019
:101690008EE090E00E94132F60919E0110919F01B7
:1016A00084E090E00E94132F612F82E290E00E947C
:1016B000132F0E945B210EC4063FBCE51B0731F4CB
:1016C00006E221EE42EE66EF7CE5B8CE063FECE5A1
:1016D0001E0730F407E225EE44EE65EF7CE5AECE62
:1016E000073FFCE51F0709F068CE07E225EE46EE4E
:1016F00067EF7CE5A3CE8A7A91E009F490E09093BD
:101700009D01882311F065E301C069E288E693E05A
:101710000E94DA1C0EC006311C4509F00EC18091F2
:101720009D01882309F4F4C365E388E693E00E94F1
:10173000CD1C0E94761DCEC3073CACE51A0709F408
:1017400094C0D8F4043CECE51E0709F484C030F4DE
:10175000033C2CE5120709F45FC0B0C0053C3CE532
:10176000130709F47DC0063C9CE5190709F0A6C0E3
:1017700047E35AE160E47AE190C00A3CACE51A071D
:1017800009F47DC078F4083CECE51E0709F472C04A
:10179000093CFCE51F0709F091C04BE25AE16FE1FB
:1017A0007AE17BC00B3C2CE5120709F46DC00C3CC0
:1017B0003CE5130709F082C04AE257E16BE377E1A9
:1017C0006CC0003DECE51E0709F46DC0013DFCE571
:1017D0001F0709F073C06EE089E06DC0053D2CE580
:1017E000120709F466C058F4033D8CE5180709F4A4
:1017F0005DC0043D9CE5190709F46CC35FC0063D5C
:10180000ACE51A0709F466C30E35BDE51B0709F000
:1018100055C061E28CE14FC08091CC0180FFC7CD03
:101820008E7F8093CC016091CC017091CD0180912D
:10183000CE019091CF010E9418171092D201EFEFC4
:10184000F0E702E0E150F0400040E1F700C00000A6
:101850000E9497163FC345E65BE16EE67BE11DC043
:101860004EE65BE165E67BE118C040E45AE167E3E0
:101870007AE113C04FE15AE16BE27AE10EC047E032
:101880005AE163E17AE109C043E15AE167E07AE1B4
:1018900004C04BE357E16AE277E10E9491161AC354
:1018A00065E082E008C068E086E005C061E18FE0A5
:1018B00002C06BE182E10E94781B0CC30B352DE561
:1018C0001207B1F150F401158CE51807A9F00F3D8E
:1018D0001C4599F50E94051DFDC20C35ADE51A07A2
:1018E00049F10D351D4549F580919F0182FB8827FF
:1018F00080F991E089271FC00E945B21EFEFF4E39C
:101900000CE0E150F0400040E1F700C0000087E744
:1019100097E790930108809300089AE088E10FB65A
:10192000F894A895809360000FBE90936000FFCF5D
:1019300081E001C080E00E94C01DD70112968C9109
:1019400012970D911C91882349F0C8010E94DA1D5D
:10195000D82E682FC8010E947D1E04C0C8010E94B5
:10196000501ED82EB8018D2D0E942E288C01982E45
:10197000F701D280A580A2942FE0A2228091DB0300
:10198000877099F0DD2089F0812F807F803421F0ED
:1019900080E2800F883048F082E00E94DA1E809159
:1019A000DB038770CC24C3948111C12CB12EB29477
:1019B0009FE0B9228B2D90E08C30910508F04BC24E
:1019C000FC01E959FF4F0C942733812F807F1F7052
:1019D000882311F01295107FDD20B9F0112309F44E
:1019E00025C280E2800F883010F0911006C08091EF
:1019F000DE03182B1093DE0305C08091DD03182B46
:101A00001093DD030E94761D11C2802F0E94C52B0A
:101A1000112309F420C2005E1095083010F09110D7
:101A200006C08091DE0318231093DE0305C0809169
:101A3000DD0318231093DD030E94761D0CC2812F55
:101A4000807F1F70803211F01295107F992021F055
:101A5000F1E09F1601F12EC0DD20A1F08091DF039F
:101A6000AA2071F001E0A0120BC0182B90919F01E9
:101A700092FDF1C1181709F4EEC11093DF03EBC119
:101A8000812B10C0AA2021F021E0A21609F4E3C1A5
:101A90000E94701D2AC0DD2041F035E03A1508F49F
:101AA000DAC1812F0E947121D6C184E08A1508F421
:101AB000D2C11BC0DD2061F0AA2099F3D701159691
:101AC0008C91159780FFB2C18F7015968C93E9CFDA
:101AD000AA2059F0093309F0BBC1BFEFE7EEF3E0EC
:101AE000B150E040F040E1F7B1C1812F0E94662182
:101AF000B2C1812F86958695837019F0813059F097
:101B0000AAC1DD2019F0C801937002C080E090E006
:101B10000E94FF15A8C1DD2019F0C801937002C012
:101B200080E090E00E94E9159EC1802FDD2019F031
:101B30000E94D32702C00E941A270E948A1B93C1C9
:101B4000812F837009F069C0D11089C1902F9295BF
:101B500096959770990F990F802F8F70882E912CE2
:101B6000A12CB12C092E04C0880C991CAA1CBB1CEA
:101B70000A94D2F704FF12C04FE050E060E070E03A
:101B800004C0440F551F661F771F9A95D2F7DB01DB
:101B9000CA0180959095A095B09503C080E090E033
:101BA000DC0116951695412F4370423019F1C8F4A7
:101BB0000091D7011091D8012091D9013091DA011B
:101BC000413059F088299929AA29BB29BC01CD01A6
:101BD00060237123822393230AC0802A912AA22A98
:101BE000B32ABC01CD01682979298A299B290E9441
:101BF000181F35C188299929AA29BB290091D70125
:101C00001091D8012091D9013091DA01BC01CD01A8
:101C10006027712782279327EACFDD2019F0812FD3
:101C2000817001C08695882309F419C1902F92957F
:101C300096959770990F990F802F8F70882E912C01
:101C4000A12CB12C092E04C0880C991CAA1CBB1C09
:101C50000A94D2F704FF12C04FE050E060E070E059
:101C600004C0440F551F661F771F9A95D2F7DB01FA
:101C7000CA0180959095A095B09503C080E090E052
:101C8000DC0116951695412F43704230D9F068F566
:101C90000091D3011091D4012091D5013091D6014A
:101CA000413059F088299929AA29BB29BC01CD01C5
:101CB00060237123822393231EC0802A912AA22AA3
:101CC000B32A13C088299929AA29BB290091D301D5
:101CD0001091D4012091D5013091D601BC01CD01E4
:101CE000602771278227932706C0BC01CD01682990
:101CF00079298A299B290E94A91EB1C01F70DD2065
:101D000039F0812F0E94F71E802F0E947121A7C0F9
:101D1000802F0E946621812F0E94B51EA0C0802FB7
:101D200022EF921609F440C0291538F030EF9316CF
:101D300061F091EF991699F174C0A3EF9A16D9F159
:101D4000B4EF9B1609F44EC06CC0DD2019F1E4E03D
:101D5000EA1508F480C01F7181E090E0A0E0B0E0D7
:101D6000AC01BD0104C0440F551F661F771F1A95B3
:101D7000D2F78091D3019091D401A091D501B09177
:101D8000D6018A019B01082719272A273B27C90169
:101D9000B80125C025E02A1508F45DC0DCCFDD20A0
:101DA00029F0812F8F7130C0DD20D9F3812F8F7101
:101DB0000E94B51E50C0DD2079F01F7181E090E0D7
:101DC000A0E0B0E0BC01CD0104C0660F771F881F02
:101DD000991F1A95D2F703C060E070E0CB010E9412
:101DE000A91E39C0DD2099F01F71812F0E94F71EB6
:101DF00080919F0182FD07C038E0139FC00111242C
:101E000083608093DB03812F0E94F71E24C081E052
:101E10000E94DA1E81E08A15F0F482E00E94DA1E48
:101E20001AC0DD2039F0AA2009F4BBCF802F0E9410
:101E30002C2C11C0AA2009F4B9CF893349F49FEFA3
:101E4000A7EEB3E09150A040B040E1F700C0000021
:101E5000802F0E94C52B88EF8B0D843020F40E94C8
:101E600015160E94862ACC20A9F08091DB0380FD04
:101E700011C0F70112828595859585950E94F71E00
:101E8000C7010E94A0068091DB0385958595859505
:101E90000E94B51E85E0F701DE01119601900D92BA
:101EA0008A95E1F789819A810E94501E9A8100E506
:101EB000809FF001112415E0919FE00DF11D112488
:101EC0008981E80FF11DEE0FFF1FE45AFE4F859147
:101ED000949120C08091DB038770E1F0D7011296C6
:101EE0008C918823B9F082E02A960FB6F894DEBF71
:101EF0000FBECDBFDF91CF911F910F91FF90EF905B
:101F0000DF90CF90BF90AF909F908F900C94DA1E8F
:101F100069E20BCC2A960FB6F894DEBF0FBECDBF98
:101F2000DF91CF911F910F91FF90EF90DF90CF90B5
:101F3000BF90AF909F908F900895BC0184E00C9467
:101F4000241CBC0183E00C94241CCF93DF93CDB7F9
:101F5000DEB762970FB6F894DEBF0FBECDBF84B771
:101F6000877F84BF0FB6F894A89580916000886140
:101F700080936000109260000FBE90E080E80FB682
:101F8000F89480936100909361000FBE85B78068DC
:101F900085BF85B7806885BF87EB9BE190939901EA
:101FA000809398010E9482250E94A1258091E200E1
:101FB00084608093E20078948091F1038823A1F0FB
:101FC0001091E9001F709091EC00892F817090FDB5
:101FD00080E8182B1092E9008091E80083FD0E94B0
:101FE00075221F701093E90082E084BD93E095BDD7
:101FF0009AEF97BD80936E00A8E2B1E028E331E04C
:10200000AD0101E010E0FA018191AF01E82FE29506
:10201000EF70F0E061A18F70580102C0AA0CBB1CE8
:102020008A95E2F7C5019A2D9095962391A392A1E6
:10203000892B82A32417350731F748E351E06DE37C
:1020400071E08A01EE24E394F12CF80181918F0173
:10205000E82FE295EF70F0E0D1A08F70570102C039
:10206000AA0CBB1C8A95E2F7C5019A2D90959D217B
:1020700091A392A1892B82A36017710731F701E028
:1020800010E0FA018191AF01E82FE295EF70F0E0E6
:10209000F1A08F70580102C0AA0CBB1C8A95E2F710
:1020A000C5019A2D90959F2191A392A1892B82A37E
:1020B0006417750731F761E070E08D91E82FE295C4
:1020C000EF70F0E041A18F706B0102C0CC0CDD1C01
:1020D0008A95E2F7C6019C2D9095942391A392A135
:1020E000892B82A32A173B0741F7E0EAF1E080EB56
:1020F00091E0A6EBB1E011921D928E179F07D9F7E0
:1021000080E090E00E940D2F8A3E9E4F11F00E94C9
:10211000051D82E090E00E94FF2E809310020E9435
:10212000F41C90939F0180939E0183E090E00E94B5
:10213000FF2E682F70E080E090E00E94181F6091F1
:10214000D3017091D4018091D5019091D6010E9464
:10215000262A1092FB0180E88093FB030E94B52D94
:102160006DE070E08FE894E00E942022892B09F056
:1021700043C08091FB0163E070E081FD3AC08CE8D0
:1021800094E00E942022892BB9F56DE070E08CE785
:1021900094E00E942022892B79F50E948C1CDC019E
:1021A000CB01805A9541AF4FBF4F8093FD01909373
:1021B000FE01A093FF01B0930002EEEFF3E080E098
:1021C00092E0DF018C011D9201501040E1F7F09385
:1021D0000506E09304068FEF9FEF9093FD03809335
:1021E000FC0381E080930202809301021092FC01C3
:1021F00003C089E894E0C5CF8091B001811136C059
:1022000080E090E00E940D2F8A3E9E4F21F00E94B8
:10221000051D0E944C1788E090E00E94072F6093F4
:10222000CC017093CD018093CE019093CF016E7F4E
:1022300071F40E944C1788E090E00E94072F609391
:10224000CC017093CD018093CE019093CF010E9479
:10225000FE161092D2018091CC0180FF04C060E094
:1022600086950E942A1B81E08093B00183E08093D1
:10227000060188E28093070185E28093080183E0EC
:102280000E946B2A2FEF33EC49E021503040404050
:10229000E1F700C0000080E00E946B2A80E191E03D
:1022A0009093B2018093B10168E1262E312C442431
:1022B0004394512C8091F103853009F07CC0FF24B8
:1022C000F39400E112E18091F103853009F05CC0E4
:1022D0008091F103843009F443C00E94211680E00C
:1022E0000E94862A1092D2018091B501811116C0F8
:1022F000F092B5018091CC01982F91709093B40128
:102300008E7F8093CC018FEF90E7A2E081509040C8
:10231000A040E1F700C000000E9497161092B301A0
:10232000B0E40FB6F894A895209260000FBEB09369
:10233000600083B7817F846083BF83B7816083BF80
:102340007894889583B78E7F83BF0FB6F894A8954D
:1023500080916000886180936000109260000FBEE1
:102360008091F003882309F4AECF0E94882AE6EB1F
:10237000F1E08191811148C356ECA52E51E0B52EB4
:10238000AE16BF06B1F79FCF0E945B210E941516C3
:102390000E94862A1092B5018091B401882349F0E9
:1023A0008091CC0181608093CC0160E086950E9491
:1023B0002A1B0E94141B0E94882AD82E81110E9479
:1023C0008C1CE1E1F2E0A6EBB1E000E010E0302F80
:1023D0002D919191922721F180E0FF24F394492FD0
:1023E0004F21D1F08F8338872F2181E009F480E0DD
:1023F00089870E94981C8160782F9B878A874F81EC
:10240000588569858B850E944B15F801EF5EFD4F5D
:102410008081F826F08219C08F5FFF0C8530F9F6B5
:102420000F5F1F4F0031110591F68FEF8C878D875D
:102430001E860E94981C8160782F988B8F874C8510
:102440005D856E8588890E944B158091D201882315
:1024500009F47AC08091D101E091CC01E695E81BA6
:10246000E093C801823059F4F0E0E855FB4FE49165
:102470000E2F10E043E7E42E4AE1F42E40C08630F0
:1024800059F4F0E0EB55FB4FE4910E2F10E033E6EA
:10249000E32E3AE1F32E33C0893061F4E695F0E0A3
:1024A000EE55FB4FE4910E2F10E02BE3E22E29E1D5
:1024B000F22E25C08F3059F4F0E0E156FB4FE49145
:1024C0000E2F10E099ECE92E98E1F92E18C08C310E
:1024D00081F48E2F63E00E94F332E92FF0E0E4569E
:1024E000FB4FE4910E2F10E084EFE82E87E1F82EE9
:1024F00006C000ED17E0B4E2EB2EB5E1FB2E8091B3
:10250000C901882361F01092C9010E94981C909320
:10251000C7018093C6011092CB011092CA010E949C
:10252000981CE091C601F091C7018E1B9F0B8F3F55
:102530009F4750F40E0F1F1F1093C7010093C60151
:1025400086EC91E0F701099580910202882309F455
:1025500067C18EEF93E090930506809304068EE1A9
:1025600095E00E9412226091D7017091D80180916C
:10257000D9019091DA010E94D629882329F081306F
:1025800039F489E095E002C083E195E00E941222CF
:1025900081E095E00E9412226091D3017091D401F4
:1025A0008091D5019091D6010E94D629833039F0CF
:1025B000843051F0823059F484EF94E002C087EE09
:1025C00094E00E9412220AC08FED94E0FACF88EDC9
:1025D00094E00E94122281E00E9461160E9415166A
:1025E00081FD03C088EC94E002C080ED94E00E947D
:1025F00012220E94151680FD03C08AEB94E002C0EF
:1026000081EC94E00E9412220E94151682FD03C004
:102610008CEA94E002C083EB94E00E941222809145
:102620000202882309F4E1C02091FC033091FD03EC
:102630002115310509F4D9C08091FC018111D5C063
:10264000082F10E07201082E02C0EE0CFF1C0A9445
:10265000E2F7A9014E215F21452B11F48F5FF0CFE6
:102660009091FB019801A5E0220F331FAA95E1F795
:1026700090FD12C08295880F807680930B01220F07
:10268000232F221F330B319520930E01815E8093FF
:102690000C0110920F0112C0E5E036952795EA95DE
:1026A000E1F7220F220F220F20930B0110920E014F
:1026B000295F20930C0183E080930F0124E630E032
:1026C00047E050E069E071E088E70E94422E892BE4
:1026D00009F08BC08091FB0180FD22C0A80175E04C
:1026E000440F551F7A95E1F742505C4F04E610E025
:1026F00020E230E060E488E70E94692E892B09F02F
:1027000074C00E943B16E094F0948091FC03909179
:10271000FD03E822F922F092FD03E092FC0365C07C
:1027200080E2EBEDF1E0DF011D928A95E9F7A80167
:1027300065E0440F551F6A95E1F7E1E4F1E0FA8B9B
:10274000E98B0DE311E0A989BA898D91BA8BA98B28
:10275000F80191918F01BA01690F711D62507C4F90
:1027600090E085529E4FFC0137E0932E9F01281B7D
:10277000390B742C01C0770C2A95EAF75B01812C88
:10278000D501CD905D01C720292D28192770622E13
:10279000022E000C330BBC2D01C0BB0F6A94EAF76C
:1027A0006B2E3195219531092770332701C0C694CE
:1027B0002A95EAF76C28C0806C286082839428E010
:1027C000C22E8C10DDCF9A9431962FEF9212CECF7D
:1027D00089899A898554914009F0B5CF04E610E0C3
:1027E00020E230E04BED51E085CF8091010288235B
:1027F000B9F00E948C1C0091FD011091FE01209106
:10280000FF0130910002DC01CB01801B910BA20B78
:10281000B30B8F3F9F4FAF4FBF4710F40E9421165D
:10282000D1100E943B1686E0E9E0F2E0DE0111964D
:1028300001900D928A95E1F7E0900B02F0900C0266
:1028400000910D0210910E0210920B0210920C02D8
:1028500010920D0210920E02E11003C0FF2009F445
:1028600051C080910702909108020E947D1C9C013A
:1028700090910602992309F4DDC02333310508F451
:1028800041C09F3F19F09F5F90930602EE2061F0D8
:102890000E94B3271E1414F09FEF01C091E0899F9E
:1028A000802D112480930B02FF2061F00E94B3273A
:1028B0001F1414F09FEF01C091E0899F802D112417
:1028C00080930C0230910B023323E1F020910C0233
:1028D0002223C1F045EB3403C0011124992319F0E0
:1028E00090930B0203C081E080930B0235EB23032E
:1028F000C0011124992319F090930C0203C081E0C8
:1029000080930C02011103C0112309F451C080917E
:102910000402909105020E947D1C9C01909103028B
:10292000992309F48CC02536310508F441C09F3F36
:1029300019F09F5F90930302002361F00E9491279A
:10294000101614F09FEF01C091E0899F802D112493
:1029500080930D02112361F00E949127111614F04B
:102960009FEF01C091E0899F802D112480930E027A
:1029700030910D023323E1F020910E022223C1F0A9
:1029800045EB3403C0011124992319F090930D02F3
:1029900003C081E080930D0235EB2303C0011124B5
:1029A000992319F090930E0203C081E080930E02E8
:1029B00080910B0281110BC080910C02811107C024
:1029C00080910D02811103C080910E0281110E943D
:1029D0008A1BEB82FC820D831E8386E0FE0131960A
:1029E000A9E0B2E001900D928A95E1F70E941516D8
:1029F00090910F02891709F45DCC0E9415168093FF
:102A00000F020E94862A56CC09BD19BD09B400FEEA
:102A1000FDCF8091D8008F7D8093D8008091E00019
:102A200082608093E0008091E00081FDFCCF0E94F5
:102A30005B2149CC2D32314008F025CF63CF2D32B8
:102A4000314008F076CFB4CF0895682F70E080E071
:102A500090E00E94F43020E030E04FE753E40E9421
:102A600017302BED3FE049E450E40E941D320E94F4
:102A70008A320E94913020E736E042EE5EE30E9407
:102A8000AA2F24E530E643E252E40E941D320E9460
:102A9000C330862F08951F93CF93DF93CDB7DEB752
:102AA00067970FB6F894DEBF0FBECDBF342F4B8BA8
:102AB000252F5C8B6D8B7E8B8F8B4E895F8961118F
:102AC0001092DD0386E0FE013D96DF01982F1D92F6
:102AD0009A95E9F73D872E876F87598B488BDE01E2
:102AE000179601900D928A95E1F7CE0107960E9404
:102AF000981F81113EC086E0FE013796DE011196D7
:102B000001900D928A95E1F7FF81E8856A857B85C2
:102B10006115710531F0EF3F31F481E0FF3F19F4A9
:102B200003C081E001C080E080FD23C020917703D5
:102B300030E0C9010196877099274091A80350E0C1
:102B40008417950779F1F983EA837D836C8396E096
:102B5000929FD001939FB00D1124A858BC4FFE0145
:102B6000319601900D929A95E1F7809377030E9438
:102B7000221F16E08091A803909177038917F9F03E
:102B8000189FC001112488589C4F0E94981F8823C9
:102B9000B1F08091A80390E0019687709927809307
:102BA000A803E8CF0E945B21109277031092A8033C
:102BB000E1E7F3E086E0DF011D928A95E9F7679689
:102BC0000FB6F894DEBF0FBECDBFDF91CF911F913E
:102BD000089520916603309167032817390771F033
:102BE0009093670380936603E091B101F091B20185
:102BF000309721F00084F185E02D0994089520910B
:102C00006403309165032817390771F090936503C9
:102C100080936403E091B101F091B201309721F00B
:102C20000680F781E02D09940895E091B101F091BB
:102C3000B201309721F00190F081E02D099480E0FD
:102C400008958091020290910102882389F09923CE
:102C500069F062E070E08CE296E00E942022892B0D
:102C600019F08091010208951092010290910102E1
:102C700081E089270895809102028823F9F00E945B
:102C80008C1CDC01CB01805A9541AF4FBF4F809324
:102C9000FD019093FE01A093FF01B093000280918B
:102CA000010281110BC062E070E08AE296E00E94AE
:102CB0002022892B19F481E0809301028091010286
:102CC0000895CF93E82F20910406309105062E5FDA
:102CD00033404091FB03642F70E0C9010E94FF3232
:102CE000481B842FEE2351F066E00E94F332C82F78
:102CF000C150A8F080E20E949221FACFA901480FAA
:102D0000511D4115524018F080E020E030E0280FBE
:102D1000311D22503C4F3093050620930406CF917D
:102D20000895882311F0FA0101C0FB010994309144
:102D300005018091CC0180FF16C0E091040163E0A1
:102D4000E69FF0011124EE5DFD4F539A8BB1877F12
:102D50009BB198602FB7F894AF0163E0369F400DA8
:102D6000511D112414C0809106019091070189170B
:102D700020F7E82FF0E0AF01440F551FE40FF51FD7
:102D8000EE5DFD4F1182108212828F5FF0CFE4174B
:102D9000F50789F0319168E09BB9000000C037FF6A
:102DA0008BB9330F000000C000C000C08BB900C059
:102DB0006A9591F7ECCF2FBF8FE594E00197F1F77B
:102DC00000C0000008959091CC0190FF16C0909132
:102DD000060120910701921770F4E92FF0E0DF015E
:102DE000AA0FBB1FEA0FFB1FEE5DFD4F81836083BF
:102DF00042839F5FF0CF0C94971608958091CC0189
:102E0000282F269530E02115310519F48170826054
:102E100005C02232310524F0817082648093CC0198
:102E20008091CF0187FF03C08FE78093CF01089582
:102E3000CF92DF92EF92FF926B017C010E94FE160F
:102E4000B701A60188E090E0FF90EF90DF90CF906F
:102E50000C94252F8091D001882319F08150809304
:102E6000D0016091CC017091CD018091CE01909103
:102E7000CF010C9418178091D001833018F48F5F24
:102E80008093D0016091CC017091CD018091CE01F1
:102E90009091CF010C941817ECECF1E083E0808363
:102EA00011828FEF82838FE7838314826081718127
:102EB000828193810C941817AF92BF92CF92DF92C8
:102EC000EF92FF920F931F93CF93DF93E82EF62E8E
:102ED000E90147FD4FE7E42FF0E0F11006C0EB5D9C
:102EE000FA4FE4914E2F2E2F71C00F2D10E0EB5DA5
:102EF000FA4F4491F42FC42ED12C26E0E29EC0015B
:102F000011242FEF30E0B9010E94FF325BEA560333
:102F1000C001579F900D11248E0D911D8E0D911D96
:102F2000582F550F580FD901A01BB10BAC9DC001F4
:102F3000AD9D900DBC9D900D1124E92FF59ED00103
:102F40001124AB2FBB277901EA1AFB0AEC9CD001B4
:102F5000ED9CB00DFC9CB00D11245901A51AB108CF
:102F6000A09E7001A19EF00CB09EF00C1124EF2CDD
:102F7000FF242E193F092C9D80012D9D100D3C9D95
:102F8000100D1124212F6230710591F048F4611564
:102F90007105E1F061307105B9F4242F4B2F16C093
:102FA0006430710569F040F06630710579F00CC04D
:102FB000242F492FE12F0AC0492FEF2F2B2F06C0B6
:102FC000292FE42F412F02C0292FEB2F498328837B
:102FD000EA83DF91CF911F910F91FF90EF90DF90E7
:102FE000CF90BF90AF9008957F928F929F92AF92B3
:102FF000BF92CF92DF92EF92FF920F931F93CF93E6
:10300000DF93FC019280748081E0848380E00E94E1
:103010002515882E8FE70E942515A12CF5E0BF2EDF
:10302000CC24CA94D12C8819E82EF12C8091080167
:10303000A81608F09FC00A2D10E022E0291568F0BC
:10304000B09EF001B19EF00D1124E656FD4F809127
:10305000CD0180838091CE01818371100AC0B09E22
:10306000F001B19EF00D1124E656FD4F138212823D
:1030700067C0B09EE001B19ED00D1124C656DD4F51
:103080008B818823E1F081508B832FEF829FC001D9
:1030900011246C8170E00E94FF32862F0E9425155A
:1030A00088192FEF829FC0011124B7010E94FF32BF
:1030B0008091CF01689FB00111247A8341C00E94A2
:1030C000E62E2091CF012695215830E0A901440F2A
:1030D000551F322F2227240F351F232F3327821706
:1030E000930774F582E0891588F40E94E62EB601F4
:1030F0000E94133388830E94E62E2091CE012695EC
:10310000622F70E00E941333280F2983B09EF001D4
:10311000B19EF00D1124E656FD4F12828091CF0131
:10312000843120F0813618F080E601C084E1B09E41
:10313000F001B19EF00D1124E656FD4F8483838388
:10314000809106019801280F311DC901880F991F30
:10315000280F391F2E5D3D4FB09EF001B19EF00D3E
:103160001124E656FD4F4281618180810E945C17E7
:10317000A3945CCFDF91CF911F910F91FF90EF90BF
:10318000DF90CF90BF90AF909F908F907F900C94E6
:103190009716CF938091060190910701891770F4DB
:1031A000E82FF0E09F01220F331FE20FF31FEE5DC7
:1031B000FD4F1182108212828F5FF0CFC0E06091CC
:1031C0000801C617C0F5EC2FF0E070E0CF010E94B7
:1031D000133320910601820F20912102022E000C50
:1031E000330B90E0E217F307CCF020912601022E7A
:1031F000000C330B2E173F078CF09C01220F331F5E
:10320000820F931F9C012E5D3D4F4091CF01609135
:10321000CE018091CD010E945C170BC0FC01EE0F26
:10322000FF1F8E0F9F1FFC01EE5DFD4F118210826C
:103230001282CF5FC4CF0E94971620912501809102
:103240002102820F8093210290912601920F909388
:10325000260119165CF4082E000C990B4091080108
:1032600050E041505109841795071CF02195209397
:103270002501CF910895FF920F931F93CF93DF9372
:10328000EC01F12C0FE710E060910801F616F0F464
:10329000809106012F2D30E0280F311DC901880FC4
:1032A000991F280F391F2E5D3D4F70E0C8010E9405
:1032B0001333962F8C814091CF016091CE01F99EFE
:1032C000800D11240E945C17F394DECF0E949716A4
:1032D0009A818C8190FF02C08F5F01C081508C83E6
:1032E000DF91CF911F910F91FF900895AF92BF9200
:1032F000CF92DF92EF92FF920F931F93CF93DF93C2
:1033000000D01F92CDB7DEB7182FF62E042FE22E75
:103310009091CC0190FF6DC0E92FE695AE2FB0E003
:10332000AB5BBE4F8C918093D1019E7F923061F454
:103330009E012F5F3F4F812F0E945C174B81698157
:103340008A810E94E31643C0823019F40091CF01B4
:103350003EC0863019F41091CD0139C08930D9F3BF
:103360008231A9F5E2518E2F8170D82EE695F0E0DA
:10337000EB5DF94FA590B490C12CBB24609108017E
:10338000C61618F52C2D30E0A29EC001A39E900D0C
:10339000B29E900D112470E00E94FF32812FD11057
:1033A00002C0860F01C0861B90910601290F311DB6
:1033B000A901440F551F240F351F2E5D3D4F402F8F
:1033C0006F2D0E945C17C394D9CF0E94971610935B
:1033D000CD01F092CE010093CF01EE2051F060912B
:1033E000CC017091CD018091CE019091CF010E94CE
:1033F00018170F900F900F90DF91CF911F910F91A1
:10340000FF90EF90DF90CF90BF90AF900895ECECDD
:10341000F1E0438128E0421B08F440E021E06281B2
:1034200081810C947619ECECF1E0438128E0420FA5
:1034300008F44FEF21E0628181810C947619ECEC65
:10344000F1E0628120E1621B08F460E021E0438149
:1034500081810C947619ECECF1E0628120E1620F3D
:1034600008F46FEF21E0438181810C947619ECEC34
:10347000F1E0818121E04381628184500C947619CE
:10348000ECECF1E0818121E0438162818C5F0C945E
:103490007619CF93DF9300D01F92CDB7DEB790910E
:1034A000CC0190FF0AC09E012F5F3F4F0E945C1726
:1034B0004B8169818A810E94E3160F900F900F90D3
:1034C000DF91CF910895CF93DF93EC01ECECF1E025
:1034D000438162818C810E94491A8C818F5F8C8329
:1034E000DF91CF910895CF93DF93EC018C810E94FF
:1034F0002515ECECF1E0482F628181810E94491A88
:103500008C818F5F8C83DF91CF9108950F931F93F0
:10351000CF93DF93C42FD22FFC0182818823C9F07F
:1035200040939C010E94981C9093630380936203D4
:1035300080E28C0F883008F072C0C77081E001C053
:10354000880FCA95EAF7DF91CF911F910F910C94E4
:10355000712180919C0148133DC08091620390913C
:1035600063030E947D1C86399105A0F510E21D0FB2
:10357000CD17E9F080E28C0F883040F4C77081E00D
:1035800001C0880FCA95EAF70E946621183090F5AD
:1035900081E09D2F977001C0880F9A95EAF70E94ED
:1035A0007121093369F560E570E089E32CC00933C6
:1035B00019F460E570E002C060E070E0802F0E94C6
:1035C0007B21183060F5D77081E001C0880FDA9553
:1035D000EAF70AC080E28C0F883008F5C77081E0F6
:1035E00001C0880FCA95EAF7DF91CF911F910F9123
:1035F0000C946621093351F460E570E089E309C059
:1036000060E070E0802F0E947B21DDCF60E070E001
:10361000802FDF91CF911F910F910C947B21DF912F
:10362000CF911F910F9108956091CC01669570E044
:103630004BE050E08AE191E00E942D33892B19F490
:1036400081E08093D2010E94981C9093C7018093DF
:10365000C60108959091CC0190FF36C09170811100
:1036600002C0926006C0823210F0926402C0880FDD
:10367000982B9093CC01662351F06091CC0170910E
:10368000CD018091CE019091CF010E9418176091D9
:10369000CC01669570E04BE050E08AE191E00E9439
:1036A0002D33892B19F01092D20102C00E94141BF5
:1036B00081E08093C90120E04091CF016091CE016B
:1036C0008091CD010C94761908958091CC01869556
:1036D000815009F481E261E00C942A1B8091CC01B5
:1036E00086958F5F823208F081E061E00C942A1B9E
:1036F0009091CC0190FF04C09695981740F003C0BC
:10370000811105C090E0961710F40C946E1B61E0D7
:103710000C942A1B0E94981C20910B02211104C0BA
:1037200020910C02222321F090930802809307023B
:1037300020910D02211104C020910E02222321F0BC
:103740009093050280930402E091B101F091B201DF
:10375000309749F082E0809309020480F581E02DE2
:1037600089E092E0099408958091E603089580E04D
:1037700008952091A8039091770356E02917A9F0A6
:1037800030E0529FF001539FF00D1124E858FC4F98
:103790007181761306C07081781303C0728174132F
:1037A00006C02F5F3F4F2770E9CF80E0089581E08A
:1037B000089522E02093E9002FEF3091E800215096
:1037C00035FD06C035ED3A95F1F700002111F5CF32
:1037D0002091E80025FF0BC040E050E066E070E07B
:1037E0000E9449228091E8008E778093E800089536
:1037F000CF93DF9321E02093E9002FEF3091E80091
:10380000215035FD06C035ED3A95F1F70000211144
:10381000F5CF2091E80025FF14C0EC0140E050E016
:1038200068E070E00E9449228091E8008E778093E2
:10383000E80088E0FE01A7EEB3E001900D928A95C2
:10384000E1F7DF91CF910895CF93DF9300D01F92DE
:10385000CDB7DEB79091F103943019F589837B835E
:103860006A8382E08093E9008FEF9091E8008150B5
:1038700095FD06C095ED9A95F1F700008111F5CF01
:103880008091E80085FF0DC040E050E063E070E00B
:10389000CE0101960E9449228091E8008E778093A4
:1038A000E8000F900F900F90DF91CF9108957894DA
:1038B0001F920F920FB60F9211248F939F93AF9385
:1038C000BF938091E0039091E103A091E203B09156
:1038D000E3030196A11DB11D8093E0039093E103E2
:1038E000A093E203B093E303BF91AF919F918F91B7
:1038F0000F900FBE0F901F9018959C014FB7F89432
:103900008091E0039091E103A091E203B091E30381
:103910004FBF821B930B08952FB7F8946091E0037B
:103920007091E1038091E2039091E3032FBF08952A
:103930002FB7F8948091E0039091E103A091E20306
:10394000B091E3032FBF08951F920F920FB60F920D
:1039500011248F939F93AF93BF938091B3018111F3
:1039600013C08091E0039091E103A091E203B09134
:10397000E3034196A11DB11D8093E0039093E10301
:10398000A093E203B093E303BF91AF919F918F9116
:103990000F900FBE0F901F9018959C012A5F3F4F0C
:1039A000FC014281461301C01282019682179307DF
:1039B000B9F708959C01FC0132969FEF80E0419198
:1039C000461789F09F3F19F4411101C0982F8F5F6E
:1039D0008630A9F79F3F39F0F901E90FF11D97FDF6
:1039E000FA95628308950895CF9384E090E00E9451
:1039F000FF2EC82F82E290E00E94FF2E2C2F30E095
:103A0000A901582BCA01CF9108956AEE7EEF80E09C
:103A100090E00E94312F60E082E090E00E94132F3E
:103A200060E083E090E00E94132F1092D701109283
:103A3000D8011092D9011092DA0160E084E090E0A0
:103A40000E94132F60E082E290E00E94132F60E05A
:103A500085E090E00E94132F60E086E090E00E94F5
:103A6000132F6FEF87E090E00E94132F40E050E0AB
:103A7000BA0188E090E00E94252F60E08DE090E0A0
:103A80000E94132F40E050E0BA0188E190E00E94CC
:103A9000252F60E087E190E00E94132F40E050E086
:103AA000BA018CE190E00E94252F60E070E080E296
:103AB00090E00E94312F40E050E0BA0188E190E0B0
:103AC0000E94252F40E050E0BA018FE090E00E9474
:103AD000252F40E050E0BA0183E190E00C94252FBF
:103AE0008091DF0381111092DF0308959091DE032E
:103AF0008091DD03892B2091DC03982F922B9093EA
:103B000068038091DF03882389F0892B8093680301
:103B1000EAE6F3E097E080E0915029F0219122233A
:103B2000D9F38F5FF9CF81110E94701DE091B1012F
:103B3000F091B201309731F00280F381E02D88E6F8
:103B400093E00994089580E090E00E94FF1580E0E2
:103B500090E00E94E9151092DD031092DC030E94B0
:103B6000761DE9E0F2E086E0DF011D928A95E9F733
:103B70001092060210920302109270030C948A1B9A
:103B8000CF93C0919F01C2FB992790F9981781F0BC
:103B900080FBC2F9C0939F0160919E0184E090E098
:103BA0000E94132F6C2F82E290E0CF910C94132F80
:103BB000CF910895BF92CF92DF92EF92FF920F9331
:103BC0001F93CF93DF938C01C090D301D090D40189
:103BD000E090D501F090D6018091D7019091D80165
:103BE000A091D901B091DA01C82AD92AEA2AFB2A80
:103BF000CFE1D0E0D701C6010C2E04C0B695A79541
:103C0000979587950A94D2F780FD04C0219790F785
:103C1000B12C07C0BC2EB8018C2F0E942E28019712
:103C2000A9F38B2DDF91CF911F910F91FF90EF9012
:103C3000DF90CF90BF900895CF93DF93EC010E9467
:103C4000DA1DBE010E942E28DF91CF9108950E94B7
:103C50001C1E292F2F70E92FE295EF704E2F50E098
:103C6000FA013297EE30F105B8F4ED58FF4F0C949D
:103C70002733803F99F018F4883E70F40FC0843FDA
:103C800059F40CC0883E50F0813F31F407C0822FB8
:103C9000869586958695089580E0089581E008953B
:103CA00024E0929F900D1124890F682F66956695E8
:103CB0006695982F977085E0689FB001112440E0C9
:103CC00050E080E0FB01E40FF51FE755FC4F208139
:103CD00030E0092E02C0369527950A94E2F721704C
:103CE0003327042E01C0220F0A94EAF7822B4F5F7C
:103CF0005F4F4530510531F7089524E0929F900DB4
:103D00001124890FE82FE695E695E695877051E036
:103D100001C0550F8A95EAF785E0E89FF00111246C
:103D2000E755FC4F20E030E070E04081CB01022EEF
:103D300002C0969587950A94E2F781708195842751
:103D40008523842781932F5F3F4F2530310569F705
:103D500008950E94262A6093D3017093D401809322
:103D6000D5019093D6010C94A31D0F931F9341E0AE
:103D700050E060E070E004C0440F551F661F771FDD
:103D80008A95D2F740955095609570958091D301B2
:103D90009091D401A091D501B091D6018A019B01E7
:103DA000082319232A233B23C901B8011F910F912E
:103DB0000C94A91E2091DB03809582238093DB0362
:103DC000982F977041F430E0482F082E000C550BC7
:103DD0002417350721F490919F0192FF07C0859524
:103DE000859585950E94B51E1092DB0308950F936B
:103DF0001F9341E050E060E070E004C0440F551FA5
:103E0000661F771F8A95D2F78091D3019091D401D4
:103E1000A091D501B091D6018A019B01082B192BE5
:103E20002A2B3B2BC901B8011F910F910C94A91E9D
:103E30006093D7017093D8018093D9019093DA01F0
:103E40000C94A31D8091A80390917703891719F012
:103E50008F5F8770FBCF08950F931F93CF93DF93EE
:103E60008091760382958F7009F05DC08091730315
:103E7000882309F458C08091A803109177036091BA
:103E8000710370917203C0917403D091750391E036
:103E90006F3F09F090E0292F06E0811709F443C035
:103EA000209721F07F3F21F030E003C031E001C0D6
:103EB000322F90E030FD34C0089FF001099FF00DD3
:103EC0001124DF01A858BC4F11963C91119737136C
:103ED00027C03C91361324C012963C9112973111A1
:103EE0001FC013964D915C9114974C1B5D0B463986
:103EF0005105B0F4809176038F70806180937603D2
:103F0000E358FC4F80818F708061808381E793E06C
:103F10000E94A006DF91CF911F910F910C94221F58
:103F200001968770BACFDF91CF911F910F910895BD
:103F30008F929F92AF92BF92CF92DF92EF92FF92B9
:103F40000F931F93CF93DF93CDB7DEB761970FB673
:103F5000F894DEBF0FBECDBF8C0185E0F801DE0115
:103F60001D9601900D928A95E1F7D801DC9011968B
:103F7000EC9011971296CC9090917103209172035E
:103F800040917403509175034115510531F02F3F55
:103F900031F481E09F3F19F403C081E001C080E06B
:103FA00080FD58C1F801A380B48081E7882E83E0AA
:103FB000982EF0907303B501641B750BFF2009F474
:103FC00003C180917603382F307F6639710508F080
:103FD000CDC0311188C02E1112C09D1110C0FC2C13
:103FE000C1100DC08F70806180937603C4010E9460
:103FF000A00680917603D80115968C9348C1A11430
:10400000B10439F0BFEFEB1206C081E0DB1203C050
:1040100003C081E001C080E080FD03C081E08C2509
:1040200002C080E090E080FF10C04C2D6E2D8D2DE1
:104030000E94B91B882349F081E793E00E94A00603
:10404000E1E7F3E086E0DF0199C0AB2839F0BFEF8C
:10405000EB1206C081E0DB1203C003C081E001C0A7
:1040600080E080FD03C081E08C2502C080E090E00C
:10407000E82FE170BE2E80FF2CC04C2D6E2D8D2DB3
:104080000E94B91BF82E811124C0DD86EE868D8535
:104090009E850E941C1E292F22952F70223018F019
:1040A000243090F405C09F7059F0811109C0EFC011
:1040B0009F7031F0D80115969C91907F09F4E7C06C
:1040C000805E883008F4E3C0C8010E94A006FB2C83
:1040D000DEC0FC2CCC2009F4DAC08091760381602C
:1040E000809376034EC02E1106C09D1104C0C110EE
:1040F00002C0F8018BC0DD86EE868D859E850E940C
:10410000271E882369F1CC2059F120917603822F54
:1041100082958F7090E0029774F080917103909176
:10412000720398878F831986BB86AA862C87CE0157
:1041300007960E94A00686E0F801A1E7B3E001908F
:104140000D928A95E1F70E942C1F0DC02E15D9F013
:10415000DD86EE868D859E850E94271E81111DC0FD
:10416000C8010E94A006FF24F39491C03111EECF44
:1041700081E793E00E94A00686E0D4011D928A9513
:10418000E9F7F12C84C09D11E3CFC110E1CFF80114
:104190008583C8010E94A00657C0CC2009F3209156
:1041A0007603822F82958F7090E0029724F280919F
:1041B0007103909172039A8389831B82BD82AC82C2
:1041C0002E83CE010196B5CF66397105E8F5FC2C3A
:1041D000CC2031F22E1127C09D1125C020917603ED
:1041E00020FD18C0822F82958F70482F50E0411516
:1041F000510581F0F80125834F30510541F08F5F63
:10420000982F9295907F822F8F70892B8583C8017C
:104210000E94A00686E0F801A1E7B3E001900D92AC
:104220008A95E1F734C0DD86EE868D859E850E94F5
:10423000271E811180CF8091760381608093760361
:10424000C8010E94A00623C086E0D4011D928A9571
:10425000E9F71DC0CC2009F483CFDD86EE868D857D
:104260009E850E94271EF82E882309F479CF86E0C8
:10427000F801A1E7B3E001900D928A95E1F78091F2
:104280007103909172030E941C1E0E942C1F8F2D9F
:1042900061960FB6F894DEBF0FBECDBFDF91CF9110
:1042A0001F910F91FF90EF90DF90CF90BF90AF9054
:1042B0009F908F9008951092DE0386E0EAE6F3E087
:1042C000DF011D928A95E9F70C94A31D882341F024
:1042D00080959091DE0389238093DE030C94761DF4
:1042E0000895882339F09091DE03892B8093DE03B3
:1042F0000C94761D08951F93CF93DF93182FEB0135
:104300000E942C2C209741F08FE99FE00197F1F754
:1043100000C000002197F6CF812FDF91CF911F9130
:104320000C94C52BCF93DF938A3011F481E003C046
:104330008D3029F480E0DF91CF910C946116682FC5
:10434000809104069091050626E0FC01AEEFB5E0F1
:1043500001900D922A95E1F7603E30F026E0FC01D5
:1043600011922A95E9F70AC0F6E06F9FB001112477
:104370006259784F46E050E00E94F62EC091040644
:10438000D091050646E050E0BE018EEF95E00E9418
:104390003A33892B49F19E012E5F3340A90185E014
:1043A000569547958A95E1F781E090E0BC0102C0FF
:1043B000660F771F4A95E2F74091FC035091FD0389
:1043C000462B572B2B5F3F4F65E0369527956A9517
:1043D000E1F702C0880F991F2A95E2F7842B952BED
:1043E0009093FD038093FC039E01285F334040912E
:1043F000FB03642F70E0C9010E94FF32481B463066
:1044000010F4240F311D211582E0380710F020E050
:1044100030E022503C4F3093050620930406DF9194
:10442000CF910895CF93DF93EC01FE01849188230F
:1044300021F00E9492212196F8CFDF91CF9108952B
:10444000EF92FF920F931F93CF93DF93EC017B01C9
:1044500064E670E088E70E94BB2D8C01EC0EFD1E27
:10446000CE15DF0561F017FD0AC0FE01849164E6F8
:1044700070E00E94122E8C012196892B89F30E94F4
:10448000962EC801DF91CF911F910F91FF90EF9071
:104490000895EF92FF920F931F93CF93DF937C01C8
:1044A0008B010E94D02C811119C0E7010115110563
:1044B000A1F08091E80085FD0AC08091E8008E7728
:1044C0008093E8000E94D02C882381F307C0899153
:1044D0008093F10001501109E9CF80E0DF91CF9185
:1044E0001F910F91FF90EF9008951F93CF93DF934B
:1044F000CDB7DEB7AA970FB6F894DEBF0FBECDBF1B
:10450000E3EFF3E08091F100819323E0EB3FF207CA
:10451000C9F78091F403833009F460C030F481302E
:1045200071F0823009F49AC0B1C08A3009F486C0B3
:104530008B3009F46BC0893009F0A8C020C080918D
:10454000F303813A09F0A2C08091E800877F80934D
:10455000E8008091F7039091F803892B21F468E03B
:1045600087EE93E003C060E080E090E070E00E949E
:10457000572D8091E8008B778093E80087C0809169
:10458000F303813209F082C08091F7039091F80320
:10459000029708F07BC08091E800877F8093E80055
:1045A0008091E80082FD05C08091F1038111F8CF70
:1045B0006DC02091F3008091F20090E0922B029761
:1045C00029F48091F1008B7F813021F48091F100FA
:1045D0008093E6038091E8008B7754C08091F303C9
:1045E000813A09F053C08091F7039091F803892B29
:1045F00009F04CC08091E800877F8093E8008091AB
:10460000E80080FFFCCF8091270137C08091F30341
:104610008132E1F58091F7039091F803892BB1F590
:104620008091E800877F8093E8000E94032D8091AD
:10463000F503809327010E945B2128C08091F3033A
:10464000813221F58091E800877F8093E8000E9405
:10465000032D8091F6038093E50318C08091F30346
:10466000813AA1F48091E800877F8093E8008091EF
:10467000E80080FFFCCF8091E5038093F1008091FA
:10468000E8008E778093E8000E94032D8091E80077
:1046900083FFCCC18091F3039091F403492F50E044
:1046A0004A30510508F0C2C1FA01EF57FF4F0C9490
:1046B0002733803821F0823809F0B8C108C08091D2
:1046C000EF039091F003992389F082600FC08091ED
:1046D000F7038F70873008F0A9C18093E9008091BB
:1046E000EB0085FB882780F91092E9009091E800A3
:1046F000977F9093E8008093F1001092F10065C1DC
:10470000282F2D7F09F092C1882319F0823061F0A3
:104710008DC18091F503813009F088C1933009F093
:1047200080E08093F0032EC08091F50381112AC0B0
:104730008091F7038F702FEF280F263008F076C195
:104740008093E9002091EB0020FF1CC0933021F4FE
:104750008091EB00806214C09091EB009061909387
:10476000EB0021E030E0A90102C0440F551F8A95FB
:10477000E2F74093EA001092EA008091EB00886033
:104780008093EB001092E9008091E800877F20C1C0
:1047900081114CC11091F5031F778091E30080785F
:1047A000812B8093E3008091E800877F8093E8006D
:1047B0000E94032D8091E80080FFFCCF8091E300F0
:1047C00080688093E300111102C082E001C083E0A1
:1047D0008093F1032BC18058823008F027C180916B
:1047E000F5039091F6038C3D53E0950779F583E04E
:1047F0008A838AE289834FB7F894DE01139620E01A
:104800003EE051E2E32FF0E050935700E49120FFA7
:1048100003C0E295EF703F5FEF708E2F90E0EA30BB
:1048200010F0C79601C0C0968D939D932F5F2431E1
:1048300049F74FBF8091E800877F8093E8006AE2E4
:1048400070E0CE0101960E94572DAEC04091F70353
:104850005091F803292F332723303105A9F068F44C
:104860002130310509F4F1C02230310509F0DEC0F4
:104870008BE390E0E9EEF6E044C02132310521F10E
:104880002232310571F1D2C0992781309105A1F012
:1048900058F0029709F0CAC0E6E3F7E0E4918E2FE2
:1048A00090E0E6E3F7E02AC0EAE6F7E0E4918E2F35
:1048B00090E0EAE6F7E022C0E8E5F7E0E4918E2F29
:1048C00090E0E8E5F7E01AC04115510509F4C2C0CF
:1048D0004130510509F0AAC089E090E0E4E1F7E039
:1048E00010C04115510509F4BAC04130510509F015
:1048F0009DC08BE790E0EEE2F6E003C0009709F47C
:1049000095C02091E800277F2093E8002091F903CB
:104910003091FA038217930708F49C0140E02115B7
:10492000310589F18091F103882309F43DC0853078
:10493000D9F18091E80083FD37C08091E80082FDC5
:104940002FC08091E80080FFEACF4091F300809172
:10495000F20090E0942B2115310559F08830910533
:1049600040F444914093F100319621503109019671
:10497000F2CF41E0089709F040E08091E8008E779F
:104980008093E800CCCF4111CDCF0AC08091F103D4
:10499000882351F0853041F08091E80083FD04C008
:1049A0008091E80082FFF2CF8091E8008B778093BE
:1049B000E8003CC08038D1F58091E800877F809383
:1049C000E8008091F2038093F1008091E8008E77F7
:1049D0008093E8000E94032D29C0811127C0809197
:1049E000F5039091F6039927029704F58091E8006A
:1049F000877F8093E8001091F5031093F2030E94E3
:104A0000032D111106C08091E30087FD02C081E0F3
:104A100001C084E08093F10342E061EC81E00E94F8
:104A2000222D42E261EC82E00E94222D8091E8007A
:104A300083FF1AC08091E800877F8093E80080910F
:104A4000EB0080628093EB000FC082E190E0E4E233
:104A5000F7E057CF89E090E0EBEFF6E052CF80E44B
:104A600090E0E9EAF6E04DCFAA960FB6F894DEBFE3
:104A70000FBECDBFDF91CF911F9108951F920F926E
:104A80000FB60F9211242F933F934F935F936F9321
:104A90007F938F939F93AF93BF93CF93DF93EF93C6
:104AA000FF93C091E900CF708091EC00D82FD170B6
:104AB00080FDD0E81092E9008091F000877F80931C
:104AC000F00078940E9475221092E9008091F00025
:104AD00088608093F000CD2BCF70C093E900FF91E8
:104AE000EF91DF91CF91BF91AF919F918F917F9186
:104AF0006F915F914F913F912F910F900FBE0F904B
:104B00001F901895E8EDF0E080818E7F80831092F1
:104B1000E2001092DA001092E100A0EEB0E08C9179
:104B200081608C9380818F77808319BCA7EDB0E082
:104B30008C918E7F8C9380818F7E80831092E40392
:104B40000895CF92DF92EF92FF920F931F93CF932E
:104B5000DF93C8EDD0E088818F7E8883E7EDF0E0B9
:104B600080818160808384E082BF81E08093E40360
:104B700088818E7F888302EE10E0F8011082109207
:104B8000DA0081EEC82ED12CF601108288818F7751
:104B9000888388818068888388818F7D888319BC19
:104BA0001092F1031092F2031092F0031092EF03AF
:104BB00090EEE92EF12CF70180818B7F8083888134
:104BC0008160888342E060E080E00E94222DF6014F
:104BD00080818E7F8083F8018081816080838081E5
:104BE00088608083F70180818E7F808388818061E7
:104BF0008883DF91CF911F910F91FF90EF90DF900D
:104C0000CF9008951F920F920FB60F9211242F93F9
:104C10003F934F935F936F937F938F939F93AF9344
:104C2000BF93EF93FF938091E10082FF09C08091D1
:104C3000E20082FF05C08091E1008B7F8093E1005C
:104C40008091DA0080FF2AC08091D80080FF26C0C2
:104C50008091DA008E7F8093DA008091D90080FF06
:104C600018C080E189BD82E189BD09B400FEFDCF95
:104C700081E08093F1038091E40381110FC00E94D1
:104C800082250E94A1258091E20084608093E20049
:104C900005C019BC1092F1031092E4038091E10069
:104CA00080FF17C08091E20080FF13C08091E20076
:104CB0008E7F8093E2008091E20080618093E20029
:104CC0008091D80080628093D80019BC85E08093E1
:104CD000F1038091E10084FF2EC08091E20084FF07
:104CE0002AC080E189BD82E189BD09B400FEFDCF03
:104CF0008091D8008F7D8093D8008091E1008F7ED5
:104D00008093E1008091E2008F7E8093E2008091A9
:104D1000E20081608093E2008091F203882311F029
:104D200084E007C08091E30087FD02C081E001C0FC
:104D300083E08093F1038091E10083FF27C080919D
:104D4000E20083FF23C08091E100877F8093E10030
:104D500082E08093F1031092F2038091E1008E7F54
:104D60008093E1008091E2008E7F8093E200809149
:104D7000E20080618093E20042E060E080E00E9417
:104D8000222D8091F00088608093F000FF91EF91D8
:104D9000BF91AF919F918F917F916F915F914F9153
:104DA0003F912F910F900FBE0F901F9018959091EB
:104DB0009E0192FF0DC0282F2871283019F4877F9B
:104DC000846006C0282F2471243011F48B7F886002
:104DD00093FF0DC0282F2871283119F4877E846134
:104DE00006C0282F2471243111F48B7E8861209114
:104DF0009F0120FF0DC0382F3871383019F4877F9C
:104E0000816006C0382F3171313011F48E7F886097
:104E100021FF0DC0282F2871283119F4877E816168
:104E200006C0282F2171213111F48E7E886194FDF6
:104E3000877E08958D3E39F490910C0297FF35C01E
:104E400010920C0259C08E3E29F490910C02191652
:104E5000BCF32BC090910B028F3E29F497FF25C025
:104E600010920B0249C0803F19F41916CCF31DC0F3
:104E700090910D02893F29F41916BCF410920D028D
:104E80003BC08A3F19F497FF10C0F8CF8B3F39F42D
:104E900090910E0297FF09C010920E022DC08C3F18
:104EA00021F490910E021916BCF39FE0980F9830F0
:104EB00080F421E030E0A90102C0440F551F9A950B
:104EC000E2F7CA01809590910A02892380930A0231
:104ED00013C08D3F21F4809170038E7F0BC08E3FF5
:104EE00021F4809170038D7F05C08F3F29F480915C
:104EF00070038B7F8093700380910B02811106C039
:104F000080910C02811102C01092060280910D0264
:104F1000811106C080910E02811102C0109203021D
:104F200008958091700380FD16C081FD16C082FD3A
:104F300018C080910302882391F0883290F428E011
:104F4000829FC001112468E270E00E941333862F13
:104F5000672B29F007C082E0089584E0089581E07E
:104F6000089588E008958091700380FD14C081FD4C
:104F700014C082FD16C080910602882381F084311E
:104F800080F422E3829FC001112464E170E00E945A
:104F90001333862F08958CE0089589E1089585E004
:104FA000089582E308958D3E21F40E94B3278195F0
:104FB00004C08E3E29F40E94B32780930C0208950A
:104FC0008F3E21F40E94B327819504C0803F29F4CD
:104FD0000E94B32780930B020895893F19F40E9421
:104FE000912705C08A3F31F40E94912781958093D3
:104FF0000D0208958B3F21F40E949127819504C0F2
:105000008C3F29F40E94912780930E0208959FE01F
:10501000980F983078F421E030E0A90102C0440FE5
:10502000551F9A95E2F7CA0190910A02892B809345
:105030000A0208958D3F21F48091700381600BC0B6
:105040008E3F21F480917003826005C08F3F29F468
:10505000809170038460809370030895CF93DF93F1
:1050600020E5829FC0011124FC0145E0749FE00D02
:10507000F11D1124E60FF11DEE0FFF1FE45AFE4F44
:10508000C591D491CE01C238D10569F1B0F4C133D4
:10509000D10509F475C048F4C932D10509F469C0D5
:1050A000CA32D10509F473C085C0C533D10509F4EE
:1050B00059C0C933D105B9F07DC0C33ED10571F1E6
:1050C00038F4C03ED105B1F0C23ED10511F172C035
:1050D000C63ED105B9F1C73ED105C9F1C43ED105DF
:1050E00009F068C024C020919E0120FD5DC021FD13
:1050F0005BC060C020919E0120FD50C020919F01A7
:1051000020FF51C180919E0184FD4BC183EE90E050
:105110004AC120919E0122FF46C1F4CF80919E0199
:1051200082FD3FC080919F0180FD3EC0EBCF20916A
:105130009F0121FF38C180919E0184FD32C187EE1D
:1051400090E031C120919E0123FF2DC1F4CF8091C9
:105150009E0183FD2CC080919F0181FFECCF84EEE6
:1051600090E021C120919E0125FF1DC189E290E0C0
:105170001AC120919E0125FF16C185E390E013C15D
:1051800020919E0126FF0FC18AE290E00CC1209180
:105190009E0126FF08C181E390E005C189E390E00C
:1051A00002C182EE90E0FFC080EE90E0FCC086EE8F
:1051B00090E0F9C0C11551E5D50708F06CC0C115E4
:1051C00020E5D207F0F0CE01F4E096958795FA95A8
:1051D000E1F7282F23703C2F337081E090E002C06C
:1051E000880F991F3A95E2F79C68922B2C2F2F700D
:1051F0002695269550E2259F90011124822B932B12
:10520000D2C0C83ED10570F5C03ED10508F0CBC074
:10521000C83AD105B8F4C53AD10550F02C2F255A1B
:10522000C22FD0E0C959DE4F888190E09064BBC0A6
:10523000C130D10509F4B7C008F4B3C0249708F40D
:10524000B0C0B1C0CF3BD10508F0ABC02C2F285A5D
:10525000C22FD0E0CC0FDD1FC659DE4F8881998167
:105260009464A1C0C11540E2D40760F4C11551E0B7
:10527000D50708F098C0CD3ED10508F492C0CE0104
:10528000906591C0C11580E4D80708F48AC0CE01AA
:105290009F70906A88C0C11525E5D20708F040C00C
:1052A000C11544E5D40728F09C2F8827846F906AA5
:1052B0007AC0C11553E5D507A8F09E0123703327A6
:1052C00081E090E002C0880F991F2A95E2F72C2F09
:1052D0002695269550E2259F90011124822B932B31
:1052E0009A6861C0C11582E5D80728F49C2F8827E9
:1052F000816F906A58C09E012370332781E090E04F
:1053000002C0880F991F2A95E2F72C2F2695269523
:1053100040E2249F90011124822B932B9C6843C070
:10532000C11529E5D207B0F4C11548E5D40728F026
:105330009C2F8827806F906A36C0C11556E5D50727
:1053400080F58C2F0E94D7268F7190E0982F8827A8
:10535000906229C0C1158AE5D80790F48C2F8F7010
:105360000E94D7269E0194E0369527959A95E1F7FD
:105370002F7030E0322F22273069A901482B0FC04F
:10538000CE0190568115904260F48D2F8F710E944E
:10539000D7269E01332730628F71A901582BCA018D
:1053A00002C080E090E0DF91CF910895CF92DF922C
:1053B000EF92FF926C01EE24FF24C114D104E104AA
:1053C000F10421F0C701B60120E101C020E0C72EA1
:1053D000D82EE92EFF24C114D104E104F10419F000
:1053E000285FC701B6016B017C0154E0F694E79495
:1053F000D794C7945A95D1F7C114D104E104F104AC
:1054000019F02C5FC701B6016B017C0142E0F694F4
:10541000E794D794C7944A95D1F7C114D104E10415
:10542000F10419F02E5FC701B601DC01CB01B6957E
:10543000A79597958795892B8A2B8B2B09F02F5F42
:10544000822FFF90EF90DF90CF900895CF92DF9260
:10545000EF92FF926B017C016091D7017091D801AE
:105460008091D9019091DA010E94D629882341F0D8
:10547000813031F428E232E040E36FEF89EA05C081
:1054800028E232E040E16FEF85E50E945C17C7013A
:10549000B6010E94D629833051F0843071F08230F9
:1054A00099F428E232E040E66FEF80E10BC028E299
:1054B00032E040E66FEF85E505C028E232E040E6E5
:1054C00060EC84E90E945C17C701B601FF90EF9081
:1054D000DF90CF900895CF93C82F22E232E081FF72
:1054E00002C040E601C040E16FEF80E00E945C171F
:1054F00025E232E0C0FF02C040E601C040E26FEFAB
:1055000080E20E945C17CF910C9497160C946B2A42
:105510002F923F924F925F926F927F928F929F92C3
:10552000AF92BF92CF92DF92EF92FF920F931F93B1
:10553000CF93DF9300D000D000D0CDB7DEB720EA04
:10554000822E21E0922E38EAE32E31E0F32ED401B0
:1055500028E231E03A832983B12C61E070E06D01EB
:105560006C901C92E981FA818191FA83E983E82F9A
:10557000E295EF702E2F30E03C832B83F90121A1BF
:105580008F70AB0102C0440F551F8A95E2F7CA0124
:10559000242B21A322A1A42EA0942A2122A350EAE5
:1055A0005A95F1F798E3292E91E0392E810140E0D8
:1055B00050E0F80171908F01272D22952F7030E077
:1055C000F90120A15C9030E0F72DFF7002C0359505
:1055D0002795FA95E2F720FD07C0262F042E01C07B
:1055E000220F0A94EAF701C020E0522A5C924F5F32
:1055F0005F4F45305105E9F6EB81FC8191A1A9226D
:10560000A1A292A1892B82A3119681E0F60190813B
:10561000961101C080E0B82AEA16FB0609F09FCF78
:1056200040E050E061E070E080EB482E81E0582ED1
:10563000D1018D911D01E82FE295EF70F0E021A1DD
:105640008F70DB0102C0AA0FBB1F8A95E2F7CD0164
:105650002A2B21A322A1FA2EF0942F2122A3B0EA13
:10566000BA95F1F79B01042E01C0220F0A94EAF7C4
:10567000A22EE22EE09400EB11E028EA31E03E8316
:105680002D83A8E2B1E0BC83AB83C12C2D813E8188
:105690003A832983D901DC90AB81BC817D90BC83A6
:1056A000AB83272D22952F7030E0D90190962C9155
:1056B00030E0B72DBF7002C035952795BA95E2F757
:1056C00020FD03C02D2D2A2902C02D2D2E21AD81B4
:1056D000BE812C932D813E812F5F3F4F3E832D83D2
:1056E000A981BA812C91D21611F0CC24C3942D81BA
:1056F0003E814216530651F691A1F922F1A292A1E0
:10570000892B82A3BC284F5F5F4F4530510509F0BC
:105710008FCFBB2049F081E0809308060E94981C3F
:10572000909307068093060680910806882399F0D7
:1057300080910606909107060E947D1C069758F0FE
:10574000E6EBF1E0D4018D914D0181930A171B071F
:10575000C9F7109208068B2D26960FB6F894DEBF77
:105760000FBECDBFDF91CF911F910F91FF90EF90B2
:10577000DF90CF90BF90AF909F908F907F906F9071
:105780005F904F903F902F900895882309F463C055
:10579000823869F40E94151681FF5DC069E388E6CE
:1057A00093E00E94DA1C0E94761D69E30EC08338E4
:1057B00091F40E94151680FF4EC063E588E693E0E1
:1057C0000E94DA1C0E94761D63E588E693E00E9441
:1057D000CD1C0C94761D843869F40E94151682FF46
:1057E0003AC067E488E693E00E94DA1C0E94761DC6
:1057F00067E4EBCF9CEF980F913A10F4682FE5CF58
:1058000090E2980F983088F4877021E030E0A90189
:1058100002C0440F551F8A95E2F7CA018095909106
:10582000DE0389238093DE03D4CF9BE5980F93306A
:1058300020F480E090E00C94FF1598E5980F9731E4
:1058400020F480E090E00C94E9158D3E20F00E9459
:105850001A270C948A1B0895CF93882309F49EC0BD
:10586000C82F8238B1F40E94151681FD97C069E3F4
:1058700088E693E00E94DA1C0E94761D2FEF81EEED
:1058800094E0215080409040E1F700C0000069E3BF
:1058900017C08338E1F40E94151680FD7FC063E5D0
:1058A00088E693E00E94DA1C0E94761D2FEF81EEBD
:1058B00094E0215080409040E1F700C0000063E593
:1058C00088E693E00E94CD1CCF910C94761D84381D
:1058D000B1F40E94151682FD61C067E488E693E08A
:1058E0000E94DA1C0E94761D2FEF81EE94E0215079
:1058F00080409040E1F700C0000067E4E1CF8CEF0A
:105900008C0F813A80F4EAE6F3E080E793E021919E
:10591000C217E1F18E179F07D1F76C2F88E693E04D
:105920000E94DA1CD1CF80E28C0F883068F4C770F7
:1059300081E090E001C0880FCA95EAF79091DE03FC
:10594000892B8093DE03C0CFEBE5EC0FE33040F40E
:10595000F0E0E959FE4F808190E0CF910C94FF1563
:10596000E8E5EC0FE73150F4F0E0EE0FFF1FE659E9
:10597000FE4F80819181CF910C94E915CD3E70F05E
:105980008C2F0E94D327CF910C948A1B6C2F88E612
:1059900093E00E94CD1C0E94761DBFCFCF91089549
:1059A0002091E4003091E50095E64091EC00842FD1
:1059B000817040FF23C08091E80080FD1DC0809170
:1059C000F103882399F0853099F08091EB0085FDF3
:1059D00011C04091E4005091E5002417350729F3E8
:1059E000915011F09A01E1CF84E0089582E008958A
:1059F00083E0089581E0089580E008954091E800F3
:105A000042FFDDCF08958091F30387FF11C080919D
:105A1000E80082FD05C08091F1038111F8CF11C02B
:105A20008091E8008B770BC08091F103882349F0C7
:105A30008091E80080FFF8CF8091E8008E77809316
:105A4000E8000895982F973068F59093E90098172B
:105A500039F07091EC002091ED005091F00003C0FE
:105A6000242F762F50E021FD02C09F5FECCF3091B4
:105A7000EB003E7F3093EB003091ED003D7F3093A3
:105A8000ED003091EB0031603093EB007093EC004F
:105A90002093ED005093F0002091EE0027FDE5CF1C
:105AA00080E008958F708093E90081E0089520914F
:105AB000F9033091FA032617370748F0611571058D
:105AC00039F42091E8002E772093E80001C0B90155
:105AD000FC0120E06115710579F18091F1038823C3
